:020000040800F2
:10000000B0B1002095020008832B0008B902000857
:10001000812B0008BD0400088D330008000000009B
:10002000000000000000000000000000DD010008EA
:10003000B90500080000000031020008D32B0008B9
:10004000AF020008AF020008AF020008AF020008CC
:10005000AF020008AF020008AF020008AF020008BC
:10006000AF020008AF020008AF020008AF020008AC
:10007000C1040008AF020008AF020008AF02000888
:10008000CD040008D9040008AF020008AF02000840
:10009000AF020008AF020008AF020008AF0200087C
:1000A000AF020008AF020008AF020008AF0200086C
:1000B000AF020008AF020008AF020008AF0200085C
:1000C000AF020008AF020008AF020008AF0200084C
:1000D000AF0200083D32000891320008E532000806
:1000E000AF020008AF020008AF020008AF0200082C
:1000F000AF020008AF020008AF020008AF0200081C
:10010000AF020008AF020008AF020008AF0200080B
:10011000AF020008AF020008AF020008AF020008FB
:10012000AF020008E5040008F1040008AF0200086F
:10013000AF020008AF020008AF020008AF020008DB
:10014000AF020008AF020008AF020008AF020008CB
:10015000AF020008FD040008090500083933000853
:10016000AF020008AF020008AF020008AF020008AB
:10017000AF020008AF020008AF0200080000000054
:10018000AF020008AF020008AF020008AF0200088B
:10019000AF020008AF020008AF020008AF0200087B
:1001A000AF020008AF020008AF020008DFF810D06D
:1001B00000F008F9004800470D430008AFF3008045
:1001C000B0B10020EFF308807047EFF3098070476B
:1001D0006846704780F30888704700002A4B19680A
:1001E0000868B0E8F04F80F30988BFF36F8F4FF0D5
:1001F000000080F311887047000000000648006886
:10020000006880F3088862B661B6BFF34F8FBFF312
:100210006F8F00DF00BF00BF08ED00E0DFF80C00CB
:10022000016841F470010160704700BF88ED00E093
:10023000EFF30980BFF36F8F134B1A681EF0100F96
:1002400008BF20ED108A20E9F04F106008B44FF08D
:10025000500080F31188BFF34F8FBFF36F8F05F00D
:1002600003F94FF0000080F3118808BC1968086892
:10027000B0E8F04F1EF0100F08BFB0EC108A80F30A
:100280000988BFF36F8F704750000020EFF305809F
:10029000704700000648804706480047FEE7FEE733
:1002A000FEE7FEE7FEE7FEE7FEE7FEE7FEE7FEE726
:1002B000852C0008AD0100087046694603F092FBEA
:1002C000FFF7FEFF2DE9F05F0546002092469B46B2
:1002D00088460646814640241BE02846414647465C
:1002E000224600F05FF853465A46C01A914110D397
:1002F00011461846224600F046F82D1A67EB010811
:100300004F4622460120002100F03DF817EB00097E
:100310004E41201EA4F10104DFDC484631462A4646
:100320004346BDE8F09F40EA01039B0703D009E084
:1003300008C9121F08C0042AFAD203E011F8013BD1
:1003400000F8013B521EF9D27047D2B201E000F82A
:10035000012B491EFBD270470022F6E710B5134669
:100360000A4604461946FFF7F0FF204610BD10B5B7
:10037000044604E00B7800F8013B03B1491C521E0F
:10038000F8D2204610BD202A04DB203A00FA02F100
:10039000002070479140C2F1200320FA03F3194373
:1003A00090407047202A04DB203A21FA02F0002115
:1003B000704721FA02F3D040C2F120029140084375
:1003C00019467047064C074D06E0E06840F001030F
:1003D00094E8070098471034AC42F6D3FFF7EAFEE2
:1003E000586A0008786A000810B504F041FD03F06F
:1003F00073FC0448006804F0B1FEBDE8104004F04E
:1004000071BD00001000002010B501F0D3F902F01A
:10041000F5FB00F0A9FB02F089FA02F0DBFA02F02A
:100420005FFB02F071FB02F083FB02F095FB00F032
:10043000C5F807A208A10AA003F008FC0DA002F06D
:10044000A7FFBDE8104014A115A002F0A1BF000055
:1004500056302E312E33000056312E302E30000013
:10046000616F615F626173655F73746174696F6E00
:100470005F6969002D2D2D2D2D2D2D2D2D2D2D203C
:10048000616F612073797320202D2D2D2D2D2D2D41
:100490002D2D2D2D2D0A000056302E312E3000002E
:1004A000626F6F746C6F61646572207665727369D8
:1004B0006F6E3A2573200D0A00000000FEE7000071
:1004C000014800F0E1BB0000AC170020014800F03B
:1004D000DBBB0000EC160020014800F0D5BB00009B
:1004E0004C170020014800F0CFBB00000C18002082
:1004F000014800F0C9BB00002C160020014800F0A4
:10050000C3BB00006C180020014800F0BDBB000018
:100510008C16002001681823CAB2103AB2FBF3F21D
:10052000054B6FF30901032A9B5CC36500D9091DC4
:1005300081650846704700001461000810B5014647
:1005400000208B698A6A4FF0C07453B1B3F5005F25
:1005500015D072B1012A0CD0022A0AD0032A09D17F
:1005600004E01AB1012A06D0022A03D1C96AC901DE
:1005700000D5012010BDC96AA142FAD010BD002AE1
:10058000F7D0012AF2D0022AF3D0032AF3D010BD0B
:1005900030B50468256825F480252560046863600B
:1005A0008368402B036803D099600068C26030BD47
:1005B0009A600068C16030BD7047000038B52349BB
:1005C0000868C26842F01002C260086801684068AA
:1005D0004FF48074009022461D491C4802F05AF8DE
:1005E0001A4940310868C26842F01002C2600868C7
:1005F000016840680090154822461649403002F0D4
:1006000049F8124980310868C26842F01002C2609D
:1006100008680168406810490090224601F686206B
:1006200002F038F80949C0310868C26842F0100287
:10063000C26008680168406800902246BDE8384002
:10064000064901F5B86002F025B800002C1500201D
:10065000200600201A010020260B00202C1000206C
:1006600070B50E4604004FF0000532D0012C30D09A
:10067000022C2ED0032C2CD0042C2AD0052C28D0D0
:10068000062C26D0072C24D0082C22D0092C20D0D0
:100690000A2C1ED00B2C1CD00C2C1AD00D2C18D0D0
:1006A0000E2C16D00F2C14D0102C12D0112C10D0D0
:1006B000122C0ED0132C0CD0142C0AD0152C08D0D0
:1006C000162C06D0172C04D040F25F2118A003F09E
:1006D000E3F866B1012E24D0022E25D0032E04D0DB
:1006E0004FF4187112A003F0D7F84FF440750B2C9B
:1006F00000D9241D1E48016821F440710160016881
:1007000029430160016821F0F801016001680222BB
:1007100002EBC40211430160016841F480310160C1
:1007200070BD4FF48075E2E74FF40075DFE700001D
:100730002E2E5C4C69627261726965735C53544D14
:100740003332463478785F48414C5F44726976654D
:10075000725C5372635C73746D3332663478785FA5
:1007600068616C5F666C6173685F65782E6300001A
:10077000103C02401348016889050FD5016821F437
:1007800000710160016841F400610160016821F4B9
:1007900000610160016841F4007101600168490570
:1007A0000FD5016821F480610160016841F4805136
:1007B0000160016821F480510160016841F48061A9
:1007C00001607047003C024070B50C4605000AD03D
:1007D000012D08D0022D06D0032D04D040F2312186
:1007E00015A003F059F8012C08D0022C06D0032CD8
:1007F00004D040F2322110A003F04EF81E480168E8
:1008000021F440710160032C0DD00168012C0FD040
:1008100041F40041016001684FF4803242EA052250
:100820001143016070BD016848F204021143F1E711
:1008300041F00401EEE700002E2E5C4C696272610B
:10084000726965735C53544D3332463478785F482F
:10085000414C5F4472697665725C5372635C737479
:100860006D3332663478785F68616C5F666C617393
:10087000685F65782E630000103C024070B5044646
:10088000A0F100600D46B0F5001F09D30B482044CD
:10089000B0F5047F04D340F2C52109A002F0FCFFAB
:1008A000164A106820F440701060106810601068DC
:1008B00040F001001060257070BD0000008800E06D
:1008C0002E2E5C4C69627261726965735C53544D83
:1008D0003332463478785F48414C5F4472697665BC
:1008E000725C5372635C73746D3332663478785F14
:1008F00068616C5F666C6173682E6300103C024037
:1009000070B50446A0F1006015461E46B0F5001F04
:1009100009D30D482044B0F5047F04D340F2772179
:100920000AA002F0B9FF1848016821F44071016083
:10093000016841F440710160016841F0010101600A
:100940002560666070BD0000008800E02E2E5C4CC3
:1009500069627261726965735C53544D3332463417
:1009600078785F48414C5F4472697665725C537277
:10097000635C73746D3332663478785F68616C5F82
:10098000666C6173682E6300103C024070B50446CB
:10099000A0F100600D46B0F5001F09D30C482044BB
:1009A000B0F5047F04D34FF42B710AA002F074FF5A
:1009B000174A106820F440701060106840F480708E
:1009C0001060106840F001001060258070BD0000CC
:1009D000008800E02E2E5C4C69627261726965735A
:1009E0005C53544D3332463478785F48414C5F4411
:1009F00072697665725C5372635C73746D333266D0
:100A00003478785F68616C5F666C6173682E630030
:100A1000103C024070B50446A0F100600D46B0F5F0
:100A2000001F09D30C482044B0F5047F04D340F2E2
:100A300093210AA002F030FF174A106820F440709A
:100A40001060106840F400701060106840F0010001
:100A50001060256070BD0000008800E02E2E5C4C08
:100A600069627261726965735C53544D3332463406
:100A700078785F48414C5F4472697665725C537266
:100A8000635C73746D3332663478785F68616C5F71
:100A9000666C6173682E6300103C02401C49086854
:100AA000C2061C4805D5C26942F01002C26110227C
:100AB0000A600A68920605D5C26942F00802C2615E
:100AC00020220A600A68520605D5C26942F0040273
:100AD000C26140220A600A68120605D5C26942F066
:100AE0000202C26180220A600A68D20506D5C26984
:100AF00042F00102C2614FF480720A600A689207F4
:100B000005D5C26942F02002C26102200860704728
:100B10000C3C0240E000002070B511490446002062
:100B2000C86100F039FE05460E4E09E0601C07D092
:100B300024B100F031FE401BA04201D9032070BD5A
:100B40003068C003F2D43068C00701D001203060A3
:100B5000306810F4F970F2D0FFF7A0FF012070BDEB
:100B6000E00000200C3C0240194808B5016841F043
:100B700080010160016801F080010091016841F08D
:100B800004010160016801F004010091016841F075
:100B900001010160016801F001010091016841F06B
:100BA00002010160016801F002010091016841F059
:100BB00040010160016801F040010091016841F4C9
:100BC00080710160006800F48070009008BD000032
:100BD000303802402DE9F0410446876D00F0DCFD1D
:100BE000054694F835000026022806D0802060656E
:100BF00084F834600120BDE8F0812068016821F0AC
:100C0000160101602068416921F080014161206C7A
:100C100008B9A06C20B12068016821F008010160CA
:100C20002068016821F0010101600BE000F0B4FDD3
:100C3000401B052806D92020606504F8346F032086
:100C40006070D8E720680068C007EFD194F85C10A6
:100C50003F208840B86004F8346F012060700020A5
:100C6000C9E790F83510022903D0802141650120A1
:100C70007047052180F835100068016821F00101F6
:100C800001600020704700002DE9F84304464FF052
:100C90000009CDF8009063484FF41651A56D006827
:100CA000B0FBF1F72E6894F85C20082101FA02F0FD
:100CB00030420FD02068026852070BD5026822F03C
:100CC0000402026094F85C008140A960606D40F00D
:100CD0000100606594F85C104FF0010808FA01F01B
:100CE000304208D021684969090604D5A860606DC2
:100CF00040F00200606594F85C10042088403042A7
:100D000008D021680968890704D5A860606D40F0A3
:100D10000400606594F85C1010208840304218D0C0
:100D200021680968090714D5A8602068016849038B
:100D300004D50068000308D5A16C07E00168C90567
:100D400003D4016821F008010160216C09B120463B
:100D5000884794F85C1020208840304231D02168C8
:100D60000968C9062DD5A86094F8350005282068C3
:100D7000016806D0490347D5006800031DD4616CA3
:100D80001CE021F0160101602068416921F080011A
:100D90004161206C08B9A06C20B12068016821F085
:100DA0000801016094F85C103F208840A86084F836
:100DB000349084F83580216D1FE0E16B09B1204645
:100DC0008847606D00282BD0606DC00714D00520C7
:100DD00084F835002068016821F001010160009865
:100DE000401C0090B84203D820680068C007F6D1C4
:100DF00084F8349084F83580E16C002910D001B07B
:100E00002046BDE8F04308470168C905D5D401680C
:100E100021F01001016084F8349084F83580CCE72B
:100E2000BDE8F883000000202DE9F041044600F001
:100E3000B3FC0546002C7CD0A149206888423ED0F6
:100E40009F49183188423AD09D493031884236D086
:100E50009B494831884232D09949603188422ED02E
:100E60009749783188422AD095499031884226D0D6
:100E70009349A831884222D0924988421FD0914993
:100E8000183188421BD08F493031884217D08D49A4
:100E90004831884213D08B49603188420FD089494C
:100EA000783188420BD087499031884207D08549F4
:100EB000A831884203D0C82183A002F0EDFC60680D
:100EC000C0B1B0F1007F15D0B0F1806F12D0B0F199
:100ED000C06F0FD0B0F1006F0CD0B0F1206F09D00F
:100EE000B0F1406F06D0B0F1606F03D0C92176A099
:100EF00002F0D2FCA06838B1402805D0802803D089
:100F0000CA2171A002F0C8FCE068B0F5007F04D0EF
:100F100018B1CB216CA002F0BFFC2069B0F5806F46
:100F200004D018B1CC2168A002F0B6FC606958B1B9
:100F300000E071E0B0F5006F06D0B0F5805F03D03F
:100F4000CD2161A002F0A8FCA06948B1B0F5005F16
:100F500006D0B0F5804F03D0CE215BA002F09CFC00
:100F6000E06940B1B0F5807F05D0202803D0CF21C3
:100F700055A002F091FC206A60B1B0F5803F09D025
:100F8000B0F5003F06D0B0F5403F03D0D0214EA0D1
:100F900002F082FC606A002832D0042806D0D121F9
:100FA00049A002F079FC606A002829D0A06A48B103
:100FB000012807D0022805D0032803D0D62142A05B
:100FC00002F06AFCE06A60B1B0F5000F09D0B0F140
:100FD000807F06D0B0F1C07F03D0D7213AA002F0C5
:100FE0005BFC206B60B1B0F5001F09D0B0F5800F3D
:100FF00006D0B0F5C00F03D0D82133A002F04CFCCE
:10100000002684F83460022084F8350020680168E6
:1010100021F0010101600DE00120BDE8F08100F048
:10102000BBFB401B052805D920206065032084F800
:101030003500F2E720680068C007F0D121680A682F
:1010400030480240D4E901031843D4E903352B4367
:10105000184363691843A3691843E3691843236A73
:1010600018431043626A042A03D1D4E90B231A43BC
:101070001043086020684069656A20F0070128462F
:101080000D43012704280CD1A06A0543E06A40B152
:101090002046FFF753FA20B14020606584F8357090
:1010A000BAE7206845612046FFF734FA94F85C20DF
:1010B0003F2191408160666584F835700020ACE77F
:1010C00010600240106402402E2E5C4C6962726116
:1010D000726965735C53544D3332463478785F4897
:1010E000414C5F4472697665725C5372635C7374E1
:1010F0006D3332663478785F68616C5F646D612E41
:10110000630000003F8010F02DE9F0478946044657
:10111000866D0025581E4FF6FF711F469046884287
:1011200004D34FF4EA711EA002F0B6FB94F8340029
:1011300001280DD0012084F8340094F835100020E7
:10114000012907D084F8340002252846BDE8F0873D
:101150000220FBE7022184F8351060653B464246D9
:1011600049462046FFF714FA94F85C103F20884067
:10117000B0602068016841F0160101602068416993
:1011800041F080014161206C20B12068016841F08C
:10119000080101602068016841F001010160D4E7A5
:1011A0002E2E5C4C69627261726965735C53544D9A
:1011B0003332463478785F48414C5F4472697665D3
:1011C000725C5372635C73746D3332663478785F2B
:1011D00068616C5F646D612E630000002DE9F0476B
:1011E00004462E480F46017E012912D00121814676
:1011F0000176206828B1012803D0BB2128A002F085
:101200004BFB4CF2503A5046FFF786FC060003D0E9
:101210003FE00220BDE8F0874FF0FF3038602068E3
:10122000DFF8BC8001280BD0D4E90210401801D0AF
:10123000182803D9D3211AA002F02EFBA56821E0BB
:10124000207C6168FFF7C0FA5046FFF765FCD8F8CC
:101250000010064648F204029143C8F8001016E058
:10126000217C2846FFF7FCF95046FFF755FCD8F8DB
:101270000010060021F0FA01C8F8001001D03D600E
:1012800005E06D1CD4E902100844A842E8D8FFF735
:1012900071FA002189F818103046BBE7E000002001
:1012A0002E2E5C4C69627261726965735C53544D99
:1012B0003332463478785F48414C5F4472697665D2
:1012C000725C5372635C73746D3332663478785F2A
:1012D00068616C5F666C6173685F65782E6300009F
:1012E000103C02400348016841F0004101600020C9
:1012F00070470000103C02402DE9F047214E0446A3
:101300001546307E1F468946012813D001203076CD
:101310004CB1012C07D0022C05D0032C03D0B421F2
:1013200019A002F0B9FA4CF250384046FFF7F4FB2E
:1013300018B114E00220BDE8F0879CB1012C16D052
:10134000022C19D02A463B464846FFF7D9FA4046B8
:10135000FFF7E2FB1B490A6822F001020A60002144
:101360003176E8E7E9B24846FFF788FAEFE7A9B235
:101370004846FFF70BFBEAE729464846FFF74AFBDA
:10138000E5E70000E00000202E2E5C4C69627261EF
:10139000726965735C53544D3332463478785F48D4
:1013A000414C5F4472697665725C5372635C73741E
:1013B0006D3332663478785F68616C5F666C617338
:1013C000682E6300103C0240074900200A68002A8A
:1013D00009DA054A054B0C3A1360054B136009689E
:1013E000002900DA01207047103C024023016745C4
:1013F000AB89EFCD2DE9F84F0446A9480D4684424C
:1014000021D0A84884421ED0A74884421BD0A748B8
:10141000844218D0A648844215D0A648844212D0EF
:10142000A54884420FD0A54884420CD0A4488442E9
:1014300009D0A448844206D0A348844203D0C321E3
:10144000A2A002F029FA28680104090C01D0000CBE
:1014500003D0C4219DA002F01FFA6868F8B10128EA
:101460001DD011281BD0022819D0122817D0A64948
:10147000884214D0A549884211D0A54988420ED08F
:10148000A44988420BD0A449884208D0A349884285
:1014900005D0032803D0C5218CA002F0FDF9A8686F
:1014A00038B1012805D0022803D0C62187A002F058
:1014B000F3F900264FF00F0B0120B0402F68824651
:1014C000074057457ED16868022801D0122830D1E4
:1014D000286908B309281FD001281DD002281BD075
:1014E000032819D0042817D0052815D0062813D0B2
:1014F000072811D008280FD00A280DD00B280BD0B0
:101500000C2809D00D2807D00F2805D00E2803D0AD
:10151000D7216EA002F0C0F9F00804EB8000026A47
:101520007107C90E0BFA01F39A432B698B401343E1
:10153000036222687000032101FA00F829798146CC
:1015400001F0030122EA080201FA09F111432160C6
:101550006868012805D0022803D0112801D012287C
:101560001CD1E86848B1012807D0022805D003281B
:1015700003D0EA2155A002F08FF9A068E96820EABB
:10158000080001FA09F10143A1606168287921EAA4
:101590000A01C0F30010B04008436060E168A86829
:1015A00021EA080100FA09F00843E0606868C00019
:1015B0006FD55B48016841F480410160006800F428
:1015C000804000E065E00090564826F003010A18CC
:1015D000D2F80838B007010F0BFA01F08343304806
:1015E000844201D100202DE02E48844201D1012007
:1015F00028E02D48844201D1022023E02B48844278
:1016000001D103201EE02A48844201D1042019E0C0
:101610002848844201D1052014E02748844201D1A2
:1016200006200FE02548844201D107200AE0244823
:10163000844201D1082005E02248844201D10920DA
:1016400000E00A2088401843C2F8080836490868B4
:101650006A68B843D20300D5384308603249091D8F
:1016600008686A68B843920300D5384308602E4979
:10167000083108686A68B843D20200D53843086068
:1016800029490C3108686A68B843920200D538438A
:101690000860761C102EFFF40FAFBDE8F88F000035
:1016A000000002400004024000080240000C02401A
:1016B000001002400014024000180240001C0240CA
:1016C0000020024000240240002802402E2E5C4CE4
:1016D00069627261726965735C53544D333246348A
:1016E00078785F48414C5F4472697665725C5372EA
:1016F000635C73746D3332663478785F68616C5FF5
:101700006770696F2E630000000011100000211047
:1017100000003110000012100000221000003210F2
:101720004438024000300140003C014070B515468D
:101730000C00064604D140F2AF1108A002F0ACF84C
:1017400045B1012D04D04FF4D87104A002F0A4F8E3
:10175000B46170BD2004B06170BD00002E2E5C4CE1
:1017600069627261726965735C53544D33324634F9
:1017700078785F48414C5F4472697665725C537259
:10178000635C73746D3332663478785F68616C5F64
:101790006770696F2E630000014880687047000021
:1017A000040000200248816802781144816070477B
:1017B000040000200B4810B5016841F4007101607D
:1017C000016841F480610160016841F48071016049
:1017D000032000F0ADF80F2000F006F800F024F828
:1017E000002010BD003C024070B50D4D04464FF482
:1017F0007A712878B1FBF0F00A490968B1FBF0F082
:1018000000F07EFC48B9102C07D200222146501E61
:1018100000F03EF800206C6070BD012070BD00003B
:1018200004000020000000207047000010B50400F4
:1018300003D5CE2106A002F02FF804F01F010120ED
:1018400088406109890001F1E021C1F8000110BD63
:101850002E2E5C4C69627261726965735C53544DE3
:101860003332463478785F48414C5F44726976651C
:10187000725C5372635C73746D3332663478785F74
:1018800068616C5F636F727465782E63000000009E
:1018900070B514460D460646102A03D3BA2113A08C
:1018A00001F0FAFF102D03D3BB2110A001F0F4FFCB
:1018B0001E480068C0F30223C3F10700042800D9C2
:1018C0000420191D072901D2002300E0DB1E01229C
:1018D00002FA00F1491E294099409A40521E2240C6
:1018E0003046BDE87040114301F04CB92E2E5C4CDF
:1018F00069627261726965735C53544D3332463468
:1019000078785F48414C5F4472697665725C5372C7
:10191000635C73746D3332663478785F68616C5FD2
:10192000636F727465782E63000000000CED00E0B8
:1019300010B5044607280BD0062C09D0052C07D07B
:10194000042C05D0032C03D0A22108A001F0A4FF91
:10195000164A04F0070110684FF6FF03184040EAEA
:10196000012013490843106010BD00002E2E5C4C6E
:1019700069627261726965735C53544D33324634E7
:1019800078785F48414C5F4472697665725C537247
:10199000635C73746D3332663478785F68616C5F52
:1019A000636F727465782E63000000000CED00E038
:1019B0000000FA052DE9F0470C4605007ED02868A6
:1019C000401E0E2804D94FF4147180A001F064FF6A
:1019D00014B3012C20D0022C1ED0032C1CD0042CBC
:1019E0001AD0052C18D0062C16D0072C14D0082C91
:1019F00012D0092C10D00A2C0ED00B2C0CD00C2C91
:101A00000AD00D2C08D00E2C06D00F2C04D040F29A
:101A100051216EA001F040FFDFF8EC91D9F80000F1
:101A200000F00F01E0B28046A14208D2014689F8D9
:101A30000010D9F8000000F00F00A0427BD1286808
:101A4000724E810729D5400703D5306840F4E05035
:101A500030602878000703D5306840F4604030607B
:101A6000A868A0B1802812D0902810D0A0280ED04D
:101A7000B0280CD0C0280AD0D02808D0E02806D042
:101A8000F02804D04FF41D7150A001F005FF30681C
:101A9000A96820F0F000084330602878C0073CD0E7
:101AA0005A4F6868083F98B1012821D0022822D0F7
:101AB000032820D040F27B2144A000E03BE001F06D
:101AC000EBFE6868012813D0022814D0032812D036
:101AD0003868800700282EDA3068696820F0030033
:101AE00008433060FFF758FE074641F2883A0DE0A0
:101AF00038688003EEE738688001EBE7FFF74CFEBB
:101B0000C11B514502D90320BDE8F08730686968E0
:101B100000F00C00B0EB810FF0D1D9F8001048466E
:101B200001F00F01A14208D980F80080006800F0A0
:101B30000F00A04201D00120E6E728784FF480543E
:101B400040074FF4A0574FF4C0584FF4E05914D554
:101B5000E86860B1A0420AD0B84208D0404506D03B
:101B6000484504D040F2B92118A001F095FE306834
:101B7000E96820F4E050084330602878000715D564
:101B8000286960B1A0420AD0B84208D0404506D0CA
:101B9000484504D04FF430710CA001F07DFE306850
:101BA000296920F4604040EAC100306000F054F838
:101BB0003168174AC1F30311515CC84015490860E8
:101BC0000F20FFF711FE00209EE700002E2E5C4C38
:101BD00069627261726965735C53544D3332463485
:101BE00078785F48414C5F4472697665725C5372E5
:101BF000635C73746D3332663478785F68616C5FF0
:101C00007263632E63000000003C0240083802400B
:101C1000FC600008000000200448054900680968CD
:101C2000044AC1F38221515CC84070470000002083
:101C3000083802400C61000804480549006809683A
:101C4000044AC1F34231515CC84070470000002093
:101C5000083802400C610008154810B5006810F003
:101C60000C01144813D0144B04290FD008290ED1AD
:101C70000F4C241F216801F03F022168490207D55B
:101C80002068C0F38810A0FB030106E0184610BDD1
:101C90002168C1F38811A1FB00010023FEF712FBAC
:101CA0002168C1F30141491C4900B0FBF1F010BDAE
:101CB000083802400024F40040787D012DE9F84FF7
:101CC00004007CD020680F2803D9F821ECA001F093
:101CD000E3FD2078F94DC00755D060684FF4803699
:101CE0004FF4A02738B1B04205D0B84203D0FD214F
:101CF000E3A001F0D1FDF14808300168C1F3810192
:101D0000012909D00068C0F3810002280BD1EB48FB
:101D1000001D0068400206D52868800333D560683E
:101D20000028CED02FE06068B04203D1286840F48C
:101D300080300CE0B842286803D140F4802028604D
:101D4000F4E720F480302860286820F480202860A0
:101D5000606860B1FFF720FD064604E0FFF71CFD58
:101D6000801B64287ED828688003F7D50BE0FFF736
:101D700013FD064604E0FFF70FFD801B6428F1D831
:101D800028688003F7D42078DFF8349380074FF079
:101D9000000A50D5E06830B1012804D040F22F117C
:101DA000B7A001F079FD20691F2804D94FF498717C
:101DB000B3A001F071FDC1480830016800E091E076
:101DC00011F00C0F09D00068C0F3810002280BD17C
:101DD000BA48001D0068400206D42868800714D560
:101DE000E06801287ED110E0E068B0B10120C9F8B8
:101DF0000000FFF7D1FC064604E0FFF7CDFC801B96
:101E00000228AFD828688007F7D52868216920F014
:101E1000F80040EAC10028600DE0C9F800A0FFF713
:101E2000BBFC064604E0FFF7B7FC801B022899D8EC
:101E300028688007F7D4207800072BD59F4FA14E44
:101E400060697437C0B1012806D04FF4B8718CA016
:101E500001F022FD606978B101203060FFF79CFC41
:101E6000064605E042E1FFF797FC801B022886D872
:101E700038688007F7D50DE0C6F800A0FFF78CFCA6
:101E8000064604E0FFF788FC801B0228B9D83868B2
:101E90008007F7D42078400776D5A0684FF0000877
:101EA00040B1012806D0052804D04FF4CE7174A0AB
:101EB00001F0F2FCDFF804B20BF1400BDBF800009C
:101EC000C0000CD4DBF8001041F08051CBF80010BA
:101ED000DBF800004FF0010800F0805000907A4FCE
:101EE000386800E0CBE0C0050FD4386840F480705B
:101EF0003860FFF751FC064604E0FFF74DFC801BFD
:101F0000022894D83868C005F7D56C4FA0687037A0
:101F100001280FD00528386810D020F00100386063
:101F2000386820F004003860A068B0B1FFF734FCD6
:101F300006460EE0386840F00100F4E740F0040087
:101F40003860F7E7FFF728FC811B41F288308142B7
:101F50008DD838688007F5D50DE0FFF71DFC0646E3
:101F600006E0FFF719FC811B41F2883081428DD8D1
:101F700038688007F5D4B8F1000F05D0DBF8001001
:101F800021F08051CBF80010A069002876D00128FC
:101F900009D0022807D040F2DF1139A001F07CFC03
:101FA000A0690028F2D0454808300068C0F38100DD
:101FB000022864D0A069022805D0C9F860A0FFF704
:101FC000EBFB044695E0E06938B1B0F5800F04D032
:101FD0004FF4F4712AA001F05FFC206A3F2804D975
:101FE00040F2E91126A001F057FC606A3238B0F5E2
:101FF000BF7F04D94FF4F57121A001F04DFCA06A18
:1020000002280AD0042808D0062806D0082804D0C0
:1020100040F2EB111AA001F03FFCE06A801E0D288F
:1020200004D94FF4F67116A001F036FC4F46C9F8FA
:1020300060A0FFF7B1FB064604E0FFF7ADFB801B95
:10204000022853D828688001F7D4D4E9070108434F
:10205000A16A1E4A490802EB0141626A41EA821103
:10206000084394F82C1040EA01611448001D0160F7
:1020700001203866FFF790FB04462EE03CE03DE08F
:102080002E2E5C4C69627261726965735C53544DAB
:102090003332463478785F48414C5F4472697665E4
:1020A000725C5372635C73746D3332663478785F3C
:1020B00068616C5F7263632E630000000038024049
:1020C00000004742800E4742007000400000FFFFC2
:1020D000FFF762FB001B022808D828688001F7D5AB
:1020E0000AE0FFF759FB001B022802D90320BDE8D4
:1020F000F88F28688001F4D40020F8E70120F6E783
:1021000010B5401EB0F1807F01D3012010BD4FF00B
:10211000E02460610F21601700F034FD0020A06111
:1021200007202061002010BD10B5044600684169F9
:1021300094F83920C1F3C011212A0BD151B1416962
:1021400021F080014161206B08B1FEF743FD20467C
:1021500000F020FE2068416994F83A20C1F3801114
:10216000222A0BD151B1416921F040014161606BDC
:1021700008B1FEF72FFD204600F0FEFD002010BD47
:102180007047000070B5026804461068D168536952
:1021900010F00F0F50D003F0010501F49076354395
:1021A0005DD0C20705D0CA0503D5E26B42F001023B
:1021B000E263420705D5DA0703D0E26B42F0020280
:1021C000E263820705D5DA0703D0E26B42F004022E
:1021D000E263020705D5DA0703D0E26B42F008029A
:1021E000E263E26B002A33D0800604D5880602D56C
:1021F000204600F0D8FD20684069E16BC0F38010F4
:10220000090700D428B3204600F0B6FD20684169D4
:1022100049061AD5416921F040014161606BA0B1C6
:102220001B490165606BFEF71CFD002810D0606B38
:10223000016DBDE870400847830610D58B060ED5AA
:102240002046BDE8704000F0AEBD2046FFF798FF85
:1022500070BD2046FFF794FF0020E06370BD0306C9
:1022600006D50B0604D52046BDE8704000F084BFBB
:102270004006F3D54806F1D5D168204621F040014B
:10228000D160202184F8391000F0AFFA70BD000051
:10229000D92C000870B5040022D0A0693D4900285F
:1022A0003D4A3E4B3E4E20681CD08D1588420BD0D7
:1022B000904209D0984207D0B04205D0294639A0B3
:1022C00001F0EAFAA06930B3A069A84223D0B0F5C2
:1022D000007F20D0B0F5407F1DD040F2011117E003
:1022E000012070BD884216D0904214D0984212D07E
:1022F0003B4988420FD03B4988420CD0B0420AD0BB
:102300003949884207D03949884204D040F2051142
:1023100024A001F0C1FAA06838B1B0F5805F04D004
:1023200040F207111FA001F0B7FAE06938B1B0F52B
:10233000004F04D04FF484711AA001F0ADFA94F864
:102340003900002520B984F83850204600F050F8B4
:10235000242084F839002068C16821F40051C1604C
:10236000204600F067FD2068016921F49041016179
:102370002068416921F02A0141612068C16841F467
:102380000051C160E563202084F8390084F83A00E8
:10239000002070BD00100140004400400048004093
:1023A000001401402E2E5C4C696272617269657383
:1023B0005C53544D3332463478785F48414C5F4427
:1023C00072697665725C5372635C73746D333266E6
:1023D0003478785F68616C5F756172742E63000099
:1023E000004C00400050004000780040007C00405D
:1023F0002DE9F04F87B0044614216846FDF7ACFF85
:102400009949DFF860C2143920680025DFF858B216
:102410000222032307270E154FF000694FF0400AF0
:10242000604544D1DBF800C04CF0100CCBF800C084
:10243000DBF8000000F010000590086840F0010093
:1024400008600868694600F00100059058028DE8B0
:102450002500CDE903378548FEF7CCFF854F84483A
:102460003860C7E90195C7E903567D61BD61FD612B
:102470003D6238467D62FEF7D7FC6763BC63603718
:102480007B48C7E903567D61BD61FD613D627830DF
:102490007D6287E801063846FEF7C6FC2763002206
:1024A00006212520BC63FFF7F3F925204EE0DFF875
:1024B000C881DFF8B4C1DFF8C4E1ACF1040C4045D9
:1024C00049D1DCF8000040F40030CCF80000DCF822
:1024D000000000F400300590086840F00800086033
:1024E0000868694600F00800059060208DE8250026
:1024F000CDE903377046FEF77DFF5E4F6048C03779
:102500003860C7E90195C7E903567D61BD61FD618A
:102510003D6238467D62FEF787FC6763BC636037C7
:102520005748C7E903567D61BD61FD613D621830C2
:102530007D6287E801063846FEF776FC27630122B4
:1025400006212620BC63FFF7A3F92620FFF76EF9CA
:1025500007B0BDE8F08FDFF82C81404535D1DCF8BD
:10256000000040F48020CCF80000DCF8000000F40B
:1025700080200590086840F00800086008686946F7
:1025800000F0080005904FF440708DE82500CDE97B
:1025900003377046FEF72EFF39483B4F60383860EE
:1025A000C7E90195C7E903567D61BD61FD613D62E3
:1025B00038467D62FEF738FC67630122062127203A
:1025C000BC63FFF765F92720C0E7304FB842BFD1A1
:1025D000DBF8007047F02007CBF80070DBF8000054
:1025E00000F020000590086840F0040008600868CA
:1025F000694600F004000590C0208DE82500082001
:10260000CDE903302248FEF7F5FE1F4F184860372A
:10261000183838604FF02068C7E90185C7E90356CC
:102620007D61BD61FD613D6238467D62FEF7FCFB68
:102630006763BC6360370E48C7E903567D61BD61BF
:10264000FD613D6260307D6287E801053846FEF736
:10265000EBFB2763012206214720BC63FFF718F933
:10266000472073E700100140443802400000024058
:10267000406402402C16002000440040000C024040
:102680008860024000480040AC1700200014014060
:102690000008024037B5044690F83A0082B013466D
:1026A00020283AD1039AAAB3A3B394F8380001289A
:1026B00033D0012084F83800A262A3850025E563A9
:1026C000222084F83A00616B1548C863616B154895
:1026D0000864616B1448C864606B05652168606BB1
:1026E000091DFEF711FD206801684168009184F81A
:1026F0003850C16841F48071C1602068416941F07F
:10270000010141612068416941F0400141610020BF
:1027100005B030BDFFE70120FAE70220F8E700002E
:10272000332D00086F2D0008E92C00087047704712
:102730002DE9F843044690F839001E4617460D4629
:10274000202850D1A5B19FB194F8380001284AD073
:10275000012084F838004FF00008C4F83C802120A4
:1027600084F83900FFF718F8A7848146E78426E04B
:102770000120BDE8F883E08C401EE084A0684B4651
:10278000B0F5805F4FF000024FF0800120460096C8
:1027900003D000F022FDE8B90DE000F01EFDC8B93D
:1027A00028882168C0F308004860206908B16D1CC2
:1027B00005E0AD1C03E0216815F8010B4860E08CD2
:1027C0000028D8D14B46002240212046009600F038
:1027D00004FD08B10320CCE7202084F8390084F8F8
:1027E00038800020C5E70220C3E7704710B50068B5
:1027F0000E49884219D10E4C2146A3884A8801F51A
:1028000083703BB11844A11DFDF78DFDA088618840
:10281000084403E0A11DFDF786FD6088A080618863
:10282000A01DFDF799FD0120207010BD0010014092
:102830001A06002010B500680E49884219D10E4CC6
:102840002146A3884A8801F583703BB11844A11D35
:10285000FDF769FDA0886188084403E0A11DFDF72C
:1028600062FD6088A0806188A01DFDF775FD0120D4
:10287000207010BD004400401401002070B50068B5
:102880001549884226D1154C2146A0884A8801F571
:10289000837538B12844A11DFDF745FDA0886188E6
:1028A000084404E0A11D2846FDF73DFD6088A08096
:1028B0006188A01DFDF750FD01202070A2886423CF
:1028C00029460748FFF734FF6188A01DBDE8704026
:1028D000FDF742BD70BD000000480040200B002005
:1028E0002C15002010B500680E49884219D10E4CF5
:1028F0002146A3884A8801F583703BB11844A11D85
:10290000FDF711FDA0886188084403E0A11DFDF7D3
:102910000AFD6088A0806188A01DFDF71DFD0120D3
:10292000207010BD0014014026100020F0B526488C
:1029300087B0016841F080010160016801F0800109
:102940000591016841F080010160016801F080019A
:102950000591016841F080010160016801F080018A
:102960000591016841F00801016000684FF480653D
:1029700000F0080005900120CDE9005002900320EE
:10298000124F039069463846FEF734FD6C006946E5
:1029900038460094FEF72EFD6600694638460096DC
:1029A000FEF728FD0A4F694638460094FEF722FDDF
:1029B000064818300560046006600022214638464B
:1029C000FEF7B4FE07B0F0BD30380240001C0240F4
:1029D000000C0240414808B5016841F480010160E3
:1029E000016801F480010091016841F40011016067
:1029F0000068002200F40010009006210B20FEF772
:102A000047FF0B20FEF712FF002206210C20FEF7E5
:102A10003FFF0C20FEF70AFF002206210D20FEF7E3
:102A200037FF0D20FEF702FF002206210E20FEF7E1
:102A30002FFF0E20FEF7FAFE002206210F20FEF7E0
:102A400027FF0F20FEF7F2FE002206211020FEF7DE
:102A50001FFF1020FEF7EAFE002206211120FEF7DC
:102A600017FF1120FEF7E2FE002206212F20FEF7BD
:102A70000FFF2F20FEF7DAFE002206213820FEF796
:102A800007FF3820FEF7D2FE002206213920FEF78C
:102A9000FFFE3920FEF7CAFE002206213A20FEF78B
:102AA000F7FE3A20FEF7C2FE002206213B20FEF789
:102AB000EFFE3B20FEF7BAFE002206214520FEF77E
:102AC000E7FE4520FEF7B2FE002206214620FEF773
:102AD000DFFEBDE808404620FEF7A8BE30380240C1
:102AE0000848074901604FF4E131416000218160ED
:102AF0000C22C160C0E904128161C161FFF7CABB49
:102B0000001001402C1500200848074901604FF4CF
:102B1000E1314160002181600C22C160C0E90412F2
:102B20008161C161FFF7B6BB004400406C15002015
:102B30000848074901604FF4E1314160002181609C
:102B40000C22C160C0E904128161C161FFF7A2BB20
:102B500000480040AC1500200848074901604FF4C8
:102B6000E1314160002181600C22C160C0E90412A2
:102B70008161C161FFF78EBB00140140EC1500209C
:102B8000FEE770470907090E002806DA00F00F007B
:102B900000F1E02080F8141D704700F1E02080F87B
:102BA00000147047027809B1401C08601046704755
:102BB0000378002242EA0362437842EA03428378C0
:102BC00042EA0323C2781A4309B1001D0860104687
:102BD000704710B55020EFF3118480F31188BFF3D4
:102BE0004F8FBFF36F8FFEF7DDFD03F01FF8012855
:102BF00001D002F001FD84F3118810BD30B593B00F
:102C000030216846FDF7A8FB14210CA8FDF7A4FBB2
:102C10001A480025016841F080510160006800F009
:102C2000805011901648016841F4404101600068ED
:102C3000022400F440401190012000900004019013
:102C40008001CDE90640192008904FF4A870CDE925
:102C5000090407200B906846FFF730F80CA90F20F5
:102C600081E831004FF4A0500F90E0021090052150
:102C70000CA8FEF79FFE13B030BD000040380240A4
:102C8000007000401048016841F4700101600F4875
:102C9000016841F0010101600C4A00210832116015
:102CA00002680B4B1A400260031D0A4A1A60026850
:102CB00022F48022026005480C3001600249580667
:102CC000803908607047000088ED00E0003802405D
:102CD000FFFFF6FE1030002410B5806B0021C18587
:102CE000C184FFF74DFA10BD70B5846B2068406950
:102CF00094F83910C0F3C0100025212904D118B16F
:102D0000E584204600F046F82068406994F83A10BF
:102D1000C0F38010222904D118B1E585204600F0C7
:102D20002BF8E06B40F01000E0632046FFF728FA34
:102D300070BD10B50146806B09680968C90513D4D8
:102D40000021C1850168CA6822F48072CA600168E6
:102D50004A6922F001024A6101684A6922F0400290
:102D60004A61202180F83A10FFF7E0FC10BD10B551
:102D7000806BFFF7DCFC10BD0168CA6822F490721A
:102D8000CA6001684A6922F001024A61202180F884
:102D90003A1070470168CA6822F0C002CA60202158
:102DA00080F83910704710B590F83A10222901D0F8
:102DB000022010BD8168B1F5805F11D00169002942
:102DC00001681FD0496801F07F03816A4A1C826252
:102DD0000B70C18D491E0904090CC18518D026E06D
:102DE0000269816A002A0268526805D0D2B20A805C
:102DF000816A491C8162ECE7C2F308020A80816A99
:102E0000891CF7E74A68816A4B1C83620A70E0E715
:102E10000168CA6822F49072CA6001684A6922F0A7
:102E200001024A61202180F83A10FFF77FFC002060
:102E300010BD00002DE9F04104464068BC498842BD
:102E400004D340F68511BBA000F026FDE06838B140
:102E5000B0F5005F04D040F68611B6A000F01CFD6E
:102E6000206950B1B0F5806F07D0B0F5C06F04D0C5
:102E700040F68711AFA000F00FFD60694FF6F371C7
:102E8000084200D120B940F68811AAA000F004FD44
:102E90002068016921F44052E16811430161206812
:102EA000C26849F20C618A432369A168E569194344
:102EB00063692B4319431143C16020684169A269CA
:102EC00021F440710A434261E0696425B0F5004F86
:102ED000A74AA84920684FF032083FD0884201D065
:102EE00090427CD1FEF7A8FE00EBC00101EB001080
:102EF00061688900B0FBF1F6FEF79EFE00EBC001B1
:102F000001EB001061688900B0FBF1F0B0FBF5F057
:102F10006FF01801484306EB800108EB0110B0FB8D
:102F2000F5F000F0F006FEF787FE00EBC00101EBC4
:102F3000001061688900B0FBF1F0B0FBF5F006EB22
:102F40000016FEF779FE00EBC00101EB001061688E
:102F50008900B0FBF1F7FEF76FFED2E0884201D0A6
:102F600090423DD1FEF768FE00EBC00101EB00107E
:102F700061684900B0FBF1F0B0FBF5F00601FEF727
:102F80005BFE00EBC00101EB001061684900B0FB83
:102F9000F1F7FEF751FE00EBC00101EB0010616894
:102FA0004900B0FBF1F0B0FBF5F06FF018014843B9
:102FB00007EB800108EBC100B0FBF5F000F0F80072
:102FC00006EB4006FEF738FE00EBC00101EB0010F7
:102FD00061684900B0FBF1F7FEF72EFE3CE055E0DA
:102FE000FEF71AFE00EBC00101EB0010616849001A
:102FF000B0FBF1F0B0FBF5F00601FEF70DFE00EBC3
:10300000C00101EB001061684900B0FBF1F7FEF769
:1030100003FE00EBC00101EB001061684900B0FB4A
:10302000F1F0B0FBF5F06FF01801484307EB8001B9
:1030300008EBC100B0FBF5F000F0F80006EB40062D
:10304000FEF7EAFD00EBC00101EB001061684900EA
:10305000B0FBF1F7FEF7E0FD00EBC00101EB001063
:1030600061684900B0FBF1F0B0FBF5F06FF01801BA
:10307000484307EB800108EBC100B0FBF5F000F01E
:103080000700216830448860BDE8F081FEF7C4FD88
:1030900000EBC00101EB001061688900B0FBF1F6A4
:1030A000FEF7BAFD00EBC00101EB0010616889007A
:1030B000B0FBF1F0B0FBF5F06FF01801484306EB00
:1030C000800108EB0110B0FBF5F000F0F006FEF710
:1030D000A3FD00EBC00101EB001061688900B0FBAB
:1030E000F1F0B0FBF5F006EB0016FEF795FD00EBF6
:1030F000C00101EB001061688900B0FBF1F7FEF739
:103100008BFD00EBC00101EB001061688900B0FB92
:10311000F1F0B0FBF5F06FF01801484307EB8001C8
:1031200008EB0110B0FBF5F000F00F00A9E700007C
:10313000A137A0002E2E5C4C6962726172696573C2
:103140005C53544D3332463478785F48414C5F4489
:1031500072697665725C5372635C73746D33326648
:103160003478785F68616C5F756172742E630000FB
:10317000001401400010014090F83910212901D0BD
:10318000022070478168B1F5805F016A0BD04A1C4C
:103190000262026809785160C18C491E0904090C59
:1031A000C1840ED017E009880268C1F3080151609C
:1031B00001690029016A02D0491C0162ECE7891CFF
:1031C000FBE70168CA6822F08002CA600068C16833
:1031D00041F04001C160002070472DE9F0411E46DA
:1031E000174688460446069D1CE0681C1AD025B187
:1031F000FEF7D2FA801BA84214D92068C16821F4D6
:10320000D071C1602068416921F001014161202035
:1032100084F8390084F83A00002084F8380003204C
:10322000BDE8F0812068016838EA010004D0002080
:10323000B842DAD00020F3E70120F9E738B5134DA2
:1032400028680168A5F61274C943C90612D401683A
:10325000406800902846FEF767FF286801684068CC
:1032600005F5807000684068C0F580706080284671
:10327000FFF7BCFA0548FEF785FFA11DBDE8384001
:103280004FF480720148FFF705BA00002C150020AA
:1032900038B5124D28680168114CC943C90612D4CB
:1032A0000168406800902846FEF73EFF28680168E4
:1032B000406805F5C07000684068C0F580706080A7
:1032C0002846FFF7B7FA0548FEF75CFFA11DBDE8E9
:1032D00038404FF480720148FFF7DCB96C150020CC
:1032E0001401002038B5134D28680168A5F68C2418
:1032F000C943C90612D40168406800902846FEF709
:1033000013FF28680168406804F68C400068406834
:10331000C0F5807060802846FFF7B0FA0548FEF7D8
:1033200031FFA11DBDE838404FF480720148FFF71E
:10333000B1B90000AC15002038B5134D28680168FC
:10334000A5F2C654C943C90612D40168406800906A
:103350002846FEF7E9FE28680168406804F2E67036
:1033600000684068C0F5807060802846FFF7BAFAB0
:103370000548FEF707FFA11DBDE838404FF48072F5
:103380000148FFF787B90000EC150020FEE70000B8
:103390000FB4054B10B503A9044A029800F02CF8AD
:1033A00010BC5DF814FB000045410008DC00002063
:1033B0000FB4084B10B504A902AA039800F01CF83A
:1033C000044602A9002000F042FA204610BC5DF835
:1033D00014FB00004F38000802E008C8121F08C1A3
:1033E000002AFAD170477047002001E001C1121F86
:1033F000002AFBD1704700002DE9FF4F8DB00F462A
:103400000546002606E025280BD0DDE90F1290477F
:103410006D1C761C28780028F5D111B03046BDE827
:10342000F08F0024A246A1460122E94900E00443AE
:1034300015F8013F203B02FA03F00842F7D1287843
:103440002A2810D06FF02F022878A0F13001092926
:1034500014D80AEB8A0102EB410144F0020400EBAC
:10346000010A6D1CF0E701CF5FEA000A03D544F4BE
:103470000054CAF1000A44F002046D1C28782E287A
:1034800017D115F8010F44F004042A280ED06FF06C
:103490002F022878A0F1300109290AD809EB890107
:1034A00002EB410100EB01096D1CF2E757F8049BA8
:1034B0006D1C28786C280FD006DC4C2817D06828A3
:1034C0000DD06A2814D104E0742810D07A280FD1C6
:1034D0000DE044F400140AE044F4801401E044F4E4
:1034E00040146978814202D104F580146D1C6D1C72
:1034F00028786E281ED00CDC632830D004DC00282D
:103500008BD0582811D19FE0642867D069280CD14E
:1035100064E073282DD004DC6F2872D0702804D1A9
:1035200094E075286ED078286DD0DDE90F129047B1
:10353000761C4BE1C4F30250022806D0032809D0C0
:10354000042801CF09D0066040E101CFF117C0E99E
:1035500000613BE101CF068038E1067036E117F8E3
:10356000040B8DF8000000208DF80100EB460120CF
:1035700003E057F804BB4FF0FF3061074FF0000144
:1035800002D40DE008F10101884649450FDA804573
:10359000F8DB1BF808100029F4D108E008F101015C
:1035A00088468142FADB1BF808100029F6D1DDE9D4
:1035B0000F23AAEB08008146214600F031F9304480
:1035C00000EB080604E0DDE90F121BF8010B904741
:1035D000B8F10108F7D221464846F2E00A21C4F3C7
:1035E00002524FF0000B0891022A04D001CFC117FC
:1035F000032A09D00AE0FF1D27F00707F7E80201B8
:1036000008E02CE01EE01FE000B2C117042A01D13F
:1036100040B2C117021E71F1000206DA0023D0EB9E
:10362000030063EB01012D2202E0220504D52B22C9
:103630008DF82420012203E0E20701D02022F7E7E1
:10364000904653E00A210BE0102109E010214FF0D1
:10365000000B44F004044FF00809089103E008212E
:103660004FF0000B0891C4F30252022A04D001CF9C
:103670000021032A06D006E0FF1D27F00707F7E820
:10368000020103E080B2042A00D1C0B24FF000086A
:1036900022072BD52A78702A07D0DDF820C08CF0BD
:1036A000100C5CEA0B0C05D00EE040228DF82420B3
:1036B000012208E050EA010306D030238DF82430BF
:1036C0008DF8252002229046089B83F0080353EAD8
:1036D0000B030BD150EA010201D1620706D530225B
:1036E0008DF824204FF00108A9F101092A78582A01
:1036F00004D038A20B9208AA0A920BE03AA2F9E78A
:103700005B46089AFCF7DEFD0B9B9B5C0A9A521EF7
:103710000A92137050EA0102F2D10A98ADEB000050
:1037200000F1200B600702D524F4803401E04FF053
:103730000109D94502DDA9EB0B0000E0002000EBF8
:103740000B0141440890AAEB010AE00306D4DDE92D
:103750000F232146504600F063F806444FF000095D
:1037600008E009A911F80900DDE90F12904709F1F5
:103770000109761CC145F4DBE0030CD5DDE90F231C
:103780002146504600F04CF8064404E0DDE90F12F3
:1037900030209047761C0899481E08900029F5DCD7
:1037A00008E00A980A990078491C0A91DDE90F128D
:1037B0009047761CBBF10001ABF1010BF1DC214617
:1037C0005046DDE90F2300F019F806446D1C21E690
:1037D00009280100303132333435363738396162E7
:1037E00063646566000000003031323334353637AB
:1037F0003839414243444546000000002DE9F0417C
:10380000044600251E461746880404D405E03946C0
:103810002020B0476D1C641EF9D52846BDE8F08114
:103820002DE9F041044600251E469046C80301D507
:10383000302700E02027880404D505E041463846BB
:10384000B0476D1C641EF9D52846BDE8F0810A68B2
:10385000531C0B60107070471CB509490120CDE95D
:1038600000014202002307A10A4802F0B3F901282F
:1038700002D04FF0FF301CBD01F0A2FD1CBD0000C6
:10388000100000204170705461736B437265617465
:1038900065000000E90300080C460546FCF798FCAB
:1038A00000F014F82246294601A0FFF771FDFEE75B
:1038B000617373657274206661696C6564206174FC
:1038C0002025733A2564200A0000000070B50F4CD3
:1038D0000546207888B10EA0FFF75AFD0DA0FFF72E
:1038E00057FD00F09DF9D4E902012A4600F0ACFA38
:1038F0002846BDE8704000F00FBD074A07A109A0A7
:10390000FFF746FD03A0FFF743FDFEE7C4000020DC
:10391000000000000D0A0000B0610008696E6974C3
:103920005F6F6B00282573292068617320617373B2
:10393000657274206661696C65642061742025730A
:103940002E0000002DE9F043244C8946A446D4E91A
:10395000023794F801809CF802600146DCE9044CCF
:1039600000200546A444B8F1000F11D08EB91C4EBA
:10397000B069086076690120361FA64211D3B445AC
:103980000FD3B9F1010F0CD9022001254E6008E0D8
:103990003EB19A4201D21A4603E0DE19964200D2A5
:1039A00032461F44974216D91668331FF60710D0C7
:1039B000A3420ED39C450CD310280AD2484508D206
:1039C000022803D115B14E689E4202D041F8203042
:1039D000401C121DE6E7BDE8F0830000C400002093
:1039E00068AD00202DE9F04F8DB00C46074620222F
:1039F0005D4905A8FCF797FC5C4ED6E9025081466C
:103A0000307858B1707898B1574A59A1143A5BA0F0
:103A1000FFF7BEFC61A0FFF7BBFCFEE7524A60A1C6
:103A2000143A56A0FFF7B4FC5CA0FFF7B1FCFEE728
:103A30004FF0010A86F801A05BA0FFF7A9FC57A090
:103A4000FFF7A6FC00F0ECF8DFF81CB1ABF1BC0B03
:103A5000DBF82800FFF79CFC50A0FFF799FC47F328
:103A60000010401C04F12008F07001D008F1480853
:103A7000A84503D305EB0900404501D286F802A012
:103A800042464946284600F0DFF9B078474D002805
:103A90003ED1DBF82C00FFF77BFC40A0FFF778FC61
:103AA00026682E6060686860A168A960E268EA60C4
:103AB00023692B6163696B61A369AB61E369EB61A6
:103AC000DDE90734CDE90003CDE902140492DDE914
:103AD0000513324636A0FFF75BFC30A0FFF758FC19
:103AE00001AE0B98EB690C9AA96986E80F0068692A
:103AF00000900A9B2A692EA00999FFF749FC27A08C
:103B0000FFF746FC35A0FFF743FC24A0FFF740FC7D
:103B10004248006845F8200F4048001D0078287191
:103B20003E4810300068A8603C48401D007828736B
:103B30003A481430006828613848801D0088A882FF
:103B4000364808300068A86134480C300088E861C5
:103B5000324818300088286200F0D4F9404600F05E
:103B6000DBFB0DB0BDE8F08FD8610008C400002079
:103B7000216F6E5F6661756C7400000028257329E3
:103B80002068617320617373657274206661696C6B
:103B900065642061742025732E0000000D0A00006A
:103BA000696E69745F6F6B000000000068AD0020F3
:103BB000202025733A2025303878202025733A209C
:103BC00025303878202025733A2025303878202079
:103BD00025733A2025303878000000003D3D3D3DFA
:103BE0003D3D3D3D3D3D3D3D3D3D3D3D3D3D3D3D05
:103BF0003D3D3D3D3D3D3D3D3D3D3D3D3D3D3D3DF5
:103C00003D3D3D3D3D3D3D3D3D3D3D3D3D3D3D3DE4
:103C10003D3D3D3D3D3D3D3D3D3D000024ED00E051
:103C200010B50748074BA3F120020068A2F120015C
:103C3000FFF7AEFBBDE8104003A0FFF7A9BB0000F3
:103C40001C610008B8AC00200D0A000070B50C46DD
:103C50001546014620220E48FCF789FB0C4820221D
:103C600021462030FCF783FB0948202229464030BA
:103C7000FCF77DFB08480749084A8160511AC1607A
:103C80000749084A0161511A41610121017070BD63
:103C900078AC0020B0AD0020C4000020B0B10020FE
:103CA00000000008786A000810B50121002000F02B
:103CB00075FA40B14FF480220221002000F04EFA44
:103CC00008B1012010BD002010BD000072B60148EF
:103CD00000F0C6BA000002081CB509490920CDE968
:103CE000000100234FF4007206A1094801F072FFA1
:103CF00008B108A000E00FA0BDE81C40FFF748BBDA
:103D0000140000207570646174655F5461736B000A
:103D1000593D000863726561746520646576696366
:103D20006520757064617465207461736B206F6BBE
:103D3000210D0A00637265617465206465766963AC
:103D40006520757064617465207461736B206572A1
:103D500072210D0A0000000000F0F8FF1F4C40F631
:103D6000B8352178AA290BD0FF2905D000F0EEFF45
:103D7000284601F0BBF9F4E719A0FFF709FB23E09F
:103D80000121022000F00AFA08B34FF4802200213A
:103D9000022000F0E3F9D0B10121002000F0FEF98B
:103DA000B8B101210020626800F0D8F988B1002183
:103DB000032000F0F3F900F041FA0FA0FFF7E8FA52
:103DC0004FF4FA6001F092F9FFF780FFD0E710A0FE
:103DD00000E017A0FFF7DCFACAE700001800002097
:103DE000646576696365206E6F72616D6C207374B3
:103DF000617274200D0A0000646576696365202095
:103E0000757064617465207374617274200D0A00AA
:103E10006465766963652020617070206261636B00
:103E2000757073206572726F72200D0A00000000B9
:103E300064657669636520207570646174652065CA
:103E400072726F720D0A00002DE9F04106461948A2
:103E50001446194F827875188AB1007908B17869CB
:103E600000E0B8692146FFF793FA14A0FFF790FA33
:103E7000B44201D2344602E0A54200D22C46F86892
:103E8000FFF786FA0DA0FFF783FA08E021460CA0A1
:103E90002268FFF77DFA09A0FFF77AFA241DA542F0
:103EA000F4D80EA0FFF774FABDE8F04103A0FFF7C5
:103EB0006FBA0000C40000201C6100080D0A000059
:103EC0002020616464723A20253038782020202038
:103ED000646174613A202530387800003D3D3D3DF5
:103EE0003D3D3D3D3D3D3D3D3D3D3D3D3D3D3D3D02
:103EF0003D3D3D3D3D3D3D3D3D3D3D3D3D3D3D3DF2
:103F00000000000070B58C4D8C4C95F8380080078F
:103F100005D5206BFFF73CFA89A0FFF739FAA86BAB
:103F200040007DD595F82400F0B3C00705D0606B44
:103F3000FFF72EFA82A0FFF72BFA95F824008007EE
:103F400005D5A06BFFF724FA7DA0FFF721FA95F8BD
:103F50002400000705D5E06BFFF71AFA78A0FFF7F9
:103F600017FA95F82400C00605D5206CFFF710FA63
:103F700073A0FFF70DFA95F82400800605D5606C54
:103F8000FFF706FA6EA0FFF703FA95F82400010682
:103F90000DD5C10701D1800709D5A96AD4F88C00D5
:103FA000FFF7F6F966A000E001E0FFF7F1F995F8F8
:103FB0002C00B0B3C00705D0A06CFFF7E9F960A0F2
:103FC000FFF7E6F995F82C00800705D5E06CFFF7C0
:103FD000DFF95BA0FFF7DCF995F82C00400705D569
:103FE000206DFFF7D5F956A0FFF7D2F995F82C0010
:103FF000000705D5606DFFF7CBF951A0FFF7C8F9B1
:1040000095F82C00C00605D5A06DFFF7C1F94CA0AE
:10401000FFF7BEF995F82C00800608D5E06D01E0A9
:104020004DE012E0FFF7B4F945A0FFF7B1F995F8BC
:104030002C00010609D5800707D5296BD4F890001C
:10404000FFF7A6F93EA0FFF7A3F9A88EB8B3C00703
:1040500005D0206EFFF79CF939A0FFF799F995F884
:104060003400800705D5606EFFF792F934A0FFF7A2
:104070008FF995F83400400705D5A06EFFF788F951
:104080002FA0FFF785F995F83400000705D5E06EFD
:10409000FFF77EF92AA0FFF77BF9A88EC00505D5AA
:1040A000206FFFF775F926A0FFF772F9A88E80053B
:1040B00005D5606FFFF76CF921A0FFF769F9A86BD0
:1040C000002837DAE86B002834D0C00705D0A06F8D
:1040D000FFF75EF91AA0FFF75BF995F83C0080073F
:1040E00005D5E06FFFF754F915A0FFF751F995F8E2
:1040F0003C00400706D5D4F88000FFF749F910A02E
:10410000FFF746F995F83C00000706D5D4F884007F
:10411000FFF73EF90AA0FFF73BF995F83C00C0060F
:1041200008D5D4F88800FFF733F9BDE8704004A043
:10413000FFF72EB970BD000068AD00201C610008BB
:104140000D0A000013B54FF47A7301226946024844
:10415000FEF7EEFA00981CBDAC1500202DE9F041E9
:1041600017460D4A002402EBC000466802EBC1006E
:1041700045680AE02A5D002331191846FDF7BCF8AE
:1041800010B10020BDE8F081641CBC42F2D3FDF701
:10419000A9F80120F6E70000200000207CB50026E9
:1041A0000D4604460196FDF70FF9114802210660FD
:1041B000104E016156F834108160691CC16001A97C
:1041C000FDF70CF80100304600EBC40005F10103D7
:1041D0004068009056F83420214604D00648FFF786
:1041E000D7F800207CBD05A0FFF7D2F801207CBDE8
:1041F0000001002020000020F86100082068616CA8
:1042000020666C61736820657261736520747970D3
:10421000653A25642020736563746F723A256420C3
:104220006E62736563746F72733B256420206164F2
:1042300064723A3078253038780D0A00FDF752B8AC
:1042400010B5064C04EBC00040680144002002E0B9
:104250000C5C1454401C9842FAD310BD200000207E
:1042600070B5044600682021B1EB106F0DD1656870
:104270002068FBF7AFFF206880F30888002080F3F8
:104280001488AC46BDE87040604708A0FFF780F88E
:1042900012480078FF2806D011A0FFF779F8BDE892
:1042A0007040FFF701BD14A0F7E7000054686520D7
:1042B000746F70206F662074686520737461636B1F
:1042C000206164647265737320636865636B206545
:1042D00072726F722121200D0A0000001800002068
:1042E0004A756D70546F4170702D2D4552524F526A
:1042F0002121210D0A0000003E204170702D2D4E1D
:104300004F4E452121210D0A00000000FCF77CF8EA
:10431000FFF7A2FAFEE700002DE9F04391B0044652
:10432000402101A8FCF718F82246102101A8FFF748
:1043300009FB05460024144E0DF104094FF0200836
:104340000BE004EBC400304459F8242007460FA1C9
:10435000FFF72EF887F80880641CAC42F1D30D48B3
:104360004DB10949009605EBC503C0690AA2603941
:10437000FFF70EF802E0006AFFF70AF808A0FFF75F
:1043800007F811B0BDE8F083D8AC00202530386CB8
:10439000780000001C6100082E61786600000000B3
:1043A0000D0A00002DE9F041184E0F460446F5684D
:1043B0003068001D00F018FD38B9306890F82C10F6
:1043C00001208840316981433161601C07D137B1D8
:1043D0003168BDE8F0410E48091D00F03DBD306870
:1043E0002C44AC424460316805D2B06BBDE8F0416A
:1043F000091D00F019BD706B091D00F015FDB06AB4
:10440000844200D2B462BDE8F08100005000002078
:104410003C1C00202DE9F041054600F029FD2D4E01
:10442000B068401CB06030682B4F10B1706930B379
:104430002BE03560B068012827D1002404EB84000C
:1044400007EB800000F0E2FC641C202CF6D323482C
:1044500000F0DCFC2148143000F0D8FC1F48283064
:1044600000F0D4FC1D483C3000F0D0FC1B4850301C
:1044700000F0CCFC194870631430B06305E030687C
:10448000E96AC06A884200D83560706A0121401C20
:104490007062E86A326981401143316100EB80004B
:1044A00007EB8000291D00F0D7FC00F01BFD7069B0
:1044B00000280CD03068E96AC06A884207D20849EF
:1044C0004FF080500860BFF34F8FBFF36F8FBDE890
:1044D000F0810000500000206C190020EC1B00202F
:1044E00004ED00E010B500F0C3FC0E4C2068A0B94C
:1044F0000D4800F08BFC0C48143000F087FC0A4893
:10450000E0601430206100220C210A2001F08AF8BA
:10451000206010B105A100F0B5FDBDE8104000F02D
:10452000E1BC00008C000020501C0020546D725132
:104530000000000070B5124E124D1CE000F08CFF20
:10454000306820B1002401F0A5FCA4B901E00124E9
:10455000F9E700F08DFCF068C468201D00F044FC11
:10456000A868401EA8606868401E686000F0BAFC39
:10457000204600F052F868680028DFD170BD0000C6
:10458000281C00205000002030B4026C0B46002A8A
:104590000BD0C1681144C1604468A14201D30168D5
:1045A000C16030BC1846FBF7BEBE30BC70472DE979
:1045B000F041856B174604460026026C82B1C7B1F4
:1045C000E068FBF7B0FEE168206C091AE160226840
:1045D000914202D26168081AE060022F16D017E0FB
:1045E0002068A8B9606801F0ABFB06460020606057
:1045F0000EE0A068FBF797FE216CA0680844A0605D
:104600006168884204D32068A06001E005B16D1E96
:104610006D1CA5633046BDE8F08110B50446006B03
:1046200000F090FC2046BDE8104000F08BBC00007C
:1046300010484FF41041420706D0C01D0D4920F02C
:104640000700411AC1F510410B4A00230144C2E999
:1046500000030839103A21F0070111604B600B602C
:104660000B1AC0E9001393604FF000405360D06014
:1046700070470000781C0020B0000020074E4FF06B
:104680008054074DFFF756FF30680128FAD92C6097
:10469000BFF34F8FBFF36F8FF4E700006C1900205A
:1046A00004ED00E02DE9F047DDE909840E4682467D
:1046B0006FF00301206B01EB82010844089D20F09C
:1046C00007079946780705D040F22B3219A11FA0A1
:1046D000FEF75EFE00202218315C82F83410315C57
:1046E00011B1401C1028F6D3002684F84360202D19
:1046F00000D31F25E562C4E91156201D00F091FB8F
:1047000004F1180000F08DFB2461C5F12000646203
:10471000A061E66484F850604A465146384600F08D
:10472000FFFA2060B8F1000F01D0C8F80040BDE8E2
:10473000F08700002E2E5C4672656552544F535C24
:104740007372635C7461736B732E63004572726F76
:10475000723A25732C25640D0A00000030B511490A
:1047600000E011460A688242FBD34B685C18844221
:1047700003D1406818444860084643681C189442B6
:1047800009D1084C103C2468A24209D052681A444E
:1047900042600A6812680260814200D0086030BD41
:1047A0000460F9E7B000002070B5002441600B4DB3
:1047B0000061914206D8D11A8269914206D2011D48
:1047C000286907E09A4203D2994201D3012403E009
:1047D000011DE86800F028FB204670BD8C00002019
:1047E00010B5044600F044FBA06B20B1002400F09B
:1047F00079FB204610BD0124F9E700002DE9F341C3
:1048000000980F460026846C2CB940F6D11216A1F0
:104810001BA0FEF7BDFDA06BE16B884205D340F6FF
:10482000D21211A116A0FEF7B3FDA06BE16B884276
:104830000CD294F945503A4669462046FFF7B7FE38
:104840000646681C05D06D1C84F845503046BDE80E
:10485000FC81606A0028F9D004F1240001F0CCFA50
:104860000028F3D00126F1E72E2E5C4672656552D2
:10487000544F535C7372635C71756575652E63008C
:104880004572726F723A25732C25640D0A00000080
:10489000F8B5054614480E46C068C068C468201DB7
:1048A00000F0A2FAE069012817D1A0692B4641194E
:1048B00032462046FFF778FF78B1002003460146D4
:1048C00000902A46204601F0D1FB30B907494FF449
:1048D000027201F11C00FEF75BFD616A01B0204627
:1048E000BDE8F040084700008C000020C85F0008C9
:1048F00070B586B02C4E4CE00198002849DB039C33
:10490000606910B1201D00F06FFA04A800F0AAF849
:10491000054601980A283CD2DFE800F00505053B72
:10492000273805053B270298A169034601442A461A
:104930002046FFF739FF00282BD0616A20468847C0
:10494000E069012825D1002000900298A169002388
:1049500042181946204601F089FBD0B940F22132B5
:1049600012A119A0FEF714FD13E00298A06128B966
:104970004FF44E720DA114A0FEF70AFDA0692B465C
:1049800041191A462046FFF70FFF02E0204600F0CB
:10499000D9FA00231A4601A9306800F083FE0028E6
:1049A000AAD106B070BD00008C0000202E2E5C46FF
:1049B00072656552544F535C7372635C74696D65C4
:1049C00072732E63000000004572726F723A257395
:1049D0002C25640D0A000000F8B50D46064600F0CF
:1049E0003BFD684600F03EF80446009810B101F027
:1049F00051FAF8BD1148ADB101690968D9B1002576
:104A0000311B2A46006800F04FFB01F043FA0028F2
:104A1000EFD10B494FF080500860BFF34F8FBFF3C9
:104A20006F8FF8BDA642EBD801F034FA214630462C
:104A3000FFF72EFFF8BD0125E2E700008C00002003
:104A400004ED00E00648416B096829B1416BC96873
:104A5000C9684968816270474FF0FF31FAE700008A
:104A60005000002070B5054601F0EEF8064E0446F1
:104A7000B068844203D200F009F8012000E0002071
:104A800028602046B46070BD8C000020F8B5184E38
:104A900026E0C068C4680568201D00F0A5F9616AB9
:104AA00020468847E06901281AD1A0692844A84215
:104AB00006D924616060211DF06800F0B5F90FE0AF
:104AC00000200346014600902A46204601F0CEFA17
:104AD00030B9084940F2923201F11C00FEF758FC4F
:104AE000F06801680029D4D13169C6E90310F8BD26
:104AF0008C000020C85F000808484068401C05D0B2
:104B000040F20F1206A110A0FEF742FC502080F3E5
:104B10001188BFF34F8FBFF36F8FFEE7B8000020FF
:104B20002E2E5C4672656552544F535C706F7274E2
:104B30005C525644535C41524D5F434D34465C7069
:104B40006F72742E630000004572726F723A2573A3
:104B50002C25640D0A000000084CE068016839B19A
:104B6000002139B10020FFF737FFFFF7C1FEF4E75E
:104B70000121F6E7C0680068F5E700008C0000201E
:104B80002DE9F041044600F073F994F9455004F121
:104B9000240610E0A06C20B100212046FFF72EFE75
:104BA00004E0606A48B1304601F026F908B100F02F
:104BB0003DFB6D1E6DB2002DECDC4FF0FF3684F82E
:104BC000456000F08FF900F053F994F9445004F176
:104BD000100709E0206948B1384601F00DF908B125
:104BE00000F024FB6D1E6DB2002DF3DC84F84460F0
:104BF000BDE8F04100F076B92DE9F0410546002608
:104C000000F02AFC324F386808B9FFF711FDF86848
:104C100005424FD1002D4DD0083568070BD005F067
:104C20000700C0F108000544680704D0BF2229A18D
:104C300031A0FEF7ADFB002D3CD07868854239D815
:104C4000234910310846046801E0214604466068A3
:104C5000A84202D220680028F7D13868B8468442BA
:104C600028D00E682068086060680836401B10284D
:104C70000ED96719780704D0EC2216A11EA0FEF702
:104C800087FB6068401B786038466560FFF766FD0B
:104C90006168D8F804004246401AC8F80400D8F801
:104CA0000830984200D29060D8F80C0001430020F0
:104CB000C4E9000101F0EEF8700705D04FF49672D8
:104CC00004A10DA0FEF764FB3046BDE8F0810000B2
:104CD000A00000202E2E5C4672656552544F535C36
:104CE000706F72745C4D656D4D616E675C68656177
:104CF000705F342E630000004572726F723A257344
:104D00002C25640D0A0000000449086818B10868E1
:104D1000826C521C826408687047000050000020BA
:104D200010B5031F4FF080741C601B1F21F00101A0
:104D30001960191F044B0B6014390A60091F6FF0CA
:104D4000020244380A6010BDF94A00081FB50A2360
:104D50006A4600210320FFF773FA6846CDF80CD0AD
:104D600003A9FDF71FFF084C03A920700398FDF766
:104D70001FFF6060217805A0FEF70AFB0EA06168A6
:104D8000FEF706FB1FBD0000180000206465766971
:104D900063655F73746172745F6D73672E646576AB
:104DA0006963655F73746172745F747970653A25C5
:104DB000303278200D0A00006465766963655F73A0
:104DC000746172745F6D73672E6465766963655F85
:104DD0007570646174655F6C656E74683A25303215
:104DE00078200D0A00000000D0E9013201699A60C4
:104DF000D0E901235A604A68824201D182684A6040
:104E0000002202610868401E0860704700F1080136
:104E10004FF0FF32C0E90112C16001610021016061
:104E2000704700210161704730B50C68621C02D0E8
:104E300000F1080202E0026904E01A4653681D68A6
:104E4000A542FAD953684B6099608A605160086145
:104E50000168491C016030BD42684A6093688B60FC
:104E600093685960916008610168491C016070474E
:104E7000502080F31188BFF34F8FBFF36F8F094924
:104E80004868401C486001280AD10748006810F0B3
:104E9000FF0F05D040F2B91204A10EA0FEF778BAB8
:104EA00070470000B800002004ED00E02E2E5C46A4
:104EB00072656552544F535C706F72745C52564405
:104EC000535C41524D5F434D34465C706F72742E9B
:104ED000630000004572726F723A25732C25640DD1
:104EE0000A00000010B5084C606828B94FF4E07261
:104EF00006A110A0FEF74CFA6068401E606001D168
:104F000080F3118810BD0000B80000202E2E5C46F2
:104F100072656552544F535C706F72745C525644A4
:104F2000535C41524D5F434D34465C706F72742E3A
:104F3000630000004572726F723A25732C25640D70
:104F40000A00000070B500282AD0164DA0F1080410
:104F50006068E968084205D14FF4A07212A11BA055
:104F6000FEF716FA206828B140F241120EA117A0F0
:104F7000FEF70EFA6068E968084211D02268002A3C
:104F80000ED18843606000F067FA60686968084481
:104F900068602046FFF7E2FBBDE8704000F07ABF92
:104FA00070BD0000A00000202E2E5C467265655288
:104FB000544F535C706F72745C4D656D4D616E67DC
:104FC0005C686561705F342E630000004572726F2B
:104FD000723A25732C25640D0A00000006484FF430
:104FE0007A710068B0FBF1F14FF0E020491E416199
:104FF00007210161704700000000002010B5FBF799
:1050000045F9104C10280CD300F1E02090F8F00383
:105010002178884205D24FF440720BA114A0FEF70C
:10502000B7F917480068A16800F4E060884207D922
:10503000BDE810404FF4447203A10DA0FEF7A8B9DB
:1050400010BD0000B80000202E2E5C46726565522F
:10505000544F535C706F72745C525644535C4152AF
:105060004D5F434D34465C706F72742E63000000D8
:105070004572726F723A25732C25640D0A00000088
:105080000CED00E010B5074B002253F832401CB184
:10509000521C142AF9D310BD43F8321003EBC2019D
:1050A000486010BDCC18002070B515460E46044669
:1050B000FFF7DEFE94F944100020491C01D184F86A
:1050C000440094F94510491C01D184F84500FFF7CC
:1050D00009FFA06B28B92A46314604F1240000F0EC
:1050E000D7F82046BDE87040FFF74ABD10B5040070
:1050F00012D00E49096B29B140F2CF420CA112A087
:10510000FEF746F900F0A8F900212046FFF74AF91A
:1051100000F0C0FE002807D10F494FF08050086012
:10512000BFF34F8FBFF36F8F10BD00005000002002
:105130002E2E5C4672656552544F535C7372635CED
:105140007461736B732E63004572726F723A2573CC
:105150002C25640D0A00000004ED00E070B5044643
:10516000FFF786FE234D04B92C68201DFFF73CFE97
:1051700058B9E06A204A00EB800152F8211021B9A9
:1051800001218140286988432861A06A18B104F18F
:105190001800FFF729FE686A401C6862286884428C
:1051A00007D1211D1548FFF757FE6868401C68604D
:1051B00007E0A868401EA8602046FFF72EFAFFF718
:1051C00041FCFFF78FFE6869002812D028688442EE
:1051D0000FD1286B28B140F2654209A10EA0FEF75D
:1051E000D7F811494FF080500860BFF34F8FBFF3DD
:1051F0006F8F70BD500000206C190020281C00200B
:105200002E2E5C4672656552544F535C7372635C1C
:105210007461736B732E63004572726F723A2573FB
:105220002C25640D0A00000004ED00E00149012076
:10523000C86170475000002070B50D46040005D1CC
:1052400040F6063207A10DA0FEF7A2F80F4801684C
:1052500020461831FFF7E8FD2846BDE870400121DF
:10526000FFF7A0B82E2E5C4672656552544F535C12
:105270007372635C7461736B732E63004572726F3B
:10528000723A25732C25640D0A000000500000209E
:1052900070B514460E46050005D140F6313209A11D
:1052A0000EA0FEF775F81148016828461831FFF77F
:1052B000D3FD0CB14FF0FF3621463046BDE87040BB
:1052C000FFF770B82E2E5C4672656552544F535CE2
:1052D0007372635C7461736B732E63004572726FDB
:1052E000723A25732C25640D0A000000500000203E
:1052F00070B5040039D01D4DE06A2968C96A88423A
:1053000033D2A069002804DB2868C06AC0F12000FD
:10531000A061E06A164E00EB8000616906EB800038
:1053200081421FD1201DFFF75FFD012150B9E06AC6
:1053300000EB800256F8222022B92A6901FA00F017
:1053400082432A612868C06AE0622A698140114369
:10535000296100EB800006EB8000211DBDE8704054
:10536000FFF77ABD2868C06AE06270BD5000002077
:105370006C19002010B5040005D140F6C13205A11A
:105380000AA0FEF705F80D48016A2160C068606058
:1053900010BD00002E2E5C4672656552544F535C62
:1053A0007372635C7461736B732E63004572726F0A
:1053B000723A25732C25640D0A000000500000206D
:1053C0001CB517480024CDE900402346802215A1D2
:1053D000164800F0FFFB012803D100F00BFE012866
:1053E0000AD0401C1BD102B040F28472BDE81040CC
:1053F0000FA115A0FDF7CCBF502080F31188BFF39B
:105400004F8FBFF36F8F06484FF0FF312C3881620A
:1054100001214161C460BDE81C4000F065B81CBDBD
:105420007C00002049444C45000000007D460008F7
:105430002E2E5C4672656552544F535C7372635CEA
:105440007461736B732E63004572726F723A2573C9
:105450002C25640D0A0000000248016B491C016301
:10546000704700005000002070B5134D286B10B13C
:105470000120E86170BD0020E86128690F4EB0FA94
:1054800080F0C0F11F0000EB800456F8240028B91A
:1054900040F6F6220AA110A0FDF77AFF06EB840081
:1054A00000F10802416849684160914201D14968B0
:1054B0004160C868286070BD500000206C19002051
:1054C0002E2E5C4672656552544F535C7372635C5A
:1054D0007461736B732E63004572726F723A257339
:1054E0002C25640D0A0000001CB5304C20683049A2
:1054F000884205D140F259122EA138A0FDF748FF8D
:1055000020682B49491E884205D14FF4AD7229A16C
:1055100032A0FDF73DFF354C20780190FF20207030
:1055200020788DF800009DF800009DF8001000F034
:10553000F000884205D040F273121EA127A0FDF7AB
:1055400027FF9DF800002A4A00F050001070072045
:10555000906007E09068401E90609DF80000400059
:105560008DF800009DF800000006F3D4107A0002C8
:1055700000F4E0609060019820700C4820300168D1
:1055800041F470010160016841F070410160FFF772
:1055900025FD00205060FAF741FE1648016841F0F1
:1055A00040410160FAF72AFE00201CBD00ED00E03A
:1055B00071C20F412E2E5C4672656552544F535C8A
:1055C000706F72745C525644535C41524D5F434D50
:1055D00034465C706F72742E630000004572726F07
:1055E000723A25732C25640D0A00000000E400E0E7
:1055F000B800002034EF00E010B5502080F311888F
:10560000BFF34F8FBFF36F8F00F024FB18B1044935
:105610004FF080500860002080F3118810BD00001A
:1056200004ED00E070B50E46050008D111A0FDF7AD
:10563000AFFE40F28B1211A116A0FDF7A9FEA6B194
:1056400005FB06F04C30FFF7D7FA04000CD004F14C
:105650004C0066B12060C4E90F562046012100F0DD
:10566000E5F800212046A16470BD0020EAE724602F
:10567000F1E700006162630A000000002E2E5C4624
:1056800072656552544F535C7372635C71756575D6
:10569000652E63004572726F723A25732C25640D76
:1056A0000A0000002DE9FF4F83B09B468A460400A4
:1056B0004FF0000605D140F2DF4251A156A0FDF7A0
:1056C00067FEBAF1000F07D1206C28B14FF49C623D
:1056D0004BA151A0FDF75CFE00F0A8FA38B905987F
:1056E00028B140F2E34246A14BA0FDF751FE4FF036
:1056F00000094FF08057DFF83081FFF7B9FBA56B49
:1057000045B351462046E668FEF73EFFBBF1000F69
:1057100013D0E660606A50B104F1240000F06CFB25
:1057200028B1C8F80070BFF34F8FBFF36F8FFFF73A
:10573000D9FB012007B0BDE8F08F6D1EA56320687E
:1057400010B9FFF7E1FA606020690028EFD004F19A
:105750001000E3E7059808B11EB106E0FFF7C2FBB1
:1057600027E06846FFF706FE0126FFF7BBFBFFF7C1
:1057700073FEFFF77DFB94F94400401C01D184F8CF
:10578000449094F94500401C01D184F84590FFF7FE
:10579000A9FB05A9684600F0D7F9002820460AD0E1
:1057A000FFF7EEF900F076FB2046FFF719F8002826
:1057B000A3D00020BEE7FFF713F8D8B1206830B9B6
:1057C000FFF756FB6068FFF793FDFFF78BFB04F1D3
:1057D00024000599FFF730FD2046FFF7D1F900F0CE
:1057E00059FB002889D1C8F80070BFF34F8FBFF371
:1057F0006F8F82E72046FFF7C3F900F04BFB7CE791
:105800002E2E5C4672656552544F535C7372635C16
:1058100071756575652E63004572726F723A2573F6
:105820002C25640D0A00000004ED00E070B50D4663
:10583000040005D140F21B121CA122A0FDF7A8FD17
:10584000FFF716FBD4E90F20216802FB001161600D
:105850000021A1632168A1600A46D4E90F01401E1E
:1058600000FB0121E16021464FF0FF3001F8440FB9
:10587000487004F110004DB1FFF7C8FA04F124009C
:10588000FFF7C4FAFFF72EFB012070BD2169002944
:10589000F8D000F0B1FA0028F4D00E494FF0805053
:1058A0000860BFF34F8FBFF36F8FEBE72E2E5C4680
:1058B00072656552544F535C7372635C71756575A4
:1058C000652E63004572726F723A25732C25640D44
:1058D0000A00000004ED00E02DE9FF4F83B0994677
:1058E0008B4604004FF0000605D14FF4377252A1E9
:1058F00057A0FDF74DFDBBF1000F07D1206C28B17B
:1059000040F2DD224CA152A0FDF742FDB9F1020F99
:1059100008D1E06B012805D040F2DE2246A14CA060
:10592000FDF736FD00F082F938B9059828B140F24C
:10593000E12241A146A0FDF72BFD4FF0000A4FF0F8
:105940008057DFF81C81FFF793FAA06BE16B884268
:1059500006D3B9F1020F03D0059800B316B325E0C2
:105960004A4659462046FEF722FEA16C21B149461F
:105970002046FEF743FF05E0616A19B104F12400F7
:1059800000F03AFA28B1C8F80070BFF34F8FBFF3A8
:105990006F8FFFF7A7FA012007B0BDE8F08FFFF780
:1059A000A1FA21E06846FFF7E5FC0126FFF79AFA25
:1059B000FFF752FDFFF75CFA94F94400401C01D157
:1059C00084F844A094F94500401C01D184F845A016
:1059D000FFF788FA05A9684600F0B6F830B120460E
:1059E000FFF7CEF800F056FA0020D5E7FFF740FAAF
:1059F000A06BE16B884201D1012500E00025FFF793
:105A000071FA95B104F110000599FFF715FC2046D5
:105A1000FFF7B6F800F03EFA002894D1C8F80070FD
:105A2000BFF34F8FBFF36F8F8DE72046FFF7A8F8C6
:105A300000F030FA87E700002E2E5C467265655252
:105A4000544F535C7372635C71756575652E6300AA
:105A50004572726F723A25732C25640D0A0000009E
:105A600004ED00E02DE9F04798461546894604000C
:105A700005D140F2A2322AA12FA0FDF789FCB9F18D
:105A8000000F07D1206C28B140F2A33224A12AA034
:105A9000FDF77EFCB8F1020F08D1E06B012805D0BC
:105AA0004FF469721EA124A0FDF772FCFFF7A6FA5D
:105AB0005020EFF3118780F31188BFF34F8FBFF3AE
:105AC0006F8FA06BE16B884207D3B8F1020F04D04F
:105AD000002087F31188BDE8F08794F945604246BD
:105AE00049462046FEF763FD701C04D0761C84F8FE
:105AF00045600120EDE7A06C012620B1414620461B
:105B0000FEF77CFE06E0606A0028F2D004F1240073
:105B100000F072F90028ECD0002DEAD02E60E8E702
:105B20002E2E5C4672656552544F535C7372635CF3
:105B300071756575652E63004572726F723A2573D3
:105B40002C25640D0A00000070B50D46040005D137
:105B500040F6CB3214A11AA0FDF71AFC2DB940F67D
:105B6000CC3211A116A0FDF713FCFFF781F9184AFA
:105B7000D06829684B1C0FD02368126A934202D068
:105B8000626882420AD96268801A884206D2081A7C
:105B900028602046FFF7EEFB002400E00124FFF719
:105BA000A1F9204670BD00002E2E5C46726565523C
:105BB000544F535C7372635C7461736B732E630038
:105BC0004572726F723A25732C25640D0A0000002D
:105BD000500000202DE9FF5F8346DDE90E879946DE
:105BE00016468A469000FFF707F805001AD05420A1
:105BF000FFF702F8040012D025630021CDE902412D
:105C0000CDE900874B46324651465846FEF74AFDDD
:105C10002046FEF7FFFB012004B0BDE8F09F2846B8
:105C2000FFF790F94FF0FF30F6E7000005484169B3
:105C300019B1006B18B10020704701207047022095
:105C400070470000500000200148C0687047000005
:105C5000500000202DE9F0412D4F0026386B40B157
:105C6000B869401CB861F86900B101263046BDE84A
:105C7000F081FD686D1CFD6011D1786B006828B162
:105C800040F6D91223A129A0FDF782FB786BB96BEE
:105C90007963B863386A401C3862FEF7D3FEB86A8D
:105CA000DFF89880854209D3786B006880B1786B03
:105CB000C068C468606885420DD2B8623868C06A3E
:105CC00000EB800158F821000128CCD90126CAE751
:105CD0004FF0FF30F1E7201DFFF786F8A06A18B1FA
:105CE00004F11800FFF780F8E06A01213A69814069
:105CF0001143396100EB800108EB8100211DFFF7A2
:105D0000ABF8E06A3968C96A8842CDD30126CBE78F
:105D1000500000202E2E5C4672656552544F535C35
:105D20007372635C7461736B732E63004572726F80
:105D3000723A25732C25640D0A0000006C190020AE
:105D400070B504004FF000063CD01F4D2868844217
:105D500005D040F6C7621DA122A0FDF719FBA06C7B
:105D600028B940F6C96219A11EA0FDF711FBA06C6D
:105D7000401EA064626CE16A914223D010BB201DDA
:105D8000FFF732F81B49012250B9E06A00EB8003AB
:105D900051F8233023B92B6902FA00F083432B61B9
:105DA000606CE062C0F12000A061E06A2B69824073
:105DB0001A432A6100EB800001EB8000211DFFF7F0
:105DC0004BF80126304670BD500000202E2E5C4658
:105DD00072656552544F535C7372635C7461736B8C
:105DE000732E63004572726F723A25732C25640D11
:105DF0000A0000006C1900202DE9F041C068C46859
:105E00002CB940F6613216A11BA0FDF7C1FA04F1CE
:105E100018000746FEF7E8FF1B4D286B012660B10E
:105E200039461A48FFF718F8E06A2968C96A8842B3
:105E300013D90120EE61BDE8F081201DFEF7D4FFEB
:105E4000E06A2A6906FA00F111432961104900EB62
:105E5000800001EB8000211DE4E70020EBE700005B
:105E60002E2E5C4672656552544F535C7372635CB0
:105E70007461736B732E63004572726F723A25738F
:105E80002C25640D0A00000050000020141C002086
:105E90006C1900202DE9F0472B4D00242746286B74
:105EA00028B94FF4FD6229A12EA0FDF771FAFEF783
:105EB000DFFF286B401E2863286BE8BBA8682D49CC
:105EC0000126C8B3A1F52A798846D8F80010E9B1AF
:105ED000D8F80C00C46804F11800FEF785FF201DF7
:105EE000FEF782FFE06A2A6906FA00F11143296190
:105EF00000EB800109EB8100211DFEF7ADFFE06A98
:105F00002968C96A8842E0D3EE61DEE70CB1FEF78A
:105F100099FDAC693CB1FFF79DFE00B1EE61641ED6
:105F2000F9D10020A861E86930B113490127380789
:105F30000860BFF34F8F00E001E0BFF36F8FFEF703
:105F4000D1FF3846BDE8F087500000202E2E5C4679
:105F500072656552544F535C7372635C7461736B0A
:105F6000732E63004572726F723A25732C25640D8F
:105F70000A000000141C002004ED00E02DE9F047A9
:105F80000746994616460D462820DDF820A0FEF764
:105F900033FE040014D0B8464F46D1462DB94FF415
:105FA000C67209A10FA0FDF7F3F9FEF79BFA04F101
:105FB0001801C4F8008081E8E002201DFEF731FFDF
:105FC0002046BDE8F08700002E2E5C4672656552C3
:105FD000544F535C7372635C74696D6572732E63A6
:105FE000000000004572726F723A25732C25640D13
:105FF0000A0000001CB50024FEF774FA0C48006883
:1060000068B10B491F20091DCDE9000100234FF4A1
:10601000807208A10948FFF7DDFD040005D140F2B8
:10602000331207A10DA0FDF7B3F920461CBD0000F7
:106030008C000020546D722053766300594B000889
:106040002E2E5C4672656552544F535C7372635CCE
:1060500074696D6572732E63000000004572726F83
:10606000723A25732C25640D0A0000002DE9FE4FBD
:10607000DDF830A0994690460D4606004FF0000727
:1060800005D14FF4D37211A117A0FDF781F91A4C75
:10609000206880B1CDE900580296062D10DAFFF78E
:1060A000C5FD02284FF0000308D000226946206891
:1060B000FFF712FC07463846BDE8FE8F5246F5E76B
:1060C00000234A466946FFF7CDFCF3E72E2E5C46D7
:1060D00072656552544F535C7372635C74696D658D
:1060E00072732E63000000004572726F723A25735E
:1060F0002C25640D0A0000008C0000200000000028
:106100000000000001020304060708090000000067
:106110000102030400061016000610169468000819
:10612000E868000870690008146300083C63000810
:10613000A8690008D0690008FC68000874680008B5
:10614000D46800083C69000864630008EC64000837
:10615000F8650008886500083C680008E0670008EA
:106160007C660008C46500081865000850650008D2
:1061700014680008B86700083C660008C866000894
:106180005862000858670008106700089864000803
:10619000A4620008A463000864640008D8630008CF
:1061A0000464000834640008206A0008F8690008E4
:1061B000636D5F6261636B74726163655F6173736A
:1061C00065727400636D5F6261636B7472616365B5
:1061D0005F6661756C7400004062000844620008EC
:1061E000486200084C62000810630008546200080E
:1061F00050620008D46300082068616C20666C61FE
:1062000073682065726173652065727220207479ED
:1062100070653A25642020736563746F723A256453
:10622000206E62736563746F72733B256420206116
:106230006464723A3078253038780D0A0000000026
:1062400052302000523120005232200052332000C0
:10625000504320004C5220005573616765206661F1
:10626000756C74206973206361757365642062794D
:1062700020617474656D70747320746F2073776916
:1062800074636820746F20616E20696E76616C693A
:10629000642073746174652028652E672E2C20415C
:1062A000524D29005573616765206661756C7420D5
:1062B00069732063617573656420627920496E6437
:1062C000696361746573206120646976696465201F
:1062D0006279207A65726F206861732074616B65E2
:1062E0006E20706C616365202863616E206265209A
:1062F000736574206F6E6C79206966204449565F1F
:10630000305F545250206973207365742900000077
:10631000523132003D3D3D3D3D205468726561641F
:1063200020737461636B20696E666F726D6174694E
:106330006F6E203D3D3D3D3D000000003D3D3D3D3B
:106340003D3D204D61696E20737461636B20696E01
:10635000666F726D6174696F6E203D3D3D3D3D3DE0
:10636000000000003D3D3D3D3D3D3D3D3D3D3D3D51
:106370003D3D3D3D3D3D3D2052656769737465720D
:106380007320696E666F726D6174696F6E203D3D3A
:106390003D3D3D3D3D3D3D3D3D3D3D3D3D3D3D3D2D
:1063A0003D3D00004465627567206661756C742030
:1063B0006973206361757365642062792068616C1C
:1063C000742072657175657374656420696E204E02
:1063D0005649430050535200446562756720666118
:1063E000756C7420697320636175736564206279CC
:1063F00020445754206D61746368206F6363757225
:10640000726564004465627567206661756C74200E
:1064100069732063617573656420627920566563D2
:10642000746F72206665746368206F63637572723F
:10643000656400004465627567206661756C742050
:1064400069732063617573656420627920454442F5
:10645000475251207369676E616C20617373657276
:10646000746564004465627567206661756C7420AC
:1064700069732063617573656420627920424B50B3
:106480005420696E737472756374696F6E206578D9
:1064900065637574656400005573616765206661A6
:1064A000756C74206973206361757365642062790B
:1064B00020696E6469636174657320746861742017
:1064C000616E20756E616C69676E656420616363DF
:1064D000657373206661756C7420686173207461E4
:1064E0006B656E20706C61636500000048617264CA
:1064F000206661756C7420697320636175736564CF
:10650000206279206661696C656420766563746FCA
:106510007220666574636800427573206661756CED
:1065200074206973206361757365642062792070DB
:10653000726563697365206461746120616363657A
:1065400073732076696F6C6174696F6E0000000070
:10655000427573206661756C742069732063617580
:1065600073656420627920696D7072656369736513
:106570002064617461206163636573732076696F61
:106580006C6174696F6E00004D656D6F7279206D7E
:10659000616E6167656D656E74206661756C7420EF
:1065A0006973206361757365642062792064617426
:1065B00061206163636573732076696F6C617469D0
:1065C0006F6E0000427573206661756C742069738C
:1065D0002063617573656420627920696E737472DB
:1065E000756374696F6E2061636365737320766988
:1065F0006F6C6174696F6E004D656D6F7279206D9F
:10660000616E6167656D656E74206661756C74207E
:1066100069732063617573656420627920696E73A4
:106620007472756374696F6E206163636573732040
:1066300076696F6C6174696F6E000000427573203B
:106640006661756C7420697320636175736564207D
:10665000627920666C6F6174696E672D706F696E08
:1066600074206C617A79207374617465207072652E
:10667000736572766174696F6E0000004D656D6FB1
:106680007279206D616E6167656D656E74206661FB
:10669000756C742069732063617573656420627919
:1066A00020666C6F6174696E672D706F696E7420FF
:1066B0006C617A792073746174652070726573659A
:1066C00072766174696F6E005573616765206661EB
:1066D000756C7420697320636175736564206279D9
:1066E00020617474656D70747320746F20657865B3
:1066F0006375746520616E20756E646566696E658C
:106700006420696E737472756374696F6E00000043
:106710005573616765206661756C742069732063C9
:10672000617573656420627920617474656D70743D
:106730007320746F206578656375746520612063CC
:106740006F70726F636573736F7220696E737472AA
:10675000756374696F6E00005573616765206661CB
:10676000756C742069732063617573656420627948
:1067700020617474656D70747320746F20646F2071
:10678000616E20657863657074696F6E20776974D7
:10679000682061206261642076616C756520696E95
:1067A00020746865204558435F52455455524E2029
:1067B0006E756D6265720000427573206661756C5E
:1067C0007420697320636175736564206279207336
:1067D0007461636B696E67206572726F720000008E
:1067E0004D656D6F7279206D616E6167656D656E67
:1067F00074206661756C74206973206361757365BC
:106800006420627920737461636B696E67206572BE
:10681000726F7200427573206661756C74206973C3
:106820002063617573656420627920756E7374618D
:10683000636B696E67206572726F72004D656D6F74
:106840007279206D616E6167656D656E7420666139
:10685000756C742069732063617573656420627957
:1068600020756E737461636B696E67206572726FF9
:106870007200000044756D702063616C6C2073744D
:1068800061636B2068617320616E206572726F7244
:10689000000000004669726D77617265206E616D5F
:1068A000653A2025732C20686172647761726520D7
:1068B00076657273696F6E3A2025732C20736F664C
:1068C00074776172652076657273696F6E3A202500
:1068D000730000004661756C74206F6E20746872DE
:1068E0006561642025730000417373657274206FC5
:1068F0006E207468726561642025730053686F7739
:10690000206D6F72652063616C6C20737461636BC2
:1069100020696E666F2062792072756E3A2061641C
:106920006472326C696E65202D6520257325732095
:106930002D61202D6620252E2A7300004661756C7E
:1069400074206F6E20696E74657272757074206F3A
:10695000722062617265206D6574616C286E6F20B3
:106960004F532920656E7669726F6E6D656E740087
:10697000417373657274206F6E20696E74657272F4
:10698000757074206F722062617265206D6574612C
:106990006C286E6F204F532920656E7669726F6E7A
:1069A0006D656E74000000004572726F723A20547B
:1069B000687265616420737461636B282530387870
:1069C0002920776173206F766572666C6F7700009F
:1069D0004572726F723A204D61696E207374616303
:1069E0006B28253038782920776173206F7665729F
:1069F000666C6F7700000000546865206275732034
:106A00006661756C74206F63637572726564206172
:106A100064647265737320697320253038780000D0
:106A2000546865206D656D6F7279206D616E616768
:106A3000656D656E74206661756C74206F63637537
:106A40007272656420616464726573732069732077
:106A50002530387800000000786A00080000002027
:106A6000E0000000D8330008586B0008E000002068
:106A7000D0B00000E83300080024F400010000005A
:106A800010000000000000000000000000000000F6
:106A900000000000000000000500000000000208E7
:106AA00007000000000006080900000000000A08B6
:106AB00004000000000001080B00000000000E08A8
:106AC00000000000000000000000000000000000C6
:106AD00000000000000000000000000000000000B6
:106AE00000000000000000000000000000000000A6
:106AF0000000000000000000000000000000000096
:106B00000000000000000000000000000000000085
:106B10000000000000000000000000000000000075
:106B20000000000000000000000000000000000065
:106B300000000000AAAAAAAA0000000000000000AD
:106B40000000000000000000000000000000000045
:086B500000000000000000003D
:04000005080001AD41
:00000001FF
