:020000040802F0
:10000000B85402208D0202080B460208B102020811
:1000100009460208ED0602088151020800000000AE
:10002000000000000000000000000000D5010208F0
:10003000250802080000000029020208854902087C
:10004000A7020208A7020208A7020208A7020208E4
:10005000A7020208A7020208A7020208A7020208D4
:10006000A7020208A7020208A7020208A7020208C4
:10007000F1060208FD060208090702081507020832
:10008000210702082D070208A7020208A70202089A
:10009000A7020208A7020208A7020208A702020894
:1000A000A7020208A7020208A7020208A702020884
:1000B000A7020208A7020208A7020208A702020874
:1000C000A7020208A7020208A70202085D4602086A
:1000D000C94602083150020885500208D95002086A
:1000E000A7020208A7020208A7020208A702020844
:1000F000A7020208A7020208A7020208A702020834
:10010000A7020208A7020208A7020208D5460208B1
:10011000A7020208A7020208A7020208A702020813
:100120003907020845070208510702085D0702085F
:10013000A702020879080208A7020208A70202081B
:10014000A7020208A7020208A7020208A7020208E3
:10015000A702020869070208750702082D51020864
:10016000A7020208A7020208A7020208A7020208C3
:10017000A7020208A7020208A70202080000000066
:10018000A7020208A7020208A7020208A7020208A3
:10019000A7020208A7020208A7020208A702020893
:1001A000A7020208A7020208A7020208DFF810D07F
:1001B00000F020F90048004735A10208AFF30080A5
:1001C000B8540220EFF308807047EFF309807047BE
:1001D000684670472A4B19680868B0E8F04F80F30A
:1001E0000988BFF36F8F4FF0000080F311887047CC
:1001F0000000000006480068006880F3088862B6C6
:1002000061B6BFF34F8FBFF36F8F00DF00BF00BF3A
:1002100008ED00E0DFF80C00016841F470010160B6
:10022000704700BF88ED00E0EFF30980BFF36F8FE8
:10023000134B1A681EF0100F08BF20ED108A20E93A
:10024000F04F106008B44FF0500080F31188BFF3F6
:100250004F8FBFF36F8F13F0F1F84FF0000080F372
:10026000118808BC19680868B0E8F04F1EF0100F3C
:1002700008BFB0EC108A80F30988BFF36F8F704716
:10028000B4000020EFF30580704700000648804767
:1002900006480047FEE7FEE7FEE7FEE7FEE7FEE76B
:1002A000FEE7FEE7FEE7FEE7414A0208AD0102086D
:1002B0007046694605F000FCFFF7FEFF2DE9F05F90
:1002C0000546002092469B468846064681464024C5
:1002D0001BE0284641464746224600F07AF853463E
:1002E0005A46C01A914110D311461846224600F0D2
:1002F00061F82D1A67EB01084F46224601200021C4
:1003000000F058F817EB00094E41201EA4F101043B
:10031000DFDC484631462A464346BDE8F09F10B52B
:10032000431A934209D28318881803E010F8011D7C
:1003300003F8011D521EF9D210BD40EA01039B07CC
:1003400003D009E008C9121F08C0042AFAD203E04A
:1003500011F8013B00F8013B521EF9D210BDD2B298
:1003600001E000F8012B491EFBD270470022F6E79E
:1003700010B513460A4604461946FFF7F0FF20461B
:1003800010BD10B5044604E00B7800F8013B03B142
:10039000491C521EF8D2204610BD30B5044600203C
:1003A000034600E05B1C934203D2E05CCD5C401B43
:1003B000F8D030BD202A04DB203A00FA02F10020F8
:1003C00070479140C2F1200320FA03F31943904093
:1003D0007047202A04DB203A21FA02F000217047FE
:1003E00021FA02F3D040C2F120029140084319469D
:1003F00070470000064C074D06E0E06840F001033E
:1004000094E8070098471034AC42F6D3FFF7D2FEC9
:10041000904E0308B04E030870B58C1810F8015BBD
:1004200015F0070301D110F8013B2A1106D110F88D
:10043000012B03E010F8016B01F8016B5B1EF9D191
:100440002B0705D40023521E0DD401F8013BFAE717
:1004500010F8013BCB1A921C03E013F8015B01F882
:10046000015B521EF9D5A142D8D3002070BD000017
:1004700010B505F07FFA09F029F812F0EDFB11F044
:1004800007FF0DF071FA0EF097F80DF0ADFC0AF0D1
:10049000F3FF05F043F908F045FE0CF047FD07F0C7
:1004A0003DFE01460AA004F081FE07F041FE014630
:1004B0000BA004F07BFE0CF00FFD11F08BFD0F483C
:1004C000006812F079FDBDE8104012F0FFBB00009B
:1004D000726E673A2530783038780D0A00000000D7
:1004E000726573657420737261727420666C6167E3
:1004F0003A25303278200D0A000000001C00002050
:1005000010B502F02FF904F053FA00F033FD03F0B8
:100510003BFF03F08DFF04F027F804F039F804F0F6
:100520004BF804F05DF800F04FFA04F007F806F01D
:10053000D9FE0CF011FC07A208A10AA005F0F0FBFF
:100540000DA004F033FEBDE8104002A113A004F09A
:100550002DBE000056302E312E33000056312E3085
:100560002E300000616F615F626173655F7374615B
:1005700074696F6E5F6969002D2D2D2D2D2D2D2D28
:100580002D2D2D20616F612073797320202D2D2D4D
:100590002D2D2D2D2D2D2D2D2D0A0000617070205B
:1005A00076657273696F6E3A2573200D0A0000003C
:1005B000F0B589B0324801F09EF832480024016855
:1005C00041F0100101600068012500F010000226D2
:1005D000079080202C4FCDE904560290039502A984
:1005E000384601F0DFFE00228021384602F076F81E
:1005F000FA2000F0F9FF01228021384602F06EF85F
:10060000FA2000F0F1FF2148016841F0010101608A
:100610008DF800608DF8014019488DF802408DF882
:1006200004408DF803408DF805401949C0E90015D4
:100630000582C0F814D0C0E90654A90304628160A1
:10064000C910C16001F0F4F8040012A014D004F045
:10065000ADFD14A004F0AAFD0823194A1949084861
:1006600001F00DF8184A0823A2F50071044800F0C3
:10067000CDFF09B02046F0BD04F098FD13A0E9E7D6
:1006800080020020303802400010024000900240FA
:10069000008002400D0A5B44454255475D203E3EC6
:1006A000200000006574682068617264776172657B
:1006B00020696E6974206661696C642E2E2E0A00B2
:1006C00068340020C8030020C80400206574682036
:1006D000686172647761726520696E6974207375F0
:1006E000636573732E2E2E0A00000000FEE70000E3
:1006F000014800F0CFBC0000A07A0020014800F0C3
:10070000C9BC0000487E0020014800F0C3BC0000C6
:10071000887D0020014800F0BDBC0000E87D00207D
:10072000014800F0B7BC0000E0790020014800F06B
:10073000B1BC0000407A0020014800F0ABBC0000D2
:10074000C87C0020014800F0A5BC0000007B002010
:10075000014800F09FBC000020790020014800F013
:1007600099BC0000287D0020014800F093BC0000E7
:10077000607B0020014800F08DBC000080790020E3
:1007800001681823CAB2103AB2FBF3F2054B6FF3BB
:100790000901032A9B5CC36500D9091D81650846D0
:1007A000704700003842030810B5014600208B69ED
:1007B0008A6A4FF0C07453B1B3F5005F15D072B1BF
:1007C000012A0CD0022A0AD0032A09D104E01AB166
:1007D000012A06D0022A03D1C96AC90100D5012025
:1007E00010BDC96AA142FAD010BD002AF7D0012A73
:1007F000F2D0022AF3D0032AF3D010BD30B504683A
:10080000256825F480252560046863608368402B93
:10081000036803D099600068C26030BD9A600068C8
:10082000C16030BD70470000064908B509684FF443
:10083000FA52B1FBF2F14143009100BF491E009111
:10084000FBD208BD0000002038B50446006800F562
:100850008050816941F480118161206800F58050E9
:10086000806900900120FFF7DFFF2068009900F504
:100870008050816138BD000010B55020EFF3118425
:1008800080F31188BFF34F8FBFF36F8F024800F0E2
:1008900092FF84F3118810BD800200202DE9F04101
:1008A000044621B14FF40060E060C000A060E06940
:1008B0000026002861D035462068402702683C4960
:1008C0000A40D4E902131943294341F4007111434A
:1008D000016020680568012000F086FE2068056040
:1008E0002068476020684568012000F07DFE206890
:1008F0004560206886602068C660206881694FF680
:100900004172114041F080018161206885690120B8
:1009100000F06AFE206885612068C6612068C569AC
:10092000012000F061FE2068C561206800F580505C
:100930008169204A1140204A0A438261206800F5FB
:1009400080508569012000F04FFE206800F580503E
:1009500085612068194900F580500160206800F524
:1009600080500568012000F03FFE206800F58050AF
:100970000560A069012803D009E04FF480659BE77A
:10098000206800F58050C1690D4A1143C16160695A
:100990000C4A818811640178C37841EA0361837845
:1009A00040781B0443EA002001435164BDE8F08114
:1009B0000F8120FF233FDEF8040020028020C102C7
:1009C000400001000080024038B523490868C26831
:1009D00042F01002C2600868016840684FF48074F9
:1009E000009022461D491C4803F07EFB1A49403105
:1009F0000868C26842F01002C26008680168406876
:100A00000090154822461649403003F06DFB12490C
:100A100080310868C26842F01002C260086801684C
:100A2000406810490090224601F6862003F05CFBE6
:100A30000949C0310868C26842F01002C260086803
:100A40000168406800902246BDE83840064901F53B
:100A5000B86003F049BB0000207800201469002032
:100A60000E6400201A6E00202073002070B50E4620
:100A700004004FF0000532D0012C30D0022C2ED0D3
:100A8000032C2CD0042C2AD0052C28D0062C26D0C0
:100A9000072C24D0082C22D0092C20D00A2C1ED0C0
:100AA0000B2C1CD00C2C1AD00D2C18D00E2C16D0C0
:100AB0000F2C14D0102C12D0112C10D0122C0ED0C0
:100AC000132C0CD0142C0AD0152C08D0162C06D0C0
:100AD000172C04D040F25F2118A004F0EBFD66B1A2
:100AE000012E24D0022E25D0032E04D04FF41871ED
:100AF00012A004F0DFFD4FF440750B2C00D9241D2B
:100B00001E48016821F440710160016829430160B9
:100B1000016821F0F80101600168022202EBC402C1
:100B200011430160016841F48031016070BD4FF4F0
:100B30008075E2E74FF40075DFE700002E2E5C4C75
:100B400069627261726965735C53544D3332463425
:100B500078785F48414C5F4472697665725C537285
:100B6000635C73746D3332663478785F68616C5F90
:100B7000666C6173685F65782E630000103C02400C
:100B80001348016889050FD5016821F400710160DF
:100B9000016841F400610160016821F400610160B5
:100BA000016841F400710160016849050FD50168D1
:100BB00021F480610160016841F4805101600168A5
:100BC00021F480510160016841F480610160704747
:100BD000003C024070B50C4605000AD0012D08D03B
:100BE000022D06D0032D04D040F2312115A004F0CF
:100BF00061FD012C08D0022C06D0032C04D040F259
:100C0000322110A004F056FD1E48016821F4407105
:100C10000160032C0DD00168012C0FD041F400417C
:100C2000016001684FF4803242EA052211430160FD
:100C300070BD016848F204021143F1E741F004017C
:100C4000EEE700002E2E5C4C69627261726965737A
:100C50005C53544D3332463478785F48414C5F449E
:100C600072697665725C5372635C73746D3332665D
:100C70003478785F68616C5F666C6173685F657813
:100C80002E630000103C024070B50446A0F10060E5
:100C90000D46B0F5001F09D30B482044B0F5047F82
:100CA00004D340F2C52109A004F004FD164A1068DF
:100CB00020F44070106010681060106840F001006F
:100CC0001060257070BD0000008800E02E2E5C4C86
:100CD00069627261726965735C53544D3332463494
:100CE00078785F48414C5F4472697665725C5372F4
:100CF000635C73746D3332663478785F68616C5FFF
:100D0000666C6173682E6300103C024070B5044647
:100D1000A0F1006015461E46B0F5001F09D30D482E
:100D20002044B0F5047F04D340F277210AA004F0F8
:100D3000C1FC1848016821F440710160016841F468
:100D400040710160016841F0010101602560666049
:100D500070BD0000008800E02E2E5C4C696272615C
:100D6000726965735C53544D3332463478785F480A
:100D7000414C5F4472697665725C5372635C737454
:100D80006D3332663478785F68616C5F666C61736E
:100D9000682E6300103C024070B50446A0F100606C
:100DA0000D46B0F5001F09D30C482044B0F5047F70
:100DB00004D34FF42B710AA004F07CFC174A10688E
:100DC00020F440701060106840F48070106010686B
:100DD00040F001001060258070BD0000008800E038
:100DE0002E2E5C4C69627261726965735C53544D5E
:100DF0003332463478785F48414C5F447269766597
:100E0000725C5372635C73746D3332663478785FEE
:100E100068616C5F666C6173682E6300103C024011
:100E200070B50446A0F100600D46B0F5001F09D36F
:100E30000C482044B0F5047F04D340F293210AA06B
:100E400004F038FC174A106820F4407010601068F5
:100E500040F400701060106840F0010010602560E0
:100E600070BD0000008800E02E2E5C4C696272614B
:100E7000726965735C53544D3332463478785F48F9
:100E8000414C5F4472697665725C5372635C737443
:100E90006D3332663478785F68616C5F666C61735D
:100EA000682E6300103C02401C490868C2061C48BA
:100EB00005D5C26942F01002C26110220A600A68B8
:100EC000920605D5C26942F00802C26120220A607A
:100ED0000A68520605D5C26942F00402C261402286
:100EE0000A600A68120605D5C26942F00202C261B0
:100EF00080220A600A68D20506D5C26942F0010262
:100F0000C2614FF480720A600A68920705D5C2690F
:100F100042F02002C2610220086070470C3C02408F
:100F20004002002070B5114904460020C86101F05C
:100F30000BFC05460E4E09E0601C07D024B101F001
:100F400003FC401BA04201D9032070BD3068C003E0
:100F5000F2D43068C00701D001203060306810F44E
:100F6000F970F2D0FFF7A0FF012070BD4002002011
:100F70000C3C0240194808B5016841F0800101604D
:100F8000016801F080010091016841F004010160F5
:100F9000016801F004010091016841F00101016064
:100FA000016801F001010091016841F00201016056
:100FB000016801F002010091016841F04001016007
:100FC000016801F040010091016841F48071016005
:100FD000006800F48070009008BD000030380240C6
:100FE0002DE9F0410446876D01F0AEFB054694F80B
:100FF00035000026022806D08020606584F8346021
:101000000120BDE8F0812068016821F0160101602F
:101010002068416921F080014161206C08B9A06C11
:1010200020B12068016821F0080101602068016892
:1010300021F0010101600BE001F086FB401B052857
:1010400006D92020606504F8346F03206070D8E76B
:1010500020680068C007EFD194F85C103F208840FA
:10106000B86004F8346F012060700020C9E790F880
:101070003510022903D080214165012070470521E8
:1010800080F835100068016821F00101016000203E
:10109000704700002DE9F84304464FF00009CDF8F1
:1010A000009063484FF41651A56D0068B0FBF1F74E
:1010B0002E6894F85C20082101FA02F030420FD02B
:1010C0002068026852070BD5026822F00402026011
:1010D00094F85C008140A960606D40F0010060659B
:1010E00094F85C104FF0010808FA01F0304208D083
:1010F00021684969090604D5A860606D40F00200C6
:10110000606594F85C1004208840304208D0216863
:101110000968890704D5A860606D40F00400606527
:1011200094F85C1010208840304218D0216809687B
:10113000090714D5A86020680168490304D5006830
:10114000000308D5A16C07E00168C90503D4016854
:1011500021F008010160216C09B12046884794F80C
:101160005C1020208840304231D021680968C906CF
:101170002DD5A86094F8350005282068016806D0B0
:10118000490347D5006800031DD4616C1CE021F0C1
:10119000160101602068416921F080014161206CE5
:1011A00008B9A06C20B12068016821F00801016035
:1011B00094F85C103F208840A86084F8349084F84C
:1011C0003580216D1FE0E16B09B120468847606DD5
:1011D00000282BD0606DC00714D0052084F835009E
:1011E0002068016821F0010101600098401C009016
:1011F000B84203D820680068C007F6D184F834905C
:1012000084F83580E16C002910D001B02046BDE89B
:10121000F04308470168C905D5D4016821F01001E1
:10122000016084F8349084F83580CCE7BDE8F88319
:10123000000000202DE9F041044601F085FA054642
:10124000002C7CD0A149206888423ED09F491831AB
:1012500088423AD09D493031884236D09B49483146
:10126000884232D09949603188422ED097497831EE
:1012700088422AD095499031884226D09349A83196
:10128000884222D0924988421FD091491831884221
:101290001BD08F493031884217D08D494831884260
:1012A00013D08B49603188420FD089497831884208
:1012B0000BD087499031884207D08549A8318842B0
:1012C00003D0C82183A004F0F5F96068C0B1B0F183
:1012D000007F15D0B0F1806F12D0B0F1C06F0FD089
:1012E000B0F1006F0CD0B0F1206F09D0B0F1406FB9
:1012F00006D0B0F1606F03D0C92176A004F0DAF90E
:10130000A06838B1402805D0802803D0CA2171A038
:1013100004F0D0F9E068B0F5007F04D018B1CB211B
:101320006CA004F0C7F92069B0F5806F04D018B143
:10133000CC2168A004F0BEF9606958B100E071E00A
:10134000B0F5006F06D0B0F5805F03D0CD2161A06D
:1013500004F0B0F9A06948B1B0F5005F06D0B0F56F
:10136000804F03D0CE215BA004F0A4F9E06940B126
:10137000B0F5807F05D0202803D0CF2155A004F000
:1013800099F9206A60B1B0F5803F09D0B0F5003F0F
:1013900006D0B0F5403F03D0D0214EA004F08AF92A
:1013A000606A002832D0042806D0D12149A004F078
:1013B00081F9606A002829D0A06A48B1012807D0C5
:1013C000022805D0032803D0D62142A004F072F9E8
:1013D000E06A60B1B0F5000F09D0B0F1807F06D0AF
:1013E000B0F1C07F03D0D7213AA004F063F9206B9D
:1013F00060B1B0F5001F09D0B0F5800F06D0B0F590
:10140000C00F03D0D82133A004F054F9002684F88B
:101410003460022084F835002068016821F0010161
:1014200001600DE00120BDE8F08101F08DF9401B65
:10143000052805D920206065032084F83500F2E7EF
:1014400020680068C007F0D121680A68304802406F
:10145000D4E901031843D4E903352B4318436369E6
:101460001843A3691843E3691843236A18431043D8
:10147000626A042A03D1D4E90B231A43104308609B
:1014800020684069656A20F0070128460D4301275E
:1014900004280CD1A06A0543E06A40B12046FFF75A
:1014A00083F920B14020606584F83570BAE7206880
:1014B00045612046FFF764F994F85C203F21914094
:1014C0008160666584F835700020ACE710600240EA
:1014D000106402402E2E5C4C696272617269657301
:1014E0005C53544D3332463478785F48414C5F4406
:1014F00072697665725C5372635C73746D333266C5
:101500003478785F68616C5F646D612E6300000001
:101510003F8010F02DE9F04789460446866D00258E
:10152000581E4FF6FF711F469046884204D34FF471
:10153000EA711EA004F0BEF894F8340001280DD022
:10154000012084F8340094F835100020012907D0D8
:1015500084F8340002252846BDE8F0870220FBE726
:10156000022184F8351060653B46424649462046D4
:10157000FFF744F994F85C103F208840B060206881
:10158000016841F0160101602068416941F0800165
:101590004161206C20B12068016841F008010160C0
:1015A0002068016841F001010160D4E72E2E5C4CF7
:1015B00069627261726965735C53544D33324634AB
:1015C00078785F48414C5F4472697665725C53720B
:1015D000635C73746D3332663478785F68616C5F16
:1015E000646D612E6300000070B5044601F0ACF834
:1015F0000546601C02D004480078044401F0A4F8B9
:10160000401BA042FAD370BD040000202DE9F04336
:1016100090F845500024012D0DD04FF0010980F8BD
:101620004590022580F8445044F2F45C4FF00048A5
:101630005F1E816216E00220BDE8F08301EB4415D5
:10164000C5F80080C4EBC41606EB460602EB86061E
:10165000C5E901C6BC4203D205F12006EE6000E0F8
:10166000E960641C9C42E9D3026802F58052D160B3
:1016700080F84490002180F845100846DCE72DE909
:10168000F04390F845400025012C0BD04FF0010CA1
:1016900080F845C0022480F844404FF480195F1E52
:1016A000C1621BE00220BDE8F08301EB4514C4F8E1
:1016B0000090C5EBC51606EB460602EB8606A66053
:1016C000C6691EB9266846F440062660BD4203D2AC
:1016D00004F12006E66000E0E1606D1C9D42E4D369
:1016E000026802F58052116180F844C0002180F840
:1016F00045100846D7E710B50446022084F8440098
:10170000204600F0DDF9002004F8440F607010BDA1
:1017100010B504A003F04AFDBDE8104004A003F09A
:1017200045BD00000D0A5B4552525D203E3E200043
:10173000657468206572720A0000000010B590F8A8
:101740004510012913D0012380F84530022180F88B
:101750004410816A0A680024002A27DB0A68D2053F
:1017600018D5826B521C8263012A02D002E002204B
:1017700010BD016341630A68C2F30D42121FC263C8
:10178000026B92680264C96840F8281F03774477A7
:10179000002010BD0A68920503D58363C0E90C14CC
:1017A00002E0826B521C8263C968816200F8443F88
:1017B0004470012010BD70B50446006800F58050EB
:1017C00041694FF0000649064FF0010508D5204653
:1017D00000F0B4FA2068402100F58050416109E032
:1017E0004069C0070AD0204600F086FB206800F55B
:1017F0008050456184F8445084F8456020684FF477
:10180000803100F580504161206800F580504069CA
:1018100000040CD52046FFF77BFF20684FF4004101
:1018200000F58050416184F8445084F8456070BDF3
:101830002DE9FC5F4FF000060400B346009624D06B
:101840006068012804D018B1C02184A003F032FFE1
:10185000A06928B1012803D0C12180A003F02AFF8C
:10186000E06928B1012803D0C2217CA003F022FF47
:10187000206A30B1B0F5000F03D0C32177A003F088
:1018800019FF94F8440018B107E00120BDE8FC9F5F
:1018900084F84560204600F049F97F48016841F42A
:1018A00080410160006800F4804001907B4801683D
:1018B00021F4000101600168226A1143016020687F
:1018C00000F58050016841F00101016000F03CFF2B
:1018D00005464FF4FA7708E000F036FF401BB842A7
:1018E00003D9032004F8440F6DE0206800F5805010
:1018F0000068C007F0D12068006920F01C0501F0E5
:1019000095F96749674A0144914202D245F00805BA
:1019100016E06549654A0144914202D245F00C0542
:101920000EE06349634A0144914209D36249084485
:101930006249884202D245F0040501E045F01005F5
:10194000206805614FF400420021204600F0D6FADD
:10195000012500286FD10520FFF746FE60684FF48F
:1019600000694FF4804A88B300F0EEFE804641F2F1
:1019700088376A460121204600F078F900F0E4FE3D
:10198000A0EB0800B84218D800984007F1D54FF4F2
:1019900080520021204600F0B1FA00284BD100F01F
:1019A000D3FE80466A460121204600F05FF900F030
:1019B000CBFEA0EB0800B84209D901212046FEF772
:1019C0006DFF04F8445F032066705FE716E000983F
:1019D0008006E7D56A461F21204600F047F950BB34
:1019E0000098C10602D5C4F80C9000E0E6604007FC
:1019F00001D5A66029E0C4F808A026E0A06830B1AF
:101A0000504504D04FF4CD7114A003F053FEE068AC
:101A1000484505D020B140F29B1110A003F04AFECA
:101A2000E068A168C00840EA510082B20021204667
:101A300000F064FA30B101212046FEF72FFF84F850
:101A4000445022E70520FFF7CFFD59462046FEF718
:101A500025FF84F84450002018E700002E2E5C4C2F
:101A600069627261726965735C53544D33324634F6
:101A700078785F48414C5F4472697665725C537256
:101A8000635C73746D3332663478785F68616C5F61
:101A90006574682E63000000443802400438014039
:101AA00000D3CEFEC0E1E40040F1E9FD40787D01C5
:101AB00000796CFC005A6202001F0AFA80F0FA02F8
:101AC00010B500681349884222D11348016821F0FB
:101AD00080610160016821F000610160016821F00E
:101AE0000071016004210D4800F078FB3E210C4894
:101AF00000F074FB86210B4800F070FB43F60341B5
:101B0000094800F06BFBBDE810403D2000F066BEC8
:101B100010BD00000080024030380240001002403A
:101B20000008024000000240000402402DE9F0419C
:101B300086B0044614216846FEF718FC4549206823
:101B400088427CD1444C4FF00008206840F000707F
:101B50002060206800F000700590206840F08060F0
:101B60002060206800F080600590206840F00060F0
:101B70002060206800F000600590206840F01000B0
:101B80002060206800F010000590206840F00400FC
:101B90002060206800F004000590206840F00100FB
:101BA0002060206800F001000590206840F00200ED
:101BB00020602068022500F00200059004208DE8D6
:101BC000210103260B2769462448CDE9036700F06D
:101BD000E9FB3E208DE8210169462148CDE90367F4
:101BE00000F0E0FB86208DE8210169461D48CDE923
:101BF000036700F0D7FB43F603408DE821016946F7
:101C00001948CDE9036700F0CDFB002206213D20F5
:101C100000F048FE3D2000F013FE206840F0007008
:101C20002060206800F000700590206840F080601F
:101C30002060206800F080600590206800E006E0E9
:101C400040F000602060206800F00060059006B061
:101C5000BDE8F081008002403038024000100240B0
:101C60000008024000000240000402402DE9F04755
:101C70000446008A91460D46202804D940F22A41A4
:101C80001FA003F017FD94F8440082281DD0822085
:101C900084F8440020680169228A4FF6FF7301F03E
:101CA0001C0103EAC2220A434FF4F86101EA8511DC
:101CB000114321F0020141F00105056100F044FDEE
:101CC000064601274FF480380FE00220BDE8F08778
:101CD00000F03AFD801B404505D304F8447F002006
:101CE00060700320F2E720680569E807F0D12068FA
:101CF000406981B2C9F8001084F844700020E5E71B
:101D00002E2E5C4C69627261726965735C53544D2E
:101D10003332463478785F48414C5F447269766567
:101D2000725C5372635C73746D3332663478785FBF
:101D300068616C5F6574682E6300000008B5002060
:101D4000009008486946006811F02AFF00980028B2
:101D500007D005494FF080500860BFF34F8FBFF3A5
:101D60006F8F08BD0002002004ED00E0F8B50446C6
:101D700090F84500012839D0012584F8455002200B
:101D800084F8440020680026016841F008010160E1
:101D90002068006800902846FEF746FD21680098FC
:101DA00008602068016841F0040101602068006853
:101DB00000900120FEF738FD216800980860204659
:101DC000FEF742FD206800F58050816941F4005122
:101DD0008161206800F58050816941F002018161D4
:101DE00084F8445084F845600020F8BD0220F8BD16
:101DF000F0B590F845300022012B11D0012780F872
:101E00004570022380F84430002559B1C46A236824
:101E1000002B0ADA122100F8441F45700120F0BDA2
:101E20000220F0BD00F8447FF7E740F2F456B142DB
:101E30000BD9B1FBF6FCB1FBF6F306FB1C1CBCF1A5
:101E4000000F00D05B1C012B43D1226842F04052AE
:101E50002260C26AC1F30C015160C16A0A6842F093
:101E600000420A60C16AC968C16234E0D4F800C0A7
:101E70002CF0405CC4F800C032B9C46AD4F800C089
:101E80004CF0805CC4F800C0C46A66605C1EA2426C
:101E900014D1C46AD4F800C04CF0005CC4F800C08F
:101EA000C3F10104C4EBC41404EB4404D0F82CC007
:101EB00001EB8404C4F30C04CCF80440C46AD4F8E5
:101EC00000C04CF0004CC4F800C0C46A521CE46866
:101ED000C4629A42CAD3016801F580514A69520727
:101EE00005D504224A61016801F580514D6000F872
:101EF000447F45700020F0BD704700002DE9F0419F
:101F00000446008A16460D46202804D940F2724144
:101F10001DA003F0CFFB94F8440042281ED04220BD
:101F200084F8440020680169228A4FF6FF7301F0AB
:101F30001C0103EAC2220A434FF4F86101EA851149
:101F4000114341F00305B1B241612068056100F021
:101F5000FBFB064601274FF480380FE00220BDE866
:101F6000F08100F0F1FB801B404505D304F8447F6D
:101F7000002060700320F2E720680569E807F0D1CF
:101F800084F84470EBE700002E2E5C4C69627261AD
:101F9000726965735C53544D3332463478785F48C8
:101FA000414C5F4472697665725C5372635C737412
:101FB0006D3332663478785F68616C5F6574682E63
:101FC000630000002DE9F04704462E480F46017ECD
:101FD000012912D0012181460176206828B101280B
:101FE00003D0BB2128A003F065FB4CF2503A5046C9
:101FF000FEF798FF060003D03FE00220BDE8F0871F
:102000004FF0FF3038602068DFF8BC8001280BD02B
:10201000D4E90210401801D0182803D9D3211AA0FE
:1020200003F048FBA56821E0207C6168FEF7D2FD43
:102030005046FEF777FFD8F80010064648F2040233
:102040009143C8F8001016E0217C2846FEF70EFDEB
:102050005046FEF767FFD8F80010060021F0FA019D
:10206000C8F8001001D03D6005E06D1CD4E90210F5
:102070000844A842E8D8FEF783FD002189F818102B
:102080003046BBE7400200202E2E5C4C6962726134
:10209000726965735C53544D3332463478785F48C7
:1020A000414C5F4472697665725C5372635C737411
:1020B0006D3332663478785F68616C5F666C61732B
:1020C000685F65782E630000103C02400348016899
:1020D00041F000410160002070470000103C0240C8
:1020E0002DE9F047214E04461546307E1F468946AD
:1020F000012813D0012030764CB1012C07D0022CDE
:1021000005D0032C03D0B42119A003F0D3FA4CF26C
:1021100050384046FEF706FF18B114E00220BDE833
:10212000F0879CB1012C16D0022C19D02A463B46D0
:102130004846FEF7EBFD4046FEF7F4FE1B490A68F1
:1021400022F001020A6000213176E8E7E9B2484650
:10215000FEF79AFDEFE7A9B24846FEF71DFEEAE753
:1021600029464846FEF75CFEE5E7000040020020F5
:102170002E2E5C4C69627261726965735C53544DBA
:102180003332463478785F48414C5F4472697665F3
:10219000725C5372635C73746D3332663478785F4B
:1021A00068616C5F666C6173682E6300103C02406E
:1021B000074900200A68002A09DA054A054B0C3A4B
:1021C0001360054B13600968002900DA012070478D
:1021D000103C024023016745AB89EFCD2DE9F35F49
:1021E000544DDFF854A1DFF854B10446A84220D082
:1021F00054451ED05C451CD05148844219D05148EA
:10220000844216D05048844213D05048844210D0A3
:102210004F4884420DD04F4884420AD04E488442F1
:1022200007D04E48844204D04FF4A0714CA003F074
:1022300041FA00204FF0010E4FF00F0801990EFAFD
:1022400000F31940994270D1266847000322BA4032
:1022500096432660C60804EB8606D6F820C04707DA
:102260004FEAD76908FA09F72CEA070CC6F820C02C
:10227000A6689643A66066689E436660E3689343DB
:10228000E360464A20F003031344D3F80828860786
:10229000370F08FA07F606EA020CAC4201D1002219
:1022A0002BE0544501D1012227E05C4501D10222F7
:1022B00023E0234A944201D103221EE0214A9442A2
:1022C00001D1042219E0204A944201D1052214E0F0
:1022D0001E4A944201D106220FE01D4A944201D1C8
:1022E00007220AE01B4A944201D1082205E01A4A5B
:1022F000944201D1092200E00A22BA40624514D179
:10230000D3F80828B243C3F80828254A13688B433A
:102310001360121D13688B431360121D13688B43E7
:102320001360131D1A688A431A60401C102885D355
:10233000BDE8FC9F0000024000040240000802408B
:10234000000C02400010024000140240001802403D
:10235000001C0240002002400024024000280240ED
:102360002E2E5C4C69627261726965735C53544DC8
:102370003332463478785F48414C5F447269766501
:10238000725C5372635C73746D3332663478785F59
:1023900068616C5F6770696F2E63000000300140F8
:1023A000003C01402DE9F84F0446A9480D468442FF
:1023B00021D0A84884421ED0A74884421BD0A748F9
:1023C000844218D0A648844215D0A648844212D030
:1023D000A54884420FD0A54884420CD0A44884422A
:1023E00009D0A448844206D0A348844203D0C32124
:1023F000A2A003F05FF928680104090C01D0000CC9
:1024000003D0C4219DA003F055F96868F8B10128F4
:102410001DD011281BD0022819D0122817D0A64988
:10242000884214D0A549884211D0A54988420ED0CF
:10243000A44988420BD0A449884208D0A3498842C5
:1024400005D0032803D0C5218CA003F033F9A86878
:1024500038B1012805D0022803D0C62187A003F097
:1024600029F900264FF00F0B0120B0402F6882465B
:10247000074057457ED16868022801D0122830D124
:10248000286908B309281FD001281DD002281BD0B5
:10249000032819D0042817D0052815D0062813D0F2
:1024A000072811D008280FD00A280DD00B280BD0F0
:1024B0000C2809D00D2807D00F2805D00E2803D0EE
:1024C000D7216EA003F0F6F8F00804EB8000026A52
:1024D0007107C90E0BFA01F39A432B698B40134322
:1024E000036222687000032101FA00F8297981460D
:1024F00001F0030122EA080201FA09F11143216007
:102500006868012805D0022803D0112801D01228BC
:102510001CD1E86848B1012807D0022805D003285B
:1025200003D0EA2155A003F0C5F8A068E96820EAC5
:10253000080001FA09F10143A1606168287921EAE4
:102540000A01C0F30010B04008436060E168A86869
:1025500021EA080100FA09F00843E0606868C00059
:102560006FD55B48016841F480410160006800F468
:10257000804000E065E00090564826F003010A180C
:10258000D2F80838B007010F0BFA01F08343304846
:10259000844201D100202DE02E48844201D1012047
:1025A00028E02D48844201D1022023E02B488442B8
:1025B00001D103201EE02A48844201D1042019E001
:1025C0002848844201D1052014E02748844201D1E3
:1025D00006200FE02548844201D107200AE0244864
:1025E000844201D1082005E02248844201D109201B
:1025F00000E00A2088401843C2F8080836490868F5
:102600006A68B843D20300D5384308603249091DCF
:1026100008686A68B843920300D5384308602E49B9
:10262000083108686A68B843D20200D538430860A8
:1026300029490C3108686A68B843920200D53843CA
:102640000860761C102EFFF40FAFBDE8F88F000075
:10265000000002400004024000080240000C02405A
:10266000001002400014024000180240001C02400A
:102670000020024000240240002802402E2E5C4C24
:1026800069627261726965735C53544D33324634CA
:1026900078785F48414C5F4472697665725C53722A
:1026A000635C73746D3332663478785F68616C5F35
:1026B0006770696F2E630000000011100000211088
:1026C0000000311000001210000022100000321033
:1026D0004438024000300140003C014070B51546CE
:1026E0000C00064604D140F2AF1108A002F0E2FF50
:1026F00045B1012D04D04FF4D87104A002F0DAFFE7
:10270000B46170BD2004B06170BD00002E2E5C4C21
:1027100069627261726965735C53544D3332463439
:1027200078785F48414C5F4472697665725C537299
:10273000635C73746D3332663478785F68616C5FA4
:102740006770696F2E630000014880687047000061
:1027500004000020024881680278114481607047BB
:10276000040000200B4810B5016841F400710160BD
:10277000016841F480610160016841F48071016089
:10278000032000F0DFF80F2000F006F800F024F836
:10279000002010BD003C024070B50D4D04464FF4C2
:1027A0007A712878B1FBF0F00A490968B1FBF0F0C2
:1027B00001F0D0F948B9102C07D200222146501E52
:1027C00000F070F800206C6070BD012070BD00004A
:1027D00004000020000000207047000010B5040035
:1027E00003D5DE2106A002F065FF04F01F010120E1
:1027F00088406109890001F1E021C1F8800110BD24
:102800002E2E5C4C69627261726965735C53544D23
:102810003332463478785F48414C5F44726976655C
:10282000725C5372635C73746D3332663478785FB4
:1028300068616C5F636F727465782E6300000000DE
:1028400010B5040003D5CE2106A002F033FF04F03A
:102850001F01012088406109890001F1E021C1F8D0
:10286000000110BD2E2E5C4C696272617269657345
:102870005C53544D3332463478785F48414C5F4462
:1028800072697665725C5372635C73746D33326621
:102890003478785F68616C5F636F727465782E63FB
:1028A0000000000070B514460D460646102A03D3FA
:1028B000BA2113A002F0FEFE102D03D3BB2110A0FD
:1028C00002F0F8FE1E480068C0F30223C3F10700BF
:1028D000042800D90420191D072901D2002300E093
:1028E000DB1E012202FA00F1491E294099409A405C
:1028F000521E22403046BDE87040114301F086BEB2
:102900002E2E5C4C69627261726965735C53544D22
:102910003332463478785F48414C5F44726976655B
:10292000725C5372635C73746D3332663478785FB3
:1029300068616C5F636F727465782E6300000000DD
:102940000CED00E010B5044607280BD0062C09D08A
:10295000052C07D0042C05D0032C03D0A22108A0FD
:1029600002F0A8FE164A04F0070110684FF6FF03B4
:10297000184040EA012013490843106010BD0000D0
:102980002E2E5C4C69627261726965735C53544DA2
:102990003332463478785F48414C5F4472697665DB
:1029A000725C5372635C73746D3332663478785F33
:1029B00068616C5F636F727465782E63000000005D
:1029C0000CED00E00000FA052DE9F0470C4605008B
:1029D0007ED02868401E0E2804D94FF4147180A0C0
:1029E00002F068FE14B3012C20D0022C1ED0032C60
:1029F0001CD0042C1AD0052C18D0062C16D0072C6D
:102A000014D0082C12D0092C10D00A2C0ED00B2C6C
:102A10000CD00C2C0AD00D2C08D00E2C06D00F2C6C
:102A200004D040F251216EA002F044FEDFF8EC9198
:102A3000D9F8000000F00F01E0B28046A14208D2B0
:102A4000014689F80010D9F8000000F00F00A042FC
:102A50007BD12868724E810729D5400703D530689D
:102A600040F4E05030602878000703D5306840F427
:102A700060403060A868A0B1802812D0902810D0A3
:102A8000A0280ED0B0280CD0C0280AD0D02808D05A
:102A9000E02806D0F02804D04FF41D7150A002F0B9
:102AA00009FE3068A96820F0F000084330602878FB
:102AB000C0073CD05A4F6868083F98B1012821D020
:102AC000022822D0032820D040F27B2144A000E03D
:102AD0003BE002F0EFFD6868012813D0022814D013
:102AE000032812D03868800700282EDA3068696819
:102AF00020F0030008433060FFF726FE074641F24E
:102B0000883A0DE038688003EEE738688001EBE72B
:102B1000FFF71AFEC11B514502D90320BDE8F0871B
:102B20003068696800F00C00B0EB810FF0D1D9F883
:102B30000010484601F00F01A14208D980F800803A
:102B4000006800F00F00A04201D00120E6E72878DD
:102B50004FF4805440074FF4A0574FF4C0584FF43F
:102B6000E05914D5E86860B1A0420AD0B84208D054
:102B7000404506D0484504D040F2B92118A002F0E3
:102B800099FD3068E96820F4E05008433060287807
:102B9000000715D5286960B1A0420AD0B84208D014
:102BA000404506D0484504D04FF430710CA002F0E7
:102BB00081FD3068296920F4604040EAC10030603E
:102BC00000F05AF83168174AC1F30311515CC8404C
:102BD000154908600F20FFF7DFFD00209EE7000089
:102BE0002E2E5C4C69627261726965735C53544D40
:102BF0003332463478785F48414C5F447269766579
:102C0000725C5372635C73746D3332663478785FD0
:102C100068616C5F7263632E63000000003C0240D9
:102C200008380240204203080000002001480068E4
:102C3000704700000000002004480549006809684A
:102C4000044AC1F38221515CC84070470000002053
:102C50000838024030420308044805490068096802
:102C6000044AC1F34231515CC84070470000002063
:102C70000838024030420308154810B5006810F0CB
:102C80000C01144813D0144B04290FD008290ED17D
:102C90000F4C241F216801F03F022168490207D52B
:102CA0002068C0F38810A0FB030106E0184610BDA1
:102CB0002168C1F38811A1FB00010023FDF7FEFA92
:102CC0002168C1F30141491C4900B0FBF1F010BD7E
:102CD000083802400024F40040787D012DE9F04FCF
:102CE00087B015460C46060006D0012E04D040F2EF
:102CF000013140A002F0DEFC85B1B5F1806F0DD04E
:102D0000B5F1A06F0AD0B5F1C06F07D0B5F1E06F93
:102D100004D040F2023137A002F0CCFCDFF810B151
:102D2000DFF80C8100274FF002094FF0030AABF1E6
:102D3000280B86B36CB1B4F1804F0AD0B4F1004FC8
:102D400007D0B4F1404F04D040F21E3129A002F068
:102D5000B1FCD8F8000040F00400C8F80000D8F832
:102D60000000694600F0040005904FF400700090E8
:102D7000CDE90197CDE903A72E48FFF713FBDBF858
:102D80000010584621F0784144EAC5021143016021
:102D900007B0BDE8F08FFFE76CB1B4F5001F0AD0B3
:102DA000B4F5800F07D0B4F5C00F04D040F206315F
:102DB00010A002F07FFCD8F8000040F00100C8F835
:102DC0000000D8F80000694600F0010005904FF4BB
:102DD00080700090CDE90197CDE903A71648FFF771
:102DE000E1FADBF80010584621F0EC612C43214356
:102DF000CDE700002E2E5C4C6962726172696573CA
:102E00005C53544D3332463478785F48414C5F44CC
:102E100072697665725C5372635C73746D3332668B
:102E20003478785F68616C5F7263632E63000000C2
:102E30003038024000080240000002402DE9F84FFF
:102E400004007CD020680F2803D9F821ECA002F000
:102E500031FC2078F94DC00755D060684FF48036BA
:102E60004FF4A02738B1B04205D0B84203D0FD21BD
:102E7000E3A002F01FFCF14808300168C1F38101B2
:102E8000012909D00068C0F3810002280BD1EB486A
:102E9000001D0068400206D52868800333D56068AD
:102EA0000028CED02FE06068B04203D1286840F4FB
:102EB00080300CE0B842286803D140F480202860BC
:102EC000F4E720F480302860286820F4802028600F
:102ED000606860B1FFF738FC064604E0FFF734FC99
:102EE000801B64287ED828688003F7D50BE0FFF7A5
:102EF0002BFC064604E0FFF727FC801B6428F1D872
:102F000028688003F7D42078DFF8349380074FF0E7
:102F1000000A50D5E06830B1012804D040F22F11EA
:102F2000B7A002F0C7FB20691F2804D94FF498719D
:102F3000B3A002F0BFFBC1480830016800E091E097
:102F400011F00C0F09D00068C0F3810002280BD1EA
:102F5000BA48001D0068400206D42868800714D5CE
:102F6000E06801287ED110E0E068B0B10120C9F826
:102F70000000FFF7E9FB064604E0FFF7E5FB801BD6
:102F80000228AFD828688007F7D52868216920F083
:102F9000F80040EAC10028600DE0C9F800A0FFF782
:102FA000D3FB064604E0FFF7CFFB801B022899D82D
:102FB00028688007F7D4207800072BD59F4FA14EB3
:102FC00060697437C0B1012806D04FF4B8718CA085
:102FD00002F070FB606978B101203060FFF7B4FB4C
:102FE000064605E042E1FFF7AFFB801B022886D8CA
:102FF00038688007F7D50DE0C6F800A0FFF7A4FBFE
:10300000064604E0FFF7A0FB801B0228B9D8386809
:103010008007F7D42078400776D5A0684FF00008E5
:1030200040B1012806D0052804D04FF4CE7174A019
:1030300002F040FBDFF804B20BF1400BDBF80000BC
:10304000C0000CD4DBF8001041F08051CBF8001028
:10305000DBF800004FF0010800F0805000907A4F3C
:10306000386800E0CBE0C0050FD4386840F48070C9
:103070003860FFF769FB064604E0FFF765FB801B3D
:10308000022894D83868C005F7D56C4FA06870370F
:1030900001280FD00528386810D020F001003860D2
:1030A000386820F004003860A068B0B1FFF74CFB2E
:1030B00006460EE0386840F00100F4E740F00400F6
:1030C0003860F7E7FFF740FB811B41F2883081420F
:1030D0008DD838688007F5D50DE0FFF735FB06463B
:1030E00006E0FFF731FB811B41F2883081428DD829
:1030F00038688007F5D4B8F1000F05D0DBF8001070
:1031000021F08051CBF80010A069002876D001286A
:1031100009D0022807D040F2DF1139A002F0CAFA24
:10312000A0690028F2D0454808300068C0F381004B
:10313000022864D0A069022805D0C9F860A0FFF772
:1031400003FB044695E0E06938B1B0F5800F04D088
:103150004FF4F4712AA002F0ADFA206A3F2804D996
:1031600040F2E91126A002F0A5FA606A3238B0F503
:10317000BF7F04D94FF4F57121A002F09BFAA06A39
:1031800002280AD0042808D0062806D0082804D02F
:1031900040F2EB111AA002F08DFAE06A801E0D28B1
:1031A00004D94FF4F67116A002F084FA4F46C9F81C
:1031B00060A0FFF7C9FA064604E0FFF7C5FA801BD6
:1031C000022853D828688001F7D4D4E907010843BE
:1031D000A16A1E4A490802EB0141626A41EA821172
:1031E000084394F82C1040EA01611448001D016066
:1031F00001203866FFF7A8FA04462EE03CE03DE0E7
:103200002E2E5C4C69627261726965735C53544D19
:103210003332463478785F48414C5F447269766552
:10322000725C5372635C73746D3332663478785FAA
:1032300068616C5F7263632E6300000000380240B7
:1032400000004742800E4742007000400000FFFF30
:10325000FFF77AFA001B022808D828688001F7D502
:103260000AE0FFF771FA001B022802D90320BDE82B
:10327000F88F28688001F4D40020F8E70120F6E7F1
:103280002DE9F047044600790026894601280BD035
:10329000012727716079B046012807D0012684F8FC
:1032A00004803046BDE8F0870220FBE70220607111
:1032B000FFF74AFA05460AE0FFF746FA401B0228E4
:1032C00005D90420607184F804800320EAE72068AF
:1032D0004068C043C007EFD120688068A060C9F88B
:1032E00000006771DBE710B5040002D0607910B10F
:1032F00006E0012010BD00202071204600F00BF8F0
:10330000022060712068016841F004010160012021
:103310006071002010BD704710B5006807498842F1
:103320000BD1074C07A0A11C228809F02DFD218894
:10333000BDE8104005A001F039BF10BD00300140CC
:10334000A87E00207370693A000000006C656E3A38
:1033500025640D0A0000000010B50446806C08B119
:10336000FDF73EFEE06C08B1FDF73AFE20684168CB
:1033700021F003014160012084F85100002010BDBC
:103380007047000038B504460068426881684B0603
:1033900005D4CB0703D0530601D5216C04E08B077D
:1033A00007D5130605D5616C01B02046BDE8304055
:1033B000084711F4B07F48D0930646D54B060AD58E
:1033C00094F85130032B3DD0636D43F004036365E3
:1033D000C368836800938B0609D5636D43F00103CE
:1033E000636583680093036823F040030360C805A6
:1033F00006D5606D40F00800606520688068009028
:10340000606D002821D02068416821F0E001416012
:10341000012084F85100900718D02068416821F0FD
:10342000030141600B4DE06C18B10565E06CFDF7E0
:103430001EFEA06C002808D00565A06CBDE83840D1
:10344000FDF715BEC1688068009038BD2046FFF7C3
:1034500097FF38BD0147020870B5040070D06E496F
:103460002068884213D06D49884210D06C49884248
:103470000DD06C4988420AD06B49884207D06B490D
:10348000884204D04FF4877169A002F013F9606894
:1034900038B1B0F5827F04D040F20F1164A002F081
:1034A00009F9A06850B1B0F5806F07D0B0F5004FB2
:1034B00004D04FF488715EA002F0FCF8E068B0F52B
:1034C000006F05D020B140F2111159A002F0F2F8BE
:1034D000A069B0F5007F08D038B1B0F5802F04D0D6
:1034E0004FF4897152A002F0E5F8E06990B1082824
:1034F00010D010280ED018280CD020280AD0282848
:1035000008D0302806D0382804D040F2131148A043
:1035100002F0D0F8206A30B1802804D04FF48A71CC
:1035200043A002F0C7F8606A60B110281CD040F2D6
:1035300015113FA002F0BEF8606A18B114E0FFE771
:10354000012070BD206930B1022804D04FF48C7185
:1035500037A002F0AFF8606930B1012804D040F222
:10356000191133A002F0A6F8A06A4FF40055A0B1DB
:10357000A84207D04FF48E712DA002F09BF8A06AEC
:10358000A8420AD1E06A4FF6FE71401E884204D973
:1035900040F21F1126A002F08DF894F85100002689
:1035A00020B984F85060204600F060F8022084F8CA
:1035B00051002068016821F040010160D4E9010157
:1035C0000843D4E903121143084361690843218B7E
:1035D00001F400710843E1690843216A0843A16AC4
:1035E000084321680860A069042101EA1040616A6B
:1035F000084321684860A06AA84202D12168E06AB5
:1036000008612068C16921F40061C161666501201B
:1036100084F85100002070BD0030014000380040A7
:10362000003C004000340140005001400054014083
:103630002E2E5C4C69627261726965735C53544DE5
:103640003332463478785F48414C5F44726976651E
:10365000725C5372635C73746D3332663478785F76
:1036600068616C5F7370692E630000002DE9F04F94
:1036700087B0044614216846FCF778FE8B498A4BD4
:103680002068002502270522DFF824B20E154FF02E
:1036900003084FF0400A984259D184481430036817
:1036A00043F480530360006800F48050059008687C
:1036B00040F001000860086800F00100059008680B
:1036C00040F002000860086802AB00F002000590BC
:1036D0007020CDE90007914683E8200369465846EB
:1036E000FEF760FE2020CDE9000702AB694683E8C3
:1036F00020037048FEF756FE704F6F484FF0C068C9
:103700003860C7E90185C7E903567D61BD61FD6188
:103710003D6238467D62FDF78DFDE764BC6360372E
:103720006548C7E903567D61BD61FD613D62483072
:103730007D6287E801053846FDF77CFDA76400221D
:1037400006212320BC63FFF7ADF823205CE0574B34
:10375000DFF86CC1103360455BD1186840F48040DD
:103760001860186800F480400590086840F0020076
:103770000860086800F002000590086840F0080042
:10378000086008680DF1080B00F0080005904FF480
:103790004240CDE9000791468BE820036946454841
:1037A000FEF700FE0820CDE900078BE820036946FC
:1037B0004448FEF7F7FD414F4348C037C7E90005CD
:1037C000BD60C7E903567D61BD61FD613D6238465C
:1037D0007D62FDF72FFDE7643B48BC63603718301E
:1037E00087E82104C7E903567D61BD61FD613D6243
:1037F00038467D62FDF71EFDA764002206212420C5
:10380000BC63FFF74FF82420FFF71AF807B0BDE8B4
:10381000F08F2E4A9042F9D1186840F400401860A9
:10382000186800F400400590086840F00100086046
:10383000086800F001000590086840F00400086086
:1038400008684FF0060900F004000590D013CDE998
:10385000000702AA694682E820035846FEF7A2FD47
:103860004FF4E050CDE9000702AA694682E8200340
:103870001748FEF797FD1448164F1838C7E900059A
:10388000BD60C7E903567D61BD61FD613D6238469B
:103890007D62FDF7CFFCE764002206213320BC6384
:1038A000FFF700F83320AFE7003001403038024026
:1038B000000002400004024010640240C87C002066
:1038C00000380040000C024058600240003C0040BC
:1038D00000080240487E00202DE9F0410446002502
:1038E0008068042318B96668B6F5827F0DD094F815
:1038F0005060012E12D0012684F8506094F8517067
:103900000026012F0DD0022555E084F851302046C5
:10391000BDE8F04113460A4600F05AB80220BDE85F
:10392000F08171B16AB184F851306665A163A287F4
:10393000E28726646664A686E686B0F5004F02D06C
:1039400006E0012537E02068016821F4804101602C
:10395000A06AB0F5005F0AD1206801684DF6FF72D9
:10396000114001602068016841F400510160E16C80
:1039700013480864E16C1348C863E16C1248C864DA
:10398000E06C0665E38F2168A26B0C31E06CFDF7FB
:10399000C1FD20680168490603D4016841F0400177
:1039A00001602068416841F0200141602068416861
:1039B00041F00101416084F850602846AFE7000003
:1039C000334702084747020811470208704770470B
:1039D0002DE9F047044680681D4690468946002739
:1039E00020B140F2DD5146A001F064FE94F8500091
:1039F00001280CD0012084F8500094F851000026D2
:103A0000616801280CD0B1F5827F07D102E0022065
:103A1000BDE8F087A16809B9042801D0022766E053
:103A2000B9F1000F08D0B8F1000F05D025B194F816
:103A30005100012802D004E0012758E0052084F855
:103A400051006665C4F83090A586E586C4F83880D4
:103A5000A587E58726646664A06AB0F5005F0AD191
:103A6000206801684DF6FF7211400160206801680E
:103A700041F40051016094F8510004283BD0E16CFE
:103A80002E4808642E48E16CC863E16C2D48C86478
:103A9000E06C0665E38F2168A26B0C31E06CFDF7EA
:103AA00039FD2068416841F001014160A06C066465
:103AB000A06CC663A06CC664A06C0665E38E226829
:103AC000216B0C32A06CFDF725FD206801684906CA
:103AD00003D4016841F0400101602068416841F071
:103AE000200141602068416841F00201416084F892
:103AF000506038468CE7E16C134808641348C2E70D
:103B00002E2E5C4C69627261726965735C53544D10
:103B10003332463478785F48414C5F447269766549
:103B2000725C5372635C73746D3332663478785FA1
:103B300068616C5F7370692E630000003D47020886
:103B4000E7470208114702083347020847470208BF
:103B50007047704710B5401EB0F1807F01D301203F
:103B600010BD4FF0E02460610F21601700F04EFDA2
:103B70000020A06107202061002010BD10B5044680
:103B80000068416994F83920C1F3C011212A0BD192
:103B900051B1416921F080014161206B08B1FDF70D
:103BA0001FFA204600F0F0FF2068416994F83A209F
:103BB000C1F38011222A0BD151B1416921F040019A
:103BC0004161606B08B1FDF70BFA204600F0CEFFB3
:103BD000002010BD7047000070B5026804461068F0
:103BE000D168536910F00F0F50D003F0010501F4B4
:103BF000907635435DD0C20705D0CA0503D5E26B88
:103C000042F00102E263420705D5DA0703D0E26B16
:103C100042F00202E263820705D5DA0703D0E26BC5
:103C200042F00402E263020705D5DA0703D0E26B33
:103C300042F00802E263E26B002A33D0800604D52A
:103C4000880602D5204600F0A8FF20684069E16B95
:103C5000C0F38010090700D428B3204600F086FF87
:103C60002068416949061AD5416921F04001416146
:103C7000606BA0B11B490165606BFDF7F8F9002886
:103C800010D0606B016DBDE870400847830610D509
:103C90008B060ED52046BDE8704000F07EBF204662
:103CA000FFF798FF70BD2046FFF794FF0020E06308
:103CB00070BD030606D50B0604D52046BDE870404E
:103CC00001F054B94006F3D54806F1D5D168204635
:103CD00021F04001D160202184F8391000F0AFFAC2
:103CE00070BD0000CD4A020870B5040022D0A06962
:103CF0003D4900283D4A3E4B3E4E20681CD08D1564
:103D000088420BD0904209D0984207D0B04205D0EB
:103D1000294639A001F0CEFCA06930B3A069A842C1
:103D200023D0B0F5007F20D0B0F5407F1DD040F209
:103D3000011117E0012070BD884216D0904214D0C6
:103D4000984212D03B4988420FD03B4988420CD060
:103D5000B0420AD03949884207D03949884204D054
:103D600040F2051124A001F0A5FCA06838B1B0F51F
:103D7000805F04D040F207111FA001F09BFCE069B6
:103D800038B1B0F5004F04D04FF484711AA001F09F
:103D900091FC94F83900002520B984F83850204669
:103DA00000F050F8242084F839002068C16821F41C
:103DB0000051C160204600F037FF2068016921F4FE
:103DC000904101612068416921F02A014161206828
:103DD000C16841F40051C160E563202084F83900D6
:103DE00084F83A00002070BD0010014000440040FB
:103DF00000480040001401402E2E5C4C6962726144
:103E0000726965735C53544D3332463478785F4839
:103E1000414C5F4472697665725C5372635C737483
:103E20006D3332663478785F68616C5F7561727487
:103E30002E630000004C004000500040007800401D
:103E4000007C00402DE9F04F87B0044614216846FD
:103E5000FCF78CFA9949DFF860C214392068002514
:103E6000DFF858B20222032307270E154FF000692E
:103E70004FF0400A604544D1DBF800C04CF0100C14
:103E8000CBF800C0DBF8000000F0100005900868D7
:103E900040F0010008600868694600F001000590E4
:103EA00058028DE82500CDE903378548FEF77AFAF8
:103EB000854F84483860C7E90195C7E903567D619D
:103EC000BD61FD613D6238467D62FDF7B3F9676310
:103ED000BC6360377B48C7E903567D61BD61FD6106
:103EE0003D6278307D6287E801063846FDF7A2F929
:103EF0002763002206212520BC63FEF7D3FC252082
:103F00004EE0DFF8C881DFF8B4C1DFF8C4E1ACF1FE
:103F1000040C404549D1DCF8000040F40030CCF8F6
:103F20000000DCF8000000F400300590086840F064
:103F3000080008600868694600F0080005906020E5
:103F40008DE82500CDE903377046FEF72BFA5E4F6A
:103F50006048C0373860C7E90195C7E903567D61FD
:103F6000BD61FD613D6238467D62FDF763F96763BF
:103F7000BC6360375748C7E903567D61BD61FD6189
:103F80003D6218307D6287E801063846FDF752F938
:103F90002763012206212620BC63FEF783FC26202E
:103FA000FEF74EFC07B0BDE8F08FDFF82C814045EE
:103FB00035D1DCF8000040F48020CCF80000DCF8BB
:103FC000000000F480200590086840F008000860B8
:103FD0000868694600F0080005904FF440708DE8CD
:103FE0002500CDE903377046FEF7DCF939483B4F31
:103FF00060383860C7E90195C7E903567D61BD6146
:10400000FD613D6238467D62FDF714F96763012268
:1040100006212720BC63FEF745FC2720C0E7304F70
:10402000B842BFD1DBF8007047F02007CBF8007032
:10403000DBF8000000F020000590086840F0040064
:1040400008600868694600F004000590C0208DE80B
:1040500025000820CDE903302248FEF7A3F91F4FC1
:1040600018486037183838604FF02068C7E9018574
:10407000C7E903567D61BD61FD613D6238467D62E1
:10408000FDF7D8F86763BC6360370E48C7E903568D
:104090007D61BD61FD613D6260307D6287E8010543
:1040A0003846FDF7C7F82763012206214720BC6385
:1040B000FEF7F8FB472073E7001001404438024048
:1040C000000002404064024020790020004400408B
:1040D000000C02408860024000480040A07A0020A6
:1040E000001401400008024037B5044690F83A0039
:1040F00082B0134620283AD1039AAAB3A3B394F806
:104100003800012833D0012084F83800A262A3854A
:104110000025E563222084F83A00616B1548C863E6
:10412000616B15480864616B1448C864606B056571
:104130002168606B091DFDF7EDF920680168416891
:10414000009184F83850C16841F48071C1602068E2
:10415000416941F0010141612068416941F040013C
:104160004161002005B030BDFFE70120FAE70220E1
:10417000F8E70000274B0208634B0208DD4A0208FB
:10418000704770472DE9F843044690F839001E4601
:1041900017460D46202850D1A5B19FB194F838009C
:1041A00001284AD0012084F838004FF00008C4F8F4
:1041B0003C80212084F83900FEF7C6FAA7848146A6
:1041C000E78426E00120BDE8F883E08C401EE0840F
:1041D000A0684B46B0F5805F4FF000024FF08001C1
:1041E0002046009603D000F0F2FEE8B90DE000F0A2
:1041F000EEFEC8B928882168C0F30800486020692D
:1042000008B16D1C05E0AD1C03E0216815F8010B39
:104210004860E08C0028D8D14B460022402120463F
:10422000009600F0D4FE08B10320CCE7202084F8EB
:10423000390084F838800020C5E70220C3E77047C2
:1042400010B50068104988421DD1104C2146A38842
:104250004A8801F583703BB11844A11DFCF75FF853
:10426000A0886188084403E0A11DFCF758F8608825
:10427000A0806188A01DFCF779F801202070BDE8BE
:10428000104000F047BB10BD001001400E69002037
:1042900010B500680E49884219D10E4C2146A388FA
:1042A0004A8801F583703BB11844A11DFCF737F82B
:1042B000A0886188084403E0A11DFCF730F86088FD
:1042C000A0806188A01DFCF751F80120207010BD6E
:1042D000004400400864002070B500681549884219
:1042E00026D1154C2146A0884A8801F5837538B13E
:1042F0002844A11DFCF713F8A0886188084404E055
:10430000A11D2846FCF70BF86088A0806188A01DDD
:10431000FCF72CF801202070A28864232946074866
:10432000FFF730FF6188A01DBDE87040FCF71EB8A4
:1043300070BD000000480040146E0020207800206E
:1043400010B500680E49884219D10E4C2146A38849
:104350004A8801F583703BB11844A11DFBF7DFFFCC
:10436000A0886188084403E0A11DFBF7D8FF60889E
:10437000A0806188A01DFBF7F9FF0120207010BD0F
:10438000001401401A730020F0B5264887B0016878
:1043900041F080010160016801F080010591016830
:1043A00041F080010160016801F080010591016820
:1043B00041F080010160016801F080010591016810
:1043C00041F00801016000684FF4806500F00800CA
:1043D00005900120CDE9005002900320124F039078
:1043E00069463846FDF7DEFF6C00694638460094A2
:1043F000FDF7D8FF6600694638460096FDF7D2FF04
:104400000A4F694638460094FDF7CCFF064818303D
:10441000056004600660002221463846FEF75EF91A
:1044200007B0F0BD30380240001C0240000C0240D2
:10443000414808B5016841F480010160016801F458
:1044400080010091016841F40011016000680022C0
:1044500000F40010009006210B20FEF723FA0B2039
:10446000FEF7EEF9002206210C20FEF71BFA0C20C5
:10447000FEF7E6F9002206210D20FEF713FA0D20C3
:10448000FEF7DEF9002206210E20FEF70BFA0E20C1
:10449000FEF7D6F9002206210F20FEF703FA0F20BF
:1044A000FEF7CEF9002206211020FEF7FBF91020BE
:1044B000FEF7C6F9002206211120FEF7F3F91120BC
:1044C000FEF7BEF9002206212F20FEF7EBF92F2080
:1044D000FEF7B6F9002206213820FEF7E3F938206E
:1044E000FEF7AEF9002206213920FEF7DBF939206C
:1044F000FEF7A6F9002206213A20FEF7D3F93A206A
:10450000FEF79EF9002206213B20FEF7CBF93B2067
:10451000FEF796F9002206214520FEF7C3F9452053
:10452000FEF78EF9002206214620FEF7BBF9BDE812
:1045300008404620FEF784B930380240094808494F
:104540000160002141608160C16001614161816160
:104550000162416281620A21C162FEF77DBF0000F3
:1045600000300140C07B00200848074901604FF43B
:10457000E1314160002181600C22C160C0E9041278
:104580008161C161FFF7B0BB0010014020780020BD
:104590000848074901604FF4E13141600021816022
:1045A0000C22C160C0E904128161C161FFF79CBBAC
:1045B00000440040607800200848074901604FF43B
:1045C000E1314160002181600C22C160C0E9041228
:1045D0008161C161FFF788BB00480040A0780020DE
:1045E0000848074901604FF4E131416000218160D2
:1045F0000C22C160C0E904128161C161FFF774BB84
:1046000000140140E0780020FEE770470907090E1A
:10461000002806DA00F00F0000F1E02080F8141DF9
:10462000704700F1E02080F800147047027809B16B
:10463000401C0860104670470378002242EA03627B
:10464000437842EA0342837842EA0323C2781A435A
:1046500009B1001D086010467047000070B5154D87
:104660002868816814A000F0A1FD28688168154CB5
:10467000C943C90713D14FF6FE7181602846FEF782
:104680006BFE28688168C06805F584700068406822
:10469000A0F2AA50404220802846FEF73DFE054881
:1046A000FEF770FEA11CBDE8704040F2AA5201481E
:1046B000FFF712B9C07B0020737069202530327873
:1046C000200A2000A87E00200148FEF75BBE000003
:1046D000187C00200148FEF755BE0000707C0020C9
:1046E00038B50B46009204460022802100F0C7F83E
:1046F000002804D0606D40F020006065032038BDC4
:1047000010B5806B0021C187C186FEF739FE10BD50
:1047100010B5806B01684A6822F003024A60416D5F
:1047200041F010014165012180F85110FEF728FE8B
:1047300010BD10B5806BFFF74AF910BD10B5806B46
:10474000FFF707FA10BDF8B50025846B0646ADF8F3
:104750000050FDF7F9FF31680968C9053FD4A16A27
:10476000B1F5005F11D1012200906423114620466B
:1047700000F085F818B1606D40F0020060652068B7
:10478000C068ADF80000BDF800002068416821F065
:10479000030141606068B0F5827F0BD1A068B0F57D
:1047A000004F02D0B0F5806F04D12068016821F07D
:1047B00040010160E587012084F85100206881688C
:1047C000C90606D5616D41F0020161654FF6EF71D2
:1047D0008160606D18B12046FEF7D2FDF8BD20461D
:1047E000FFF7F4F8F8BDF8B50026846B0746ADF87E
:1047F0000060FDF7A9FF054638680068C0053AD497
:10480000A06AB0F5005F11D1012264231146204651
:10481000009500F034F818B1606D40F0020060655A
:104820002068C068ADF80000BDF900002A46642188
:104830002046FFF755FF18B1606D40F0200060651D
:104840002068416821F003014160E686E687012087
:1048500084F8510020688168C90606D5616D41F071
:10486000020161654FF6EF718160606D18B12046FD
:10487000FEF786FDF8BD2046FFF76AF9F8BD2DE981
:10488000F0411D4617460E460446DDF8188035E017
:10489000681C33D02DB1FDF757FFA0EB0800A842EC
:1048A0002CD32068416821F0E00141606068B0F5D8
:1048B000827F0BD1A068B0F5004F02D0B0F5806FB9
:1048C00004D12068016821F040010160A06AB0F5C0
:1048D000005F0AD1206801684DF6FF721140016047
:1048E0002068016841F400510160012084F8510002
:1048F000002084F850000320BDE8F0812068806823
:1049000036EA000004D00020B842C1D10020F3E70D
:104910000120F9E710B50F4C002004F10801A06058
:1049200020680FF03DF9012807D00BA000F03EFCF5
:10493000BDE810400BA000F039BCA068002807D0EB
:104940000F494FF080500860BFF34F8FBFF36F8F58
:1049500010BD0000340000200D0A5B4552525D205E
:104960003E3E20002073656E642073656D20686193
:104970006E646C657220657272200D0A2000000062
:1049800004ED00E010B55020EFF3118480F311889E
:10499000BFF34F8FBFF36F8FFDF7DCFE0FF0D8F939
:1049A000012801D00EF012FE84F3118810BD000022
:1049B00070B592B030216846FBF7D8FC14210CA8E2
:1049C000FBF7D4FC1C480025016841F080510160D0
:1049D000006800F0805011901848016841F440418F
:1049E00001600068022400F4404011900120009012
:1049F00000040694860101901920CDE907604FF468
:104A0000A870CDE9090407200B906846FEF716FA56
:104A10000CA90F2081E831004FF4A0500F90E00264
:104A2000109005210CA8FDF7CFFF0022314610465B
:104A3000FEF754F912B070BD4038024000700040DB
:104A40001048016841F4700101600F48016841F0AD
:104A5000010101600C4A00210832116002680B4B11
:104A60001A400260031D0A4A1A60026822F480227A
:104A7000026005480C300160024958068039086020
:104A80007047000088ED00E000380240FFFFF6FEAE
:104A9000103000244FF47A7420460EF055FA03A02B
:104AA00000F084FB32200EF04FFAF5E77465737462
:104AB0002075617274206C6F67200D0A0000000081
:104AC00040F6B83420460EF03FFAFBE710B5806B95
:104AD0000021C185C184FFF77DF810BD70B5846BDE
:104AE0002068406994F83910C0F3C01000252129CE
:104AF00004D118B1E584204600F046F820684069EA
:104B000094F83A10C0F38010222904D118B1E58539
:104B1000204600F02BF8E06B40F01000E0632046E8
:104B2000FFF758F870BD10B50146806B0968096839
:104B3000C90513D40021C1850168CA6822F48072B6
:104B4000CA6001684A6922F001024A6101684A6943
:104B500022F040024A61202180F83A10FFF710FB52
:104B600010BD10B5806BFFF70CFB10BD0168CA6863
:104B700022F49072CA6001684A6922F001024A6117
:104B8000202180F83A1070470168CA6822F0C002FC
:104B9000CA60202180F83910704710B590F83A109B
:104BA000222901D0022010BD8168B1F5805F11D0AB
:104BB0000169002901681FD0496801F07F03816AFB
:104BC0004A1C82620B70C18D491E0904090CC18503
:104BD00018D026E00269816A002A0268526805D06E
:104BE000D2B20A80816A491C8162ECE7C2F30802F2
:104BF0000A80816A891CF7E74A68816A4B1C8362D4
:104C00000A70E0E70168CA6822F49072CA6001681D
:104C10004A6922F001024A61202180F83A10FFF728
:104C2000AFFA002010BD00002DE9F04104464068B5
:104C3000BC49884204D340F68511BBA000F03AFD80
:104C4000E06838B1B0F5005F04D040F68611B6A038
:104C500000F030FD206950B1B0F5806F07D0B0F59D
:104C6000C06F04D040F68711AFA000F023FD60694B
:104C70004FF6F371084200D120B940F68811AAA07E
:104C800000F018FD2068016921F44052E1681143E9
:104C900001612068C26849F20C618A432369A168F6
:104CA000E569194363692B4319431143C1602068C7
:104CB0004169A26921F440710A434261E0696425B7
:104CC000B0F5004FA74AA84920684FF032083FD0FE
:104CD000884201D090427CD1FDF7BEFF00EBC001BD
:104CE00001EB001061688900B0FBF1F6FDF7B4FF3D
:104CF00000EBC00101EB001061688900B0FBF1F02E
:104D0000B0FBF5F06FF01801484306EB800108EBAB
:104D10000110B0FBF5F000F0F006FDF79DFF00EB91
:104D2000C00101EB001061688900B0FBF1F0B0FB3D
:104D3000F5F006EB0016FDF78FFF00EBC00101EB6D
:104D4000001061688900B0FBF1F7FDF785FFD2E044
:104D5000884201D090423DD1FDF77EFF00EBC001BB
:104D600001EB001061684900B0FBF1F0B0FBF5F019
:104D70000601FDF771FF00EBC00101EB0010616857
:104D80004900B0FBF1F7FDF767FF00EBC00101EB55
:104D9000001061684900B0FBF1F0B0FBF5F06FF076
:104DA0001801484307EB800108EBC100B0FBF5F0A8
:104DB00000F0F80006EB4006FDF74EFF00EBC001E7
:104DC00001EB001061684900B0FBF1F7FDF744FF0B
:104DD0003CE055E0FDF730FF00EBC00101EB0010B7
:104DE00061684900B0FBF1F0B0FBF5F00601FDF79A
:104DF00023FF00EBC00101EB001061684900B0FB2C
:104E0000F1F7FDF719FF00EBC00101EB001061683D
:104E10004900B0FBF1F0B0FBF5F06FF0180148432A
:104E200007EB800108EBC100B0FBF5F000F0F800E3
:104E300006EB4006FDF700FF00EBC00101EB0010A0
:104E400061684900B0FBF1F7FDF7F6FE00EBC00129
:104E500001EB001061684900B0FBF1F0B0FBF5F028
:104E60006FF01801484307EB800108EBC100B0FB6D
:104E7000F5F000F00700216830448860BDE8F0815B
:104E8000FDF7DAFE00EBC00101EB0010616889005C
:104E9000B0FBF1F6FDF7D0FE00EBC00101EB001016
:104EA00061688900B0FBF1F0B0FBF5F06FF018011C
:104EB000484306EB800108EB0110B0FBF5F000F071
:104EC000F006FDF7B9FE00EBC00101EB00106168D0
:104ED0008900B0FBF1F0B0FBF5F006EB0016FDF732
:104EE000ABFE00EBC00101EB001061688900B0FB74
:104EF000F1F7FDF7A1FE00EBC00101EB00106168C6
:104F00008900B0FBF1F0B0FBF5F06FF018014843F9
:104F100007EB800108EB0110B0FBF5F000F00F008B
:104F2000A9E70000A137A0002E2E5C4C69627261D7
:104F3000726965735C53544D3332463478785F48F8
:104F4000414C5F4472697665725C5372635C737442
:104F50006D3332663478785F68616C5F7561727446
:104F60002E630000001401400010014090F8391039
:104F7000212901D0022070478168B1F5805F016A64
:104F80000BD04A1C0262026809785160C18C491E2C
:104F90000904090CC1840ED017E009880268C1F326
:104FA0000801516001690029016A02D0491C0162AF
:104FB000ECE7891CFBE70168CA6822F08002CA603E
:104FC0000068C16841F04001C160002070472DE9D0
:104FD000F0411E46174688460446069D1CE0681CA4
:104FE0001AD025B1FDF7B0FB801BA84214D9206868
:104FF000C16821F4D071C1602068416921F00101CC
:105000004161202084F8390084F83A00002084F8B7
:1050100038000320BDE8F0812068016838EA01000B
:1050200004D00020B842DAD00020F3E70120F9E7ED
:1050300038B5134D28680168A5F61274C943C9062E
:1050400012D40168406800902846FEF797FD286852
:105050000168406805F5807000684068C0F58070A0
:1050600060802846FFF7ECF80548FEF7B5FDA11D66
:10507000BDE838404FF480720148FFF735B80000B2
:105080002078002038B5124D28680168114CC943BA
:10509000C90612D40168406800902846FEF76EFDEC
:1050A00028680168406805F5C07000684068C0F570
:1050B000807060802846FFF7EBF80548FEF78CFD0E
:1050C000A11DBDE838404FF480720148FFF70CB8CD
:1050D000607800200864002038B5134D2868016806
:1050E000A5F68C24C943C90612D401684068009013
:1050F0002846FEF743FD28680168406804F68C40A6
:1051000000684068C0F5807060802846FFF7E4F8CA
:105110000548FEF761FDA11DBDE838404FF48072DF
:105120000148FEF7E1BF0000A078002038B5134D1C
:1051300028680168A5F2C654C943C90612D401689B
:10514000406800902846FEF719FD2868016840680D
:1051500004F2E67000684068C0F580706080284600
:10516000FFF7EEF80548FEF737FDA11DBDE8384012
:105170004FF480720148FEF7B7BF0000E0780020CE
:10518000FEE700F8012B002900D008607047130EDD
:1051900000F8013B130C00F8013B130A00F8023B36
:1051A000002900F8012C00D0086070470FB4054BAF
:1051B00010B503A9044A029800F02CF810BC5DF861
:1051C00014FB0000058102083C0200200FB4084BCC
:1051D00010B504A902AA039800F01CF8044602A91D
:1051E000002000F042FA204610BC5DF814FB0000DD
:1051F0006B56020802E008C8121F08C1002AFAD143
:1052000070477047002001E001C1121F002AFBD146
:10521000704700002DE9FF4F8DB00F460546002670
:1052200006E025280BD0DDE90F1290476D1C761C97
:1052300028780028F5D111B03046BDE8F08F002461
:10524000A246A1460122E94900E0044315F8013FC6
:10525000203B02FA03F00842F7D128782A2810D020
:105260006FF02F022878A0F13001092914D80AEB39
:105270008A0102EB410144F0020400EB010A6D1CBB
:10528000F0E701CF5FEA000A03D544F40054CAF105
:10529000000A44F002046D1C28782E2817D115F856
:1052A000010F44F004042A280ED06FF02F02287852
:1052B000A0F1300109290AD809EB890102EB41016B
:1052C00000EB01096D1CF2E757F8049B6D1C287870
:1052D0006C280FD006DC4C2817D068280DD06A281F
:1052E00014D104E0742810D07A280FD10DE044F4D2
:1052F00000140AE044F4801401E044F44014697896
:10530000814202D104F580146D1C6D1C28786E2832
:105310001ED00CDC632830D004DC00288BD0582849
:1053200011D19FE0642867D069280CD164E073280C
:105330002DD004DC6F2872D0702804D194E0752839
:105340006ED078286DD0DDE90F129047761C4BE1C6
:10535000C4F30250022806D0032809D0042801CF44
:1053600009D0066040E101CFF117C0E900613BE1DF
:1053700001CF068038E1067036E117F8040B8DF88E
:10538000000000208DF80100EB46012003E057F8F3
:1053900004BB4FF0FF3061074FF0000102D40DE075
:1053A00008F10101884649450FDA8045F8DB1BF812
:1053B00008100029F4D108E008F101018846814273
:1053C000FADB1BF808100029F6D1DDE90F23AAEB60
:1053D00008008146214600F031F9304400EB080610
:1053E00004E0DDE90F121BF8010B9047B8F101084A
:1053F000F7D221464846F2E00A21C4F302524FF0A8
:10540000000B0891022A04D001CFC117032A09D04A
:105410000AE0FF1D27F00707F7E8020108E02CE08B
:105420001EE01FE000B2C117042A01D140B2C1172B
:10543000021E71F1000206DA0023D0EB030063EBD9
:1054400001012D2202E0220504D52B228DF8242013
:10545000012203E0E20701D02022F7E7904653E063
:105460000A210BE0102109E010214FF0000B44F05D
:1054700004044FF00809089103E008214FF0000BE5
:105480000891C4F30252022A04D001CF0021032A5A
:1054900006D006E0FF1D27F00707F7E8020103E04A
:1054A00080B2042A00D1C0B24FF0000822072BD5E9
:1054B0002A78702A07D0DDF820C08CF0100C5CEA46
:1054C0000B0C05D00EE040228DF82420012208E0CC
:1054D00050EA010306D030238DF824308DF82520C2
:1054E00002229046089B83F0080353EA0B030BD17A
:1054F00050EA010201D1620706D530228DF824203E
:105500004FF00108A9F101092A78582A04D038A2DD
:105510000B9208AA0A920BE03AA2F9E75B46089AB6
:10552000FAF7CCFE0B9B9B5C0A9A521E0A921370F0
:1055300050EA0102F2D10A98ADEB000000F1200B15
:10554000600702D524F4803401E04FF00109D94509
:1055500002DDA9EB0B0000E0002000EB0B01414451
:105560000890AAEB010AE00306D4DDE90F232146E7
:10557000504600F063F806444FF0000908E009A91E
:1055800011F80900DDE90F12904709F10109761CB5
:10559000C145F4DBE0030CD5DDE90F23214650467D
:1055A00000F04CF8064404E0DDE90F12302090478B
:1055B000761C0899481E08900029F5DC08E00A9836
:1055C0000A990078491C0A91DDE90F129047761C70
:1055D000BBF10001ABF1010BF1DC21465046DDE9E6
:1055E0000F2300F019F806446D1C21E6092801007C
:1055F0003031323334353637383961626364656649
:10560000000000003031323334353637383941420A
:1056100043444546000000002DE9F04104460025C2
:105620001E461746880404D405E039462020B047BA
:105630006D1C641EF9D52846BDE8F0812DE9F041C6
:10564000044600251E469046C80301D5302700E0D9
:105650002027880404D505E041463846B0476D1C34
:10566000641EF9D52846BDE8F0810A68531C0B601A
:10567000107070471CB509490120CDE900014202B4
:10568000002307A10A480EF037FB012802D04FF093
:10569000FF301CBD0DF014FE1CBD00001C000020DE
:1056A0004170705461736B437265617465000000F2
:1056B000710402080C460546FAF78AFD00F070F9FD
:1056C0002246294601A0FFF771FDFEE7617373656D
:1056D0007274206661696C65642061742025733A78
:1056E0002564200A000000002DE9F0410D46064621
:1056F00000244FF47A770BE031193B46012206482B
:10570000FEF740FD10B10120BDE8F081641CA4B299
:10571000AC42F1D30020F7E7207800201CB51649F1
:105720000620CDE9000100234FF4007213A11648B2
:105730000EF0E2FA20B115A0FFF738FD17A003E044
:105740001CA0FFF733FD1EA0FFF730FD0322002150
:1057500001200DF093FF0849091F086020B10BA03C
:10576000FFF724FD1CA003E012A0FFF71FFD22A0FD
:10577000BDE81C40FFF71ABD38000020626C655F71
:105780005461736B000000001D5802080D0A5B494C
:105790004E464F5D203E3E20000000006372656172
:1057A000746520626C65207461736B206F6B210DD2
:1057B0000A0000000D0A5B4552525D203E3E20006B
:1057C00063726561746520626C65207461736B201F
:1057D000657272210D0A0000637265617465206252
:1057E0006C6520726563762073656D2068616E64F8
:1057F0006C65206F6B0D0A006372656174652062D1
:105800006C6520726563762073656D2068616E64D7
:105810006C65206572726F720D0A000008B5194F31
:10582000194E4FF0FF3800234246194638680DF0F4
:1058300065FF0128F7D130780028F4D013A0FFF7D6
:10584000B5FC1649B2880D4615A0FFF7AFFCB48829
:10585000694628460095FEF7E9FEA5280CD1601F91
:1058600081B2681C00F08AFA69460098FEF7DEFEF5
:10587000214628460BF061F940F206510248FAF73A
:1058800075FDD0E7340000200E6900200D0A5B4949
:105890004E464F5D203E3E2000000000146A00206E
:1058A000626C65207561727420726563763A257347
:1058B0002020626C652075617274207265637620A9
:1058C0006C656E67683A2564200D0A0038B502469B
:1058D00005230021042002F0F7FC6A46052104207C
:1058E00002F002FD0521042002F028FC0446BDF868
:1058F0000000A0420AD009A0FFF758FC2246BDF8DC
:10590000001009A0FFF752FC002038BD0522134902
:1059100013A007F039FA012038BD00000D0A5B45DD
:1059200052525D203E3E2000627573696E6573734E
:105930005F73747261746567795F627566665F63D1
:1059400072633A2530347820636865636B20637234
:10595000633A25303478200D0A00000071000020E1
:10596000627573696E6573732073747261746567B1
:10597000793A000010B50948FFF7A8FF00280CD1BC
:105980000648052101700021417003218170C1701A
:105990000171BDE8104007F015BA10BD710000207C
:1059A00070B50F4C0546207888B10EA0FFF7FEFBBE
:1059B0000DA0FFF7FBFB00F09DF9D4E902012A4698
:1059C00001F032FC2846BDE8704006F059BB074A9A
:1059D00007A109A0FFF7EAFB03A0FFF7E7FBFEE73B
:1059E00024020020000000000D0A000040440308CB
:1059F000696E69745F6F6B00282573292068617375
:105A000020617373657274206661696C65642061DE
:105A1000742025732E0000002DE9F043244C8946A4
:105A2000A446D4E9023794F801809CF8026001464C
:105A3000DCE9044C00200546A444B8F1000F11D065
:105A40008EB91C4EB069086076690120361FA642E7
:105A500011D3B4450FD3B9F1010F0CD902200125A0
:105A60004E6008E03EB19A4201D21A4603E0DE19C8
:105A7000964200D232461F44974216D91668331F09
:105A8000F60710D0A3420ED39C450CD310280AD29F
:105A9000484508D2022803D115B14E689E4202D073
:105AA00041F82030401C121DE6E7BDE8F0830000FD
:105AB00024020020705002202DE9F04F8DB00C46DA
:105AC000074620225D4905A8FAF729FC5C4ED6E975
:105AD00002508146307858B1707898B1574A59A130
:105AE000143A5BA0FFF762FB61A0FFF75FFBFEE7E4
:105AF000524A60A1143A56A0FFF758FB5CA0FFF78A
:105B000055FBFEE74FF0010A86F801A05BA0FFF706
:105B10004DFB57A0FFF74AFB00F0ECF8DFF81CB193
:105B2000ABF1BC0BDBF82800FFF740FB50A0FFF700
:105B30003DFB47F30010401C04F12008F07001D039
:105B400008F14808A84503D305EB0900404501D2F8
:105B500086F802A042464946284601F065FBB07827
:105B6000474D00283ED1DBF82C00FFF71FFB40A07B
:105B7000FFF71CFB26682E6060686860A168A9605A
:105B8000E268EA6023692B6163696B61A369AB61B9
:105B9000E369EB61DDE90734CDE90003CDE90214E7
:105BA0000492DDE90513324636A0FFF7FFFA30A074
:105BB000FFF7FCFA01AE0B98EB690C9AA96986E82D
:105BC0000F00686900900A9B2A692EA00999FFF7C7
:105BD000EDFA27A0FFF7EAFA35A0FFF7E7FA24A0CD
:105BE000FFF7E4FA4248006845F8200F4048001DDE
:105BF000007828713E4810300068A8603C48401D7D
:105C0000007828733A481430006828613848801DAD
:105C10000088A882364808300068A86134480C30F3
:105C20000088E861324818300088286202F04AF99A
:105C3000404606F025FA0DB0BDE8F08F6844030831
:105C400024020020216F6E5F6661756C7400000095
:105C5000282573292068617320617373657274202D
:105C60006661696C65642061742025732E000000F4
:105C70000D0A0000696E69745F6F6B000000000020
:105C800070500220202025733A20253038782020BB
:105C900025733A2025303878202025733A20253086
:105CA0003878202025733A2025303878000000000D
:105CB0003D3D3D3D3D3D3D3D3D3D3D3D3D3D3D3D14
:105CC0003D3D3D3D3D3D3D3D3D3D3D3D3D3D3D3D04
:105CD0003D3D3D3D3D3D3D3D3D3D3D3D3D3D3D3DF4
:105CE0003D3D3D3D3D3D3D3D3D3D3D3D3D3D00005E
:105CF00024ED00E010B50748074BA3F1200200682F
:105D0000A2F12001FFF752FABDE8104003A0FFF70F
:105D10004DBA0000AC430308C04F02200D0A00003A
:105D200070B50C461546014620220E48FAF729FBAD
:105D30000C48202221462030FAF723FB0948202274
:105D400029464030FAF71DFB08480749084A816098
:105D5000511AC1600749084A0161511A4161012184
:105D6000017070BD804F0220B85002202402002034
:105D7000B854022000000208B04E030830B50346B4
:105D80004FF6FF7001B901214AF20104491E89B2A0
:105D90000DD31A7850400022C5074FEA500000D0BA
:105DA0006040521CD2B2082AF6D35B1CEEE730BD2D
:105DB00070B50E4DEC685CB10A200DF0C5F82046B8
:105DC00004F0C1FD0A200DF0BFF8204604F00EFEDD
:105DD0000120687006A0FFF7E9F909A0FFF7E6F9CE
:105DE0006868BDE870400DF0F3B90000880000203D
:105DF0000D0A5B494E464F5D203E3E2000000000EC
:105E000074637020636F6E6E656374207461736B6E
:105E100020726573756D65200D0A000030B589B07C
:105E200005460020029004A9009001900391684665
:105E3000CDF81CD0AA2207A9FFF7A3F92A4607A983
:105E40000798FFF7A4F90A200DF07EF8002103203F
:105E500002F07CF9002833D00A236A46002103208F
:105E600002F0C6F9002829D00A2304AA0021032041
:105E700002F02AFA03A90398FEF7D8FB124C03A9F3
:105E800020700398FEF7D8FB606021780FA0FFF721
:105E90008DF919A06168FFF789F902F0A7F9606828
:105EA000A84207D00021032002F050F91EA0FFF7FE
:105EB0007DF905E002F09AF906F02EFE02F096F95F
:105EC00009B0002030BD0000240000206465766920
:105ED00063655F73746172745F6D73672E6465765A
:105EE0006963655F73746172745F747970653A2574
:105EF000303278200D0A00006465766963655F734F
:105F0000746172745F6D73672E6465766963655F33
:105F10007570646174655F6C656E74683A253038BD
:105F200078200D0A000000007570646174652064BB
:105F3000617461206C656E206572726F720D0A006B
:105F400058B1026A002A0BD05379082B08D109688E
:105F5000D269914204D100F0E9B902A0FFF726B955
:105F6000704700006E6574696620213D204E554CD7
:105F70004C0000002DE9FC4105001BD02C6ADCB16F
:105F80004FF0000EA4F812E0A06A4FF03C02411C52
:105F90004FF4803C4FF001074FF6FF7612D01E30D1
:105FA000B0FBF2F0604500D330460004000CA08244
:105FB00007D007E029A000E02FA0FFF7F7F8BDE821
:105FC000FC81A782E36A581C0CD01E33B3FBF2F1AC
:105FD000614500D331460804000C608100D167811F
:105FE0006089E081206B411C0CD01E30B0FBF2F2C6
:105FF000624500D332461004000CA08100D1A78175
:10600000A08920826189A089814202D308B1A4F8C5
:106010000AE0E07908B1206A08E0237F7F2B01D8ED
:10602000FF2003E0C02B03D36FF07F40009000E01F
:106030000096606A019028B9E0690099084040F034
:10604000807001900A21204600F0F6FF01AB6A46FD
:1060500004F11C01284605F099F9B0E76468637003
:106060005F62696E643A206E6574696620213D2026
:106070004E554C4C00000000646863705F62696EAE
:10608000643A206468637020213D204E554C4C00DA
:1060900070B5046A05460821204600F0CDFF0022B5
:1060A00004F11C01284601F033FCA079FF2801D23D
:1060B000401CA0714FF4FA7140F2E730B0FBF1F0F0
:1060C000208170BD70B5294804684CE0216AA1B3F5
:1060D000487990B3888A68B1488A401C80B2488267
:1060E0008A8A904206D1204600F016FE204600F033
:1060F000ABFF37E0088A18B1421E0A82012806D099
:10610000C889D0B1421ECA81012817D02AE0256A69
:1061100020466979012905D00A2903D0052901D033
:1061200004291FD100F07CFCA88A698A401A022841
:1061300018DB00EBD0704008288213E0256A204667
:106140006979012903D00A2901D005290AD100F073
:1061500041FEA889698A401A022803DB00EBD0704F
:106160004008E8812468002CB0D170BD8001002077
:106170002DE9F047994615460F46060017D0002F27
:1061800017D04FF49A744FF420722146362005F050
:106190006BFAB0F1000810D0B8F80A00A2465045DA
:1061A00002D22CA0FFF702F8032D0BD107E039A093
:1061B00000E040A0FEF7FAFF0020BDE8F087787904
:1061C000032807D1B979434811B94168491C416096
:1061D00040683860D8F8044051462046FAF7C6F8BF
:1061E00001202070607096F82C00A070386803F0D1
:1061F000E7F96060082D0AD0042D08D0072D06D0DD
:10620000032D06D17879052801D0042801D17068C2
:10621000E0600023F018E1185B1C90F826009BB2A8
:106220000877062BF6D32C48C4F8EC0004F1F001F3
:10623000012335220C46002000F0CAF92A462146E7
:1062400000F0DEF9B9F1000F01D0A9F800004046D6
:10625000B3E70000646863705F6372656174655FD3
:106260006D73673A20636865636B2074686174209E
:10627000666972737420706275662063616E20684F
:106280006F6C642073747275637420646863705FEC
:106290006D736700646863705F6372656174655FE6
:1062A0006D73673A206E6574696620213D204E55F6
:1062B0004C4C0000646863705F6372656174655F75
:1062C0006D73673A206468637020213D204E554C01
:1062D0004C000000E00100206382536310B5094CBC
:1062E000207810B908A0FEF761FF2078401E10F05A
:1062F000FF00207004D1A0680CF0E6F90020A06037
:1063000010BD0000E0010020646863705F7063628C
:106310005F726566636F756E7428293A20726566D0
:10632000636F756E74206572726F7200FEB5046AD9
:1063300006460C21204600F07FFE02AB04222146D7
:106340003046FFF715FF050028D069680423F031B7
:1063500032220F46BDF8080000F03AF9ADF8080007
:10636000E06903F02DF902463946BDF8080000F057
:1063700071F9ADF808002A46394600F0D3F90F4804
:106380004323CDE900600F480D4A294680680CF090
:10639000F1FA0646284605F01DFC01E04FF0FF36F5
:1063A000A079FF2801D2401CA07142F603104FF4DF
:1063B000FA71B0FBF1F020813046FEBD984303082E
:1063C0009C430308E00100202DE9FE4F056A0746C3
:1063D0004FF0000906212846C5F81C9000F02CFE5D
:1063E00002AB012229463846FFF7C2FE06003BD029
:1063F00071680223F0318A4639225446BDF80800FC
:1064000000F0E6F8ADF80800BA8C214600F05AF921
:10641000ADF8080003233722214600F0D9F8DFF851
:106420008480ADF808000024514618F80420BDF817
:10643000080000F0E5F8641CE4B2ADF80800032C95
:10644000F2D33246514680B200F06CF9164843232D
:10645000CDE900701348154A401E314680680CF0A3
:1064600089FA304605F0B6FBA879FF2801D2401C16
:10647000A871C1B2062902D20120884000E03C2068
:1064800000EB4001C1EBC0104FF6FF7101EAC00004
:106490004FF4FA7100F2F310B0FBF1F02881484696
:1064A000BDE8FE8FE1010020984303089C430308E8
:1064B00070B50B48002504680EE0216A59B10889BF
:1064C000012803D9A0F10100088104E003D10D8166
:1064D000204600F023FE2468002CEED170BD0000A1
:1064E0008001002070B5046A0022164E22626262AA
:1064F000F078154D08B1E868A062307908B12869D4
:1065000001E0A06A4008E062707908B1686903E0C0
:10651000A06AC0EBC000C00820630869E061B079E0
:1065200030B1A86903F04CF820620120E07100E06E
:10653000E271F079002803D0E86903F041F8606265
:1065400070BD0000EC0100201C4E022010B5134C61
:106550002078D0B9A06810B111A0FEF727FE0CF08A
:106560008FF8A060B0B1417A442241F0200141721D
:1065700015490BF085FD43221349A0680BF006FF77
:1065800000221249A0680CF08BF82078401C207083
:10659000002010BD4FF0FF3010BD0000E0010020D2
:1065A000646863705F696E635F7063625F72656683
:1065B000636F756E7428293A206D656D6F7279204E
:1065C0006C65616B0000000098430308F96B0208DA
:1065D0002DE9F0411D4604462844801C17460E460E
:1065E000442802D90548FEF7E1FD3755641CA0B2E6
:1065F0003554401C80B2BDE8F0810000A04503087E
:1066000070B515460E460446442802D303A0FEF793
:10661000CDFD3555641CA0B270BD00006468637088
:106620005F6F7074696F6E5F627974653A206F7026
:1066300074696F6E735F6F75745F6C656E203C205C
:10664000444843505F4F5054494F4E535F4C454E62
:106650000000000070B50646001D14460D46442893
:1066600002D909A0FEF7A2FD200EA855761CB0B2F3
:10667000210C2954401C80B2210A2954401C80B2AC
:106680002C54401C80B270BD646863705F6F70747E
:10669000696F6E5F6C6F6E673A206F7074696F6EB2
:1066A000735F6F75745F6C656E202B2034203C3DEA
:1066B00020444843505F4F5054494F4E535F4C4520
:1066C0004E00000070B50446801C15460E46442856
:1066D00002D905A0FEF76AFD280A3055641CA0B255
:1066E0003554401C80B270BD646863705F6F707415
:1066F000696F6E5F73686F72743A206F7074696F40
:106700006E735F6F75745F6C656E202B2032203C5A
:106710003D20444843505F4F5054494F4E535F4CC7
:10672000454E000030B4FF230B54401C83B20024BC
:1067300002E0CC545B1C9BB2442BFAD3F03330BC48
:1067400099B2104605F0D2BA2DE9F34F85B000207A
:106750008B4903900190C8600861059840892C28F6
:1067600070D305984FF0F0080089059F06E0A8EB6C
:106770000102401A3F681FFA82F880B2002F61D0F0
:10678000798942464145F2D916468246BDE0B01CA1
:106790001FFA80F94FF0FF34B145E1D37B89721CB9
:1067A000934203D90BEB0600407803E0386808B148
:1067B00040680078342905463AD007DC21B3012926
:1067C00025D0032929D0332908D12DE035293CD003
:1067D00036293ED03A2940D03B2942D0002581B30A
:1067E0003044801CB0F5803F2CD286B2002D7FD083
:1067F00000200090082C02D362A0FEF7D7FC60486E
:106800000C30005D88B373E000200546E7E70428FC
:1068100001D061A07DE00624E1E70425042801D22F
:1068200060A076E00724DAE70428F2D10324D6E753
:10683000012801D060A06CE0B8F1F00F03D061A096
:1068400067E013E06CE00024C9E70128F2D10124DD
:10685000C5E70428DDD10224C1E70428D9D10424E6
:10686000BDE70428D5D10524B9E701E096B23FE0A1
:10687000042D01D2284600E00420024602904B4637
:106880006946384605F04CF901460298814247D1E5
:10689000042D18D9A80701D050A03AE038490120AA
:1068A0000C310855009802F08BFE014651482D1F0F
:1068B000EDB240F8241009F1040080B248452FD30E
:1068C0008146641C96E7042D03D0012D05D04AA013
:1068D0001FE0009802F074FE01E09DF800000090B7
:1068E000274901200C3108554248009940F82410EE
:1068F0007889B04217D8311AAAEB00008EB21FFA7D
:1069000080FA56450CD23F6817B1D7F804B00BE0B7
:106910003EA0FEF74BFC6FF0050007B0BDE8F08F1E
:106920006FF00100F9E737B1564504D21BF80610A5
:10693000FF297FF42CAF12490C31087860B12D4843
:10694000002200680A70012808D0022802D003281B
:106950000AD001E001200190039840B1002003908B
:106960004FF06C08EC2000E701200190F6E7019859
:106970000028D2D0002001904FF02C086C20F4E6C3
:10698000E0010020636865636B206465636F646584
:106990005F696478000000006C656E203D3D203426
:1069A000000000006C656E203E3D206465636F64EE
:1069B000655F6C656E0000006C656E203D3D2031AA
:1069C000000000006F7665726C6F616420696E2054
:1069D00066696C652F736E616D6500006465636F39
:1069E00064655F6C656E2025252034203D3D203098
:1069F000000000001C4E0220696E76616C69642004
:106A00006465636F64655F6C656E00006E657874C5
:106A1000207062756620776173206E756C6C000063
:106A20002DE9FC47056A07460421284600F004FBCF
:106A300001AB032229463846FFF79AFB06003BD0FC
:106A400071680223F031894639224C46BDF80400B2
:106A5000FFF7BEFDADF80400BA8C2146FFF732FE09
:106A6000ADF80400032337222146FFF7B1FDDFF81C
:106A70008080ADF804000024494618F80420BDF8D1
:106A80000400FFF7BDFD641CE4B2ADF80400032C64
:106A9000F2D33246494680B2FFF744FE14480097CD
:106AA000401E4323134A314680680BF0FFFE044624
:106AB000304605F08FF801E04FF0FF34A879FF2849
:106AC00001D2401CA871C0B20A2804D24FF47A71D6
:106AD00010FB01F001E042F2107080B24FF4FA7145
:106AE00000F2F310B0FBF1F028812046BDE8FC87EE
:106AF000E10100209C4303082DE9FC47056A074695
:106B00000321284600F098FA01AB032229463846B3
:106B1000FFF72EFB06004ED071680223F031894644
:106B200039224C46BDF80400FFF752FDADF80400D1
:106B30004FF410722146FFF7C5FDADF804000423A1
:106B400032222146FFF744FDADF80400E86902F067
:106B500037FD02462146BDF80400FFF77BFDADF886
:106B60000400032337222146FFF732FDDFF880803F
:106B7000ADF804000024494618F80420BDF80400CC
:106B8000FFF73EFD641CE4B2ADF80400032CF2D321
:106B90003246494680B2FFF7C5FD15480097401EB2
:106BA0004323144A314680680BF080FE0446304689
:106BB00005F010F801E04FF0FF34A879FF2801D26A
:106BC000401CA871C0B20A2804D24FF47A7110FB9D
:106BD00001F001E042F2107080B24FF4FA7100F25D
:106BE000F310B0FBF1F028812046BDE8FC870000DF
:106BF000E10100209C4303082DE9F041424851681F
:106C000016464468256A002D79D02879002876D068
:106C100070892C2873D30878022870D1002094F84A
:106C20002C2008E023180F1893F826303F7FBB4232
:106C300065D1401CC0B2824201D90628F2D348680F
:106C400002F0BEFC2968884259D129463046FFF738
:106C50007BFD08BB2D494878F0B12D4A7768107943
:106C6000052804D0062821D0022836D047E06879CC
:106C7000012806D0032814D0042812D0052810D0EB
:106C80003DE039462046FFF72DFC94F82D00000723
:106C900003D52046FFF7FCF931E02046FFF76AF9FB
:106CA0002DE039462046FFF71DFCF6E768790328FA
:106CB00005D0012803D0042801D005281FD10C21BC
:106CC000206A00F0B9F9134B20461A46114604F029
:106CD0005DFB2046FFF778FB11E0687906280ED1AE
:106CE0002546246A887850B100202081906802F0FF
:106CF00067FCA0613869E061284600F0D7F83046AB
:106D0000BDE8F04104F066BF0CC80120EC01002092
:106D10001C4E0220984303082DE9FE43046A0746EF
:106D2000002C51D0607900284ED0A0690290002537
:106D3000A561E561256265622563E562A562A582BC
:106D400065822582E581384600F0DAF960B301AB4F
:106D5000072221463846FFF70BFA060024D0716857
:106D60000423F03136228846BDF80400FFF730FCDA
:106D7000ADF80400029802F023FC02464146BDF83B
:106D80000400FFF767FCADF8040032464146FFF708
:106D9000C9FC0E480097432302AA314680680BF0D5
:106DA00085FD304604F016FF094B38461A46114659
:106DB00004F0ECFA0021204600F03EF9207900288A
:106DC00002D0FFF78BFA2571BDE8FE83E0010020B9
:106DD000984303082DE9FC47056A07460521284624
:106DE00000F02AF901AB032229463846FFF7C0F923
:106DF00006003CD071680223F031894639224C46A6
:106E0000BDF80400FFF7E4FBADF80400BA8C21469E
:106E1000FFF758FCADF80400032337222146FFF7A3
:106E2000D7FBDFF88480ADF804000024494618F849
:106E30000420BDF80400FFF7E3FB641CE4B2ADF8E6
:106E40000400032CF2D33246494680B2FFF76AFCB5
:106E500015480097401E432305F11802314680680B
:106E60000BF024FD0446304604F0B4FE01E04FF080
:106E7000FF34A879FF2801D2401CA871C0B20A28AB
:106E800004D24FF4FA6110FB01F001E044F62060F7
:106E900080B24FF4FA7100F2F310B0FBF1F02881E8
:106EA0002046BDE8FC870000E10100202DE9FE43FB
:106EB000060072D0356A002D76D00121284600F0F8
:106EC000BBF802AB032229463046FFF751F9070011
:106ED00071D079680223F031894639224C46BDF8D9
:106EE0000800FFF775FBADF80800B28C2146FFF7EC
:106EF000E9FBADF80800042332222146FFF768FBC6
:106F0000ADF80800E86902F05BFB02462146BDF8D7
:106F10000800FFF79FFBADF8080004233622214646
:106F2000FFF756FBADF80800A86902F049FB0246DE
:106F30002146BDF80800FFF78DFBADF808000323DC
:106F400037222146FFF744FBDFF8A880ADF80800A0
:106F50000024494618F80420BDF80800FFF750FB4C
:106F6000641CE4B2ADF80800032CF2D33A4649465B
:106F700080B2FFF7D7FB20484323CDE900601D48CE
:106F80001E4A401E394680680BF0F4FC0446384621
:106F900004F020FE11E000E006E019A0FEF706F97B
:106FA0006FF00F00BDE8FE831CA0FEF7FFF86FF046
:106FB0000500F7E7FFE74FF0FF34A879FF2801D27B
:106FC000401CA871C1B2062902D20120884000E00D
:106FD0003C2000EB4001C1EBC0104FF6FF7101EA0D
:106FE000C0004FF4FA7100F2F310B0FBF1F0288109
:106FF0002046D7E7E1010020984303089C4303089B
:10700000646863705F73656C6563743A206E657461
:10701000696620213D204E554C4C00006468637029
:107020005F73656C6563743A206468637020213D0A
:10703000204E554C4C00000042798A4203D04171E9
:10704000002181710181704770B505006FF00F0458
:1070500018D095F82D00C00716D0A88C2C6A4FF0D8
:10706000FF36B0F5107F0BD39CB1207908B1FFF744
:1070700035F934212046F9F779F9FFF767FA78B145
:10708000304670BD11A000E014A0FEF78FF8204636
:1070900070BD342003F03AF90400F1D02C62E8E727
:1070A0000120207195F82D00400705D402212046CB
:1070B000FFF7C2FF002070BD2846FFF785F90028C2
:1070C000F9D02846FFF728FEDAE700006E657469FC
:1070D0006620213D204E554C4C0000006E657469C1
:1070E00066206973206E6F742075702C206F6C643D
:1070F000207374796C6520706F72743F000000001B
:1071000040B1006A30B140790A2805D0052803D083
:10711000042801D0002070470120704710B5026A92
:10712000044651790C290BD0062909D001290BD02E
:10713000082918D0032926D19079022820461ED389
:10714000BDE81040FFF740B990790528204603D8E4
:10715000BDE81040FFF7AABEFFF7DEFD2046BDE800
:107160001040FFF771BF90790128204603D8BDE891
:107170001040FEF78DBFBDE81040FEF7FBBEBDE836
:107180001040FFF7B9BC10BD70B505460C46880726
:1071900002D007A0FEF70AF805F04EFFA9680968BB
:1071A0002160A9680C60BDE8704005F067BF000071
:1071B0006D656D705F667265653A206D656D2070F6
:1071C000726F7065726C7920616C69676E656400BE
:1071D00070B5044605F030FF0546A06804685CB150
:1071E00021680160A00702D006A0FDF7DFFF284656
:1071F00005F044FF204670BD284605F03FFF002003
:1072000070BD00006D656D705F6D616C6C6F633A91
:10721000206D656D702070726F7065726C79206181
:107220006C69676E656400002DE9F04106461948F7
:107230001446194F827875188AB1007908B17869B7
:1072400000E0B8692146FDF7B1FF14A0FDF7AEFFDD
:10725000B44201D2344602E0A54200D22C46F8687E
:10726000FDF7A4FF0DA0FDF7A1FF08E021460CA04B
:107270002268FDF79BFF09A0FDF798FF241DA5429A
:10728000F4D80EA0FDF792FFBDE8F04103A0FDF792
:107290008DBF000024020020AC4303080D0A00004B
:1072A0002020616464723A20253038782020202024
:1072B000646174613A202530387800003D3D3D3DE1
:1072C0003D3D3D3D3D3D3D3D3D3D3D3D3D3D3D3DEE
:1072D0003D3D3D3D3D3D3D3D3D3D3D3D3D3D3D3DDE
:1072E0000000000007490868426842F0400242601E
:1072F00009684FF6FE70886040F2AA5202490148C0
:10730000FCF7EABAC07B0020AA7E00202DE9F047F6
:107310000F46040002D137A0FDF748FF05F08CFEB0
:10732000002666602772217F41F001012177657890
:10733000667005F0A3FE636A7BB10022042120463B
:107340009847636A4BB10022114620469847636A0A
:107350001BB10022022120469847384602F078FEF1
:10736000804604F11000814605F0E6FE18B1414662
:10737000484605F0D3FE04F11400814605F0DCFE1A
:1073800018B14146484605F0C9FE012D0BD0042D29
:1073900009D0032D07D0206A002828D0BDE8F04787
:1073A00018A0FDF703BF207FC0F3800100F0FB00B1
:1073B000207700291BD1206A10B919A0FDF7F6FE2D
:1073C000206A042D08D00771206A05680C3528460C
:1073D00005F042FF10B104E00671F5E717A0FDF7D4
:1073E000E5FE28462662BDE8F04705F015BFBDE87A
:1073F000F0870000636F6E6E20213D204E554C4C8F
:1074000000000000636F6E6E2D3E63757272656ED4
:10741000745F6D7367203D3D204E554C4C0000005D
:10742000636F6E6E2D3E63757272656E745F6D7301
:107430006720213D204E554C4C000000696E61765E
:107440006C6964206F705F636F6D706C65746564E8
:107450005F73656D0000000070B5094E054600249D
:1074600004EB440006EBC000017D29B18068A8420E
:1074700002D1204600F0F0F8641C0A2CF0DB70BD4D
:107480003C4E02202DE9F74F84B04FF00A0B002448
:107490008046DA465F46D9460294019400944749F3
:1074A00004EB440001EBC0060390357D0A2F18D091
:1074B0002DB3012D04D0022D02D241A0FDF776FE9E
:1074C000B8F1000F11D0D8F80000716888420CD1D3
:1074D000069810B1B168814207D1204607B0BDE8D7
:1074E000F08F002DE5D1274609E0012D15D0022DA2
:1074F00005D3708A0099884201D3A2460090641C8B
:1075000024B20A2CCBDB059881074FF0FF30E5D47D
:107510000A2F15D017DA3C4635E02848039950F871
:1075200031000028708A05D002998842E7D3A1462D
:107530000290E4E701998842E1D3A3460190DEE797
:107540000599C907CAD05146BAF10A0F0ADA0C46A2
:107550001A4801EB440150F8310060B128A0FDF752
:1075600025FE08E05946BBF10A0F03DB4946B9F195
:107570000A0FB3DA0C460A2C02DB27A0FDF716FE31
:10758000204600F069F80A2C02DB23A0FDF70EFE6E
:107590000A4804EB440100EBC105287D10B123A08B
:1075A000FDF704FEB8F1000F02D0D8F800006860C3
:1075B000002068820698A8608FE700003C4E0220F9
:1075C0007374617465203D3D204554484152505FBD
:1075D00053544154455F50454E44494E47207C7CAE
:1075E000207374617465203E3D20455448415250DB
:1075F0005F53544154455F535441424C4500000091
:107600006172705F7461626C655B695D2E71203DB3
:107610003D204E554C4C000069203C204152505FAB
:107620005441424C455F53495A4500006172705FB6
:107630007461626C655B695D2E7374617465203D75
:107640003D204554484152505F53544154455F4595
:107650004D5054590000000070B5074D00EB400438
:10766000002655F8340018B104F0B4FA45F8346037
:1076700005EBC400067570BD3C4E02202DE9F043B9
:1076800085B00D00074609D07C684FF480782088CB
:10769000404540D1207906283DD105E020A0FDF7E6
:1076A00085FD05B0BDE8F0836079042833D160889A
:1076B000082830D1D4F80E000490A169686818B188
:1076C000814201D1012600E000260EB1012300E035
:1076D000022304F10802914604A9284600F092FA18
:1076E000E088404503D0B0F5007F14D10FE096B19B
:1076F000022204ABCDE90232291DCDE9001905F1C2
:10770000260319464A46284600F0BAF903E004A9C0
:107710002846FEF715FC384604F05CFAC1E7000085
:107720006E6574696620213D204E554C4C0000006A
:10773000FEB515460E46040002D13DA0FDF736FD0C
:1077400016B93FA0FDF732FD15B940A0FDF72EFD9B
:107750002146286800F013FF08B1404B3FE028683D
:10776000C0F303110E2925D0A168636800EA010265
:107770000B409A4208D080B2A0F57E41A93903D0CF
:10778000E068B0B304F10C05354B36491A7802EBCA
:10779000420001EBC000077D022F2ED38768A7426D
:1077A0002BD12F684068874227D13146204600F010
:1077B0005BF8FEBD01208DF8040000208DF8050067
:1077C0005E208DF80600687801AB00F07F008DF830
:1077D0000700A8788DF80800E8788DF809004FF4C4
:1077E0000060009004F126023146204600F0B6FA0F
:1077F000FEBDFFE76FF00300FAE7002202EB420054
:1078000001EBC000077D022F08D38768A74205D18E
:107810002F684068874201D11A70C6E7521CD2B265
:107820000A2AEBD332462946204600F071F8DFE7FA
:107830006E6574696620213D204E554C4C00000059
:107840007120213D204E554C4C0000006970616450
:10785000647220213D204E554C4C0000A04303088B
:10786000F40100203C4E02202DE9F843064615465F
:1078700088461A4802EB450100EBC104207D02282E
:1078800002D217A0FDF792FC144A05EB4501207DBA
:1078900002EBC1050C35022813D1608A0327B0F52D
:1078A0008E7F04D9211D304600F068F907E0B0F55D
:1078B000877F06D32A46211D304600F065F900B9BE
:1078C00027754FF4006000902B4606F126024146D2
:1078D000304600F043FABDE8F88300003C4E022039
:1078E0006172705F7461626C655B6172705F696424
:1078F000785D2E7374617465203E3D204554484187
:1079000052505F53544154455F535441424C4500DB
:107910002DE9FC5F8246263001900F460868164626
:107920004FF0FF344FF0000B514600F028FE80B9B5
:107930003868C0F303110E290BD057B148B1524635
:1079400001213846FFF79EFD050005D540B2BDE890
:10795000FC9F6FF00F00FAE77F2D02D331A0FDF7F7
:1079600025FC05F0FF09334909EB490801EBC8057F
:10797000287D50B1012804D0022802D22EA0FDF7A4
:1079800015FCBBF1000F06D104E001202875C5F8F5
:1079900008A000E036B93946504600F0EFF804463A
:1079A000002ED4D0287D234F02280ED32C494FF42B
:1079B000006005F10C0381F80090009031465046BC
:1079C000019A00F0CBF904462AE0012828D10025CD
:1079D000344660892189884204D1206810B121A0F1
:1079E000FDF7E4FB207B400603D42468002CF0D193
:1079F0003DB132464FF420710E2003F0C7FF06461A
:107A000002E0304604F0D0F946B157F8380008B12A
:107A100004F0E0F847F83860002401E04FF0FF344C
:107A2000204694E774797065206F766572666C6F96
:107A3000770000003C4E02206172705F7461626CDE
:107A4000655B695D2E7374617465203D3D20504512
:107A50004E44494E47206F7220535441424C4500DA
:107A6000F40100206E6F207061636B657420717586
:107A70006575657320616C6C6F776564210000002B
:107A80002DE9FF4F81B09846DDE90FA9DDF838B048
:107A900006004FF0000702D126A0FDF787FB4FF448
:107AA00020721C210E2003F0DFFD05003ED0688906
:107AB0001C2802D223A0FDF779FB6C68119801F015
:107AC00081FDE08096F82C00062802D02A48FDF7B8
:107AD0006DFBD8F80010A160B8F80400A081DAF8B6
:107AE0000010C4F81210BAF80400E082DBF80000BD
:107AF000C4F80E00D9F80000A0614FF48070208017
:107B000008206080062020710420607140F6060085
:107B1000DDE9022300902946304600F01FF928468F
:107B200004F058F8384605B0BDE8F08F4FF0FF304C
:107B3000F9E700006E6574696620213D204E554CC2
:107B40004C000000636865636B2074686174206694
:107B50006972737420706275662063616E20686F4D
:107B60006C642073747275637420657468617270DC
:107B70005F68647200000000E4450308014A00F0F9
:107B800003B80000A04303087FB5064D031D012480
:107B9000CDE90035CDE9021422331946FFF770FF15
:107BA00004B070BDA643030870B5154D002404EB66
:107BB000440005EBC002117DF1B1508A401C80B237
:107BC0005082B0F5967F0AD2012906D003290AD047
:107BD00004290AD001290BD00EE0052808D320463D
:107BE000FFF73AFD08E0042000E00220107503E0F2
:107BF000111D9068FFF7C2FF641C0A2CD7DB70BD13
:107C00003C4E0220F8B5044690F82C001F4615465D
:107C10000E46062802D01EA0FDF7C8FA9EB13068B5
:107C200088B1214600F0ABFC68B93078C0F303108E
:107C30000E2808D0224639463046FFF723FC00289C
:107C400004DA40B2F8BD6FF00F00F8BD194A00EB3E
:107C5000400102EBC1000223037584602B68C360FE
:107C6000AB8803820023438252F8316076B142F838
:107C700031304FF4006000902B4604F1260231466B
:107C8000204600F06BF8304603F0A4FF0020F8BD5A
:107C90006E657469662D3E6877616464725F6C65B9
:107CA0006E203D3D204554485F4857414444525F53
:107CB0004C454E003C4E02202DE9F04104464089DF
:107CC0000E270D460E283CD9E07B18B995F83000F8
:107CD000401CE073606801788689CA0714D00129C6
:107CE00005D006221C49F8F758FB48B10CE0417852
:107CF00051B980785E2807D1607B40F0100002E027
:107D0000607B40F008006073082E03D0B6F5C16FA9
:107D100017D10DE095F82D00000712D53946204601
:107D200004F060F868B92946204600F033FD10E001
:107D300095F82D00000704D53946204604F052F886
:107D400018B1204603F046FF03E029462046FFF71E
:107D500095FC0020BDE8F081A04303082DE9F04127
:107D600004461F4690460E46069801F02BFC054639
:107D70000E21304603F044FC18B16FF00100BDE85D
:107D8000F0817068858139680160B9888180D8F890
:107D90000020C0F80620B8F80410418194F82C00A7
:107DA000062802D004A0FDF701FA31462046A26958
:107DB000BDE8F041104700006E657469662D3E68AD
:107DC00077616464725F6C656E206D757374206298
:107DD00065203620666F722065746865726E657402
:107DE0005F6F7574707574210000000070B50446F3
:107DF000042002F08BFA050001D04CB10BE00FA07B
:107E0000FDF7D4F910A0FDF7D1F94FF0FF3070BDA8
:107E100015A0FDF7CBF97320E56184F82E007420DE
:107E200084F82F00144860611448A061204601F0D6
:107E3000C3F9263400202C6070BD00000D0A5B459C
:107E400052525D203E3E200065746865726E657416
:107E500069665F696E69743A206F7574206F662079
:107E60006D656D6F72790A006E6574696620213DDB
:107E7000204E554C4C00000031770208BD9302089B
:107E80000F4E05464FF0FF3700233A46194630683B
:107E90000BF034FC0128F7D1284601F031FA040038
:107EA000F2D02A692946904718B1204603F092FE85
:107EB000EAE700231A46194630680BF01FFCEBE78F
:107EC0000002002070B58C4D8C4C95F8380080076E
:107ED00005D5206BFDF76AF989A0FDF767F9A86B56
:107EE00040007DD595F82400F0B3C00705D0606B45
:107EF000FDF75CF982A0FDF759F995F82400800799
:107F000005D5A06BFDF752F97DA0FDF74FF995F867
:107F10002400000705D5E06BFDF748F978A0FDF7D0
:107F200045F995F82400C00605D5206CFDF73EF90B
:107F300073A0FDF73BF995F82400800605D5606C29
:107F4000FDF734F96EA0FDF731F995F8240001062C
:107F50000DD5C10701D1800709D5A96AD4F88C00D5
:107F6000FDF724F966A000E001E0FDF71FF995F8A0
:107F70002C00B0B3C00705D0A06CFDF717F960A0C6
:107F8000FDF714F995F82C00800705D5E06CFDF796
:107F90000DF95BA0FDF70AF995F82C00400705D50F
:107FA000206DFDF703F956A0FDF700F995F82C00B8
:107FB000000705D5606DFDF7F9F851A0FDF7F6F85B
:107FC00095F82C00C00605D5A06DFDF7EFF84CA084
:107FD000FDF7ECF895F82C00800608D5E06D01E07F
:107FE0004DE012E0FDF7E2F845A0FDF7DFF895F867
:107FF0002C00010609D5800707D5296BD4F890001D
:10800000FDF7D4F83EA0FDF7D1F8A88EB8B3C007AD
:1080100005D0206EFDF7CAF839A0FDF7C7F895F82E
:108020003400800705D5606EFDF7C0F834A0FDF779
:10803000BDF895F83400400705D5A06EFDF7B6F8F9
:108040002FA0FDF7B3F895F83400000705D5E06ED2
:10805000FDF7ACF82AA0FDF7A9F8A88EC00505D554
:10806000206FFDF7A3F826A0FDF7A0F8A88E8005E5
:1080700005D5606FFDF79AF821A0FDF797F8A86B7A
:10808000002837DAE86B002834D0C00705D0A06F8D
:10809000FDF78CF81AA0FDF789F895F83C008007E9
:1080A00005D5E06FFDF782F815A0FDF77FF895F88C
:1080B0003C00400706D5D4F88000FDF777F810A003
:1080C000FDF774F895F83C00000706D5D4F8840055
:1080D000FDF76CF80AA0FDF769F895F83C00C006BA
:1080E00008D5D4F88800FDF761F8BDE8704004A019
:1080F000FDF75CB870BD000070500220AC4303086F
:108100000D0A000013B54FF47A7301226946024844
:10811000FCF738F800981CBDA078002008B5694627
:108120000248FBF7ADF8009808BD0000740200207B
:10813000014800787047000070000020024A02EBFE
:10814000C0004068FDF71ABE400000207CB5002644
:108150000D4604460196FAF72BF8114802210660F5
:10816000104E016156F834108160691CC16001A98C
:10817000F9F728FF0100304600EBC40005F10103C8
:108180004068009056F83420214604D00648FDF798
:108190000DF800207CBD05A0FDF708F801207CBD8E
:1081A0006002002040000020884403082068616CC1
:1081B00020666C61736820657261736520747970E4
:1081C000653A25642020736563746F723A256420D4
:1081D0006E62736563746F72733B25642020616403
:1081E00064723A3078253038780D0A00F9F76EBF9E
:1081F0002DE9F843DFF85480064608EBC6001F4619
:10820000406891464518002414E0002319F8042022
:1082100029461846F9F764FF50B1009458F8362003
:108220002B4631460AA0FCF7C1FF0020BDE8F883C9
:10823000641C6D1CBC42E8D3009758F836202B46CE
:10824000314612A0FCF7B2FF0120EFE7400000200A
:1082500068616C20666C6173682077726974652050
:1082600065727220747970653A25642020736563A5
:10827000746F723A256420616464723A30782530F4
:108280003878206C656E3A25640D0A0068616C20B0
:10829000666C6173682077726974652020747970E8
:1082A000653A25642020736563746F723A256420F3
:1082B000616464723A30782530387820206C656EBD
:1082C0003A25640D0A00000010B5064C04EBC0000E
:1082D00040680144002002E00C5C1454401C9842A9
:1082E000FAD310BD40000020034B03EBC0004068F0
:1082F000405A108070470000400000200A460321C9
:1083000000F0C0B82DE9FE4F424A04468A46D2F832
:10831000088098F800000007860E142E75D3608937
:10832000042872D36068017800296ED008296CD1C6
:10833000506902F11407C0F303110E2965D091466C
:10834000116800F01CF900285FD1208908285CD34F
:10835000204600F0EFF8002857D106F10E010D4637
:10836000204603F04DF960B32089811989B2884213
:108370004BD84FF420720E2003F076F9050044D05C
:10838000698906F10800814212D332464146686885
:10839000F7F7C5FF3146284603F024FD18B11EA0AB
:1083A000FCF704FF04E02146284603F00DFB18B15A
:1083B000284603F00FFC28E0204603F00BFC2C4677
:1083C00008E02946204603F00DFD18B120A0FCF777
:1083D000EDFE1AE031462046656803F011F9A0B9B8
:1083E00060683968FF22C160D9F81010016100216E
:1083F000297069800272418101228DE806040A46D3
:10840000FF233946204600F0A9FA2046BDE8FE4F7A
:1084100003F0E0BB0CC8012069636D705F696E708A
:1084200075743A206D6F76696E6720722D3E7061AB
:10843000796C6F616420746F2069636D702068656A
:1084400061646572206661696C65640A0000000001
:1084500069636D705F696E7075743A2072657374CC
:108460006F72696E67206F726967696E616C2070E8
:108470002D3E7061796C6F6164206661696C656422
:108480000A0000002DE9FF479146884606464FF452
:1084900020722421222003F0E7F805002DD06889FE
:1084A000242802D216A0FCF781FE6C6877681C2293
:1084B00084F8008084F801904FF00008A4F804804C
:1084C000A4F80680686871680830F7F728FFF86834
:1084D000039003A800F0ECFB60B1A4F80280012235
:1084E000CDF80080CDE90120FF2303AA0021284612
:1084F00000F034FA284603F06DFBBDE8FF8700006A
:10850000636865636B207468617420666972737454
:1085100020706275662063616E20686F6C642069EC
:10852000636D70206D657373616765000A460B218A
:10853000FFF7A8BF70B500260546344612E06989EA
:10854000686801F0CBFD2044010C11FA80F4A87A90
:10855000C00706D08EB10026E0B2C4F3072141EA7D
:1085600000242D68002DEAD126B1E0B2C4F3072122
:1085700041EA0024E04380B270BD0126ECE7421CD2
:1085800012D088B191F82D2092070BD54A6882420B
:1085900008D0896800EA01030A40934202D10143EE
:1085A000491C01D000207047012070472DE9F74F8A
:1085B00088B00446099800271426808CBD1F143803
:1085C000C11700EB5170C0F3CF00039060680690B4
:1085D000017801F00F01052903D028460BB0BDE852
:1085E000F08F6189142903D256A0FCF7DFFDF4E770
:1085F000C08800F0E7FFC0F30C0100F400500291C6
:108600000790208914381FFA80F994E003984FF6F8
:10861000FF7101EAC0004946484500D90846049068
:108620004FF4207214210E2003F01EF85FEA000BB5
:1086300051D0BBF80A00142802D249A0FCF7B6FDBD
:108640001422DBF804000699F7F769FEDBF8040052
:108650000590049D31E06089811B8FB2B04202D247
:1086600047A0FCF7A3FDBD4200D22F461FB3052053
:1086700002F034F85FEA00082AD0606843463044CC
:10868000CDE9000741223946002003F0F1F85FEA06
:10869000000A23D0204603F087FB3D49C8E90414B3
:1086A0005146584603F000F9E81B05042D0C06D08E
:1086B00000262468CFE724680026002DCBD1F019CE
:1086C00086B20998808C143848450BDB01210AE0FA
:1086D000584603F07FFA4FF0FF307FE7404600F046
:1086E00017FBF5E700210298C0F30C0009B10799C8
:1086F00009B140F4005000F065FF0599C880049866
:10870000143080B200F05EFF059948800598002182
:108710004181099859460A9A43699847584603F097
:1087200059FA0499A9EB01001FFA80F9DDE9020169
:10873000084480B20290B9F1000F7FF467AF0020C7
:108740004CE700006970345F6672616728293A203F
:108750007062756620746F6F2073686F72740000AA
:1087600074686973206E656564732061207062753A
:108770006620696E206F6E652070696563652100F3
:10878000702D3E6C656E203E3D20706F6666000069
:10879000F99002082DE9F047456807460E4628780B
:1087A00004214FF0010AB1EB101F03D0384603F04B
:1087B00011FA88E000074FEA9068688800F002FF2D
:1087C00004463889A04203D92146384603F08EFA80
:1087D00079894145EAD33889A042E7D3B8F1140F2B
:1087E000E4D3DFF844912869C9F81400EA68C0F3BB
:1087F0000310C9F810200E2805D0304600F098F874
:1088000050B1344616E096F82D00C00702D07068CB
:108810000028F6D1002412E099F8140000247F28E3
:108820000DD04248046808E0B44205D0204600F06C
:108830007FF808B11CB10BE02468002CF4D1687AF1
:10884000112805D105EB08004088B0F5884F38D0D5
:10885000BAF1000F0DD0D9F8100050B13146FFF732
:108860008EFE0028A2D199F81000C0F303100E2844
:108870009CD0002C9AD0E88830F0C00005D0384653
:1088800000F002F907001ED07D68C9F80850C9E958
:108890000046297838460907890EA9F80C10414688
:1088A00003F0A0FA687A01281AD0062813D01128FC
:1088B0000CD04D462146D9F81400FFF760FEA0B158
:1088C00020E03446D5E70020BDE8F0873146384641
:1088D00009F0AAFD19E03146384605F0E3FE14E040
:1088E00031463846FFF70EFD0FE0287DC0F3031038
:1088F0000E2807D04146384603F0E0F902213846F9
:10890000FFF7FCFC384603F065F90021C9F80010B8
:10891000C9F80410C9F80810A9F80C10C9F810100B
:10892000C9F81410CFE700000CC801208001002016
:1089300010B590F82D10C9070CD0416851B1064A06
:1089400052698A4204D001461046FFF718FE08B16A
:10895000012010BD002010BD0CC80120FEB5DDE9CE
:108960000954089E1AB109B10F6807B9211D009674
:10897000CDE9015400F002F8FEBD00002DE9F84FEA
:108980000546DDE90BA8807BDDF828B01F461646BA
:108990008946012802D02BA0FCF708FC6FF00104E7
:1089A00086B31421284602F02BFE60BB68896C68F0
:1089B000142802D226A0FCF7F9FB277284F809A03C
:1089C000306820614520207084F801B0288900F0CB
:1089D000F9FD2B4F60804FF0000AA4F806A03888FC
:1089E00000F0F0FDA0803888401C3880B9F1000FFD
:1089F00005D0D9F80000E060A4F80AA00EE02148F4
:108A00000068F8E700E002E06889142802D22046F6
:108A1000BDE8F88F68686E4600690090B8F82400D9
:108A200040B12989814205D9324641462846FFF79F
:108A3000BDFDEDE7D8F81430404632462946984748
:108A4000E6E70000702D3E726566203D3D20310056
:108A5000636865636B2074686174206669727374FF
:108A600020706275662063616E20686F6C6420738D
:108A700074727563742069705F686472000000002E
:108A8000F6010020984303082DE9F05F446883460F
:108A9000207800F00F0005287ED1E08800F092FDDC
:108AA000C004070C608800F08DFD21780907890E4D
:108AB000814271D8401A1FFA80F8584602F05DFFD3
:108AC0006B4D0646288830440A2809D9314620468D
:108AD00000F0BAFA00285FD0288830440A28E8D885
:108AE000A9466D684FF0000A0CE06869E1688842A9
:108AF00007D1A8692169884203D1A889A188884241
:108B000003D02D68002DF0D106E02DB1E08800F0F3
:108B100059FDC00425D02FE0042001F0DFFD050041
:108B20000AD13146204600F08FFAB04217DB04200C
:108B300001F0D4FD050012D02021F7F717FC0F201B
:108B4000E877D9F8041029601422214605F10800BD
:108B5000C9F80450F7F7E3FB002D1DD00CE0554693
:108B6000FAE7E88900F02EFDC00405D01422214662
:108B700005F10800F7F7D3FBA07940F34014641C1B
:108B800008D007EB080080B2B8425FD34FF6EB7114
:108B900088425BD8224600E065E05946284600F04E
:108BA000C9F8411C52D0B9F800203244A9F800207D
:108BB00034B107EB0801A983A97F41F00101A9772E
:108BC000012841D1A88B1422143087B2686805F1BE
:108BD0000801466830463468F7F7A1FB384600F0D4
:108BE000F1FC7080A6F806A0A6F80AA06E6809E05D
:108BF00014212046676803F0F5F82146304602F05C
:108C000053FE3C68002CF3D1D9F804104C468D4239
:108C100005D1002105E00868A84202D001460029DC
:108C2000F9D1284600F060F9304602F0A6FE21880E
:108C30000546A94202D20FA0FCF7B8FA2088401BD3
:108C400020803046BDE8F09F0020FBE7686850B9FF
:108C5000D9F80400854202D00DA0FCF7A7FA002144
:108C6000284600F041F9584602F0B4FFECE7000056
:108C7000F801002069705F72656173735F706275DF
:108C800066636F756E74203E3D20636C656E0000F8
:108C90006E6F74206669727374616C74686F756747
:108CA00068206A75737420656E71756575656400FA
:108CB00070B50546144813E090F82D10CA070FD080
:108CC0004A070DD543685BB184682A68234002EAED
:108CD00004069E4216D0890702D4C1688A4211D088
:108CE00000680028E8D10948006850B190F82D10BC
:108CF000CA0706D0490704D5416811B129787F29F0
:108D000000D1002070BD00008001002084010020FF
:108D100010B5040002D104A0FCF748FA2146BDE8D2
:108D20001040052001F098BC7020213D204E554C8C
:108D30004C0000002DE9F05F4C68064693468846DB
:108D400000250127608800F03DFC21784FF0FF3AB4
:108D50000907890E814233D8A0EB0109E08800F0B1
:108D600031FCC004D8F80440020C0020206002EB63
:108D700009001FFA80FCA280A4F806C094451FD306
:108D8000716827E0486883889A4215D2216065B1EE
:108D9000EB889A4214D38088844511D8C5F80080A6
:108DA000A088834206D0002704E08088844507D845
:108DB000C6F8048081B126E002D0C1888A4202D27E
:108DC0005046BDE8F09F1DB1E988994200D00027C8
:108DD000016805460029D5D175B1E888A188884287
:108DE00002D91EA0FCF7E2F9C5F80080E888A18846
:108DF000884208D0002706E0706810B11FA0FCF779
:108E0000D5F9C6F80480BBF1000F02D1B07FC007CE
:108E1000D7D007B37268F2B150688088D8B920689B
:108E2000214628B14468C888A1888842F7D012E05A
:108E30008FB112B91FA0FCF7B9F970684068A04261
:108E400002D11CA0FCF7B2F9206810B11DA0FCF7FC
:108E5000ADF90120B5E70020B3E700006368656362
:108E60006B20667261676D656E747320646F6E2728
:108E700074206F7665726C61700000006E6F2070F8
:108E8000726576696F757320667261676D656E7461
:108E90002C2074686973206D75737420626520746A
:108EA000686520666972737420667261676D656EAD
:108EB0007421000073616E69747920636865636B67
:108EC0000000000076616C69646174655F646174C0
:108ED000616772616D3A6E6578745F706275662164
:108EE0003D4E554C4C00000070B5044609480D46F7
:108EF0004168A14202D12168416005E015B906A090
:108F0000FCF754F9206828602146BDE87040042031
:108F100001F0A2BBF801002073616E6974792063CF
:108F20006865636B206C696E6B6564206C69737433
:108F3000000000002DE9F047064600250F46B1422B
:108F400002D127A0FCF732F92FB13868B04202D025
:108F500026A0FCF72BF974684FF48038606881888C
:108F6000B9B900687060142206F108016068F7F76B
:108F7000D6F901212046FFF7D9FA204602F0FDFC80
:108F80000546404502D31EA0FCF710F9204602F02A
:108F900021FEC14674680FE06068A0460468404640
:108FA00002F0EBFC05444D4502D315A0FCF7FEF89A
:108FB000ADB2404602F00EFE002CEDD139463046EF
:108FC000FFF792FF164C2088A84202D215A0FCF7AA
:108FD000EDF82088401B20802846BDE8F08700007F
:108FE0007072657620213D2069707200707265761E
:108FF0002D3E6E657874203D3D2069707200000042
:1090000070627566735F6672656564202B20636CA1
:10901000656E203C3D203078666666660000000084
:10902000F801002069705F72656173735F7062752B
:1090300066636F756E74203E3D2070627566735F67
:1090400066726565640000002DE9F047DFF87890EE
:109050000F46054600260022114613461446D9F84D
:10906000040022E0D0F814C0D5F80C80C4450BD120
:10907000D0F818C0D5F81080C44505D1B0F80CC0A0
:10908000B5F80480C44509D0641C2AB190F81FC00B
:1090900092F81F80C44501D802460B46D0F800C0A4
:1090A000BCF1000F00D0014660460028DAD122B1A1
:1090B00019461046FFF73EFF0644BE4201DA012C76
:1090C000C9DC3046BDE8F087F801002070B50948DA
:1090D000002544680BE0E07F20B1401EE077254684
:1090E000246804E0204624682946FFF723FF002C6B
:1090F000F1D170BDF801002010B5040002D106A026
:10910000FCF754F8606908B102F064FD2046BDE840
:109110001040FFF7FDBD000070637220213D204E1E
:10912000554C4C0010B5002204211E200AF0A6FA6E
:109130000949086038B109A0FCF738F80BA0FCF722
:1091400035F8012010BD11A0FCF730F812A0FCF793
:109150002DF8002010BD0000800000200D0A5B49A2
:109160004E464F5D203E3E20000000006372656168
:10917000746520697120646174612071756575651D
:109180002073756363656564210D0A000D0A5B45F4
:1091900052525D203E3E2000637265617465206915
:1091A00071206461746120717565756520666169FF
:1091B0006C210D0A0000000038B50446F7F7F8F9F5
:1091C00028B994F82D0040F0040084F82D00062002
:1091D00084F82C0037484169097884F826104169E1
:1091E000497884F827104169897884F82810416902
:1091F000C97884F829104169097984F82A104069EE
:109200000021407984F82B0040F2DC50A08494F8CF
:109210002D0040F00A0084F82D0028200AF0ECF917
:109220002549086024480021001D03F0C5FF28B926
:1092300022A0FBF7BBFF25A0FBF7B8FF1E48322199
:10924000083003F059FF28B91CA0FBF7AFFF23A09B
:10925000FBF7ACFF032000904FF4806322462449C3
:1092600024A003F0FFFF002206213D20F9F71AFB9E
:109270003D20F9F7E5FA2148016841F000710160ED
:10928000016801F000710091016841F080610160A6
:10929000016801F080610091016841F000610160A6
:1092A000006800F000600090BDE838400148F8F721
:1092B0005DBD000080020020000200200D0A5B441A
:1092C000454255475D203E3E200000007379735FA4
:1092D00073656D5F6E6577206F6B0A007379735FDE
:1092E0006D626F785F6E6577206F6B0A000000001B
:1092F000817E0208455448494E0000003038024043
:109300002DE9F84F0020044600902B48F8F716FA94
:1093100010B10020BDE8F88F2748818FD0F8409029
:109320000904090C2ED04FF4C172002002F09CF900
:10933000009038B32048009D40F2F45BD0F83080B4
:109340006F8900260FE0A4F2F4525242F6F7E7FFCD
:10935000D8F80C008046D0F80890361BAAF2F457D3
:10936000002406F2F456686807EB040ADA4509EBB4
:1093700004013044E7D83A46F6F7D1FF2D683C4463
:10938000002DDDD10C4A0021106B05E0036843F08D
:1093900000430360C068491C936B8B42F6D80021E0
:1093A0009163106800F580504269120602D5802250
:1093B000426181600098ADE7800200202DE9F05FF6
:1093C00031480D46C06840B92F4800210C3003F0E9
:1093D000F3FE2D480C3003F01FFF2C484FF000091E
:1093E0004C46C66AD6F808A03068002812DB26482A
:1093F00000210C3003F025FE2CE0B5F80A80002790
:1094000017E0A4F2F4525242F6F789FFF66830688A
:10941000002802DA6FF0070423E0D6F808A03F1B0B
:10942000A9EB0400ABF2F45800F2F459002407F25F
:10943000F45708EB040B40F2F45168688B4500EBDD
:1094400007010AEB0400DCD84246F6F768FF2D68F6
:109450004444C144002DD0D149460C48F8F7C8FC1B
:1094600000240A48006800F580504169890603D548
:10947000202141610021416003480C3003F0CCFE03
:109480002046BDE8F09F000000020020800200207E
:1094900010B504464068804703F07EFE094A216803
:1094A00052688B181A1AB2F1004F03D308442246AF
:1094B000054902E0044922461846BDE8104003F081
:1094C0002FBF0000CC010020919402083EB500217E
:1094D000084608F045FC204D0020291D2860086042
:1094E000091D1F4A0860CDE900021C4905F1080367
:1094F00002911A1F111F1B4801F008FE194801F0C4
:1095000075FF184C94F82D004007204602D501F055
:1095100095FF01E001F070FF1348FBF747FE11488B
:10952000FDF792FD18B111A0FBF740FE04E016A074
:10953000FAE7642009F008FD606829688842F8D0DD
:10954000010E0091C0F30743C0F30722C1B215A07A
:10955000FBF72CFE3EBD0000180200205D1E030834
:10956000ED7D02084C4F0220284603086C77697095
:10957000206468637020696E6974206661696C2E6E
:109580002E2E0A0A000000006C7769702064686360
:109590007020696E697420737563636573732E2E12
:1095A0002E0A0A00B1BEB5D84950B5D8D6B7CAC739
:1095B0003A25642E25642E25642E25640A0A0000AF
:1095C00000BA704740BA704710B503F079FD00F05B
:1095D00069FE01F05FF801F0A5FE08F023FF05F039
:1095E0005FF8BDE8104003F0E7BE000070B5016809
:1095F00004466FF00A034A684878002A41D00A7886
:109600000125B5EB121F3CD1227A032A01D0022892
:1096100037D0032835D0012830D0D00702D00846F3
:1096200001F0F3F92068006A10B117A0FBF7BEFD46
:10963000216804204870206800210462206800F03E
:1096400037F800281CD020684078042802D015A0E4
:10965000FBF7ACFD154803F099FD206800210C30A4
:1096600003F0EFFC114803F06CFD206840780028FF
:1096700006D0BDE870400BA0FBF798BDFB20207121
:1096800070BD237170BD0000616C726561647920EA
:1096900077726974696E67206F7220636C6F73698B
:1096A0006E6700007374617465210000340100204E
:1096B0002DE9F0478A46040002D15EA0FBF776FD53
:1096C00020780121B1EB101F02D05EA0FBF76EFDE8
:1096D0006078042802D063A0FBF768FD606810B9C9
:1096E00069A0FBF763FD206A10B96CA0FBF75EFD73
:1096F000206A6768007A00F0010900F00208032878
:109700000FD0B9F1000F06D0387D052809D0062802
:1097100007D0082805D0B8F1000F08D0B87EC006E1
:1097200005D501250021384603F0A8FF00E00025FB
:10973000387D01281FD0B9F1000F07D0002138462D
:1097400006F09EFF0021384603F0FDFEB8F1000F41
:1097500003D00021384607F0B7FA95B10022114630
:10976000384606F073FA0021384604F037FE3846D2
:1097700004F07CF90AE00021384603F0E4FE002DF5
:10978000F5D142464946384607F0BEFA06000DD0EC
:10979000701C0BD1206A407A18B1387D012830D076
:1097A00032E01DB1384603F0CBFE0026206A076880
:1097B00006710020206260700C37CEB935B1606050
:1097C000636A1BB10022042120469847B9F1000FBB
:1097D00005D0636A1BB10022114620469847B8F1B4
:1097E000000F05D0636A1BB1002202212046984772
:1097F000BAF1000F02D0384603F00EFD0020BDE89C
:10980000F0872DA0FBF7D2FCB8F1000F03D033494D
:10981000384607F059FA01223149384606F016FA5F
:109820003049384604F0DAFD2146384603F026FF79
:109830003046E4E7696E76616C696420636F6E6E32
:10984000000000007468697320697320666F7220DD
:10985000746370206E6574636F6E6E73206F6E6CD0
:1098600079000000636F6E6E206D75737420626501
:1098700020696E207374617465204E4554434F4EC9
:109880004E5F434C4F53450070636220616C7265BC
:1098900061647920636C6F7365640000636F6E6E42
:1098A0002D3E63757272656E745F6D736720213D26
:1098B000204E554C4C000000436C6F73696E67205E
:1098C00061206C697374656E20706362206D6179CC
:1098D000206E6F74206661696C21000069CE0208F9
:1098E00005C002080D73020810B5044600684368FD
:1098F0006BB1017801F0F001102911D0202909D0B5
:109900002AA0FBF753FC6FF00500207110BD6FF02B
:109910000E00FAE7A2891846A16808F037FDF4E7BF
:109920004178032903D029B16FF00900EDE76FF00A
:109930000800EAE703F0D8FA2068A289A168406825
:10994000204B04F0A3FA0028DFD120680322017F16
:1099500042702068C1F340010029017F05D041F029
:10996000040101776FF00400CFE701F0FB010177FC
:109970002068046220684078032802D012A0FBF718
:1099800015FC134803F002FC206800210C3003F0A2
:1099900058FB0F4803F0D5FB206840780328B5D169
:1099A000BDE8104008A0FBF701BC0000496E7661DD
:1099B0006C6964206E6574636F6E6E207479706577
:1099C00000000000D59902087374617465210000DD
:1099D0003401002070B5164604004FF0000508D091
:1099E0006078032802D01EA0FBF7E0FB206A18B1C4
:1099F0000AE06FF0050070BD207F400708D420A06A
:109A0000FBF7D4FB206A18B10671206A05680C3593
:109A100020780121B1EB101F03D116B9204603F0C5
:109A200063FA207F40F3800600F0FB002077761C6D
:109A300000D02DB956EA050002D021A0FBF7B6FBF5
:109A4000002020626070636A1BB100220221204660
:109A5000984716B1284603F0DFFB002070BD0000D8
:109A6000636F6E6E2D3E7374617465203D3D204EB4
:109A70004554434F4E4E5F434F4E4E4543540000B6
:109A800028636F6E6E2D3E63757272656E745F6DC6
:109A9000736720213D204E554C4C29207C7C20634F
:109AA0006F6E6E2D3E696E5F6E6F6E5F626C6F6380
:109AB0006B696E675F636F6E6E65637400000000B4
:109AC000626C6F636B696E6720636F6E6E65637443
:109AD000207374617465206572726F7200000000FB
:109AE00070B504460068457895B100780121B1EB66
:109AF000101F02D031A0FBF759FB022D08D0032D17
:109B000003D12068007F400702D4FB20207121E0B0
:109B100000252571206800F078FF2068416869B150
:109B2000027802F0F002102A1AD0202A04D1CD6166
:109B30002068406808F0C8FD206845602068436AD6
:109B400043B10022114698472068436A13B10022AE
:109B5000022198472068BDE870400C3003F07CBBC0
:109B6000006A10B11AA0FBF721FB2168042048709D
:109B7000032020722068002104622068FFF798FD0E
:109B800000281AD020684078042802D017A0FBF7DC
:109B90000DFB184803F0FAFA206800210C3003F09E
:109BA00050FA144803F0CDFA20684078002804D019
:109BB000BDE870400DA0FBF7F9BA70BD6E65746327
:109BC0006F6E6E207374617465206572726F7200BF
:109BD000616C72656164792077726974696E67205F
:109BE0006F7220636C6F73696E67000073746174C9
:109BF00065210000340100200021017101684968DD
:109C0000002901D102F022B970472DE9F041054643
:109C10000020287128684168002916D000780121A9
:109C2000B1EB101F11D1AC684FF480384FF6FF76BE
:109C3000444501D3304600E0204687B228683946C3
:109C4000406806F0A5FDE41BF2D1BDE8F08170B5D7
:109C50000446006800F027FF98B921686FF00A00F9
:109C60004D6875B1097801F0F001202909D1A0688B
:109C7000816841B1838900F108020168284608F033
:109C8000C3FD207170BD0168284608F045FDF8E766
:109C900010B50446006800F006FF002840D1206897
:109CA00001210278B1EB121F38D142780AB1881F26
:109CB00036E04268002A2ED041702068006A10B158
:109CC00018A0FBF773FA606910B91DA0FBF76EFAD4
:109CD000206800210462206800F042F8002820D0AB
:109CE00020684078012802D01AA0FBF75FFA1B48D1
:109CF00003F04CFA206800210C3003F0A2F9174859
:109D000003F01FFA2068407801280AD1BDE810400E
:109D100010A0FBF74BBA6FF00A0001E06FF00500EE
:109D2000207110BD616C726561647920777269740D
:109D3000696E67206F7220636C6F73696E670000D5
:109D40006D73672D3E6D73672E772E6C656E2021C7
:109D50003D203000737461746521000034010020DF
:109D60002DE9F34F81B004004FF0000A02D17AA030
:109D7000FBF71CFA6078012802D07BA0FBF716FAEB
:109D8000206A10B980A0FBF711FA606810B985A0AD
:109D9000FBF70CFA206A81694069814202D387A0EF
:109DA000FBF704FA206A808910B994A0FBF7FEF94A
:109DB000206A077F207F800701D4780701D5012022
:109DC00000E0002080464FF6FF7B206A4FF4803988
:109DD000816800690A68024400924A68161A4E4572
:109DE00003D35D4647F0020700E0B5B26168B1F801
:109DF0006410A9420ED20D46B8F1000F08D04DB93B
:109E0000206A806908B100264AE06FF0060647E044
:109E100047F002072844904202D982A0FBF7C6F916
:109E20005D4501D14E4506D2B0B2A84208D1206AA4
:109E30008089012804D94FF0010947F0020701E0A9
:109E40004FF000093B462A466068009907F0B0FBD6
:109E5000060019D1206A816929448161206A01695B
:109E600029440161206A8268526891420CD181893B
:109E7000491E0904090C8181206A05D081680831D6
:109E80008160216A00200861B9F1000F02D0002E24
:109E90009BD000E00EB1701C4BD1B8F1000F0FD079
:109EA000206A8169406981420AD2636A1BB100223B
:109EB000032120469847207F40F01000207710E0D3
:109EC000606841F68442B0F86410914203D9B0F85A
:109ED0006600282805D3636A1BB1002203212046AF
:109EE000984716B1701C11D023E0206A816940693F
:109EF000814202D0B8F1000F01D04FF0010A606832
:109F000005F03CFA011D11D1064612E0606805F02B
:109F100035FA011DF8D0B8F1000F07D0206A80692A
:109F200008B1002605E06FF0060602E0BAF1000F66
:109F30000ED0206A016806710020206260700298CD
:109F40000C3110B1084603F067F90020BDE8FE8F20
:109F50004FF0FF30FAE70000636F6E6E20213D2066
:109F60004E554C4C00000000636F6E6E2D3E7374B6
:109F7000617465203D3D204E4554434F4E4E5F5722
:109F80005249544500000000636F6E6E2D3E6375AC
:109F90007272656E745F6D736720213D204E554C63
:109FA0004C000000636F6E6E2D3E7063622E746312
:109FB0007020213D204E554C4C000000636F6E6EAA
:109FC0002D3E63757272656E745F6D73672D3E6DA5
:109FD00073672E772E6F6666736574203C20636FFF
:109FE0006E6E2D3E63757272656E745F6D73672D54
:109FF0003E6D73672E772E6C656E0000636F6E6E1C
:10A000002D3E63757272656E745F6D73672D3E6D64
:10A0100073672E772E766563746F725F636E74203C
:10A020003E2030006C7769705F6E6574636F6E6E92
:10A030005F646F5F77726974656D6F72653A2069EE
:10A040006E76616C6964206C656E677468210000CF
:10A0500010B510F10F0F10D010F10E0F0AD010F143
:10A060000D0F05D010B106A0FBF7A0F8002010BD21
:10A07000074810BD0648401C10BD0548801C10BD97
:10A08000756E68616E646C6564206572726F7200D3
:10A090004842030870B50C00054602D10BA0FBF73F
:10A0A00085F80D48854201D1F3200AE00A48401C9A
:10A0B000854201D1F22004E00748801C854203D18B
:10A0C000F1202070012070BD002070BD65727220EB
:10A0D000213D204E554C4C004842030818B5002243
:10A0E000ADF8002010F001030BD0002909DD10F8B5
:10A0F000014B8DF80140491E03E030F8024B891EE8
:10A1000022440129F9DC002902DD00788DF80000E5
:10A11000BDF800001044010C11FA80F0010C11FA96
:10A1200080F023B1C1B2C0F3072040EA012080B221
:10A1300018BD0000044903480860F6F7E1F9FBF791
:10A1400099FAFEE70000020808ED00E02DE9F04171
:10A15000002854D0810701D02AA00AE0324FA0F194
:10A16000080439688C4203D379680C30884203D9DB
:10A170002EA0FBF71BF82CE02B48083002F0E1FF83
:10A18000207960B3204600F0A9F90546208802F046
:10A1900013FC0646608802F00FFC014620884FF44D
:10A1A0007053002298420DD8608898420AD8A8427D
:10A1B00002D00888A84205D17868864211D07088FC
:10A1C000A8420ED020A0FAF7F1FF1748083002F09D
:10A1D000DDFF02F031FFBDE8F04102F04FBF27A0E4
:10A1E000F1E72271F868844200D2FC60204601F059
:10A1F00075FEBDE8F0410C48083002F0C7BFBDE86D
:10A20000F08100006D656D5F667265653A2073616F
:10A210006E69747920636865636B20616C69676E31
:10A220006D656E7400000000380100206D656D5F83
:10A23000667265653A20696C6C6567616C206D6556
:10A240006D6F7279000000006D656D5F6672656507
:10A250003A20696C6C6567616C206D656D6F727911
:10A260003A206E6F6E2D6C696E6B65643A20646F78
:10A2700075626C6520667265650000006D656D5FD6
:10A28000667265653A20696C6C6567616C206D6506
:10A290006D6F72793A20646F75626C6520667265C5
:10A2A0006500000070B51048104C20F003004FF41A
:10A2B000705520600580002141800171284602F020
:10A2C0007BFB012160600171058045802068E060B2
:10A2D00004F1080002F03CFF002804D0BDE8704003
:10A2E00003A0FAF763BF70BD27C801203801002022
:10A2F0006661696C656420746F2063726561746562
:10A30000206D656D5F6D7574657800002DE9F0470F
:10A3100000280ED0C51C4FF6FC710D404FF4705A4A
:10A320000C2D01D20C2501E0554501D8854202D201
:10A330000020BDE8F0873B4802F003FFDFF8E4802F
:10A34000A8F10808D8F80C0000F0C8F80646C5F5D2
:10A35000705761E0304602F02FFB04460079002878
:10A3600056D12088801B0838A84251D3208805F197
:10A370001401801B08384FF00109884219D3701965
:10A38000083087B2574502D127A0FAF70FFF3846A9
:10A3900002F012FB00210171218801804680278094
:10A3A00084F804900088504505D002F005FB4780F2
:10A3B00001E084F80490D8F80C004646844203D0AB
:10A3C00010E0008802F0F8FA017911B17168884252
:10A3D000F7D1F0607168884204D0007910B117A0FD
:10A3E000FAF7E4FE0F4802F0D1FE601971680830F8
:10A3F000884202D918A0FAF7D9FEA00705D022A0FA
:10A40000FAF7D4FE2CA0FAF7D1FE04F1080090E789
:10A41000304602F0D1FA0688B7429BD8014802F0D4
:10A42000B5FE85E740010020696E76616C696420A5
:10A430006E65787420707472000000006D656D5F49
:10A440006D616C6C6F633A20216C667265652D3EA0
:10A4500075736564000000006D656D5F6D616C6C07
:10A460006F633A20616C6C6F6361746564206D6525
:10A470006D6F7279206E6F742061626F76652072E5
:10A48000616D5F656E642E006D656D5F6D616C6CF6
:10A490006F633A20616C6C6F6361746564206D65F5
:10A4A0006D6F72792070726F7065726C7920616C5B
:10A4B00069676E65642E00006D656D5F6D616C6C23
:10A4C0006F633A2073616E69747920636865636BAA
:10A4D00020616C69676E6D656E74000002490988C1
:10A4E000401A80B270470000380100202DE9F05F6B
:10A4F0000746CC1C4FF6FC7004404FF4705B0C2CEC
:10A5000001D20C2401E05C4529D88C4227D33E4D72
:10A510002868874202D36868874202D33BA0FAF7D3
:10A5200045FE2868874203D36868AA46874204D359
:10A5300002F082FD02F0A2FD16E0A7F10805284610
:10A54000FFF7CCFF06462888801B08381FFA80F9E1
:10A550004C4502D933A0FAF729FE4C4503D94FF0F8
:10A560000000BDE8F09F01D13846FAE7264800F127
:10A57000080002F0E6FD288802F01EFA8046007905
:10A5800030B304F1140048451DD83019083084B2A6
:10A590002888584502D12BA0FAF708FE204602F081
:10A5A0000BFADAF80C20904201D2CAF80C00002114
:10A5B00001712988018046802C800088584502D08E
:10A5C00002F0FAF944801048083002F0DFFDCBE7D2
:10A5D0002888584502D11BA0FAF7E8FD3019083049
:10A5E000DAF80C10B8F8009084B2414504D1204646
:10A5F00002F0E2F9CAF80C00204602F0DDF9002171
:10A600000171A0F80090D6E7380100206D656D5FFC
:10A610007472696D3A206C6567616C206D656D6F51
:10A62000727900006D656D5F7472696D2063616E93
:10A63000206F6E6C7920736872696E6B206D656D2A
:10A640006F727900696E76616C6964206E657874EA
:10A6500020707472000000000D2802D305A0FAF7E4
:10A66000A5BD002904D00A4A52F82000FCF78CBD91
:10A67000704700006D656D705F667265653A2074A5
:10A68000797065203C204D454D505F4D415800008C
:10A69000E842030830B5054D002455F8240000F0C9
:10A6A00007F8641CA4B20D2CF7D330BDE8420308B0
:10A6B0008268002111604168C91C21F00301002259
:10A6C00007E08368521C1B680B608368196003886D
:10A6D000194443889342F4DC7047000010B50D28FC
:10A6E00004D306A0FAF762FD002010BD0B4951F813
:10A6F0002000BDE81040FCF76BBD00006D656D707B
:10A700005F6D616C6C6F633A2074797065203C20DA
:10A710004D454D505F4D415800000000E842030890
:10A7200010B56FF00F0450B159B162B143687BB1FD
:10A730005B680B60406840891080002010BD06A057
:10A7400002E00CA000E013A0FAF730FD204610BD97
:10A750006FF0010010BD00006E65746275665F6485
:10A760006174613A20696E76616C69642062756615
:10A77000000000006E65746275665F646174613A22
:10A7800020696E76616C69642064617461707472B2
:10A79000000000006E65746275665F646174613A02
:10A7A00020696E76616C6964206C656E0000000043
:10A7B00010B504000CD0206820B101F00BFA002085
:10A7C000606020602146BDE810400620FFF744BFCE
:10A7D00010BD10B50620FFF781FF002804D000212E
:10A7E000016041608160C16010BD000010B54FF094
:10A7F000FF3438B14168096839B14160086830B147
:10A80000002010BD03A0FAF7D1FC204610BD0120A6
:10A8100010BD00006E65746275665F6E6578743A8F
:10A8200020696E76616C69642062756600000000C4
:10A8300070B515460E46040013D0206808B101F02B
:10A84000C9F941220021362000F00EFF206070B1CE
:10A85000466020680581206845812068606000208E
:10A8600070BD05A0FAF7A2FC6FF00F0070BD0020CC
:10A870006060401E70BD00006E65746275665F7238
:10A8800065663A20696E76616C696420627566005F
:10A890002DE9F04107460E460720FFF71FFF041E73
:10A8A00022D000252572277007F0F000656010287F
:10A8B00005D0202803D014A0FAF778FC0FE004F1AB
:10A8C00010000A21074602F017FC40B9002104F1EC
:10A8D0000C0002F071FC48B1384602F003FC21463E
:10A8E0000720FFF7B9FE0020BDE8F08104F1140055
:10A8F00002F011FC65704FF0FF30A061C4E908560A
:10A9000025772046F0E700006E6574636F6E6E5F1A
:10A91000616C6C6F633A20756E646566696E656420
:10A92000206E6574636F6E6E5F74797065000000F1
:10A9300010B50A680C460C3207F09EFA002801D1C7
:10A9400094F9040010BD0321AFF3008000B589B075
:10A9500058B100908DF8081029208DF8090069463B
:10A960000548FFF7E5FF09B000BD04A0FAF71EFC9B
:10A970006FF00F00F7E70000ED9502086E65746355
:10A980006F6E6E5F636C6F73653A20696E76616C93
:10A99000696420636F6E6E0000B589B008B139B18B
:10A9A00007E008A0FAF702FC6FF00F0009B000BD45
:10A9B0000C4902910090ADF80C2069460A48FFF757
:10A9C000B7FFF3E76E6574636F6E6E5F636F6E6EF5
:10A9D0006563743A20696E76616C696420636F6E9A
:10A9E0006E00000098430308E998020870B505005E
:10A9F00004D000F061F9040002D004E0002070BD32
:10AA0000284600F05FF8204670BD7CB50446103043
:10AA1000064602F091FBF0B101256946304602F08E
:10AA2000FCFA401C11D02078B5EB101F09D101A908
:10AA30000098FFF72FFB0028EFD1009801F0CAF82B
:10AA4000EBE70098FFF7B4FEE7E7304602F04AFB79
:10AA5000304602F060FB04F11400064602F06CFB85
:10AA600000281FD000256946304602F0D6FA401C67
:10AA700012D001A90098FFF70DFB0028F3D1009C2C
:10AA80002046FFF7C2FF606810B102F059FD656013
:10AA9000204600F017F8E6E7304602F023FB304688
:10AAA00002F039FB7CBD70B5040009D002F0C4FA95
:10AAB00094F908500021217202F0E0FA284670BD96
:10AAC000002070BD70B50446406810B110A0FAF7C0
:10AAD0006DFB04F1100002F02FFB10B118A0FAF783
:10AAE00065FB04F1140002F027FB10B123A0FAF774
:10AAF0005DFB04F10C00054602F056FB284602F00F
:10AB000087FB2146BDE870400720FFF7A5BD000088
:10AB1000504342206D757374206265206465616CDA
:10AB20006C6F6361746564206F757473696465200C
:10AB3000746869732066756E6374696F6E000000D7
:10AB4000726563766D626F78206D757374206265CF
:10AB5000206465616C6C6F63617465642062656616
:10AB60006F72652063616C6C696E672074686973CD
:10AB70002066756E6374696F6E00000061636365C3
:10AB800070746D626F78206D7573742062652064D7
:10AB900065616C6C6F6361746564206265666F7279
:10ABA000652063616C6C696E6720746869732066E8
:10ABB000756E6374696F6E0070B50D4688B011468E
:10ABC000FFF766FE040034D08DF8085069461A4835
:10ABD0000094FFF7ADFE00282BD0606810B117A0DD
:10ABE000FAF7E4FA04F11000054602F0A5FA10B9EC
:10ABF0001BA0FAF7DBFA04F1140002F09DFA10B181
:10AC00001DA0FAF7D3FA04F10C00064602F024FB6B
:10AC100010B922A0FAF7CAFA304602F0C5FA28465F
:10AC200002F060FA21460720FFF716FD002008B069
:10AC300070BD2046FBE70000F99B0208667265655F
:10AC4000696E6720636F6E6E20776974686F7574C4
:10AC50002066726565696E6720706362000000009F
:10AC6000636F6E6E20686173206E6F20726563760D
:10AC70006D626F7800000000636F6E6E2D3E616341
:10AC8000636570746D626F782073686F756C646E45
:10AC9000277420657869737400000000636F6E6E1E
:10ACA00020686173206E6F206F705F636F6D706CD2
:10ACB000657465640000000000B589B0002807D005
:10ACC000009029208DF8090069460248FFF730FE00
:10ACD00009B000BDE19A0208F8B50D0006466FF014
:10ACE0000F041AD000272F60CEB130780121B1EBCC
:10ACF000101F2AD106200097FFF7F0FC040013D0A4
:10AD000000226946304600F0D5F806000FD02146F3
:10AD10000620FFF7A1FC3046F8BD0FA000E016A00A
:10AD2000FAF744FA2046F8BD4FF0FF30F8BD00981E
:10AD300010B918A0FAF73AFA0098206000986060FD
:10AD4000A781A76000202C60F8BD29463046BDE8E9
:10AD5000F840002200F024B86E6574636F6E6E5F79
:10AD6000726563763A20696E76616C696420706FF3
:10AD7000696E7465720000006E6574636F6E6E5F5D
:10AD8000726563763A20696E76616C696420636FE0
:10AD90006E6E00007020213D204E554C4C0000008E
:10ADA0002DE9FC4104464FF0000017460D006FF0FE
:10ADB0000F06009010D0286084B104F11000804686
:10ADC00002F0BAF9761D68B1207F810712D47907A5
:10ADD00010D4C0070ED10BE024A000E02BA0FAF79E
:10ADE000E5F915E02046FFF75EFE002811D10FE0DF
:10ADF000207A98B16946404602F00FF9401C12D102
:10AE00002046FFF750FE002803D1207FC00702D064
:10AE10003046BDE8FC816FF00600FAE70022694683
:10AE2000404602F0D9F820780121B1EB101F0DD176
:10AE300001A90098FFF72EF930B19DF9040010F137
:10AE40000F0FE6D10020E4E7009806E0009810B963
:10AE500015A0FAF7ABF900980068636A028913B18C
:10AE600001212046984700982860EBE76E657463DF
:10AE70006F6E6E5F726563763A20696E76616C699B
:10AE80006420706F696E7465720000006E65746393
:10AE90006F6E6E5F726563763A20696E76616C697B
:10AEA0006420636F6E6E000062756620213D204E47
:10AEB000554C4C00F0B5044689B017460D4610308D
:10AEC00002F03AF930B1207F010607D500F07F008B
:10AED000207721E06FF00A0009B0F0BD3A4629461C
:10AEE0002046FFF75DFF0600F6D12D68380707D42E
:10AEF0000DB1298900E001216A46204600F046F89C
:10AF00000DB13046E8E7F80606D5207F40F0800016
:10AF100020776FF00600DFE7636A1BB10022012192
:10AF200020469847606830B101212046FFF70EFDAA
:10AF30006FF00E00D0E72046FFF7B5FD0028CBD11B
:10AF40006FF00D00C8E7000000B589B038B102917C
:10AF5000009069460548FFF7EBFC09B000BD04A06E
:10AF6000FAF724F96FF00F00F7E700004F9C020892
:10AF70006E6574636F6E6E5F73656E643A20696EA2
:10AF800076616C696420636F6E6E000010B520B14D
:10AF900003780124B4EB131F05D007A0FAF706F9D4
:10AFA0006FF00F0010BD91601060BDE810401146B9
:10AFB0000A48FFF7BDBC00006E6574636F6E6E5F7C
:10AFC000726563765F7463705F706275663A20695C
:10AFD0006E76616C696420636F6E6E000B9C020874
:10AFE0003EB5069C0094CDE90112012201A900F0B2
:10AFF00001F83EBD2DE9F04188B00E9E50B10478B5
:10B0000001256FF00508B5EB141F0BD025A0FAF74A
:10B01000CDF838E02CA0FAF7C9F86FF00F0008B0AF
:10B02000BDE8F081047FA40701D45C0701D50127A6
:10B0300000E0002707B136B30024254607E001EB06
:10B04000C50CDCF804C06444A4451CD86D1C9542B2
:10B05000F5DBB4B1B4F1004F02D3A6B16FF00044F8
:10B06000029100900020ADF80C2004908DF81C3067
:10B07000CDE9054069461B48FFF75AFC050004D09E
:10B080000DE00020CBE74046C9E70EB106983060DE
:10B090002FB90698A04202D013A0FAF787F82846E5
:10B0A000BDE700006E6574636F6E6E5F77726974E2
:10B0B000653A20696E76616C696420636F6E6E2DEF
:10B0C0003E747970650000006E6574636F6E6E5F2C
:10B0D00077726974653A20696E76616C6964206381
:10B0E0006F6E6E00919C0208646F5F777269746581
:10B0F000206661696C656420746F2077726974657D
:10B1000020616C6C20627974657300002DE9F04158
:10B110000400DDE90750069F02D01DB131B106E001
:10B120002CA000E032A0FAF741F81DE0394902B93D
:10B13000384A03B9374B00266660A660DFF8D8C0EE
:10B14000C4F814C0E660A68484F82D60C4E90776CC
:10B15000324F97F800C084F830C02061204600F0DC
:10B1600015F92046A84710B10020BDE8F081B0468F
:10B1700094F83000FF2801D184F8308000267D68E3
:10B1800018E0A54202D126A0FAF710F8761CFF2E8F
:10B1900002DD28A0FAF70AF895F8300094F830108C
:10B1A000884206D1C8B2401C84F83000002DDFD19F
:10B1B00002E02D68002DE4D194F83000FE2806D07E
:10B1C000401C38707868206020467C60CDE787F8A6
:10B1D0000080F7E76E657469665F6164643A2069B0
:10B1E0006E76616C6964206E6574696600000000AB
:10B1F0006E657469665F6164643A204E6F20696EA3
:10B2000069742066756E6374696F6E206769766510
:10B210006E0000009843030885B302087C010020FB
:10B220006E6574696620616C726561647920616421
:10B2300064656400746F6F206D616E79206E657453
:10B240006966732C206D61782E20737570706F7233
:10B25000746564206E756D62657220697320323585
:10B260003500000070B50C46054603F063FE21462C
:10B270002846BDE8704007F0E9B90A68C3689A42F9
:10B2800004D001B90022C26001207047002070473D
:10B29000F8B516460C00054602D10FA0F9F786FF57
:10B2A00016B90DA0F9F782FF20686968884211D0AD
:10B2B00000906868306069463046FFF7D3FF3CB1C4
:10B2C000206868600121284600F02EF80120F8BDB2
:10B2D0000020F6E70020F8BD696E76616C69642095
:10B2E000706F696E746572000A6883689A4204D050
:10B2F00001B90022826001207047002070470000E1
:10B3000001000BD00648406806E090F83020521C3F
:10B31000D2B28A4203D000680028F6D100207047DC
:10B320007C0100207047000070B50D46040002D17A
:10B330000BA0F9F73BFF94F82D0041070ED5C1078C
:10B340000CD0E9070AD06168002907D0000705D5AD
:10B35000211D2046BDE87040FCF710BC70BD000008
:10B360006E657469665F69737375655F7265706F2A
:10B370007274733A20696E76616C6964206E6574CC
:10B38000696600006FF00B00704700002DE9F84F70
:10B390004FF000091E4617460C008246C84600D1F1
:10B3A000114C07B9104F06B90F4EDCB12068C8B177
:10B3B000002525B16A4621465046FFF769FF4A46F7
:10B3C00039465046FFF790FF424631465046FFF758
:10B3D00054FF002D04D16A4621465046FFF758FF1E
:10B3E000BDE8F88F0125E4E7984303080149886028
:10B3F000704700007C01002058B190F82D10CA075A
:10B400000AD001F0FE0180F82D10090704D5FCF7E1
:10B4100023B802A0F9F7CABE704700006E657469D0
:10B42000665F7365745F646F776E3A20696E7661EC
:10B430006C6964206E6574696600000050B190F814
:10B440002D10CA0709D141F0010180F82D10032108
:10B45000FFF76ABF01A0F9F7A9BE70476E6574696E
:10B46000665F7365745F75703A20696E76616C69AA
:10B4700064206E65746966001CB50C4C0920CDE92A
:10B48000000400234FF4007209A10C4808F034FCBA
:10B4900038B10BA0F9F78AFE2068BDE81C4007F020
:10B4A0005BBFBDE81C400CA0F9F780BE2000002067
:10B4B0006F74615F5461736B00000000F1B40208A7
:10B4C000637265617465206F7461207461736B20B1
:10B4D0006F6B210D0A000000637265617465206F57
:10B4E0007461207461736B20657272210D0A000013
:10B4F0001CB503F07DFEC82007F026FD02210120C7
:10B50000FCF724FE28B1C82007F01EFD012005F03D
:10B5100028FB1F4C01A803F0B1FD0028FAD00198C8
:10B52000B0F8AA151BA0F9F741FE61881EA0F9F733
:10B530003DFE019A0120B2F8AA35D2F8AC15FCF70D
:10B5400057FE88B160882188884203D2D4E901017E
:10B5500081421AD3002005F004FBFCF747FE606827
:10B56000FAF75CFC10B9022005F0FBFAA068009025
:10B570006288218812A06368F9F718FE01991DA05E
:10B58000B1F8AA2501F000FCC4E70120ECE70000B7
:10B59000548400206F74612064617461206C656E56
:10B5A0003A2564200D0A00006F7461207061636B9E
:10B5B0006167655F636F756E743A2564200D0A00DC
:10B5C0007061636B2073756D3A25642072656365E5
:10B5D000207061636B3A2564202073756D206C6563
:10B5E0006E3A2564202072656365206C653A256497
:10B5F000200D0A007265636520646174613A000081
:10B60000002200F001B8000070B5A0B1B1F5803F94
:10B6100021D2A1B104898BB214FA81F5ADB29D4259
:10B6200019D3057B2D060CD54268511A00F1100282
:10B63000914210D308E009A0F9F7B8FD0BE0002013
:10B6400070BD42B14268511A41604189194441813B
:10B65000E1180181F3E7012070BD00007020213D59
:10B66000204E554C4C0000002DE9FC5F07469146EA
:10B670000D461046012A0BD0412809D0B0F5C17FF4
:10B680000CD0B2F5207F49D03AA0F9F78FFD54E0F5
:10B690000246002000F0C4F8064668E00026B046E6
:10B6A0000C20FFF71BF8040031D007F1030B2BF03F
:10B6B0000300A0F2EC50404280B2A84200D92846D4
:10B6C00082460020CDE90090E019133020F00301FC
:10B6D00053462A46204600F0FBFA2079800702D024
:10B6E0002BA0F9F763FD40F27B11B1EB9B0F02D168
:10B6F00033A0F9F75BFD7EB1C8F80040A5EB0A0066
:10B700000504A0462D0C4FF00007C9D12FE0A6B1CB
:10B71000304600F05FFA10E02646EFE7F81C20F014
:10B720000301E81C20F00300014489B201F110027A
:10B7300092B2884201D8904202D90020BDE8FC9F15
:10B740001046FEF7E3FD061EF8D00020CDE900907C
:10B75000F019133020F003012B461A46304600F052
:10B76000B7FA3079800702D022A0F9F71FFD3046E2
:10B77000E4E70000706275665F616C6C6F633A208D
:10B780006572726F6E656F757320747970650000F5
:10B79000706275665F616C6C6F633A20706275668B
:10B7A00020712D3E7061796C6F61642070726F70D2
:10B7B00065726C7920616C69676E656400000000D9
:10B7C000504255465F504F4F4C5F42554653495A81
:10B7D00045206D75737420626520626967676572C4
:10B7E000207468616E204D454D5F414C49474E4D78
:10B7F000454E5400706275665F616C6C6F633A20F1
:10B80000706275662D3E7061796C6F616420707234
:10B810006F7065726C7920616C69676E6564000099
:10B820002DE9FC4114460E460746412A04D0012C5E
:10B8300002D00AA0F9F7BAFC0B20FEF74FFF050073
:10B840004FF0000008D0CDE9004033461A46394693
:10B85000284600F03DFA2846BDE8FC81696E766115
:10B860006C696420706275665F74797065000000B1
:10B870007CB51D461646DDE90634C01C20F00302E7
:10B880005018A04201D900207CBD0BB1D41800E0B3
:10B8900000240220CDE900600B461A4621462846C6
:10B8A00000F016FA28467CBD70B50D4600B125B9EA
:10B8B000BDE870400EA0F9F779BC0446006820B1DD
:10B8C00021892A8911442181F7E7208961898842E9
:10B8D00007D015A0F9F76AFC206810B11EA0F9F78F
:10B8E00065FC2089298908442081256070BD0000FD
:10B8F000286820213D204E554C4C29202626202802
:10B900007420213D204E554C4C29202870726F67C1
:10B9100072616D6D65722076696F6C6174657320FC
:10B920004150492900000000702D3E746F745F6C17
:10B93000656E203D3D20702D3E6C656E20286F6643
:10B94000206C617374207062756620696E20636874
:10B9500061696E2900000000702D3E6E65787420CC
:10B960003D3D204E554C4C0010B50C46FFF79CFF5A
:10B970002046BDE8104000F017BA002102E0491C43
:10B98000006889B20028FAD10846704770B515469C
:10B990000A462989FFF768FE040008D0294600F00E
:10B9A00013F810B103A0F9F701FC204670BD002088
:10B9B00070BD0000706275665F636F7079206661AC
:10B9C000696C6564000000002DE9F0474FF0000746
:10B9D0000C4605003E466FF00F0904D01CB12889C3
:10B9E0002189884201D226A034E06FF0050A6889D7
:10B9F0006189C01B891B884201D3884600E08046CC
:10BA000060684246811968683844F4F788FC6889A0
:10BA100047444644B84202D225A0F9F7C7FB6089E3
:10BA2000B04202D228A0F9F7C1FB6089B04201D828
:10BA3000246800266889B84202D12D6800273DB1EC
:10BA40006CB160892189884209D1206870B906E00B
:10BA50009CB124A0F9F7AAFB4846BDE8F08755B190
:10BA600068892989884206D1286820B121A0F9F780
:10BA70009DFB5046F1E7002CB9D10020EDE7000016
:10BA8000706275665F636F70793A20746172676582
:10BA900074206E6F742062696720656E6F756768C9
:10BAA00020746F20686F6C6420736F75726365001B
:10BAB0006F66667365745F746F203C3D20705F74C1
:10BAC0006F2D3E6C656E00006F66667365745F6611
:10BAD000726F6D203C3D20705F66726F6D2D3E6C05
:10BAE000656E0000705F746F20213D204E554C4CF8
:10BAF00000000000706275665F636F70792829200E
:10BB0000646F6573206E6F7420616C6C6F7720704A
:10BB100061636B6574207175657565732100000044
:10BB20002DE9F047002716468946B84620B1B9F1FD
:10BB3000000F03D0044625E015A000E01CA0F9F793
:10BB400035FB0020BDE8F0872BB16089984202D810
:10BB5000181A83B215E06089C01A85B2B54200D9BF
:10BB6000354660682A46C11809EB0700F4F7D7FB91
:10BB700008EB05001FFA80F8781987B2701B86B2AF
:10BB8000002324680EB1002CDED14046DAE7000025
:10BB9000706275665F636F70795F706172746961FE
:10BBA0006C3A20696E76616C69642062756600008B
:10BBB000706275665F636F70795F706172746961DE
:10BBC0006C3A20696E76616C69642064617461709E
:10BBD000747200002DE9F041040006D0002501F048
:10BBE0002BFA0746A07B30B108E01DA0F9F7DEFA7A
:10BBF0000020BDE8F0811DA0F9F7D8FAA07B401E17
:10BC0000C6B2A673384601F039FADEB9207B617BF3
:10BC1000266800F00F00890708D5206910B919A01F
:10BC2000F9F7C4FA21692046884707E002280BD0BB
:10BC300001280CD080B11CA0F9F7B8FA6D1CEDB248
:10BC40003400CCD12846D4E721460C2001E021461F
:10BC50000B20FEF701FDF1E72046FEF777FAEDE74E
:10BC60007020213D204E554C4C00000070627566DE
:10BC70005F667265653A20702D3E726566203E20D3
:10BC80003000000070632D3E637573746F6D5F66E6
:10BC90007265655F66756E6374696F6E20213D2005
:10BCA0004E554C4C00000000696E76616C69642052
:10BCB0007062756620747970650000000122AFF330
:10BCC0000080002902DA494200F08CB8FFF79CBCE2
:10BCD00070B50024DDE90456C0E9004102814381CA
:10BCE0000573467301218173C47370BD70B50D4631
:10BCF000040002D119A0F9F759FA2089A8422CD9D9
:10BD0000401B86B209E0281A85B22089801B208159
:10BD1000246814B917A0F9F749FA6089A842F2D348
:10BD2000207B000711D16089A8420ED0607B80077C
:10BD30000BD4A088001B284481B22046FEF7D6FB16
:10BD4000040002D111A0F9F731FA6581258120683C
:10BD500008B1FFF73FFF0020206070BD706275667C
:10BD60005F7265616C6C6F633A207020213D204EDC
:10BD7000554C4C00706275665F7265616C6C6F63E8
:10BD80003A207120213D204E554C4C006D656D5F71
:10BD90007472696D2072657475726E6564207120AD
:10BDA0003D3D204E554C4C0010B504000ED001F026
:10BDB00043F9A17B491CA17301F060F9A07B002825
:10BDC00004D1BDE8104002A0F9F7F0B910BD0000A1
:10BDD0007062756620726566206F766572666C6F3C
:10BDE0007700000010B520B1B1F5803F03D30120EA
:10BDF00010BD0BA005E039B143898AB2934205D248
:10BE00000AA0F9F7D3F9F2E7002010BD44682144F5
:10BE10004160991A41810189891A0181F4E7000082
:10BE20007020213D204E554C4C000000696E63721D
:10BE3000656D656E745F6D61676E697475646520AC
:10BE40003C3D20702D3E6C656E00000070B50446D0
:10BE500000680025406810B117A0F9F7A7F920681D
:10BE6000007800F0F000102815D0202801D0FA202A
:10BE700020E0284606F011FC216848602168C0B126
:10BE80000978222901D101210174226812495068E0
:10BE900006F006FC09E0284603F0A2F82168486095
:10BEA000216830B1084601F01FF82068406800287A
:10BEB00001D1FF20207170BD7063625F6E65773ABB
:10BEC0002070636220616C726561647920616C6CC2
:10BED0006F6361746564000069CC02082DE9F0416C
:10BEE000284E04463068844202D227A0F9F75EF952
:10BEF0007068844202D32AA0F9F758F9207910B16A
:10BF00002EA0F9F753F920884FF47058404502D914
:10BF100031A0F9F74BF9208800F04EFD0546AC4200
:10BF200015D0287998B97068854210D0F068A84279
:10BF300000D1F460288820802888404507D020461A
:10BF4000FEF7CCFA0746288800F036FD4780608867
:10BF500000F032FDA04212D0017900290FD1F16822
:10BF6000A14200D1F060218801802188414506D09E
:10BF7000FEF7B4FA0546208800F01EFD4580BDE8B6
:10BF8000F081000038010020706C75675F686F6C8D
:10BF900065733A206D656D203E3D2072616D000035
:10BFA000706C75675F686F6C65733A206D656D20A6
:10BFB0003C2072616D5F656E64000000706C756797
:10BFC0005F686F6C65733A206D656D2D3E757365A6
:10BFD00064203D3D20300000706C75675F686F6CB9
:10BFE00065733A206D656D2D3E6E657874203C3D1D
:10BFF000204D454D5F53495A455F414C49474E4599
:10C000004400000010B5040002D119A0F9F7CEF8E1
:10C010006078012802D0042805D00EE001212046D6
:10C02000FDF79EFE09E0206A18B1417A09B1491E68
:10C03000417201212046FDF73BFB217FC80614D544
:10C04000606890B1B0F8642041F684439A420CD9FC
:10C05000B0F86600282808D201F0EF002077636A64
:10C060001BB10022022120469847002010BD00008D
:10C07000636F6E6E20213D204E554C4C0000000039
:10C080002DE9F04391B00446402101A8F4F76EF980
:10C090002246102101A8F9F7BFFC05460024144EE2
:10C0A0000DF104094FF020080BE004EBC40030440C
:10C0B00059F8242007460FA1F9F788F887F8088077
:10C0C000641CAC42F1D30D484DB10949009605EB13
:10C0D000C503C0690AA26039F9F768F802E0006A8E
:10C0E000F9F764F808A0F9F761F811B0BDE8F0833A
:10C0F000E04F02202530386C78000000AC43030884
:10C100002E617866000000000D0A00002DE9F04164
:10C11000184E0F460446F5683068001D06F00EFD07
:10C1200038B9306890F82C1001208840316981437B
:10C130003161601C07D137B13168BDE8F0410E486C
:10C14000091D06F07DBD30682C44AC424460316866
:10C1500005D2B06BBDE8F041091D06F059BD706B0A
:10C16000091D06F055FDB06A844200D2B462BDE8F4
:10C17000F0810000B4000020D08700202DE9F041BC
:10C18000054606F069FD2D4EB068401CB060306871
:10C190002B4F10B1706930B32BE03560B0680128C7
:10C1A00027D1002404EB840007EB800006F022FD79
:10C1B000641C202CF6D3234806F01CFD21481430C3
:10C1C00006F018FD1F48283006F014FD1D483C30CD
:10C1D00006F010FD1B48503006F00CFD1948706346
:10C1E0001430B06305E03068E96AC06A884200D85C
:10C1F0003560706A0121401C7062E86A32698140D2
:10C200001143316100EB800007EB8000291D06F02F
:10C2100017FD06F05BFD706900280CD03068E96AF4
:10C22000C06A884207D208494FF080500860BFF3C7
:10C230004F8FBFF36F8FBDE8F0810000B400002086
:10C24000008500208087002004ED00E010B506F096
:10C2500003FD0E4C2068A0B90D4806F0CBFC0C483D
:10C26000143006F0C7FC0A48E06014302061002258
:10C270000C210A2007F002FA206010B105A106F097
:10C28000F5FDBDE8104006F021BD0000F0000020E3
:10C29000E4870020546D72510000000070B5124E0A
:10C2A000124D1CE007F0C2F8306820B1002407F0FE
:10C2B00083FEA4B901E00124F9E706F0CDFCF068A3
:10C2C000C468201D06F03AFCA868401EA860686893
:10C2D000401E686006F0FAFC204600F052F86868DC
:10C2E0000028DFD170BD0000BC870020B400002012
:10C2F00030B4026C0B46002A0BD0C1681144C160F7
:10C300004468A14201D30168C16030BC1846F4F70B
:10C3100006B830BC70472DE9F041856B17460446DE
:10C320000026026C82B1C7B1E068F3F7F8FFE1685C
:10C33000206C091AE1602268914202D26168081AF1
:10C34000E060022F16D017E02068A8B9606807F0F7
:10C3500089FD0646002060600EE0A068F3F7DFFF6D
:10C36000216CA0680844A0606168884204D32068FA
:10C37000A06001E005B16D1E6D1CA5633046BDE8EF
:10C38000F08110B50446006B06F0D0FC2046BDE8F5
:10C39000104006F0CBBC000010484FF4A03142071B
:10C3A00006D0C01D0D4920F00700411AC1F5A0318B
:10C3B0000B4A00230144C2E900030839103A21F076
:10C3C000070111604B600B600B1AC0E9001393600A
:10C3D0004FF000405360D060704700000C88002090
:10C3E00014010020074E4FF08054074DFFF756FF11
:10C3F00030680128FAD92C60BFF34F8FBFF36F8FDD
:10C40000F4E700000085002004ED00E02DE9F0478E
:10C41000DDE909840E4682466FF00301206B01EBD3
:10C4200082010844089D20F007079946780705D047
:10C4300040F22B3219A11FA0F8F7B8FE00202218F5
:10C44000315C82F83410315C11B1401C1028F6D3F5
:10C45000002684F84360202D00D31F25E562C4E93F
:10C460001156201D06F0D1FB04F1180006F0CDFB9B
:10C470002461C5F120006462A061E66484F8506024
:10C480004A465146384600F031FB2060B8F1000FB3
:10C4900001D0C8F80040BDE8F08700002E2E5C46B1
:10C4A00072656552544F535C7372635C7461736B55
:10C4B000732E63004572726F723A25732C25640DDA
:10C4C0000A00000030B5114900E011460A688242B6
:10C4D000FBD34B685C18844203D140681844486021
:10C4E000084643681C18944209D1084C103C246843
:10C4F000A24209D052681A4442600A681268026077
:10C50000814200D0086030BD0460F9E714010020CA
:10C5100070B5002441600B4D0061914206D8D11ADC
:10C520008269914206D2011D286907E09A4203D22E
:10C53000994201D3012403E0011DE86806F068FB7D
:10C54000204670BDF000002010B5044606F084FBC4
:10C55000A06B20B1002406F0B9FB204610BD0124D9
:10C56000F9E700002DE9F34100980F460026846C9E
:10C570002CB940F6D11216A11BA0F8F717FEA06B3C
:10C58000E16B884205D340F6D21211A116A0F8F74C
:10C590000DFEA06BE16B88420CD294F945503A46EF
:10C5A00069462046FFF7B7FE0646681C05D06D1C9D
:10C5B00084F845503046BDE8FC81606A0028F9D017
:10C5C00004F1240007F0AAFC0028F3D00126F1E7CB
:10C5D0002E2E5C4672656552544F535C7372635CD9
:10C5E00071756575652E63004572726F723A2573B9
:10C5F0002C25640D0A000000F8B5054614480E46C7
:10C60000C068C068C468201D06F098FAE069012877
:10C6100017D1A0692B46411932462046FFF778FF13
:10C6200078B100200346014600902A46204607F0D4
:10C63000AFFD30B907494FF4027201F11C00F8F761
:10C64000B5FD616A01B02046BDE8F0400847000032
:10C65000F0000020EC40030870B586B02C4E4CE092
:10C660000198002849DB039C606910B1201D06F089
:10C6700065FA04A800F0AAF8054601980A283CD2F9
:10C68000DFE800F00505053B273805053B27029844
:10C69000A169034601442A462046FFF739FF0028D6
:10C6A0002BD0616A20468847E069012825D1002007
:10C6B00000900298A169002342181946204607F00D
:10C6C00067FDD0B940F2213212A119A0F8F76EFD32
:10C6D00013E00298A06128B94FF44E720DA114A086
:10C6E000F8F764FDA0692B4641191A462046FFF76A
:10C6F0000FFF02E0204606F019FB00231A4601A9AD
:10C70000306806F0FBFF0028AAD106B070BD00001B
:10C71000F00000202E2E5C4672656552544F535C2B
:10C720007372635C74696D6572732E630000000040
:10C730004572726F723A25732C25640D0A00000051
:10C74000F8B50D46064606F071FE684600F03EF864
:10C750000446009810B107F02FFCF8BD1148ADB1A8
:10C7600001690968D9B10025311B2A46006806F025
:10C77000C9FB07F021FC0028EFD10B494FF0805096
:10C780000860BFF34F8FBFF36F8FF8BDA642EBD8A1
:10C7900007F012FC21463046FFF72EFFF8BD0125B9
:10C7A000E2E70000F000002004ED00E00648416BE5
:10C7B000096829B1416BC968C968496881627047D5
:10C7C0004FF0FF31FAE70000B400002070B50546D5
:10C7D00007F0CCFA064E0446B068844203D200F05B
:10C7E00009F8012000E0002028602046B46070BDF8
:10C7F000F0000020F8B5184E26E0C068C46805684F
:10C80000201D06F09BF9616A20468847E0690128EF
:10C810001AD1A0692844A84206D924616060211D6C
:10C82000F06806F0F5F90FE000200346014600909D
:10C830002A46204607F0ACFC30B9084940F2923253
:10C8400001F11C00F8F7B2FCF06801680029D4D1AE
:10C850003169C6E90310F8BDF0000020EC40030880
:10C8600008484068401C05D040F20F1206A110A0F5
:10C87000F8F79CFC502080F31188BFF34F8FBFF373
:10C880006F8FFEE71C0100202E2E5C4672656552FC
:10C89000544F535C706F72745C525644535C4152F7
:10C8A0004D5F434D34465C706F72742E6300000020
:10C8B0004572726F723A25732C25640D0A000000D0
:10C8C00070B50025040005D140F2816207A10DA0DA
:10C8D000F8F76CFC0F496069884205D1A06A2839D5
:10C8E000884201D000B90125284670BD2E2E5C4635
:10C8F00072656552544F535C7372635C7461736B01
:10C90000732E63004572726F723A25732C25640D85
:10C910000A000000D0870020084CE068016839B1A7
:10C92000002139B10020FFF70BFFFFF795FEF4E778
:10C930000121F6E7C0680068F5E70000F00000207C
:10C940002DE9F041044606F087F994F9455004F1C9
:10C95000240610E0A06C20B100212046FFF702FE63
:10C9600004E0606A48B1304607F0D8FA08B106F032
:10C970008BFB6D1E6DB2002DECDC4FF0FF3684F8A2
:10C98000456006F0A3F906F067F994F9445004F104
:10C99000100709E0206948B1384607F0BFFA08B12E
:10C9A00006F072FB6D1E6DB2002DF3DC84F844605E
:10C9B000BDE8F04106F08AB90149096808447047AA
:10C9C000380100202DE9F0410546002606F02EFD35
:10C9D000324F386808B9FFF7DFFCF86805424FD1DD
:10C9E000002D4DD0083568070BD005F00700C0F1C9
:10C9F00008000544680704D0BF2229A131A0F8F738
:10CA0000D5FB002D3CD07868854239D823491031B8
:10CA10000846046801E0214604466068A84202D244
:10CA200020680028F7D13868B846844228D00E68BC
:10CA30002068086060680836401B10280ED9671906
:10CA4000780704D0EC2216A11EA0F8F7AFFB6068AF
:10CA5000401B786038466560FFF734FD6168D8F8A0
:10CA600004004246401AC8F80400D8F8083098423A
:10CA700000D29060D8F80C0001430020C4E9000106
:10CA800007F09AFA700705D04FF4967204A10DA032
:10CA9000F8F78CFB3046BDE8F0810000040100206F
:10CAA0002E2E5C4672656552544F535C706F7274E3
:10CAB0005C4D656D4D616E675C686561705F342EBD
:10CAC000630000004572726F723A25732C25640D65
:10CAD0000A0000000449086818B10868826C521CFA
:10CAE0008264086870470000B400002010B5031F7E
:10CAF0004FF080741C601B1F21F001011960191F89
:10CB0000044B0B6014390A60091F6FF002024438AD
:10CB10000A6010BD61C8020810B508A0F8F746FB0E
:10CB20000AA0F8F743FB4FF47A7006F00DFA0C49AF
:10CB300072B60A480860BFF34F8F10BD0D0A5B49FB
:10CB40004E464F5D203E3E2000000000737973206A
:10CB50007265626F6F74200D0A0000000400FA0510
:10CB60000CED00E02DE9F0411E4615460F0004468D
:10CB700002D11DA0F8F71AFB14B924A0F8F716FB90
:10CB800016B12AA0F8F712FB7CB16068B84202D057
:10CB90002CA0F8F70BFB04F11000064600F0CCFACD
:10CBA00038B17DB129462D890EE06FF00500BDE852
:10CBB000F081B5B12989384603F0EAFD2846FFF730
:10CBC00009F80EE027490025304600F0A7FA10B119
:10CBD0004FF0FF30EBE7636A1BB12A460021204685
:10CBE00098470020E3E70000726563765F74637026
:10CBF000206D7573742068617665206120706362B2
:10CC000020617267756D656E7400000072656376F1
:10CC10005F746370206D7573742068617665206140
:10CC20006E20617267756D656E74000065727220AA
:10CC3000213D204552525F4F4B20756E68616E64F6
:10CC40006C656400726563765F7463703A20726528
:10CC5000637620666F722077726F6E6720706362F2
:10CC6000210000004A4203082DE9F0471F46DDF885
:10CC7000208016460C00054602D11EA0F8F796FA51
:10CC800015B925A0F8F792FA15B36868A04202D04A
:10CC900029A0F8F78BFA05F11000814600F04CFA54
:10CCA000B0B10620FDF71AFD040011D026606660C1
:10CCB0009FB13868A060A4F80C80368921464846A8
:10CCC00000F02CFA58B12046BDE8F047FDF770BDE2
:10CCD0003046BDE8F047FEF77DBF0020EAE76B6A0B
:10CCE000002B05D032462846BDE8F0470021184702
:10CCF000BDE8F087726563765F756470206D75734B
:10CD000074206861766520612070636220617267BB
:10CD1000756D656E74000000726563765F75647092
:10CD2000206D757374206861766520616E20617274
:10CD300067756D656E740000726563765F7564700B
:10CD40003A207265637620666F722077726F6E6725
:10CD50002070636221000000084882B0016841F041
:10CD6000400101600068074900F04000009004485D
:10CD70000860084602B0F6F7B6BA00003438024040
:10CD8000000806507402002070B50E460146154694
:10CD900008A0F8F70BFA002405E0315D06A0F8F7CB
:10CDA00005FA641CA4B2AC42F7D3BDE8704004A0FD
:10CDB000F8F7FCB925733A002530327820000000DE
:10CDC0000D0A000008B505211548F8F7D7FFADF8A2
:10CDD000000000210420FBF7B9F9B0B10523104A87
:10CDE00000210420FBF704FA78B102236A460521EA
:10CDF0000420FBF7FDF940B1FBF7F8F905220849DB
:10CE000008A0FFF7C1FF012008BDFBF7EFF90BA059
:10CE1000F8F7CCF90CA0F8F7C9F9002008BD00001C
:10CE2000710000207361766520627573696E6573A9
:10CE3000732073747261746567793A000D0A5B45FB
:10CE400052525D203E3E200073617665206275730C
:10CE5000696E657373207374726174656779206598
:10CE600072726F720D0A000070B51546040005D08D
:10CE70006078012806D0042809D00CE012A0F8F749
:10CE800095F91EE001212046FCF76AFF03E001212D
:10CE90002046FCF70DFC606898B1B0F8641041F6CC
:10CEA000844291420DD9B0F86600282809D2207F2B
:10CEB00000F0EF002077636A1BB12A46022120466A
:10CEC0009847002070BD0000636F6E6E20213D20EA
:10CED0004E554C4C0000000010B5FBF71FF90149FE
:10CEE000086010BD7800002010B544680146204657
:10CEF00000F0C4FB0949204603F0C2FB0849204664
:10CF000003F0E2FE02220749204602F09FFE20467F
:10CF1000BDE81040044901F061BA000065CB020889
:10CF200069CE020805C002080D73020804480168B2
:10CF30000268090E42F08072026002480170704778
:10CF40007438024070000020F8B50D468AB20646DB
:10CF500001460DA0FFF718FF304669460096F7F727
:10CF600065FB0446A52807D00BA0F8F71FF921465A
:10CF70000CA0F8F71BF9F8BD3046A9B2F8F7B4FBDE
:10CF800013A0F8F713F9F8BD746370207265637627
:10CF900020646174613A00000D0A5B4552525D20C5
:10CFA0003E3E200074637020636F6D6D6F6E207065
:10CFB00061636B6167652068656164206572726F8B
:10CFC00072202020686561643A25303278000000C4
:10CFD0006C6C6C0D0A0000002DE9F84317460C003C
:10CFE000804600D16C4600F0D7F805464FF0FF367A
:10CFF0000FB13A4600E0324600232146D8F800003F
:10D0000006F07CFB012804D0002020603046BDE8FB
:10D01000F88300F0C1F8401BF9E708B501B969468B
:10D02000002300681A4606F069FB012802D04FF081
:10D03000FF3008BD002008BD10B505F00DFE012031
:10D0400010BD2DE9F041054600680F464FF0FF3650
:10D0500068B106F08BFE04460FB13A4600E0324656
:10D0600000231946286806F049FB012802D0304603
:10D07000BDE8F08106F07AFE001BF9E705F026BE58
:10D080002DE9F04100F088F80C4F05464FF00048BC
:10D090003968002910D048682A1A42450CD20A681B
:10D0A0003A60D1E9024678600A20FDF7D5FA002CF3
:10D0B000EED03046A047EBE7BDE8F081CC01002080
:10D0C0000020064A014602EBC003596042F83010C6
:10D0D000401C0428F7DB0248018070472C4F0220D7
:10D0E0001002002010B50446006805F039FD2068E4
:10D0F000BDE8104005F0CCBE10B50B46044600223A
:10D100000421184606F0BAFA206008B1002010BDCC
:10D110004FF0FF3010BD00210160704713B50023B0
:10D1200000681A4601A906F003FC012802D04FF05E
:10D13000FF301CBD00201CBD0068002800D001206D
:10D140007047002300685A1E194606F0D7BA00003F
:10D1500010B50446012006F07FFA206008B10020D7
:10D1600010BD03A0F8F722F84FF0FF3010BD00000B
:10D170005B7379735F617263685D3A6E6577206D8A
:10D1800075746578206661696C210A000023006867
:10D190001A46194606F0CCBB10B506F0E7FD01496A
:10D1A000486010BD1002002010B50446006805F06C
:10D1B0006FFE0020206010BD70B504460D460129A9
:10D1C0000AD803220021012006F058FA2060012D20
:10D1D00006D100F021F803E0084606F00DFA2060C1
:10D1E000206808B1002070BD02A0F7F7DFFF4FF004
:10D1F000FF3070BD5B7379735F617263685D3A6E17
:10D2000065772073656D206661696C210A000000F6
:10D21000002101607047000010B5002300681A4625
:10D22000194606F085FB012804D0BDE8104002A095
:10D23000F7F7BCBF10BD00005B7379735F61726369
:10D24000685D3A73656D207369676E616C20666115
:10D25000696C210A000000000068002800D001204D
:10D2600070470000FEB50C46002106460291089862
:10D2700002A91546CDE900019AB22B463146204657
:10D2800006F03AFD0146012804D003A0F7F78EFF0F
:10D290000020FEBD0298FEBD5B7379735F6172630F
:10D2A000685D3A637265617465207461736B2066B2
:10D2B00061696C216572723A25236C780A0000005E
:10D2C00070B515460E460446B0F1804F02D306A055
:10D2D000F7F76CFFFFF760FF20442A463146BDE8B0
:10D2E000704000F01DB8000054696D656F757420C2
:10D2F00074696D6520746F6F206C6F6E672C206D84
:10D300006178206973204C5749505F55494E54331A
:10D31000325F4D41582F34206D73656373000000F8
:10D3200070B5044615460E460A20FDF7D7F978B1C8
:10D330000021C5600F4A80E85200116831B14B6886
:10D34000E51A4FF000439D420FD30160106070BD9D
:10D35000BDE8704008A0F7F729BF5568651B9D42DE
:10D3600002D30260086070BD11460A68002AF8D036
:10D37000F3E70000CC0100207379735F74696D6579
:10D380006F75743A2074696D656F757420213D2046
:10D390004E554C4C2C20706F6F6C204D454D505F9E
:10D3A0005359535F54494D454F5554206973206577
:10D3B0006D7074790000000070B5064D012405EB16
:10D3C000C40255F834000449FFF77AFF641C052CA9
:10D3D000F5D370BD704303089194020810B5084C52
:10D3E000206848B1FFF7D8FE21684968081AB0F1F3
:10D3F000004F00D3002010BD4FF0FF3010BD0000E3
:10D40000CC0100202DE9FF5F8946040003D0207D78
:10D41000012806D008E004B034A0BDE8F05FF7F7BB
:10D42000C5BE39A0F7F7C2FE207D0A2839D0216D8C
:10D4300003910025DFF80481D4F824B0D4F810A0BB
:10D44000D4F88C702E46B8B34D46E68A214608F1D2
:10D45000180002F085FB012188F80010206F08B148
:10D4600003F062FBE06E08B103F05EFB55B1208B68
:10D47000211D0091CDE9016023465A4618460399C3
:10D4800003F0F0FA204601F001F8002F2BD004B091
:10D490005046BC46BDE8F04F6FF00C015DF804EB60
:10D4A0006047264821461C3002F05AFB04B0204653
:10D4B000BDE8F05F00F0EABFE08A0028CED0D8F8DF
:10D4C0001000A0420AD1C068C8F8100008E0C16886
:10D4D000A14202D1E168C16002E008460028F6D10D
:10D4E0000020E060BAE7BDE8FF9F00007463705F52
:10D4F0006162616E646F6E3A20696E76616C696418
:10D500002070636200000000646F6E277420636106
:10D510006C6C207463705F61626F72742F746370DF
:10D520005F6162616E646F6E20666F72206C6973FA
:10D5300074656E2D70636273000000008801002026
:10D540000121FFF75FBF002803D0027D012A00D12F
:10D55000816170472DE9F04105460120FDF7BEF8D5
:10D56000434E04005AD1B06909E0418BC4680A07F0
:10D5700004D521F00801418300F04CFB204600282F
:10D58000F3D100221346F468F06906E0016A611ADB
:10D59000914201D30A460346C0680028F6D113B170
:10D5A0001846FFF7CDFF0120FDF798F8040035D1AC
:10D5B000092001F0ABFB0120FDF790F804002DD10C
:10D5C000082001F0A3FB0120FDF788F8040025D115
:10D5D00028467F2D00D97F20D8B1401EC3B2002439
:10D5E0002246F768B0690EE0417D994206D309D121
:10D5F000D0F820C0A7EB0C0CA44503D3026A0B465D
:10D60000BC1A0246C0680028EED112B11046FFF7DE
:10D6100097FF0120FDF762F8040025D09821F2F76A
:10D62000A5FE657543F60811A4F8641042F6A050F3
:10D6300060852085FF20E0724FF40670608606202A
:10D64000A4F84000E087C01F20860120A4F848000D
:10D65000F0682062B078A077A4F84A100548C4F8B2
:10D6600080000548C4F890002046BDE8F081000025
:10D6700088010020C506030800DD6D00002800D0E9
:10D680000161704770B5134DEC68002C1FD00A2063
:10D6900005F05AFC2046FDF756F90A2005F054FC27
:10D6A0002046FDF7A3F9002028700BA0F7F77EFDB8
:10D6B0000DA0F7F77BFD11A0F7F778FD13A0F7F7A2
:10D6C00075FDA86805F048FE686805F045FE012074
:10D6D000687070BD880000200D0A5B494E464F5DA2
:10D6E000203E3E2000000000746370206469736374
:10D6F0006F6E6E656374200D0A0000000D0A5B44B6
:10D70000454255475D203E3E200000007463702076
:10D7100072656376207461736B2073757370656EC8
:10D7200064200D0A0000000008B540F6B83600225B
:10D7300011461020FDF740FA040013D02048009055
:10D7400041F6417269462046FDF726F9002814D0BB
:10D750001CA0F7F72BFD1FA0F7F728FD2046FDF7CB
:10D7600045F905E017A0F7F721FD22A0F7F71EFD08
:10D770002BA0F7F71BFD2EA01CE0354D28A0EC6078
:10D78000F7F714FD33A0F7F711FD642005F0DCFB7B
:10D79000012028703948F7F709FD39A0F7F706FD91
:10D7A000A86805F015FD686805F0D6FD1CA0F7F720
:10D7B000FDFC39A0F7F7FAFC304605F0C5FBB6E7EB
:10D7C000C0A81F1D0D0A5B44454255475D203E3EE3
:10D7D000200000006E6574636F6E6E5F636F6E6E27
:10D7E000656374206973206661696C2121210D0ACB
:10D7F000000000005B54435020436C69656E745D0B
:10D800006E6574636F6E6E5F6E65773A20696E76D3
:10D81000616C696420636F6E6E200D0A0000000069
:10D820000D0A5B494E464F5D203E3E200000000041
:10D8300054435020526565737461626C697368204B
:10D840006120636F6E6E656374696F6E200D0A00F0
:10D850008800002074637020436F6E6E65637420CF
:10D86000736572766572206973207375636365737F
:10D870007366756C2121210D0A000000FCD6020898
:10D880007463702072656376207461736B207265B7
:10D8900073756D65200D0A00544350205265657301
:10D8A0007461626C697368206120636F6E6E65637A
:10D8B00074696F6E207365727665720D0A000000E0
:10D8C000F8B5064611480D464FF0FF34C068B0B1B8
:10D8D0000021009101232A463146FDF781FB040017
:10D8E00006D00BA0F7F762FC0DA10EA0F7F75EFCC7
:10D8F0002A46314613A0FFF747FA2046F8BD04A098
:10D90000F7F754FC13A0F7F751FCF6E78800002066
:10D910000D0A5B44454255475D203E3E2000000015
:10D92000000000007463703A206E6574636F6E6E61
:10D930005F77726974653A206572726F7220222572
:10D9400073220A007463702073656E6420646174CE
:10D95000613A00007463702073656E6420657272B2
:10D960006F720D0A000000001CB516490520CDE9B4
:10D9700000014FF400740023224613A1174806F05B
:10D98000BBF908B116A000E01DA0F7F70FFC0D4988
:10D990000720091DCDE900010023224620A12448CB
:10D9A00006F0AAF948B123A0F7F700FC0548001FCC
:10D9B0008068BDE81C4005F0CFBCBDE81C4024A039
:10D9C000F7F7F4BB8C0000207463705F636F6E6EBA
:10D9D0006563745F5461736B0000000029D702080F
:10D9E0006372656174652074637020636F6E6E6529
:10D9F0006374207461736B206F6B210D0A0000004B
:10DA00006372656174652074637020636F6E6E6508
:10DA10006374207461736B20657272210D0A0000BB
:10DA20007463705F726563655F5461736B000000BF
:10DA30001507030863726561746520746370207252
:10DA4000656376207461736B206F6B210D0A000093
:10DA500063726561746520746370207265637620FB
:10DA60007461736B20657272210D0A0010B558B194
:10DA7000017D012903D0418B41F010014183BDE8B4
:10DA80001040012100F012B802A0F7F78FFB6FF0F1
:10DA90000F0010BD7463705F636C6F73653A20692B
:10DAA0006E76616C6964207063620000FEB50D469D
:10DAB000040002D13FA0F7F779FB2900454D4FF054
:10DAC00000064FF001073BD0207D042801D0072835
:10DAD00036D1606F20B9208DA0F53451A0392FD0F8
:10DAE000A07EC00602D43CA0F7F760FB228BE18A3F
:10DAF000201D8DE8070023461846626A216D02F05A
:10DB0000B1FF204601F0FAFFA869A04209D1C06820
:10DB1000A86108E0C168A14202D1E168C16002E0E9
:10DB200008460028F6D13348E6602F700068A0420E
:10DB300002D103F0EFFC34E0204600F0A7FC30E017
:10DB4000207D40B101281AD002282CD02046BDE803
:10DB5000FE4000F05FB8E08A0028EDD02869A042BE
:10DB600009D1C068286108E0C168A14202D1E1681A
:10DB7000C16002E008460028F6D1E660DCE72046F6
:10DB800001F0F2F813482146143001F0E9FF207D3E
:10DB9000012802D118A0F7F709FB21460220FCF763
:10DBA0005BFD0020FEBD0B482146183001F0D8FF78
:10DBB0002F70C1E77463705F636C6F73655F736828
:10DBC0007574646F776E3A20696E76616C69642053
:10DBD00070636200880100207063622D3E666C6194
:10DBE000677320262054465F5258434C4F53454498
:10DBF00000000000C80100207463705F66726565F4
:10DC00005F6C697374656E3A20214C495354454EDC
:10DC10000000000070B5050002D114A0F7F7C6FAA5
:10DC2000287D0526032804D0042802D0072816D111
:10DC300006E0284603F012F8040006D12E7509E02C
:10DC4000284603F00BF8040002D0601C09D004E061
:10DC500009202875284601F091FB204670BD002060
:10DC600070BD688B40F008006883F8E7706362203D
:10DC7000213D204E554C4C0001460C4810B5002368
:10DC80005A1E406805F03AFD012807D008A0F7F7B2
:10DC90008DFA0AA0F7F78AFA002010BD0FA0F7F757
:10DCA00085FA12A0F7F782FA012010BD9800002033
:10DCB0000D0A5B4552525D203E3E20007463702089
:10DCC000636F6D6D6F6E2064617461206465707543
:10DCD000657565206661696C200D0A000D0A5B4957
:10DCE0004E464F5D203E3E200000000074637020D1
:10DCF000636F6D6D6F6E2064617461206465707513
:10DD00006575652073756363656564200D0A0000A1
:10DD100001B50C48002364226946406805F008FEFE
:10DD2000012807D008A0F7F741FA0AA0F7F73EFA52
:10DD3000002008BD15A0F7F739FA18A0F7F736FA52
:10DD4000012008BD980000200D0A5B4552525D205D
:10DD50003E3E2000546865206661696C75726520DE
:10DD60006F6620656E7472616E63652C74637020DB
:10DD7000636F6D6D6F6E2064617461207075657581
:10DD8000652066756C6C200D0A0000000D0A5B4969
:10DD90004E464F5D203E3E20000000007463702020
:10DDA000636F6D6D6F6E206461746120656E707558
:10DDB0006575652073756363656564200D0A0000F1
:10DDC00010B50748406804F0EFFEC4B2214605488C
:10DDD000F7F7ECF90CB1012010BD002010BD0000D8
:10DDE00098000020DCF1020810B500220421142064
:10DDF00005F044FC0949486038B109A0F7F7D6F9A5
:10DE00000BA0F7F7D3F9012010BD13A0F7F7CEF957
:10DE100014A0F7F7CBF9002010BD000098000020F7
:10DE20000D0A5B494E464F5D203E3E20000000003B
:10DE30006372656174652074637020636F6D6D6FCC
:10DE40006E206461746120717565756520737563FA
:10DE500063656564210D0A000D0A5B4552525D2021
:10DE60003E3E2000637265617465207463702063B8
:10DE70006F6D6D6F6E20646174612071756575657D
:10DE8000206661696C210D0A000000002DE9F04751
:10DE9000984604006FF00F0508D049B1207D60B1AD
:10DEA0003CA0F7F783F9A81DBDE8F08745A000E086
:10DEB0004BA0F7F77BF92846F6E7086860602283F5
:10DEC000207A10B1FDF71CFA02E0201DFAF7F0FEEF
:10DED00006006FF0030108D0206818B9301D04D087
:10DEE00000682060E58A15B105E00846DCE701F02E
:10DEF0007BF8E08228B3204601F0A4F8002767628F
:10DF00002065401E6064A065E06542F6A050608513
:10DF10002085E762A4F860004FF406706086221D39
:10DF2000314600F05FF960864FF00109A4F848908F
:10DF300002212046C4F8848000F07EF9060003D058
:10DF400025E06FF00100AFE70220DFF8B080207518
:10DF50008DB1D8F81000A0420AD1C068C8F81000EE
:10DF600008E0C168A14202D1E168C16002E0084650
:10DF70000028F6D1E760D8F81800E060C8F818402B
:10DF800003F052FA88F80090204601F0F7F9304685
:10DF90008AE700007463705F636F6E6E6563743A46
:10DFA0002063616E206F6E6C7920636F6E6E6563A7
:10DFB000742066726F6D20737461746520434C4FDA
:10DFC000534544007463705F636F6E6E6563743AAB
:10DFD00020696E76616C69642070636200000000E5
:10DFE0007463705F636F6E6E6563743A20696E76FA
:10DFF000616C69642069706164647200880100204A
:10E000002DE9F0479A46DDF8208091460D4607003D
:10E0100002D128A0F7F7CAF815B92EA0F7F7C6F86D
:10E020005FEAC87001D0042600E000260320FCF758
:10E0300055FB040019D084F80A804FF00008C4E9A9
:10E0400000852889B04202D22BA0F7F7AFF82889C3
:10E050001421801B20812846FDF7D2FA48B12046C2
:10E0600002F054FD0020BDE8F0872846FDF7B2FD20
:10E07000F8E760684068E060F88AFBF7A3FAE168B7
:10E080000880388BFBF79EFAE16848805046FBF722
:10E0900097FAE1684860B008000300F5A04040EA44
:10E0A0000900FBF78FFAE1688881E1682046A1F852
:10E0B0001280D8E77463705F6372656174655F7323
:10E0C00065676D656E743A20696E76616C6964206F
:10E0D000706362007463705F6372656174655F731F
:10E0E00065676D656E743A20696E76616C6964204F
:10E0F0007062756600000000702D3E746F745F6C76
:10E10000656E203E3D206F70746C656E00000000EF
:10E1100010B58278ADF5A46D052A0CD040F21452EA
:10E1200091420BD918A0F7F741F81AA0F7F73EF87B
:10E130000DF5A46D10BD01F0ABF8F9E7ADF81615BB
:10E1400002228DF800200A4601466C46601CF2F758
:10E15000E6F8184840680028EAD0FFF731FE0028AA
:10E16000E6D0282004F0F0FE6846FFF7D1FDBDF8A8
:10E17000161511A0F7F71AF8BDF81625611C14A0A2
:10E18000FEF702FED4E700000D0A5B4552525D2007
:10E190003E3E200074637020726563762064617473
:10E1A00061206C656E677468206572726F720D0A0B
:10E1B000000000009800002074637020656E717587
:10E1C000657565206C656E3A25640D0A00000000D7
:10E1D00074637020656E7175657565206461746126
:10E1E0003A00000070B50D46044612B908A0F6F7D3
:10E1F000DDFF5DB1A98C49B1282902D9283988B23F
:10E2000000E00020844200D220460446204670BD33
:10E210007463705F6566665F73656E645F6D73736C
:10E220005F6E657469663A20696E76616C69642018
:10E230006473745F697000002DE9F843044600259B
:10E240000E46880702D13248F6F7B0FF14B931A064
:10E25000F6F7ACFFB00700D50125E80700D0042091
:10E26000804601464FF420723620FDF7FDF9070085
:10E270004FF0FF391CD07989414502D22DA0F6F725
:10E2800095FF0095324639462046E36DFFF7B8FE0C
:10E2900005000DD0287B800702D035A0F6F786FF59
:10E2A000288910B138A0F6F781FFE06E38B109E097
:10E2B000608B40F0800060834846BDE8F883E566E7
:10E2C00004E0084601680029FBD105600020A4F89D
:10E2D0006800B00702D0E06D401CE065F00703D095
:10E2E000608B40F0200060836868FDF746FBB4F85F
:10E2F000661008440004000CA4F8660006D0206FE5
:10E3000020B9E06E10B92BA0F6F750FF0020D4E73B
:10E31000484503087463705F656E71756575655F68
:10E32000666C6167733A20696E76616C696420700F
:10E33000636200007463705F656E71756575655F1B
:10E34000666C6167733A20636865636B207468610B
:10E350007420666972737420706275662063616EE2
:10E3600020686F6C64206F70746C656E0000000034
:10E370007365672D3E746370686472206E6F7420DD
:10E38000616C69676E6564007463705F656E71755A
:10E390006575655F666C6167733A20696E76616C5E
:10E3A0006964207365676D656E74206C656E677453
:10E3B000680000007463705F656E71756575655FF8
:10E3C000666C6167733A20696E76616C696420716E
:10E3D00075657565206C656E6774680070B50D466F
:10E3E000040007D0207D012802D103A0F6F7DEFE4D
:10E3F000C4F88C5070BD0000696E76616C69642051
:10E40000736F636B657420737461746520666F72DB
:10E41000206572722063616C6C6261636B00000046
:10E4200070B5194EB078401CB070B46928E0A17F77
:10E43000B078814223D0A077608BC10709D040F02B
:10E4400002006083204600F099FF608B20F00300FB
:10E45000608380B2010705D520F008006083204664
:10E46000FFF7D8FBE568606F38B1002030702046B8
:10E4700001F044FE30780028D7D12C4600E0E46853
:10E48000002CD4D170BD00008801002010B5027DA1
:10E490000446012A02D104A0F6F788FE2146BDE811
:10E4A00010400120FCF7D8B87463705F6672656530
:10E4B0003A204C495354454E000000002DE9F047E6
:10E4C00099460C460546DFF87C8022E02646D6E9D0
:10E4D0000040FDF752FA0746B5F86600B84202D28E
:10E4E00019A0F6F763FE35F8660FC01B2880318946
:10E4F000B8F8082030461144A8F8081002F006FBCE
:10E5000035F8660928B154EA090002D118A0F6F7D7
:10E510004DFE9CB1E0684068FBF752F80646E068A3
:10E520008089FBF74FF8800700D001202189304413
:10E530000144D8F81800081A0028C7DD2046BDE8B5
:10E54000F0870000A80100207063622D3E736E64A6
:10E550005F71756575656C656E203E3D20706275F6
:10E56000665F636C656E286E6578742D3E70290059
:10E570007463705F726563656976653A2076616C75
:10E580006964207175657565206C656E67746800D7
:10E59000084BD888411CD9801A6912B199888842E1
:10E5A00003D2D9681431085C7047401AC0B2105CBD
:10E5B00070470000A80100201CB509490820CDE9DA
:10E5C00000018201002307A10B4805F095FB08B16B
:10E5D0000AA000E011A0BDE81C40F6F7E7BD00006E
:10E5E0002C0000207463705F68616E646C65725FFC
:10E5F0005461736B0000000041E6020863726561BC
:10E600007465207463702068616E646C6572207438
:10E6100061736B206F6B210D0A00000063726561EE
:10E620007465207463702068616E646C6572207418
:10E6300061736B206572726F72210D0A0000000019
:10E64000ADF5A66D0A2004F07FFC0DF5A560FFF77F
:10E6500013FB0028F6D0DDF8280501780229B0F870
:10E66000161500F1010018D0FFF72AF9401CE9D077
:10E67000DDF8281591F81C050128E3D0D1F818051C
:10E680000190B1F81605ADF81E05B1F816250DF18B
:10E690000900491CF1F743FED4E7FEF755FCD1E72A
:10E6A000704700002DE9FE4F050002D1F9A0F6F7F2
:10E6B0007DFDFE4E6868F060688914287ED3FC4CAE
:10E6C00021686069F9F75BFF002877D1207DA046BB
:10E6D000C0F303100E2871D0F0688089FAF772FF3A
:10E6E000000B81001429E9D328898842E6D3A1F1DF
:10E6F000140080B270804FF0000BC6F810B06A8929
:10E700008A4204D3B0802846FDF76CFB29E02868D4
:10E7100010B9E8A0F6F74AFD14212846FDF762FB80
:10E720006989B1807088401A84B22846FDF75AFB87
:10E7300028684189A142C1D3416831612146FDF772
:10E7400051FB2889001B2881688910B1DDA0F6F7EC
:10E750002DFD296828890989884202D0DCA0F6F7B6
:10E7600025FDF0680088FAF72DFF0146F06801806A
:10E770004088FAF727FF0146F06841804068FAF7C1
:10E780001FFF0146F068416071618068FAF718FF69
:10E790000146F0688160B161C089FAF713FF014654
:10E7A000F068C1818089FAF70DFF00F03F013170F8
:10E7B00028897081890706D0411C00E078E089B281
:10E7C0007181884274D8DFF828930027D9F8004077
:10E7D00045E0207D10B9C7A0F6F7E8FC207D0A28A7
:10E7E00002D1CEA0F6F7E2FC207D012802D1D6A00E
:10E7F000F6F7DCFC207A38B1D8F8041091F8301024
:10E80000491CC9B2884228D1F068218B0288914204
:10E8100023D1E18A408881421FD16168D8F8102055
:10E8200091421AD12168D8F81400814215D1E068CC
:10E83000A04202D1CEA0F6F7B9FC37B1E068F8608B
:10E84000D9F80010E160C9F80040E068A04202D1A8
:10E85000D2A0F6F7ABFC24B15DE02746E468002CBB
:10E86000B7D1D9484746046824E0207D0A2802D061
:10E87000D6A0F6F79BFC207A30B1796891F8301079
:10E88000491CC9B2884214D1F068218B0288914298
:10E890000FD1E18A408881420BD160683969884292
:10E8A00007D120687969884203D1204602F0D6FD5D
:10E8B000BBE1E468002CD8D1DFF840A30021D7F8F1
:10E8C00004C0DAF80000F2688146D7F8148012E03C
:10E8D000037A2BB19CF830707F1CFFB2BB4208D189
:10E8E000C38A5788BB4204D10368434506D080B130
:10E8F0002BB10146C0680028EAD10AE048B129B12D
:10E90000C268CA60C0F80C90CAF8000000F07AFA39
:10E910008BE1002C7ED0DFF8E8825F46C8F800B0BB
:10E920002989A8F80810C8F80450F168C8F80C1034
:10E93000C6F81CB086F801B0A6F808B03078000719
:10E9400003D5687B40F001006873606F70B12046AA
:10E9500001F0D4FB0D3003D0606F38B1708928B15D
:10E96000608DD0BB204602F035F973E0204634625A
:10E9700001F09EF90D306DD0707800070ED5D4F8F7
:10E980008C201AB16FF00D0120699047214658483C
:10E9900001F0E6F82046FFF779FD5BE032890020C0
:10E9A0003AB1E36F13B12146206998470D3051D039
:10E9B0003781204600F03EF978B9F06918B3606FEE
:10E9C00010B190A0F6F7F2FBA07EC00606D5F06964
:10E9D000FDF700F92046FEF7B3FD3BE0D4F8805088
:10E9E0002DB1002320692146F269A84705E00023E4
:10E9F00021461846F26901F065FE10F10D0F29D08D
:10EA000008B1F0696067707880061BD5606F30B11F
:10EA1000417B00E02AE041F02001417312E0208DAB
:10EA2000A0F53451A03901D0401C2085D4F8805085
:10EA30002DB100231A4621462069A84700E0002096
:10EA40000D3007D02046376200F0F4F810B92046A8
:10EA500000F094FC3762F761D8F8040044460028BF
:10EA600002D0FDF7B7F86760BDE8FE8F9089FAF72E
:10EA7000A9FD40070CD4F0680D4A0D4B0188408871
:10EA800010320092CDE90101718970694218C7E026
:10EA9000CBE000007463705F696E7075743A206932
:10EAA0006E76616C6964207062756600A801002052
:10EAB0000CC80120702D3E6E65787420213D204EDB
:10EAC000554C4C00702D3E6C656E203D3D20300055
:10EAD000702D3E746F745F6C656E203D3D20702D0F
:10EAE0003E6E6578742D3E746F745F6C656E0000C9
:10EAF000A00100207463705F696E7075743A2061C4
:10EB00006374697665207063622D3E737461746509
:10EB100020213D20434C4F53454400007463705FF7
:10EB2000696E7075743A20616374697665207063EC
:10EB3000622D3E737461746520213D2054494D451A
:10EB40002D574149540000007463705F696E707501
:10EB5000743A20616374697665207063622D3E7338
:10EB60007461746520213D204C495354454E00008A
:10EB70007463705F696E7075743A207063622D3EC5
:10EB80006E65787420213D2070636220286265667E
:10EB90006F72652063616368652900007463705F4C
:10EBA000696E7075743A207063622D3E6E6578747C
:10EBB00020213D20706362202861667465722063A5
:10EBC0006163686529000000A40100207463705F20
:10EBD000696E7075743A2054494D452D574149541A
:10EBE000207063622D3E7374617465203D3D205436
:10EBF000494D452D57414954000000009C0100201B
:10EC00000C4E02207063622D3E72656675736564FA
:10EC10005F64617461203D3D204E554C4C00000006
:10EC200014330020B16901F01DFF2846BDE8FE4FF6
:10EC3000FCF7D0BF10B5040002D10EA0F6F7B6FA6B
:10EC400016484078C00612D5A07EC00606D4D4F877
:10EC50008C201AB16FF00E012069904721461048B0
:10EC600000F07EFF2046FFF711FC012010BD0020C0
:10EC700010BD00007463705F696E7075745F6465C9
:10EC80006C617965645F636C6F73653A20696E7659
:10EC9000616C69642070636200000000A8010020BC
:10ECA000A001002070B504004FF0000602D110A0B2
:10ECB000F6F77CFA206D401EFAF782FC034600222C
:10ECC0003146204600F092FC05000DD00146334647
:10ECD0000022204600F052FD2246231D2946BDE8B1
:10ECE0007040104600F00CBD4FF0FF3070BD0000CA
:10ECF0007463705F6B656570616C6976653A2069F5
:10ED00006E76616C696420706362000070B50446C1
:10ED1000082804D0092C02D00EA0F6F747FA1149B2
:10ED200000231846CD688A6909E0117DA14205D10A
:10ED3000116A691A994201D30B461046D268002A1B
:10ED4000F3D1002804D0BDE870400021FEF75ABB83
:10ED500070BD0000696E76616C69642073746174C3
:10ED600065000000880100202DE9F041050002D176
:10ED700010A0F6F71BFA287D012802D010A0F6F7A4
:10ED800015FA0124DFF85080002758F8240006689F
:10ED900045B912A0F6F70AFA04E0B16FA94200D112
:10EDA000B767F668002EF8D1641C042CEDD3BDE8DB
:10EDB000F081000070636220213D204E554C4C00D4
:10EDC0007063622D3E7374617465203D3D204C4933
:10EDD0005354454E00000000604303087463705FA5
:10EDE00072656D6F76655F6C697374656E65723A96
:10EDF00020696E76616C6964206C697374656E65F8
:10EE000072000000FEB53F4E05463078400716D42C
:10EE100015B93DA0F6F7CAF93078C10610D5F068EB
:10EE2000414A414B018840880092CDE90101718936
:10EE300070691B1D42182846B16901F013FEFEBD22
:10EE40008007FCD5687DFEF785FB04004AD0364874
:10EE500010384169216000696060E88AE082F068EA
:10EE600000882083032020757069401C6062E06286
:10EE7000204600F0E7F8A06520656064E0657069F1
:10EE8000401E60652869A5672061687A00F00C0063
:10EE90006072287A207225480168E160046002F0FF
:10EEA000C3FA234901200870204600F06DFDF06888
:10EEB000C089A4F86000A4F86200201DF9F7F8FEEC
:10EEC0000146608E221DFFF78DF9608612212046D3
:10EED000FFF7B2F988B103B02046BDE8F040002149
:10EEE000FEF790BAAB69002BA9D0286903B04FF0A8
:10EEF000FF32BDE8F040002118472046BDE8FE4043
:10EF000000F03CBAA80100207463705F6C697374F0
:10EF1000656E5F696E7075743A20696E76616C69B2
:10EF200064207063620000001CC80120A001002062
:10EF30008801002070B50C4605001DD02868002807
:10EF40001AD00E4E2846B16900F01AF828463169E9
:10EF500000F016F8002C0FD0206800280CD006F125
:10EF60001400026806E010682968884201D1206810
:10EF70001060D268002AF6D170BD00008801002020
:10EF800070B50C4606000ED108A0F6F70FF90AE09E
:10EF900020683168884205D12046E568FEF7D0FA3E
:10EFA0002C4600E0E468002CF2D170BD7463705F01
:10EFB0006E657469665F69705F616464725F6368DF
:10EFC000616E6765645F7063626C6973743A20692F
:10EFD0006E76616C6964206F6C645F61646472005A
:10EFE0004020FEF7B7BA0000F0B5144D144E0024CF
:10EFF0004FF6FF774FF4404C4FF4804EB088401CE2
:10F0000080B2B080B84201D1A6F804C0B288002115
:10F0100055F82100006809E0C38A934205D1641CB9
:10F02000A4B27445EAD30020F0BDC0680028F3D133
:10F03000491CC9B20429EBD390B2F0BD6043030868
:10F040008801002010B510B904A0F6F7AFF80A49FE
:10F05000D1E902021044886010BD00007463705F43
:10F060006E6578745F6973733A20696E76616C6956
:10F0700064207063620000008801002001460C4893
:10F0800010B500235A1E006804F038FB012807D091
:10F0900008A0F6F78BF80AA0F6F788F8002010BD54
:10F0A0000FA0F6F783F812A0F6F780F8012010BD44
:10F0B000980000200D0A5B4552525D203E3E200024
:10F0C000746370206F746120646174612064657082
:10F0D00075657565206661696C200D0A0000000089
:10F0E0000D0A5B494E464F5D203E3E200000000069
:10F0F000746370206F746120646174612064657052
:10F10000756575652073756363656564200D0A0018
:10F1100001B50C48002364226946006804F008FC2D
:10F12000012807D008A0F6F741F80AA0F6F73EF844
:10F13000002008BD14A0F6F739F817A0F6F736F846
:10F14000012008BD980000200D0A5B4552525D2049
:10F150003E3E2000546865206661696C75726520CA
:10F160006F6620656E7472616E63652C74637020C7
:10F170006F746120646174612070756575652066C7
:10F18000756C6C200D0A00000D0A5B494E464F5D00
:10F19000203E3E2000000000746370206F746120E8
:10F1A0006461746120656E70756575652073756343
:10F1B00063656564200D0A0010B50748006803F018
:10F1C000F3FCC4B2214605A0F5F7F0FF0CB1012015
:10F1D00010BD002010BD00009800002070756575FE
:10F1E0006520667265652073706163653A25640009
:10F1F00010B500220421142004F040FA09490860E7
:10F2000038B109A0F5F7D2FF0BA0F5F7CFFF012029
:10F2100010BD13A0F5F7CAFF14A0F5F7C7FF002033
:10F2200010BD0000980000200D0A5B494E464F5D5E
:10F23000203E3E200000000063726561746520740A
:10F240006370206F746120646174612071756575ED
:10F25000652073756363656564210D0A0000000015
:10F260000D0A5B4552525D203E3E2000637265618F
:10F27000746520746370206F746120646174612010
:10F280007175657565206661696C210D0A00000065
:10F2900030B540F2AA52ADF2B45D914204D924A037
:10F2A000F5F784FF25A011E02C4CD0F80320626014
:10F2B000930510D0012303EB9223238063882588D4
:10F2C000AB4202D2A568954207D325A0F5F76EFFA1
:10F2D0000DF2B45D30BD930AEFE7C91F8AB2ADF8F5
:10F2E000AA250BB3CDF8AC55C11D6846F1F717F848
:10F2F000BDF8AA151DA0F5F759FF1F4800680028A2
:10F30000E6D0FFF759FF0028E2D0BDF8AA15A068A3
:10F310000844A0606088401C6080282003F014FE30
:10F320006846FFF7F5FED3E70021CDF8AC15DBE723
:10F330000D0A5B4552525D203E3E200074637020F2
:10F34000726563762064617461206C656E677468B1
:10F35000206572726F720D0A000000005484002054
:10F36000206F766572200D0A000000006C656E3A11
:10F3700025640D0A00000000980000202DE9F05FD0
:10F38000040002D182A0F5F711FF207D012802D1EF
:10F3900085A0F5F70BFF8E480068A04202D100203F
:10F3A000BDE8F09FB4F86000B4F84810884200D37C
:10F3B0000846E56E81466DB12146221D084601F0E2
:10F3C00049FB5FEA000A6FF003012ED054B12068B8
:10F3D00040B10CE0A07E80077ED52046BDE8F05FFE
:10F3E00001F0F8BB1AF104001FD000682060E86843
:10F3F0004068FAF7E5F8616C401A29894218002044
:10F400004A4514D9B4F860204A45E3D1216F002958
:10F41000E0D194F895100029DCD184F89400012102
:10F4200084F8951084F89600D4E70846B8E784F885
:10F430009500266F83460EB995E006463068002891
:10F44000FBD18FE0E8688089FAF7BCF8400702D565
:10F4500060A0F5F7ABFE206FA8B1618B11F0440FEF
:10F4600011D1E06E28B102686AB90089628E9042BB
:10F4700009D2B4F8640030B1B4F86600502802D262
:10F4800011F0A00F7AD0207D022807D01020FAF7C3
:10F4900099F80146E86882891143818152462146E4
:10F4A000284600F0A1F920B1618B41F08001618311
:10F4B00076E72868E066207D022803D0608B20F084
:10F4C00003006083E8684068FAF77AF80746E8685E
:10F4D0008089FAF777F800E054E0800700D0012037
:10F4E000298938440844216D091A00D52065E86847
:10F4F0008089FAF767F8800700D001202989C8427F
:10F500002CD0C5F800B0206F68B1E8684068FAF701
:10F5100057F80746F0684068FAF752F8381A1AD5D3
:10F5200004F1700003E0256716E0D8F8000080467B
:10F53000006850B1C0684068FAF742F80746E868CA
:10F540004068FAF73DF8381AEFD4D8F80000286080
:10F55000C8F8005005E035602E4602E0284601F06C
:10F56000D5FAE56E55B1E8684068FAF729F8616C9C
:10F57000401A2989014449457FF664AFE06E08B915
:10F58000A4F868B0608B20F08000608307E700007B
:10F590007463705F6F75747075743A20696E76610C
:10F5A0006C69642070636200646F6E27742063610D
:10F5B0006C6C207463705F6F757470757420666F07
:10F5C00072206C697374656E2D7063627300000045
:10F5D000C8010020525354206E6F74206578706506
:10F5E0006374656420686572652100002DE9FF4140
:10F5F0001D4616460F46040002D10CA0F5F7D6FDB5
:10F60000E08A638D1022218B8DE80F002B46324655
:10F610003946606A00F01EF8002803D0628D616AE6
:10F620001144E16204B0BDE8F08100007463705FD2
:10F630006F75747075745F616C6C6F635F68656122
:10F640006465723A20696E76616C696420706362E9
:10F65000000000002DE9F05F834688180E46DDE9C2
:10F660000B98143081B21F464FF420722220DDF82F
:10F6700028A0FBF7F9FF050026D0698906F11400E0
:10F68000814202D212A0F5F791FD50466C68F9F75D
:10F6900099FF20804846F9F795FF608067605846DB
:10F6A000F9F78EFFA060B008000300F5A04080B21B
:10F6B00040EA0800F9F786FFA0810D98F9F782FF6C
:10F6C000E0810020208260822846BDE8F09F000093
:10F6D000636865636B207468617420666972737413
:10F6E00020706275662063616E20686F6C642073A1
:10F6F0007472756374207463705F686472000000D4
:10F70000FEB51E4617460D00044602D110A0F5F7BF
:10F710004DFD32463946204601F09CF918B12CB116
:10F72000E37AA17A04E06FF003040BE0FF230021E9
:10F7300000910622CDE90120324639462846F9F7E4
:10F740000DF904462846FCF745FA2046FEBD0000A8
:10F750007463705F6F75747075745F636F6E7472CD
:10F760006F6C5F7365676D656E743A20696E766164
:10F770006C696420706275660000000070B5154603
:10F780000C0002D109A0F5F711FD6068E90700F14E
:10F79000140300D0042108441430984204D0BDE87A
:10F7A00070400CA0F5F702BD70BD00007463705F7F
:10F7B0006F75747075745F66696C6C5F6F70746977
:10F7C0006F6E733A20696E76616C69642070627541
:10F7D000660000006F7074696F6E73206E6F742026
:10F7E00066696C6C656400002DE9FE4317460C46A3
:10F7F000050002D134A0F5F7D9FC14B93AA0F5F709
:10F80000D5FC17B940A0F5F7D1FC284600F09AF8CE
:10F8100010B10020BDE8FE83606AF9F7D1FEE96807
:10F820008860608DF9F7CEFEE968C881618D606AF5
:10F830000844E062EE68A87A1436C0070AD0221D98
:10F84000394640F2B450FEF7CDFC40F00170F9F7B4
:10F85000B7FE01C6B4F930004FF00008002801DA05
:10F86000A4F83080606B38B9304800686063E8689D
:10F870004068F9F7A5FEA0636968A8898A88801A9C
:10F880004A89121A4A8169680A89101A08816968C6
:10F89000E8684860E968A1F81080A87AE968C007BC
:10F8A00000D0042014300844B04202D020A0F5F764
:10F8B0007DFCA07A06218DE88300E37A221D214693
:10F8C0006868F9F74BF8A5E77463705F6F7574703B
:10F8D00075745F7365676D656E743A20696E7661E5
:10F8E0006C696420736567007463705F6F75747012
:10F8F00075745F7365676D656E743A20696E7661C5
:10F900006C696420706362007463705F6F757470FB
:10F9100075745F7365676D656E743A20696E7661A4
:10F920006C6964206E6574696600000094010020B3
:10F930006F7074696F6E73206E6F742066696C6C83
:10F940006564000010B5040002D105A0F5F72EFC97
:10F950006068807B012801D0012010BD002010BD0F
:10F960007463705F6F75747075745F7365676D65D0
:10F970006E745F627573793A20696E76616C696442
:10F9800020736567000000002DE9F041050002D1F9
:10F990001BA0F5F70BFC214E7088002818D0002022
:10F9A000F08040F2B4570FE0FEF7F2FD00280FD0D0
:10F9B000012809D002280DD0FEF7EAFD022807D35E
:10F9C000F1880844801EF080F08871888842EBD36B
:10F9D000BDE8F081FEF7DCFD0428F9D1F0887188DC
:10F9E000801C8842F4D8FEF7D3FD0402FEF7D0FD58
:10F9F0002043B84200D800B938466886E4E70000E2
:10FA00007463705F70617273656F70743A20696EB1
:10FA100076616C696420706362000000A8010020B8
:10FA20002DE9F05F83460AA85FEA030890E8100614
:10FA300016460D460F4602D11AA0F5F7B7FB14B9CA
:10FA400021A0F5F7B3FBB54214D25FEA897009D45F
:10FA5000A07E40060ED4BAF1000F03D0E06E08B9C4
:10FA6000206F38B105F2B75020F00300B04200D843
:10FA70000646B7B24FF4207239465846FBF7F4FDFC
:10FA800004000DD0206810B117A0F5F78FFB608936
:10FA9000401BA8F80000258165812046BDE8F09F45
:10FAA0000020FBE77463705F706275665F7072655B
:10FAB000616C6C6F633A20696E76616C6964206F6B
:10FAC00076657273697A65007463705F70627566DB
:10FAD0005F707265616C6C6F633A20696E76616C01
:10FAE00069642070636200006E65656420756E63F2
:10FAF0006861696E656420706275660070B50400A7
:10FB00001AD0207D002816D00A2814D0012812D03F
:10FB1000606F002510B1FCF75DF865674FF0FF30AE
:10FB20002086E06E01F000F8206F00F0FDFFE56632
:10FB30002567A4F8685070BDBDE8704001A0F5F7D6
:10FB400035BB00007463705F7063625F70757267CD
:10FB5000653A20696E76616C6964207063620000AA
:10FB600070B50C00054602D11CA0F5F71FFB15B9B6
:10FB700021A0F5F71BFB2868A04209D1C0682860C6
:10FB800008E0C168A14202D1E168C16002E0084614
:10FB90000028F6D100252046E560FFF7AFFF207D65
:10FBA0000A280DD0012815D0608BC10708D040F07D
:10FBB000020060832046FFF7E1FB207D012809D089
:10FBC000E06E10B114A0F5F7F1FA206F10B118A093
:10FBD000F5F7ECFA2575E58270BD00007463705F7F
:10FBE0007063625F72656D6F76653A20696E7661EB
:10FBF0006C696420706362007463705F7063625F3D
:10FC000072656D6F76653A20696E76616C69642005
:10FC10007063626C69737400756E73656E742073C3
:10FC200065676D656E7473206C65616B696E6700E6
:10FC3000756E61636B6564207365676D656E747363
:10FC4000206C65616B696E670000000070B5164638
:10FC50000D46040003D0207D012805D007E0BDE853
:10FC6000704005A0F5F7A2BA09A0F5F79FFAC4F80D
:10FC70008850667770BD00007463705F706F6C6C45
:10FC80003A20696E76616C696420706362000000DE
:10FC9000696E76616C696420736F636B6574207341
:10FCA0007461746520666F7220706F6C6C00000068
:10FCB0002DE9FE4F04004FF00000009002D1E7A0B4
:10FCC000F5F774FAEC4F3878410728D5227D022ADF
:10FCD00005D0616A7869814206D18AB113E0206D4E
:10FCE000B96988420FD0B7E1421AFCD4228D114481
:10FCF000401A0028F7DC608B40F002006083ABE123
:10FD0000DEA0F5F753FA787840F008007870608B41
:10FD100020F0010060836FF00D00BDE8FE8F8007CA
:10FD200004D5207D022801D00328E4D1A07EC0069E
:10FD300002D4DA48006820624FF0000884F8978007
:10FD400084F896802046FFF71FFED54B217D03F1F6
:10FD500010000422DFF84CA3D34ED44D891E143377
:10FD60004FF001094FF00A0B0829BCD2DFE801F07F
:10FD70000480E8F0EEE8EDEC3978CD06B3D58907DC
:10FD800060D5656CB9696D1C8D425BD1786903469D
:10FD9000401C60626164E062F8685B1EC089A4F880
:10FDA0006000A4F8620063652275201DF8F780FFEB
:10FDB0000146608E221DFEF715FA41F21C11608685
:10FDC000B1EB400F01D2420000E00A46B2EB800FD7
:10FDD00001D9810003E0B1EB400F00D24100A4F84B
:10FDE0004810B4F8660010B9B1A0F5F7DFF9B4F81F
:10FDF0006600401EA4F86600256FADB12868206734
:10FE0000284600F083FE206FB0B1A4F8308084F85B
:10FE10004280D4F884309BB1002221462069984763
:10FE200000900D304ED066E7E56E15B9A6A0F5F747
:10FE3000BDF92868E066E3E74FF0FF302086E8E789
:10FE40000098EEE7F9680A8849888DE80700798903
:10FE5000786942182046B96900F004FE94F842001F
:10FE6000062804D2A4F83080204600F065FDF3E0B7
:10FE70003978CD0659D5656CB9694D1B012D48D42B
:10FE8000256D4D1B002D44DC2275A06F10B18069DB
:10FE900018B108E06FF005000FE090A0F5F786F9C3
:10FEA000A06F806938B1A16F206900228B6921465B
:10FEB000984710B909E06FF00F000D3002D02046CE
:10FEC000FDF73EFB6FF00C0027E7204600F068F9D5
:10FED000388908B1401E3881608E41F21C11B1EBA7
:10FEE000400F01D2420000E00A46B2EB800F01D978
:10FEF000810003E0B1EB400F00D24100A4F84810AC
:10FF00007878800610D5608B40F00200608307206F
:10FF100055E0FA68158852888DE825007A89786955
:10FF20000244204600F09EFD96E0880707D5606AEF
:10FF30007969401E884202D1204600F077FC8BE0B0
:10FF4000204600F02DF9DBE776E052E039E0FFE7EC
:10FF5000204600F025F97878800638784FEAC060AE
:10FF600024D5002805DA206DB969884201D1E06EF8
:10FF700028B1608B40F00200608308201FE0608B96
:10FF800040F0020060832046FFF7B8FD2868A042D9
:10FF900009D1C068286045E0C168A14202D1E1688A
:10FFA000C1603FE008460028F6D13BE0002853DA64
:10FFB000206DB96988424FD1E06EE0BB0620207504
:10FFC0004AE0204600F0ECF87878800644D5608B53
:10FFD00040F0020060832046FFF790FD2868A042B1
:10FFE000D7D003E0C168A142D9D008460028F9D192
:10FFF00018E0204600F0D4F83878C0062CD5206DE3
:020000040803EF
:10000000B969884228D1E06EA8B92046FFF776FD8D
:100010002868A042BDD003E0C168A142BFD0084615
:100020000028F9D18AF8009084F814B03068E060B4
:10003000346001F0F9F90FE0204600F0B1F83878AB
:10004000C00609D5206DB969884205D1E06E18B99E
:10005000787840F01000787000205EE67463705F7E
:1000600070726F636573733A20696E76616C696450
:100070002070636200000000A80100207463705FBC
:10008000696E7075743A207063622D3E737461748A
:100090006520213D20434C4F5345440094010020EE
:1000A0000CC8012088010020A4010020A00100202C
:1000B0007063622D3E736E645F71756575656C6506
:1000C0006E203E20300000006E6F207365676D6506
:1000D0006E7420746F206672656500007063622D17
:1000E0003E6C697374656E65722D3E616363657005
:1000F0007420213D204E554C4C0000002DE9F0416C
:1001000004000CD0656F00206E7B6067D4F88070AF
:1001100067B100232A4621462069B8470CE016A0A3
:10012000F5F744F86FF00F00BDE8F08100232A4690
:100130002146184600F0C6FA6FF00C0728B10D30C2
:1001400018D06FF004006567EEE7B10610D5218D79
:10015000A1F53452A03A01D0491C2185D4F8805031
:1001600025B100231A4621462069A8470D3001D049
:100170000020D9E73846D7E77463705F70726F6309
:100180006573735F726566757365645F64617461DE
:100190003A20696E76616C696420706362000000C9
:1001A0002DE9F047040002D1F2A0F4F7FFFF207D13
:1001B000042802D2F6A0F4F7F9FFFC4F4FF6FF76C1
:1001C0004FF000053878C0067ED5B4F86030A16DD8
:1001D000626D786903EB0108B2EB000C0BD482422C
:1001E00002D1BA698A1A06D4BA69914210D1F96863
:1001F000C98999420CD9F968C989A4F86010B4F882
:1002000062208A4201D2A4F862106065B869A065D4
:10021000626CB869811A00292EDC798949BBB4F86F
:100220006030A16D1944414523D1B4F93010002943
:100230001FDB82421DD194F84300411CC9B28142A8
:1002400001D984F8431094F8430003280CD9B4F87A
:100250004800618E014489B2814202D3A4F848105B
:1002600003E0A4F8486000E002D3204600F022FB3F
:100270008EE084F843508BE0012977D4226D821AF6
:10028000002A73DC628B530708D522F004026283D4
:10029000B4F84A20A4F84820A4F86A5084F84250E0
:1002A000E28FB4F93C3089B202EBE302A4F84020BB
:1002B00084F843506064207D042831D3B4F84800AA
:1002C000B4F84A20904200E082E015D2628B120519
:1002D00001D5012200E00222638E53439AB28A4282
:1002E00000D81146014489B2814202D3A4F84810D3
:1002F00016E0A4F8486013E0B4F86A20114489B20B
:10030000914202D3A4F86A1001E0A4F86A60B4F83C
:100310006A10814204D3091AA4F86A10618EE1E7D9
:10032000D4E91B31A2A22046FEF7C8F82067034695
:10033000A1A22046E16EFEF7C1F8E066216F19B177
:100340002586257720B105E04FF0FF322286F8E7B9
:10035000A4F86850B4F864203B891A44A4F86420D7
:10036000628B120514D511B1C86802E00DE038B1F6
:10037000C0684068F9F724F9E16C081A002807DC26
:10038000608B20F40060608302E0204600F022FCD5
:10039000606BE8B1A16BBA69891A19D588490988D7
:1003A000081AB4F93C10A0EBE10000B2014409B214
:1003B000A187002801DA404200B2B4F93E20A0EB48
:1003C000A2001044E08700EBE100A4F84000656360
:1003D0007B89002B7DD0207D07287AD2606A7969DD
:1003E000DFF8E0A1421AB946012A3CD40B44C31AF3
:1003F0005B1C002B37DCDAF80470904617B972A04A
:10040000F4F7D4FEB04502D373A0F4F7CFFEDAF8C8
:1004100004001FFA88F6D0460089B04202D272A0CA
:10042000F4F7C4FEB8F80810891BA8F80810D8F82B
:1004300004000089801B81B204E039817D81301A7B
:100440003F6886B27889B042F7D331463846FBF729
:10045000C9FC606AC9F81400D8F80C104860616AD9
:10046000401A07D5F9E0081A04D5608B40F0020065
:100470006083F2E0218D606A4F464218D9F814106B
:100480008A1A521C002A73DC884271D1DAF80C00F7
:1004900056468089F9F796F8800700D00120318907
:1004A000084480B27881218D81423BD2F0688089F6
:1004B000F9F788F8C00711D0F0688089F9F782F859
:1004C000C0F344004000F9F77DF80146F0688289E6
:1004D00000E0C7E022F47C5211438181208D3081FD
:1004E000F0688089F9F76EF8800702D53089401EE0
:1004F000308131897068FBF7F9FBF0688089F9F782
:1005000061F8800700D001203189084480B27881E9
:10051000228D616A11447A691044884202D036A063
:10052000F4F744FE7889796901446162218D814242
:1005300002D23FA0F4F73AFE208D7989401A208537
:10054000204600F0EFFF7068018909B1F86175601D
:10055000F0688089F9F736F8C00703D0787840F062
:1005600020007870608BC10772D020F0010084E019
:1005700073E06DE07463705F726563656976653A18
:1005800020696E76616C696420706362000000000F
:100590007463705F726563656976653A2077726F20
:1005A0006E6720737461746500000000A80100206C
:1005B000756E61636B656400756E73656E740000C3
:1005C000940100200C4E0220696E7365672E702026
:1005D000213D204E554C4C00696E73616E65206F55
:1005E00066667365742100007062756620746F6FB3
:1005F0002073686F727421007463705F7265636545
:100600006976653A207365676D656E74206E6F74E8
:10061000207472696D6D656420636F7272656374B6
:100620006C7920746F207263765F776E640A0000C5
:100630007463705F726563656976653A2074637090
:100640006C656E203E207263765F776E640A0000F0
:1006500040F001006083BDE8F0872046BDE8F04728
:1006600000F0B8BA606A79690A1A05D4228D10447C
:10067000081A401C0028EEDD608B40F00200E9E71C
:1006800070B50D46040007D0207D012802D103A0DB
:10069000F4F78CFDC4F8805070BD0000696E76617F
:1006A0006C696420736F636B657420737461746527
:1006B00020666F7220726563762063616C6C626184
:1006C000636B000010B51446080007D064B121899F
:1006D00000F05EF82046FBF77DFA06E006A0F4F78E
:1006E00065FD6FF00F0010BD0BB1002010BDBDE81F
:1006F0001040FDF7BBB900007463705F72656376EC
:100700005F6E756C6C3A20696E76616C69642070FE
:10071000636200000EB5164DEC6824B302A92046B2
:10072000FAF7DAFA10B10F3016D01CE06A4601A9C8
:100730000298F9F7F5FFBDF800100198FDF7E8FC05
:100740000A2002F001FC0298FAF750F80028EDDACE
:100750000298FAF72DF806E000202870F5F728FB3C
:1007600004A0F4F723FD022002F0EEFBD5E7000021
:10077000880000207463702073657276657220644F
:100780006973636F6E6E656374200D0A000000006C
:1007900070B50D46040003D0207D012805D007E088
:1007A000BDE8704011A0F4F701BD16A0F4F7FEFCFF
:1007B000228D42F6A051501980B2884201D882425F
:1007C00001D9218500E02085204600F0ABFE40F6EF
:1007D0006831884208D3608B40F002006083204675
:1007E000BDE87040FEF7CABD70BD00007463705F65
:1007F0007265637665643A20696E76616C6964201F
:1008000070636200646F6E27742063616C6C207487
:1008100063705F72656376656420666F72206C69D1
:100820007374656E2D706362730000002DE9F041F2
:10083000050002D119A0F4F7B9FC2E6F6FF0050482
:100840001EB13046FFF77EF810B12046BDE8F081BA
:10085000306805F16C04286700E02468206850B116
:10086000C0684068F8F7ACFE0746F0684068F8F7E3
:10087000A7FE381AF1D42068306026603068002165
:1008800008B9A5F8681095F84200FF2802D2401C6C
:1008900085F8420000206963D8E700007463705F48
:1008A0007265786D69743A20696E76616C6964204E
:1008B0007063620010B5040002D117A0F4F776FC53
:1008C000206F002827D0A07E400724D42046FFF7C1
:1008D000ADFF00281FD1B4F84800B4F8601088427A
:1008E00000D308464108A4F84A10608EB1EB400FCF
:1008F00005D24FF6FF7101EA4001A4F84A1089B20F
:1009000000EB40000844A4F84800608B40F004006D
:1009100060830020208610BD7463705F7265786DFF
:1009200069745F666173743A20696E76616C69649C
:10093000207063620000000010B5040002D107A01F
:10094000F4F734FC204600F03BF8002804D12046A0
:10095000BDE8104000F010B810BD00007463705F77
:100960007265786D69745F72746F3A20696E766132
:100970006C6964207063620010B5040002D107A0A6
:10098000F4F714FC94F84200FF2802D2401C84F8CB
:1009900042002046BDE81040FEF7F0BC7463705F73
:1009A0007265786D69745F72746F5F636F6D6D6986
:1009B000743A20696E76616C69642070636200002D
:1009C0002DE9F041050002D119A0F4F7EFFB2C6FDF
:1009D0006FF005065CB103E0FEF7B4FF38B9246898
:1009E000206800282046F7D1FEF7ACFF10B1304652
:1009F000BDE8F081E86E20600027286FC5E91B077D
:100A0000688B40F400606883E0684068F8F7D8FDC0
:100A10000646E0688089F8F7D5FD800700D0012000
:100A20002189304408446F63E8640020E0E7000057
:100A30007463705F7265786D69745F72746F5F70F4
:100A40007265706172653A20696E76616C696420C6
:100A50007063620018B1007A08B1FAF751BC104611
:100A6000F8F726B92DE9FF4F85B01E00DDE91279B0
:100A7000DDF8508093468A4602D116A0F4F796FB23
:100A800017B91BA0F4F792FB00254AF22D0450463B
:100A9000F8F796FD1422CDE90224CDE9009803462B
:100AA000002229465846FEF7D5FD04000ED0014627
:100AB0002B4600220598FEF761FE059809B03B46DB
:100AC00032462146BDE8F04FFEF71ABE09B0BDE838
:100AD000F08F00007463705F7273743A20696E76F1
:100AE000616C6964206C6F63616C5F697000000009
:100AF0007463705F7273743A20696E76616C6964B6
:100B00002072656D6F74655F6970000010B5040038
:100B100009D0606808B1FBF75DF82146BDE81040D8
:100B20000320F9F799BD10BD10B503E00468FFF785
:100B3000EDFF20460028F9D110BD00B5ADF2245DCF
:100B40000A46ADF8161501460DF10100EFF7E7FB77
:100B500001208DF800006846FDF7DAF80DF2245DFB
:100B600000BD30B5ADF6442D0DF5A4640546204614
:100B7000A5220DF63C21CDF83C4AF4F702FB0022F9
:100B80000DF63C21DDF83C0AF4F7FBFA05220DF6E0
:100B90003C21DDF83C0AF4F7F4FA2A460DF63C2134
:100BA000DDF83C0AF4F7EDFADDF83C0A2146001BBB
:100BB00082B2ADF816250DF10100CDF8344AEFF7F9
:100BC000AEFB01208DF800006846FDF7A1F80DF698
:100BD000442D30BD2DE9F0414FF0000704003E46A2
:100BE00002D116A0F4F7E2FA0025206DF8F7E8FC30
:100BF0000346002229462046FEF7F8FC050010D0E7
:100C0000014633463A462046FEF7B8FD2246231DEC
:100C100029461046FEF774FD618B50B141F0030187
:100C200009E0608B40F0030060836FF00100BDE8D5
:100C3000F08121F003016183F9E700007463705FC4
:100C400073656E645F656D7074795F61636B3A2084
:100C5000696E76616C6964207063620070B505002E
:100C600002D112A0F4F7A2FAEC6E0CB909E00C461E
:100C700021680029FBD1E0688089F8F7A3FC4007D0
:100C800005D02846BDE870400121FDF7D5BA012006
:100C9000F8F798FC0146E068828911438181688BEE
:100CA00040F020006883002070BD00007463705F16
:100CB00073656E645F66696E3A20696E76616C6911
:100CC000642070636200000070B50D46040006D019
:100CD000207D012802D102A0F4F768FAE56770BD13
:100CE000696E76616C696420736F636B65742073E1
:100CF0007461746520666F722073656E7420636121
:100D00006C6C6261636B000010B504000CD0207D38
:100D10006FF00A0301281BD099B1608B40F01000DE
:100D200060833AB1012116E00EA0F4F73FFA6FF0AC
:100D30000F0010BD606F98B1FAF74CFF002060679C
:100D40000EE06AB1032805D0042803D0072801D09B
:100D5000184610BDC9B22046BDE81040FCF7A6BE3B
:100D6000002010BD7463705F73687574646F776E74
:100D70003A20696E76616C696420706362000000DD
:100D80002DE9FE4FC54F47F6FF7A4FF4FA7BF8681E
:100D90004FF00009401CF860B878401CB87000267D
:100DA000BC694AE1207D10B9BDA0F4F7FFF9207DB0
:100DB000012802D1C5A0F4F7F9F9207D0A2802D153
:100DC000CDA0F4F7F3F9A17FB878814202D126468D
:100DD000E46832E1A0770025207DA846022805D1ED
:100DE00094F84200062801D3012594E094F84200CB
:100DF0000C2811D294F89500002837D0206F10B13C
:100E0000C9A0F4F7D3F9E06E10B9D4A0F4F7CEF985
:100E100094F896000C2801D3012570E094F8951001
:100E2000DC48085C94F89410814202D2491C84F892
:100E30009410C9B2814262D3B4F86010204619B14F
:100E400000F01AFA20B107E000F018FFF0BB03E051
:100E50002046FEF793FAC8B384F8949094F895006E
:100E600007284CD2401C84F8950048E0B4F93000C3
:100E7000504501D2401C2086B4F93000B4F940102E
:100E800088423CDB2046FFF79BFD18B1206FE8B994
:100E9000E06ED8B1207D022812D094F842100C29BF
:100EA00000D30C21B4F93E00B4F93C2000EBE20081
:100EB000B94A515C8840504500DB5046A4F84000D8
:100EC000A4F830904B46B4F8480000E017E0B4F8BE
:100ED0006010884200D308464108A4F84A10608E8A
:100EE0004FF6FF7202EA4002914201D2A4F84A2072
:100EF000A4F84800A4F86A302046FFF73DFD207DA5
:100F0000062808D1A07EC00605D5206AF968081A0F
:100F1000282800D96D1C607A00072AD5207D042876
:100F200001D0072825D19D48D4F89010D7F80CC0DF
:100F30000844B0FBFBF2206AACEB0000824203D213
:100F40004FF001086D1C14E094F8972042F29F4C7A
:100F500012FB0CF201EBC201B1FBFBF1814208D2A2
:100F60002046FDF79FFE20B994F89700401C84F8B6
:100F70009700207D032802D0092807D00BE0206AC3
:100F8000F968081A282806D96D1C04E0206AF96857
:100F9000081AF028F8D8ADB32046D4F88C50FEF7E4
:100FA000ADFDB8693EB1844202D17DA0F4F7FEF8F0
:100FB000E068F06006E0A04202D084A0F4F7F6F802
:100FC000E068B861B8F1000F0AD0228BE18A201DD9
:100FD0008DE8070023461846626A216DFFF742FD3F
:100FE0002046D4F81080E468FDF750FA87F80090A6
:100FF0001DB36FF00C014046A847387800287FF4F5
:10100000CEAE1AE0FFE72646E468307F401CC0B24F
:101010003077717F884210D386F81C9087F8009053
:10102000D6F8882032B131463069904739780029A6
:10103000E5D110B93046FEF7A1F9002C7FF4B2AE2D
:101040000025FC6925E0207D0A2802D06AA0F4F77B
:10105000ADF8206AF968081AF02818D92046FEF77A
:101060004DFDF8693DB1844202D16FA0F4F79EF8BE
:10107000E068E86006E0A04202D075A0F4F796F8B8
:10108000E068F8612046E468FDF700FA01E02546D3
:10109000E468002CD7D1BDE8FE8F00008801002055
:1010A0007463705F736C6F77746D723A20616374F0
:1010B000697665207063622D3E73746174652021CA
:1010C0003D20434C4F5345440A0000007463705F59
:1010D000736C6F77746D723A206163746976652002
:1010E0007063622D3E737461746520213D204C490C
:1010F0005354454E0A0000007463705F736C6F7741
:10110000746D723A20616374697665207063622D34
:101110003E737461746520213D2054494D452D571F
:101120004149540A000000007463705F736C6F776C
:1011300074696D723A207065727369737420746992
:10114000636B696E67207769746820696E2D666CC1
:101150006967687420646174610000007463705F83
:10116000736C6F7774696D723A207065727369730E
:1011700074207469636B696E672077697468206591
:101180006D7074792073656E642062756666657231
:10119000000000001B43030850430308B84C0A003A
:1011A0007463705F736C6F77746D723A206D6964ED
:1011B000646C652074637020213D207463705F61EE
:1011C00063746976655F7063627300007463705F57
:1011D000736C6F77746D723A2066697273742070E5
:1011E0006362203D3D207463705F6163746976655E
:1011F0005F706362730000007463705F736C6F777D
:10120000746D723A2054494D452D57414954207010
:1012100063622D3E7374617465203D3D2054494DD9
:10122000452D5741495400007463705F736C6F77AC
:10123000746D723A206D6964646C6520746370200B
:10124000213D207463705F74775F70636273000088
:101250007463705F736C6F77746D723A2066697235
:10126000737420706362203D3D207463705F7477F7
:101270005F706362730000002DE9F84F0F460500B0
:1012800002D14FA0F3F792FFEC6E002C7ED05FB13D
:101290002089B8427BD9688EB84202D251A0F3F7B8
:1012A00085FF208938B109E052A0F3F77FFF6FF086
:1012B0000500BDE8F88F58A0F3F778FF94F80AB05E
:1012C0005FEACB7001D0042600E0002620894FF4AD
:1012D0002072C01B1FFA80F808EB060081B236208E
:1012E000FAF7C2F95FEA000A66D0606822890189CC
:1012F000891A39448BB2DAF8041042463144FAF7BD
:101300000FFC404555D1E0688089F8F75BF900F0A3
:101310003F064FF00009300703D526F008064FF0CE
:101320000809F00703D026F0010649F00109E0683A
:101330004068F8F745F9C3194A4651462846CDF8A2
:1013400000B0FCF75DFE070033D06068FAF715FBCC
:1013500035F8661F081A288060680289A2EB080128
:1013600089B2FAF7C3FC2189A1EB0800208130463D
:10137000F8F728F90146E0688289114381816068A5
:10138000FAF7FBFA29880844288001E014E00EE00F
:101390007868FAF7F2FA2988084425F8660920687F
:1013A00038602760386810B90020A5F86800002070
:1013B0007FE75046FAF70EFC4FF0FF3079E7000068
:1013C0007463705F73706C69745F756E73656E744F
:1013D0005F7365673A20696E76616C69642070633B
:1013E0006200000073706C6974203C3D206D737363
:1013F0000000000043616E27742073706C697420D4
:101400007365676D656E7420696E746F206C656EB0
:101410006774682030000000757365672D3E6C6549
:101420006E203E20300000000848816800290CD161
:101430000749084A09681268114306D001218160F2
:1014400000220549FA20FBF73BBF7047CC01002082
:10145000A0010020A4010020991E03083EB51A4DEA
:101460000446287840071DD414B918A0F3F79EFE4F
:101470002878810717D5616A6869421A18D4228DC5
:101480001144411A002913DCE968184B0A8849887D
:101490000093CDE9011269891B1D42182046A969F4
:1014A000FFF7E0FA3EBDC00702D011480068206295
:1014B00068890028F6D0608B40F0020060832046E7
:1014C000BDE83E40FDF75ABFA80100207463705F7D
:1014D00074696D65776169745F696E7075743A20BF
:1014E000696E76616C696420706362001CC80120BB
:1014F0009401002010B5FCF793FF05494878401C83
:101500004870C00703D0BDE81040FFF739BC10BDDC
:10151000880100200248417841F010014170704775
:10152000A801002070B5040002D111A0F3F73EFE1F
:10153000258D616A638E4A1941F2D066E06AB34232
:1015400000D933460344D31A02D46585101A70BDFE
:101550000A1A002A02DD0020608507E0451AB5F569
:10156000803F02D30BA0F3F721FE6585002070BDFC
:101570007463705F7570646174655F7263765F61D8
:101580006E6E5F776E643A20696E76616C69642076
:10159000706362006E65775F7263765F616E6E5F27
:1015A000776E64203C3D20307866666666000000F9
:1015B0002DE9FF4F05004FF000008DB090460590DB
:1015C000044607468346064609900C90ADF828006D
:1015D00082466FF00F090B9007D0688EB5F8621045
:1015E000B0EB510F03D2014602E0E8A042E0490807
:1015F00001B901460E98089100283AD011462846B4
:1016000000F0BEFA002838D1B5F866900790E86E71
:10161000002877D0044600680028FBD1A07AC007D4
:1016200000D004200090218901440898814202D909
:10163000DCA0F3F7BBFD2189009801440898401A0B
:1016400080B20390B5F86800ADF8280040B3039964
:10165000884202D9D9A0F3F7A9FDBDF82800274692
:101660004146404500D20146039A914208D91146AD
:101670000AE0DAA0F3F79AFD484611B0BDE8F08F12
:101680004146404500D201468A46A0EB0A00ADF82B
:101690002800A2EB0A0006EB0A0180B28EB203908A
:1016A000BDF8280020B1464502D0D9A0F3F77EFD51
:1016B000464559D20398002856D020890028FBD0EF
:1016C0000399A8EB0600884200DD084680B204902A
:1016D00010982746C00716D0012110980095CDE933
:1016E0000101DDE903210AAB0020FEF799F905901D
:1016F00000286ED00E98049A811905984068EEF77C
:101700000EFE22E029E0606800E00846016800293A
:10171000FBD1017B89090CD14168408901440E98B5
:10172000814206D116B1C2A0F3F740FD04980B9098
:1017300011E0012200200499F9F796FF0590002896
:10174000D7D00E988119059841600598FAF715F9D8
:1017500048441FFA80F9049880E0B5F86800002832
:101760007ED0BEA0F3F722FD7AE0A8EB060081B29E
:10177000DDE90720801A80B2814200D20846069037
:101780001098C00726D0BBF1000F20D00020109980
:101790000095CDE9011006980AAB104481B23620BD
:1017A000089AFEF73DF901900028A2D041890698D9
:1017B000814202D2B5A0F3F7F9FC0E988119019885
:1017C000426807981044069AEEF7A9FD1DE0012033
:1017D000DDE7C1E0BDF8280010B1BCA0F3F7E6FCDE
:1017E000012236200699F9F73FFF0700A8D00E988E
:1017F0004FF420723044786036200799F9F734FFAF
:10180000019078B13946FAF74FF80198FAF7B5F830
:1018100048441FFA80F9B9F1500F05D90198FAF739
:10182000D9F999E03846FAE70C980090E86D002263
:10183000831928460199FCF7E3FB0700F1D0BBF1BF
:10184000000F02D0099810B104E0BB4604E0A3A049
:10185000F3F7ACFC0998076006980997304486B204
:10186000464582D3BAF1000F19D0666811E031897C
:1018700001EB0A003081306850B9718970685246B6
:1018800008440E99EEF74BFD718901EB0A00708157
:101890003668002EEBD1218901EB0A002081BDF8CA
:1018A0002800A5F86800059858B114B990A0F3F77E
:1018B0007DFC60680599F9F7F7FF05982189008993
:1018C0001BE00B98D8B10CB1606810B996A0F3F783
:1018D0006DFC606804E003890B9A1A440281084693
:1018E00001680029F7D102890B99114401814289CD
:1018F0000B991144418121890B98084420819CB1A6
:10190000C4F800B0E96D01EB0800E865B5F86410B3
:10191000A1EB0800A5F864005FEA0900A5F86600DD
:101920000AD0286F18B107E0C5F86CB0EAE7E86E96
:1019300010B98BA0F3F73AFC67B1F86850B1109872
:10194000800707D40820F7F73DFE0146F868828932
:1019500011438181002090E6688B40F0800068830D
:10196000059808B1FAF736F9BBF1000001D0FFF78E
:10197000DBF8B5F8660030B1286F20B9E86E10B911
:1019800077A0F3F713FC4FF0FF3076E67463705FD7
:1019900077726974653A20696E76616C696420704B
:1019A000636200006D73735F6C6F63616C206973B9
:1019B00020746F6F20736D616C6C0000696E636FD3
:1019C0006E73697374656E74206F76657273697A6D
:1019D000652076732E207370616365007463705F99
:1019E00077726974653A20617267203D3D204E55DB
:1019F0004C4C202870726F6772616D6D6572207635
:101A0000696F6C61746573204150492900000000C2
:101A1000696E636F6E73697374656E74206F76653B
:101A20007273697A652076732E206C656E000000F3
:101A30007463705F77726974653A20524F4D2070FD
:101A4000627566732063616E6E6F74206265206FCD
:101A500076657273697A656400000000756E73655F
:101A60006E745F6F76657273697A65206D69736DE8
:101A70006174636820287063622D3E756E73656EB5
:101A800074206973204E554C4C2900007463705FBC
:101A900077726974653A20636865636B2074686166
:101AA0007420666972737420706275662063616E5B
:101AB00020686F6C642074686520636F6D706C655E
:101AC0007465207365676C656E0000006F766572E3
:101AD00073697A65203D3D203000000070726576A4
:101AE0005F73656720213D204E554C4C000000007F
:101AF0007463705F77726974653A2063616E6E6FAC
:101B00007420636F6E636174656E617465207768BD
:101B1000656E207063622D3E756E73656E7420690C
:101B20007320656D707479007463705F7772697487
:101B3000653A20657874656E73696F6E206F6620F4
:101B40007265666572656E6365207265717569722E
:101B50006573207265666572656E636500000000DE
:101B60007463705F77726974653A2076616C69643A
:101B7000207175657565206C656E6774680000007E
:101B800070B50D46040002D118A0F3F70FFB207DBD
:101B9000042808D0072806D0022804D0032802D041
:101BA0006FF00A0070BD002D1DD0B4F864004FF036
:101BB000FF31A84203D3B4F86600502805D3608BE8
:101BC00040F080006083084670BD0028206F04D07C
:101BD00048B9E06E38B90DA003E008B9E06E10B165
:101BE00019A0F3F7E3FA002070BD00007463705F82
:101BF00077726974655F636865636B733A20696EB9
