:020000040800F2
:10000000F85A02208D02000897270008B102000864
:1000100095270008C1060008E12D00080000000037
:10002000000000000000000000000000D5010008F2
:10003000ED0600080000000029020008B9270008AA
:10004000A7020008A7020008A7020008A7020008EC
:10005000A7020008A7020008A7020008A7020008DC
:10006000A7020008A7020008A7020008A7020008CC
:10007000A7020008A7020008A7020008A7020008BC
:10008000A7020008A7020008A7020008A7020008AC
:10009000A7020008A7020008A7020008A70200089C
:1000A000A7020008A7020008A7020008A70200088C
:1000B000A7020008A7020008A7020008A70200087C
:1000C000A7020008A7020008A7020008A70200086C
:1000D000A7020008D52D0008A7020008A702000803
:1000E000A7020008A7020008A7020008A70200084C
:1000F000A7020008A7020008A7020008A70200083C
:10010000A7020008A7020008A7020008A70200082B
:10011000A7020008A7020008A7020008A70200081B
:10012000A7020008A7020008A7020008A70200080B
:10013000A702000841070008A7020008A70200085C
:10014000A7020008A7020008A7020008A7020008EB
:10015000A7020008A7020008A7020008A7020008DB
:10016000A7020008A7020008A7020008A7020008CB
:10017000A7020008A7020008A7020008000000006C
:10018000A7020008A7020008A7020008A7020008AB
:10019000A7020008A7020008A7020008A70200089B
:1001A000A7020008A7020008A7020008DFF810D085
:1001B00000F020F90048004749730008AFF30080C1
:1001C000F85A0220EFF308807047EFF30980704778
:1001D000684670472A4B19680868B0E8F04F80F30A
:1001E0000988BFF36F8F4FF0000080F311887047CC
:1001F0000000000006480068006880F3088862B6C6
:1002000061B6BFF34F8FBFF36F8F00DF00BF00BF3A
:1002100008ED00E0DFF80C00016841F470010160B6
:10022000704700BF88ED00E0EFF30980BFF36F8FE8
:10023000134B1A681EF0100F08BF20ED108A20E93A
:10024000F04F106008B44FF0500080F31188BFF3F6
:100250004F8FBFF36F8F0EF055FF4FF0000080F30C
:10026000118808BC19680868B0E8F04F1EF0100F3C
:1002700008BFB0EC108A80F30988BFF36F8F704716
:1002800030000020EFF305807047000006488047EB
:1002900006480047FEE7FEE7FEE7FEE7FEE7FEE76B
:1002A000FEE7FEE7FEE7FEE789280008AD0100084B
:1002B0007046694603F0A0F8FFF7FEFF2DE9F05FF6
:1002C0000546002092469B468846064681464024C5
:1002D0001BE0284641464746224600F07AF853463E
:1002E0005A46C01A914110D311461846224600F0D2
:1002F00061F82D1A67EB01084F46224601200021C4
:1003000000F058F817EB00094E41201EA4F101043B
:10031000DFDC484631462A464346BDE8F09F10B52B
:10032000431A934209D28318881803E010F8011D7C
:1003300003F8011D521EF9D210BD40EA01039B07CC
:1003400003D009E008C9121F08C0042AFAD203E04A
:1003500011F8013B00F8013B521EF9D210BDD2B298
:1003600001E000F8012B491EFBD270470022F6E79E
:1003700010B513460A4604461946FFF7F0FF20461B
:1003800010BD10B5044604E00B7800F8013B03B142
:10039000491C521EF8D2204610BD30B5044600203C
:1003A000034600E05B1C934203D2E05CCD5C401B43
:1003B000F8D030BD202A04DB203A00FA02F10020F8
:1003C00070479140C2F1200320FA03F31943904093
:1003D0007047202A04DB203A21FA02F000217047FE
:1003E00021FA02F3D040C2F120029140084319469D
:1003F00070470000064C074D06E0E06840F001033E
:1004000094E8070098471034AC42F6D3FFF7D2FEC9
:10041000B80A0108D80A010830B58C1810F8012B69
:1004200012F00F0301D110F8013B120906D110F8A8
:10043000012B03E010F8015B01F8015B5B1EF9D1B1
:1004400001E001F8013B521EFBD1A142E6D300209E
:1004500030BD00007CB502F025F90EF061FA0DF018
:10046000A1FD14480524CDE900404FF40075002398
:100470002A4611A113480FF0A3FA012802D112A0B5
:1004800002F0B0FC0B480023001DCDE900402A46D5
:1004900015A118480FF094FA012802D116A002F015
:1004A000A1FC0448001F00680EF0EAFBBDE87C4098
:1004B0000EF070BA1400002054657374315F5461FB
:1004C000736B0000DD280008437265617465205479
:1004D000657374315F5461736B20737563657373F7
:1004E0002E2E2E0D0A00000054657374325F546185
:1004F000736B0000F928000843726561746520542D
:10050000657374325F5461736B20737563657373C5
:100510002E2E2E0A0A00000010B501F069F900F035
:10052000B9F902F05FF902F069F800F0CBF800F0D9
:10053000AFF905A206A108A003F092F8BDE81040AB
:1005400007A002F04FBC000056302E312E300000C4
:1005500056312E302E30000059482D4634323900A5
:100560002D2D2D2D2D2D2D2D2D2D2D204C776970E0
:100570002064656D6F202D2D2D2D2D2D2D2D2D2DD4
:100580002D2D0A00F0B589B0324800F052FA3248F9
:100590000024016841F48071016000680125022691
:1005A00000F480700790CDE904562C4F039502A902
:1005B0003846029600F03CFF00220221384601F046
:1005C000D3F8052000F0AEF901220221384601F0EF
:1005D000CBF8052000F0A6F92148016841F001019F
:1005E00001608DF800608DF801401A488DF80240D6
:1005F0008DF804408DF803408DF805401949C0E995
:10060000001504826946C0E90515E905C0E90741FE
:1006100049128160C910C16000F0A8FA040012A05C
:1006200014D002F0DFFB14A002F0DCFB0823194A0F
:100630001949084800F0C1F9184A0823A2F50071C9
:10064000044800F081F909B02046F0BD02F0CAFB71
:1006500013A0E9E7FC0100203038024000200240EE
:1006600000900240008002400D0A5B44454255471D
:100670005D203E3E20000000657468206861726461
:100680007761726520696E6974206661696C642E99
:100690002E2E0A00E43300204403002044040020EE
:1006A00065746820686172647761726520696E693B
:1006B00074207375636573732E2E2E0A000000007C
:1006C000FEE700000848074901604FF4E13141604E
:1006D00000218160C160016181610C21416101F0F3
:1006E0003DBE000000100140BC010020704700002A
:1006F000064908B509684FF4FA52B1FBF2F14143DB
:10070000009100BF491E0091FBD208BD00000020EF
:1007100038B50446006800F58050816941F48011C5
:100720008161206800F58050806900900120FFF70A
:10073000DFFF2068009900F58050816138BD00001E
:1007400010B55020EFF3118480F31188BFF34F8F61
:10075000BFF36F8F024800F0CCF984F3118810BD0D
:10076000FC0100202DE9F041044621B14FF4006066
:10077000E060C000A060E0690026002861D0354636
:100780002068402702683C490A40D4E90213194313
:10079000294341F40071114301602068056801207C
:1007A00000F0C0F820680560206847602068456850
:1007B000012000F0B7F82068456020688660206856
:1007C000C660206881694FF64172114041F0800196
:1007D000816120688569012000F0A4F820688561A6
:1007E0002068C6612068C569012000F09BF8206878
:1007F000C561206800F580508169204A1140204A77
:100800000A438261206800F580508569012000F06C
:1008100089F8206800F5805085612068194900F545
:1008200080500160206800F580500568012000F0CC
:1008300079F8206800F580500560A069012803D090
:1008400009E04FF480659BE7206800F58050C1699E
:100850000D4A1143C16160690C4A818811640178B5
:10086000C37841EA0361837840781B0443EA00209F
:1008700001435164BDE8F0810F8120FF233FDEF882
:10088000040020028020C1024000010000800240DC
:1008900070470000194808B5016841F08001016007
:1008A000016801F080010091016841F004010160DC
:1008B000016801F004010091016841F0010101604B
:1008C000016801F001010091016841F0020101603D
:1008D000016801F002010091016841F040010160EE
:1008E000016801F040010091016841F480710160EC
:1008F000006800F48070009008BD000030380240AD
:1009000090F83510022903D08021416501207047FD
:10091000052180F835100068016821F001010160AF
:100920000020704770B5044600F054FF0546601C77
:1009300002D004480078044400F04CFF401BA04261
:10094000FAD370BD040000202DE9F04390F8455023
:100950000024012D0DD04FF0010980F845900225AB
:1009600080F8445044F2F45C4FF000485F1E81620E
:1009700016E00220BDE8F08301EB4415C5F80080C5
:10098000C4EBC41606EB460602EB8606C5E901C6B3
:10099000BC4203D205F12006EE6000E0E960641C71
:1009A0009C42E9D3026802F58052D16080F84490FD
:1009B000002180F845100846DCE72DE9F04390F867
:1009C00045400025012C0BD04FF0010C80F845C0AC
:1009D000022480F844404FF480195F1EC1621BE07E
:1009E0000220BDE8F08301EB4514C4F80090C5EB8C
:1009F000C51606EB460602EB8606A660C6691EB95A
:100A0000266846F440062660BD4203D204F1200663
:100A1000E66000E0E1606D1C9D42E4D3026802F5EF
:100A20008052116180F844C0002180F845100846CA
:100A3000D7E710B50446022084F84400204600F0B1
:100A4000DDF9002004F8440F607010BD10B504A05B
:100A500002F0C8F9BDE8104004A002F0C3B90000DC
:100A60000D0A5B4552525D203E3E200065746820B1
:100A70006572720A0000000010B590F84510012957
:100A800013D0012380F84530022180F84410816A98
:100A90000A680024002A27DB0A68D20518D5826B71
:100AA000521C8263012A02D002E0022010BD0163C1
:100AB00041630A68C2F30D42121FC263026B92685F
:100AC0000264C96840F8281F03774477002010BDEE
:100AD0000A68920503D58363C0E90C1402E0826BB7
:100AE000521C8263C968816200F8443F447001204F
:100AF00010BD70B50446006800F5805041694FF0A4
:100B0000000649064FF0010508D5204600F068FAB6
:100B10002068402100F58050416109E04069C0072C
:100B20000AD0204600F03AFB206800F5805045616D
:100B300084F8445084F8456020684FF4803100F513
:100B400080504161206800F58050406900040CD558
:100B50002046FFF77BFF20684FF4004100F58050EE
:100B6000416184F8445084F8456070BD2DE9FC5F14
:100B70004FF000060400B346009624D060680128B8
:100B800004D018B1C02184A002F090FBA06928B164
:100B9000012803D0C12180A002F088FBE06928B1C0
:100BA000012803D0C2217CA002F080FB206A30B172
:100BB000B0F5000F03D0C32177A002F077FB94F8C3
:100BC000440018B107E00120BDE8FC9F84F84560AF
:100BD000204600F047F97F48016841F480410160F8
:100BE000006800F4804001907B48016821F4000116
:100BF00001600168226A11430160206800F580509D
:100C0000016841F00101016000F0E4FD05464FF488
:100C1000FA7708E000F0DEFD401BB84203D903205C
:100C200004F8440F6DE0206800F580500068C007AC
:100C3000F0D12068006920F01C0501F043F86749F5
:100C4000674A0144914202D245F0080516E0654921
:100C5000654A0144914202D245F00C050EE0634919
:100C6000634A0144914209D3624908446249884277
:100C700002D245F0040501E045F010052068056149
:100C80004FF400420021204600F08AFA0125002896
:100C90006FD10520FFF746FE60684FF400694FF4FE
:100CA000804A88B300F096FD804641F288376A4654
:100CB0000121204600F02CF900F08CFDA0EB08008B
:100CC000B84218D800984007F1D54FF4805200215F
:100CD000204600F065FA00284BD100F07BFD8046ED
:100CE0006A460121204600F013F900F073FDA0EBE5
:100CF0000800B84209D901212046FFF733FD04F866
:100D0000445F032066705FE716E000988006E7D531
:100D10006A461F21204600F0FBF850BB0098C10630
:100D200002D5C4F80C9000E0E660400701D5A6604B
:100D300029E0C4F808A026E0A06830B1504504D0EE
:100D40004FF4CD7114A002F0B1FAE068484505D027
:100D500020B140F29B1110A002F0A8FAE068A1684F
:100D6000C00840EA510082B20021204600F018FA83
:100D700030B101212046FFF7F5FC84F8445022E70A
:100D80000520FFF7CFFD59462046FFF7EBFC84F81E
:100D90004450002018E700002E2E5C4C69627261FE
:100DA000726965735C53544D3332463478785F48CA
:100DB000414C5F4472697665725C5372635C737414
:100DC0006D3332663478785F68616C5F6574682E65
:100DD00063000000443802400438014000D3CEFED6
:100DE000C0E1E40040F1E9FD40787D0100796CFC50
:100DF000005A6202001F0AFA80F0FA0210B5006879
:100E00001249884220D11248016821F080610160B6
:100E1000016821F000610160016821F0007101604A
:100E200032210C4800F020FA86210B4800F01CFA11
:100E30004FF40061094800F017FABDE810404FF484
:100E4000C041074800F010BA10BD00000080024009
:100E50003038024000080240000002400004024016
:100E600000180240F0B50068234987B0884240D19D
:100E700032200224002503260B278DE8F100694665
:100E80001E4800F0D5FA86208DE8F10069461C481E
:100E900000F0CEFAA0028DE8F1006946194800F092
:100EA000C7FA70038DE8F1006946174800F0C0FAF0
:100EB000002206213D2000F009FD3D2000F0D4FC79
:100EC0001248016841F000710160016801F0007191
:100ED0000591016841F080610160016801F0806165
:100EE0000591016841F000610160006800F0006058
:100EF000059007B0F0BD00000080024000080240ED
:100F00000000024000040240001802403038024055
:100F10002DE9F0470446008A91460D46202804D961
:100F20004FF485611FA002F0C1F994F844008228B3
:100F30001DD0822084F8440020680169228A4FF67F
:100F4000FF7301F01C0103EAC2220A434FF4F86167
:100F500001EA8511114321F0020141F0010505610B
:100F600000F038FC064601274FF480380FE00220DD
:100F7000BDE8F08700F02EFC801B404505D304F847
:100F8000447F002060700320F2E720680569E807CD
:100F9000F0D12068406981B2C9F8001084F844702B
:100FA0000020E5E72E2E5C4C696272617269657300
:100FB0005C53544D3332463478785F48414C5F443B
:100FC00072697665725C5372635C73746D333266FA
:100FD0003478785F68616C5F6574682E6300000028
:100FE00008B5002000900848694600680EF03CFCF7
:100FF0000098002807D005494FF080500860BFF3E3
:101000004F8FBFF36F8F08BD7C01002004ED00E01F
:10101000F8B5044690F84500012839D0012584F838
:101020004550022084F8440020680026016841F001
:10103000080101602068006800902846FFF758FB0F
:101040002168009808602068016841F0040101608F
:101050002068006800900120FFF74AFB2168009893
:1010600008602046FFF754FB206800F58050816936
:1010700041F400518161206800F58050816941F0A0
:101080000201816184F8445084F845600020F8BD75
:101090000220F8BDF0B590F845300022012B11D0A8
:1010A000012780F84570022380F84430002559B1AB
:1010B000C46A2368002B0ADA122100F8441F457025
:1010C0000120F0BD0220F0BD00F8447FF7E740F2B8
:1010D000F456B1420BD9B1FBF6FCB1FBF6F306FBBB
:1010E0001C1CBCF1000F00D05B1C012B43D12268FB
:1010F00042F040522260C26AC1F30C015160C16AE1
:101100000A6842F000420A60C16AC968C16234E0FC
:10111000D4F800C02CF0405CC4F800C032B9C46AF6
:10112000D4F800C04CF0805CC4F800C0C46A6660AB
:101130005C1EA24214D1C46AD4F800C04CF0005C1A
:10114000C4F800C0C3F10104C4EBC41404EB4404AC
:10115000D0F82CC001EB8404C4F30C04CCF8044098
:10116000C46AD4F800C04CF0004CC4F800C0C46A93
:10117000521CE468C4629A42CAD3016801F58051E6
:101180004A69520705D504224A61016801F5805178
:101190004D6000F8447F45700020F0BD70470000AE
:1011A0002DE9F0410446008A16460D46202804D950
:1011B0004FF48E611DA002F079F894F844004228A3
:1011C0001ED0422084F8440020680169228A4FF62C
:1011D000FF7301F01C0103EAC2220A434FF4F861D5
:1011E00001EA8511114341F00305B1B24161206864
:1011F000056100F0EFFA064601274FF480380FE052
:101200000220BDE8F08100F0E5FA801B404505D3DF
:1012100004F8447F002060700320F2E7206805692D
:10122000E807F0D184F84470EBE700002E2E5C4C08
:1012300069627261726965735C53544D333246342E
:1012400078785F48414C5F4472697665725C53728E
:10125000635C73746D3332663478785F68616C5F99
:101260006574682E630000002DE9F35F544DDFF8CC
:1012700054A1DFF854B10446A84220D054451ED0F2
:101280005C451CD05148844219D05148844216D044
:101290005048844213D05048844210D04F48844272
:1012A0000DD04F4884420AD04E48844207D04E4861
:1012B000844204D04FF4A0714CA001F0F7FF00204D
:1012C0004FF0010E4FF00F0801990EFA00F319408C
:1012D000994270D1266847000322BA40964326609F
:1012E000C60804EB8606D6F820C047074FEAD76940
:1012F00008FA09F72CEA070CC6F820C0A66896433E
:10130000A66066689E436660E3689343E360464A6E
:1013100020F003031344D3F808288607370F08FA90
:1013200007F606EA020CAC4201D100222BE054453C
:1013300001D1012227E05C4501D1022223E0234AAA
:10134000944201D103221EE0214A944201D1042299
:1013500019E0204A944201D1052214E01E4A944229
:1013600001D106220FE01D4A944201D107220AE072
:101370001B4A944201D1082205E01A4A944201D145
:10138000092200E00A22BA40624514D1D3F80828A5
:10139000B243C3F80828254A13688B431360121D13
:1013A00013688B431360121D13688B431360131D66
:1013B0001A688A431A60401C102885D3BDE8FC9F38
:1013C000000002400004024000080240000C0240FD
:1013D000001002400014024000180240001C0240AD
:1013E0000020024000240240002802402E2E5C4CC7
:1013F00069627261726965735C53544D333246346D
:1014000078785F48414C5F4472697665725C5372CC
:10141000635C73746D3332663478785F68616C5FD7
:101420006770696F2E63000000300140003C01408E
:101430002DE9F84F0446A9480D46844221D0A8481A
:1014400084421ED0A74884421BD0A748844218D0AB
:10145000A648844215D0A648844212D0A5488442AA
:101460000FD0A54884420CD0A448844209D0A44897
:10147000844206D0A348844203D0C321A2A001F035
:1014800015FF28680104090C01D0000C03D0C42109
:101490009DA001F00BFF6868F8B101281DD011284C
:1014A0001BD0022819D0122817D0A649884214D080
:1014B000A549884211D0A54988420ED0A449884246
:1014C0000BD0A449884208D0A349884205D00328FC
:1014D00003D0C5218CA001F0E9FEA86838B101282D
:1014E00005D0022803D0C62187A001F0DFFE002628
:1014F0004FF00F0B0120B0402F6882460740574540
:101500007ED16868022801D0122830D1286908B33A
:1015100009281FD001281DD002281BD0032819D06C
:10152000042817D0052815D0062813D0072811D075
:1015300008280FD00A280DD00B280BD00C2809D072
:101540000D2807D00F2805D00E2803D0D7216EA074
:1015500001F0ACFEF00804EB8000026A7107C90ECE
:101560000BFA01F39A432B698B4013430362226801
:101570007000032101FA00F82979814601F0030186
:1015800022EA080201FA09F1114321606868012882
:1015900005D0022803D0112801D012281CD1E868F8
:1015A00048B1012807D0022805D0032803D0EA213A
:1015B00055A001F07BFEA068E96820EA080001FA66
:1015C00009F10143A1606168287921EA0A01C0F3A9
:1015D0000010B04008436060E168A86821EA080193
:1015E00000FA09F00843E0606868C0006FD55B4806
:1015F000016841F480410160006800F4804000E02F
:1016000065E00090564826F003010A18D2F8083821
:10161000B007010F0BFA01F083433048844201D137
:1016200000202DE02E48844201D1012028E02D48E1
:10163000844201D1022023E02B48844201D10320BF
:101640001EE02A48844201D1042019E0284884423F
:1016500001D1052014E02748844201D106200FE083
:101660002548844201D107200AE02448844201D160
:10167000082005E02248844201D1092000E00A2028
:1016800088401843C2F80808364908686A68B843B1
:10169000D20300D5384308603249091D08686A68DA
:1016A000B843920300D5384308602E4908310868D2
:1016B0006A68B843D20200D53843086029490C3122
:1016C00008686A68B843920200D538430860761CFF
:1016D000102EFFF40FAFBDE8F88F000000000240AD
:1016E0000004024000080240000C024000100240CA
:1016F0000014024000180240001C0240002002407A
:1017000000240240002802402E2E5C4C6962726167
:10171000726965735C53544D3332463478785F4850
:10172000414C5F4472697665725C5372635C73749A
:101730006D3332663478785F68616C5F6770696FAB
:101740002E63000000001110000021100000311075
:101750000000121000002210000032104438024035
:1017600000300140003C014070B515460C000646B3
:1017700004D140F2AF1108A001F098FD45B1012D50
:1017800004D04FF4D87104A001F090FDB46170BD95
:101790002004B06170BD00002E2E5C4C6962726145
:1017A000726965735C53544D3332463478785F48C0
:1017B000414C5F4472697665725C5372635C73740A
:1017C0006D3332663478785F68616C5F6770696F1B
:1017D0002E6300000148806870470000040000206C
:1017E000024881680278114481607047040000203B
:1017F0000B4810B5016841F400710160016841F4C3
:1018000080610160016841F480710160032000F093
:10181000ADF80F2000F006F800F024F8002010BD0D
:10182000003C024070B50D4D04464FF47A712878A3
:10183000B1FBF0F00A490968B1FBF0F000F0F0FCF0
:1018400048B9102C07D200222146501E00F03EF865
:1018500000206C6070BD012070BD000004000020FD
:10186000000000207047000010B5040003D5CE2111
:1018700006A001F01BFD04F01F0101208840610952
:10188000890001F1E021C1F8000110BD2E2E5C4C51
:1018900069627261726965735C53544D33324634C8
:1018A00078785F48414C5F4472697665725C537228
:1018B000635C73746D3332663478785F68616C5F33
:1018C000636F727465782E630000000070B5144673
:1018D0000D460646102A03D3BA2113A001F0E6FCF8
:1018E000102D03D3BB2110A001F0E0FC1E480068BE
:1018F000C0F30223C3F10700042800D90420191DF6
:10190000072901D2002300E0DB1E012202FA00F1C8
:10191000491E294099409A40521E22403046BDE857
:101920007040114300F038BF2E2E5C4C696272612A
:10193000726965735C53544D3332463478785F482E
:10194000414C5F4472697665725C5372635C737478
:101950006D3332663478785F68616C5F636F727480
:1019600065782E63000000000CED00E010B5044621
:1019700007280BD0062C09D0052C07D0042C05D045
:10198000032C03D0A22108A001F090FC164A04F019
:10199000070110684FF6FF03184040EA0120134981
:1019A0000843106010BD00002E2E5C4C696272610D
:1019B000726965735C53544D3332463478785F48AE
:1019C000414C5F4472697665725C5372635C7374F8
:1019D0006D3332663478785F68616C5F636F727400
:1019E00065782E63000000000CED00E00000FA05B1
:1019F0002DE9F8431748016841F080510160006803
:101A0000DFF8548000F0805001270090C8F8407043
:101A1000FFF7E0FE04464FF47A75104E04E0FFF73E
:101A2000D9FE001BA8420DD87068C003F7D5C8F8CE
:101A30004470FFF7CFFE044607E0FFF7CBFE001B24
:101A4000A84202D90320BDE8F88370688003F4D56A
:101A50000020F8E74038024000000E4200700040CD
:101A60002DE9F0470C4605007ED02868401E0E2860
:101A700004D94FF4147180A001F018FC14B3012CA8
:101A800020D0022C1ED0032C1CD0042C1AD0052CE4
:101A900018D0062C16D0072C14D0082C12D0092CE4
:101AA00010D00A2C0ED00B2C0CD00C2C0AD00D2CE4
:101AB00008D00E2C06D00F2C04D040F251216EA07D
:101AC00001F0F4FBDFF8EC91D9F8000000F00F0111
:101AD000E0B28046A14208D2014689F80010D9F848
:101AE000000000F00F00A0427BD12868724E8107F1
:101AF00029D5400703D5306840F4E050306028789D
:101B0000000703D5306840F460403060A868A0B199
:101B1000802812D0902810D0A0280ED0B0280CD049
:101B2000C0280AD0D02808D0E02806D0F02804D059
:101B30004FF41D7150A001F0B9FB3068A96820F086
:101B4000F000084330602878C0073CD05A4F6868DE
:101B5000083F98B1012821D0022822D0032820D0A4
:101B600040F27B2144A000E03BE001F09FFB68686D
:101B7000012813D0022814D0032812D03868800717
:101B800000282EDA3068696820F0030008433060CE
:101B9000FFF720FE074641F2883A0DE038688003DF
:101BA000EEE738688001EBE7FFF714FEC11B5145F3
:101BB00002D90320BDE8F0873068696800F00C00A6
:101BC000B0EB810FF0D1D9F80010484601F00F01B9
:101BD000A14208D980F80080006800F00F00A04200
:101BE00001D00120E6E728784FF4805440074FF4F5
:101BF000A0574FF4C0584FF4E05914D5E86860B1CD
:101C0000A0420AD0B84208D0404506D0484504D08A
:101C100040F2B92118A001F049FB3068E96820F4CE
:101C2000E050084330602878000715D5286960B176
:101C3000A0420AD0B84208D0404506D0484504D05A
:101C40004FF430710CA001F031FB3068296920F4A9
:101C5000604040EAC100306000F05AF83168174A2D
:101C6000C1F30311515CC840154908600F20FFF70C
:101C7000D9FD00209EE700002E2E5C4C6962726147
:101C8000726965735C53544D3332463478785F48DB
:101C9000414C5F4472697665725C5372635C737425
:101CA0006D3332663478785F68616C5F7263632E7F
:101CB00063000000003C024008380240E8FE0008D3
:101CC000000000200148006870470000000000206C
:101CD0000448054900680968044AC1F38221515C3F
:101CE000C84070470000002008380240F8FE000895
:101CF0000448054900680968044AC1F34231515C4F
:101D0000C84070470000002008380240F8FE000874
:101D1000154810B5006810F00C01144813D0144B8E
:101D200004290FD008290ED10F4C241F216801F07F
:101D30003F022168490207D52068C0F38810A0FB44
:101D4000030106E0184610BD2168C1F38811A1FB0C
:101D500000010023FEF7B2FA2168C1F30141491CDA
:101D60004900B0FBF1F010BD083802400024F40037
:101D700040787D012DE9F84F04007CD020680F28C1
:101D800003D9F821ECA001F091FA2078F94DC007B1
:101D900055D060684FF480364FF4A02738B1B04278
:101DA00005D0B84203D0FD21E3A001F07FFAF1484D
:101DB00008300168C1F38101012909D00068C0F32E
:101DC000810002280BD1EB48001D0068400206D5B7
:101DD0002868800333D560680028CED02FE0606883
:101DE000B04203D1286840F480300CE0B842286843
:101DF00003D140F480202860F4E720F4803028608C
:101E0000286820F480202860606860B1FFF7E2FC59
:101E1000064604E0FFF7DEFC801B64287ED82868B5
:101E20008003F7D50BE0FFF7D5FC064604E0FFF78B
:101E3000D1FC801B6428F1D828688003F7D420786F
:101E4000DFF8349380074FF0000A50D5E06830B1D6
:101E5000012804D040F22F11B7A001F027FA206921
:101E60001F2804D94FF49871B3A001F01FFAC1489C
:101E70000830016800E091E011F00C0F09D0006813
:101E8000C0F3810002280BD1BA48001D006840024F
:101E900006D42868800714D5E06801287ED110E0B8
:101EA000E068B0B10120C9F80000FFF793FC0646D6
:101EB00004E0FFF78FFC801B0228AFD8286880075A
:101EC000F7D52868216920F0F80040EAC1002860B1
:101ED0000DE0C9F800A0FFF77DFC064604E0FFF71F
:101EE00079FC801B022899D828688007F7D42078CD
:101EF00000072BD59F4FA14E60697437C0B10128F0
:101F000006D04FF4B8718CA001F0D0F9606978B1B7
:101F100001203060FFF75EFC064605E042E1FFF776
:101F200059FC801B022886D838688007F7D50DE059
:101F3000C6F800A0FFF74EFC064604E0FFF74AFC97
:101F4000801B0228B9D838688007F7D4207840076A
:101F500076D5A0684FF0000840B1012806D00528CA
:101F600004D04FF4CE7174A001F0A0F9DFF804B2F0
:101F70000BF1400BDBF80000C0000CD4DBF80010C4
:101F800041F08051CBF80010DBF800004FF0010861
:101F900000F0805000907A4F386800E0CBE0C00538
:101FA0000FD4386840F480703860FFF713FC0646A1
:101FB00004E0FFF70FFC801B022894D83868C005A6
:101FC000F7D56C4FA068703701280FD00528386806
:101FD00010D020F001003860386820F0040038602C
:101FE000A068B0B1FFF7F6FB06460EE0386840F097
:101FF0000100F4E740F004003860F7E7FFF7EAFB80
:10200000811B41F2883081428DD838688007F5D530
:102010000DE0FFF7DFFB064606E0FFF7DBFB811B69
:1020200041F2883081428DD838688007F5D4B8F104
:10203000000F05D0DBF8001021F08051CBF8001024
:10204000A069002876D0012809D0022807D040F2E4
:10205000DF1139A001F02AF9A0690028F2D0454823
:1020600008300068C0F38100022864D0A06902280B
:1020700005D0C9F860A0FFF7ADFB044695E0E06924
:1020800038B1B0F5800F04D04FF4F4712AA001F0FC
:102090000DF9206A3F2804D940F2E91126A001F089
:1020A00005F9606A3238B0F5BF7F04D94FF4F57195
:1020B00021A001F0FBF8A06A02280AD0042808D069
:1020C000062806D0082804D040F2EB111AA001F02F
:1020D000EDF8E06A801E0D2804D94FF4F67116A0C1
:1020E00001F0E4F84F46C9F860A0FFF773FB06461D
:1020F00004E0FFF76FFB801B022853D8286880019B
:10210000F7D4D4E907010843A16A1E4A490802EB43
:102110000141626A41EA8211084394F82C1040EAB6
:1021200001611448001D016001203866FFF752FB71
:1021300004462EE03CE03DE02E2E5C4C696272616C
:10214000726965735C53544D3332463478785F4816
:10215000414C5F4472697665725C5372635C737460
:102160006D3332663478785F68616C5F7263632EBA
:10217000630000000038024000004742800E4742E2
:10218000007000400000FFFFFFF724FB001B022847
:1021900008D828688001F7D50AE0FFF71BFB001B71
:1021A000022802D90320BDE8F88F28688001F4D402
:1021B0000020F8E70120F6E710B54FF0E0240428EE
:1021C0000AD020B140F2D91105A001F06FF82069C2
:1021D00020F00400206110BD206940F00400F9E700
:1021E0002E2E5C4C69627261726965735C53544D4A
:1021F0003332463478785F48414C5F447269766583
:10220000725C5372635C73746D3332663478785FDA
:1022100068616C5F636F727465782E630000000004
:1022200010B5401EB0F1807F01D3012010BD4FF0EA
:10223000E02460610F21601700F0AEFA0020A06179
:1022400007202061002010BD7047000070B50268B3
:1022500004461068D168536910F00F0F50D003F096
:10226000010501F4907635435DD0C20705D0CA055B
:1022700003D5E26B42F00102E263420705D5DA07BB
:1022800003D0E26B42F00202E263820705D5DA076F
:1022900003D0E26B42F00402E263020705D5DA07DD
:1022A00003D0E26B42F00802E263E26B002A33D013
:1022B000800604D5880602D5204600F041FB206840
:1022C0004069E16BC0F38010090700D428B32046B1
:1022D00000F028FB2068416949061AD5416921F0C0
:1022E00040014161606BA0B11B490165606BFEF765
:1022F00007FB002810D0606B016DBDE870400847F7
:10230000830610D58B060ED52046BDE8704000F040
:1023100017BB2046FFF798FF70BD2046FFF794FFDC
:102320000020E06370BD030606D50B0604D52046E9
:10233000BDE8704000F0ECBC4006F3D54806F1D58E
:10234000D168204621F04001D160202184F8391065
:1023500000F052F970BD00001529000870B50400A6
:1023600022D0A0693D4900283D4A3E4B3E4E2068A0
:102370001CD08D1588420BD0904209D0984207D0CE
:10238000B04205D0294639A000F090FFA06930B3D3
:10239000A069A84223D0B0F5007F20D0B0F5407FDF
:1023A0001DD040F2011117E0012070BD884216D007
:1023B000904214D0984212D03B4988420FD03B49FA
:1023C00088420CD0B0420AD03949884207D03949F6
:1023D000884204D040F2051124A000F067FFA068F5
:1023E00038B1B0F5805F04D040F207111FA000F0B3
:1023F0005DFFE06938B1B0F5004F04D04FF484714F
:102400001AA000F053FF94F83900002520B984F891
:102410003850204600F050F8242084F83900206815
:10242000C16821F40051C160204600F0CFFA206855
:10243000016921F4904101612068416921F02A017C
:1024400041612068C16841F40051C160E56320200A
:1024500084F8390084F83A00002070BD0010014073
:102460000044004000480040001401402E2E5C4C07
:1024700069627261726965735C53544D33324634DC
:1024800078785F48414C5F4472697665725C53723C
:10249000635C73746D3332663478785F68616C5F47
:1024A000756172742E630000004C004000500040C3
:1024B00000780040007C004030B51E4887B00168BD
:1024C00041F010010160006800F01000059019480B
:1024D0001438016841F001010160016801F0010157
:1024E0000591016841F0010101600068072400F0D6
:1024F000010005904FF4007000900220019001202F
:1025000002900320CDE903040B4D69462846FEF7EF
:102510008FFF29150091049469462846FEF788FF2D
:10252000002205212520FFF7D1F92520FFF79CF98E
:1025300007B030BD443802400000024070472DE92A
:10254000F843044690F839001E4617460D462028E9
:1025500050D1A5B19FB194F8380001284AD001208C
:1025600084F838004FF00008C4F83C80212084F83B
:102570003900FFF72FF9A7848146E78426E0012080
:10258000BDE8F883E08C401EE084A0684B46B0F5BF
:10259000805F4FF000024FF080012046009603D08C
:1025A00000F0E7FBE8B90DE000F0E3FBC8B92888CC
:1025B0002168C0F308004860206908B16D1C05E07F
:1025C000AD1C03E0216815F8010B4860E08C002881
:1025D000D8D14B46002240212046009600F0C9FB8E
:1025E00008B10320CCE7202084F8390084F8388033
:1025F0000020C5E70220C3E770470000F0B5264879
:1026000087B0016841F080010160016801F080013C
:102610000591016841F080010160016801F08001CD
:102620000591016841F080010160016801F08001BD
:102630000591016841F00801016000684FF4806570
:1026400000F0080005900120CDE900500290032021
:10265000124F039069463846FEF7EAFE6C00694661
:1026600038460094FEF7E4FE660069463846009658
:10267000FEF7DEFE0A4F694638460094FEF7D8FEA4
:10268000064818300560046006600022214638467E
:10269000FFF76AF807B0F0BD30380240001C024076
:1026A000000C02403EB5002108460BF039FA1E4DE1
:1026B0000020291D28600860091D1D4A0860CDE919
:1026C00000021A4905F1080302911A1F111F194847
:1026D00005F0B2FB174805F01FFD164C94F82D00CD
:1026E0004007204602D505F03FFD01E005F01AFD48
:1026F000104802F067F818B10FA000F073FB04E077
:1027000014A0FAE701200CF083FA60682968884277
:10271000F8D0010E0091C0F30743C0F30722C1B205
:1027200013A000F05FFB3EBD940100201DDC0008FB
:1027300041550008905502206C77697020646863E9
:102740007020696E6974206661696C2E2E2E0D0AE8
:10275000000000006C776970206468637020696E07
:10276000697420737563636573732E2E2E0D0A00D2
:102770006C6F63616C2064657669636520497020C5
:10278000616464723A25642E25642E25642E2564C6
:102790000D0A0000FEE770470907090E002806DA57
:1027A00000F00F0000F1E02080F8141D704700F1E8
:1027B000E02080F80014704710B55020EFF311842A
:1027C00080F31188BFF34F8FBFF36F8FFFF708F8C7
:1027D0000DF022F9012801D00CF05CFD84F3118882
:1027E00010BD000030B5264893B00025016841F0C7
:1027F00080510160006800F080501190214801680C
:1028000041F4404101600068022400F4404011900E
:1028100001200090000401908001CDE906401920BC
:1028200008904FF4B470CDE9090407200B90684676
:10283000FFF7A0FA00B1FEE7FFF7DAF80CA90F20C6
:1028400081E831004FF4A0500F904FF48050109069
:1028500005210CA8FFF704F900B1FEE7FFF732FAF3
:102860004FF47A71B0FBF1F0FFF7DAFC0420FFF7C8
:10287000A3FC00221146501EFFF728F813B030BD0C
:1028800040380240007000401048016841F4700177
:1028900001600F48016841F0010101600C4A00210C
:1028A0000832116002680B4B1A400260031D0A4A8D
:1028B0001A60026822F48022026005480C30016030
:1028C00002495806803908607047000088ED00E032
:1028D00000380240FFFFF6FE10300024054C4FF494
:1028E0007A75206880F48061216028460CF090F9A8
:1028F000F7E70000141C0240054C4FF4FA6520680D
:1029000080F40061216028460CF082F9F7E70000AE
:10291000141C024010B5806B0021C185C184FFF7F3
:1029200093FC10BD0168CA6822F49072CA60016805
:102930004A6922F001024A61202180F83A1070476A
:1029400010B590F83A10222901D0022010BD8168FC
:10295000B1F5805F11D00169002901681FD0496875
:1029600001F07F03816A4A1C82620B70C18D491E8F
:102970000904090CC18518D026E00269816A002A81
:102980000268526805D0D2B20A80816A491C81620D
:10299000ECE7C2F308020A80816A891CF7E74A68FB
:1029A000816A4B1C83620A70E0E70168CA6822F4FE
:1029B0009072CA6001684A6922F001024A612021CE
:1029C00080F83A10FFF7BAFD002010BD2DE9F04164
:1029D00004464068BC49884204D340F68511BBA038
:1029E00000F064FCE06838B1B0F5005F04D040F658
:1029F0008611B6A000F05AFC206950B1B0F5806F86
:102A000007D0B0F5C06F04D040F68711AFA000F03A
:102A10004DFC60694FF6F371084200D120B940F6D1
:102A20008811AAA000F042FC2068016921F44052FC
:102A3000E168114301612068C26849F20C618A4370
:102A40002369A168E569194363692B43194311435D
:102A5000C16020684169A26921F440710A43426162
:102A6000E0696425B0F5004FA74AA84920684FF0F7
:102A700032083FD0884201D090427CD1FFF738F92C
:102A800000EBC00101EB001061688900B0FBF1F6BA
:102A9000FFF72EF900EBC00101EB0010616889001F
:102AA000B0FBF1F0B0FBF5F06FF01801484306EB16
:102AB000800108EB0110B0FBF5F000F0F006FFF725
:102AC00017F900EBC00101EB001061688900B0FB51
:102AD000F1F0B0FBF5F006EB0016FFF709F900EB9B
:102AE000C00101EB001061688900B0FBF1F7FFF74E
:102AF000FFF8D2E0884201D090423DD1FFF7F8F8CC
:102B000000EBC00101EB001061684900B0FBF1F07F
:102B1000B0FBF5F00601FFF7EBF800EBC00101EBAD
:102B2000001061684900B0FBF1F7FFF7E1F800EB36
:102B3000C00101EB001061684900B0FBF1F0B0FB8F
:102B4000F5F06FF01801484307EB800108EBC10076
:102B5000B0FBF5F000F0F80006EB4006FFF7C8F810
:102B600000EBC00101EB001061684900B0FBF1F718
:102B7000FFF7BEF83CE055E0FFF7AAF800EBC00114
:102B800001EB001061684900B0FBF1F0B0FBF5F01B
:102B90000601FFF79DF800EBC00101EB0010616832
:102BA0004900B0FBF1F7FFF793F800EBC00101EB30
:102BB000001061684900B0FBF1F0B0FBF5F06FF078
:102BC0001801484307EB800108EBC100B0FBF5F0AA
:102BD00000F0F80006EB4006FFF77AF800EBC001C2
:102BE00001EB001061684900B0FBF1F7FFF770F8E6
:102BF00000EBC00101EB001061684900B0FBF1F08F
:102C0000B0FBF5F06FF01801484307EB800108EBCB
:102C1000C100B0FBF5F000F0070021683044886087
:102C2000BDE8F081FFF754F800EBC00101EB0010A4
:102C300061688900B0FBF1F6FFF74AF800EBC001CC
:102C400001EB001061688900B0FBF1F0B0FBF5F01A
:102C50006FF01801484306EB800108EB0110B0FB50
:102C6000F5F000F0F006FFF733F800EBC00101EBE0
:102C7000001061688900B0FBF1F0B0FBF5F006EBE5
:102C80000016FFF725F800EBC00101EB00106168AA
:102C90008900B0FBF1F7FFF71BF800EBC00101EB77
:102CA000001061688900B0FBF1F0B0FBF5F06FF047
:102CB0001801484307EB800108EB0110B0FBF5F069
:102CC00000F00F00A9E70000A137A0002E2E5C4CF9
:102CD00069627261726965735C53544D3332463474
:102CE00078785F48414C5F4472697665725C5372D4
:102CF000635C73746D3332663478785F68616C5FDF
:102D0000756172742E6300000014014000100140D0
:102D100090F83910212901D0022070478168B1F55F
:102D2000805F016A0BD04A1C026202680978516018
:102D3000C18C491E0904090CC1840ED017E0098812
:102D40000268C1F30801516001690029016A02D0DB
:102D5000491C0162ECE7891CFBE70168CA6822F0A4
:102D60008002CA600068C16841F04001C160002073
:102D700070472DE9F0411E46174688460446069DD9
:102D80001CE0681C1AD025B1FEF724FD801BA84268
:102D900014D92068C16821F4D071C16020684169EC
:102DA00021F001014161202084F8390084F83A00C3
:102DB000002084F838000320BDE8F0812068016815
:102DC00038EA010004D00020B842DAD00020F3E74E
:102DD0000120F9E70148FFF739BA0000BC010020E3
:102DE000FEE700000FB4054B10B503A9044A029892
:102DF00000F02CF810BC5DF814FB000059580008D6
:102E0000B80100200FB4084B10B504A902AA03981A
:102E100000F01CF8044602A9002000F042FA204607
:102E200010BC5DF814FB0000A332000802E008C8E3
:102E3000121F08C1002AFAD170477047002001E034
:102E400001C1121F002AFBD1704700002DE9FF4F7E
:102E50008DB00F460546002606E025280BD0DDE99B
:102E60000F1290476D1C761C28780028F5D111B000
:102E70003046BDE8F08F0024A246A1460122E94970
:102E800000E0044315F8013F203B02FA03F008423A
:102E9000F7D128782A2810D06FF02F022878A0F1D7
:102EA0003001092914D80AEB8A0102EB410144F0F0
:102EB000020400EB010A6D1CF0E701CF5FEA000A93
:102EC00003D544F40054CAF1000A44F002046D1C16
:102ED00028782E2817D115F8010F44F004042A2869
:102EE0000ED06FF02F022878A0F1300109290AD8FE
:102EF00009EB890102EB410100EB01096D1CF2E7CE
:102F000057F8049B6D1C28786C280FD006DC4C28E1
:102F100017D068280DD06A2814D104E0742810D086
:102F20007A280FD10DE044F400140AE044F4801430
:102F300001E044F440146978814202D104F5801420
:102F40006D1C6D1C28786E281ED00CDC632830D0D8
:102F500004DC00288BD0582811D19FE0642867D06A
:102F600069280CD164E073282DD004DC6F2872D05E
:102F7000702804D194E075286ED078286DD0DDE9F2
:102F80000F129047761C4BE1C4F30250022806D082
:102F9000032809D0042801CF09D0066040E101CF01
:102FA000F117C0E900613BE101CF068038E106700E
:102FB00036E117F8040B8DF8000000208DF80100B1
:102FC000EB46012003E057F804BB4FF0FF306107E8
:102FD0004FF0000102D40DE008F101018846494597
:102FE0000FDA8045F8DB1BF808100029F4D108E05F
:102FF00008F1010188468142FADB1BF8081000291C
:10300000F6D1DDE90F23AAEB08008146214600F046
:1030100031F9304400EB080604E0DDE90F121BF83B
:10302000010B9047B8F10108F7D221464846F2E07B
:103030000A21C4F302524FF0000B0891022A04D077
:1030400001CFC117032A09D00AE0FF1D27F00707A7
:10305000F7E8020108E02CE01EE01FE000B2C11713
:10306000042A01D140B2C117021E71F1000206DA32
:103070000023D0EB030063EB01012D2202E02205C7
:1030800004D52B228DF82420012203E0E20701D091
:103090002022F7E7904653E00A210BE0102109E0D7
:1030A00010214FF0000B44F004044FF00809089180
:1030B00003E008214FF0000B0891C4F30252022AEA
:1030C00004D001CF0021032A06D006E0FF1D27F01F
:1030D0000707F7E8020103E080B2042A00D1C0B27A
:1030E0004FF0000822072BD52A78702A07D0DDF888
:1030F00020C08CF0100C5CEA0B0C05D00EE04022D6
:103100008DF82420012208E050EA010306D0302384
:103110008DF824308DF8252002229046089B83F0FC
:10312000080353EA0B030BD150EA010201D16207F5
:1031300006D530228DF824204FF00108A9F10109AD
:103140002A78582A04D038A20B9208AA0A920BE0D7
:103150003AA2F9E75B46089AFDF7B0F80B9B9B5C37
:103160000A9A521E0A92137050EA0102F2D10A988A
:10317000ADEB000000F1200B600702D524F4803491
:1031800001E04FF00109D94502DDA9EB0B0000E099
:10319000002000EB0B0141440890AAEB010AE00378
:1031A00006D4DDE90F232146504600F063F80644BB
:1031B0004FF0000908E009A911F80900DDE90F1234
:1031C000904709F10109761CC145F4DBE0030CD5F9
:1031D000DDE90F232146504600F04CF8064404E098
:1031E000DDE90F1230209047761C0899481E0890A0
:1031F0000029F5DC08E00A980A990078491C0A9130
:10320000DDE90F129047761CBBF10001ABF1010B19
:10321000F1DC21465046DDE90F2300F019F80644A1
:103220006D1C21E609280100303132333435363740
:103230003839616263646566000000003031323302
:1032400034353637383941424344454600000000A2
:103250002DE9F041044600251E461746880404D493
:1032600005E039462020B0476D1C641EF9D528467C
:10327000BDE8F0812DE9F041044600251E46904648
:10328000C80301D5302700E02027880404D505E0D5
:1032900041463846B0476D1C641EF9D52846BDE846
:1032A000F0810A68531C0B60107070470C4605468D
:1032B000FCF78EFF00F014F82246294601A0FFF724
:1032C00091FDFEE7617373657274206661696C65D8
:1032D000642061742025733A2564200A00000000F0
:1032E00070B50F4C0546207888B10EA0FFF77AFD27
:1032F0000DA0FFF777FD00F09DF9D4E902012A4601
:1033000001F050FB2846BDE8704005F08BBC074A31
:1033100007A109A0FFF766FD03A0FFF763FDFEE725
:10332000A0010020000000000D0A000000010108BB
:10333000696E69745F6F6B0028257329206861735B
:1033400020617373657274206661696C65642061C5
:10335000742025732E0000002DE9F043244C89468B
:10336000A446D4E9023794F801809CF80260014633
:10337000DCE9044C00200546A444B8F1000F11D04C
:103380008EB91C4EB069086076690120361FA642CE
:1033900011D3B4450FD3B9F1010F0CD90220012587
:1033A0004E6008E03EB19A4201D21A4603E0DE19AF
:1033B000964200D232461F44974216D91668331FF0
:1033C000F60710D0A3420ED39C450CD310280AD286
:1033D000484508D2022803D115B14E689E4202D05A
:1033E00041F82030401C121DE6E7BDE8F0830000E4
:1033F000A0010020B45602202DE9F04F8DB00C46FC
:10340000074620225D4905A8FCF789FF5C4ED6E9F6
:1034100002508146307858B1707898B1574A59A116
:10342000143A5BA0FFF7DEFC61A0FFF7DBFCFEE7D0
:10343000524A60A1143A56A0FFF7D4FC5CA0FFF7F3
:10344000D1FCFEE74FF0010A86F801A05BA0FFF770
:10345000C9FC57A0FFF7C6FC00F0ECF8DFF81CB180
:10346000ABF1BC0BDBF82800FFF7BCFC50A0FFF76A
:10347000B9FC47F30010401C04F12008F07001D0A3
:1034800008F14808A84503D305EB0900404501D2DF
:1034900086F802A042464946284601F083FAB078F1
:1034A000474D00283ED1DBF82C00FFF79BFC40A0E5
:1034B000FFF798FC26682E6060686860A168A960C4
:1034C000E268EA6023692B6163696B61A369AB61A0
:1034D000E369EB61DDE90734CDE90003CDE90214CE
:1034E0000492DDE90513324636A0FFF77BFC30A0DD
:1034F000FFF778FC01AE0B98EB690C9AA96986E896
:103500000F00686900900A9B2A692EA00999FFF7AD
:1035100069FC27A0FFF766FC35A0FFF763FC24A039
:10352000FFF760FC4248006845F8200F4048001D46
:10353000007828713E4810300068A8603C48401D63
:10354000007828733A481430006828613848801D94
:103550000088A882364808300068A86134480C30DA
:103560000088E861324818300088286202F054F878
:10357000404605F057FB0DB0BDE8F08F280101086B
:10358000A0010020216F6E5F6661756C7400000001
:103590002825732920686173206173736572742014
:1035A0006661696C65642061742025732E000000DB
:1035B0000D0A0000696E69745F6F6B000000000007
:1035C000B4560220202025733A2025303878202058
:1035D00025733A2025303878202025733A2025306D
:1035E0003878202025733A202530387800000000F4
:1035F0003D3D3D3D3D3D3D3D3D3D3D3D3D3D3D3DFB
:103600003D3D3D3D3D3D3D3D3D3D3D3D3D3D3D3DEA
:103610003D3D3D3D3D3D3D3D3D3D3D3D3D3D3D3DDA
:103620003D3D3D3D3D3D3D3D3D3D3D3D3D3D000044
:1036300024ED00E010B50748074BA3F12002006815
:10364000A2F12001FFF7CEFBBDE8104003A0FFF779
:10365000C9BB00006C000108045602200D0A0000DE
:1036600070B50C461546014620220E48FCF789FE2F
:103670000C48202221462030FCF783FE09482022F6
:1036800029464030FCF77DFE08480749084A81601A
:10369000511AC1600749084A0161511A416101216B
:1036A000017070BDC4550220F8560220A001002010
:1036B000F85A022000000008D80A010858B1026A2E
:1036C000002A0BD05379082B08D10968D26991429E
:1036D00004D100F0E9B902A0FFF784BB70470000F5
:1036E0006E6574696620213D204E554C4C000000EB
:1036F0002DE9FC4105001BD02C6ADCB14FF0000E17
:10370000A4F812E0A06A4FF03C02411C4FF4803C48
:103710004FF001074FF6FF7612D01E30B0FBF2F0EB
:10372000604500D330460004000CA08207D007E0BB
:1037300029A000E02FA0FFF755FBBDE8FC81A78280
:10374000E36A581C0CD01E33B3FBF2F1614500D381
:1037500031460804000C608100D167816089E081F6
:10376000206B411C0CD01E30B0FBF2F2624500D33E
:1037700032461004000CA08100D1A781A0892082CC
:103780006189A089814202D308B1A4F80AE0E079F6
:1037900008B1206A08E0237F7F2B01D8FF2003E0D7
:1037A000C02B03D36FF07F40009000E00096606A6A
:1037B000019028B9E0690099084040F080700190BC
:1037C0000A21204600F0F6FF01AB6A4604F11C0115
:1037D000284604F071FCB0E7646863705F62696E4C
:1037E000643A206E6574696620213D204E554C4C2C
:1037F00000000000646863705F62696E643A206470
:1038000068637020213D204E554C4C0070B5046A11
:1038100005460821204600F0CDFF002204F11C01DE
:10382000284601F01FFCA079FF2801D2401CA0719E
:103830004FF4FA7140F2E730B0FBF1F0208170BD37
:1038400070B5294804684CE0216AA1B3487990B367
:10385000888A68B1488A401C80B248828A8A90422D
:1038600006D1204600F016FE204600F0ABFF37E000
:10387000088A18B1421E0A82012806D0C889D0B130
:10388000421ECA81012817D02AE0256A204669799C
:10389000012905D00A2903D0052901D004291FD107
:1038A00000F07CFCA88A698A401A022818DB00EB29
:1038B000D0704008288213E0256A204669790129E2
:1038C00003D00A2901D005290AD100F041FEA889B8
:1038D000698A401A022803DB00EBD0704008E881B7
:1038E0002468002CB0D170BDFC0000202DE9F04709
:1038F000994615460F46060017D0002F17D04FF4F3
:103900009A744FF420722146362004F07FFCB0F107
:10391000000810D0B8F80A00A246504502D22CA0E8
:10392000FFF760FA032D0BD107E039A000E040A0BB
:10393000FFF758FA0020BDE8F0877879032807D10F
:10394000B979434811B94168491C41604068386001
:10395000D8F8044051462046FCF708FD01202070AD
:10396000607096F82C00A070386803F01FF8606053
:10397000082D0AD0042D08D0072D06D0032D06D11E
:103980007879052801D0042801D17068E06000230F
:10399000F018E1185B1C90F826009BB20877062B04
:1039A000F6D32C48C4F8EC0004F1F00101233522D1
:1039B0000C46002000F0CAF92A46214600F0DEF944
:1039C000B9F1000F01D0A9F800004046B3E70000AC
:1039D000646863705F6372656174655F6D73673A95
:1039E00020636865636B2074686174206669727314
:1039F0007420706275662063616E20686F6C64204D
:103A000073747275637420646863705F6D736700AC
:103A1000646863705F6372656174655F6D73673A54
:103A2000206E6574696620213D204E554C4C000087
:103A3000646863705F6372656174655F6D73673A34
:103A4000206468637020213D204E554C4C000000DE
:103A50005C0100206382536310B5094C207810B9D3
:103A600008A0FFF7BFF92078401E10F0FF0020707B
:103A700004D1A0680AF0B2FC0020A06010BD0000D4
:103A80005C010020646863705F7063625F726566EA
:103A9000636F756E7428293A20726566636F756E60
:103AA00074206572726F7200FEB5046A06460C21BE
:103AB000204600F07FFE02AB042221463046FFF78D
:103AC00015FF050028D069680423F03132220F4623
:103AD000BDF8080000F03AF9ADF80800E06902F01E
:103AE00065FF02463946BDF8080000F071F9ADF8EF
:103AF00008002A46394600F0D3F90F484323CDE9A0
:103B000000600F480D4A294680680AF0BDFD064650
:103B1000284604F031FE01E04FF0FF36A079FF287F
:103B200001D2401CA07142F603104FF4FA71B0FBB1
:103B3000F1F020813046FEBD580001085C0001080C
:103B40005C0100202DE9FE4F056A07464FF0000991
:103B500006212846C5F81C9000F02CFE02AB01227D
:103B600029463846FFF7C2FE06003BD071680223A3
:103B7000F0318A4639225446BDF8080000F0E6F8D4
:103B8000ADF80800BA8C214600F05AF9ADF80800EB
:103B900003233722214600F0D9F8DFF88480ADF8FE
:103BA00008000024514618F80420BDF8080000F071
:103BB000E5F8641CE4B2ADF80800032CF2D33246F9
:103BC000514680B200F06CF916484323CDE90070ED
:103BD0001348154A401E314680680AF055FD3046AC
:103BE00004F0CAFDA879FF2801D2401CA871C1B217
:103BF000062902D20120884000E03C2000EB400171
:103C0000C1EBC0104FF6FF7101EAC0004FF4FA712A
:103C100000F2F310B0FBF1F028814846BDE8FE8FBA
:103C20005D010020580001085C00010870B50B48D8
:103C3000002504680EE0216A59B10889012803D9DA
:103C4000A0F10100088104E003D10D81204600F0BD
:103C500023FE2468002CEED170BD0000FC00002083
:103C600070B5046A0022164E22626262F078154D29
:103C700008B1E868A062307908B1286901E0A06A5B
:103C80004008E062707908B1686903E0A06AC0EB9F
:103C9000C000C00820630869E061B07930B1A8694C
:103CA00002F084FE20620120E07100E0E271F07910
:103CB000002803D0E86902F079FE606270BD000060
:103CC000680100206054022010B5134C2078D0B950
:103CD000A06810B111A0FFF785F80AF05BFBA060A7
:103CE000B0B1417A442241F02001417215490AF0F5
:103CF00051F843221349A0680AF0D2F90022124970
:103D0000A0680AF057FB2078401C2070002010BDEE
:103D10004FF0FF3010BD00005C010020646863704C
:103D20005F696E635F7063625F726566636F756E15
:103D30007428293A206D656D6F7279206C65616B0E
:103D40000000000058000108754300082DE9F0410B
:103D50001D4604462844801C17460E46442802D9B6
:103D60000548FFF73FF83755641CA0B23554401C96
:103D700080B2BDE8F08100001802010870B5154658
:103D80000E460446442802D303A0FFF72BF835550E
:103D9000641CA0B270BD0000646863705F6F7074D3
:103DA000696F6E5F627974653A206F7074696F6EC7
:103DB000735F6F75745F6C656E203C2044484350A0
:103DC0005F4F5054494F4E535F4C454E000000002A
:103DD00070B50646001D14460D46442802D909A0B8
:103DE000FFF700F8200EA855761CB0B2210C29541C
:103DF000401C80B2210A2954401C80B22C54401C23
:103E000080B270BD646863705F6F7074696F6E5F5D
:103E10006C6F6E673A206F7074696F6E735F6F7549
:103E2000745F6C656E202B2034203C3D2044484359
:103E3000505F4F5054494F4E535F4C454E00000069
:103E400070B50446801C15460E46442802D905A0CC
:103E5000FEF7C8FF280A3055641CA0B23554401C38
:103E600080B270BD646863705F6F7074696F6E5FFD
:103E700073686F72743A206F7074696F6E735F6FDE
:103E800075745F6C656E202B2032203C3D204448C9
:103E900043505F4F5054494F4E535F4C454E0000C6
:103EA00030B4FF230B54401C83B2002402E0CC54F6
:103EB0005B1C9BB2442BFAD3F03330BC99B2104652
:103EC00004F0E6BC2DE9F34F85B000208B49039048
:103ED0000190C8600861059840892C2870D3059826
:103EE0004FF0F0080089059F06E0A8EB0102401A98
:103EF0003F681FFA82F880B2002F61D0798942466C
:103F00004145F2D916468246BDE0B01C1FFA80F941
:103F10004FF0FF34B145E1D37B89721C934203D942
:103F20000BEB0600407803E0386808B14068007881
:103F3000342905463AD007DC21B3012925D00329CD
:103F400029D0332908D12DE035293CD036293ED05F
:103F50003A2940D03B2942D0002581B33044801C0F
:103F6000B0F5803F2CD286B2002D7FD0002000908B
:103F7000082C02D362A0FEF735FF60480C30005DCC
:103F800088B373E000200546E7E7042801D061A06C
:103F90007DE00624E1E70425042801D260A076E054
:103FA0000724DAE70428F2D10324D6E7012801D058
:103FB00060A06CE0B8F1F00F03D061A067E013E0FF
:103FC0006CE00024C9E70128F2D10124C5E70428E8
:103FD000DDD10224C1E70428D9D10424BDE7042897
:103FE000D5D10524B9E701E096B23FE0042D01D216
:103FF000284600E00420024602904B4669463846B7
:1040000004F060FB01460298814247D1042D18D983
:10401000A80701D050A03AE0384901200C310855DA
:10402000009802F0C3FC014651482D1FEDB240F844
:10403000241009F1040080B248452FD38146641C46
:1040400096E7042D03D0012D05D04AA01FE000986B
:1040500002F0ACFC01E09DF800000090274901202F
:104060000C3108554248009940F824107889B04234
:1040700017D8311AAAEB00008EB21FFA80FA564503
:104080000CD23F6817B1D7F804B00BE03EA0FEF7A2
:10409000A9FE6FF0050007B0BDE8F08F6FF00100DA
:1040A000F9E737B1564504D21BF80610FF297FF413
:1040B0002CAF12490C31087860B12D4800220068FD
:1040C0000A70012808D0022802D003280AD001E093
:1040D00001200190039840B1002003904FF06C083C
:1040E000EC2000E701200190F6E701980028D2D0EB
:1040F000002001904FF02C086C20F4E65C010020B9
:10410000636865636B206465636F64655F69647889
:10411000000000006C656E203D3D20340000000072
:104120006C656E203E3D206465636F64655F6C6501
:104130006E0000006C656E203D3D203100000000E7
:104140006F7665726C6F616420696E2066696C655C
:104150002F736E616D6500006465636F64655F6CED
:10416000656E2025252034203D3D203000000000D4
:1041700060540220696E76616C6964206465636FC7
:1041800064655F6C656E00006E65787420706275A2
:104190006620776173206E756C6C00002DE9FC471A
:1041A000056A07460421284600F004FB01AB032200
:1041B00029463846FFF79AFB06003BD07168022378
:1041C000F031894639224C46BDF80400FFF7BEFDA8
:1041D000ADF80400BA8C2146FFF732FEADF80400BA
:1041E000032337222146FFF7B1FDDFF88080ADF8C9
:1041F00004000024494618F80420BDF80400FFF725
:10420000BDFD641CE4B2ADF80400032CF2D33246C9
:10421000494680B2FFF744FE14480097401E4323EE
:10422000134A314680680AF0CBF90446304604F060
:10423000A3FA01E04FF0FF34A879FF2801D2401C17
:10424000A871C0B20A2804D24FF47A7110FB01F0B1
:1042500001E042F2107080B24FF4FA7100F2F310F4
:10426000B0FBF1F028812046BDE8FC875D0100200D
:104270005C0001082DE9FC47056A07460321284632
:1042800000F098FA01AB032229463846FFF72EFBCF
:1042900006004ED071680223F031894639224C461F
:1042A000BDF80400FFF752FDADF804004FF41072A2
:1042B0002146FFF7C5FDADF8040004233222214654
:1042C000FFF744FDADF80400E86902F06FFB024619
:1042D0002146BDF80400FFF77BFDADF80400032381
:1042E00037222146FFF732FDDFF88080ADF8040069
:1042F0000024494618F80420BDF80400FFF73EFDED
:10430000641CE4B2ADF80400032CF2D332464946F3
:1043100080B2FFF7C5FD15480097401E4323144A9D
:10432000314680680AF04CF90446304604F024FA1D
:1043300001E04FF0FF34A879FF2801D2401CA8719A
:10434000C0B20A2804D24FF47A7110FB01F001E0E8
:1043500042F2107080B24FF4FA7100F2F310B0FB29
:10436000F1F028812046BDE8FC8700005D010020B7
:104370005C0001082DE9F041424851681646446846
:10438000256A002D79D02879002876D070892C28CC
:1043900073D30878022870D1002094F82C2008E00C
:1043A00023180F1893F826303F7FBB4265D1401C7D
:1043B000C0B2824201D90628F2D3486802F0F6FA68
:1043C0002968884259D129463046FFF77BFD08BB52
:1043D0002D494878F0B12D4A77681079052804D026
:1043E000062821D0022836D047E06879012806D077
:1043F000032814D0042812D0052810D03DE03946F7
:104400002046FFF72DFC94F82D00000703D5204629
:10441000FFF7FCF931E02046FFF76AF92DE0394655
:104420002046FFF71DFCF6E76879032805D0012830
:1044300003D0042801D005281FD10C21206A00F0E8
:10444000B9F9134B20461A46114603F035FE2046B3
:10445000FFF778FB11E0687906280ED12546246A1B
:10446000887850B100202081906802F09FFAA06106
:104470003869E061284600F0D7F83046BDE8F041E1
:1044800004F07AB9E0F600206801002060540220B0
:10449000580001082DE9FE43046A0746002C51D05C
:1044A000607900284ED0A06902900025A561E561E1
:1044B000256265622563E562A562A5826582258223
:1044C000E581384600F0DAF960B301AB07222146F6
:1044D0003846FFF70BFA060024D071680423F03148
:1044E00036228846BDF80400FFF730FCADF8040022
:1044F000029802F05BFA02464146BDF80400FFF75D
:1045000067FCADF8040032464146FFF7C9FC0E488F
:104510000097432302AA314680680AF051F83046DA
:1045200004F02AF9094B38461A46114603F0C4FD37
:104530000021204600F03EF92079002802D0FFF744
:104540008BFA2571BDE8FE835C010020580001084C
:104550002DE9FC47056A07460521284600F02AF99F
:1045600001AB032229463846FFF7C0F906003CD0CC
:1045700071680223F031894639224C46BDF80400A7
:10458000FFF7E4FBADF80400BA8C2146FFF758FCB6
:10459000ADF80400032337222146FFF7D7FBDFF8ED
:1045A0008480ADF804000024494618F80420BDF8C2
:1045B0000400FFF7E3FB641CE4B2ADF80400032C35
:1045C000F2D33246494680B2FFF76AFC154800979D
:1045D000401E432305F118023146806809F0F0FFC0
:1045E0000446304604F0C8F801E04FF0FF34A879E3
:1045F000FF2801D2401CA871C0B20A2804D24FF48F
:10460000FA6110FB01F001E044F6206080B24FF443
:10461000FA7100F2F310B0FBF1F028812046BDE8FA
:10462000FC8700005D0100202DE9FE43060072D0EA
:10463000356A002D76D00121284600F0BBF802AB88
:10464000032229463046FFF751F9070071D07968F7
:104650000223F031894639224C46BDF80800FFF7A5
:1046600075FBADF80800B28C2146FFF7E9FBADF809
:104670000800042332222146FFF768FBADF808004A
:10468000E86902F093F902462146BDF80800FFF7F9
:104690009FFBADF80800042336222146FFF756FBA6
:1046A000ADF80800A86902F081F902462146BDF87C
:1046B0000800FFF78DFBADF80800032337222146E1
:1046C000FFF744FBDFF8A880ADF808000024494656
:1046D00018F80420BDF80800FFF750FB641CE4B292
:1046E000ADF80800032CF2D33A46494680B2FFF7F2
:1046F000D7FB20484323CDE900601D481E4A401ED9
:104700003946806809F0C0FF0446384604F034F8A2
:1047100011E000E006E019A0FEF764FB6FF00F0067
:10472000BDE8FE831CA0FEF75DFB6FF00500F7E718
:10473000FFE74FF0FF34A879FF2801D2401CA87191
:10474000C1B2062902D20120884000E03C2000EBE3
:104750004001C1EBC0104FF6FF7101EAC0004FF4F9
:10476000FA7100F2F310B0FBF1F028812046D7E790
:104770005D010020580001085C0001086468637056
:104780005F73656C6563743A206E65746966202199
:104790003D204E554C4C0000646863705F73656C3F
:1047A0006563743A206468637020213D204E554C47
:1047B0004C00000042798A4203D04171002181718E
:1047C0000181704770B505006FF00F0418D095F89F
:1047D0002D00C00716D0A88C2C6A4FF0FF36B0F51C
:1047E000107F0BD39CB1207908B1FFF735F9342144
:1047F0002046FBF7BBFDFFF767FA78B1304670BD86
:1048000011A000E014A0FEF7EDFA204670BD3420A0
:1048100002F09CFE0400F1D02C62E8E70120207138
:1048200095F82D00400705D402212046FFF7C2FF6E
:10483000002070BD2846FFF785F90028F9D02846EA
:10484000FFF728FEDAE700006E6574696620213DF7
:10485000204E554C4C0000006E65746966206973EB
:10486000206E6F742075702C206F6C6420737479C7
:104870006C6520706F72743F0000000040B1006AE8
:1048800030B140790A2805D0052803D0042801D08A
:10489000002070470120704710B5026A0446517924
:1048A0000C290BD0062909D001290BD0082918D0D2
:1048B000032926D19079022820461ED3BDE8104056
:1048C000FFF740B990790528204603D8BDE810408D
:1048D000FFF7AABEFFF7DEFD2046BDE81040FFF758
:1048E00071BF90790128204603D8BDE81040FEF73B
:1048F0008DBFBDE81040FEF7FBBEBDE81040FFF7DE
:10490000B9BC10BD70B505460C46880702D007A09B
:10491000FEF768FA05F056F8A96809682160A968E9
:104920000C60BDE8704005F06FB800006D656D70FB
:104930005F667265653A206D656D2070726F706597
:10494000726C7920616C69676E65640070B50446AD
:1049500005F038F80546A06804685CB1216801607C
:10496000A00702D006A0FEF73DFA284605F04CF855
:10497000204670BD284605F047F8002070BD0000B5
:104980006D656D705F6D616C6C6F633A206D656D08
:10499000702070726F7065726C7920616C69676EDF
:1049A000656400002DE9F041064619481446194F88
:1049B000827875188AB1007908B1786900E0B86921
:1049C0002146FEF70FFA14A0FEF70CFAB44201D20A
:1049D000344602E0A54200D22C46F868FEF702FAFF
:1049E0000DA0FEF7FFF908E021460CA02268FEF7B3
:1049F000F9F909A0FEF7F6F9241DA542F4D80EA096
:104A0000FEF7F0F9BDE8F04103A0FEF7EBB90000B6
:104A1000A00100206C0001080D0A00002020616444
:104A200064723A2025303878202020206461746137
:104A30003A202530387800003D3D3D3D3D3D3D3D2F
:104A40003D3D3D3D3D3D3D3D3D3D3D3D3D3D3D3D96
:104A50003D3D3D3D3D3D3D3D3D3D3D3D000000007A
:104A60002DE9F0470F46040002D137A0FEF7BAF94E
:104A700004F0A8FF002666602772217F41F0010143
:104A800021776578667004F0BFFF636A7BB100220E
:104A9000042120469847636A4BB100221146204604
:104AA0009847636A1BB10022022120469847384686
:104AB00002F0D8FB804604F11000814605F002F8B0
:104AC00018B14146484604F0EFFF04F11400814656
:104AD00004F0F8FF18B14146484604F0E5FF012D07
:104AE0000BD0042D09D0032D07D0206A002828D030
:104AF000BDE8F04718A0FEF775B9207FC0F380012C
:104B000000F0FB00207700291BD1206A10B919A002
:104B1000FEF768F9206A042D08D00771206A05683D
:104B20000C35284605F05EF810B104E00671F5E793
:104B300017A0FEF757F928462662BDE8F04705F0B2
:104B400031B8BDE8F0870000636F6E6E20213D2014
:104B50004E554C4C00000000636F6E6E2D3E637529
:104B60007272656E745F6D7367203D3D204E554CCB
:104B70004C000000636F6E6E2D3E63757272656E41
:104B8000745F6D736720213D204E554C4C00000032
:104B9000696E61766C6964206F705F636F6D706CB5
:104BA000657465645F73656D0000000070B5094E43
:104BB0000546002404EB440006EBC000017D29B14A
:104BC0008068A84202D1204600F0F0F8641C0A2C4C
:104BD000F0DB70BD805402202DE9F74F84B04FF018
:104BE0000A0B00248046DA465F46D94602940194B7
:104BF0000094474904EB440001EBC0060390357D67
:104C00000A2F18D02DB3012D04D0022D02D241A0BD
:104C1000FEF7E8F8B8F1000F11D0D8F8000071687D
:104C200088420CD1069810B1B168814207D1204664
:104C300007B0BDE8F08F002DE5D1274609E0012D32
:104C400015D0022D05D3708A0099884201D3A2465F
:104C50000090641C24B20A2CCBDB059881074FF02E
:104C6000FF30E5D40A2F15D017DA3C4635E0284846
:104C7000039950F831000028708A05D002998842C3
:104C8000E7D3A1460290E4E701998842E1D3A34625
:104C90000190DEE70599C907CAD05146BAF10A0F5B
:104CA0000ADA0C461A4801EB440150F8310060B1B1
:104CB00028A0FEF797F808E05946BBF10A0F03DB7E
:104CC0004946B9F10A0FB3DA0C460A2C02DB27A0D9
:104CD000FEF788F8204600F069F80A2C02DB23A0D2
:104CE000FEF780F80A4804EB440100EBC105287D7B
:104CF00010B123A0FEF776F8B8F1000F02D0D8F873
:104D000000006860002068820698A8608FE70000B5
:104D1000805402207374617465203D3D20455448E1
:104D20004152505F53544154455F50454E44494EA3
:104D300047207C7C207374617465203E3D2045547F
:104D4000484152505F53544154455F535441424C83
:104D5000450000006172705F7461626C655B695D43
:104D60002E71203D3D204E554C4C000069203C20CA
:104D70004152505F5441424C455F53495A450000EF
:104D80006172705F7461626C655B695D2E737461E2
:104D90007465203D3D204554484152505F53544175
:104DA00054455F454D5054590000000070B5074D03
:104DB00000EB4004002655F8340018B103F0DCFC89
:104DC00045F8346005EBC400067570BD80540220C0
:104DD0002DE9F04385B00D00074609D07C684FF4FB
:104DE00080782088404540D1207906283DD105E0D3
:104DF00020A0FDF7F7FF05B0BDE8F0836079042837
:104E000033D16088082830D1D4F80E000490A1690D
:104E1000686818B1814201D1012600E000260EB178
:104E2000012300E0022304F10802914604A9284668
:104E300000F092FAE088404503D0B0F5007F14D12D
:104E40000FE096B1022204ABCDE90232291DCDE973
:104E5000001905F1260319464A46284600F0BAF91A
:104E600003E004A92846FEF729FC384603F084FC39
:104E7000C1E700006E6574696620213D204E554CE7
:104E80004C000000FEB515460E46040002D13DA0C0
:104E9000FDF7A8FF16B93FA0FDF7A4FF15B940A084
:104EA000FDF7A0FF2146286800F023FE08B1404B23
:104EB0003FE02868C0F303110E2925D0A16863687C
:104EC00000EA01020B409A4208D080B2A0F57E4170
:104ED000A93903D0E068B0B304F10C05354B36496D
:104EE0001A7802EB420001EBC000077D022F2ED39F
:104EF0008768A7422BD12F684068874227D1314667
:104F0000204600F05BF8FEBD01208DF80400002073
:104F10008DF805005E208DF80600687801AB00F082
:104F20007F008DF80700A8788DF80800E8788DF8E4
:104F300009004FF40060009004F12602314620463B
:104F400000F0B6FAFEBDFFE76FF00300FAE70022BB
:104F500002EB420001EBC000077D022F08D38768F7
:104F6000A74205D12F684068874201D11A70C6E771
:104F7000521CD2B20A2AEBD332462946204600F010
:104F800071F8DFE76E6574696620213D204E554C4F
:104F90004C0000007120213D204E554C4C0000007B
:104FA00069706164647220213D204E554C4C0000B4
:104FB0006000010870010020805402202DE9F843B0
:104FC0000646154688461A4802EB450100EBC10427
:104FD000207D022802D217A0FDF704FF144A05EB3A
:104FE0004501207D02EBC1050C35022813D1608AF2
:104FF0000327B0F58E7F04D9211D304600F068F9F3
:1050000007E0B0F5877F06D32A46211D304600F021
:1050100065F900B927754FF4006000902B4606F142
:1050200026024146304600F043FABDE8F88300000E
:10503000805402206172705F7461626C655B6172A2
:10504000705F6964785D2E7374617465203E3D20E5
:105050004554484152505F53544154455F53544165
:10506000424C45002DE9FC5F8246263001900F46F8
:10507000086816464FF0FF344FF0000B514600F021
:1050800038FD80B93868C0F303110E290BD057B131
:1050900048B1524601213846FFF79EFD050005D56F
:1050A00040B2BDE8FC9F6FF00F00FAE77F2D02D3FE
:1050B00031A0FDF797FE05F0FF09334909EB4908D8
:1050C00001EBC805287D50B1012804D0022802D286
:1050D0002EA0FDF787FEBBF1000F06D104E00120F2
:1050E0002875C5F808A000E036B93946504600F0EA
:1050F000EFF80446002ED4D0287D234F02280ED38B
:105100002C494FF4006005F10C0381F800900090E9
:1051100031465046019A00F0CBF904462AE00128B6
:1051200028D10025344660892189884204D120682D
:1051300010B121A0FDF756FE207B400603D4246861
:10514000002CF0D13DB132464FF420710E2003F017
:10515000EFF9064602E0304603F0F8FB46B157F897
:10516000380008B103F008FB47F83860002401E07C
:105170004FF0FF34204694E774797065206F7665B0
:1051800072666C6F77000000805402206172705F5D
:105190007461626C655B695D2E7374617465203D3A
:1051A0003D2050454E44494E47206F722053544194
:1051B000424C4500700100206E6F207061636B658A
:1051C000742071756575657320616C6C6F776564AB
:1051D000210000002DE9FF4F81B09846DDE90FA9BD
:1051E000DDF838B006004FF0000702D126A0FDF729
:1051F000F9FD4FF420721C210E2003F007F8050082
:105200003ED068891C2802D223A0FDF7EBFD6C6814
:10521000119801F0CDFBE08096F82C00062802D012
:105220002A48FDF7DFFDD8F80010A160B8F80400A7
:10523000A081DAF80010C4F81210BAF80400E08275
:10524000DBF80000C4F80E00D9F80000A0614FF4AC
:10525000807020800820608006202071042060710A
:1052600040F60600DDE9022300902946304600F0B2
:105270001FF9284603F080FA384605B0BDE8F08FE4
:105280004FF0FF30F9E700006E6574696620213D3C
:10529000204E554C4C000000636865636B207468B9
:1052A0006174206669727374207062756620636130
:1052B0006E20686F6C6420737472756374206574FB
:1052C000686172705F686472000000005C0201082F
:1052D000014A00F003B80000600001087FB5064DE8
:1052E000031D0124CDE90035CDE90214223319460E
:1052F000FFF770FF04B070BD6600010870B5154D72
:10530000002404EB440005EBC002117DF1B1508A8A
:10531000401C80B25082B0F5967F0AD2012906D097
:1053200003290AD004290AD001290BD00EE0052850
:1053300008D32046FFF73AFD08E0042000E00220F1
:10534000107503E0111D9068FFF7C2FF641C0A2C62
:10535000D7DB70BD80540220F8B5044690F82C00CD
:105360001F4615460E46062802D01EA0FDF73AFD40
:105370009EB1306888B1214600F0BBFB68B9307837
:10538000C0F303100E2808D0224639463046FFF7F6
:1053900023FC002804DA40B2F8BD6FF00F00F8BD1E
:1053A000194A00EB400102EBC1000223037584603F
:1053B0002B68C360AB8803820023438252F83160BC
:1053C00076B142F831304FF4006000902B4604F182
:1053D00026023146204600F06BF8304603F0CCF947
:1053E0000020F8BD6E657469662D3E68776164645F
:1053F000725F6C656E203D3D204554485F485741C3
:105400004444525F4C454E00805402202DE9F04147
:10541000044640890E270D460E283CD9E07B18B97A
:1054200095F83000401CE073606801788689CA07EF
:1054300014D0012905D006221C49FAF7AEFF48B165
:105440000CE0417851B980785E2807D1607B40F04C
:10545000100002E0607B40F008006073082E03D06B
:10546000B6F5C16F17D10DE095F82D00000712D5E4
:105470003946204603F088FA68B92946204600F0EC
:1054800043FC10E095F82D00000704D5394620466E
:1054900003F07AFA18B1204603F06EF903E02946CA
:1054A0002046FFF795FC0020BDE8F0816000010870
:1054B0002DE9F04104461F4690460E46069801F03D
:1054C00077FA05460E21304602F06CFE18B16FF0F7
:1054D0000100BDE8F0817068858139680160B98894
:1054E0008180D8F80020C0F80620B8F80410418167
:1054F00094F82C00062802D004A0FDF773FC314676
:105500002046A269BDE8F041104700006E6574694D
:10551000662D3E6877616464725F6C656E206D75A0
:105520007374206265203620666F7220657468652A
:10553000726E65745F6F7574707574210000000081
:1055400070B50446042002F001F8050001D04CB10A
:105550000BE00FA0FDF746FC10A0FDF743FC4FF059
:10556000FF3070BD15A0FDF73DFC7320E56184F8A8
:105570002E00742084F82F00144860611448A06144
:10558000204601F089F8263400202C6070BD000010
:105590000D0A5B4552525D203E3E200065746865F1
:1055A000726E657469665F696E69743A206F7574AE
:1055B000206F66206D656D6F72790A006E65746983
:1055C0006620213D204E554C4C000000854E0008C1
:1055D0009D6800080F4E05464FF0FF3700233A46FE
:1055E0001946306809F0EEFE0128F7D1284601F08F
:1055F000F7F80400F2D02A692946904718B12046EE
:1056000003F0BAF8EAE700231A461946306809F0B1
:10561000D9FEEBE77C01002070B58C4D8C4C95F8E1
:105620003800800705D5206BFDF7DCFB89A0FDF76E
:10563000D9FBA86B40007DD595F82400F0B3C007D6
:1056400005D0606BFDF7CEFB82A0FDF7CBFB95F894
:105650002400800705D5A06BFDF7C4FB7DA0FDF7F6
:10566000C1FB95F82400000705D5E06BFDF7BAFBF8
:1056700078A0FDF7B7FB95F82400C00605D5206C8F
:10568000FDF7B0FB73A0FDF7ADFB95F82400800695
:1056900005D5606CFDF7A6FB6EA0FDF7A3FB95F8A2
:1056A000240001060DD5C10701D1800709D5A96ADB
:1056B000D4F88C00FDF796FB66A000E001E0FDF752
:1056C00091FB95F82C00B0B3C00705D0A06CFDF796
:1056D00089FB60A0FDF786FB95F82C00800705D5B7
:1056E000E06CFDF77FFB5BA0FDF77CFB95F82C00E1
:1056F000400705D5206DFDF775FB56A0FDF772FB41
:1057000095F82C00000705D5606DFDF76BFB51A0E7
:10571000FDF768FB95F82C00C00605D5A06DFDF7D8
:1057200061FB4CA0FDF75EFB95F82C00800608D5C8
:10573000E06D01E04DE012E0FDF754FB45A0FDF700
:1057400051FB95F82C00010609D5800707D5296B78
:10575000D4F89000FDF746FB3EA0FDF743FBA88E72
:10576000B8B3C00705D0206EFDF73CFB39A0FDF7AC
:1057700039FB95F83400800705D5606EFDF732FBE4
:1057800034A0FDF72FFB95F83400400705D5A06E37
:10579000FDF728FB2FA0FDF725FB95F83400000747
:1057A00005D5E06EFDF71EFB2AA0FDF71BFBA88EBA
:1057B000C00505D5206FFDF715FB26A0FDF712FBF0
:1057C000A88E800505D5606FFDF70CFB21A0FDF7C5
:1057D00009FBA86B002837DAE86B002834D0C00733
:1057E00005D0A06FFDF7FEFA1AA0FDF7FBFA95F8B9
:1057F0003C00800705D5E06FFDF7F4FA15A0FDF732
:10580000F1FA95F83C00400706D5D4F88000FDF782
:10581000E9FA10A0FDF7E6FA95F83C00000706D576
:10582000D4F88400FDF7DEFA0AA0FDF7DBFA95F85C
:105830003C00C00608D5D4F88800FDF7D3FABDE8CF
:10584000704004A0FDF7CEBA70BD0000B45602202F
:105850006C0001080D0A000013B54FF47A730122A1
:1058600069460248FCF76BFE00981CBDBC01002095
:105870000A46032100F0C0B82DE9FE4F424A044613
:105880008A46D2F8088098F800000007860E142E89
:1058900075D36089042872D36068017800296ED0BE
:1058A00008296CD1506902F11407C0F303110E29C5
:1058B00065D09146116800F01CF900285FD120895D
:1058C00008285CD3204600F0EFF8002857D106F1F5
:1058D0000E010D46204602F065FC60B32089811957
:1058E00089B288424BD84FF420720E2002F08EFC11
:1058F000050044D0698906F10800814212D332467E
:1059000041466868FAF70BFD3146284603F03CF83B
:1059100018B11EA0FDF766FA04E02146284602F001
:1059200025FE18B1284602F027FF28E0204602F0A5
:1059300023FF2C4608E02946204603F025F818B13D
:1059400020A0FDF74FFA1AE031462046656802F0C4
:1059500029FCA0B960683968FF22C160D9F810102D
:1059600001610021297069800272418101228DE864
:1059700006040A46FF233946204600F0A9FA2046CD
:10598000BDE8FE4F02F0F8BEE0F6002069636D70DE
:105990005F696E7075743A206D6F76696E672072FC
:1059A0002D3E7061796C6F616420746F2069636D46
:1059B0007020686561646572206661696C65640A5F
:1059C0000000000069636D705F696E7075743A2045
:1059D000726573746F72696E67206F726967696E42
:1059E000616C20702D3E7061796C6F61642066611E
:1059F000696C65640A0000002DE9FF4791468846FE
:105A000006464FF420722421222002F0FFFB0500FD
:105A10002DD06889242802D216A0FDF7E3F96C681E
:105A200077681C2284F8008084F801904FF0000809
:105A3000A4F80480A4F80680686871680830FAF752
:105A40006EFCF868039003A800F0ECFB60B1A4F8CA
:105A500002800122CDF80080CDE90120FF2303AAB6
:105A60000021284600F034FA284602F085FEBDE801
:105A7000FF870000636865636B207468617420664B
:105A80006972737420706275662063616E20686F3E
:105A90006C642069636D70206D6573736167650068
:105AA0000A460B21FFF7A8BF70B50026054634460D
:105AB00012E06989686801F01BFC2044010C11FAAE
:105AC00080F4A87AC00706D08EB10026E0B2C4F3F5
:105AD000072141EA00242D68002DEAD126B1E0B269
:105AE000C4F3072141EA0024E04380B270BD0126DF
:105AF000ECE7421C12D088B191F82D2092070BD50B
:105B00004A68824208D0896800EA01030A40934249
:105B100002D10143491C01D0002070470120704789
:105B20002DE9F74F88B00446099800271426808C89
:105B3000BD1F1438C11700EB5170C0F3CF000390A4
:105B400060680690017801F00F01052903D028460E
:105B50000BB0BDE8F08F6189142903D256A0FDF780
:105B600041F9F4E7C08800F023FFC0F30C0100F412
:105B7000005002910790208914381FFA80F994E0B0
:105B800003984FF6FF7101EAC0004946484500D925
:105B9000084604904FF4207214210E2002F036FBC8
:105BA0005FEA000B51D0BBF80A00142802D249A0CA
:105BB000FDF718F91422DBF804000699FAF7AFFB99
:105BC000DBF804000590049D31E06089811B8FB2F1
:105BD000B04202D247A0FDF705F9BD4200D22F46E0
:105BE0001FB3052001F09AFE5FEA00082AD0606822
:105BF00043463044CDE9000741223946002002F0F7
:105C000009FC5FEA000A23D0204602F09FFE3D49CE
:105C1000C8E904145146584602F018FCE81B050474
:105C20002D0C06D000262468CFE724680026002D1E
:105C3000CBD1F01986B20998808C143848450BDB1B
:105C400001210AE0584602F097FD4FF0FF307FE750
:105C5000404600F017FBF5E700210298C0F30C0066
:105C600009B1079909B140F4005000F0A1FE05996F
:105C7000C8800498143080B200F09AFE05994880DC
:105C8000059800214181099859460A9A4369984725
:105C9000584602F071FD0499A9EB01001FFA80F942
:105CA000DDE90201084480B20290B9F1000F7FF4EF
:105CB00067AF00204CE700006970345F667261676F
:105CC00028293A207062756620746F6F2073686FA0
:105CD0007274000074686973206E65656473206176
:105CE000207062756620696E206F6E652070696530
:105CF00063652100702D3E6C656E203E3D20706F07
:105D0000666600006D6600082DE9F04745680746A5
:105D10000E46287804214FF0010AB1EB101F03D082
:105D2000384602F029FD88E000074FEA906868884D
:105D300000F03EFE04463889A04203D92146384689
:105D400002F0A6FD79894145EAD33889A042E7D31C
:105D5000B8F1140FE4D3DFF844912869C9F81400AE
:105D6000EA68C0F30310C9F810200E2805D03046A9
:105D700000F098F850B1344616E096F82D00C007B0
:105D800002D070680028F6D1002412E099F81400BF
:105D900000247F280DD04248046808E0B44205D0B2
:105DA000204600F07FF808B11CB10BE02468002CFD
:105DB000F4D1687A112805D105EB08004088B0F5C8
:105DC000884F38D0BAF1000F0DD0D9F8100050B17B
:105DD0003146FFF78EFE0028A2D199F81000C0F3DB
:105DE00003100E289CD0002C9AD0E88830F0C00018
:105DF00005D0384600F002F907001ED07D68C9F8CA
:105E00000850C9E90046297838460907890EA9F8DB
:105E10000C10414602F0B8FD687A01281AD0062815
:105E200013D011280CD04D462146D9F81400FFF7A5
:105E300060FEA0B120E03446D5E70020BDE8F08741
:105E40003146384608F07AF919E03146384604F010
:105E500013FD14E031463846FFF70EFD0FE0287DB4
:105E6000C0F303100E2807D04146384602F0F8FC74
:105E700002213846FFF7FCFC384602F07DFC002189
:105E8000C9F80010C9F80410C9F80810A9F80C10D6
:105E9000C9F81010C9F81410CFE70000E0F6002090
:105EA000FC00002010B590F82D10C9070CD04168F7
:105EB00051B1064A52698A4204D001461046FFF7A2
:105EC00018FE08B1012010BD002010BDE0F6002032
:105ED000FEB5DDE90954089E1AB109B10F6807B98A
:105EE000211D0096CDE9015400F002F8FEBD00002E
:105EF0002DE9F84F0546DDE90BA8807BDDF828B0D9
:105F00001F4616468946012802D02BA0FCF76AFFDF
:105F10006FF0010486B31421284602F043F960BBF8
:105F200068896C68142802D226A0FCF75BFF2772F0
:105F300084F809A0306820614520207084F801B001
:105F4000288900F035FD2B4F60804FF0000AA4F83F
:105F500006A0388800F02CFDA0803888401C3880CE
:105F6000B9F1000F05D0D9F80000E060A4F80AA04C
:105F70000EE021480068F8E700E002E06889142894
:105F800002D22046BDE8F88F68686E46006900902E
:105F9000B8F8240040B12989814205D932464146EA
:105FA0002846FFF7BDFDEDE7D8F8143040463246ED
:105FB00029469847E6E70000702D3E726566203D51
:105FC0003D203100636865636B20746861742066EE
:105FD0006972737420706275662063616E20686FE9
:105FE0006C64207374727563742069705F68647286
:105FF0000000000072010020580001082DE9F05F48
:1060000044688346207800F00F0005287ED1E088A0
:1060100000F0CEFCC004070C608800F0C9FC2178B9
:106020000907890E814271D8401A1FFA80F8584634
:1060300002F075FA6B4D0646288830440A2809D9C3
:106040003146204600F0BAFA00285FD02888304454
:106050000A28E8D8A9466D684FF0000A0CE0686984
:10606000E168884207D1A8692169884203D1A889DB
:10607000A188884203D02D68002DF0D106E02DB113
:10608000E08800F095FCC00425D02FE0042001F04A
:1060900045FC05000AD13146204600F08FFAB04297
:1060A00017DB042001F03AFC050012D02021FAF79A
:1060B0005DF90F20E877D9F80410296014222146F1
:1060C00005F10800C9F80450FAF729F9002D1DD090
:1060D0000CE05546FAE7E88900F06AFCC00405D0F8
:1060E0001422214605F10800FAF719F9A07940F3C6
:1060F0004014641C08D007EB080080B2B8425FD39C
:106100004FF6EB7188425BD8224600E065E05946C5
:10611000284600F0C9F8411C52D0B9F8002032449A
:10612000A9F8002034B107EB0801A983A97F41F049
:106130000101A977012841D1A88B1422143087B21C
:10614000686805F10801466830463468FAF7E7F8F0
:10615000384600F02DFC7080A6F806A0A6F80AA02C
:106160006E6809E014212046676802F00DFC2146A4
:10617000304602F06BF93C68002CF3D1D9F80410DA
:106180004C468D4205D1002105E00868A84202D0A6
:1061900001460029F9D1284600F060F9304602F0A6
:1061A000BEF921880546A94202D20FA0FCF71AFECB
:1061B0002088401B20803046BDE8F09F0020FBE790
:1061C000686850B9D9F80400854202D00DA0FCF7E8
:1061D00009FE0021284600F041F9584602F0CCFAA9
:1061E000ECE700007401002069705F7265617373F1
:1061F0005F70627566636F756E74203E3D20636CE0
:10620000656E00006E6F74206669727374616C74E1
:10621000686F756768206A75737420656E7175653F
:106220007565640070B50546144813E090F82D10AC
:10623000CA070FD04A070DD543685BB184682A6846
:10624000234002EA04069E4216D0890702D4C168A0
:106250008A4211D000680028E8D10948006850B18E
:1062600090F82D10CA0706D0490704D5416811B12E
:1062700029787F2900D1002070BD0000FC0000209B
:106280000001002010B5040002D104A0FCF7AAFD13
:106290002146BDE81040052001F0FEBA7020213DE6
:1062A000204E554C4C0000002DE9F05F4C6806462E
:1062B0009346884600250127608800F079FB217805
:1062C0004FF0FF3A0907890E814233D8A0EB01094C
:1062D000E08800F06DFBC004D8F80440020C0020F8
:1062E000206002EB09001FFA80FCA280A4F806C01F
:1062F00094451FD3716827E0486883889A4215D275
:10630000216065B1EB889A4214D38088844511D806
:10631000C5F80080A088834206D0002704E080886A
:10632000844507D8C6F8048081B126E002D0C18830
:106330008A4202D25046BDE8F09F1DB1E9889942D9
:1063400000D00027016805460029D5D175B1E8883D
:10635000A188884202D91EA0FCF744FDC5F8008040
:10636000E888A188884208D0002706E0706810B14C
:106370001FA0FCF737FDC6F80480BBF1000F02D167
:10638000B07FC007D7D007B37268F2B15068808879
:10639000D8B92068214628B14468C888A1888842B5
:1063A000F7D012E08FB112B91FA0FCF71BFD706887
:1063B0004068A04202D11CA0FCF714FD206810B177
:1063C0001DA0FCF70FFD0120B5E70020B3E700009A
:1063D000636865636B20667261676D656E747320B8
:1063E000646F6E2774206F7665726C6170000000B8
:1063F0006E6F2070726576696F7573206672616763
:106400006D656E742C2074686973206D75737420CB
:1064100062652074686520666972737420667261B3
:10642000676D656E7421000073616E697479206315
:106430006865636B0000000076616C696461746577
:106440005F646174616772616D3A6E6578745F70E4
:10645000627566213D4E554C4C00000070B50446F7
:1064600009480D464168A14202D12168416005E01A
:1064700015B906A0FCF7B6FC206828602146BDE8E7
:106480007040042001F008BA7401002073616E6945
:10649000747920636865636B206C696E6B6564203A
:1064A0006C697374000000002DE9F0470646002572
:1064B0000F46B14202D127A0FCF794FC2FB13868F7
:1064C000B04202D026A0FCF78DFC74684FF48038EF
:1064D00060688188B9B900687060142206F108010B
:1064E0006068F9F71CFF01212046FFF7D9FA204622
:1064F00002F015F80546404502D31EA0FCF772FCD9
:10650000204602F039F9C14674680FE06068A04681
:106510000468404602F003F805444D4502D315A037
:10652000FCF760FCADB2404602F026F9002CEDD13C
:1065300039463046FFF792FF164C2088A84202D217
:1065400015A0FCF74FFC2088401B20802846BDE8A2
:10655000F08700007072657620213D20697072001E
:10656000707265762D3E6E657874203D3D206970B1
:106570007200000070627566735F66726565642004
:106580002B20636C656E203C3D2030786666666625
:10659000000000007401002069705F726561737310
:1065A0005F70627566636F756E74203E3D20706229
:1065B0007566735F66726565640000002DE9F047DB
:1065C000DFF878900F460546002600221146134654
:1065D0001446D9F8040022E0D0F814C0D5F80C8095
:1065E000C4450BD1D0F818C0D5F81080C44505D1EA
:1065F000B0F80CC0B5F80480C44509D0641C2AB1B9
:1066000090F81FC092F81F80C44501D802460B467F
:10661000D0F800C0BCF1000F00D001466046002851
:10662000DAD122B119461046FFF73EFF0644BE42BA
:1066300001DA012CC9DC3046BDE8F0877401002086
:1066400070B50948002544680BE0E07F20B1401E8A
:10665000E0772546246804E0204624682946FFF7B1
:1066600023FF002CF1D170BD7401002010B504008F
:1066700002D106A0FCF7B6FB606908B102F07CF815
:106680002046BDE81040FFF7FDBD0000706372209A
:10669000213D204E554C4C0038B50446F9F772FFA9
:1066A00028B994F82D0040F0040084F82D0006204D
:1066B00084F82C0037484169097884F8261041692C
:1066C000497884F827104169897884F8281041694D
:1066D000C97884F829104169097984F82A10406939
:1066E0000021407984F82B0040F2DC50A08494F81B
:1066F0002D0040F00A0084F82D00282008F0E0FD6D
:106700002549086024480021001D03F01BFA28B920
:1067100022A0FCF767FB25A0FCF764FB1E48322192
:10672000083003F0AFF928B91CA0FCF75BFB23A0ED
:10673000FCF758FB032000904FF480632246244965
:1067400024A003F055FA002206213D20FBF7BEF8F5
:106750003D20FBF789F82148016841F00071016094
:10676000016801F000710091016841F080610160F1
:10677000016801F080610091016841F000610160F1
:10678000006800F000600090BDE838400148FAF76A
:106790003FBC0000FC0100207C0100200D0A5B448E
:1067A000454255475D203E3E200000007379735FEF
:1067B00073656D5F6E6577206F6B0A007379735F29
:1067C0006D626F785F6E6577206F6B0A0000000066
:1067D000D5550008455448494E0000003038024065
:1067E0002DE9F84F0020044600902B48FAF744F9B1
:1067F00010B10020BDE8F88F2748818FD0F8409075
:106800000904090C2ED04FF4C172002001F0FEFCE7
:10681000009038B32048009D40F2F45BD0F83080FF
:106820006F8900260FE0A4F2F4525242F9F777FD87
:10683000D8F80C008046D0F80890361BAAF2F4571E
:10684000002406F2F456686807EB040ADA4509EBFF
:1068500004013044E7D83A46F9F761FD2D683C441D
:10686000002DDDD10C4A0021106B05E0036843F0D8
:1068700000430360C068491C936B8B42F6D800212B
:106880009163106800F580504269120602D580229B
:10689000426181600098ADE7FC0100202DE9F05FC6
:1068A00031480D46C06840B92F4800210C3003F034
:1068B00049F92D480C3003F075F92C484FF00009C8
:1068C0004C46C66AD6F808A03068002812DB264875
:1068D00000210C3003F07BF82CE0B5F80A8000278B
:1068E00017E0A4F2F4525242F9F719FDF668306845
:1068F000002802DA6FF0070423E0D6F808A03F1B57
:10690000A9EB0400ABF2F45800F2F459002407F2AA
:10691000F45708EB040B40F2F45168688B4500EB28
:1069200007010AEB0400DCD84246F9F7F8FC2D68B1
:106930004444C144002DD0D149460C48FAF7AAFB83
:1069400000240A48006800F580504169890603D593
:10695000202141610021416003480C3003F022F9FD
:106960002046BDE8F09F00007C010020FC010020D3
:1069700010B504464068804703F0D4F8094A2168FE
:1069800052688B181A1AB2F1004F03D308442246FA
:10699000054902E0044922461846BDE8104003F0CC
:1069A00085B90000480100207169000800BA7047ED
:1069B00040BA704710B503F049F800F093FD00F0BD
:1069C00089FF01F045FB07F0B7FB03F053FFBDE87B
:1069D000104003F0B7B900002DE9F0478A460400E3
:1069E00002D15EA0FCF7FEF920780121B1EB101F67
:1069F00002D05EA0FCF7F6F96078042802D063A00C
:106A0000FCF7F0F9606810B969A0FCF7EBF9206AAF
:106A100010B96CA0FCF7E6F9206A6768007A00F00C
:106A2000010900F0020803280FD0B9F1000F06D0C9
:106A3000387D052809D0062807D0082805D0B8F1E8
:106A4000000F08D0B87EC00605D5012500213846C4
:106A500003F0DAFA00E00025387D01281FD0B9F1F3
:106A6000000F07D00021384605F074FD002138469C
:106A700003F02FFAB8F1000F03D00021384606F0DA
:106A800003F895B100221146384605F049F8002177
:106A9000384603F001FE384603F0BAFA0AE0002156
:106AA000384603F016FA002DF5D1424649463846DD
:106AB00006F00AF806000DD0701C0BD1206A407A4F
:106AC00018B1387D012830D032E01DB1384603F0CE
:106AD000FDF90026206A07680671002020626070B8
:106AE0000C37CEB935B16060636A1BB10022042156
:106AF00020469847B9F1000F05D0636A1BB1002208
:106B0000114620469847B8F1000F05D0636A1BB1C3
:106B10000022022120469847BAF1000F02D03846E1
:106B200003F040F80020BDE8F0872DA0FCF75AF9EB
:106B3000B8F1000F03D03349384605F0A5FF012214
:106B40003149384604F0ECFF3049384603F0A4FDE3
:106B50002146384603F058FA3046E4E7696E76611C
:106B60006C696420636F6E6E000000007468697366
:106B700020697320666F7220746370206E65746381
:106B80006F6E6E73206F6E6C79000000636F6E6EB7
:106B9000206D75737420626520696E207374617452
:106BA00065204E4554434F4E4E5F434C4F53450076
:106BB00070636220616C726561647920636C6F73CD
:106BC00065640000636F6E6E2D3E63757272656E54
:106BD000745F6D736720213D204E554C4C000000C2
:106BE000436C6F73696E672061206C697374656EA6
:106BF00020706362206D6179206E6F742066616918
:106C00006C210000B1980008A98B0008614A0008B7
:106C100010B50446006843686BB1017801F0F001DB
:106C2000102911D0202909D02AA0FCF7DBF86FF039
:106C30000500207110BD6FF00E00FAE7A28918461A
:106C4000A16807F02DFAF4E74178032903D029B1B0
:106C50006FF00900EDE76FF00800EAE702F060FE70
:106C60002068A289A1684068204B03F0D7FA002869
:106C7000DFD120680322017F42702068C1F3400108
:106C80000029017F05D041F0040101776FF0040075
:106C9000CFE701F0FB0101772068046220684078AB
:106CA000032802D012A0FCF79DF8134802F034FF2D
:106CB000206800210C3002F08AFE0F4802F007FF26
:106CC000206840780328B5D1BDE8104008A0FCF743
:106CD00089B80000496E76616C6964206E657463E2
:106CE0006F6E6E207479706500000000FD6C000806
:106CF0007374617465210000B000002070B5164601
:106D000004004FF0000508D06078032802D01EA0D0
:106D1000FCF768F8206A18B10AE06FF0050070BD52
:106D2000207F400708D420A0FCF75CF8206A18B147
:106D30000671206A05680C3520780121B1EB101F1F
:106D400003D116B9204602F0EBFD207F40F3800608
:106D500000F0FB002077761C00D02DB956EA050024
:106D600002D021A0FCF73EF8002020626070636A28
:106D70001BB1002202212046984716B1284602F096
:106D800011FF002070BD0000636F6E6E2D3E7374A6
:106D9000617465203D3D204E4554434F4E4E5F4348
:106DA0004F4E4E454354000028636F6E6E2D3E6378
:106DB000757272656E745F6D736720213D204E554C
:106DC0004C4C29207C7C20636F6E6E2D3E696E5F7B
:106DD0006E6F6E5F626C6F636B696E675F636F6E21
:106DE0006E65637400000000626C6F636B696E67B0
:106DF00020636F6E6E6563742073746174652065C3
:106E000072726F720000000070B504460068457829
:106E100095B100780121B1EB101F02D031A0FBF732
:106E2000E1FF022D08D0032D03D12068007F400729
:106E300002D4FB20207121E000252571206800F09C
:106E400072FE2068416869B1027802F0F002102AEF
:106E50001AD0202A04D1CD612068406807F0BEFA1C
:106E6000206845602068436A43B100221146984774
:106E70002068436A13B10022022198472068BDE8C8
:106E800070400C3002F0AEBE006A10B11AA0FBF7E1
:106E9000A9FF216804204870032020722068002187
:106EA00004622068FFF798FD00281AD02068407817
:106EB000042802D017A0FBF795FF184802F02CFE1B
:106EC000206800210C3002F082FD144802F0FFFD22
:106ED00020684078002804D0BDE870400DA0FBF782
:106EE00081BF70BD6E6574636F6E6E207374617464
:106EF00065206572726F7200616C726561647920E1
:106F000077726974696E67206F7220636C6F736942
:106F10006E6700007374617465210000B00000208A
:106F20000021017101684968002901D101F060BDAB
:106F3000704770B50446006800F043FE98B92168B8
:106F40006FF00A004D6875B1097801F0F001202951
:106F500009D1A068816841B1838900F10802016804
:106F6000284607F0DBFA207170BD0168284607F05B
:106F70005DFAF8E72DE9F34F81B004004FF0000A05
:106F800002D17AA0FBF72EFF6078012802D07BA007
:106F9000FBF728FF206A10B980A0FBF723FF606889
:106FA00010B985A0FBF71EFF206A81694069814204
:106FB00002D387A0FBF716FF206A808910B994A03E
:106FC000FBF710FF206A077F207F800701D4780736
:106FD00001D5012000E0002080464FF6FF7B206AAB
:106FE0004FF48039816800690A68024400924A6857
:106FF000161A4E4503D35D4647F0020700E0B5B2CE
:107000006168B1F86410A9420ED20D46B8F1000FC4
:1070100008D04DB9206A806908B100264AE06FF0B7
:10702000060647E047F002072844904202D982A0B2
:10703000FBF7D8FE5D4501D14E4506D2B0B2A8425D
:1070400008D1206A8089012804D94FF0010947F04E
:10705000020701E04FF000093B462A4660680099AC
:1070600006F086F9060019D1206A816929448161F8
:10707000206A016929440161206A8268526891424C
:107080000CD18189491E0904090C8181206A05D02F
:10709000816808318160216A00200861B9F1000F20
:1070A00002D0002E9BD000E00EB1701C4BD1B8F185
:1070B000000F0FD0206A8169406981420AD2636A59
:1070C0001BB10022032120469847207F40F010008A
:1070D000207710E0606841F68442B0F86410914275
:1070E00003D9B0F86600282805D3636A1BB10022D3
:1070F00003212046984716B1701C11D023E0206A66
:1071000081694069814202D0B8F1000F01D04FF08F
:10711000010A606804F09CF8011D11D1064612E0D6
:10712000606804F095F8011DF8D0B8F1000F07D0A1
:10713000206A806908B1002605E06FF0060602E0CB
:10714000BAF1000F0ED0206A01680671002020629B
:10715000607002980C3110B1084602F023FD002047
:10716000BDE8FE8F4FF0FF30FAE70000636F6E6EF0
:1071700020213D204E554C4C00000000636F6E6E88
:107180002D3E7374617465203D3D204E4554434F40
:107190004E4E5F575249544500000000636F6E6EBB
:1071A0002D3E63757272656E745F6D736720213D4D
:1071B000204E554C4C000000636F6E6E2D3E706388
:1071C000622E74637020213D204E554C4C0000000F
:1071D000636F6E6E2D3E63757272656E745F6D7354
:1071E000672D3E6D73672E772E6F6666736574200C
:1071F0003C20636F6E6E2D3E63757272656E745FB8
:107200006D73672D3E6D73672E772E6C656E000073
:10721000636F6E6E2D3E63757272656E745F6D7313
:10722000672D3E6D73672E772E766563746F725F80
:10723000636E74203E2030006C7769705F6E6574F9
:10724000636F6E6E5F646F5F77726974656D6F7286
:10725000653A20696E76616C6964206C656E67744E
:107260006821000010B510F10F0F10D010F10E0FB3
:107270000AD010F10D0F05D010B106A0FBF7B2FD3A
:10728000002010BD074810BD0648401C10BD054831
:10729000801C10BD756E68616E646C6564206572DB
:1072A000726F720008FF000870B50C00054602D12D
:1072B0000BA0FBF797FD0D48854201D1F3200AE0B2
:1072C0000A48401C854201D1F22004E00748801C96
:1072D000854203D1F1202070012070BD002070BDD7
:1072E00065727220213D204E554C4C0008FF00086D
:1072F00018B50022ADF8002010F001030BD00029D2
:1073000009DD10F8014B8DF80140491E03E030F80B
:10731000024B891E22440129F9DC002902DD007894
:107320008DF80000BDF800001044010C11FA80F047
:10733000010C11FA80F023B1C1B2C0F3072040EA7A
:10734000012080B218BD00001CB5F9F7E5F8094925
:107350000120CDE900014202002307A10A4808F0FC
:107360002FFB012802D04FF0FF301CBD07F00CFEB0
:10737000FEE70000100000204170705461736B4301
:107380007265617465000000550400082DE9F04144
:10739000002854D0810701D02AA00AE0324FA0F182
:1073A000080439688C4203D379680C30884203D9C9
:1073B0002EA0FBF717FD2CE02B48083002F087FBCE
:1073C000207960B3204600F0A9F90546208802F034
:1073D000C5F80646608802F0C1F8014620884FF4DF
:1073E0007053002298420DD8608898420AD8A8426B
:1073F00002D00888A84205D17868864211D07088EA
:10740000A8420ED020A0FBF7EDFC1748083002F090
:1074100083FB02F0D7FABDE8F04102F0F5BA27A0ED
:10742000F1E72271F868844200D2FC60204601F046
:1074300027FBBDE8F0410C48083002F06DBBBDE809
:10744000F08100006D656D5F667265653A2073615D
:107450006E69747920636865636B20616C69676E1F
:107460006D656E7400000000B40000206D656D5FF6
:10747000667265653A20696C6C6567616C206D6544
:107480006D6F7279000000006D656D5F66726565F5
:107490003A20696C6C6567616C206D656D6F7279FF
:1074A0003A206E6F6E2D6C696E6B65643A20646F66
:1074B00075626C6520667265650000006D656D5FC4
:1074C000667265653A20696C6C6567616C206D65F4
:1074D0006D6F72793A20646F75626C6520667265B3
:1074E0006500000070B51048104C20F003004FF408
:1074F000705520600580002141800171284602F00E
:107500002DF8012160600171058045802068E060F0
:1075100004F1080002F0E2FA002804D0BDE870404F
:1075200003A0FBF75FBC70BDFBF60020B400002099
:107530006661696C656420746F206372656174654F
:10754000206D656D5F6D7574657800002DE9F047FD
:1075500000280ED0C51C4FF6FC710D404FF4705A38
:107560000C2D01D20C2501E0554501D8854202D2EF
:107570000020BDE8F0873B4802F0A9FADFF8E4807C
:10758000A8F10808D8F80C0000F0C8F80646C5F5C0
:10759000705761E0304601F0E1FF044600790028B1
:1075A00056D12088801B0838A84251D3208805F185
:1075B0001401801B08384FF00109884219D3701953
:1075C000083087B2574502D127A0FBF70BFC38469D
:1075D00001F0C4FF002101712188018046802780CD
:1075E00084F804900088504505D001F0B7FF47802B
:1075F00001E084F80490D8F80C004646844203D099
:1076000010E0008801F0AAFF017911B17168884289
:10761000F7D1F0607168884204D0007910B117A0EA
:10762000FBF7E0FB0F4802F077FA60197168083049
:10763000884202D918A0FBF7D5FBA00705D022A0ED
:10764000FBF7D0FB2CA0FBF7CDFB04F1080090E783
:10765000304601F083FF0688B7429BD8014802F00C
:107660005BFA85E7BC000020696E76616C69642076
:107670006E65787420707472000000006D656D5F37
:107680006D616C6C6F633A20216C667265652D3E8E
:1076900075736564000000006D656D5F6D616C6CF5
:1076A0006F633A20616C6C6F6361746564206D6513
:1076B0006D6F7279206E6F742061626F76652072D3
:1076C000616D5F656E642E006D656D5F6D616C6CE4
:1076D0006F633A20616C6C6F6361746564206D65E3
:1076E0006D6F72792070726F7065726C7920616C49
:1076F00069676E65642E00006D656D5F6D616C6C11
:107700006F633A2073616E69747920636865636B97
:1077100020616C69676E6D656E74000002490988AE
:10772000401A80B270470000B40000202DE9F05FDD
:107730000746CC1C4FF6FC7004404FF4705B0C2CD9
:1077400001D20C2401E05C4529D88C4227D33E4D60
:107750002868874202D36868874202D33BA0FBF7C0
:1077600041FB2868874203D36868AA46874204D34E
:1077700002F028F902F048F916E0A7F108052846BA
:10778000FFF7CCFF06462888801B08381FFA80F9CF
:107790004C4502D933A0FBF725FB4C4503D94FF0EC
:1077A0000000BDE8F09F01D13846FAE7264800F115
:1077B000080002F08CF9288801F0D0FE804600799C
:1077C00030B304F1140048451DD83019083084B294
:1077D0002888584502D12BA0FBF704FB204601F076
:1077E000BDFEDAF80C20904201D2CAF80C0000214C
:1077F00001712988018046802C800088584502D07C
:1078000001F0ACFE44801048083002F085F9CBE767
:107810002888584502D11BA0FBF7E4FA301908303C
:10782000DAF80C10B8F8009084B2414504D1204633
:1078300001F094FECAF80C00204601F08FFE0021F2
:107840000171A0F80090D6E7B40000206D656D5F6F
:107850007472696D3A206C6567616C206D656D6F3F
:10786000727900006D656D5F7472696D2063616E81
:10787000206F6E6C7920736872696E6B206D656D18
:107880006F727900696E76616C6964206E657874D8
:1078900020707472000000000D2802D305A0FBF7D1
:1078A000A1BA002904D00A4A52F82000FDF72AB8EC
:1078B000704700006D656D705F667265653A207493
:1078C000797065203C204D454D505F4D415800007A
:1078D000A8FF000830B5054D002455F8240000F03D
:1078E00007F8641CA4B20D2CF7D330BDA8FF000824
:1078F0008268002111604168C91C21F00301002247
:1079000007E08368521C1B680B608368196003885A
:10791000194443889342F4DC7047000010B50D28E9
:1079200004D306A0FBF75EFA002010BD0B4951F806
:107930002000BDE81040FDF709B800006D656D70CE
:107940005F6D616C6C6F633A2074797065203C20C8
:107950004D454D505F4D415800000000A8FF000804
:1079600010B504000CD0206820B100F005FF002005
:10797000606020602146BDE810400620FFF78CBF04
:1079800010BD10B50620FFF7C9FF002804D0002164
:10799000016041608160C16010BD000070B5154696
:1079A0000E46040013D0206808B100F0E5FE412225
:1079B0000021362000F02AFC206070B1466020686B
:1079C00005812068458120686060002070BD05A0A9
:1079D000FBF708FA6FF00F0070BD00206060401EDA
:1079E00070BD00006E65746275665F7265663A20F0
:1079F000696E76616C696420627566002DE9F041FC
:107A000007460E460720FFF789FF041E22D00025F7
:107A10002572277007F0F0006560102805D0202837
:107A200003D014A0FBF7DEF90FE004F110000A21E7
:107A3000074602F027F840B9002104F10C0002F0DB
:107A400081F848B1384602F013F821460720FFF7C5
:107A500023FF0020BDE8F08104F1140002F021F8BA
:107A600065704FF0FF30A061C4E9085625772046C5
:107A7000F0E700006E6574636F6E6E5F616C6C6F33
:107A8000633A20756E646566696E6564206E657420
:107A9000636F6E6E5F7479706500000010B50A68E0
:107AA0000C460C3206F0C8F8002801D194F9040005
:107AB00010BD000000B589B008B139B107E008A0D9
:107AC000FBF790F96FF00F0009B000BD0C4902916F
:107AD0000090ADF80C2069460A48FFF7DFFFF3E796
:107AE0006E6574636F6E6E5F636F6E6E6563743A1E
:107AF00020696E76616C696420636F6E6E000000B1
:107B000058000108116C000870B5050004D000F0A1
:107B100061F9040002D004E0002070BD284600F0A6
:107B20005FF8204670BD7CB504461030064601F073
:107B3000C9FFF0B101256946304601F034FF401C11
:107B400011D02078B5EB101F09D101A90098FFF7DB
:107B5000ABFB0028EFD1009800F00EFEEBE7009899
:107B6000FFF7FEFEE7E7304601F082FF304601F006
:107B700098FF04F11400064601F0A4FF00281FD06E
:107B800000256946304601F00EFF401C12D001A9C5
:107B90000098FFF789FB0028F3D1009C2046FFF7EF
:107BA000C2FF606810B102F091F96560204600F0F4
:107BB00017F8E6E7304601F05BFF304601F071FF51
:107BC0007CBD70B5040009D001F0FCFE94F90850AA
:107BD0000021217201F018FF284670BD002070BD01
:107BE00070B50446406810B110A0FBF7FBF804F133
:107BF000100001F067FF10B118A0FBF7F3F804F1D3
:107C0000140001F05FFF10B123A0FBF7EBF804F1C3
:107C10000C00054601F08EFF284601F0BFFF21460B
:107C2000BDE870400720FFF737BE000050434220F8
:107C30006D757374206265206465616C6C6F63613F
:107C4000746564206F757473696465207468697302
:107C50002066756E6374696F6E00000072656376EE
:107C60006D626F78206D7573742062652064656144
:107C70006C6C6F6361746564206265666F72652009
:107C800063616C6C696E6720746869732066756ED9
:107C90006374696F6E0000006163636570746D6288
:107CA0006F78206D757374206265206465616C6CFB
:107CB0006F6361746564206265666F7265206361DD
:107CC0006C6C696E6720746869732066756E637486
:107CD000696F6E0070B50D4688B01146FFF78EFED5
:107CE000040034D08DF8085069461A480094FFF714
:107CF000D5FE00282BD0606810B117A0FBF772F8F2
:107D000004F11000054601F0DDFE10B91BA0FBF7E1
:107D100069F804F1140001F0D5FE10B11DA0FBF7C5
:107D200061F804F10C00064601F05CFF10B922A0D6
:107D3000FBF758F8304601F0FDFE284601F098FEAA
:107D400021460720FFF7A8FD002008B070BD20469F
:107D5000FBE70000216F000866726565696E6720A9
:107D6000636F6E6E20776974686F757420667265D4
:107D700065696E672070636200000000636F6E6E5D
:107D800020686173206E6F20726563766D626F7814
:107D900000000000636F6E6E2D3E6163636570745A
:107DA0006D626F782073686F756C646E27742065E0
:107DB0007869737400000000636F6E6E20686173F1
:107DC000206E6F206F705F636F6D706C657465649B
:107DD0000000000000B589B0002807D000902920DD
:107DE0008DF8090069460248FFF758FE09B000BD4A
:107DF000096E000800B589B038B10291009069465B
:107E00000548FFF74BFE09B000BD04A0FAF7EAFFF2
:107E10006FF00F00F7E70000336F00086E657463C2
:107E20006F6E6E5F73656E643A20696E76616C6921
:107E30006420636F6E6E00002DE9F0410400DDE9FF
:107E40000750069F02D01DB131B106E02CA000E022
:107E500032A0FAF7C7FF1DE0394902B9384A03B921
:107E6000374B00266660A660DFF8D8C0C4F814C09F
:107E7000E660A68484F82D60C4E90776324F97F84F
:107E800000C084F830C02061204600F015F920467B
:107E9000A84710B10020BDE8F081B04694F830004A
:107EA000FF2801D184F8308000267D6818E0A542C3
:107EB00002D126A0FAF796FF761CFF2E02DD28A03D
:107EC000FAF790FF95F8300094F83010884206D108
:107ED000C8B2401C84F83000002DDFD102E02D68CC
:107EE000002DE4D194F83000FE2806D0401C3870F4
:107EF0007868206020467C60CDE787F80080F7E74F
:107F00006E657469665F6164643A20696E76616C5F
:107F10006964206E65746966000000006E657469AE
:107F2000665F6164643A204E6F20696E69742066F2
:107F3000756E6374696F6E20676976656E00000008
:107F400058000108B1800008F80000206E657469CF
:107F50006620616C726561647920616464656400A7
:107F6000746F6F206D616E79206E65746966732C15
:107F7000206D61782E20737570706F727465642047
:107F80006E756D62657220697320323535000000B0
:107F900070B50C46054603F0B7F821462846BDE803
:107FA000704006F0DDB90A68C3689A4204D001B98E
:107FB0000022C2600120704700207047F8B51646C5
:107FC0000C00054602D10FA0FAF70CFF16B90DA060
:107FD000FAF708FF20686968884211D00090686845
:107FE000306069463046FFF7D3FF3CB120686860D7
:107FF0000121284600F02EF80120F8BD0020F6E708
:108000000020F8BD696E76616C696420706F696EDE
:10801000746572000A6883689A4204D001B900222C
:1080200082600120704700207047000001000BD0E3
:108030000648406806E090F83020521CD2B28A42CE
:1080400003D000680028F6D100207047F800002017
:108050007047000070B50D46040002D10BA0FAF77E
:10806000C1FE94F82D0041070ED5C1070CD0E907D9
:108070000AD06168002907D0000705D5211D2046D8
:10808000BDE87040FDF724B970BD00006E657469ED
:10809000665F69737375655F7265706F7274733A4A
:1080A00020696E76616C6964206E65746966000093
:1080B0006FF00B00704700002DE9F84F4FF00009FA
:1080C0001E4617460C008246C84600D1114C07B91F
:1080D000104F06B90F4EDCB12068C8B1002525B19C
:1080E0006A4621465046FFF769FF4A4639465046E0
:1080F000FFF790FF424631465046FFF754FF002DF0
:1081000004D16A4621465046FFF758FFBDE8F88F74
:108110000125E4E758000108014988607047000024
:10812000F800002058B190F82D10CA070AD001F0CD
:10813000FE0180F82D10090704D5FCF737BD02A019
:10814000FAF750BE704700006E657469665F73652C
:10815000745F646F776E3A20696E76616C69642033
:108160006E6574696600000050B190F82D10CA0762
:1081700009D141F0010180F82D100321FFF76ABFFA
:1081800001A0FAF72FBE70476E657469665F73656C
:10819000745F75703A20696E76616C6964206E65F3
:1081A00074696600002200F001B8000070B5A0B14B
:1081B000B1F5803F21D2A1B104898BB214FA81F5C7
:1081C000ADB29D4219D3057B2D060CD54268511ADC
:1081D00000F11002914210D308E009A0FAF702FE64
:1081E0000BE0002070BD42B14268511A41604189E4
:1081F00019444181E1180181F3E7012070BD0000BD
:108200007020213D204E554C4C0000002DE9FC5FB4
:10821000074691460D461046012A0BD0412809D049
:10822000B0F5C17F0CD0B2F5207F49D03AA0FAF763
:10823000D9FD54E00246002000F0C4F8064668E08C
:108240000026B0460C20FFF769FB040031D007F18F
:10825000030B2BF00300A0F2EC50404280B2A84286
:1082600000D9284682460020CDE90090E01913305D
:1082700020F0030153462A46204600F0FBFA2079FD
:10828000800702D02BA0FAF7ADFD40F27B11B1EBD5
:108290009B0F02D133A0FAF7A5FD7EB1C8F80040CC
:1082A000A5EB0A000504A0462D0C4FF00007C9D12C
:1082B0002FE0A6B1304600F05FFA10E02646EFE767
:1082C000F81C20F00301E81C20F00300014489B2EF
:1082D00001F1100292B2884201D8904202D90020E6
:1082E000BDE8FC9F1046FFF731F9061EF8D00020CC
:1082F000CDE90090F019133020F003012B461A4607
:10830000304600F0B7FA3079800702D022A0FAF7A1
:1083100069FD3046E4E70000706275665F616C6C71
:108320006F633A206572726F6E656F757320747932
:1083300070650000706275665F616C6C6F633A20F7
:108340007062756620712D3E7061796C6F6164207A
:1083500070726F7065726C7920616C69676E6564AC
:1083600000000000504255465F504F4F4C5F425551
:108370004653495A45206D757374206265206269C1
:1083800067676572207468616E204D454D5F414C92
:1083900049474E4D454E5400706275665F616C6C86
:1083A0006F633A20706275662D3E7061796C6F6103
:1083B000642070726F7065726C7920616C69676E91
:1083C000656400002DE9FC4114460E460746412A2B
:1083D00004D0012C02D00AA0FAF704FD0B20FFF70D
:1083E0009DFA05004FF0000008D0CDE9004033466B
:1083F0001A463946284600F03DFA2846BDE8FC8179
:10840000696E76616C696420706275665F747970FC
:10841000650000007CB51D461646DDE90634C01C2B
:1084200020F003025018A04201D900207CBD0BB1FE
:10843000D41800E000240220CDE900600B461A4663
:108440002146284600F016FA28467CBD70B50D4638
:1084500000B125B9BDE870400EA0FAF7C3BC0446D0
:10846000006820B121892A8911442181F7E72089F8
:108470006189884207D015A0FAF7B4FC206810B1D2
:108480001EA0FAF7AFFC20892989084420812560C5
:1084900070BD0000286820213D204E554C4C2920FD
:1084A000262620287420213D204E554C4C2920287A
:1084B00070726F6772616D6D65722076696F6C6145
:1084C000746573204150492900000000702D3E74EE
:1084D0006F745F6C656E203D3D20702D3E6C656E47
:1084E00020286F66206C6173742070627566206945
:1084F0006E20636861696E2900000000702D3E6E79
:10850000657874203D3D204E554C4C0010B50C460E
:10851000FFF79CFF2046BDE8104000F017BA00218D
:1085200002E0491C006889B20028FAD10846704769
:1085300070B515460A462989FFF768FE040008D081
:10854000294600F013F810B103A0FAF74BFC2046BF
:1085500070BD002070BD0000706275665F636F7053
:1085600079206661696C6564000000002DE9F047C0
:108570004FF000070C4605003E466FF00F0904D08F
:108580001CB128892189884201D226A034E06FF0ED
:10859000050A68896189C01B891B884201D3884606
:1085A00000E0804660684246811968683844F7F701
:1085B000B6FE688947444644B84202D225A0FAF77D
:1085C00011FC6089B04202D228A0FAF70BFC608946
:1085D000B04201D8246800266889B84202D12D68CB
:1085E00000273DB16CB160892189884209D120689A
:1085F00070B906E09CB124A0FAF7F4FB4846BDE848
:10860000F08755B168892989884206D1286820B148
:1086100021A0FAF7E7FB5046F1E7002CB9D1002082
:10862000EDE70000706275665F636F70793A2074E1
:108630006172676574206E6F742062696720656E71
:108640006F75676820746F20686F6C6420736F7536
:10865000726365006F66667365745F746F203C3D7E
:1086600020705F746F2D3E6C656E00006F666673E0
:1086700065745F66726F6D203C3D20705F66726F3F
:108680006D2D3E6C656E0000705F746F20213D2083
:108690004E554C4C00000000706275665F636F7051
:1086A00079282920646F6573206E6F7420616C6C6B
:1086B0006F77207061636B65742071756575657384
:1086C000210000002DE9F047002716468946B846EC
:1086D00020B1B9F1000F03D0044625E015A000E059
:1086E0001CA0FAF77FFB0020BDE8F0872BB1608962
:1086F000984202D8181A83B215E06089C01A85B270
:10870000B54200D9354660682A46C11809EB070012
:10871000F7F705FE08EB05001FFA80F8781987B215
:10872000701B86B2002324680EB1002CDED14046B7
:10873000DAE70000706275665F636F70795F706181
:10874000727469616C3A20696E76616C696420624A
:1087500075660000706275665F636F70795F706147
:10876000727469616C3A20696E76616C6964206428
:1087700061746170747200002DE9F041040006D04C
:10878000002501F01FF90746A07B30B108E01DA0CD
:10879000FAF728FB0020BDE8F0811DA0FAF722FBC4
:1087A000A07B401EC6B2A673384601F02DF9DEB993
:1087B000207B617B266800F00F00890708D52069BF
:1087C00010B919A0FAF70EFB21692046884707E087
:1087D00002280BD001280CD080B11CA0FAF702FBB4
:1087E0006D1CEDB23400CCD12846D4E721460C20D4
:1087F00001E021460B20FFF74FF8F1E72046FEF796
:10880000C5FDEDE77020213D204E554C4C00000089
:10881000706275665F667265653A20702D3E72659E
:1088200066203E203000000070632D3E6375737437
:108830006F6D5F667265655F66756E6374696F6E96
:1088400020213D204E554C4C00000000696E7661A1
:108850006C69642070627566207479706500000030
:108860000122AFF30080002902DA494200F08CB8FF
:10887000FFF79CBC70B50024DDE90456C0E9004157
:10888000028143810573467301218173C47370BDF6
:1088900070B50D46040002D119A0FAF7A3FA208999
:1088A000A8422CD9401B86B209E0281A85B220893B
:1088B000801B2081246814B917A0FAF793FA608905
:1088C000A842F2D3207B000711D16089A8420ED0C4
:1088D000607B80070BD4A088001B284481B220460F
:1088E000FEF724FF040002D111A0FAF77BFA65819C
:1088F0002581206808B1FFF73FFF0020206070BD90
:10890000706275665F7265616C6C6F633A2070208F
:10891000213D204E554C4C00706275665F7265615A
:108920006C6C6F633A207120213D204E554C4C00F9
:108930006D656D5F7472696D2072657475726E65B8
:10894000642071203D3D204E554C4C0010B5040074
:108950000ED001F037F8A17B491CA17301F054F847
:10896000A07B002804D1BDE8104002A0FAF73ABA73
:1089700010BD00007062756620726566206F7665B6
:1089800072666C6F7700000010B520B1B1F5803FC2
:1089900003D3012010BD0BA005E039B143898AB291
:1089A000934205D20AA0FAF71DFAF2E7002010BDA3
:1089B000446821444160991A41810189891A0181E1
:1089C000F4E700007020213D204E554C4C00000083
:1089D000696E6372656D656E745F6D61676E6974F3
:1089E000756465203C3D20702D3E6C656E00000076
:1089F00070B5044600680025406810B117A0FAF76A
:108A0000F1F92068007800F0F000102815D0202837
:108A100001D0FA2020E0284605F0C9FC2168486012
:108A20002168C0B10978222901D10121017422688D
:108A30001249506805F0BEFC09E0284602F0BAFB76
:108A400021684860216830B1084600F069FF20685D
:108A50004068002801D1FF20207170BD7063625F03
:108A60006E65773A2070636220616C72656164792B
:108A700020616C6C6F63617465640000C1970008CD
:108A80002DE9F041284E04463068844202D227A0E6
:108A9000FAF7A8F97068844202D32AA0FAF7A2F97B
:108AA000207910B12EA0FAF79DF920884FF4705864
:108AB000404502D931A0FAF795F9208800F04EFD23
:108AC0000546AC4215D0287998B97068854210D017
:108AD000F068A84200D1F4602888208028884045AA
:108AE00007D02046FEF71AFE0746288800F036FD1C
:108AF0004780608800F032FDA04212D00179002941
:108B00000FD1F168A14200D1F06021880180218855
:108B1000414506D0FEF702FE0546208800F01EFD06
:108B20004580BDE8F0810000B4000020706C7567DE
:108B30005F686F6C65733A206D656D203E3D2072F5
:108B4000616D0000706C75675F686F6C65733A20CB
:108B50006D656D203C2072616D5F656E6400000084
:108B6000706C75675F686F6C65733A206D656D2D0D
:108B70003E75736564203D3D20300000706C756764
:108B80005F686F6C65733A206D656D2D3E6E65781C
:108B900074203C3D204D454D5F53495A455F414C43
:108BA00049474E454400000010B5040002D119A009
:108BB000FAF718F96078012802D0042805D00EE0F1
:108BC00001212046FEF7D6F909E0206A18B1417A62
:108BD00009B1491E417201212046FDF7FDFE217FAA
:108BE000C80614D5606890B1B0F8642041F684439B
:108BF0009A420CD9B0F86600282808D201F0EF009C
:108C00002077636A1BB1002202212046984700208A
:108C100010BD0000636F6E6E20213D204E554C4C00
:108C2000000000002DE9F04391B00446402101A866
:108C3000F7F79CFB2246102101A8FAF78DFB0546A9
:108C40000024144E0DF104094FF020080BE004EB52
:108C5000C400304459F8242007460FA1FAF7D2F88F
:108C600087F80880641CAC42F1D30D484DB1094926
:108C7000009605EBC503C0690AA26039FAF7B2F89D
:108C800002E0006AFAF7AEF808A0FAF7ABF811B004
:108C9000BDE8F083245602202530386C78000000AF
:108CA0006C0001082E617866000000000D0A0000CB
:108CB0002DE9F041184E0F460446F5683068001D56
:108CC00005F0C6FD38B9306890F82C1001208840B6
:108CD000316981433161601C07D137B13168BDE82A
:108CE000F0410E48091D05F00FBE30682C44AC421F
:108CF0004460316805D2B06BBDE8F041091D05F054
:108D0000EBBD706B091D05F0E7FDB06A844200D22F
:108D1000B462BDE8F081000030000020A4660020AD
:108D20002DE9F041054605F0FBFD2D4EB068401CD5
:108D3000B06030682B4F10B1706930B32BE03560F4
:108D4000B068012827D1002404EB840007EB8000E1
:108D500005F0B4FD641C202CF6D3234805F0AEFDCD
:108D60002148143005F0AAFD1F48283005F0A6FD63
:108D70001D483C3005F0A2FD1B48503005F09EFD1B
:108D8000194870631430B06305E03068E96AC06A5E
:108D9000884200D83560706A0121401C7062E86A20
:108DA000326981401143316100EB800007EB8000A4
:108DB000291D05F0A9FD05F0EDFD706900280CD016
:108DC0003068E96AC06A884207D208494FF080508B
:108DD0000860BFF34F8FBFF36F8FBDE8F0810000D5
:108DE00030000020D46300205466002004ED00E031
:108DF00010B505F095FD0E4C2068A0B90D4805F0A2
:108E00005DFD0C48143005F059FD0A48E06014304F
:108E1000206100220C210A2006F094FA206010B193
:108E200005A105F087FEBDE8104005F0B3BD0000C8
:108E30006C000020B8660020546D725100000000E4
:108E400070B5124E124D1CE006F054F9306820B196
:108E5000002406F015FFA4B901E00124F9E705F0AC
:108E60005FFDF068C468201D05F0F2FCA868401E94
:108E7000A8606868401E686005F08CFD204600F020
:108E800052F868680028DFD170BD000090660020AD
:108E90003000002030B4026C0B46002A0BD0C168B1
:108EA0001144C1604468A14201D30168C16030BC73
:108EB0001846F7F734BA30BC70472DE9F041856B9E
:108EC000174604460026026C82B1C7B1E068F7F786
:108ED00026FAE168206C091AE1602268914202D208
:108EE0006168081AE060022F16D017E02068A8B960
:108EF000606806F01BFE0646002060600EE0A06879
:108F0000F7F70DFA216CA0680844A06061688842F8
:108F100004D32068A06001E005B16D1E6D1CA5633F
:108F20003046BDE8F08110B50446006B05F062FDE7
:108F30002046BDE8104005F05DBD000010484FF42C
:108F40001041420706D0C01D0D4920F00700411A0C
:108F5000C1F510410B4A00230144C2E9000308395E
:108F6000103A21F0070111604B600B600B1AC0E949
:108F7000001393604FF000405360D06070470000D2
:108F8000E066002090000020074E4FF08054074D0F
:108F9000FFF756FF30680128FAD92C60BFF34F8FD6
:108FA000BFF36F8FF4E70000D463002004ED00E00E
:108FB0002DE9F047DDE909840E4682466FF0030192
:108FC000206B01EB82010844089D20F007079946B9
:108FD000780705D040F22B3219A11FA0F9F702FF44
:108FE00000202218315C82F83410315C11B1401C31
:108FF0001028F6D3002684F84360202D00D31F25C7
:10900000E562C4E91156201D05F063FC04F1180067
:1090100005F05FFC2461C5F120006462A061E66494
:1090200084F850604A465146384600F031FB2060D3
:10903000B8F1000F01D0C8F80040BDE8F08700008B
:109040002E2E5C4672656552544F535C7372635C9E
:109050007461736B732E63004572726F723A25737D
:109060002C25640D0A00000030B5114900E01146BE
:109070000A688242FBD34B685C18844203D1406883
:1090800018444860084643681C18944209D1084CAB
:10909000103C2468A24209D052681A4442600A680F
:1090A00012680260814200D0086030BD0460F9E7B8
:1090B0009000002070B5002441600B4D006191428A
:1090C00006D8D11A8269914206D2011D286907E0AB
:1090D0009A4203D2994201D3012403E0011DE868BA
:1090E00005F0FAFB204670BD6C00002010B5044668
:1090F00005F016FCA06B20B1002405F04BFC2046C7
:1091000010BD0124F9E700002DE9F34100980F4656
:109110000026846C2CB940F6D11216A11BA0F9F7D9
:1091200061FEA06BE16B884205D340F6D21211A11B
:1091300016A0F9F757FEA06BE16B88420CD294F9A8
:1091400045503A4669462046FFF7B7FE0646681C7A
:1091500005D06D1C84F845503046BDE8FC81606A3E
:109160000028F9D004F1240006F03CFD0028F3D0DB
:109170000126F1E72E2E5C4672656552544F535C12
:109180007372635C71756575652E63004572726FED
:10919000723A25732C25640D0A000000F8B50546C7
:1091A00014480E46C068C068C468201D05F050FB16
:1091B000E069012817D1A0692B46411932462046A3
:1091C000FFF778FF78B100200346014600902A4659
:1091D000204606F041FE30B907494FF4027201F112
:1091E0001C00F9F7FFFD616A01B02046BDE8F040C0
:1091F000084700006C000020B4FD000870B586B080
:109200002C4E4CE00198002849DB039C606910B1AA
:10921000201D05F01DFB04A800F0AAF805460198E2
:109220000A283CD2DFE800F00505053B2738050594
:109230003B270298A169034601442A462046FFF7CE
:1092400039FF00282BD0616A20468847E069012851
:1092500025D1002000900298A169002342181946E8
:10926000204606F0F9FDD0B940F2213212A119A032
:10927000F9F7B8FD13E00298A06128B94FF44E72D7
:109280000DA114A0F9F7AEFDA0692B4641191A46AD
:109290002046FFF70FFF02E0204605F0ABFB00235E
:1092A0001A4601A9306806F08DF80028AAD106B048
:1092B00070BD00006C0000202E2E5C467265655269
:1092C000544F535C7372635C74696D6572732E6383
:1092D000000000004572726F723A25732C25640DF0
:1092E0000A000000F8B50D46064605F003FF684683
:1092F00000F03EF80446009810B106F0C1FCF8BD3D
:109300001148ADB101690968D9B10025311B2A4660
:10931000006805F05BFC06F0B3FC0028EFD10B49B8
:109320004FF080500860BFF34F8FBFF36F8FF8BDD1
:10933000A642EBD806F0A4FC21463046FFF72EFFEC
:10934000F8BD0125E2E700006C00002004ED00E01C
:109350000648416B096829B1416BC968C968496809
:10936000816270474FF0FF31FAE7000030000020C3
:1093700070B5054606F05EFB064E0446B0688442B2
:1093800003D200F009F8012000E000202860204608
:10939000B46070BD6C000020F8B5184E26E0C068BF
:1093A000C4680568201D05F053FA616A20468847A5
:1093B000E06901281AD1A0692844A84206D924618D
:1093C0006060211DF06805F087FA0FE00020034679
:1093D000014600902A46204606F03EFD30B9084975
:1093E00040F2923201F11C00F9F7FCFCF0680168D0
:1093F0000029D4D13169C6E90310F8BD6C00002002
:10940000B4FD000808484068401C05D040F20F1227
:1094100006A110A0F9F7E6FC502080F31188BFF3F5
:109420004F8FBFF36F8FFEE7980000202E2E5C4613
:1094300072656552544F535C706F72745C5256443F
:10944000535C41524D5F434D34465C706F72742ED5
:10945000630000004572726F723A25732C25640D0B
:109460000A00000070B50025040005D140F28162B9
:1094700007A10DA0F9F7B6FC0F496069884205D134
:10948000A06A2839884201D000B90125284670BD5C
:109490002E2E5C4672656552544F535C7372635C4A
:1094A0007461736B732E63004572726F723A257329
:1094B0002C25640D0A000000A4660020084CE0681A
:1094C000016839B1002139B10020FFF70BFFFFF728
:1094D00095FEF4E70121F6E7C0680068F5E70000B3
:1094E0006C0000202DE9F041044605F019FA94F9CA
:1094F000455004F1240610E0A06C20B10021204664
:10950000FFF702FE04E0606A48B1304606F06AFBED
:1095100008B105F01DFC6D1E6DB2002DECDC4FF0A6
:10952000FF3684F8456005F035FA05F0F9F994F94D
:10953000445004F1100709E0206948B1384606F0AC
:1095400051FB08B105F004FC6D1E6DB2002DF3DC7B
:1095500084F84460BDE8F04105F01CBA014909688F
:1095600008447047B40000202DE9F041054600266C
:1095700005F0C0FD324F386808B9FFF7DFFCF86826
:1095800005424FD1002D4DD0083568070BD005F0AE
:109590000700C0F108000544680704D0BF2229A1D4
:1095A00031A0F9F71FFC002D3CD07868854239D8EE
:1095B000234910310846046801E0214604466068EA
:1095C000A84202D220680028F7D13868B846844201
:1095D00028D00E682068086060680836401B102894
:1095E0000ED96719780704D0EC2216A11EA0F9F74E
:1095F000F9FB6068401B786038466560FFF734FD12
:109600006168D8F804004246401AC8F80400D8F847
:109610000830984200D29060D8F80C000143002036
:10962000C4E9000106F02CFB700705D04FF49672D8
:1096300004A10DA0F9F7D6FB3046BDE8F08100008B
:10964000800000202E2E5C4672656552544F535C9C
:10965000706F72745C4D656D4D616E675C686561BD
:10966000705F342E630000004572726F723A25738A
:109670002C25640D0A0000000449086818B1086828
:10968000826C521C82640868704700003000002021
:1096900010B5031F4FF080741C601B1F21F00101E7
:1096A0001960191F044B0B6014390A60091F6FF011
:1096B000020244380A6010BD059400082DE9F0410B
:1096C0001E4615460F00044602D11DA0F9F78AFB7D
:1096D00014B924A0F9F786FB16B12AA0F9F782FB8A
:1096E0007CB16068B84202D02CA0F9F77BFB04F192
:1096F0001000064600F0E6F938B17DB129462D8903
:109700000EE06FF00500BDE8F081B5B1298938465B
:1097100002F06AFF2846FFF72FF80EE027490025E0
:10972000304600F0C1F910B14FF0FF30EBE7636A4B
:109730001BB12A460021204698470020E3E700009D
:10974000726563765F746370206D757374206861F1
:10975000766520612070636220617267756D656E49
:1097600074000000726563765F746370206D7573BA
:1097700074206861766520616E20617267756D6521
:109780006E74000065727220213D204552525F4F79
:109790004B20756E68616E646C65640072656376FB
:1097A0005F7463703A207265637620666F7220770B
:1097B000726F6E6720706362210000000AFF00086C
:1097C0002DE9F0471F46DDF8208016460C000546BF
:1097D00002D11EA0F9F706FB15B925A0F9F702FB87
:1097E00015B36868A04202D029A0F9F7FBFA05F189
:1097F0001000814600F066F9B0B10620FEF78EF841
:10980000040011D0266066609FB13868A060A4F89B
:109810000C8036892146484600F046F958B120466A
:10982000BDE8F047FEF79CB83046BDE8F047FEF7CC
:10983000A3BF0020EAE76B6A002B05D0324628461A
:10984000BDE8F04700211847BDE8F08772656376F0
:109850005F756470206D7573742068617665206132
:109860002070636220617267756D656E7400000020
:10987000726563765F756470206D757374206861BE
:10988000766520616E20617267756D656E7400008B
:10989000726563765F7564703A20726563762066E0
:1098A0006F722077726F6E67207063622100000014
:1098B00070B51546040005D06078012806D004284C
:1098C00009D00CE012A0F9F78DFA1EE00121204624
:1098D000FDF750FB03E001212046FDF77DF86068AD
:1098E00098B1B0F8641041F6844291420DD9B0F8B5
:1098F0006600282809D2207F00F0EF002077636AF5
:109900001BB12A46022120469847002070BD000066
:10991000636F6E6E20213D204E554C4C00000000C0
:1099200010B544680146204600F06EFB0949204608
:1099300002F010FE0849204603F0A6F8022207496B
:10994000204602F0EDF82046BDE81040044900F042
:10995000A3BE0000BD960008B1980008A98B0008BE
:10996000614A00082DE9F84317460C00804600D1F3
:109970006C4600F0D7F805464FF0FF360FB13A4677
:1099800000E0324600232146D8F8000005F01AFD19
:10999000012804D0002020603046BDE8F88300F0A4
:1099A000C1F8401BF9E708B501B969460023006812
:1099B0001A4605F007FD012802D04FF0FF3008BD20
:1099C000002008BD10B504F0ABFF012010BD2DE94B
:1099D000F041054600680F464FF0FF3668B106F0CB
:1099E00029F804460FB13A4600E0324600231946F2
:1099F000286805F0E7FC012802D03046BDE8F08178
:109A000006F018F8001BF9E704F0C4BF2DE9F04197
:109A100000F088F80C4F05464FF0004839680029DF
:109A200010D048682A1A42450CD20A683A60D1E937
:109A3000024678600A20FDF72FFF002CEED030465A
:109A4000A047EBE7BDE8F081480100200020064A6E
:109A5000014602EBC003596042F83010401C042854
:109A6000F7DB024801807047705502208C0100200E
:109A700010B50446006804F0FDFE2068BDE8104003
:109A800005F06AB810B50B460446002204211846BA
:109A900005F058FC206008B1002010BD4FF0FF30E9
:109AA00010BD00210160704713B5002300681A46FD
:109AB00001A905F0A1FD012802D04FF0FF301CBD27
:109AC00000201CBD0068002800D001207047002342
:109AD00000685A1E194605F075BC000010B5044612
:109AE000012005F01DFC206008B1002010BD03A07E
:109AF000F9F778F94FF0FF3010BD00005B73797310
:109B00005F617263685D3A6E6577206D7574657824
:109B1000206661696C210A00002300681A46194614
:109B200005F06ABD10B505F085FF0149486010BD1C
:109B30008C01002010B50446006805F00DF80020E7
:109B4000206010BD70B504460D4601290AD80322D5
:109B50000021012005F0F6FB2060012D06D100F068
:109B600021F803E0084605F0ABFB2060206808B14F
:109B7000002070BD02A0F9F735F94FF0FF3070BD3D
:109B80005B7379735F617263685D3A6E65772073AA
:109B9000656D206661696C210A000000002101608A
:109BA0007047000010B5002300681A46194605F0FA
:109BB00023FD012804D0BDE8104002A0F9F712B936
:109BC00010BD00005B7379735F617263685D3A7307
:109BD000656D207369676E616C206661696C210A2E
:109BE000000000000068002800D00120704700003D
:109BF000FEB50C46002106460291089802A91546BA
:109C0000CDE900019AB22B463146204605F0D8FE38
:109C10000146012804D003A0F9F7E4F80020FEBDB6
:109C20000298FEBD5B7379735F617263685D3A632E
:109C30007265617465207461736B206661696C2163
:109C40006572723A25236C780A00000070B51546DB
:109C50000E460446B0F1804F02D306A0F9F7C2F8D1
:109C6000FFF760FF20442A463146BDE8704000F00F
:109C70001DB8000054696D656F75742074696D6559
:109C800020746F6F206C6F6E672C206D6178206977
:109C900073204C5749505F55494E5433325F4D4104
:109CA000582F34206D7365637300000070B504464F
:109CB00015460E460A20FDF731FE78B10021C56039
:109CC0000F4A80E85200116831B14B68E51A4FF035
:109CD00000439D420FD30160106070BDBDE870402D
:109CE00008A0F9F77FB85568651B9D4202D3026052
:109CF000086070BD11460A68002AF8D0F3E700003A
:109D0000480100207379735F74696D656F75743AEB
:109D10002074696D656F757420213D204E554C4C43
:109D20002C20706F6F6C204D454D505F5359535F21
:109D300054494D454F555420697320656D707479B1
:109D40000000000070B5064D012405EBC40255F873
:109D500034000449FFF77AFF641C052CF5D370BD6D
:109D6000300001087169000810B5084C206848B13E
:109D7000FFF7D8FE21684968081AB0F1004F00D3F8
:109D8000002010BD4FF0FF3010BD00004801002042
:109D90002DE9FF5F8946040003D0207D012806D00D
:109DA00008E004B034A0BDE8F05FF9F71BB839A0B3
:109DB000F9F718F8207D0A2839D0216D0391002584
:109DC000DFF80481D4F824B0D4F810A0D4F88C7053
:109DD0002E46B8B34D46E68A214608F1180001F038
:109DE00029FE012188F80010206F08B102F0C8FD9B
:109DF000E06E08B102F0C4FD55B1208B211D009129
:109E0000CDE9016023465A461846039902F056FDF3
:109E1000204600F099FC002F2BD004B05046BC46E1
:109E2000BDE8F04F6FF00C015DF804EB6047264889
:109E300021461C3001F0FEFD04B02046BDE8F05F75
:109E400000F082BCE08A0028CED0D8F81000A042F2
:109E50000AD1C068C8F8100008E0C168A14202D168
:109E6000E168C16002E008460028F6D10020E06009
:109E7000BAE7BDE8FF9F00007463705F6162616EC6
:109E8000646F6E3A20696E76616C696420706362FB
:109E900000000000646F6E27742063616C6C207496
:109EA00063705F61626F72742F7463705F6162616F
:109EB0006E646F6E20666F72206C697374656E2DB0
:109EC0007063627300000000040100200121FFF7AD
:109ED0005FBF002803D0027D012A00D18161704755
:109EE0002DE9F04105460120FDF718FD434E040021
:109EF0005AD1B06909E0418BC4680A0704D521F042
:109F00000801418300F058F920460028F3D10022CF
:109F10001346F468F06906E0016A611A914201D3C0
:109F20000A460346C0680028F6D113B11846FFF769
:109F3000CDFF0120FDF7F2FC040035D1092000F02F
:109F4000CFFF0120FDF7EAFC04002DD1082000F02E
:109F5000C7FF0120FDF7E2FC040025D128467F2D34
:109F600000D97F20D8B1401EC3B200242246F76832
:109F7000B0690EE0417D994206D309D1D0F820C0E6
:109F8000A7EB0C0CA44503D3026A0B46BC1A02468D
:109F9000C0680028EED112B11046FFF797FF0120EC
:109FA000FDF7BCFC040025D09821F6F7DFF96575B4
:109FB00043F60811A4F8641043F6BC606085208560
:109FC000FF20E0724FF4067060860620A4F840007F
:109FD000E087C01F20860120A4F84800F0682062B6
:109FE000B078A077A4F84A100548C4F88000054866
:109FF000C4F890002046BDE8F08100000401002074
:10A0000099C5000800DD6D00002800D0016170478F
:10A0100010B558B1017D012903D0418B41F01001E9
:10A020004183BDE81040012100F012B802A0F8F70A
:10A03000D9FE6FF00F0010BD7463705F636C6F73B7
:10A04000653A20696E76616C696420706362000015
:10A05000FEB50D46040002D13FA0F8F7C3FE29006B
:10A06000454D4FF000064FF001073BD0207D0428FE
:10A0700001D0072836D1606F20B9208DA0F5785126
:10A08000BC392FD0A07EC00602D43CA0F8F7AAFEAF
:10A09000228BE18A201D8DE8070023461846626A5C
:10A0A000216D02F00BFC204601F092FCA869A04251
:10A0B00009D1C068A86108E0C168A14202D1E16885
:10A0C000C16002E008460028F6D13348E6602F70F0
:10A0D0000068A04202D103F0FDF834E0204600F011
:10A0E00033FB30E0207D40B101281AD002282CD06B
:10A0F0002046BDE8FE4000F05FB8E08A0028EDD0C1
:10A100002869A04209D1C068286108E0C168A1425D
:10A1100002D1E168C16002E008460028F6D1E6609D
:10A12000DCE7204600F00AFF13482146143001F016
:10A1300081FC207D012802D118A0F8F753FE2146AA
:10A140000220FDF7A9FB0020FEBD0B482146183078
:10A1500001F070FC2F70C1E77463705F636C6F7304
:10A16000655F73687574646F776E3A20696E7661A7
:10A170006C69642070636200040100207063622DCA
:10A180003E666C61677320262054465F5258434CEC
:10A190004F53454400000000440100207463705F89
:10A1A000667265655F6C697374656E3A20214C490F
:10A1B0005354454E0000000070B5050002D114A0B4
:10A1C000F8F710FE287D0526032804D0042802D0C5
:10A1D000072816D106E0284602F020FC040006D12C
:10A1E0002E7509E0284602F019FC040002D0601C1C
:10A1F00009D004E009202875284601F029F82046F6
:10A2000070BD002070BD688B40F008006883F8E7DF
:10A2100070636220213D204E554C4C002DE9F047E3
:10A22000984604006FF00F0508D049B1207D60B159
:10A230003CA0F8F7D7FDA81DBDE8F08745A000E0D9
:10A240004BA0F8F7CFFD2846F6E708686060228348
:10A25000207A10B1FDF7EAFE02E0201DFBF7E2FFD5
:10A2600006006FF0030108D0206818B9301D04D033
:10A2700000682060E58A15B105E00846DCE700F0DB
:10A280009DFFE08228B3204600F0C6FF00276762EA
:10A290002065401E6064A065E06543F6BC60608593
:10A2A0002085E762A4F860004FF406706086221DE6
:10A2B000314600F0F5F860864FF00109A4F84890A7
:10A2C00002212046C4F8848000F014F9060003D06F
:10A2D00025E06FF00100AFE70220DFF8B0802075C5
:10A2E0008DB1D8F81000A0420AD1C068C8F810009B
:10A2F00008E0C168A14202D1E168C16002E00846FD
:10A300000028F6D1E760D8F81800E060C8F81840D7
:10A3100002F06AFF88F80090204600F099FF30466E
:10A320008AE700007463705F636F6E6E6563743AF2
:10A330002063616E206F6E6C7920636F6E6E656353
:10A34000742066726F6D20737461746520434C4F86
:10A35000534544007463705F636F6E6E6563743A57
:10A3600020696E76616C6964207063620000000091
:10A370007463705F636F6E6E6563743A20696E76A6
:10A38000616C69642069706164647200040100207A
:10A390002DE9F0479A46DDF8208091460D460700EA
:10A3A00002D128A0F8F71EFD15B92EA0F8F71AFD66
:10A3B0005FEAC87001D0042600E000260320FDF704
:10A3C000ADFA040019D084F80A804FF00008C4E9FF
:10A3D00000852889B04202D22BA0F8F703FD288916
:10A3E0001421801B20812846FDF7DCFE48B1204661
:10A3F00002F0B8FA0020BDE8F0872846FEF7BCF965
:10A40000F8E760684068E060F88AFCF7D1FAE16834
:10A410000880388BFCF7CCFAE16848805046FCF79E
:10A42000C5FAE1684860B008000300F5A04040EAC2
:10A430000900FCF7BDFAE1688881E1682046A1F8CF
:10A440001280D8E77463705F6372656174655F73CF
:10A4500065676D656E743A20696E76616C6964201B
:10A46000706362007463705F6372656174655F73CB
:10A4700065676D656E743A20696E76616C696420FB
:10A480007062756600000000702D3E746F745F6C22
:10A49000656E203E3D206F70746C656E000000009C
:10A4A00070B50D46044612B908A0F8F79BFC5DB1E3
:10A4B000A98C49B1282902D9283988B200E00020A6
:10A4C000844200D220460446204670BD7463705F0B
:10A4D0006566665F73656E645F6D73735F6E6574EA
:10A4E00069663A20696E76616C6964206473745F92
:10A4F000697000002DE9F843044600250E468807E0
:10A5000002D13248F8F76EFC14B931A0F8F76AFCB2
:10A51000B00700D50125E80700D004208046014699
:10A520004FF420723620FDF771FE07004FF0FF391F
:10A530001CD07989414502D22DA0F8F753FC009533
:10A54000324639462046E36DFFF722FF05000DD065
:10A55000287B800702D035A0F8F744FC288910B189
:10A5600038A0F8F73FFCE06E38B109E0608B40F0AE
:10A57000800060834846BDE8F883E56604E008464D
:10A5800001680029FBD105600020A4F86800B0072D
:10A5900002D0E06D401CE065F00703D0608B40F016
:10A5A000200060836868FDF7BAFFB4F866100844BD
:10A5B0000004000CA4F8660006D0206F20B9E06EFD
:10A5C00010B92BA0F8F70EFC0020D4E7C001010859
:10A5D0007463705F656E71756575655F666C6167E4
:10A5E000733A20696E76616C696420706362000062
:10A5F0007463705F656E71756575655F666C6167C4
:10A60000733A20636865636B2074686174206669BF
:10A6100072737420706275662063616E20686F6C5F
:10A6200064206F70746C656E000000007365672DA8
:10A630003E746370686472206E6F7420616C696729
:10A640006E6564007463705F656E71756575655FD6
:10A65000666C6167733A20696E76616C6964207319
:10A6600065676D656E74206C656E677468000000C8
:10A670007463705F656E71756575655F666C616743
:10A68000733A20696E76616C6964207175657565D1
:10A69000206C656E6774680070B50D46040007D0C5
:10A6A000207D012802D103A0F8F79CFBC4F88C5050
:10A6B00070BD0000696E76616C696420736F636BB6
:10A6C000657420737461746520666F7220657272A0
:10A6D0002063616C6C6261636B00000070B5194EA1
:10A6E000B078401CB070B46928E0A17FB078814296
:10A6F00023D0A077608BC10709D040F002006083AF
:10A70000204600F0A5FD608B20F00300608380B23E
:10A71000010705D520F0080060832046FFF74CFDB7
:10A72000E568606F38B100203070204601F050FCC1
:10A7300030780028D7D12C4600E0E468002CD4D132
:10A7400070BD00000401002010B5027D0446012AFE
:10A7500002D104A0F8F746FB2146BDE810400120D5
:10A76000FDF79AB87463705F667265653A204C496C
:10A770005354454E000000002DE9F04799460C4621
:10A780000546DFF87C8022E02646D6E90040FDF74A
:10A79000C6FE0746B5F86600B84202D219A0F8F71F
:10A7A00021FB35F8660FC01B28803189B8F80820D6
:10A7B00030461144A8F8081002F0D4F835F86609BC
:10A7C00028B154EA090002D118A0F8F70BFB9CB19C
:10A7D000E0684068FCF7EAF80646E0688089FCF724
:10A7E000E7F8800700D00120218930440144D8F8DF
:10A7F0001800081A0028C7DD2046BDE8F0870000D1
:10A80000240100207063622D3E736E645F71756574
:10A8100075656C656E203E3D20706275665F636C89
:10A82000656E286E6578742D3E7029007463705FC4
:10A83000726563656976653A2076616C696420713A
:10A8400075657565206C656E67746800084BD888FF
:10A85000411CD9801A6912B19988884203D2D968FB
:10A860001431085C7047401AC0B2105C7047000099
:10A8700024010020704700002DE9FE4F050002D1A1
:10A88000F9A0F8F7AFFAFE4E6868F06068891428FE
:10A890007ED3FC4C21686069FBF72BF9002877D147
:10A8A000207DA046C0F303100E2871D0F068808987
:10A8B000FCF77EF8000B81001429E9D3288988422F
:10A8C000E6D3A1F1140080B270804FF0000BC6F8FF
:10A8D00010B06A898A4204D3B0802846FEF754F843
:10A8E00029E0286810B9E8A0F8F77CFA1421284676
:10A8F000FEF74AF86989B1807088401A84B2284608
:10A90000FEF742F828684189A142C1D3416831610C
:10A910002146FEF739F82889001B2881688910B183
:10A92000DDA0F8F75FFA296828890989884202D0F2
:10A93000DCA0F8F757FAF0680088FCF739F8014610
:10A94000F06801804088FCF733F80146F0684180E8
:10A950004068FCF72BF80146F0684160716180683F
:10A96000FCF724F80146F0688160B161C089FCF70A
:10A970001FF80146F068C1818089FCF719F800F0E2
:10A980003F01317028897081890706D0411C00E0A1
:10A9900078E089B27181884274D8DFF82893002763
:10A9A000D9F8004045E0207D10B9C7A0F8F71AFAA1
:10A9B000207D0A2802D1CEA0F8F714FA207D0128C4
:10A9C00002D1D6A0F8F70EFA207A38B1D8F80410E0
:10A9D00091F83010491CC9B2884228D1F068218B07
:10A9E0000288914223D1E18A408881421FD1616867
:10A9F000D8F8102091421AD12168D8F81400814269
:10AA000015D1E068A04202D1CEA0F8F7EBF937B13A
:10AA1000E068F860D9F80010E160C9F80040E0682B
:10AA2000A04202D1D2A0F8F7DDF924B15DE02746BB
:10AA3000E468002CB7D1D9484746046824E0207D5B
:10AA40000A2802D0D6A0F8F7CDF9207A30B179687B
:10AA500091F83010491CC9B2884214D1F068218B9A
:10AA6000028891420FD1E18A408881420BD160680F
:10AA70003969884207D120687969884203D1204624
:10AA800002F0CCFBBBE1E468002CD8D1DFF840A396
:10AA90000021D7F804C0DAF80000F2688146D7F840
:10AAA000148012E0037A2BB19CF830707F1CFFB247
:10AAB000BB4208D1C38A5788BB4204D103684345CF
:10AAC00006D080B12BB10146C0680028EAD10AE067
:10AAD00048B129B1C268CA60C0F80C90CAF8000039
:10AAE00000F07AFA8BE1002C7ED0DFF8E8825F4636
:10AAF000C8F800B02989A8F80810C8F80450F1680F
:10AB0000C8F80C10C6F81CB086F801B0A6F808B05A
:10AB10003078000703D5687B40F001006873606FF0
:10AB200070B1204601F054FA0D3003D0606F38B197
:10AB3000708928B1608DD0BB204601F02BFF73E0F7
:10AB40002046346201F01EF80D306DD07078000799
:10AB50000ED5D4F88C201AB16FF00D012069904702
:10AB60002146584800F066FF2046FFF7EDFD5BE008
:10AB7000328900203AB1E36F13B12146206998472A
:10AB80000D3051D03781204600F03EF978B9F06998
:10AB900018B3606F10B190A0F8F724F9A07EC0063A
:10ABA00006D5F069FDF7E8FD2046FFF78FF93BE099
:10ABB000D4F880502DB1002320692146F269A847BE
:10ABC00005E0002321461846F26901F0E5FC10F18A
:10ABD0000D0F29D008B1F0696067707880061BD529
:10ABE000606F30B1417B00E02AE041F02001417309
:10ABF00012E0208DA0F57851BC3901D0401C208591
:10AC0000D4F880502DB100231A4621462069A84768
:10AC100000E000200D3007D02046376200F0F4F845
:10AC200010B9204600F014FB3762F761D8F8040031
:10AC30004446002802D0FDF79FFD6760BDE8FE8F07
:10AC40009089FBF7B5FE40070CD4F0680D4A0D4B18
:10AC50000188408810320092CDE901017189706944
:10AC60004218C7E0CBE000007463705F696E7075D6
:10AC7000743A20696E76616C696420706275660052
:10AC800024010020E0F60020702D3E6E65787420CF
:10AC9000213D204E554C4C00702D3E6C656E203D84
:10ACA0003D203000702D3E746F745F6C656E203DEA
:10ACB0003D20702D3E6E6578742D3E746F745F6C10
:10ACC000656E00001C0100207463705F696E707512
:10ACD000743A20616374697665207063622D3E73F7
:10ACE0007461746520213D20434C4F53454400005E
:10ACF0007463705F696E7075743A2061637469760D
:10AD000065207063622D3E737461746520213D205F
:10AD100054494D452D574149540000007463705FFC
:10AD2000696E7075743A206163746976652070632A
:10AD3000622D3E737461746520213D204C4953544B
:10AD4000454E00007463705F696E7075743A2070D0
:10AD500063622D3E6E65787420213D207063622011
:10AD6000286265666F72652063616368652900000B
:10AD70007463705F696E7075743A207063622D3E03
:10AD80006E65787420213D207063622028616674AE
:10AD9000657220636163686529000000200100205E
:10ADA0007463705F696E7075743A2054494D452D17
:10ADB00057414954207063622D3E7374617465205D
:10ADC0003D3D2054494D452D574149540000000058
:10ADD00018010020505402207063622D3E72656697
:10ADE000757365645F64617461203D3D204E554C10
:10ADF0004C00000014330020B16901F05FFD2846CB
:10AE0000BDE8FE4FFDF7B8BC10B5040002D10EA09E
:10AE1000F7F7E8FF16484078C00612D5A07EC006B6
:10AE200006D4D4F88C201AB16FF00E012069904737
:10AE30002146104800F0FEFD2046FFF785FC01206A
:10AE400010BD002010BD00007463705F696E7075E6
:10AE5000745F64656C617965645F636C6F73653A98
:10AE600020696E76616C6964207063620000000086
:10AE7000240100201C01002070B504004FF00006E2
:10AE800002D110A0F7F7AEFF206D401EFBF78EFD3C
:10AE9000034600223146204600F012FB05000DD08B
:10AEA000014633460022204600F0D2FB2246231DF5
:10AEB0002946BDE87040104600F08CBB4FF0FF30D3
:10AEC00070BD00007463705F6B656570616C69765E
:10AED000653A20696E76616C696420706362000077
:10AEE00070B50446082804D0092C02D00EA0F7F74C
:10AEF00079FF114900231846CD688A6909E0117D60
:10AF0000A14205D1116A691A994201D30B46104634
:10AF1000D268002AF3D1002804D0BDE87040002197
:10AF2000FEF736BF70BD0000696E76616C69642003
:10AF30007374617465000000040100202DE9F04184
:10AF4000050002D110A0F7F74DFF287D012802D09F
:10AF500010A0F7F747FF0124DFF85080002758F8CA
:10AF60002400066845B912A0F7F73CFF04E0B16F72
:10AF7000A94200D1B767F668002EF8D1641C042CF2
:10AF8000EDD3BDE8F081000070636220213D204ECA
:10AF9000554C4C007063622D3E7374617465203DA6
:10AFA0003D204C495354454E00000000200001084C
:10AFB0007463705F72656D6F76655F6C69737465DD
:10AFC0006E65723A20696E76616C6964206C697393
:10AFD00074656E6572000000FEB53F4E0546307820
:10AFE000400716D415B93DA0F7F7FCFE3078C1062E
:10AFF00010D5F068414A414B018840880092CDE964
:10B000000101718970691B1D42182846B16901F060
:10B0100055FCFEBD8007FCD5687DFEF761FF04008E
:10B020004AD0364810384169216000696060E88A7A
:10B03000E082F06800882083032020757069401C3E
:10B040006062E062204600F0E7F8A0652065606479
:10B05000E0657069401E60652869A5672061687AAF
:10B0600000F00C006072287A207225480168E160C7
:10B07000046002F0B9F8234901200870204600F06E
:10B08000EDFBF068C089A4F86000A4F86200201D00
:10B09000FBF7C8F80146608E221DFFF701FA6086B3
:10B0A00012212046FFF726FA88B103B02046BDE8FA
:10B0B000F0400021FEF76CBEAB69002BA9D02869D7
:10B0C00003B04FF0FF32BDE8F040002118472046A2
:10B0D000BDE8FE4000F0BCB8240100207463705F3E
:10B0E0006C697374656E5F696E7075743A20696E11
:10B0F00076616C696420706362000000F0F60020E5
:10B100001C0100200401002070B50C4605001DD074
:10B11000286800281AD00E4E2846B16900F01AF8A7
:10B120002846316900F016F8002C0FD0206800285E
:10B130000CD006F11400026806E010682968884205
:10B1400001D120681060D268002AF6D170BD0000DD
:10B150000401002070B50C4606000ED108A0F7F7D8
:10B1600041FE0AE020683168884205D12046E56842
:10B17000FEF7ACFE2C4600E0E468002CF2D170BD76
:10B180007463705F6E657469665F69705F61646443
:10B19000725F6368616E6765645F7063626C697338
:10B1A000743A20696E76616C6964206F6C645F61CB
:10B1B000646472004020FEF793BE0000F0B5144DA9
:10B1C000144E00244FF6FF774FF4404C4FF4804E5E
:10B1D000B088401C80B2B080B84201D1A6F804C04B
:10B1E000B288002155F82100006809E0C38A934223
:10B1F00005D1641CA4B27445EAD30020F0BDC06838
:10B200000028F3D1491CC9B20429EBD390B2F0BD98
:10B21000200001080401002010B510B904A0F7F7C0
:10B22000E1FD0A49D1E902021044886010BD000026
:10B230007463705F6E6578745F6973733A20696ECA
:10B2400076616C6964207063620000000401002074
:10B250002DE9F05F040002D182A0F7F7C3FD207D45
:10B26000012802D185A0F7F7BDFD8E480068A042F5
:10B2700002D10020BDE8F09FB4F86000B4F8481097
:10B28000884200D30846E56E81466DB12146221DF5
:10B29000084601F00BFB5FEA000A6FF003012ED0B5
:10B2A00054B1206840B10CE0A07E80077ED52046D6
:10B2B000BDE8F05F01F06EBB1AF104001FD000681A
:10B2C0002060E8684068FBF771FB616C401A2989CF
:10B2D000421800204A4514D9B4F860204A45E3D109
:10B2E000216F0029E0D194F895100029DCD184F871
:10B2F0009400012184F8951084F89600D4E708465C
:10B30000B8E784F89500266F83460EB995E00646A7
:10B3100030680028FBD18FE0E8688089FBF748FBA4
:10B32000400702D560A0F7F75DFD206FA8B1618BE3
:10B3300011F0440F11D1E06E28B102686AB900899A
:10B34000628E904209D2B4F8640030B1B4F866005D
:10B35000502802D211F0A00F7AD0207D022807D009
:10B360001020FBF725FB0146E868828911438181A3
:10B3700052462146284600F0A1F920B1618B41F0E8
:10B380008001618376E72868E066207D022803D08B
:10B39000608B20F003006083E8684068FBF706FBE1
:10B3A0000746E8688089FBF703FB00E054E080076C
:10B3B00000D00120298938440844216D091A00D59C
:10B3C0002065E8688089FBF7F3FA800700D0012048
:10B3D0002989C8422CD0C5F800B0206F68B1E86850
:10B3E0004068FBF7E3FA0746F0684068FBF7DEFACF
:10B3F000381A1AD504F1700003E0256716E0D8F872
:10B4000000008046006850B1C0684068FBF7CEFA83
:10B410000746E8684068FBF7C9FA381AEFD4D8F84D
:10B4200000002860C8F8005005E035602E4602E0B4
:10B43000284601F097FAE56E55B1E8684068FBF7D9
:10B44000B5FA616C401A2989014449457FF664AF19
:10B45000E06E08B9A4F868B0608B20F080006083CB
:10B4600007E700007463705F6F75747075743A203D
:10B47000696E76616C69642070636200646F6E2728
:10B48000742063616C6C207463705F6F7574707589
:10B490007420666F72206C697374656E2D706362C0
:10B4A0007300000044010020525354206E6F74203A
:10B4B0006578706563746564206865726521000055
:10B4C0002DE9FF411D4616460F46040002D10CA08F
:10B4D000F7F788FCE08A638D1022218B8DE80F003E
:10B4E0002B4632463946606A00F01EF8002803D029
:10B4F000628D616A1144E16204B0BDE8F081000030
:10B500007463705F6F75747075745F616C6C6F637A
:10B510005F6865616465723A20696E76616C696422
:10B5200020706362000000002DE9F05F83468818F8
:10B530000E46DDE90B98143081B21F464FF420729D
:10B540002220DDF828A0FCF761FE050026D06989DD
:10B5500006F11400814202D212A0F7F743FC5046D4
:10B560006C68FBF725FA20804846FBF721FA6080DB
:10B5700067605846FBF71AFAA060B008000300F5B0
:10B58000A04080B240EA0800FBF712FAA0810D98B3
:10B59000FBF70EFAE0810020208260822846BDE899
:10B5A000F09F0000636865636B20746861742066B7
:10B5B0006972737420706275662063616E20686FB3
:10B5C0006C6420737472756374207463705F686454
:10B5D00072000000FEB51E4617460D00044602D15B
:10B5E00010A0F7F7FFFB32463946204601F05EF91E
:10B5F00018B12CB1E37AA17A04E06FF003040BE0F8
:10B60000FF23002100910622CDE901203246394670
:10B610002846FAF75DFC04462846FDF7ADF82046BB
:10B62000FEBD00007463705F6F75747075745F6346
:10B630006F6E74726F6C5F7365676D656E743A20C0
:10B64000696E76616C696420706275660000000046
:10B6500070B515460C0002D109A0F7F7C3FB60686E
:10B66000E90700F1140300D0042108441430984283
:10B6700004D0BDE870400CA0F7F7B4BB70BD00006B
:10B680007463705F6F75747075745F66696C6C5FFE
:10B690006F7074696F6E733A20696E76616C69645D
:10B6A00020706275660000006F7074696F6E7320A1
:10B6B0006E6F742066696C6C656400002DE9FE4352
:10B6C00017460C46050002D134A0F7F78BFB14B9DE
:10B6D0003AA0F7F787FB17B940A0F7F783FB284696
:10B6E00000F09AF810B10020BDE8FE83606AFBF715
:10B6F0005DF9E9688860608DFBF75AF9E968C881EF
:10B70000618D606A0844E062EE68A87A1436C0076A
:10B710000AD0221D394640F2B450FEF7C1FE40F077
:10B720000170FBF743F901C6B4F930004FF000088F
:10B73000002801DAA4F83080606B38B9304800681E
:10B740006063E8684068FBF731F9A0636968A8891D
:10B750008A88801A4A89121A4A8169680A89101AE5
:10B7600008816968E8684860E968A1F81080A87AEB
:10B77000E968C00700D0042014300844B04202D069
:10B7800020A0F7F72FFBA07A06218DE88300E37A4B
:10B79000221D21466868FAF79BFBA5E77463705F7A
:10B7A0006F75747075745F7365676D656E743A203C
:10B7B000696E76616C696420736567007463705F9D
:10B7C0006F75747075745F7365676D656E743A201C
:10B7D000696E76616C696420706362007463705F87
:10B7E0006F75747075745F7365676D656E743A20FC
:10B7F000696E76616C6964206E657469660000002C
:10B80000100100206F7074696F6E73206E6F74206A
:10B8100066696C6C6564000010B5040002D105A077
:10B82000F7F7E0FA6068807B012801D0012010BDA5
:10B83000002010BD7463705F6F75747075745F73F2
:10B8400065676D656E745F627573793A20696E76AF
:10B85000616C696420736567000000002DE9F041A8
:10B86000050002D11BA0F7F7BDFA214E7088002811
:10B8700018D00020F08040F2B4570FE0FEF7E6FF4A
:10B8800000280FD0012809D002280DD0FEF7DEFFD6
:10B89000022807D3F1880844801EF080F088718860
:10B8A0008842EBD3BDE8F081FEF7D0FF0428F9D140
:10B8B000F0887188801C8842F4D8FEF7C7FF040224
:10B8C000FEF7C4FF2043B84200D800B93846688666
:10B8D000E4E700007463705F70617273656F707489
:10B8E0003A20696E76616C696420706362000000C2
:10B8F000240100202DE9F05F83460AA85FEA0308CF
:10B9000090E8100616460D460F4602D11AA0F7F72A
:10B9100069FA14B921A0F7F765FAB54214D25FEAC3
:10B92000897009D4A07E40060ED4BAF1000F03D06E
:10B93000E06E08B9206F38B105F2B75020F003006F
:10B94000B04200D80646B7B24FF420723946584686
:10B95000FCF75CFC04000DD0206810B117A0F7F7CD
:10B9600041FA6089401BA8F80000258165812046C6
:10B97000BDE8F09F0020FBE77463705F706275663E
:10B980005F707265616C6C6F633A20696E76616C92
:10B990006964206F76657273697A65007463705F9D
:10B9A000706275665F707265616C6C6F633A206976
:10B9B0006E76616C69642070636200006E65656418
:10B9C00020756E636861696E6564207062756600DB
:10B9D00070B504001AD0207D002816D00A2814D093
:10B9E000012812D0606F002510B1FCF7C5FE656715
:10B9F0004FF0FF302086E06E00F0C2FF206F00F0B5
:10BA0000BFFFE5662567A4F8685070BDBDE87040CB
:10BA100001A0F7F7E7B900007463705F7063625FBD
:10BA200070757267653A20696E76616C6964207022
:10BA30006362000070B50C00054602D11CA0F7F748
:10BA4000D1F915B921A0F7F7CDF92868A04209D19D
:10BA5000C068286008E0C168A14202D1E168C16005
:10BA600002E008460028F6D100252046E560FFF7F1
:10BA7000AFFF207D0A280DD0012815D0608BC107AB
:10BA800008D040F0020060832046FFF7E1FB207DF4
:10BA9000012809D0E06E10B114A0F7F7A3F9206FC8
:10BAA00010B118A0F7F79EF92575E58270BD00006A
:10BAB0007463705F7063625F72656D6F76653A2064
:10BAC000696E76616C696420706362007463705F94
:10BAD0007063625F72656D6F76653A20696E76613C
:10BAE0006C6964207063626C69737400756E736551
:10BAF0006E74207365676D656E7473206C65616B21
:10BB0000696E6700756E61636B6564207365676D50
:10BB1000656E7473206C65616B696E670000000070
:10BB200070B516460D46040003D0207D012805D0CF
:10BB300007E0BDE8704005A0F7F754B909A0F7F792
:10BB400051F9C4F88850667770BD00007463705F67
:10BB5000706F6C6C3A20696E76616C6964207063FA
:10BB600062000000696E76616C696420736F636BBC
:10BB7000657420737461746520666F7220706F6CD9
:10BB80006C0000002DE9FE4F04004FF00000009013
:10BB900002D1E7A0F7F726F9EC4F3878410728D50E
:10BBA000227D022A05D0616A7869814206D18AB174
:10BBB00013E0206DB96988420FD0B7E1421AFCD476
:10BBC000228D1144401A0028F7DC608B40F00200FF
:10BBD0006083ABE1DEA0F7F705F9787840F0080064
:10BBE0007870608B20F0010060836FF00D00BDE87D
:10BBF000FE8F800704D5207D022801D00328E4D1E0
:10BC0000A07EC00602D4DA48006820624FF0000827
:10BC100084F8978084F896802046FFF71FFED54B66
:10BC2000217D03F110000422DFF84CA3D34ED44D44
:10BC3000891E14334FF001094FF00A0B0829BCD2BA
:10BC4000DFE801F00480E8F0EEE8EDEC3978CD06AD
:10BC5000B3D5890760D5656CB9696D1C8D425BD120
:10BC600078690346401C60626164E062F8685B1EAC
:10BC7000C089A4F86000A4F8620063652275201DE5
:10BC8000FAF7D0FA0146608E221DFEF709FC41F258
:10BC90001C116086B1EB400F01D2420000E00A4661
:10BCA000B2EB800F01D9810003E0B1EB400F00D26D
:10BCB0004100A4F84810B4F8660010B9B1A0F7F735
:10BCC00091F8B4F86600401EA4F86600256FADB187
:10BCD00028682067284600F045FE206FB0B1A4F820
:10BCE000308084F84280D4F884309BB10022214611
:10BCF0002069984700900D304ED066E7E56E15B983
:10BD0000A6A0F7F76FF82868E066E3E74FF0FF308A
:10BD10002086E8E70098EEE7F9680A8849888DE808
:10BD200007007989786942182046B96900F0C6FD94
:10BD300094F84200062804D2A4F83080204600F08F
:10BD400027FDF3E03978CD0659D5656CB9694D1BEF
:10BD5000012D48D4256D4D1B002D44DC2275A06FAC
:10BD600010B1806918B108E06FF005000FE090A0F5
:10BD7000F7F738F8A06F806938B1A16F2069002209
:10BD80008B692146984710B909E06FF00F000D301C
:10BD900002D02046FEF79AF86FF00C0027E7204605
:10BDA00000F068F9388908B1401E3881608E41F290
:10BDB0001C11B1EB400F01D2420000E00A46B2EB89
:10BDC000800F01D9810003E0B1EB400F00D24100A8
:10BDD000A4F848107878800610D5608B40F00200F7
:10BDE0006083072055E0FA68158852888DE82500A1
:10BDF0007A8978690244204600F060FD96E0880761
:10BE000007D5606A7969401E884202D1204600F059
:10BE100039FC8BE0204600F02DF9DBE776E052E0BC
:10BE200039E0FFE7204600F025F978788006387879
:10BE30004FEAC06024D5002805DA206DB969884230
:10BE400001D1E06E28B1608B40F0020060830820D1
:10BE50001FE0608B40F0020060832046FFF7B8FDD2
:10BE60002868A04209D1C068286045E0C168A142A5
:10BE700002D1E168C1603FE008460028F6D13BE00E
:10BE8000002853DA206DB96988424FD1E06EE0BBDB
:10BE9000062020754AE0204600F0ECF8787880060D
:10BEA00044D5608B40F0020060832046FFF790FD90
:10BEB0002868A042D7D003E0C168A142D9D0084683
:10BEC0000028F9D118E0204600F0D4F83878C006F0
:10BED0002CD5206DB969884228D1E06EA8B92046DA
:10BEE000FFF776FD2868A042BDD003E0C168A142FB
:10BEF000BFD008460028F9D18AF8009084F814B021
:10BF00003068E060346001F06FF90FE0204600F027
:10BF1000B1F83878C00609D5206DB969884205D1D5
:10BF2000E06E18B9787840F01000787000205EE676
:10BF30007463705F70726F636573733A20696E76B5
:10BF4000616C6964207063620000000024010020BD
:10BF50007463705F696E7075743A207063622D3E11
:10BF6000737461746520213D20434C4F5345440058
:10BF700010010020E0F60020040100202001002034
:10BF80001C0100207063622D3E736E645F717565E5
:10BF900075656C656E203E20300000006E6F20736A
:10BFA00065676D656E7420746F206672656500004C
:10BFB0007063622D3E6C697374656E65722D3E61AF
:10BFC000636365707420213D204E554C4C00000089
:10BFD0002DE9F04104000CD0656F00206E7B606796
:10BFE000D4F8807067B100232A4621462069B847FB
:10BFF0000CE016A0F6F7F6FE6FF00F00BDE8F0813A
:10C0000000232A462146184600F0C6FA6FF00C07B6
:10C0100028B10D3018D06FF004006567EEE7B10667
:10C0200010D5218DA1F57852BC3A01D0491C21854B
:10C03000D4F8805025B100231A4621462069A8472C
:10C040000D3001D00020D9E73846D7E77463705F20
:10C0500070726F636573735F726566757365645F35
:10C06000646174613A20696E76616C696420706302
:10C07000620000002DE9F047040002D1F2A0F6F7BB
:10C08000B1FE207D042802D2F6A0F6F7ABFEFC4FED
:10C090004FF6FF764FF000053878C0067ED5B4F82D
:10C0A0006030A16D626D786903EB0108B2EB000CA2
:10C0B0000BD4824202D1BA698A1A06D4BA69914273
:10C0C00010D1F968C98999420CD9F968C989A4F8CD
:10C0D0006010B4F862208A4201D2A4F86210606550
:10C0E000B869A065626CB869811A00292EDC79896B
:10C0F00049BBB4F86030A16D1944414523D1B4F96E
:10C10000301000291FDB82421DD194F84300411CEE
:10C11000C9B2814201D984F8431094F8430003283E
:10C120000CD9B4F84800618E014489B2814202D32F
:10C13000A4F8481003E0A4F8486000E002D32046C9
:10C1400000F0E4FA8EE084F843508BE0012977D4C4
:10C15000226D821A002A73DC628B530708D522F005
:10C1600004026283B4F84A20A4F84820A4F86A5074
:10C1700084F84250E28FB4F93C3089B202EBE3021A
:10C18000A4F8402084F843506064207D042831D313
:10C19000B4F84800B4F84A20904200E082E015D29A
:10C1A000628B120501D5012200E00222638E534307
:10C1B0009AB28A4200D81146014489B2814202D320
:10C1C000A4F8481016E0A4F8486013E0B4F86A2018
:10C1D000114489B2914202D3A4F86A1001E0A4F894
:10C1E0006A60B4F86A10814204D3091AA4F86A108C
:10C1F000618EE1E7D4E91B31A2A22046FEF7BCFA2A
:10C2000020670346A1A22046E16EFEF7B5FAE0667C
:10C21000216F19B12586257720B105E04FF0FF3257
:10C220002286F8E7A4F86850B4F864203B891A44E1
:10C23000A4F86420628B120514D511B1C86802E01D
:10C240000DE038B1C0684068FAF7B0FBE16C081A3D
:10C25000002807DC608B20F40060608302E0204649
:10C2600000F098FB606BE8B1A16BBA69891A19D527
:10C2700088490988081AB4F93C10A0EBE10000B223
:10C28000014409B2A187002801DA404200B2B4F9A2
:10C290003E20A0EBA2001044E08700EBE100A4F8F0
:10C2A000400065637B89002B7DD0207D07287AD2F2
:10C2B000606A7969DFF8E0A1421AB946012A3CD4E4
:10C2C0000B44C31A5B1C002B37DCDAF80470904671
:10C2D00017B972A0F6F786FDB04502D373A0F6F742
:10C2E00081FDDAF804001FFA88F6D0460089B042D2
:10C2F00002D272A0F6F776FDB8F80810891BA8F8EC
:10C300000810D8F804000089801B81B204E039814C
:10C310007D81301A3F6886B27889B042F7D33146C2
:10C320003846FCF731FB606AC9F81400D8F80C10E5
:10C330004860616A401A07D5F9E0081A04D5608B95
:10C3400040F002006083F2E0218D606A4F4642189F
:10C35000D9F814108A1A521C002A73DC884271D151
:10C36000DAF80C0056468089FAF722FB800700D0E5
:10C3700001203189084480B27881218D81423BD2ED
:10C38000F0688089FAF714FBC00711D0F068808943
:10C39000FAF70EFBC0F344004000FAF709FB014630
:10C3A000F068828900E0C7E022F47C521143818169
:10C3B000208D3081F0688089FAF7FAFA800702D57B
:10C3C0003089401E308131897068FCF761FAF0686D
:10C3D0008089FAF7EDFA800700D0012031890844FE
:10C3E00080B27881228D616A11447A691044884252
:10C3F00002D036A0F6F7F6FC7889796901446162CB
:10C40000218D814202D23FA0F6F7ECFC208D798984
:10C41000401A2085204600F065FF7068018909B147
:10C42000F8617560F0688089FAF7C2FAC00703D036
:10C43000787840F020007870608BC10772D020F0CF
:10C44000010084E073E06DE07463705F72656365A2
:10C450006976653A20696E76616C69642070636202
:10C46000000000007463705F726563656976653A09
:10C470002077726F6E67207374617465000000002E
:10C4800024010020756E61636B656400756E7365D1
:10C490006E7400001001002050540220696E736514
:10C4A000672E7020213D204E554C4C00696E736103
:10C4B0006E65206F66667365742100007062756634
:10C4C00020746F6F2073686F727421007463705FE3
:10C4D000726563656976653A207365676D656E742C
:10C4E000206E6F74207472696D6D656420636F7265
:10C4F000726563746C7920746F207263765F776EF7
:10C50000640A00007463705F726563656976653AFA
:10C51000207463706C656E203E207263765F776E68
:10C52000640A000040F001006083BDE8F087204607
:10C53000BDE8F04700F02EBA606A79690A1A05D49E
:10C54000228D1044081A401C0028EEDD608B40F05C
:10C550000200E9E770B50D46040007D0207D0128F0
:10C5600002D103A0F6F73EFCC4F8805070BD000075
:10C57000696E76616C696420736F636B6574207398
:10C580007461746520666F722072656376206361E2
:10C590006C6C6261636B000010B51446080007D034
:10C5A00064B1218900F020F82046FCF7E5F806E0A8
:10C5B00006A0F6F717FC6FF00F0010BD0BB10020BE
:10C5C00010BDBDE81040FDF723BD00007463705F2F
:10C5D000726563765F6E756C6C3A20696E76616C1D
:10C5E000696420706362000070B50D46040003D0DA
:10C5F000207D012805D007E0BDE8704011A0F6F7C6
:10C60000F1BB16A0F6F7EEFB228D43F6BC61501984
:10C6100080B2884201D8824201D9218500E020857C
:10C62000204600F05FFE40F6AF71884208D3608B71
:10C6300040F0020060832046BDE87040FEF708BE6F
:10C6400070BD00007463705F7265637665643A2044
:10C65000696E76616C69642070636200646F6E2736
:10C66000742063616C6C207463705F7265637665BF
:10C670006420666F72206C697374656E2D706362DE
:10C68000730000002DE9F041050002D119A0F6F772
:10C69000A9FB2E6F6FF005041EB13046FFF7BCF802
:10C6A00010B12046BDE8F081306805F16C042867C0
:10C6B00000E02468206850B1C0684068FAF776F955
:10C6C0000746F0684068FAF771F9381AF1D4206823
:10C6D000306026603068002108B9A5F8681095F828
:10C6E0004200FF2802D2401C85F842000020696306
:10C6F000D8E700007463705F7265786D69743A20E2
:10C70000696E76616C6964207063620010B5040024
:10C7100002D117A0F6F766FB206F002827D0A07E75
:10C72000400724D42046FFF7ADFF00281FD1B4F8FE
:10C730004800B4F86010884200D308464108A4F8C5
:10C740004A10608EB1EB400F05D24FF6FF7101EA3F
:10C750004001A4F84A1089B200EB40000844A4F854
:10C760004800608B40F0040060830020208610BDEC
:10C770007463705F7265786D69745F666173743A33
:10C7800020696E76616C696420706362000000004D
:10C7900010B5040002D107A0F6F724FB204600F0F4
:10C7A0003BF8002804D12046BDE8104000F010B846
:10C7B00010BD00007463705F7265786D69745F729C
:10C7C000746F3A20696E76616C69642070636200F0
:10C7D00010B5040002D107A0F6F704FB94F842005C
:10C7E000FF2802D2401C84F842002046BDE81040D9
:10C7F000FEF72EBD7463705F7265786D69745F7249
:10C80000746F5F636F6D6D69743A20696E76616CE9
:10C8100069642070636200002DE9F041050002D1D7
:10C8200019A0F6F7DFFA2C6F6FF005065CB103E094
:10C83000FEF7F2FF38B92468206800282046F7D1B7
:10C84000FEF7EAFF10B13046BDE8F081E86E2060E7
:10C850000027286FC5E91B07688B40F400606883D8
:10C86000E0684068FAF7A2F80646E0688089FAF7BF
:10C870009FF8800700D001202189304408446F636D
:10C88000E8640020E0E700007463705F7265786D13
:10C8900069745F72746F5F707265706172653A205F
:10C8A000696E76616C6964207063620018B1007A09
:10C8B00008B1FBF7BBBB1046F9F7B4BC2DE9FF4F3D
:10C8C00085B01E00DDE91279DDF8508093468A4676
:10C8D00002D116A0F6F786FA17B91BA0F6F782FA6E
:10C8E00000254BF63E445046FAF760F81422CDE995
:10C8F0000224CDE900980346002229465846FEF757
:10C9000013FE04000ED001462B4600220598FEF7C8
:10C910009FFE059809B03B4632462146BDE8F04FE0
:10C92000FEF758BE09B0BDE8F08F00007463705F79
:10C930007273743A20696E76616C6964206C6F63FF
:10C94000616C5F69700000007463705F7273743AA9
:10C9500020696E76616C69642072656D6F74655FC5
:10C960006970000010B5040009D0606808B1FBF7D9
:10C9700003FF2146BDE810400320FAF78DBF10BD2C
:10C9800010B503E00468FFF7EDFF20460028F9D159
:10C9900010BD00002DE9F0414FF0000704003E46B5
:10C9A00002D116A0F6F71EFA0025206DF9F7FEFF5A
:10C9B0000346002229462046FEF782FD050010D0DE
:10C9C000014633463A462046FEF742FE2246231DE4
:10C9D00029461046FEF7FEFD618B50B141F0030180
:10C9E00009E0608B40F0030060836FF00100BDE858
:10C9F000F08121F003016183F9E700007463705F47
:10CA000073656E645F656D7074795F61636B3A2006
:10CA1000696E76616C6964207063620070B50500B0
:10CA200002D112A0F6F7DEF9EC6E0CB909E00C4663
:10CA300021680029FBD1E0688089F9F7B9FF400738
:10CA400005D02846BDE870400121FDF753BD012007
:10CA5000F9F7AEFF0146E068828911438181688B56
:10CA600040F020006883002070BD00007463705F98
:10CA700073656E645F66696E3A20696E76616C6993
:10CA8000642070636200000070B50D46040006D09B
:10CA9000207D012802D102A0F6F7A4F9E56770BD58
:10CAA000696E76616C696420736F636B6574207363
:10CAB0007461746520666F722073656E74206361A3
:10CAC0006C6C6261636B000010B504000CD0207DBB
:10CAD0006FF00A0301281BD099B1608B40F0100061
:10CAE00060833AB1012116E00EA0F6F77BF96FF0F2
:10CAF0000F0010BD606F98B1FBF73EFE002060672D
:10CB00000EE06AB1032805D0042803D0072801D01D
:10CB1000184610BDC9B22046BDE81040FDF798BACE
:10CB2000002010BD7463705F73687574646F776EF6
:10CB30003A20696E76616C6964207063620000005F
:10CB40002DE9FE4FC54F47F6FF7A4FF4FA7BF868A0
:10CB50004FF00009401CF860B878401CB8700026FF
:10CB6000BC694AE1207D10B9BDA0F6F73BF9207DF4
:10CB7000012802D1C5A0F6F735F9207D0A2802D197
:10CB8000CDA0F6F72FF9A17FB878814202D12646D1
:10CB9000E46832E1A0770025207DA846022805D16F
:10CBA00094F84200062801D3012594E094F842004D
:10CBB0000C2811D294F89500002837D0206F10B1BE
:10CBC000C9A0F6F70FF9E06E10B9D4A0F6F70AF98C
:10CBD00094F896000C2801D3012570E094F8951084
:10CBE000DC48085C94F89410814202D2491C84F815
:10CBF0009410C9B2814262D3B4F86010204619B1D2
:10CC000000F01AFA20B107E000F018FFF0BB03E0D3
:10CC10002046FEF71DFBC8B384F8949094F8950065
:10CC200007284CD2401C84F8950048E0B4F9300045
:10CC3000504501D2401C2086B4F93000B4F94010B0
:10CC400088423CDB2046FFF7E7FD18B1206FE8B9CA
:10CC5000E06ED8B1207D022812D094F842100C2941
:10CC600000D30C21B4F93E00B4F93C2000EBE20003
:10CC7000B94A515C8840504500DB5046A4F840005A
:10CC8000A4F830904B46B4F8480000E017E0B4F840
:10CC90006010884200D308464108A4F84A10608E0C
:10CCA0004FF6FF7202EA4002914201D2A4F84A20F4
:10CCB000A4F84800A4F86A302046FFF789FD207DDB
:10CCC000062808D1A07EC00605D5206AF968081A92
:10CCD000282800D96D1C607A00072AD5207D0428F9
:10CCE00001D0072825D19D48D4F89010D7F80CC062
:10CCF0000844B0FBFBF2206AACEB0000824203D296
:10CD00004FF001086D1C14E094F8972042F29F4CFC
:10CD100012FB0CF201EBC201B1FBFBF1814208D224
:10CD20002046FEF7A9F820B994F89700401C84F833
:10CD30009700207D032802D0092807D00BE0206A45
:10CD4000F968081A282806D96D1C04E0206AF968D9
:10CD5000081AF028F8D8ADB32046D4F88C50FEF766
:10CD600037FEB8693EB1844202D17DA0F6F73AF8A9
:10CD7000E068F06006E0A04202D084A0F6F732F846
:10CD8000E068B861B8F1000F0AD0228BE18A201D5B
:10CD90008DE8070023461846626A216DFFF78EFD75
:10CDA0002046D4F81080E468FDF7CEFC87F80090A8
:10CDB0001DB36FF00C014046A847387800287FF477
:10CDC000CEAE1AE0FFE72646E468307F401CC0B2D2
:10CDD0003077717F884210D386F81C9087F80090D6
:10CDE000D6F8882032B13146306990473978002929
:10CDF000E5D110B93046FEF72BFA002C7FF4B2AE25
:10CE00000025FC6925E0207D0A2802D06AA0F5F7FC
:10CE1000E9FF206AF968081AF02818D92046FEF7B9
:10CE2000D7FDF8693DB1844202D16FA0F5F7DAFF72
:10CE3000E068E86006E0A04202D075A0F5F7D2FFF6
:10CE4000E068F8612046E468FDF77EFC01E02546D5
:10CE5000E468002CD7D1BDE8FE8F0000040100205B
:10CE60007463705F736C6F77746D723A2061637472
:10CE7000697665207063622D3E737461746520214C
:10CE80003D20434C4F5345440A0000007463705FDB
:10CE9000736C6F77746D723A206163746976652084
:10CEA0007063622D3E737461746520213D204C498E
:10CEB0005354454E0A0000007463705F736C6F77C3
:10CEC000746D723A20616374697665207063622DB7
:10CED0003E737461746520213D2054494D452D57A2
:10CEE0004149540A000000007463705F736C6F77EF
:10CEF00074696D723A207065727369737420746915
:10CF0000636B696E67207769746820696E2D666C43
:10CF10006967687420646174610000007463705F05
:10CF2000736C6F7774696D723A2070657273697390
:10CF300074207469636B696E672077697468206513
:10CF40006D7074792073656E6420627566666572B3
:10CF500000000000DBFF000810000108B84C0A00C8
:10CF60007463705F736C6F77746D723A206D69646F
:10CF7000646C652074637020213D207463705F6170
:10CF800063746976655F7063627300007463705FD9
:10CF9000736C6F77746D723A206669727374207067
:10CFA0006362203D3D207463705F616374697665E0
:10CFB0005F706362730000007463705F736C6F77FF
:10CFC000746D723A2054494D452D57414954207093
:10CFD00063622D3E7374617465203D3D2054494D5C
:10CFE000452D5741495400007463705F736C6F772F
:10CFF000746D723A206D6964646C6520746370208E
:10D00000213D207463705F74775F7063627300000A
:10D010007463705F736C6F77746D723A20666972B7
:10D02000737420706362203D3D207463705F747779
:10D030005F706362730000002DE9F84F0F46050032
:10D0400002D14FA0F5F7CEFEEC6E002C7ED05FB182
:10D050002089B8427BD9688EB84202D251A0F5F738
:10D06000C1FE208938B109E052A0F5F7BBFE6FF090
:10D070000500BDE8F88F58A0F5F7B4FE94F80AB0A3
:10D080005FEACB7001D0042600E0002620894FF42F
:10D090002072C01B1FFA80F808EB060081B2362010
:10D0A000FBF7B4F85FEA000A66D06068228901895C
:10D0B000891A39448BB2DAF8041042463144FBF73E
:10D0C00001FB404555D1E0688089F9F771FC00F01B
:10D0D0003F064FF00009300703D526F008064FF051
:10D0E0000809F00703D026F0010649F00109E068BD
:10D0F0004068F9F75BFCC3194A4651462846CDF80B
:10D1000000B0FDF745F9070033D06068FBF707FA78
:10D1100035F8661F081A288060680289A2EB0801AA
:10D1200089B2FBF7B5FB2189A1EB080020813046CD
:10D13000F9F73EFC0146E06882891143818160680D
:10D14000FBF7EDF929880844288001E014E00EE09F
:10D150007868FBF7E4F92988084425F8660920680F
:10D1600038602760386810B90020A5F868000020F2
:10D170007FE75046FBF700FB4FF0FF3079E70000F8
:10D180007463705F73706C69745F756E73656E74D1
:10D190005F7365673A20696E76616C6964207063BD
:10D1A0006200000073706C6974203C3D206D7373E5
:10D1B0000000000043616E27742073706C69742056
:10D1C0007365676D656E7420696E746F206C656E33
:10D1D0006774682030000000757365672D3E6C65CC
:10D1E0006E203E20300000000848816800290CD1E4
:10D1F0000749084A09681268114306D00121816075
:10D2000000220549FA20FCF721BD704748010020A3
:10D210001C0100202001002059DC00083EB51A4DF9
:10D220000446287840071DD414B918A0F5F7DAFD94
:10D230002878810717D5616A6869421A18D4228D47
:10D240001144411A002913DCE968184B0A884988FF
:10D250000093CDE9011269891B1D42182046A96976
:10D26000FFF72CFB3EBDC00702D0114800682062CA
:10D2700068890028F6D0608B40F002006083204669
:10D28000BDE83E40FDF7E4BF240100207463705FF9
:10D2900074696D65776169745F696E7075743A2041
:10D2A000696E76616C69642070636200F0F600203C
:10D2B0001001002010B5FDF711FA05494878401C0F
:10D2C0004870C00703D0BDE81040FFF739BC10BD5F
:10D2D000040100200248417841F01001417070477C
:10D2E0002401002070B5040002D111A0F5F77AFDE9
:10D2F000258D616A638E4A1941F65E76E06AB34213
:10D3000000D933460344D31A02D46585101A70BD80
:10D310000A1A002A02DD0020608507E0451AB5F5EB
:10D32000803F02D30BA0F5F75DFD6585002070BD41
:10D330007463705F7570646174655F7263765F615A
:10D340006E6E5F776E643A20696E76616C696420F8
:10D35000706362006E65775F7263765F616E6E5FA9
:10D36000776E64203C3D203078666666660000007B
:10D370002DE9FF4F05004FF000008DB0904605905D
:10D38000044607468346064609900C90ADF82800EF
:10D3900082466FF00F090B9007D0688EB5F86210C7
:10D3A000B0EB510F03D2014602E0E8A042E0490889
:10D3B00001B901460E98089100283AD01146284636
:10D3C00000F0BEFA002838D1B5F866900790E86EF4
:10D3D000002877D0044600680028FBD1A07AC00757
:10D3E00000D004200090218901440898814202D98C
:10D3F000DCA0F5F7F7FC2189009801440898401A51
:10D4000080B20390B5F86800ADF8280040B30399E6
:10D41000884202D9D9A0F5F7E5FCBDF828002746D7
:10D420004146404500D20146039A914208D911462F
:10D430000AE0DAA0F5F7D6FC484611B0BDE8F08F57
:10D440004146404500D201468A46A0EB0A00ADF8AD
:10D450002800A2EB0A0006EB0A0180B28EB203900C
:10D46000BDF8280020B1464502D0D9A0F5F7BAFC96
:10D47000464559D20398002856D020890028FBD071
:10D480000399A8EB0600884200DD084680B20490AC
:10D4900010982746C00716D0012110980095CDE9B5
:10D4A0000101DDE903210AAB0020FEF723FA059014
:10D4B00000286ED00E98049A811905984068F2F7FA
:10D4C0002EFF22E029E0606800E00846016800299C
:10D4D000FBD1017B89090CD14168408901440E9838
:10D4E000814206D116B1C2A0F5F77CFC04980B90DE
:10D4F00011E0012200200499FAF788FE0590002827
:10D50000D7D00E988119059841600598FBF707F868
:10D5100048441FFA80F9049880E0B5F868000028B4
:10D520007ED0BEA0F5F75EFC7AE0A8EB060081B2E3
:10D53000DDE90720801A80B2814200D208460690B9
:10D540001098C00726D0BBF1000F20D00020109902
:10D550000095CDE9011006980AAB104481B236203F
:10D56000089AFEF7C7F901900028A2D041890698D1
:10D57000814202D2B5A0F5F735FC0E9881190198C9
:10D58000426807981044069AF2F7C9FE1DE0012090
:10D59000DDE7C1E0BDF8280010B1BCA0F5F722FC22
:10D5A000012236200699FAF731FE0700A8D00E981E
:10D5B0004FF420723044786036200799FAF726FE3F
:10D5C000019078B13946FAF741FF0198FAF7A7FFC1
:10D5D00048441FFA80F9B9F1500F05D90198FBF7BB
:10D5E000CBF899E03846FAE70C980090E86D0022F5
:10D5F000831928460199FCF7CBFE0700F1D0BBF157
:10D60000000F02D0099810B104E0BB4604E0A3A0CB
:10D61000F5F7E8FB0998076006980997304486B249
:10D62000464582D3BAF1000F19D0666811E03189FE
:10D6300001EB0A003081306850B971897068524638
:10D6400008440E99F2F76BFE718901EB0A007081B4
:10D650003668002EEBD1218901EB0A002081BDF84C
:10D660002800A5F86800059858B114B990A0F5F7FE
:10D67000B9FB60680599FAF7E9FE059821890089E8
:10D680001BE00B98D8B10CB1606810B996A0F5F703
:10D69000A9FB606804E003890B9A1A4402810846DA
:10D6A00001680029F7D102890B991144018142894F
:10D6B0000B991144418121890B98084420819CB128
:10D6C000C4F800B0E96D01EB0800E865B5F8641036
:10D6D000A1EB0800A5F864005FEA0900A5F8660060
:10D6E0000AD0286F18B107E0C5F86CB0EAE7E86E19
:10D6F00010B98BA0F5F776FB67B1F86850B11098B8
:10D70000800707D40820F9F753F90146F8688289A1
:10D7100011438181002090E6688B40F0800068838F
:10D72000059808B1FBF728F8BBF1000001D0FFF71E
:10D7300027F9B5F8660030B1286F20B9E86E10B946
:10D7400077A0F5F74FFB4FF0FF3076E67463705F1C
:10D7500077726974653A20696E76616C69642070CD
:10D76000636200006D73735F6C6F63616C2069733B
:10D7700020746F6F20736D616C6C0000696E636F55
:10D780006E73697374656E74206F76657273697AEF
:10D79000652076732E207370616365007463705F1B
:10D7A00077726974653A20617267203D3D204E555D
:10D7B0004C4C202870726F6772616D6D65722076B7
:10D7C000696F6C6174657320415049290000000045
:10D7D000696E636F6E73697374656E74206F7665BE
:10D7E0007273697A652076732E206C656E00000076
:10D7F0007463705F77726974653A20524F4D207080
:10D80000627566732063616E6E6F74206265206F4F
:10D8100076657273697A656400000000756E7365E1
:10D820006E745F6F76657273697A65206D69736D6A
:10D830006174636820287063622D3E756E73656E37
:10D8400074206973204E554C4C2900007463705F3E
:10D8500077726974653A20636865636B20746861E8
:10D860007420666972737420706275662063616EDD
:10D8700020686F6C642074686520636F6D706C65E0
:10D880007465207365676C656E0000006F76657265
:10D8900073697A65203D3D20300000007072657626
:10D8A0005F73656720213D204E554C4C0000000001
:10D8B0007463705F77726974653A2063616E6E6F2E
:10D8C0007420636F6E636174656E61746520776840
:10D8D000656E207063622D3E756E73656E7420698F
:10D8E0007320656D707479007463705F777269740A
:10D8F000653A20657874656E73696F6E206F662077
:10D900007265666572656E636520726571756972B0
:10D910006573207265666572656E63650000000060
:10D920007463705F77726974653A2076616C6964BC
:10D93000207175657565206C656E67746800000000
:10D9400070B50D46040002D118A0F5F74BFA207D02
:10D95000042808D0072806D0022804D0032802D0C3
:10D960006FF00A0070BD002D1DD0B4F864004FF0B8
:10D97000FF31A84203D3B4F86600502805D3608B6A
:10D9800040F080006083084670BD0028206F04D0FE
:10D9900048B9E06E38B90DA003E008B9E06E10B1E7
:10D9A00019A0F5F71FFA002070BD00007463705FC6
:10D9B00077726974655F636865636B733A20696E3B
:10D9C00076616C6964207063620000007463705F4C
:10D9D00077726974653A207062756673206F6E2085
:10D9E0007175657565203D3E206174206C656173BD
:10D9F00074206F6E65207175657565206E6F6E2D74
:10DA0000656D7074790000007463705F777269747B
:10DA1000653A206E6F207062756673206F6E20719C
:10DA200075657565203D3E20626F7468207175656F
:10DA300075657320656D7074790000002DE9F047FD
:10DA400005004FF0000902D12CA0F5F7CBF9EC6EE0
:10DA500044B395F89600FF2802D2401C85F8960042
:10DA6000E0688089F8F7A4FFC00701D02089E0B101
:10DA700000205FEA00081AD00022E06849464368A7
:10DA80002846FDF71DFD070013D07E68B8F1000F92
:10DA900012D01120F8F78CFFB18921F47C51084392
:10DAA000B08113E00020BDE8F0870120E1E701220A
:10DAB000E3E74FF0FF30F6E76068238906F11401D1
:10DAC0000289D21A93B20122FAF7FCFDE06840689D
:10DAD000F8F76CFF296D401C091A00D528654B46E4
:10DAE000002239462846FDF7B3FD2A462B1D39464C
:10DAF000BDE8F0471046FDF76DBD00007463705F30
:10DB00007A65726F5F77696E646F775F70726F624C
:10DB1000653A20696E76616C69642070636200000A
:10DB200038B50D460446F8F745FF0E480821C0E910
:10DB300000450830FBF7A6FF10B10BA0F5F752F92E
:10DB400008480C30FBF7CAFF10B110A0F5F74AF9EE
:10DB5000032000904FF400730022154915A0FCF734
:10DB600047F838BDA40000206661696C65642074C4
:10DB70006F206372656174652074637069705F748F
:10DB80006872656164206D626F7800006661696C1F
:10DB9000656420746F20637265617465206C6F63C7
:10DBA0006B5F74637069705F636F72650000000083
:10DBB00091DC00086C776970000000002DE9F041ED
:10DBC000074690460E461048FBF77CFF10B90FA0A1
:10DBD000F5F708F90920F9F7A1FE04004FF0FF3529
:10DBE0000FD000202070C4F80C80C4E901762146D3
:10DBF0000548FBF759FF002804D021460920F9F712
:10DC00004BFE2846BDE8F081AC000020496E7661ED
:10DC10006C6964206D626F780000000091F82D201F
:10DC200012F0180F01D0024A00E0024AFFF7C6BF07
:10DC30000D540008095D000870B504460D460548FE
:10DC4000FBF745FF2846A0470248FBF765FF002089
:10DC500070BD0000B000002010B5FFF72BFB084896
:10DC6000084900680968084306D00022BDE8104052
:10DC70000549FA20FBF7EABF04490020886010BD7F
:10DC80001C0100202001002059DC00084801002070
:10DC900008B51C48FBF71BFF1A480C38016809B18E
:10DCA00040688847174E6D46361FFCF75DF80446FE
:10DCB000401C0FD0F4B11348FBF72EFF2246294633
:10DCC0003046FBF74FFE04460E48FBF700FF641C8E
:10DCD00010D00AE00B48FBF71FFF00222946304610
:10DCE000FBF740FE0748FBF7F2FE009828B100F072
:10DCF0001BF8D7E7FBF78AFED7E703A0F5F772F822
:10DD0000D0E70000B000002074637069705F746831
:10DD1000726561643A20696E76616C6964206D6534
:10DD2000737361676500000010B50446007840B168
:10DD3000012810D0022817D0BDE810400DA0F5F73B
:10DD400051B8201D07C8904710B16068FAF714FD5C
:10DD50002146092004E0D4E9011088472146082023
:10DD6000BDE81040F9F798BDD4E90110BDE81040B6
:10DD70000847000074637069705F7468726561645D
:10DD80003A20696E76616C6964206D6573736167B2
:10DD9000650000002DE9F05F01B92C4920B12C4F3E
:10DDA00000267B681D460BE02AA0F5F71BF86FF0F4
:10DDB0000F00BDE8F09F984201D1012602E0DB6828
:10DDC000002BF8D16FF0070A82BB4FF0000C4FF622
:10DDD000FF784FF440494FF4804B3A88531C3B8006
:10DDE000424501D1A7F800902B463A880BE05C8AA7
:10DDF000944207D10CF1010C1FFA8CFCDC45ECD3EA
:10DE0000002203E0DB68002BF1D192B2B2B10FE047
:10DE1000A8420AD06B8A934207D12B680C68A342B0
:10DE20000CD059B154B14DB143B1ED68002DEFD1D3
:10DE300001B109680160428216B104E05046B8E7BA
:10DE40007968C16078600020B3E7000058000108DD
:10DE5000540100207564705F62696E643A20696ED7
:10DE600076616C69642070636200000008B51D4C27
:10DE700040F6B835002211462020F9F72BFFE0606C
:10DE800090B11949009141F641726946F9F712FEC5
:10DE9000002816A00FD0F4F7A5FF18A0F4F7A2FFF2
:10DEA000E068F9F731FE13E010A0F4F79BFF1CA027
:10DEB000F4F798FF0CE0F4F795FF24A0F4F792FF35
:10DEC00001202070A06800F0E7FF606801F0A8F86A
:10DED00028A0F4F787FF2BA0F4F784FF284600F072
:10DEE00097FEC7E71C000020C0A801050D0A5B448F
:10DEF000454255475D203E3E20000000756470207D
:10DF00006E6574636F6E6E5F636F6E6E65637420B3
:10DF10006973206661696C2121210D0A00000000EF
:10DF20005B55445020436C69656E745D6E65746327
:10DF30006F6E6E5F6E65773A20696E76616C6964AC
:10DF400020636F6E6E200D0A000000007564702063
:10DF50006E6574636F6E6E5F636F6E6E6563742063
:10DF60006973207375636365737366756C21212112
:10DF70000D0A00000D0A5B494E464F5D203E3E20D3
:10DF80000000000075647020526565737461626CF6
:10DF9000697368206120636F6E6E656374696F6E6C
:10DFA000200D0A007CB516480724CDE900404FF447
:10DFB000007500232A4613A1154801F001FD08B1A0
:10DFC00014A000E01BA0F4F70DFF0D480023001D76
:10DFD000CDE900402A461FA1224801F0F1FC48B1DA
:10DFE00021A0F4F7FFFE0648001F8068BDE87C40D2
:10DFF00001F016B8BDE87C4022A0F4F7F3BE0000A3
:10E00000200000207564705F5461736B0000000095
:10E010006DDE00086372656174652075647020634D
:10E020006F6E6E656374207461736B206F6B210D6E
:10E030000A00000063726561746520756470206376
:10E040006F6E6E656374207461736B2065727221EC
:10E050000D0A00007564705F73656E645F546173D0
:10E060006B00000081E400086372656174652075CF
:10E0700064702073656E64207461736B206F6B2114
:10E080000D0A000063726561746520756470207309
:10E09000656E64207461736B20657272210D0A00D5
:10E0A0002DE9F04116460D4604006FF00F0703D02E
:10E0B00025B1628A42B10CE010A000E016A0F4F78E
:10E0C00091FE3846BDE8F0810146FFF763FE002867
:10E0D000F8D128686060A682207C164A40F00400CF
:10E0E00020745068014604E0844201D10020E9E731
:10E0F000C0680028F8D1E1605460F7E77564705F8C
:10E10000636F6E6E6563743A20696E76616C6964E4
:10E1100020706362000000007564705F636F6E6E54
:10E120006563743A20696E76616C69642069706118
:10E130006464720054010020704700002DE9F84F1C
:10E1400088465FEA000A02D144A0F4F74BFEB8F11A
:10E15000000F02D147A0F4F745FEBAF80A000828DC
:10E1600077D34B4FDAF8044039687869F7F7C1FC88
:10E1700081462088F8F71CFC00906088F8F718FCAE
:10E18000834644480026354644682FE0618A594555
:10E190002AD14A464146204600F08CF820B3207C24
:10E1A00040070FD46DB1B9F1000F0BD07869401C56
:10E1B00008D12968D8F80400814203D0216881423F
:10E1C00000D12546A18A009881420DD1606810B126
:10E1D0003969884208D12EB1E068F0602D48416865
:10E1E000E160446024B10EE02646E468002CCDD105
:10E1F0002C0008D1D8F804007969884201D10120A7
:10E2000000E0002038B108215046FAF7BDFB18B1F4
:10E2100021A0F4F7E7FD1CE04CB1A569CDB11C4B82
:10E22000524610332146E069A847BDE8F88FB9F19E
:10E23000000F0ED1387DC0F303100E2809D0B88925
:10E24000083001B25046FAF70BFB03215046F7F7AE
:10E250000FFB5046BDE8F84FFAF78EBA7564705F51
:10E26000696E7075743A20696E76616C69642070AD
:10E27000627566007564705F696E7075743A2069C6
:10E280006E76616C6964206E6574696600000000DA
:10E29000E0F6002054010020706275665F72656DC3
:10E2A0006F76655F686561646572206661696C653B
:10E2B000640A000070B516460D46040002D114A091
:10E2C000F4F790FD15B91BA0F4F78CFD207A2349D3
:10E2D00030B14A6892F83020521CD2B2904214D128
:10E2E0005EB184B1226872B14869411C0BD0A96843
:10E2F0000A400840824206D007E024B1206810B1ED
:10E300004969884201D1012070BD002070BD000024
:10E310007564705F696E7075745F6C6F63616C5F5C
:10E320006D617463683A20696E76616C696420700F
:10E33000636200007564705F696E7075745F6C6F06
:10E3400063616C5F6D617463683A20696E76616CBD
:10E350006964206E6574696600000000E0F60020C4
:10E3600010B5002813D00268002A10D000290ED062
:10E370000A68002A0BD0064A526806E0136804684F
:10E38000A34201D10B681360D268002AF6D110BDF8
:10E390005401002010B50020F9F7C0FA040004D0A1
:10E3A0002021F1F7E3FFFF20E072204610BDFFF7C8
:10E3B000F1BF000010B1C0E90612704701A0F4F7E8
:10E3C00011BD00007564705F726563763A20696EF6
:10E3D00076616C69642070636200000030B10C49A2
:10E3E0004A6882420DD1D2684A600CE009A0F4F775
:10E3F000F9BCD16821B1814202D1C168D16002E08B
:10E400000A46002AF5D101460020F9F745BA000076
:10E41000540100207564705F72656D6F76653A20F7
:10E42000696E76616C6964207063620010B56FF08C
:10E430000F0430B139B1838ABDE81040021D00F0ED
:10E440006DB803A000E008A0F4F7CCFC204610BD96
:10E450007564705F73656E643A20696E76616C698D
:10E4600064207063620000007564705F73656E64A1
:10E470003A20696E76616C6964207062756600008E
:10E48000ADF5B66D40F2A25102A8F1F76FFF184842
:10E49000184C0127D0E90010CDE9001040F2AA5530
:10E4A0004FF47A788DF8A975E0686E4680B1F9F777
:10E4B00068FA2A4631462061F9F770FAD4E9030177
:10E4C000F9F798FC022000F0A3FB2069F9F748FA5D
:10E4D00009A0F4F787FC0CA0F4F784FC404600F098
:10E4E00097FB9DF8A805401C8DF8A805DAE7000009
:10E4F00000FF00081C0000200D0A5B494E464F5DDE
:10E50000203E3E20000000007564702073656E643C
:10E51000206461746120200D0A0000002DE9F84399
:10E5200098460E46040015466FF00F0706D03EB120
:10E5300045B1207A60B1F9F779FD0CE00CA002E05A
:10E5400011A000E017A0F4F74DFC3846BDE8F883B1
:10E550001046F7F767FE38B1009043462A46314629
:10E56000204600F02DF8F1E76FF00300EEE7000021
:10E570007564705F73656E64746F3A20696E76615E
:10E580006C696420706362007564705F73656E64AB
:10E59000746F3A20696E76616C696420706275668A
:10E5A000000000007564705F73656E64746F3A20DC
:10E5B000696E76616C6964206473745F69700000D1
:10E5C0007CB56FF00F05069C78B181B18AB194B12A
:10E5D0000568002D14D0C5F303160E2E10D0666802
:10E5E000B5420FD06FF003007CBD09A004E00FA07E
:10E5F00002E015A000E01CA0F4F7F4FB28467CBD67
:10E60000251D00E00546CDE9004500F03DF87CBD44
:10E610007564705F73656E64746F5F69663A2069D4
:10E620006E76616C69642070636200007564705F6F
:10E6300073656E64746F5F69663A20696E76616CAB
:10E6400069642070627566007564705F73656E64DE
:10E65000746F5F69663A20696E76616C69642064E4
:10E6600073745F69700000007564705F73656E6439
:10E67000746F5F69663A20696E76616C6964206EBA
:10E6800065746966000000002DE9FE4F9B46DDE9D8
:10E690000C8992460D4606006FF00F040DD075B13F
:10E6A000BAF1000F0DD05FEA09000CD05FEA080054
:10E6B0000BD0728A002A0ED013E02EA006E035A0FF
:10E6C00004E03CA002E044A000E04CA0F4F78AFB88
:10E6D0002046BDE8FE8F31460846FFF75BFB002869
:10E6E000F7D128894FF0FF3700F1080189B2814244
:10E6F00013D308212846F9F755FD80B14FF4207255
:10E7000008212220F9F782FD040006D0288938B1BB
:10E7100029462046F9F7FAFE02E03846D9E72C46AA
:10E720006089082802D23EA0F4F75CFB708A676813
:10E73000F8F73EF938805846F8F73AF97880002023
:10E74000F8802089F8F734F9B880F37AB27A11208A
:10E75000CDE90020CDF80880524649462046F7F71B
:10E76000C7FB0646AC4202D02046FAF705F8304611
:10E77000AFE700007564705F73656E64746F5F6906
:10E78000665F7372633A20696E76616C69642070AB
:10E79000636200007564705F73656E64746F5F69B7
:10E7A000665F7372633A20696E76616C696420708B
:10E7B000627566007564705F73656E64746F5F691F
:10E7C000665F7372633A20696E76616C6964206477
:10E7D00073745F69700000007564705F73656E64C8
:10E7E000746F5F69665F7372633A20696E76616CFD
:10E7F0006964207372635F69700000007564705F04
:10E8000073656E64746F5F69665F7372633A2069E3
:10E810006E76616C6964206E657469660000000044
:10E82000636865636B2074686174206669727374D1
:10E8300020706275662063616E20686F6C6420735F
:10E840007472756374207564705F68647200000090
:10E85000D0E9013201699A60D0E901235A604A681F
:10E86000824201D182684A60002202610868401E2B
:10E870000860704710B5040005D140F2326205A16E
:10E880000AA0F4F7AFFA00F04BF8A46B00F082F89E
:10E89000204610BD2E2E5C4672656552544F535C67
:10E8A0007372635C71756575652E63004572726F76
:10E8B000723A25732C25640D0A00000000F108014E
:10E8C0004FF0FF32C0E90112C16001610021016017
:10E8D000704700210161704730B50C68621C02D09E
:10E8E00000F1080202E0026904E01A4653681D685C
:10E8F000A542FAD953684B6099608A6051600861FB
:10E900000168491C016030BD42684A6093688B60B1
:10E9100093685960916008610168491C0160704703
:10E92000502080F31188BFF34F8FBFF36F8F0949D9
:10E930004868401C486001280AD10748006810F068
:10E94000FF0F05D040F2B91204A10EA0F4F74ABAA5
:10E95000704700009800002004ED00E02E2E5C4679
:10E9600072656552544F535C706F72745C525644BA
:10E97000535C41524D5F434D34465C706F72742E50
:10E98000630000004572726F723A25732C25640D86
:10E990000A00000010B5084C606828B94FF4E07216
:10E9A00006A110A0F4F71EFA6068401E606001D155
:10E9B00080F3118810BD0000980000202E2E5C46C8
:10E9C00072656552544F535C706F72745C5256445A
:10E9D000535C41524D5F434D34465C706F72742EF0
:10E9E000630000004572726F723A25732C25640D26
:10E9F0000A00000070B500282AD0164DA0F10804C6
:10EA00006068E968084205D14FF4A07212A11BA00A
:10EA1000F4F7E8F9206828B140F241120EA117A0DE
:10EA2000F4F7E0F96068E968084211D02268002A2A
:10EA30000ED18843606000F05DFB6068696808443F
:10EA400068602046FAF710FBBDE8704001F018B985
:10EA500070BD0000800000202E2E5C46726565525D
:10EA6000544F535C706F72745C4D656D4D616E6791
:10EA70005C686561705F342E630000004572726FE0
:10EA8000723A25732C25640D0A00000006484FF4E5
:10EA90007A710068B0FBF1F14FF0E020491E41614E
:10EAA00007210161704700000000002010B5F1F758
:10EAB000E9FB104C10280CD300F1E02090F8F00393
:10EAC0002178884205D24FF440720BA114A0F4F7CC
:10EAD00089F917480068A16800F4E060884207D906
:10EAE000BDE810404FF4447203A10DA0F4F77AB9C9
:10EAF00010BD0000980000202E2E5C467265655205
:10EB0000544F535C706F72745C525644535C415264
:10EB10004D5F434D34465C706F72742E630000008D
:10EB20004572726F723A25732C25640D0A0000003D
:10EB30000CED00E010B5074B002253F832401CB139
:10EB4000521C0A2AF9D310BD43F8321003EBC2015C
:10EB5000486010BD8463002010B5040005D14FF457
:10EB6000CC6206A10BA0F4F73DF9204600F01AF89C
:10EB70002046BDE81040FFF73DBF00002E2E5C464A
:10EB800072656552544F535C7372635C7175657541
:10EB9000652E63004572726F723A25732C25640DE1
:10EBA0000A000000084A002102EBC1035B688342AF
:10EBB00006D1002042F8310002EBC10148607047E5
:10EBC000491C0A29F0D370478463002070B51546AC
:10EBD0000E460446FFF7A4FE94F944100020491C99
:10EBE00001D184F8440094F94510491C01D184F8FE
:10EBF0004500FFF7CFFEA06B28B92A46314604F145
:10EC0000240000F0D7F82046BDE87040FAF76ABC4F
:10EC100010B5040012D00E49096B29B140F2CF4261
:10EC20000CA112A0F4F7DEF800F064FA00212046EF
:10EC3000FAF73EF801F024F8002807D10F494FF009
:10EC400080500860BFF34F8FBFF36F8F10BD00007F
:10EC5000300000202E2E5C4672656552544F535C86
:10EC60007372635C7461736B732E63004572726FB1
:10EC7000723A25732C25640D0A00000004ED00E0B3
:10EC800070B50446FFF74CFE234D04B92C68201DD7
:10EC9000FFF7DEFD58B9E06A204A00EB800152F828
:10ECA000211021B901218140286988432861A06A87
:10ECB00018B104F11800FFF7CBFD686A401C6862C8
:10ECC0002868844207D1211D1548FFF71DFE68689A
:10ECD000401C686007E0A868401EA8602046FAF75C
:10ECE00022F9FAF735FBFFF755FE6869002812D0C4
:10ECF000286884420FD1286B28B140F2654209A1EF
:10ED00000EA0F4F76FF811494FF080500860BFF380
:10ED10004F8FBFF36F8F70BD30000020D463002091
:10ED2000906600202E2E5C4672656552544F535CEF
:10ED30007372635C7461736B732E63004572726FE0
:10ED4000723A25732C25640D0A00000004ED00E0E2
:10ED500001490120C86170473000002070B50D46A0
:10ED6000040005D140F6063207A10DA0F4F73AF8E9
:10ED70000F48016820461831FFF7AEFD2846BDE870
:10ED800070400121F9F794BF2E2E5C4672656552E2
:10ED9000544F535C7372635C7461736B732E6300C6
:10EDA0004572726F723A25732C25640D0A000000BB
:10EDB0003000002070B514460E46050005D140F61F
:10EDC000313209A10EA0F4F70DF811480168284668
:10EDD0001831FFF799FD0CB14FF0FF362146304650
:10EDE000BDE87040F9F764BF2E2E5C46726565522F
:10EDF000544F535C7372635C7461736B732E630066
:10EE00004572726F723A25732C25640D0A0000005A
:10EE10003000002070B5040039D01D4DE06A29682B
:10EE2000C96A884233D2A069002804DB2868C06A16
:10EE3000C0F12000A061E06A164E00EB800061691D
:10EE400006EB800081421FD1201DFFF701FD01214B
:10EE500050B9E06A00EB800256F8222022B92A69F4
:10EE600001FA00F082432A612868C06AE0622A69D8
:10EE700081401143296100EB800006EB8000211DD9
:10EE8000BDE87040FFF740BD2868C06AE06270BD11
:10EE900030000020D463002070B504002BD01A4D40
:10EEA000286884422FD0FFF73BFD2046FAF7DAFAB4
:10EEB000E8B1201DFFF7CCFCE06A01212A698140FE
:10EEC00011432961114900EB800001EB8000211DF5
:10EED000FFF71AFDE06A2968C96A884207D30C491E
:10EEE0004FF080500860BFF34F8FBFF36F8FBDE8C6
:10EEF0007040FFF74FBDBDE8704040F2AB6205A126
:10EF00000AA0F3F76FBF70BD30000020D46300206B
:10EF100004ED00E02E2E5C4672656552544F535C42
:10EF20007372635C7461736B732E63004572726FEE
:10EF3000723A25732C25640D0A00000010B50400F8
:10EF400005D140F6C13205A10AA0F3F74BFF0D48E9
:10EF5000016A2160C068606010BD00002E2E5C4612
:10EF600072656552544F535C7372635C7461736B6A
:10EF7000732E63004572726F723A25732C25640DEF
:10EF80000A000000300000201CB517480024CDE91D
:10EF900000402346802215A1164800F011FD0128EB
:10EFA00003D100F01DFF01280AD0401C1BD102B084
:10EFB00040F28472BDE810400FA115A0F3F712BF14
:10EFC000502080F31188BFF34F8FBFF36F8F064837
:10EFD0004FF0FF312C38816201214161C460BDE8EE
:10EFE0001C4000F0CFB81CBD5C00002049444C45DB
:10EFF00000000000898F00082E2E5C467265655265
:10F00000544F535C7372635C7461736B732E630053
:10F010004572726F723A25732C25640D0A00000048
:10F0200070B50446FFF77CFC244D04B92C68201D04
:10F03000FFF70EFC58B9E06A214A00EB800152F854
:10F04000211021B901218140286988432861A06AE3
:10F0500018B104F11800FFF7FBFB211D1948FFF759
:10F0600053FCFFF797FC686928B1FFF759FCFAF7E2
:10F070006FF9FFF78FFC2868844211D1686980B16D
:10F08000286B28B140F257620FA115A0F3F7AAFE32
:10F0900017494FF080500860BFF34F8FBFF36F8F59
:10F0A00070BD0848A9680068884202D10020286025
:10F0B00070BDBDE8704000F025B8000030000020B1
:10F0C000D4630020A46600202E2E5C467265655233
:10F0D000544F535C7372635C7461736B732E630083
:10F0E0004572726F723A25732C25640D0A00000078
:10F0F00004ED00E00248016B491C01637047000009
:10F100003000002070B5134D286B10B10120E8616C
:10F1100070BD0020E86128690F4EB0FA80F0C0F1A0
:10F120001F0000EB800456F8240028B940F6F622B0
:10F130000AA110A0F3F756FE06EB840000F10802C6
:10F14000416849684160914201D149684160C8689D
:10F15000286070BD30000020D46300202E2E5C4655
:10F1600072656552544F535C7372635C7461736B68
:10F17000732E63004572726F723A25732C25640DED
:10F180000A0000001CB5304C20683049884205D187
:10F1900040F259122EA138A0F3F724FE20682B4923
:10F1A000491E884205D14FF4AD7229A132A0F3F770
:10F1B00019FE354C20780190FF20207020788DF8C2
:10F1C00000009DF800009DF8001000F0F00088425B
:10F1D00005D040F273121EA127A0F3F703FE9DF89D
:10F1E00000002A4A00F0500010700720906007E0ED
:10F1F0009068401E90609DF8000040008DF800006F
:10F200009DF800000006F3D4107A000200F4E060DC
:10F210009060019820700C482030016841F4700122
:10F220000160016841F070410160FFF72FFC002090
:10F230005060F0F7EFFF1648016841F0404101606F
:10F24000F0F7D8FF00201CBD00ED00E071C20F41B7
:10F250002E2E5C4672656552544F535C706F72740B
:10F260005C525644535C41524D5F434D34465C7092
:10F270006F72742E630000004572726F723A2573CC
:10F280002C25640D0A00000000E400E09800002036
:10F2900034EF00E010B5502080F31188BFF34F8F9A
:10F2A000BFF36F8F00F0CCFB18B104494FF08050D2
:10F2B0000860002080F3118810BD000004ED00E01C
:10F2C00070B50C46050005D14FF430720AA110A0AC
:10F2D000F3F788FDAC4205D940F2C12206A10CA08B
:10F2E000F3F780FD02220021284600F02BF80028C9
:10F2F00000D0846370BD00002E2E5C46726565529E
:10F30000544F535C7372635C71756575652E630051
:10F310004572726F723A25732C25640D0A00000045
:10F3200010B502460021012000F00CF8041E07D0A1
:10F330000021416001600B460A46C16000F05CF9A3
:10F34000204610BD70B50E46050008D111A0F3F798
:10F3500049FD40F28B1211A116A0F3F743FDA6B1AF
:10F3600005FB06F04C30FAF7FFF804000CD004F16E
:10F370004C0066B12060C4E90F562046012100F020
:10F38000E5F800212046A16470BD0020EAE7246072
:10F39000F1E700006162630A000000002E2E5C4667
:10F3A00072656552544F535C7372635C7175657519
:10F3B000652E63004572726F723A25732C25640DB9
:10F3C0000A0000002DE9FF4F83B09B468A460400E7
:10F3D0004FF0000605D140F2DF4251A156A0F3F7ED
:10F3E00001FDBAF1000F07D1206C28B14FF49C62E7
:10F3F0004BA151A0F3F7F6FC00F00EFB38B90598CD
:10F4000028B140F2E34246A14BA0F3F7EBFC4FF0EA
:10F4100000094FF08057DFF83081FFF781FAA56BC4
:10F4200045B351462046E668F9F734FDBBF1000FBD
:10F4300013D0E660606A50B104F1240000F0D2FB02
:10F4400028B1C8F80070BFF34F8FBFF36F8FFFF77D
:10F45000A1FA012007B0BDE8F08F6D1EA5632068FA
:10F4600010B9FAF709F9606020690028EFD004F1BB
:10F470001000E3E7059808B11EB106E0FFF78AFA2D
:10F4800027E06846FFF75AFD0126FFF783FAFFF7EA
:10F4900031FEFFF745FA94F94400401C01D184F88D
:10F4A000449094F94500401C01D184F84590FFF741
:10F4B00071FA05A9684600F03DFA002820460AD0F6
:10F4C000FAF710F800F0DCFB2046F9F70FFE0028F1
:10F4D000A3D00020BEE7F9F709FED8B1206830B903
:10F4E000FFF71EFA6068FFF795FCFFF753FA04F187
:10F4F00024000599FFF732FC2046F9F7F3FF00F0EE
:10F50000BFFB002889D1C8F80070BFF34F8FBFF34D
:10F510006F8F82E72046F9F7E5FF00F0B1FB7CE74B
:10F520002E2E5C4672656552544F535C7372635C59
:10F5300071756575652E63004572726F723A257339
:10F540002C25640D0A00000004ED00E070B50D46A6
:10F55000040005D140F21B121CA122A0F3F742FCCB
:10F56000FFF7DEF9D4E90F20216802FB001161608A
:10F570000021A1632168A1600A46D4E90F01401E61
:10F5800000FB0121E16021464FF0FF3001F8440FFC
:10F59000487004F110004DB1FFF790F904F1240018
:10F5A000FFF78CF9FFF7F6F9012070BD21690029FA
:10F5B000F8D000F017FB0028F4D00E494FF080502F
:10F5C0000860BFF34F8FBFF36F8FEBE72E2E5C46C3
:10F5D00072656552544F535C7372635C71756575E7
:10F5E000652E63004572726F723A25732C25640D87
:10F5F0000A00000004ED00E02DE9FF4F83B09946BA
:10F600008B4604004FF0000605D14FF4377252A12B
:10F6100057A0F3F7E7FBBBF1000F07D1206C28B12F
:10F6200040F2DD224CA152A0F3F7DCFBB9F1020F4E
:10F6300008D1E06B012805D040F2DE2246A14CA0A3
:10F64000F3F7D0FB00F0E8F938B9059828B140F29B
:10F65000E12241A146A0F3F7C5FB4FF0000A4FF0AD
:10F660008057DFF81C81FFF75BF9A06BE16B8842E4
:10F6700006D3B9F1020F03D0059800B316B325E005
:10F680004A4659462046F9F718FCA16C21B1494673
:10F690002046F9F739FD05E0616A19B104F124004B
:10F6A00000F0A0FA28B1C8F80070BFF34F8FBFF385
:10F6B0006F8FFFF76FF9012007B0BDE8F08FFFF7FC
:10F6C00069F921E06846FFF739FC0126FFF762F986
:10F6D000FFF710FDFFF724F994F94400401C01D115
:10F6E00084F844A094F94500401C01D184F845A059
:10F6F000FFF750F905A9684600F01CF930B1204623
:10F70000F9F7F0FE00F0BCFA0020D5E7FFF708F9A2
:10F71000A06BE16B884201D1012500E00025FFF7D5
:10F7200039F995B104F110000599FFF717FB204650
:10F73000F9F7D8FE00F0A4FA002894D1C8F80070B8
:10F74000BFF34F8FBFF36F8F8DE72046F9F7CAFEE7
:10F7500000F096FA87E700002E2E5C46726565522F
:10F76000544F535C7372635C71756575652E6300ED
:10F770004572726F723A25732C25640D0A000000E1
:10F7800004ED00E02DE9F04798461546894604004F
:10F7900005D140F2A2322AA12FA0F3F723FBB9F141
:10F7A000000F07D1206C28B140F2A33224A12AA077
:10F7B000F3F718FBB8F1020F08D1E06B012805D070
:10F7C0004FF469721EA124A0F3F70CFBFFF76EF94A
:10F7D0005020EFF3118780F31188BFF34F8FBFF3F1
:10F7E0006F8FA06BE16B884207D3B8F1020F04D092
:10F7F000002087F31188BDE8F08794F94560424600
:10F8000049462046F9F759FB701C04D0761C84F851
:10F8100045600120EDE7A06C012620B1414620465D
:10F82000F9F772FC06E0606A0028F2D004F12400C7
:10F8300000F0D8F90028ECD0002DEAD02E60E8E7DF
:10F840002E2E5C4672656552544F535C7372635C36
:10F8500071756575652E63004572726F723A257316
:10F860002C25640D0A0000002DE9F0410D4604002E
:10F8700005D140F23F4225A12AA0F3F7B3FA206C4C
:10F8800028B140F2434221A126A0F3F7ABFA206849
:10F8900038B9606828B14FF489621CA121A0F3F740
:10F8A000A1FAFFF703F95020EFF3118680F31188D6
:10F8B000BFF34F8FBFF36F8FA16BE06B88421FD9EF
:10F8C00094F94500491CA163411C04D0401C84F8F4
:10F8D0004500012015E0A06C012720B10021204641
:10F8E000F9F712FC06E0606A0028F2D004F1240067
:10F8F00000F078F90028ECD0002DEAD02F60E8E77E
:10F90000002086F31188BDE8F08100002E2E5C46B1
:10F9100072656552544F535C7372635C71756575A3
:10F92000652E63004572726F723A25732C25640D43
:10F930000A00000070B50D46040005D140F6CB3238
:10F9400014A11AA0F3F74EFA2DB940F6CC3211A14A
:10F9500016A0F3F747FAFEF7E3FF184AD0682968C4
:10F960004B1C0FD02368126A934202D06268824215
:10F970000AD96268801A884206D2081A286020468E
:10F98000FFF7DCFA002400E00124FFF703F820462B
:10F9900070BD00002E2E5C4672656552544F535C5C
:10F9A0007372635C7461736B732E63004572726F64
:10F9B000723A25732C25640D0A00000030000020E7
:10F9C0002DE9FF5F8346DDE90E87994616468A4694
:10F9D0009000F9F7C9FD05001AD05420F9F7C4FDCD
:10F9E000040012D025630021CDE90241CDE9008752
:10F9F0004B46324651465846F9F7DAFA2046F9F7AF
:10FA00008FF9012004B0BDE8F09F2846FEF7F2FF11
:10FA10004FF0FF30F6E700000548416919B1006B6F
:10FA200018B1002070470120704702207047000085
:10FA3000300000200148C0687047000030000020FE
:10FA40002DE9F0412D4F0026386B40B1B869401CBC
:10FA5000B861F86900B101263046BDE8F081FD6863
:10FA60006D1CFD6011D1786B006828B140F6D91289
:10FA700023A129A0F3F7B6F9786BB96B7963B86362
:10FA8000386A401C3862F9F763FCB86ADFF898807E
:10FA9000854209D3786B006880B1786BC068C46810
:10FAA000606885420DD2B8623868C06A00EB800198
:10FAB00058F821000128CCD90126CAE74FF0FF30C1
:10FAC000F1E7201DFEF7C4FEA06A18B104F118008A
:10FAD000FEF7BEFEE06A01213A69814011433961B7
:10FAE00000EB800108EB8100211DFEF70DFFE06AAD
:10FAF0003968C96A8842CDD30126CBE7300000209F
:10FB00002E2E5C4672656552544F535C7372635C73
:10FB10007461736B732E63004572726F723A257352
:10FB20002C25640D0A000000D463002070B5040089
:10FB30004FF000063CD01F4D2868844205D040F6A7
:10FB4000C7621DA122A0F3F74DF9A06C28B940F6B9
:10FB5000C96219A11EA0F3F745F9A06C401EA0646C
:10FB6000626CE16A914223D010BB201DFEF770FE4B
:10FB70001B49012250B9E06A00EB800351F82330A1
:10FB800023B92B6902FA00F083432B61606CE062B9
:10FB9000C0F12000A061E06A2B6982401A432A610B
:10FBA00000EB800001EB8000211DFEF7ADFE012679
:10FBB000304670BD300000202E2E5C4672656552C6
:10FBC000544F535C7372635C7461736B732E630088
:10FBD0004572726F723A25732C25640D0A0000007D
:10FBE000D46300202DE9F041C068C4682CB940F608
:10FBF000613216A11BA0F3F7F5F804F118000746CF
:10FC0000FEF726FE1B4D286B012660B139461A48C7
:10FC1000FEF77AFEE06A2968C96A884213D9012092
:10FC2000EE61BDE8F081201DFEF712FEE06A2A6950
:10FC300006FA00F111432961104900EB800001EB45
:10FC40008000211DE4E70020EBE700002E2E5C463B
:10FC500072656552544F535C7372635C7461736B6D
:10FC6000732E63004572726F723A25732C25640DF2
:10FC70000A000000300000207C660020D4630020D1
:10FC80002DE9F0472B4D00242746286B28B94FF467
:10FC9000FD6229A12EA0F3F7A5F8FEF741FE286B1F
:10FCA000401E2863286BE8BBA8682D490126C8B30D
:10FCB000A1F52A798846D8F80010E9B1D8F80C00E7
:10FCC000C46804F11800FEF7C3FD201DFEF7C0FD57
:10FCD000E06A2A6906FA00F11143296100EB80010C
:10FCE00009EB8100211DFEF70FFEE06A2968C96A51
:10FCF0008842E0D3EE61DEE70CB1F9F729FBAC698D
:10FD00003CB1FFF79DFE00B1EE61641EF9D1002009
:10FD1000A861E86930B11349012738070860BFF3CB
:10FD20004F8F00E001E0BFF36F8FFEF733FE3846E0
:10FD3000BDE8F087300000202E2E5C4672656552CB
:10FD4000544F535C7372635C7461736B732E630006
:10FD50004572726F723A25732C25640D0A000000FB
:10FD60007C66002004ED00E02DE9F0470746994647
:10FD700016460D462820DDF820A0F9F7F5FB040013
:10FD800014D0B8464F46D1462DB94FF4C67209A1DA
:10FD90000FA0F3F727F8F9F72BF804F11801C4F8CE
:10FDA000008081E8E002201DFEF793FD2046BDE8BB
:10FDB000F08700002E2E5C4672656552544F535CEE
:10FDC0007372635C74696D6572732E63000000006A
:10FDD0004572726F723A25732C25640D0A0000007B
:10FDE0001CB50024F9F704F80C48006868B10B4909
:10FDF0001F20091DCDE9000100234FF4807208A1E6
:10FE00000948FFF7DDFD040005D140F2331207A1D8
:10FE10000DA0F2F7E7FF20461CBD00006C0000209B
:10FE2000546D722053766300BD9400082E2E5C46FC
:10FE300072656552544F535C7372635C74696D658F
:10FE400072732E63000000004572726F723A257360
:10FE50002C25640D0A0000002DE9FE4FDDF830A0CE
:10FE6000994690460D4606004FF0000705D14FF425
:10FE7000D37211A117A0F2F7B5FF1A4C206880B118
:10FE8000CDE900580296062D10DAFFF7C5FD0228CD
:10FE90004FF0000308D0002269462068FFF7ACFB52
:10FEA00007463846BDE8FE8F5246F5E700234A462E
:10FEB0006946FFF767FCF3E72E2E5C4672656552D4
:10FEC000544F535C7372635C74696D6572732E6317
:10FED000000000004572726F723A25732C25640D84
:10FEE0000A0000006C00002000000000000000007C
:10FEF00001020304060708090000000001020304D0
:10FF000001020304050607000000000020000400B1
:10FF10000B330120C4000020980006008E3301201E
:10FF2000C80000201C00060021370120CC00002062
:10FF300010009600CC370120D000002020000500E2
:10FF40002F410120D400002018000F00D2410120D1
:10FF5000D8000020100002003D430120DC000020FA
:10FF60002800040060430120E00000201000080089
:10FF700003440120E4000020100008008644012012
:10FF8000E80000201000060009450120EC000020D8
:10FF9000100019006C450120F0000020FC052D0028
:10FFA000FF460120F40000200CFF000818FF0008A5
:10FFB00024FF000830FF00083CFF000848FF00084D
:10FFC00054FF000860FF00086CFF000878FF00087D
:10FFD00084FF000890FF00089CFF000803060C182F
:10FFE000306078006C01010894010108B401010837
:10FFF0007401010860010108480101085401010869
:020000040801F1
:10000000A801010880010108880101089C0101087C
:10001000010203040506070707070707070000009A
:1000200018010020140100201C01002020010020E4
:10003000FA000000B5D20008E8030000416600089D
:10004000E8030000FD52000860EA000041380008A3
:10005000F40100002D3C000800000000FFFFFFFF3E
:10006000FFFFFFFFFFFF000000000000F408010891
:1000700048090108D0090108740301089C0301081C
:10008000080A0108300A01085C090108D4080108BF
:10009000340901089C090108C40301084C05010842
:1000A00058060108E80501089C08010840080108F5
:1000B000DC0601082406010878050108B0050108DE
:1000C00074080108180801089C060108280701089F
:1000D000B8020108B807010870070108F804010810
:1000E0000403010804040108C404010838040108D9
:1000F0006404010894040108800A0108580A0108F0
:10010000636D5F6261636B74726163655F6173737A
:1001100065727400636D5F6261636B7472616365C5
:100120005F6661756C740000A0020108A4020108FA
:10013000A8020108AC02010870030108B40201081A
:10014000B00201083404010846494E5F5741495442
:100150005F31000046494E5F574149545F3200000D
:1001600045535441424C495348454400434C4F5336
:100170004544000053594E5F52435644000000006E
:10018000434C4F53494E47004C4153545F41434BFE
:10019000000000004C495354454E000054494D4561
:1001A0005F57414954000000434C4F53455F57414E
:1001B0004954000053594E5F53454E54000000000F
:1001C0007463705F656E71756575655F666C616798
:1001D000733A206E656564206569746865722054A1
:1001E00043505F53594E206F72205443505F46492D
:1001F0004E20696E20666C616773202870726F678D
:1002000072616D6D65722076696F6C6174657320C3
:100210004150492900000000646863705F6F70748A
:10022000696F6E3A206F7074696F6E735F6F75746B
:100230005F6C656E202B2032202B206F7074696FED
:100240006E5F6C656E203C3D20444843505F4F50CC
:1002500054494F4E535F4C454E0000006E65746923
:10026000662D3E6877616464725F6C656E206D75A3
:100270007374206265207468652073616D65206108
:1002800073204554485F4857414444525F4C454EA3
:1002900020666F7220657468617270210000000032
:1002A00052302000523120005232200052332000C0
:1002B000504320004C5220005573616765206661F1
:1002C000756C74206973206361757365642062794D
:1002D00020617474656D70747320746F2073776916
:1002E00074636820746F20616E20696E76616C693A
:1002F000642073746174652028652E672E2C20415C
:10030000524D29005573616765206661756C7420D4
:1003100069732063617573656420627920496E6436
:10032000696361746573206120646976696465201E
:100330006279207A65726F206861732074616B65E1
:100340006E20706C616365202863616E2062652099
:10035000736574206F6E6C79206966204449565F1E
:10036000305F545250206973207365742900000077
:10037000523132003D3D3D3D3D205468726561641F
:1003800020737461636B20696E666F726D6174694E
:100390006F6E203D3D3D3D3D000000003D3D3D3D3B
:1003A0003D3D204D61696E20737461636B20696E01
:1003B000666F726D6174696F6E203D3D3D3D3D3DE0
:1003C000000000003D3D3D3D3D3D3D3D3D3D3D3D51
:1003D0003D3D3D3D3D3D3D2052656769737465720D
:1003E0007320696E666F726D6174696F6E203D3D3A
:1003F0003D3D3D3D3D3D3D3D3D3D3D3D3D3D3D3D2D
:100400003D3D00004465627567206661756C74202F
:100410006973206361757365642062792068616C1B
:10042000742072657175657374656420696E204E01
:100430005649430050535200446562756720666117
:10044000756C7420697320636175736564206279CB
:1004500020445754206D61746368206F6363757224
:10046000726564004465627567206661756C74200E
:1004700069732063617573656420627920566563D2
:10048000746F72206665746368206F63637572723F
:10049000656400004465627567206661756C742050
:1004A00069732063617573656420627920454442F5
:1004B000475251207369676E616C20617373657276
:1004C000746564004465627567206661756C7420AC
:1004D00069732063617573656420627920424B50B3
:1004E0005420696E737472756374696F6E206578D9
:1004F00065637574656400005573616765206661A6
:10050000756C74206973206361757365642062790A
:1005100020696E6469636174657320746861742016
:10052000616E20756E616C69676E656420616363DE
:10053000657373206661756C7420686173207461E3
:100540006B656E20706C61636500000048617264C9
:10055000206661756C7420697320636175736564CE
:10056000206279206661696C656420766563746FCA
:100570007220666574636800427573206661756CED
:1005800074206973206361757365642062792070DB
:10059000726563697365206461746120616363657A
:1005A00073732076696F6C6174696F6E0000000070
:1005B000427573206661756C742069732063617580
:1005C00073656420627920696D7072656369736513
:1005D0002064617461206163636573732076696F61
:1005E0006C6174696F6E00004D656D6F7279206D7E
:1005F000616E6167656D656E74206661756C7420EF
:100600006973206361757365642062792064617425
:1006100061206163636573732076696F6C617469CF
:100620006F6E0000427573206661756C742069738B
:100630002063617573656420627920696E737472DA
:10064000756374696F6E2061636365737320766987
:100650006F6C6174696F6E004D656D6F7279206D9E
:10066000616E6167656D656E74206661756C74207E
:1006700069732063617573656420627920696E73A4
:100680007472756374696F6E206163636573732040
:1006900076696F6C6174696F6E000000427573203B
:1006A0006661756C7420697320636175736564207D
:1006B000627920666C6F6174696E672D706F696E08
:1006C00074206C617A79207374617465207072652E
:1006D000736572766174696F6E0000004D656D6FB1
:1006E0007279206D616E6167656D656E74206661FB
:1006F000756C742069732063617573656420627919
:1007000020666C6F6174696E672D706F696E7420FE
:100710006C617A7920737461746520707265736599
:1007200072766174696F6E005573616765206661EA
:10073000756C7420697320636175736564206279D8
:1007400020617474656D70747320746F20657865B2
:100750006375746520616E20756E646566696E658B
:100760006420696E737472756374696F6E00000043
:100770005573616765206661756C742069732063C9
:10078000617573656420627920617474656D70743D
:100790007320746F206578656375746520612063CC
:1007A0006F70726F636573736F7220696E737472AA
:1007B000756374696F6E00005573616765206661CB
:1007C000756C742069732063617573656420627948
:1007D00020617474656D70747320746F20646F2071
:1007E000616E20657863657074696F6E20776974D7
:1007F000682061206261642076616C756520696E95
:1008000020746865204558435F52455455524E2028
:100810006E756D6265720000427573206661756C5D
:100820007420697320636175736564206279207335
:100830007461636B696E67206572726F720000008D
:100840004D656D6F7279206D616E6167656D656E66
:1008500074206661756C74206973206361757365BB
:100860006420627920737461636B696E67206572BE
:10087000726F7200427573206661756C74206973C3
:100880002063617573656420627920756E7374618D
:10089000636B696E67206572726F72004D656D6F74
:1008A0007279206D616E6167656D656E7420666139
:1008B000756C742069732063617573656420627957
:1008C00020756E737461636B696E67206572726FF9
:1008D0007200000044756D702063616C6C2073744D
:1008E00061636B2068617320616E206572726F7244
:1008F000000000004669726D77617265206E616D5F
:10090000653A2025732C20686172647761726520D6
:1009100076657273696F6E3A2025732C20736F664B
:1009200074776172652076657273696F6E3A2025FF
:10093000730000004661756C74206F6E20746872DD
:100940006561642025730000417373657274206FC4
:100950006E207468726561642025730053686F7738
:10096000206D6F72652063616C6C20737461636BC2
:1009700020696E666F2062792072756E3A2061641C
:100980006472326C696E65202D6520257325732095
:100990002D61202D6620252E2A7300004661756C7E
:1009A00074206F6E20696E74657272757074206F3A
:1009B000722062617265206D6574616C286E6F20B3
:1009C0004F532920656E7669726F6E6D656E740087
:1009D000417373657274206F6E20696E74657272F4
:1009E000757074206F722062617265206D6574612C
:1009F0006C286E6F204F532920656E7669726F6E7A
:100A00006D656E74000000004572726F723A20547A
:100A1000687265616420737461636B28253038786F
:100A20002920776173206F766572666C6F7700009E
:100A30004572726F723A204D61696E207374616302
:100A40006B28253038782920776173206F7665729E
:100A5000666C6F7700000000546865206275732033
:100A60006661756C74206F63637572726564206172
:100A700064647265737320697320253038780000D0
:100A8000546865206D656D6F7279206D616E616768
:100A9000656D656E74206661756C74206F63637537
:100AA0007272656420616464726573732069732077
:100AB0002530387800000000D80A01080000002026
:100AC000BC01000018040008F80A0108BC0100205D
:100AD0003C5902003C2E0008460024F40001029418
:100AE00010056AAAAAAAAA32C003486E1982C034A5
:080AF00001031C0359CDAB000A
:04000005080001AD41
:00000001FF
