Component: ARM Compiler 5.06 update 7 (build 960) Tool: armlink [4d3601]

==============================================================================

Section Cross References

    startup_stm32f429xx.o(RESET) refers to startup_stm32f429xx.o(STACK) for __initial_sp
    startup_stm32f429xx.o(RESET) refers to startup_stm32f429xx.o(.text) for Reset_Handler
    startup_stm32f429xx.o(RESET) refers to stm32f4xx_it.o(i.NMI_Handler) for NMI_Handler
    startup_stm32f429xx.o(RESET) refers to cmb_fault.o(.text) for HardFault_Handler
    startup_stm32f429xx.o(RESET) refers to stm32f4xx_it.o(i.MemManage_Handler) for MemManage_Handler
    startup_stm32f429xx.o(RESET) refers to stm32f4xx_it.o(i.BusFault_Handler) for BusFault_Handler
    startup_stm32f429xx.o(RESET) refers to stm32f4xx_it.o(i.UsageFault_Handler) for UsageFault_Handler
    startup_stm32f429xx.o(RESET) refers to port.o(.emb_text) for SVC_Handler
    startup_stm32f429xx.o(RESET) refers to stm32f4xx_it.o(i.DebugMon_Handler) for DebugMon_Handler
    startup_stm32f429xx.o(RESET) refers to stm32f4xx_it.o(i.SysTick_Handler) for SysTick_Handler
    startup_stm32f429xx.o(RESET) refers to usart.o(i.DMA1_Stream1_IRQHandler) for DMA1_Stream1_IRQHandler
    startup_stm32f429xx.o(RESET) refers to usart.o(i.DMA1_Stream5_IRQHandler) for DMA1_Stream5_IRQHandler
    startup_stm32f429xx.o(RESET) refers to usart.o(i.DMA1_Stream6_IRQHandler) for DMA1_Stream6_IRQHandler
    startup_stm32f429xx.o(RESET) refers to usart.o(i.USART1_IRQHandler) for USART1_IRQHandler
    startup_stm32f429xx.o(RESET) refers to usart.o(i.USART2_IRQHandler) for USART2_IRQHandler
    startup_stm32f429xx.o(RESET) refers to usart.o(i.USART3_IRQHandler) for USART3_IRQHandler
    startup_stm32f429xx.o(RESET) refers to usart.o(i.DMA2_Stream1_IRQHandler) for DMA2_Stream1_IRQHandler
    startup_stm32f429xx.o(RESET) refers to usart.o(i.DMA2_Stream2_IRQHandler) for DMA2_Stream2_IRQHandler
==============================================================================

Removing Unused input sections from the image.

    Removing startup_stm32f429xx.o(HEAP), (512 bytes).
    Removing system_stm32f4xx.o(.rev16_text), (4 bytes).
    Removing system_stm32f4xx.o(.revsh_text), (4 bytes).
    Removing system_stm32f4xx.o(.rrx_text), (6 bytes).
    Removing system_stm32f4xx.o(i.SystemCoreClockUpdate), (124 bytes).
    Removing stm32f4xx_hal_eth.o(.rev16_text), (4 bytes).
    Removing stm32f4xx_hal_eth.o(.revsh_text), (4 bytes).
    Removing stm32f4xx_hal_eth.o(.rrx_text), (6 bytes).
    Removing stm32f4xx_hal_eth.o(i.ETH_Delay), (32 bytes).
    Removing stm32f4xx_hal_eth.o(i.ETH_FlushTransmitFIFO), (46 bytes).
    Removing stm32f4xx_hal_eth.o(i.ETH_MACDMAConfig), (300 bytes).
    Removing stm32f4xx_hal_eth.o(i.HAL_ETH_ConfigDMA), (764 bytes).
    Removing stm32f4xx_hal_eth.o(i.HAL_ETH_ConfigMAC), (996 bytes).
    Removing stm32f4xx_hal_eth.o(i.HAL_ETH_DMARxDescListInit), (114 bytes).
    Removing stm32f4xx_hal_eth.o(i.HAL_ETH_DMATxDescListInit), (120 bytes).
    Removing stm32f4xx_hal_eth.o(i.HAL_ETH_DeInit), (16 bytes).
    Removing stm32f4xx_hal_eth.o(i.HAL_ETH_ErrorCallback), (2 bytes).
    Removing stm32f4xx_hal_eth.o(i.HAL_ETH_GetReceivedFrame), (122 bytes).
==============================================================================

Image Symbol Table

    Local Symbols

    Symbol Name                              Value     Ov Type        Size  Object(Section)

    ../clib/microlib/division.c              0x00000000   Number         0  uidiv.o ABSOLUTE
    ../clib/microlib/division.c              0x00000000   Number         0  uldiv.o ABSOLUTE
    ../clib/microlib/init/entry.s            0x00000000   Number         0  entry8a.o ABSOLUTE
    ../clib/microlib/init/entry.s            0x00000000   Number         0  entry5.o ABSOLUTE
    ../clib/microlib/init/entry.s            0x00000000   Number         0  entry12a.o ABSOLUTE
    ../clib/microlib/init/entry.s            0x00000000   Number         0  entry12b.o ABSOLUTE
    ../clib/microlib/init/entry.s            0x00000000   Number         0  entry7b.o ABSOLUTE
    ../clib/microlib/init/entry.s            0x00000000   Number         0  entry7a.o ABSOLUTE
    ../clib/microlib/init/entry.s            0x00000000   Number         0  entry.o ABSOLUTE
    ../clib/microlib/init/entry.s            0x00000000   Number         0  entry2.o ABSOLUTE
    ../clib/microlib/init/entry.s            0x00000000   Number         0  entry9a.o ABSOLUTE
    ../clib/microlib/init/entry.s            0x00000000   Number         0  entry11b.o ABSOLUTE
    ../clib/microlib/init/entry.s            0x00000000   Number         0  entry11a.o ABSOLUTE
    ../clib/microlib/init/entry.s            0x00000000   Number         0  entry10b.o ABSOLUTE
    ../clib/microlib/init/entry.s            0x00000000   Number         0  entry10a.o ABSOLUTE
    ../clib/microlib/init/entry.s            0x00000000   Number         0  entry9b.o ABSOLUTE
    ../clib/microlib/init/entry.s            0x00000000   Number         0  entry8b.o ABSOLUTE
    ../clib/microlib/longlong.c              0x00000000   Number         0  llushr.o ABSOLUTE
    ../clib/microlib/longlong.c              0x00000000   Number         0  llshl.o ABSOLUTE
    ../clib/microlib/longlong.c              0x00000000   Number         0  llsshr.o ABSOLUTE
    ../clib/microlib/printf/printf.c         0x00000000   Number         0  printf7.o ABSOLUTE
    ../clib/microlib/printf/printf.c         0x00000000   Number         0  printf2.o ABSOLUTE
    ../clib/microlib/printf/printf.c         0x00000000   Number         0  printf1.o ABSOLUTE
    ../clib/microlib/printf/printf.c         0x00000000   Number         0  printf3.o ABSOLUTE
    ../clib/microlib/printf/printf.c         0x00000000   Number         0  printf4.o ABSOLUTE
    ../clib/microlib/printf/printf.c         0x00000000   Number         0  printf0.o ABSOLUTE
    ../clib/microlib/printf/printf.c         0x00000000   Number         0  printfa.o ABSOLUTE
    ../clib/microlib/printf/printf.c         0x00000000   Number         0  printfb.o ABSOLUTE
    ../clib/microlib/printf/printf.c         0x00000000   Number         0  printf8.o ABSOLUTE
    ../clib/microlib/printf/printf.c         0x00000000   Number         0  printf6.o ABSOLUTE
    ../clib/microlib/printf/printf.c         0x00000000   Number         0  printf5.o ABSOLUTE
    ../clib/microlib/printf/stubs.s          0x00000000   Number         0  stubs.o ABSOLUTE
    ../clib/microlib/stdio/streams.c         0x00000000   Number         0  stdout.o ABSOLUTE
    ../clib/microlib/string/memcpy.c         0x00000000   Number         0  memcpyb.o ABSOLUTE
    ../clib/microlib/string/memcpy.c         0x00000000   Number         0  memcpya.o ABSOLUTE
    ../clib/microlib/string/memset.c         0x00000000   Number         0  memseta.o ABSOLUTE
    ../clib/microlib/string/strncpy.c        0x00000000   Number         0  strncpy.o ABSOLUTE
    ../clib/microlib/stubs.s                 0x00000000   Number         0  iusefp.o ABSOLUTE
    ../fplib/microlib/fpadd.c                0x00000000   Number         0  dadd.o ABSOLUTE
    ../fplib/microlib/fpdiv.c                0x00000000   Number         0  ddiv.o ABSOLUTE
    ../fplib/microlib/fpepilogue.c           0x00000000   Number         0  depilogue.o ABSOLUTE
    ../fplib/microlib/fpfix.c                0x00000000   Number         0  dfixul.o ABSOLUTE
    ../fplib/microlib/fpmul.c                0x00000000   Number         0  dmul.o ABSOLUTE
    ..\FreeRTOS\port\MemMang\heap_4.c        0x00000000   Number         0  heap_4.o ABSOLUTE
    ..\FreeRTOS\port\RVDS\ARM_CM4F\port.c    0x00000000   Number         0  port.o ABSOLUTE
    ..\FreeRTOS\src\croutine.c               0x00000000   Number         0  croutine.o ABSOLUTE
    ..\FreeRTOS\src\event_groups.c           0x00000000   Number         0  event_groups.o ABSOLUTE
    ..\FreeRTOS\src\list.c                   0x00000000   Number         0  list.o ABSOLUTE
    ..\FreeRTOS\src\queue.c                  0x00000000   Number         0  queue.o ABSOLUTE
    ..\FreeRTOS\src\tasks.c                  0x00000000   Number         0  tasks.o ABSOLUTE
    ..\FreeRTOS\src\timers.c                 0x00000000   Number         0  timers.o ABSOLUTE
    ..\Libraries\CMSIS\Device\ST\STM32F4xx\Source\Templates\arm\startup_stm32f429xx.s 0x00000000   Number         0  startup_stm32f429xx.o ABSOLUTE
    ..\Libraries\CMSIS\Device\ST\STM32F4xx\Source\Templates\system_stm32f4xx.c 0x00000000   Number         0  system_stm32f4xx.o ABSOLUTE
    ..\Libraries\STM32F4xx_HAL_Driver\Src\stm32f4xx_hal.c 0x00000000   Number         0  stm32f4xx_hal.o ABSOLUTE
    ..\Libraries\STM32F4xx_HAL_Driver\Src\stm32f4xx_hal_cortex.c 0x00000000   Number         0  stm32f4xx_hal_cortex.o ABSOLUTE
    ..\Libraries\STM32F4xx_HAL_Driver\Src\stm32f4xx_hal_dma.c 0x00000000   Number         0  stm32f4xx_hal_dma.o ABSOLUTE
    ..\Libraries\STM32F4xx_HAL_Driver\Src\stm32f4xx_hal_eth.c 0x00000000   Number         0  stm32f4xx_hal_eth.o ABSOLUTE
    ..\Libraries\STM32F4xx_HAL_Driver\Src\stm32f4xx_hal_flash.c 0x00000000   Number         0  stm32f4xx_hal_flash.o ABSOLUTE
    ..\Libraries\STM32F4xx_HAL_Driver\Src\stm32f4xx_hal_flash_ex.c 0x00000000   Number         0  stm32f4xx_hal_flash_ex.o ABSOLUTE
    ..\Libraries\STM32F4xx_HAL_Driver\Src\stm32f4xx_hal_flash_ramfunc.c 0x00000000   Number         0  stm32f4xx_hal_flash_ramfunc.o ABSOLUTE
    ..\Libraries\STM32F4xx_HAL_Driver\Src\stm32f4xx_hal_gpio.c 0x00000000   Number         0  stm32f4xx_hal_gpio.o ABSOLUTE
    ..\Libraries\STM32F4xx_HAL_Driver\Src\stm32f4xx_hal_i2c.c 0x00000000   Number         0  stm32f4xx_hal_i2c.o ABSOLUTE
    ..\Libraries\STM32F4xx_HAL_Driver\Src\stm32f4xx_hal_pwr.c 0x00000000   Number         0  stm32f4xx_hal_pwr.o ABSOLUTE
    ..\Libraries\STM32F4xx_HAL_Driver\Src\stm32f4xx_hal_pwr_ex.c 0x00000000   Number         0  stm32f4xx_hal_pwr_ex.o ABSOLUTE
    ..\Libraries\STM32F4xx_HAL_Driver\Src\stm32f4xx_hal_rcc.c 0x00000000   Number         0  stm32f4xx_hal_rcc.o ABSOLUTE
    ..\Libraries\STM32F4xx_HAL_Driver\Src\stm32f4xx_hal_rcc_ex.c 0x00000000   Number         0  stm32f4xx_hal_rcc_ex.o ABSOLUTE
    ..\Libraries\STM32F4xx_HAL_Driver\Src\stm32f4xx_hal_rng.c 0x00000000   Number         0  stm32f4xx_hal_rng.o ABSOLUTE
    ..\Libraries\STM32F4xx_HAL_Driver\Src\stm32f4xx_hal_sdram.c 0x00000000   Number         0  stm32f4xx_hal_sdram.o ABSOLUTE
    ..\Libraries\STM32F4xx_HAL_Driver\Src\stm32f4xx_hal_spi.c 0x00000000   Number         0  stm32f4xx_hal_spi.o ABSOLUTE
    ..\Libraries\STM32F4xx_HAL_Driver\Src\stm32f4xx_hal_tim.c 0x00000000   Number         0  stm32f4xx_hal_tim.o ABSOLUTE
    ..\Libraries\STM32F4xx_HAL_Driver\Src\stm32f4xx_hal_tim_ex.c 0x00000000   Number         0  stm32f4xx_hal_tim_ex.o ABSOLUTE
    ..\Libraries\STM32F4xx_HAL_Driver\Src\stm32f4xx_hal_uart.c 0x00000000   Number         0  stm32f4xx_hal_uart.o ABSOLUTE
    ..\Libraries\STM32F4xx_HAL_Driver\Src\stm32f4xx_hal_usart.c 0x00000000   Number         0  stm32f4xx_hal_usart.o ABSOLUTE
    ..\Libraries\STM32F4xx_HAL_Driver\Src\stm32f4xx_ll_fmc.c 0x00000000   Number         0  stm32f4xx_ll_fmc.o ABSOLUTE
    ..\Libraries\STM32F4xx_HAL_Driver\Src\stm32f4xx_ll_fsmc.c 0x00000000   Number         0  stm32f4xx_ll_fsmc.o ABSOLUTE
    ..\Libraries\STM32F4xx_HAL_Driver\Src\stm32f4xx_ll_sdmmc.c 0x00000000   Number         0  stm32f4xx_ll_sdmmc.o ABSOLUTE
    ..\User\APL\src\app.c                    0x00000000   Number         0  app.o ABSOLUTE
    ..\User\APL\src\device_update.c          0x00000000   Number         0  device_update.o ABSOLUTE
    ..\User\BSP\src\dma.c                    0x00000000   Number         0  dma.o ABSOLUTE
    ..\User\BSP\src\gpio.c                   0x00000000   Number         0  gpio.o ABSOLUTE
    ..\User\BSP\src\usart.c                  0x00000000   Number         0  usart.o ABSOLUTE
    ..\User\FML\src\tcp_queue.c              0x00000000   Number         0  tcp_queue.o ABSOLUTE
    ..\User\HAL\src\ble_usart.c              0x00000000   Number         0  ble_usart.o ABSOLUTE
    ..\User\HAL\src\device_id.c              0x00000000   Number         0  device_id.o ABSOLUTE
    ..\User\HAL\src\hal_flash.c              0x00000000   Number         0  hal_flash.o ABSOLUTE
    ..\User\HAL\src\reboot.c                 0x00000000   Number         0  reboot.o ABSOLUTE
    ..\User\UTIL\src\crc.c                   0x00000000   Number         0  crc.o ABSOLUTE
    ..\User\UTIL\src\util.c                  0x00000000   Number         0  util.o ABSOLUTE
    ..\User\board.c                          0x00000000   Number         0  board.o ABSOLUTE
    ..\User\cm_backtrace\cm_backtrace.c      0x00000000   Number         0  cm_backtrace.o ABSOLUTE
    ..\User\cm_backtrace\fault_handler\keil\cmb_fault.S 0x00000000   Number         0  cmb_fault.o ABSOLUTE
    ..\User\led\bsp_led.c                    0x00000000   Number         0  bsp_led.o ABSOLUTE
    ..\User\main.c                           0x00000000   Number         0  main.o ABSOLUTE
    ..\User\stm32f4xx_it.c                   0x00000000   Number         0  stm32f4xx_it.o ABSOLUTE
    ..\\FreeRTOS\\port\\MemMang\\heap_4.c    0x00000000   Number         0  heap_4.o ABSOLUTE
    ..\\FreeRTOS\\port\\RVDS\\ARM_CM4F\\port.c 0x00000000   Number         0  port.o ABSOLUTE
    ..\\FreeRTOS\\src\\croutine.c            0x00000000   Number         0  croutine.o ABSOLUTE
    ..\\FreeRTOS\\src\\event_groups.c        0x00000000   Number         0  event_groups.o ABSOLUTE
    ..\\FreeRTOS\\src\\list.c                0x00000000   Number         0  list.o ABSOLUTE
    ..\\FreeRTOS\\src\\queue.c               0x00000000   Number         0  queue.o ABSOLUTE
    ..\\FreeRTOS\\src\\tasks.c               0x00000000   Number         0  tasks.o ABSOLUTE
    ..\\FreeRTOS\\src\\timers.c              0x00000000   Number         0  timers.o ABSOLUTE
    ..\\Libraries\\CMSIS\\Device\\ST\\STM32F4xx\\Source\\Templates\\system_stm32f4xx.c 0x00000000   Number         0  system_stm32f4xx.o ABSOLUTE
    ..\\Libraries\\STM32F4xx_HAL_Driver\\Src\\stm32f4xx_hal.c 0x00000000   Number         0  stm32f4xx_hal.o ABSOLUTE
    ..\\Libraries\\STM32F4xx_HAL_Driver\\Src\\stm32f4xx_hal_cortex.c 0x00000000   Number         0  stm32f4xx_hal_cortex.o ABSOLUTE
    ..\\Libraries\\STM32F4xx_HAL_Driver\\Src\\stm32f4xx_hal_dma.c 0x00000000   Number         0  stm32f4xx_hal_dma.o ABSOLUTE
    ..\\Libraries\\STM32F4xx_HAL_Driver\\Src\\stm32f4xx_hal_eth.c 0x00000000   Number         0  stm32f4xx_hal_eth.o ABSOLUTE
    ..\\Libraries\\STM32F4xx_HAL_Driver\\Src\\stm32f4xx_hal_flash.c 0x00000000   Number         0  stm32f4xx_hal_flash.o ABSOLUTE
    ..\\Libraries\\STM32F4xx_HAL_Driver\\Src\\stm32f4xx_hal_flash_ex.c 0x00000000   Number         0  stm32f4xx_hal_flash_ex.o ABSOLUTE
    ..\\Libraries\\STM32F4xx_HAL_Driver\\Src\\stm32f4xx_hal_flash_ramfunc.c 0x00000000   Number         0  stm32f4xx_hal_flash_ramfunc.o ABSOLUTE
    ..\\Libraries\\STM32F4xx_HAL_Driver\\Src\\stm32f4xx_hal_gpio.c 0x00000000   Number         0  stm32f4xx_hal_gpio.o ABSOLUTE
    ..\\Libraries\\STM32F4xx_HAL_Driver\\Src\\stm32f4xx_hal_i2c.c 0x00000000   Number         0  stm32f4xx_hal_i2c.o ABSOLUTE
    ..\\Libraries\\STM32F4xx_HAL_Driver\\Src\\stm32f4xx_hal_pwr.c 0x00000000   Number         0  stm32f4xx_hal_pwr.o ABSOLUTE
    ..\\Libraries\\STM32F4xx_HAL_Driver\\Src\\stm32f4xx_hal_pwr_ex.c 0x00000000   Number         0  stm32f4xx_hal_pwr_ex.o ABSOLUTE
    ..\\Libraries\\STM32F4xx_HAL_Driver\\Src\\stm32f4xx_hal_rcc.c 0x00000000   Number         0  stm32f4xx_hal_rcc.o ABSOLUTE
    ..\\Libraries\\STM32F4xx_HAL_Driver\\Src\\stm32f4xx_hal_rcc_ex.c 0x00000000   Number         0  stm32f4xx_hal_rcc_ex.o ABSOLUTE
    ..\\Libraries\\STM32F4xx_HAL_Driver\\Src\\stm32f4xx_hal_rng.c 0x00000000   Number         0  stm32f4xx_hal_rng.o ABSOLUTE
    ..\\Libraries\\STM32F4xx_HAL_Driver\\Src\\stm32f4xx_hal_sdram.c 0x00000000   Number         0  stm32f4xx_hal_sdram.o ABSOLUTE
    ..\\Libraries\\STM32F4xx_HAL_Driver\\Src\\stm32f4xx_hal_spi.c 0x00000000   Number         0  stm32f4xx_hal_spi.o ABSOLUTE
    ..\\Libraries\\STM32F4xx_HAL_Driver\\Src\\stm32f4xx_hal_tim.c 0x00000000   Number         0  stm32f4xx_hal_tim.o ABSOLUTE
    ..\\Libraries\\STM32F4xx_HAL_Driver\\Src\\stm32f4xx_hal_tim_ex.c 0x00000000   Number         0  stm32f4xx_hal_tim_ex.o ABSOLUTE
    ..\\Libraries\\STM32F4xx_HAL_Driver\\Src\\stm32f4xx_hal_uart.c 0x00000000   Number         0  stm32f4xx_hal_uart.o ABSOLUTE
    ..\\Libraries\\STM32F4xx_HAL_Driver\\Src\\stm32f4xx_hal_usart.c 0x00000000   Number         0  stm32f4xx_hal_usart.o ABSOLUTE
    ..\\Libraries\\STM32F4xx_HAL_Driver\\Src\\stm32f4xx_ll_fmc.c 0x00000000   Number         0  stm32f4xx_ll_fmc.o ABSOLUTE
    ..\\Libraries\\STM32F4xx_HAL_Driver\\Src\\stm32f4xx_ll_fsmc.c 0x00000000   Number         0  stm32f4xx_ll_fsmc.o ABSOLUTE
    ..\\Libraries\\STM32F4xx_HAL_Driver\\Src\\stm32f4xx_ll_sdmmc.c 0x00000000   Number         0  stm32f4xx_ll_sdmmc.o ABSOLUTE
    ..\\User\\APL\\src\\app.c                0x00000000   Number         0  app.o ABSOLUTE
    ..\\User\\APL\\src\\device_update.c      0x00000000   Number         0  device_update.o ABSOLUTE
    ..\\User\\BSP\\src\\dma.c                0x00000000   Number         0  dma.o ABSOLUTE
    ..\\User\\BSP\\src\\usart.c              0x00000000   Number         0  usart.o ABSOLUTE
    ..\\User\\FML\\src\\tcp_queue.c          0x00000000   Number         0  tcp_queue.o ABSOLUTE
    ..\\User\\HAL\\src\\ble_usart.c          0x00000000   Number         0  ble_usart.o ABSOLUTE
    ..\\User\\HAL\\src\\device_id.c          0x00000000   Number         0  device_id.o ABSOLUTE
    ..\\User\\HAL\\src\\hal_flash.c          0x00000000   Number         0  hal_flash.o ABSOLUTE
    ..\\User\\HAL\\src\\reboot.c             0x00000000   Number         0  reboot.o ABSOLUTE
    ..\\User\\board.c                        0x00000000   Number         0  board.o ABSOLUTE
    ..\\User\\cm_backtrace\\cm_backtrace.c   0x00000000   Number         0  cm_backtrace.o ABSOLUTE
    ..\\User\\led\\bsp_led.c                 0x00000000   Number         0  bsp_led.o ABSOLUTE
    ..\\User\\main.c                         0x00000000   Number         0  main.o ABSOLUTE
    ..\\User\\stm32f4xx_it.c                 0x00000000   Number         0  stm32f4xx_it.o ABSOLUTE
    cdrcmple.s                               0x00000000   Number         0  cdrcmple.o ABSOLUTE
    dc.s                                     0x00000000   Number         0  dc.o ABSOLUTE
    handlers.s                               0x00000000   Number         0  handlers.o ABSOLUTE
    init.s                                   0x00000000   Number         0  init.o ABSOLUTE
    RESET                                    0x08000000   Section      428  startup_stm32f429xx.o(RESET)
    .ARM.Collect$$$$00000000                 0x080001ac   Section        0  entry.o(.ARM.Collect$$$$00000000)
    .ARM.Collect$$$$00000001                 0x080001ac   Section        4  entry2.o(.ARM.Collect$$$$00000001)
    .ARM.Collect$$$$00000004                 0x080001b0   Section        4  entry5.o(.ARM.Collect$$$$00000004)
    .ARM.Collect$$$$00000008                 0x080001b4   Section        0  entry7b.o(.ARM.Collect$$$$00000008)
    .ARM.Collect$$$$0000000A                 0x080001b4   Section        0  entry8b.o(.ARM.Collect$$$$0000000A)
    .ARM.Collect$$$$0000000B                 0x080001b4   Section        8  entry9a.o(.ARM.Collect$$$$0000000B)
    .ARM.Collect$$$$0000000E                 0x080001bc   Section        4  entry12b.o(.ARM.Collect$$$$0000000E)
    .ARM.Collect$$$$0000000F                 0x080001c0   Section        0  entry10a.o(.ARM.Collect$$$$0000000F)
    .ARM.Collect$$$$00000011                 0x080001c0   Section        0  entry11a.o(.ARM.Collect$$$$00000011)
    .ARM.Collect$$$$00002712                 0x080001c0   Section        4  entry2.o(.ARM.Collect$$$$00002712)
    __lit__00000000                          0x080001c0   Data           4  entry2.o(.ARM.Collect$$$$00002712)
    .emb_text                                0x080001c4   Section       16  board.o(.emb_text)
    $v0                                      0x080001c4   Number         0  board.o(.emb_text)
    .emb_text                                0x080001d4   Section        6  device_update.o(.emb_text)
    $v0                                      0x080001d4   Number         0  device_update.o(.emb_text)
    .emb_text                                0x080001dc   Section      182  port.o(.emb_text)
    $v0                                      0x080001dc   Number         0  port.o(.emb_text)
    .text                                    0x08000294   Section       36  startup_stm32f429xx.o(.text)
    $v0                                      0x08000294   Number         0  startup_stm32f429xx.o(.text)
    .text                                    0x080002b8   Section       12  cmb_fault.o(.text)
    $v0                                      0x080002b8   Number         0  cmb_fault.o(.text)
    .text                                    0x080002c4   Section        0  uldiv.o(.text)
    .text                                    0x08000326   Section        0  memcpya.o(.text)
    .text                                    0x0800034a   Section        0  memseta.o(.text)
    .text                                    0x0800036e   Section        0  strncpy.o(.text)
    .text                                    0x08000386   Section        0  llshl.o(.text)
    .text                                    0x080003a4   Section        0  llushr.o(.text)
    .text                                    0x080003c4   Section       36  init.o(.text)
    i.AppTaskCreate                          0x080003e8   Section        0  app.o(i.AppTaskCreate)
    AppTaskCreate                            0x080003e9   Thumb Code    26  app.o(i.AppTaskCreate)
    i.BSP_Init                               0x08000408   Section        0  board.o(i.BSP_Init)
    i.BusFault_Handler                       0x080004bc   Section        0  stm32f4xx_it.o(i.BusFault_Handler)
    i.DMA1_Stream1_IRQHandler                0x080004c0   Section        0  usart.o(i.DMA1_Stream1_IRQHandler)
    i.DMA1_Stream5_IRQHandler                0x080004cc   Section        0  usart.o(i.DMA1_Stream5_IRQHandler)
    i.DMA1_Stream6_IRQHandler                0x080004d8   Section        0  usart.o(i.DMA1_Stream6_IRQHandler)
    i.DMA2_Stream1_IRQHandler                0x080004e4   Section        0  usart.o(i.DMA2_Stream1_IRQHandler)
    i.DMA2_Stream2_IRQHandler                0x080004f0   Section        0  usart.o(i.DMA2_Stream2_IRQHandler)
    i.DMA2_Stream6_IRQHandler                0x080004fc   Section        0  usart.o(i.DMA2_Stream6_IRQHandler)
    i.DMA2_Stream7_IRQHandler                0x08000508   Section        0  usart.o(i.DMA2_Stream7_IRQHandler)
    i.DMA_CalcBaseAndBitshift                0x08000514   Section        0  stm32f4xx_hal_dma.o(i.DMA_CalcBaseAndBitshift)
    DMA_CalcBaseAndBitshift                  0x08000515   Thumb Code    34  stm32f4xx_hal_dma.o(i.DMA_CalcBaseAndBitshift)
    i.DMA_CheckFifoParam                     0x0800053c   Section        0  stm32f4xx_hal_dma.o(i.DMA_CheckFifoParam)
    DMA_CheckFifoParam                       0x0800053d   Thumb Code    84  stm32f4xx_hal_dma.o(i.DMA_CheckFifoParam)
    i.DMA_SetConfig                          0x08000590   Section        0  stm32f4xx_hal_dma.o(i.DMA_SetConfig)
    DMA_SetConfig                            0x08000591   Thumb Code    40  stm32f4xx_hal_dma.o(i.DMA_SetConfig)
    i.DebugMon_Handler                       0x080005b8   Section        0  stm32f4xx_it.o(i.DebugMon_Handler)
    i.EnableUartIT                           0x080005bc   Section        0  usart.o(i.EnableUartIT)
    i.FLASH_Erase_Sector                     0x08000660   Section        0  stm32f4xx_hal_flash_ex.o(i.FLASH_Erase_Sector)
    i.FLASH_FlushCaches                      0x08000774   Section        0  stm32f4xx_hal_flash_ex.o(i.FLASH_FlushCaches)
    i.FLASH_MassErase                        0x080007c8   Section        0  stm32f4xx_hal_flash_ex.o(i.FLASH_MassErase)
    FLASH_MassErase                          0x080007c9   Thumb Code   110  stm32f4xx_hal_flash_ex.o(i.FLASH_MassErase)
    i.FLASH_Program_Byte                     0x0800087c   Section        0  stm32f4xx_hal_flash.o(i.FLASH_Program_Byte)
    FLASH_Program_Byte                       0x0800087d   Thumb Code    62  stm32f4xx_hal_flash.o(i.FLASH_Program_Byte)
    i.FLASH_Program_DoubleWord               0x08000900   Section        0  stm32f4xx_hal_flash.o(i.FLASH_Program_DoubleWord)
    FLASH_Program_DoubleWord                 0x08000901   Thumb Code    70  stm32f4xx_hal_flash.o(i.FLASH_Program_DoubleWord)
    i.FLASH_Program_HalfWord                 0x0800098c   Section        0  stm32f4xx_hal_flash.o(i.FLASH_Program_HalfWord)
    FLASH_Program_HalfWord                   0x0800098d   Thumb Code    66  stm32f4xx_hal_flash.o(i.FLASH_Program_HalfWord)
    i.FLASH_Program_Word                     0x08000a14   Section        0  stm32f4xx_hal_flash.o(i.FLASH_Program_Word)
    FLASH_Program_Word                       0x08000a15   Thumb Code    66  stm32f4xx_hal_flash.o(i.FLASH_Program_Word)
    i.FLASH_SetErrorCode                     0x08000a9c   Section        0  stm32f4xx_hal_flash.o(i.FLASH_SetErrorCode)
    FLASH_SetErrorCode                       0x08000a9d   Thumb Code   116  stm32f4xx_hal_flash.o(i.FLASH_SetErrorCode)
    i.FLASH_WaitForLastOperation             0x08000b18   Section        0  stm32f4xx_hal_flash.o(i.FLASH_WaitForLastOperation)
    i.GPIO_CLK_Init                          0x08000b68   Section        0  board.o(i.GPIO_CLK_Init)
    GPIO_CLK_Init                            0x08000b69   Thumb Code   102  board.o(i.GPIO_CLK_Init)
    i.HAL_DMA_Abort                          0x08000bd4   Section        0  stm32f4xx_hal_dma.o(i.HAL_DMA_Abort)
    i.HAL_DMA_Abort_IT                       0x08000c62   Section        0  stm32f4xx_hal_dma.o(i.HAL_DMA_Abort_IT)
    i.HAL_DMA_IRQHandler                     0x08000c88   Section        0  stm32f4xx_hal_dma.o(i.HAL_DMA_IRQHandler)
    i.HAL_DMA_Init                           0x08000e28   Section        0  stm32f4xx_hal_dma.o(i.HAL_DMA_Init)
    i.HAL_DMA_Start_IT                       0x08001108   Section        0  stm32f4xx_hal_dma.o(i.HAL_DMA_Start_IT)
    i.HAL_FLASHEx_Erase                      0x080011dc   Section        0  stm32f4xx_hal_flash_ex.o(i.HAL_FLASHEx_Erase)
    i.HAL_FLASH_Lock                         0x080012e4   Section        0  stm32f4xx_hal_flash.o(i.HAL_FLASH_Lock)
    i.HAL_FLASH_Program                      0x080012f8   Section        0  stm32f4xx_hal_flash.o(i.HAL_FLASH_Program)
    i.HAL_FLASH_Unlock                       0x080013c8   Section        0  stm32f4xx_hal_flash.o(i.HAL_FLASH_Unlock)
    i.HAL_GPIO_Init                          0x080013f4   Section        0  stm32f4xx_hal_gpio.o(i.HAL_GPIO_Init)
    i.HAL_GPIO_WritePin                      0x0800172c   Section        0  stm32f4xx_hal_gpio.o(i.HAL_GPIO_WritePin)
    i.HAL_GetTick                            0x08001798   Section        0  stm32f4xx_hal.o(i.HAL_GetTick)
    i.HAL_IncTick                            0x080017a4   Section        0  stm32f4xx_hal.o(i.HAL_IncTick)
    i.HAL_Init                               0x080017b4   Section        0  stm32f4xx_hal.o(i.HAL_Init)
    i.HAL_InitTick                           0x080017e8   Section        0  stm32f4xx_hal.o(i.HAL_InitTick)
    i.HAL_MspInit                            0x08001828   Section        0  stm32f4xx_hal.o(i.HAL_MspInit)
    i.HAL_NVIC_EnableIRQ                     0x0800182c   Section        0  stm32f4xx_hal_cortex.o(i.HAL_NVIC_EnableIRQ)
    i.HAL_NVIC_SetPriority                   0x08001890   Section        0  stm32f4xx_hal_cortex.o(i.HAL_NVIC_SetPriority)
    i.HAL_NVIC_SetPriorityGrouping           0x08001930   Section        0  stm32f4xx_hal_cortex.o(i.HAL_NVIC_SetPriorityGrouping)
    i.HAL_RCC_ClockConfig                    0x080019b4   Section        0  stm32f4xx_hal_rcc.o(i.HAL_RCC_ClockConfig)
    i.HAL_RCC_GetPCLK1Freq                   0x08001c18   Section        0  stm32f4xx_hal_rcc.o(i.HAL_RCC_GetPCLK1Freq)
    i.HAL_RCC_GetPCLK2Freq                   0x08001c38   Section        0  stm32f4xx_hal_rcc.o(i.HAL_RCC_GetPCLK2Freq)
    i.HAL_RCC_GetSysClockFreq                0x08001c58   Section        0  stm32f4xx_hal_rcc.o(i.HAL_RCC_GetSysClockFreq)
    i.HAL_RCC_OscConfig                      0x08001cbc   Section        0  stm32f4xx_hal_rcc.o(i.HAL_RCC_OscConfig)
    i.HAL_SYSTICK_Config                     0x08002100   Section        0  stm32f4xx_hal_cortex.o(i.HAL_SYSTICK_Config)
    i.HAL_UART_DMAStop                       0x08002128   Section        0  stm32f4xx_hal_uart.o(i.HAL_UART_DMAStop)
    i.HAL_UART_ErrorCallback                 0x08002180   Section        0  stm32f4xx_hal_uart.o(i.HAL_UART_ErrorCallback)
    i.HAL_UART_IRQHandler                    0x08002184   Section        0  stm32f4xx_hal_uart.o(i.HAL_UART_IRQHandler)
    i.HAL_UART_Init                          0x08002294   Section        0  stm32f4xx_hal_uart.o(i.HAL_UART_Init)
    i.HAL_UART_MspInit                       0x080023f0   Section        0  usart.o(i.HAL_UART_MspInit)
    i.HAL_UART_Receive_DMA                   0x08002694   Section        0  stm32f4xx_hal_uart.o(i.HAL_UART_Receive_DMA)
    i.HAL_UART_RxCpltCallback                0x0800272c   Section        0  stm32f4xx_hal_uart.o(i.HAL_UART_RxCpltCallback)
    i.HAL_UART_RxHalfCpltCallback            0x0800272e   Section        0  stm32f4xx_hal_uart.o(i.HAL_UART_RxHalfCpltCallback)
    i.HAL_UART_Transmit                      0x08002730   Section        0  stm32f4xx_hal_uart.o(i.HAL_UART_Transmit)
    i.HAL_UART_TxCpltCallback                0x080027ea   Section        0  stm32f4xx_hal_uart.o(i.HAL_UART_TxCpltCallback)
    i.HAL_USART1_RxCpltCallback              0x080027ec   Section        0  usart.o(i.HAL_USART1_RxCpltCallback)
    i.HAL_USART2_RxCpltCallback              0x08002834   Section        0  usart.o(i.HAL_USART2_RxCpltCallback)
    i.HAL_USART3_RxCpltCallback              0x0800287c   Section        0  usart.o(i.HAL_USART3_RxCpltCallback)
    i.HAL_USART6_RxCpltCallback              0x080028e4   Section        0  usart.o(i.HAL_USART6_RxCpltCallback)
    i.LED_GPIO_Config                        0x0800292c   Section        0  bsp_led.o(i.LED_GPIO_Config)
    i.MX_DMA_Init                            0x080029d4   Section        0  dma.o(i.MX_DMA_Init)
    i.MX_USART1_UART_Init                    0x08002ae0   Section        0  usart.o(i.MX_USART1_UART_Init)
    i.MX_USART2_UART_Init                    0x08002b08   Section        0  usart.o(i.MX_USART2_UART_Init)
    i.MX_USART3_UART_Init                    0x08002b30   Section        0  usart.o(i.MX_USART3_UART_Init)
    i.MX_USART6_UART_Init                    0x08002b58   Section        0  usart.o(i.MX_USART6_UART_Init)
    i.MemManage_Handler                      0x08002b80   Section        0  stm32f4xx_it.o(i.MemManage_Handler)
    i.NMI_Handler                            0x08002b82   Section        0  stm32f4xx_it.o(i.NMI_Handler)
    i.NVIC_SetPriority                       0x08002b84   Section        0  stm32f4xx_hal_cortex.o(i.NVIC_SetPriority)
    NVIC_SetPriority                         0x08002b85   Thumb Code    32  stm32f4xx_hal_cortex.o(i.NVIC_SetPriority)
    i.ReadByte                               0x08002ba4   Section        0  util.o(i.ReadByte)
    i.ReadDWord                              0x08002bb0   Section        0  util.o(i.ReadDWord)
    i.SysTick_Handler                        0x08002bd2   Section        0  stm32f4xx_it.o(i.SysTick_Handler)
    i.SystemClock_Config                     0x08002bfc   Section        0  board.o(i.SystemClock_Config)
    SystemClock_Config                       0x08002bfd   Thumb Code   126  board.o(i.SystemClock_Config)
    i.SystemInit                             0x08002c84   Section        0  system_stm32f4xx.o(i.SystemInit)
    i.UART_DMAAbortOnError                   0x08002cd8   Section        0  stm32f4xx_hal_uart.o(i.UART_DMAAbortOnError)
    UART_DMAAbortOnError                     0x08002cd9   Thumb Code    16  stm32f4xx_hal_uart.o(i.UART_DMAAbortOnError)
    i.UART_DMAError                          0x08002ce8   Section        0  stm32f4xx_hal_uart.o(i.UART_DMAError)
    UART_DMAError                            0x08002ce9   Thumb Code    74  stm32f4xx_hal_uart.o(i.UART_DMAError)
    i.UART_DMAReceiveCplt                    0x08002d32   Section        0  stm32f4xx_hal_uart.o(i.UART_DMAReceiveCplt)
    UART_DMAReceiveCplt                      0x08002d33   Thumb Code    60  stm32f4xx_hal_uart.o(i.UART_DMAReceiveCplt)
    i.UART_DMARxHalfCplt                     0x08002d6e   Section        0  stm32f4xx_hal_uart.o(i.UART_DMARxHalfCplt)
    UART_DMARxHalfCplt                       0x08002d6f   Thumb Code    10  stm32f4xx_hal_uart.o(i.UART_DMARxHalfCplt)
    i.UART_EndRxTransfer                     0x08002d78   Section        0  stm32f4xx_hal_uart.o(i.UART_EndRxTransfer)
    UART_EndRxTransfer                       0x08002d79   Thumb Code    28  stm32f4xx_hal_uart.o(i.UART_EndRxTransfer)
    i.UART_EndTxTransfer                     0x08002d94   Section        0  stm32f4xx_hal_uart.o(i.UART_EndTxTransfer)
    UART_EndTxTransfer                       0x08002d95   Thumb Code    18  stm32f4xx_hal_uart.o(i.UART_EndTxTransfer)
    i.UART_Receive_IT                        0x08002da6   Section        0  stm32f4xx_hal_uart.o(i.UART_Receive_IT)
    UART_Receive_IT                          0x08002da7   Thumb Code   140  stm32f4xx_hal_uart.o(i.UART_Receive_IT)
    i.UART_SetConfig                         0x08002e34   Section        0  stm32f4xx_hal_uart.o(i.UART_SetConfig)
    UART_SetConfig                           0x08002e35   Thumb Code   762  stm32f4xx_hal_uart.o(i.UART_SetConfig)
    i.UART_Transmit_IT                       0x08003178   Section        0  stm32f4xx_hal_uart.o(i.UART_Transmit_IT)
    UART_Transmit_IT                         0x08003179   Thumb Code    98  stm32f4xx_hal_uart.o(i.UART_Transmit_IT)
    i.UART_WaitOnFlagUntilTimeout            0x080031da   Section        0  stm32f4xx_hal_uart.o(i.UART_WaitOnFlagUntilTimeout)
    UART_WaitOnFlagUntilTimeout              0x080031db   Thumb Code    98  stm32f4xx_hal_uart.o(i.UART_WaitOnFlagUntilTimeout)
    i.USART1_IRQHandler                      0x0800323c   Section        0  usart.o(i.USART1_IRQHandler)
    i.USART2_IRQHandler                      0x08003290   Section        0  usart.o(i.USART2_IRQHandler)
    i.USART3_IRQHandler                      0x080032e4   Section        0  usart.o(i.USART3_IRQHandler)
    i.USART6_IRQHandler                      0x08003338   Section        0  usart.o(i.USART6_IRQHandler)
    i.UsageFault_Handler                     0x0800338c   Section        0  stm32f4xx_it.o(i.UsageFault_Handler)
    i.__0printf$8                            0x08003390   Section        0  printf8.o(i.__0printf$8)
    i.__0sprintf$8                           0x080033b0   Section        0  printf8.o(i.__0sprintf$8)
    i.__scatterload_copy                     0x080033d8   Section       14  handlers.o(i.__scatterload_copy)
    i.__scatterload_null                     0x080033e6   Section        2  handlers.o(i.__scatterload_null)
    i.__scatterload_zeroinit                 0x080033e8   Section       14  handlers.o(i.__scatterload_zeroinit)
    i._printf_core                           0x080033f8   Section        0  printf8.o(i._printf_core)
    _printf_core                             0x080033f9   Thumb Code   984  printf8.o(i._printf_core)
    i._printf_post_padding                   0x080037fc   Section        0  printf8.o(i._printf_post_padding)
    _printf_post_padding                     0x080037fd   Thumb Code    36  printf8.o(i._printf_post_padding)
    i._printf_pre_padding                    0x08003820   Section        0  printf8.o(i._printf_pre_padding)
    _printf_pre_padding                      0x08003821   Thumb Code    46  printf8.o(i._printf_pre_padding)
    i._sputc                                 0x0800384e   Section        0  printf8.o(i._sputc)
    _sputc                                   0x0800384f   Thumb Code    10  printf8.o(i._sputc)
    i.app_start_task_init                    0x08003858   Section        0  app.o(i.app_start_task_init)
    i.assert_failed                          0x08003898   Section        0  board.o(i.assert_failed)
    i.cm_backtrace_assert                    0x080038cc   Section        0  cm_backtrace.o(i.cm_backtrace_assert)
    i.cm_backtrace_call_stack                0x08003944   Section        0  cm_backtrace.o(i.cm_backtrace_call_stack)
    i.cm_backtrace_fault                     0x080039e4   Section        0  cm_backtrace.o(i.cm_backtrace_fault)
    i.cm_backtrace_firmware_info             0x08003c20   Section        0  cm_backtrace.o(i.cm_backtrace_firmware_info)
    i.cm_backtrace_init                      0x08003c4c   Section        0  cm_backtrace.o(i.cm_backtrace_init)
    i.device_app_roll_back                   0x08003ca8   Section        0  device_update.o(i.device_app_roll_back)
    device_app_roll_back                     0x08003ca9   Thumb Code    34  device_update.o(i.device_app_roll_back)
    i.device_execurt_start                   0x08003ccc   Section        0  device_update.o(i.device_execurt_start)
    i.device_update_init                     0x08003cd8   Section        0  device_update.o(i.device_update_init)
    i.device_update_thread                   0x08003d58   Section        0  device_update.o(i.device_update_thread)
    device_update_thread                     0x08003d59   Thumb Code   130  device_update.o(i.device_update_thread)
    i.dump_stack                             0x08003e48   Section        0  cm_backtrace.o(i.dump_stack)
    dump_stack                               0x08003e49   Thumb Code   106  cm_backtrace.o(i.dump_stack)
    i.fault_diagnosis                        0x08003f04   Section        0  cm_backtrace.o(i.fault_diagnosis)
    fault_diagnosis                          0x08003f05   Thumb Code   562  cm_backtrace.o(i.fault_diagnosis)
    i.fputc                                  0x08004144   Section        0  usart.o(i.fputc)
    i.hal_device_update                      0x0800415c   Section        0  hal_flash.o(i.hal_device_update)
    i.hal_flash_erase                        0x0800419c   Section        0  hal_flash.o(i.hal_flash_erase)
    i.hal_flash_lock                         0x0800423c   Section        0  hal_flash.o(i.hal_flash_lock)
    i.hal_read_flash_bytes                   0x08004240   Section        0  hal_flash.o(i.hal_read_flash_bytes)
    i.iap_execute_app                        0x08004260   Section        0  device_update.o(i.iap_execute_app)
    iap_execute_app                          0x08004261   Thumb Code    74  device_update.o(i.iap_execute_app)
    i.main                                   0x0800430c   Section        0  main.o(i.main)
    i.print_call_stack                       0x08004318   Section        0  cm_backtrace.o(i.print_call_stack)
    print_call_stack                         0x08004319   Thumb Code   112  cm_backtrace.o(i.print_call_stack)
    i.prvAddCurrentTaskToDelayedList         0x080043a4   Section        0  tasks.o(i.prvAddCurrentTaskToDelayedList)
    prvAddCurrentTaskToDelayedList           0x080043a5   Thumb Code   102  tasks.o(i.prvAddCurrentTaskToDelayedList)
    i.prvAddNewTaskToReadyList               0x08004414   Section        0  tasks.o(i.prvAddNewTaskToReadyList)
    prvAddNewTaskToReadyList                 0x08004415   Thumb Code   190  tasks.o(i.prvAddNewTaskToReadyList)
    i.prvCheckForValidListAndQueue           0x080044e4   Section        0  timers.o(i.prvCheckForValidListAndQueue)
    prvCheckForValidListAndQueue             0x080044e5   Thumb Code    62  timers.o(i.prvCheckForValidListAndQueue)
    i.prvCheckTasksWaitingTermination        0x08004534   Section        0  tasks.o(i.prvCheckTasksWaitingTermination)
    prvCheckTasksWaitingTermination          0x08004535   Thumb Code    74  tasks.o(i.prvCheckTasksWaitingTermination)
    i.prvCopyDataFromQueue                   0x08004588   Section        0  queue.o(i.prvCopyDataFromQueue)
    prvCopyDataFromQueue                     0x08004589   Thumb Code    38  queue.o(i.prvCopyDataFromQueue)
    i.prvCopyDataToQueue                     0x080045ae   Section        0  queue.o(i.prvCopyDataToQueue)
    prvCopyDataToQueue                       0x080045af   Thumb Code   108  queue.o(i.prvCopyDataToQueue)
    i.prvDeleteTCB                           0x0800461a   Section        0  tasks.o(i.prvDeleteTCB)
    prvDeleteTCB                             0x0800461b   Thumb Code    20  tasks.o(i.prvDeleteTCB)
    i.prvHeapInit                            0x08004630   Section        0  heap_4.o(i.prvHeapInit)
    prvHeapInit                              0x08004631   Thumb Code    66  heap_4.o(i.prvHeapInit)
    i.prvIdleTask                            0x0800467c   Section        0  tasks.o(i.prvIdleTask)
    prvIdleTask                              0x0800467d   Thumb Code    30  tasks.o(i.prvIdleTask)
    i.prvInitialiseNewTask                   0x080046a4   Section        0  tasks.o(i.prvInitialiseNewTask)
    prvInitialiseNewTask                     0x080046a5   Thumb Code   142  tasks.o(i.prvInitialiseNewTask)
    i.prvInsertBlockIntoFreeList             0x0800475c   Section        0  heap_4.o(i.prvInsertBlockIntoFreeList)
    prvInsertBlockIntoFreeList               0x0800475d   Thumb Code    72  heap_4.o(i.prvInsertBlockIntoFreeList)
    i.prvInsertTimerInActiveList             0x080047a8   Section        0  timers.o(i.prvInsertTimerInActiveList)
    prvInsertTimerInActiveList               0x080047a9   Thumb Code    52  timers.o(i.prvInsertTimerInActiveList)
    i.prvIsQueueEmpty                        0x080047e0   Section        0  queue.o(i.prvIsQueueEmpty)
    prvIsQueueEmpty                          0x080047e1   Thumb Code    26  queue.o(i.prvIsQueueEmpty)
    i.prvNotifyQueueSetContainer             0x080047fc   Section        0  queue.o(i.prvNotifyQueueSetContainer)
    prvNotifyQueueSetContainer               0x080047fd   Thumb Code   108  queue.o(i.prvNotifyQueueSetContainer)
    i.prvProcessExpiredTimer                 0x08004890   Section        0  timers.o(i.prvProcessExpiredTimer)
    prvProcessExpiredTimer                   0x08004891   Thumb Code    86  timers.o(i.prvProcessExpiredTimer)
    i.prvProcessReceivedCommands             0x080048f0   Section        0  timers.o(i.prvProcessReceivedCommands)
    prvProcessReceivedCommands               0x080048f1   Thumb Code   182  timers.o(i.prvProcessReceivedCommands)
    i.prvProcessTimerOrBlockTask             0x080049d8   Section        0  timers.o(i.prvProcessTimerOrBlockTask)
    prvProcessTimerOrBlockTask               0x080049d9   Thumb Code    98  timers.o(i.prvProcessTimerOrBlockTask)
    i.prvResetNextTaskUnblockTime            0x08004a44   Section        0  tasks.o(i.prvResetNextTaskUnblockTime)
    prvResetNextTaskUnblockTime              0x08004a45   Thumb Code    26  tasks.o(i.prvResetNextTaskUnblockTime)
    i.prvSampleTimeNow                       0x08004a64   Section        0  timers.o(i.prvSampleTimeNow)
    prvSampleTimeNow                         0x08004a65   Thumb Code    36  timers.o(i.prvSampleTimeNow)
    i.prvSwitchTimerLists                    0x08004a8c   Section        0  timers.o(i.prvSwitchTimerLists)
    prvSwitchTimerLists                      0x08004a8d   Thumb Code   100  timers.o(i.prvSwitchTimerLists)
    i.prvTaskExitError                       0x08004af8   Section        0  port.o(i.prvTaskExitError)
    prvTaskExitError                         0x08004af9   Thumb Code    36  port.o(i.prvTaskExitError)
    i.prvTimerTask                           0x08004b58   Section        0  timers.o(i.prvTimerTask)
    prvTimerTask                             0x08004b59   Thumb Code    34  timers.o(i.prvTimerTask)
    i.prvUnlockQueue                         0x08004b80   Section        0  queue.o(i.prvUnlockQueue)
    prvUnlockQueue                           0x08004b81   Thumb Code   120  queue.o(i.prvUnlockQueue)
    i.pvPortMalloc                           0x08004bf8   Section        0  heap_4.o(i.pvPortMalloc)
    i.pvTaskIncrementMutexHeldCount          0x08004d08   Section        0  tasks.o(i.pvTaskIncrementMutexHeldCount)
    i.pxPortInitialiseStack                  0x08004d20   Section        0  port.o(i.pxPortInitialiseStack)
    i.read_device_start_msg                  0x08004d4c   Section        0  device_update.o(i.read_device_start_msg)
    read_device_start_msg                    0x08004d4d   Thumb Code    58  device_update.o(i.read_device_start_msg)
    i.uxListRemove                           0x08004de8   Section        0  list.o(i.uxListRemove)
    i.vListInitialise                        0x08004e0c   Section        0  list.o(i.vListInitialise)
    i.vListInitialiseItem                    0x08004e22   Section        0  list.o(i.vListInitialiseItem)
    i.vListInsert                            0x08004e28   Section        0  list.o(i.vListInsert)
    i.vListInsertEnd                         0x08004e58   Section        0  list.o(i.vListInsertEnd)
    i.vPortEnterCritical                     0x08004e70   Section        0  port.o(i.vPortEnterCritical)
    i.vPortExitCritical                      0x08004ee4   Section        0  port.o(i.vPortExitCritical)
    i.vPortFree                              0x08004f44   Section        0  heap_4.o(i.vPortFree)
    i.vPortSetupTimerInterrupt               0x08004fdc   Section        0  port.o(i.vPortSetupTimerInterrupt)
    i.vPortValidateInterruptPriority         0x08004ffc   Section        0  port.o(i.vPortValidateInterruptPriority)
    i.vQueueAddToRegistry                    0x08005084   Section        0  queue.o(i.vQueueAddToRegistry)
    i.vQueueWaitForMessageRestricted         0x080050a8   Section        0  queue.o(i.vQueueWaitForMessageRestricted)
    i.vTaskDelay                             0x080050ec   Section        0  tasks.o(i.vTaskDelay)
    i.vTaskDelete                            0x0800515c   Section        0  tasks.o(i.vTaskDelete)
    i.vTaskMissedYield                       0x0800522c   Section        0  tasks.o(i.vTaskMissedYield)
    i.vTaskPlaceOnEventList                  0x08005238   Section        0  tasks.o(i.vTaskPlaceOnEventList)
    i.vTaskPlaceOnEventListRestricted        0x08005290   Section        0  tasks.o(i.vTaskPlaceOnEventListRestricted)
    i.vTaskPriorityInherit                   0x080052f0   Section        0  tasks.o(i.vTaskPriorityInherit)
    i.vTaskSetTimeOutState                   0x08005374   Section        0  tasks.o(i.vTaskSetTimeOutState)
    i.vTaskStartScheduler                    0x080053c0   Section        0  tasks.o(i.vTaskStartScheduler)
    i.vTaskSuspendAll                        0x08005458   Section        0  tasks.o(i.vTaskSuspendAll)
    i.vTaskSwitchContext                     0x08005468   Section        0  tasks.o(i.vTaskSwitchContext)
    i.xPortStartScheduler                    0x080054e8   Section        0  port.o(i.xPortStartScheduler)
    i.xPortSysTickHandler                    0x080055f8   Section        0  port.o(i.xPortSysTickHandler)
    i.xQueueGenericCreate                    0x08005624   Section        0  queue.o(i.xQueueGenericCreate)
    i.xQueueGenericReceive                   0x080056a4   Section        0  queue.o(i.xQueueGenericReceive)
    i.xQueueGenericReset                     0x0800582c   Section        0  queue.o(i.xQueueGenericReset)
    i.xQueueGenericSend                      0x080058d8   Section        0  queue.o(i.xQueueGenericSend)
    i.xQueueGenericSendFromISR               0x08005a64   Section        0  queue.o(i.xQueueGenericSendFromISR)
    i.xTaskCheckForTimeOut                   0x08005b48   Section        0  tasks.o(i.xTaskCheckForTimeOut)
    i.xTaskCreate                            0x08005bd4   Section        0  tasks.o(i.xTaskCreate)
    i.xTaskGetSchedulerState                 0x08005c2c   Section        0  tasks.o(i.xTaskGetSchedulerState)
    i.xTaskGetTickCount                      0x08005c48   Section        0  tasks.o(i.xTaskGetTickCount)
    i.xTaskIncrementTick                     0x08005c54   Section        0  tasks.o(i.xTaskIncrementTick)
    i.xTaskPriorityDisinherit                0x08005d40   Section        0  tasks.o(i.xTaskPriorityDisinherit)
    i.xTaskRemoveFromEventList               0x08005df8   Section        0  tasks.o(i.xTaskRemoveFromEventList)
    i.xTaskResumeAll                         0x08005e94   Section        0  tasks.o(i.xTaskResumeAll)
    i.xTimerCreate                           0x08005f7c   Section        0  timers.o(i.xTimerCreate)
    i.xTimerCreateTimerTask                  0x08005ff4   Section        0  timers.o(i.xTimerCreateTimerTask)
    i.xTimerGenericCommand                   0x0800606c   Section        0  timers.o(i.xTimerGenericCommand)
    .constdata                               0x080060fc   Section       16  system_stm32f4xx.o(.constdata)
    .constdata                               0x0800610c   Section        8  system_stm32f4xx.o(.constdata)
    .constdata                               0x08006114   Section        8  stm32f4xx_hal_dma.o(.constdata)
    flagBitshiftOffset                       0x08006114   Data           8  stm32f4xx_hal_dma.o(.constdata)
    .constdata                               0x0800611c   Section      220  cm_backtrace.o(.constdata)
    print_info                               0x0800611c   Data         148  cm_backtrace.o(.constdata)
    __FUNCTION__                             0x080061b0   Data          20  cm_backtrace.o(.constdata)
    __FUNCTION__                             0x080061c4   Data          19  cm_backtrace.o(.constdata)
    .conststring                             0x080061f8   Section       69  hal_flash.o(.conststring)
    .conststring                             0x08006240   Section     2069  cm_backtrace.o(.conststring)
    .data                                    0x20000000   Section        4  system_stm32f4xx.o(.data)
    .data                                    0x20000004   Section       12  stm32f4xx_hal.o(.data)
    .data                                    0x20000010   Section        4  app.o(.data)
    AppTaskCreate_Handle                     0x20000010   Data           4  app.o(.data)
    .data                                    0x20000014   Section       12  device_update.o(.data)
    device_update_task                       0x20000014   Data           4  device_update.o(.data)
    device_start_msg                         0x20000018   Data           8  device_update.o(.data)
    .data                                    0x20000020   Section       48  hal_flash.o(.data)
    .data                                    0x20000050   Section       60  tasks.o(.data)
    uxDeletedTasksWaitingCleanUp             0x20000054   Data           4  tasks.o(.data)
    uxCurrentNumberOfTasks                   0x20000058   Data           4  tasks.o(.data)
    xTickCount                               0x2000005c   Data           4  tasks.o(.data)
    uxTopReadyPriority                       0x20000060   Data           4  tasks.o(.data)
    xSchedulerRunning                        0x20000064   Data           4  tasks.o(.data)
    uxPendedTicks                            0x20000068   Data           4  tasks.o(.data)
    xYieldPending                            0x2000006c   Data           4  tasks.o(.data)
    xNumOfOverflows                          0x20000070   Data           4  tasks.o(.data)
    uxTaskNumber                             0x20000074   Data           4  tasks.o(.data)
    xNextTaskUnblockTime                     0x20000078   Data           4  tasks.o(.data)
    xIdleTaskHandle                          0x2000007c   Data           4  tasks.o(.data)
    uxSchedulerSuspended                     0x20000080   Data           4  tasks.o(.data)
    pxDelayedTaskList                        0x20000084   Data           4  tasks.o(.data)
    pxOverflowDelayedTaskList                0x20000088   Data           4  tasks.o(.data)
    .data                                    0x2000008c   Section       20  timers.o(.data)
    xTimerQueue                              0x2000008c   Data           4  timers.o(.data)
    xTimerTaskHandle                         0x20000090   Data           4  timers.o(.data)
    xLastTime                                0x20000094   Data           4  timers.o(.data)
    pxCurrentTimerList                       0x20000098   Data           4  timers.o(.data)
    pxOverflowTimerList                      0x2000009c   Data           4  timers.o(.data)
    .data                                    0x200000a0   Section       24  heap_4.o(.data)
    pxEnd                                    0x200000a0   Data           4  heap_4.o(.data)
    xFreeBytesRemaining                      0x200000a4   Data           4  heap_4.o(.data)
    xMinimumEverFreeBytesRemaining           0x200000a8   Data           4  heap_4.o(.data)
    xBlockAllocatedBit                       0x200000ac   Data           4  heap_4.o(.data)
    xStart                                   0x200000b0   Data           8  heap_4.o(.data)
    .data                                    0x200000b8   Section       12  port.o(.data)
    ucMaxSysCallPriority                     0x200000b8   Data           1  port.o(.data)
    uxCriticalNesting                        0x200000bc   Data           4  port.o(.data)
    ulMaxPRIGROUPValue                       0x200000c0   Data           4  port.o(.data)
    .data                                    0x200000c4   Section       24  cm_backtrace.o(.data)
    init_ok                                  0x200000c4   Data           1  cm_backtrace.o(.data)
    on_fault                                 0x200000c5   Data           1  cm_backtrace.o(.data)
    stack_is_overflow                        0x200000c6   Data           1  cm_backtrace.o(.data)
    statck_has_fpu_regs                      0x200000c7   Data           1  cm_backtrace.o(.data)
    on_thread_before_fault                   0x200000c8   Data           1  cm_backtrace.o(.data)
    main_stack_start_addr                    0x200000cc   Data           4  cm_backtrace.o(.data)
    main_stack_size                          0x200000d0   Data           4  cm_backtrace.o(.data)
    code_start_addr                          0x200000d4   Data           4  cm_backtrace.o(.data)
    code_size                                0x200000d8   Data           4  cm_backtrace.o(.data)
    .data                                    0x200000dc   Section        4  stdout.o(.data)
    .bss                                     0x200000e0   Section       32  stm32f4xx_hal_flash.o(.bss)
    .bss                                     0x20000100   Section       20  hal_flash.o(.bss)
    EraseInitStruct                          0x20000100   Data          20  hal_flash.o(.bss)
    .bss                                     0x20000114   Section     6072  usart.o(.bss)
    .bss                                     0x200018cc   Section      160  queue.o(.bss)
    .bss                                     0x2000196c   Section      740  tasks.o(.bss)
    pxReadyTasksLists                        0x2000196c   Data         640  tasks.o(.bss)
    xDelayedTaskList1                        0x20001bec   Data          20  tasks.o(.bss)
    xDelayedTaskList2                        0x20001c00   Data          20  tasks.o(.bss)
    xPendingReadyList                        0x20001c14   Data          20  tasks.o(.bss)
    xTasksWaitingTermination                 0x20001c28   Data          20  tasks.o(.bss)
    xSuspendedTaskList                       0x20001c3c   Data          20  tasks.o(.bss)
    .bss                                     0x20001c50   Section       40  timers.o(.bss)
    xActiveTimerList1                        0x20001c50   Data          20  timers.o(.bss)
    xActiveTimerList2                        0x20001c64   Data          20  timers.o(.bss)
    .bss                                     0x20001c78   Section    36864  heap_4.o(.bss)
    ucHeap                                   0x20001c78   Data       36864  heap_4.o(.bss)
    .bss                                     0x2000ac78   Section      308  cm_backtrace.o(.bss)
    fw_name                                  0x2000ac78   Data          32  cm_backtrace.o(.bss)
    hw_ver                                   0x2000ac98   Data          32  cm_backtrace.o(.bss)
    sw_ver                                   0x2000acb8   Data          32  cm_backtrace.o(.bss)
    call_stack_info                          0x2000acd8   Data         144  cm_backtrace.o(.bss)
    regs                                     0x2000ad68   Data          68  cm_backtrace.o(.bss)
    STACK                                    0x2000adb0   Section     1024  startup_stm32f429xx.o(STACK)

    Global Symbols

    Symbol Name                              Value     Ov Type        Size  Object(Section)

    BuildAttributes$$THM_ISAv4$E$P$D$K$B$S$7EM$VFPi3$EXTD16$VFPS$VFMA$PE$A:L22UL41UL21$X:L11$S22US41US21$IEEE1$IW$USESV6$~STKCKD$USESV7$~SHL$OSPACE$ROPI$EBA8$MICROLIB$REQ8$PRES8$EABIv2 0x00000000   Number         0  anon$$obj.o ABSOLUTE
    __ARM_use_no_argv                        0x00000000   Number         0  main.o ABSOLUTE
    _printf_a                                0x00000000   Number         0  stubs.o ABSOLUTE
    _printf_c                                0x00000000   Number         0  stubs.o ABSOLUTE
    _printf_charcount                        0x00000000   Number         0  stubs.o ABSOLUTE
    _printf_d                                0x00000000   Number         0  stubs.o ABSOLUTE
    _printf_e                                0x00000000   Number         0  stubs.o ABSOLUTE
    _printf_f                                0x00000000   Number         0  stubs.o ABSOLUTE
    _printf_flags                            0x00000000   Number         0  stubs.o ABSOLUTE
    _printf_fp_dec                           0x00000000   Number         0  stubs.o ABSOLUTE
    _printf_fp_hex                           0x00000000   Number         0  stubs.o ABSOLUTE
    _printf_g                                0x00000000   Number         0  stubs.o ABSOLUTE
    _printf_i                                0x00000000   Number         0  stubs.o ABSOLUTE
    _printf_int_dec                          0x00000000   Number         0  stubs.o ABSOLUTE
    _printf_l                                0x00000000   Number         0  stubs.o ABSOLUTE
    _printf_lc                               0x00000000   Number         0  stubs.o ABSOLUTE
    _printf_ll                               0x00000000   Number         0  stubs.o ABSOLUTE
    _printf_lld                              0x00000000   Number         0  stubs.o ABSOLUTE
    _printf_lli                              0x00000000   Number         0  stubs.o ABSOLUTE
    _printf_llo                              0x00000000   Number         0  stubs.o ABSOLUTE
    _printf_llu                              0x00000000   Number         0  stubs.o ABSOLUTE
    _printf_llx                              0x00000000   Number         0  stubs.o ABSOLUTE
    _printf_longlong_dec                     0x00000000   Number         0  stubs.o ABSOLUTE
    _printf_longlong_hex                     0x00000000   Number         0  stubs.o ABSOLUTE
    _printf_longlong_oct                     0x00000000   Number         0  stubs.o ABSOLUTE
    _printf_ls                               0x00000000   Number         0  stubs.o ABSOLUTE
    _printf_mbtowc                           0x00000000   Number         0  stubs.o ABSOLUTE
    _printf_n                                0x00000000   Number         0  stubs.o ABSOLUTE
    _printf_o                                0x00000000   Number         0  stubs.o ABSOLUTE
    _printf_p                                0x00000000   Number         0  stubs.o ABSOLUTE
    _printf_percent                          0x00000000   Number         0  stubs.o ABSOLUTE
    _printf_pre_padding                      0x00000000   Number         0  stubs.o ABSOLUTE
    _printf_return_value                     0x00000000   Number         0  stubs.o ABSOLUTE
    _printf_s                                0x00000000   Number         0  stubs.o ABSOLUTE
    _printf_sizespec                         0x00000000   Number         0  stubs.o ABSOLUTE
    _printf_str                              0x00000000   Number         0  stubs.o ABSOLUTE
    _printf_truncate_signed                  0x00000000   Number         0  stubs.o ABSOLUTE
    _printf_truncate_unsigned                0x00000000   Number         0  stubs.o ABSOLUTE
    _printf_u                                0x00000000   Number         0  stubs.o ABSOLUTE
    _printf_wc                               0x00000000   Number         0  stubs.o ABSOLUTE
    _printf_wctomb                           0x00000000   Number         0  stubs.o ABSOLUTE
    _printf_widthprec                        0x00000000   Number         0  stubs.o ABSOLUTE
    _printf_x                                0x00000000   Number         0  stubs.o ABSOLUTE
    __arm_fini_                               - Undefined Weak Reference
    __cpp_initialize__aeabi_                  - Undefined Weak Reference
    __cxa_finalize                            - Undefined Weak Reference
    __decompress                              - Undefined Weak Reference
    _clock_init                               - Undefined Weak Reference
    _microlib_exit                            - Undefined Weak Reference
    __Vectors_Size                           0x000001ac   Number         0  startup_stm32f429xx.o ABSOLUTE
    Image$$ER_IROM1$$Base                    0x08000000   Number         0  anon$$obj.o ABSOLUTE
    __Vectors                                0x08000000   Data           4  startup_stm32f429xx.o(RESET)
    __Vectors_End                            0x080001ac   Data           0  startup_stm32f429xx.o(RESET)
    __main                                   0x080001ad   Thumb Code     0  entry.o(.ARM.Collect$$$$00000000)
    _main_stk                                0x080001ad   Thumb Code     0  entry2.o(.ARM.Collect$$$$00000001)
    _main_scatterload                        0x080001b1   Thumb Code     0  entry5.o(.ARM.Collect$$$$00000004)
    __main_after_scatterload                 0x080001b5   Thumb Code     0  entry5.o(.ARM.Collect$$$$00000004)
    _main_clock                              0x080001b5   Thumb Code     0  entry7b.o(.ARM.Collect$$$$00000008)
    _main_cpp_init                           0x080001b5   Thumb Code     0  entry8b.o(.ARM.Collect$$$$0000000A)
    _main_init                               0x080001b5   Thumb Code     0  entry9a.o(.ARM.Collect$$$$0000000B)
    __rt_lib_shutdown_fini                   0x080001bd   Thumb Code     0  entry12b.o(.ARM.Collect$$$$0000000E)
    __rt_final_cpp                           0x080001c1   Thumb Code     0  entry10a.o(.ARM.Collect$$$$0000000F)
    __rt_final_exit                          0x080001c1   Thumb Code     0  entry11a.o(.ARM.Collect$$$$00000011)
    __asm___7_board_c_BSP_Init__cmb_get_msp  0x080001c5   Thumb Code     6  board.o(.emb_text)
    __asm___7_board_c_BSP_Init__cmb_get_psp  0x080001cb   Thumb Code     6  board.o(.emb_text)
    __asm___7_board_c_BSP_Init__cmb_get_sp   0x080001d1   Thumb Code     4  board.o(.emb_text)
    MSR_MSP                                  0x080001d5   Thumb Code     6  device_update.o(.emb_text)
    SVC_Handler                              0x080001dd   Thumb Code    28  port.o(.emb_text)
    __asm___6_port_c_39a90d8d__prvStartFirstTask 0x080001fd   Thumb Code    28  port.o(.emb_text)
    __asm___6_port_c_39a90d8d__prvEnableVFP  0x0800021d   Thumb Code    16  port.o(.emb_text)
    PendSV_Handler                           0x08000231   Thumb Code    88  port.o(.emb_text)
    vPortGetIPSR                             0x0800028d   Thumb Code     6  port.o(.emb_text)
    Reset_Handler                            0x08000295   Thumb Code     8  startup_stm32f429xx.o(.text)
    ADC_IRQHandler                           0x080002af   Thumb Code     0  startup_stm32f429xx.o(.text)
    CAN1_RX0_IRQHandler                      0x080002af   Thumb Code     0  startup_stm32f429xx.o(.text)
    CAN1_RX1_IRQHandler                      0x080002af   Thumb Code     0  startup_stm32f429xx.o(.text)
    CAN1_SCE_IRQHandler                      0x080002af   Thumb Code     0  startup_stm32f429xx.o(.text)
    CAN1_TX_IRQHandler                       0x080002af   Thumb Code     0  startup_stm32f429xx.o(.text)
    CAN2_RX0_IRQHandler                      0x080002af   Thumb Code     0  startup_stm32f429xx.o(.text)
    CAN2_RX1_IRQHandler                      0x080002af   Thumb Code     0  startup_stm32f429xx.o(.text)
    CAN2_SCE_IRQHandler                      0x080002af   Thumb Code     0  startup_stm32f429xx.o(.text)
    CAN2_TX_IRQHandler                       0x080002af   Thumb Code     0  startup_stm32f429xx.o(.text)
    DCMI_IRQHandler                          0x080002af   Thumb Code     0  startup_stm32f429xx.o(.text)
    DMA1_Stream0_IRQHandler                  0x080002af   Thumb Code     0  startup_stm32f429xx.o(.text)
    DMA1_Stream2_IRQHandler                  0x080002af   Thumb Code     0  startup_stm32f429xx.o(.text)
    DMA1_Stream3_IRQHandler                  0x080002af   Thumb Code     0  startup_stm32f429xx.o(.text)
    DMA1_Stream4_IRQHandler                  0x080002af   Thumb Code     0  startup_stm32f429xx.o(.text)
    DMA1_Stream7_IRQHandler                  0x080002af   Thumb Code     0  startup_stm32f429xx.o(.text)
    DMA2D_IRQHandler                         0x080002af   Thumb Code     0  startup_stm32f429xx.o(.text)
    DMA2_Stream0_IRQHandler                  0x080002af   Thumb Code     0  startup_stm32f429xx.o(.text)
    DMA2_Stream3_IRQHandler                  0x080002af   Thumb Code     0  startup_stm32f429xx.o(.text)
    DMA2_Stream4_IRQHandler                  0x080002af   Thumb Code     0  startup_stm32f429xx.o(.text)
    DMA2_Stream5_IRQHandler                  0x080002af   Thumb Code     0  startup_stm32f429xx.o(.text)
    ETH_IRQHandler                           0x080002af   Thumb Code     0  startup_stm32f429xx.o(.text)
    ETH_WKUP_IRQHandler                      0x080002af   Thumb Code     0  startup_stm32f429xx.o(.text)
    EXTI0_IRQHandler                         0x080002af   Thumb Code     0  startup_stm32f429xx.o(.text)
    EXTI15_10_IRQHandler                     0x080002af   Thumb Code     0  startup_stm32f429xx.o(.text)
    EXTI1_IRQHandler                         0x080002af   Thumb Code     0  startup_stm32f429xx.o(.text)
    EXTI2_IRQHandler                         0x080002af   Thumb Code     0  startup_stm32f429xx.o(.text)
    EXTI3_IRQHandler                         0x080002af   Thumb Code     0  startup_stm32f429xx.o(.text)
    EXTI4_IRQHandler                         0x080002af   Thumb Code     0  startup_stm32f429xx.o(.text)
    EXTI9_5_IRQHandler                       0x080002af   Thumb Code     0  startup_stm32f429xx.o(.text)
    FLASH_IRQHandler                         0x080002af   Thumb Code     0  startup_stm32f429xx.o(.text)
    FMC_IRQHandler                           0x080002af   Thumb Code     0  startup_stm32f429xx.o(.text)
    FPU_IRQHandler                           0x080002af   Thumb Code     0  startup_stm32f429xx.o(.text)
    HASH_RNG_IRQHandler                      0x080002af   Thumb Code     0  startup_stm32f429xx.o(.text)
    I2C1_ER_IRQHandler                       0x080002af   Thumb Code     0  startup_stm32f429xx.o(.text)
    I2C1_EV_IRQHandler                       0x080002af   Thumb Code     0  startup_stm32f429xx.o(.text)
    I2C2_ER_IRQHandler                       0x080002af   Thumb Code     0  startup_stm32f429xx.o(.text)
    I2C2_EV_IRQHandler                       0x080002af   Thumb Code     0  startup_stm32f429xx.o(.text)
    I2C3_ER_IRQHandler                       0x080002af   Thumb Code     0  startup_stm32f429xx.o(.text)
    I2C3_EV_IRQHandler                       0x080002af   Thumb Code     0  startup_stm32f429xx.o(.text)
    LTDC_ER_IRQHandler                       0x080002af   Thumb Code     0  startup_stm32f429xx.o(.text)
    LTDC_IRQHandler                          0x080002af   Thumb Code     0  startup_stm32f429xx.o(.text)
    OTG_FS_IRQHandler                        0x080002af   Thumb Code     0  startup_stm32f429xx.o(.text)
    OTG_FS_WKUP_IRQHandler                   0x080002af   Thumb Code     0  startup_stm32f429xx.o(.text)
    OTG_HS_EP1_IN_IRQHandler                 0x080002af   Thumb Code     0  startup_stm32f429xx.o(.text)
    OTG_HS_EP1_OUT_IRQHandler                0x080002af   Thumb Code     0  startup_stm32f429xx.o(.text)
    OTG_HS_IRQHandler                        0x080002af   Thumb Code     0  startup_stm32f429xx.o(.text)
    OTG_HS_WKUP_IRQHandler                   0x080002af   Thumb Code     0  startup_stm32f429xx.o(.text)
    PVD_IRQHandler                           0x080002af   Thumb Code     0  startup_stm32f429xx.o(.text)
    RCC_IRQHandler                           0x080002af   Thumb Code     0  startup_stm32f429xx.o(.text)
    RTC_Alarm_IRQHandler                     0x080002af   Thumb Code     0  startup_stm32f429xx.o(.text)
    RTC_WKUP_IRQHandler                      0x080002af   Thumb Code     0  startup_stm32f429xx.o(.text)
    SAI1_IRQHandler                          0x080002af   Thumb Code     0  startup_stm32f429xx.o(.text)
    SDIO_IRQHandler                          0x080002af   Thumb Code     0  startup_stm32f429xx.o(.text)
    SPI1_IRQHandler                          0x080002af   Thumb Code     0  startup_stm32f429xx.o(.text)
    SPI2_IRQHandler                          0x080002af   Thumb Code     0  startup_stm32f429xx.o(.text)
    SPI3_IRQHandler                          0x080002af   Thumb Code     0  startup_stm32f429xx.o(.text)
    SPI4_IRQHandler                          0x080002af   Thumb Code     0  startup_stm32f429xx.o(.text)
    SPI5_IRQHandler                          0x080002af   Thumb Code     0  startup_stm32f429xx.o(.text)
    SPI6_IRQHandler                          0x080002af   Thumb Code     0  startup_stm32f429xx.o(.text)
    TAMP_STAMP_IRQHandler                    0x080002af   Thumb Code     0  startup_stm32f429xx.o(.text)
    TIM1_BRK_TIM9_IRQHandler                 0x080002af   Thumb Code     0  startup_stm32f429xx.o(.text)
    TIM1_CC_IRQHandler                       0x080002af   Thumb Code     0  startup_stm32f429xx.o(.text)
    TIM1_TRG_COM_TIM11_IRQHandler            0x080002af   Thumb Code     0  startup_stm32f429xx.o(.text)
    TIM1_UP_TIM10_IRQHandler                 0x080002af   Thumb Code     0  startup_stm32f429xx.o(.text)
    TIM2_IRQHandler                          0x080002af   Thumb Code     0  startup_stm32f429xx.o(.text)
    TIM3_IRQHandler                          0x080002af   Thumb Code     0  startup_stm32f429xx.o(.text)
    TIM4_IRQHandler                          0x080002af   Thumb Code     0  startup_stm32f429xx.o(.text)
    TIM5_IRQHandler                          0x080002af   Thumb Code     0  startup_stm32f429xx.o(.text)
    TIM6_DAC_IRQHandler                      0x080002af   Thumb Code     0  startup_stm32f429xx.o(.text)
    TIM7_IRQHandler                          0x080002af   Thumb Code     0  startup_stm32f429xx.o(.text)
    TIM8_BRK_TIM12_IRQHandler                0x080002af   Thumb Code     0  startup_stm32f429xx.o(.text)
    TIM8_CC_IRQHandler                       0x080002af   Thumb Code     0  startup_stm32f429xx.o(.text)
    TIM8_TRG_COM_TIM14_IRQHandler            0x080002af   Thumb Code     0  startup_stm32f429xx.o(.text)
    TIM8_UP_TIM13_IRQHandler                 0x080002af   Thumb Code     0  startup_stm32f429xx.o(.text)
    UART4_IRQHandler                         0x080002af   Thumb Code     0  startup_stm32f429xx.o(.text)
    UART5_IRQHandler                         0x080002af   Thumb Code     0  startup_stm32f429xx.o(.text)
    UART7_IRQHandler                         0x080002af   Thumb Code     0  startup_stm32f429xx.o(.text)
    UART8_IRQHandler                         0x080002af   Thumb Code     0  startup_stm32f429xx.o(.text)
    WWDG_IRQHandler                          0x080002af   Thumb Code     0  startup_stm32f429xx.o(.text)
    HardFault_Handler                        0x080002b9   Thumb Code    12  cmb_fault.o(.text)
    __aeabi_uldivmod                         0x080002c5   Thumb Code    98  uldiv.o(.text)
    __aeabi_memcpy                           0x08000327   Thumb Code    36  memcpya.o(.text)
    __aeabi_memcpy4                          0x08000327   Thumb Code     0  memcpya.o(.text)
    __aeabi_memcpy8                          0x08000327   Thumb Code     0  memcpya.o(.text)
    __aeabi_memset                           0x0800034b   Thumb Code    14  memseta.o(.text)
    __aeabi_memset4                          0x0800034b   Thumb Code     0  memseta.o(.text)
    __aeabi_memset8                          0x0800034b   Thumb Code     0  memseta.o(.text)
    __aeabi_memclr                           0x08000359   Thumb Code     4  memseta.o(.text)
    __aeabi_memclr4                          0x08000359   Thumb Code     0  memseta.o(.text)
    __aeabi_memclr8                          0x08000359   Thumb Code     0  memseta.o(.text)
    _memset$wrapper                          0x0800035d   Thumb Code    18  memseta.o(.text)
    strncpy                                  0x0800036f   Thumb Code    24  strncpy.o(.text)
    __aeabi_llsl                             0x08000387   Thumb Code    30  llshl.o(.text)
    _ll_shift_l                              0x08000387   Thumb Code     0  llshl.o(.text)
    __aeabi_llsr                             0x080003a5   Thumb Code    32  llushr.o(.text)
    _ll_ushift_r                             0x080003a5   Thumb Code     0  llushr.o(.text)
    __scatterload                            0x080003c5   Thumb Code    28  init.o(.text)
    __scatterload_rt2                        0x080003c5   Thumb Code     0  init.o(.text)
    BSP_Init                                 0x08000409   Thumb Code    70  board.o(i.BSP_Init)
    BusFault_Handler                         0x080004bd   Thumb Code     2  stm32f4xx_it.o(i.BusFault_Handler)
    DMA1_Stream1_IRQHandler                  0x080004c1   Thumb Code     6  usart.o(i.DMA1_Stream1_IRQHandler)
    DMA1_Stream5_IRQHandler                  0x080004cd   Thumb Code     6  usart.o(i.DMA1_Stream5_IRQHandler)
    DMA1_Stream6_IRQHandler                  0x080004d9   Thumb Code     6  usart.o(i.DMA1_Stream6_IRQHandler)
    DMA2_Stream1_IRQHandler                  0x080004e5   Thumb Code     6  usart.o(i.DMA2_Stream1_IRQHandler)
    DMA2_Stream2_IRQHandler                  0x080004f1   Thumb Code     6  usart.o(i.DMA2_Stream2_IRQHandler)
    DMA2_Stream6_IRQHandler                  0x080004fd   Thumb Code     6  usart.o(i.DMA2_Stream6_IRQHandler)
    DMA2_Stream7_IRQHandler                  0x08000509   Thumb Code     6  usart.o(i.DMA2_Stream7_IRQHandler)
    DebugMon_Handler                         0x080005b9   Thumb Code     2  stm32f4xx_it.o(i.DebugMon_Handler)
    EnableUartIT                             0x080005bd   Thumb Code   142  usart.o(i.EnableUartIT)
    FLASH_Erase_Sector                       0x08000661   Thumb Code   206  stm32f4xx_hal_flash_ex.o(i.FLASH_Erase_Sector)
    FLASH_FlushCaches                        0x08000775   Thumb Code    80  stm32f4xx_hal_flash_ex.o(i.FLASH_FlushCaches)
    FLASH_WaitForLastOperation               0x08000b19   Thumb Code    72  stm32f4xx_hal_flash.o(i.FLASH_WaitForLastOperation)
    HAL_DMA_Abort                            0x08000bd5   Thumb Code   142  stm32f4xx_hal_dma.o(i.HAL_DMA_Abort)
    HAL_DMA_Abort_IT                         0x08000c63   Thumb Code    36  stm32f4xx_hal_dma.o(i.HAL_DMA_Abort_IT)
    HAL_DMA_IRQHandler                       0x08000c89   Thumb Code   412  stm32f4xx_hal_dma.o(i.HAL_DMA_IRQHandler)
    HAL_DMA_Init                             0x08000e29   Thumb Code   664  stm32f4xx_hal_dma.o(i.HAL_DMA_Init)
    HAL_DMA_Start_IT                         0x08001109   Thumb Code   152  stm32f4xx_hal_dma.o(i.HAL_DMA_Start_IT)
    HAL_FLASHEx_Erase                        0x080011dd   Thumb Code   192  stm32f4xx_hal_flash_ex.o(i.HAL_FLASHEx_Erase)
    HAL_FLASH_Lock                           0x080012e5   Thumb Code    14  stm32f4xx_hal_flash.o(i.HAL_FLASH_Lock)
    HAL_FLASH_Program                        0x080012f9   Thumb Code   138  stm32f4xx_hal_flash.o(i.HAL_FLASH_Program)
    HAL_FLASH_Unlock                         0x080013c9   Thumb Code    32  stm32f4xx_hal_flash.o(i.HAL_FLASH_Unlock)
    HAL_GPIO_Init                            0x080013f5   Thumb Code   682  stm32f4xx_hal_gpio.o(i.HAL_GPIO_Init)
    HAL_GPIO_WritePin                        0x0800172d   Thumb Code    46  stm32f4xx_hal_gpio.o(i.HAL_GPIO_WritePin)
    HAL_GetTick                              0x08001799   Thumb Code     6  stm32f4xx_hal.o(i.HAL_GetTick)
    HAL_IncTick                              0x080017a5   Thumb Code    12  stm32f4xx_hal.o(i.HAL_IncTick)
    HAL_Init                                 0x080017b5   Thumb Code    48  stm32f4xx_hal.o(i.HAL_Init)
    HAL_InitTick                             0x080017e9   Thumb Code    54  stm32f4xx_hal.o(i.HAL_InitTick)
    HAL_MspInit                              0x08001829   Thumb Code     2  stm32f4xx_hal.o(i.HAL_MspInit)
    HAL_NVIC_EnableIRQ                       0x0800182d   Thumb Code    36  stm32f4xx_hal_cortex.o(i.HAL_NVIC_EnableIRQ)
    HAL_NVIC_SetPriority                     0x08001891   Thumb Code    92  stm32f4xx_hal_cortex.o(i.HAL_NVIC_SetPriority)
    HAL_NVIC_SetPriorityGrouping             0x08001931   Thumb Code    58  stm32f4xx_hal_cortex.o(i.HAL_NVIC_SetPriorityGrouping)
    HAL_RCC_ClockConfig                      0x080019b5   Thumb Code   534  stm32f4xx_hal_rcc.o(i.HAL_RCC_ClockConfig)
    HAL_RCC_GetPCLK1Freq                     0x08001c19   Thumb Code    20  stm32f4xx_hal_rcc.o(i.HAL_RCC_GetPCLK1Freq)
    HAL_RCC_GetPCLK2Freq                     0x08001c39   Thumb Code    20  stm32f4xx_hal_rcc.o(i.HAL_RCC_GetPCLK2Freq)
    HAL_RCC_GetSysClockFreq                  0x08001c59   Thumb Code    88  stm32f4xx_hal_rcc.o(i.HAL_RCC_GetSysClockFreq)
    HAL_RCC_OscConfig                        0x08001cbd   Thumb Code  1092  stm32f4xx_hal_rcc.o(i.HAL_RCC_OscConfig)
    HAL_SYSTICK_Config                       0x08002101   Thumb Code    40  stm32f4xx_hal_cortex.o(i.HAL_SYSTICK_Config)
    HAL_UART_DMAStop                         0x08002129   Thumb Code    88  stm32f4xx_hal_uart.o(i.HAL_UART_DMAStop)
    HAL_UART_ErrorCallback                   0x08002181   Thumb Code     2  stm32f4xx_hal_uart.o(i.HAL_UART_ErrorCallback)
    HAL_UART_IRQHandler                      0x08002185   Thumb Code   266  stm32f4xx_hal_uart.o(i.HAL_UART_IRQHandler)
    HAL_UART_Init                            0x08002295   Thumb Code   256  stm32f4xx_hal_uart.o(i.HAL_UART_Init)
    HAL_UART_MspInit                         0x080023f1   Thumb Code   628  usart.o(i.HAL_UART_MspInit)
    HAL_UART_Receive_DMA                     0x08002695   Thumb Code   138  stm32f4xx_hal_uart.o(i.HAL_UART_Receive_DMA)
    HAL_UART_RxCpltCallback                  0x0800272d   Thumb Code     2  stm32f4xx_hal_uart.o(i.HAL_UART_RxCpltCallback)
    HAL_UART_RxHalfCpltCallback              0x0800272f   Thumb Code     2  stm32f4xx_hal_uart.o(i.HAL_UART_RxHalfCpltCallback)
    HAL_UART_Transmit                        0x08002731   Thumb Code   186  stm32f4xx_hal_uart.o(i.HAL_UART_Transmit)
    HAL_UART_TxCpltCallback                  0x080027eb   Thumb Code     2  stm32f4xx_hal_uart.o(i.HAL_UART_TxCpltCallback)
    HAL_USART1_RxCpltCallback                0x080027ed   Thumb Code    64  usart.o(i.HAL_USART1_RxCpltCallback)
    HAL_USART2_RxCpltCallback                0x08002835   Thumb Code    64  usart.o(i.HAL_USART2_RxCpltCallback)
    HAL_USART3_RxCpltCallback                0x0800287d   Thumb Code    90  usart.o(i.HAL_USART3_RxCpltCallback)
    HAL_USART6_RxCpltCallback                0x080028e5   Thumb Code    64  usart.o(i.HAL_USART6_RxCpltCallback)
    LED_GPIO_Config                          0x0800292d   Thumb Code   156  bsp_led.o(i.LED_GPIO_Config)
    MX_DMA_Init                              0x080029d5   Thumb Code   264  dma.o(i.MX_DMA_Init)
    MX_USART1_UART_Init                      0x08002ae1   Thumb Code    32  usart.o(i.MX_USART1_UART_Init)
    MX_USART2_UART_Init                      0x08002b09   Thumb Code    32  usart.o(i.MX_USART2_UART_Init)
    MX_USART3_UART_Init                      0x08002b31   Thumb Code    32  usart.o(i.MX_USART3_UART_Init)
    MX_USART6_UART_Init                      0x08002b59   Thumb Code    32  usart.o(i.MX_USART6_UART_Init)
    MemManage_Handler                        0x08002b81   Thumb Code     2  stm32f4xx_it.o(i.MemManage_Handler)
    NMI_Handler                              0x08002b83   Thumb Code     2  stm32f4xx_it.o(i.NMI_Handler)
    ReadByte                                 0x08002ba5   Thumb Code    12  util.o(i.ReadByte)
    ReadDWord                                0x08002bb1   Thumb Code    34  util.o(i.ReadDWord)
    SysTick_Handler                          0x08002bd3   Thumb Code    42  stm32f4xx_it.o(i.SysTick_Handler)
    SystemInit                               0x08002c85   Thumb Code    66  system_stm32f4xx.o(i.SystemInit)
    USART1_IRQHandler                        0x0800323d   Thumb Code    78  usart.o(i.USART1_IRQHandler)
    USART2_IRQHandler                        0x08003291   Thumb Code    76  usart.o(i.USART2_IRQHandler)
    USART3_IRQHandler                        0x080032e5   Thumb Code    78  usart.o(i.USART3_IRQHandler)
    USART6_IRQHandler                        0x08003339   Thumb Code    78  usart.o(i.USART6_IRQHandler)
    UsageFault_Handler                       0x0800338d   Thumb Code     2  stm32f4xx_it.o(i.UsageFault_Handler)
    __0printf$8                              0x08003391   Thumb Code    22  printf8.o(i.__0printf$8)
    __1printf$8                              0x08003391   Thumb Code     0  printf8.o(i.__0printf$8)
    __2printf                                0x08003391   Thumb Code     0  printf8.o(i.__0printf$8)
    __0sprintf$8                             0x080033b1   Thumb Code    34  printf8.o(i.__0sprintf$8)
    __1sprintf$8                             0x080033b1   Thumb Code     0  printf8.o(i.__0sprintf$8)
    __2sprintf                               0x080033b1   Thumb Code     0  printf8.o(i.__0sprintf$8)
    __scatterload_copy                       0x080033d9   Thumb Code    14  handlers.o(i.__scatterload_copy)
    __scatterload_null                       0x080033e7   Thumb Code     2  handlers.o(i.__scatterload_null)
    __scatterload_zeroinit                   0x080033e9   Thumb Code    14  handlers.o(i.__scatterload_zeroinit)
    app_start_task_init                      0x08003859   Thumb Code    38  app.o(i.app_start_task_init)
    assert_failed                            0x08003899   Thumb Code    24  board.o(i.assert_failed)
    cm_backtrace_assert                      0x080038cd   Thumb Code    64  cm_backtrace.o(i.cm_backtrace_assert)
    cm_backtrace_call_stack                  0x08003945   Thumb Code   150  cm_backtrace.o(i.cm_backtrace_call_stack)
    cm_backtrace_fault                       0x080039e5   Thumb Code   388  cm_backtrace.o(i.cm_backtrace_fault)
    cm_backtrace_firmware_info               0x08003c21   Thumb Code    30  cm_backtrace.o(i.cm_backtrace_firmware_info)
    cm_backtrace_init                        0x08003c4d   Thumb Code    68  cm_backtrace.o(i.cm_backtrace_init)
    device_execurt_start                     0x08003ccd   Thumb Code     8  device_update.o(i.device_execurt_start)
    device_update_init                       0x08003cd9   Thumb Code    40  device_update.o(i.device_update_init)
    fputc                                    0x08004145   Thumb Code    20  usart.o(i.fputc)
    hal_device_update                        0x0800415d   Thumb Code    58  hal_flash.o(i.hal_device_update)
    hal_flash_erase                          0x0800419d   Thumb Code    84  hal_flash.o(i.hal_flash_erase)
    hal_flash_lock                           0x0800423d   Thumb Code     4  hal_flash.o(i.hal_flash_lock)
    hal_read_flash_bytes                     0x08004241   Thumb Code    28  hal_flash.o(i.hal_read_flash_bytes)
    main                                     0x0800430d   Thumb Code    10  main.o(i.main)
    pvPortMalloc                             0x08004bf9   Thumb Code   214  heap_4.o(i.pvPortMalloc)
    pvTaskIncrementMutexHeldCount            0x08004d09   Thumb Code    18  tasks.o(i.pvTaskIncrementMutexHeldCount)
    pxPortInitialiseStack                    0x08004d21   Thumb Code    40  port.o(i.pxPortInitialiseStack)
    uxListRemove                             0x08004de9   Thumb Code    36  list.o(i.uxListRemove)
    vListInitialise                          0x08004e0d   Thumb Code    22  list.o(i.vListInitialise)
    vListInitialiseItem                      0x08004e23   Thumb Code     6  list.o(i.vListInitialiseItem)
    vListInsert                              0x08004e29   Thumb Code    48  list.o(i.vListInsert)
    vListInsertEnd                           0x08004e59   Thumb Code    24  list.o(i.vListInsertEnd)
    vPortEnterCritical                       0x08004e71   Thumb Code    50  port.o(i.vPortEnterCritical)
    vPortExitCritical                        0x08004ee5   Thumb Code    34  port.o(i.vPortExitCritical)
    vPortFree                                0x08004f45   Thumb Code    94  heap_4.o(i.vPortFree)
    vPortSetupTimerInterrupt                 0x08004fdd   Thumb Code    26  port.o(i.vPortSetupTimerInterrupt)
    vPortValidateInterruptPriority           0x08004ffd   Thumb Code    70  port.o(i.vPortValidateInterruptPriority)
    vQueueAddToRegistry                      0x08005085   Thumb Code    32  queue.o(i.vQueueAddToRegistry)
    vQueueWaitForMessageRestricted           0x080050a9   Thumb Code    68  queue.o(i.vQueueWaitForMessageRestricted)
    vTaskDelay                               0x080050ed   Thumb Code    62  tasks.o(i.vTaskDelay)
    vTaskDelete                              0x0800515d   Thumb Code   152  tasks.o(i.vTaskDelete)
    vTaskMissedYield                         0x0800522d   Thumb Code     8  tasks.o(i.vTaskMissedYield)
    vTaskPlaceOnEventList                    0x08005239   Thumb Code    44  tasks.o(i.vTaskPlaceOnEventList)
    vTaskPlaceOnEventListRestricted          0x08005291   Thumb Code    52  tasks.o(i.vTaskPlaceOnEventListRestricted)
    vTaskPriorityInherit                     0x080052f1   Thumb Code   124  tasks.o(i.vTaskPriorityInherit)
    vTaskSetTimeOutState                     0x08005375   Thumb Code    30  tasks.o(i.vTaskSetTimeOutState)
    vTaskStartScheduler                      0x080053c1   Thumb Code    96  tasks.o(i.vTaskStartScheduler)
    vTaskSuspendAll                          0x08005459   Thumb Code    10  tasks.o(i.vTaskSuspendAll)
    vTaskSwitchContext                       0x08005469   Thumb Code    80  tasks.o(i.vTaskSwitchContext)
    xPortStartScheduler                      0x080054e9   Thumb Code   196  port.o(i.xPortStartScheduler)
    xPortSysTickHandler                      0x080055f9   Thumb Code    38  port.o(i.xPortSysTickHandler)
    xQueueGenericCreate                      0x08005625   Thumb Code    78  queue.o(i.xQueueGenericCreate)
    xQueueGenericReceive                     0x080056a5   Thumb Code   348  queue.o(i.xQueueGenericReceive)
    xQueueGenericReset                       0x0800582d   Thumb Code   128  queue.o(i.xQueueGenericReset)
    xQueueGenericSend                        0x080058d9   Thumb Code   350  queue.o(i.xQueueGenericSend)
    xQueueGenericSendFromISR                 0x08005a65   Thumb Code   188  queue.o(i.xQueueGenericSendFromISR)
    xTaskCheckForTimeOut                     0x08005b49   Thumb Code    94  tasks.o(i.xTaskCheckForTimeOut)
    xTaskCreate                              0x08005bd5   Thumb Code    86  tasks.o(i.xTaskCreate)
    xTaskGetSchedulerState                   0x08005c2d   Thumb Code    22  tasks.o(i.xTaskGetSchedulerState)
    xTaskGetTickCount                        0x08005c49   Thumb Code     6  tasks.o(i.xTaskGetTickCount)
    xTaskIncrementTick                       0x08005c55   Thumb Code   188  tasks.o(i.xTaskIncrementTick)
    xTaskPriorityDisinherit                  0x08005d41   Thumb Code   136  tasks.o(i.xTaskPriorityDisinherit)
    xTaskRemoveFromEventList                 0x08005df9   Thumb Code   102  tasks.o(i.xTaskRemoveFromEventList)
    xTaskResumeAll                           0x08005e95   Thumb Code   180  tasks.o(i.xTaskResumeAll)
    xTimerCreate                             0x08005f7d   Thumb Code    74  timers.o(i.xTimerCreate)
    xTimerCreateTimerTask                    0x08005ff5   Thumb Code    58  timers.o(i.xTimerCreateTimerTask)
    xTimerGenericCommand                     0x0800606d   Thumb Code    96  timers.o(i.xTimerGenericCommand)
    AHBPrescTable                            0x080060fc   Data          16  system_stm32f4xx.o(.constdata)
    APBPrescTable                            0x0800610c   Data           8  system_stm32f4xx.o(.constdata)
    Region$$Table$$Base                      0x08006a58   Number         0  anon$$obj.o(Region$$Table)
    Image$$ER_IROM1$$Limit                   0x08006a78   Number         0  anon$$obj.o ABSOLUTE
    Region$$Table$$Limit                     0x08006a78   Number         0  anon$$obj.o(Region$$Table)
    SystemCoreClock                          0x20000000   Data           4  system_stm32f4xx.o(.data)
    uwTickFreq                               0x20000004   Data           1  stm32f4xx_hal.o(.data)
    uwTickPrio                               0x20000008   Data           4  stm32f4xx_hal.o(.data)
    uwTick                                   0x2000000c   Data           4  stm32f4xx_hal.o(.data)
    hal_flash_msg                            0x20000020   Data          48  hal_flash.o(.data)
    pxCurrentTCB                             0x20000050   Data           4  tasks.o(.data)
    __stdout                                 0x200000dc   Data           4  stdout.o(.data)
    pFlash                                   0x200000e0   Data          32  stm32f4xx_hal_flash.o(.bss)
    Usart2type                               0x20000114   Data        1286  usart.o(.bss)
    Usart1type                               0x2000061a   Data        1286  usart.o(.bss)
    Usart3type                               0x20000b20   Data        1286  usart.o(.bss)
    Usart6type                               0x20001026   Data        1286  usart.o(.bss)
    huart1                                   0x2000152c   Data          64  usart.o(.bss)
    huart2                                   0x2000156c   Data          64  usart.o(.bss)
    huart3                                   0x200015ac   Data          64  usart.o(.bss)
    huart6                                   0x200015ec   Data          64  usart.o(.bss)
    hdma_usart1_rx                           0x2000162c   Data          96  usart.o(.bss)
    hdma_usart1_tx                           0x2000168c   Data          96  usart.o(.bss)
    hdma_usart2_rx                           0x200016ec   Data          96  usart.o(.bss)
    hdma_usart2_tx                           0x2000174c   Data          96  usart.o(.bss)
    hdma_usart3_rx                           0x200017ac   Data          96  usart.o(.bss)
    hdma_usart6_rx                           0x2000180c   Data          96  usart.o(.bss)
    hdma_usart6_tx                           0x2000186c   Data          96  usart.o(.bss)
    xQueueRegistry                           0x200018cc   Data         160  queue.o(.bss)
    STACK$$Base                              0x2000adb0   Number         0  startup_stm32f429xx.o(STACK)
    STACK$$Limit                             0x2000b1b0   Number         0  startup_stm32f429xx.o(STACK)
    __initial_sp                             0x2000b1b0   Data           0  startup_stm32f429xx.o(STACK)



==============================================================================

Memory Map of the image

  Image Entry point : 0x080001ad

  Load Region LR_IROM1 (Base: 0x08000000, Size: 0x00006b58, Max: 0x00020000, ABSOLUTE)

    Execution Region ER_IROM1 (Exec base: 0x08000000, Load base: 0x08000000, Size: 0x00006a78, Max: 0x00020000, ABSOLUTE)

    Exec Addr    Load Addr    Size         Type   Attr      Idx    E Section Name        Object

    0x08000000   0x08000000   0x000001ac   Data   RO            3    RESET               startup_stm32f429xx.o
    0x080001ac   0x080001ac   0x00000000   Code   RO         6482  * .ARM.Collect$$$$00000000  mc_w.l(entry.o)
    0x080001ac   0x080001ac   0x00000004   Code   RO         6756    .ARM.Collect$$$$00000001  mc_w.l(entry2.o)
    0x080001b0   0x080001b0   0x00000004   Code   RO         6759    .ARM.Collect$$$$00000004  mc_w.l(entry5.o)
    0x080001b4   0x080001b4   0x00000000   Code   RO         6761    .ARM.Collect$$$$00000008  mc_w.l(entry7b.o)
    0x080001b4   0x080001b4   0x00000000   Code   RO         6763    .ARM.Collect$$$$0000000A  mc_w.l(entry8b.o)
    0x080001b4   0x080001b4   0x00000008   Code   RO         6764    .ARM.Collect$$$$0000000B  mc_w.l(entry9a.o)
    0x080001bc   0x080001bc   0x00000004   Code   RO         6771    .ARM.Collect$$$$0000000E  mc_w.l(entry12b.o)
    0x080001c0   0x080001c0   0x00000000   Code   RO         6766    .ARM.Collect$$$$0000000F  mc_w.l(entry10a.o)
    0x080001c0   0x080001c0   0x00000000   Code   RO         6768    .ARM.Collect$$$$00000011  mc_w.l(entry11a.o)
    0x080001c0   0x080001c0   0x00000004   Code   RO         6757    .ARM.Collect$$$$00002712  mc_w.l(entry2.o)
    0x080001c4   0x080001c4   0x00000010   Code   RO         4595    .emb_text           board.o
    0x080001d4   0x080001d4   0x00000006   Code   RO         4714    .emb_text           device_update.o
    0x080001da   0x080001da   0x00000002   PAD
    0x080001dc   0x080001dc   0x000000b6   Code   RO         6332    .emb_text           port.o
    0x08000292   0x08000292   0x00000002   PAD
    0x08000294   0x08000294   0x00000024   Code   RO            4    .text               startup_stm32f429xx.o
    0x080002b8   0x080002b8   0x0000000c   Code   RO         6478    .text               cmb_fault.o
    0x080002c4   0x080002c4   0x00000062   Code   RO         6485    .text               mc_w.l(uldiv.o)
    0x08000326   0x08000326   0x00000024   Code   RO         6487    .text               mc_w.l(memcpya.o)
    0x0800034a   0x0800034a   0x00000024   Code   RO         6489    .text               mc_w.l(memseta.o)
    0x0800036e   0x0800036e   0x00000018   Code   RO         6491    .text               mc_w.l(strncpy.o)
    0x08000386   0x08000386   0x0000001e   Code   RO         6775    .text               mc_w.l(llshl.o)
    0x080003a4   0x080003a4   0x00000020   Code   RO         6777    .text               mc_w.l(llushr.o)
    0x080003c4   0x080003c4   0x00000024   Code   RO         6790    .text               mc_w.l(init.o)
    0x080003e8   0x080003e8   0x00000020   Code   RO         4667    i.AppTaskCreate     app.o
    0x08000408   0x08000408   0x000000b4   Code   RO         4596    i.BSP_Init          board.o
    0x080004bc   0x080004bc   0x00000002   Code   RO         4502    i.BusFault_Handler  stm32f4xx_it.o
    0x080004be   0x080004be   0x00000002   PAD
    0x080004c0   0x080004c0   0x0000000c   Code   RO         4995    i.DMA1_Stream1_IRQHandler  usart.o
    0x080004cc   0x080004cc   0x0000000c   Code   RO         4996    i.DMA1_Stream5_IRQHandler  usart.o
    0x080004d8   0x080004d8   0x0000000c   Code   RO         4997    i.DMA1_Stream6_IRQHandler  usart.o
    0x080004e4   0x080004e4   0x0000000c   Code   RO         4998    i.DMA2_Stream1_IRQHandler  usart.o
    0x080004f0   0x080004f0   0x0000000c   Code   RO         4999    i.DMA2_Stream2_IRQHandler  usart.o
    0x080004fc   0x080004fc   0x0000000c   Code   RO         5000    i.DMA2_Stream6_IRQHandler  usart.o
    0x08000508   0x08000508   0x0000000c   Code   RO         5001    i.DMA2_Stream7_IRQHandler  usart.o
    0x08000514   0x08000514   0x00000028   Code   RO         2354    i.DMA_CalcBaseAndBitshift  stm32f4xx_hal_dma.o
    0x0800053c   0x0800053c   0x00000054   Code   RO         2355    i.DMA_CheckFifoParam  stm32f4xx_hal_dma.o
    0x08000590   0x08000590   0x00000028   Code   RO         2356    i.DMA_SetConfig     stm32f4xx_hal_dma.o
    0x080005b8   0x080005b8   0x00000002   Code   RO         4503    i.DebugMon_Handler  stm32f4xx_it.o
    0x080005ba   0x080005ba   0x00000002   PAD
    0x080005bc   0x080005bc   0x000000a4   Code   RO         5002    i.EnableUartIT      usart.o
    0x08000660   0x08000660   0x00000114   Code   RO         2155    i.FLASH_Erase_Sector  stm32f4xx_hal_flash_ex.o
    0x08000774   0x08000774   0x00000054   Code   RO         2156    i.FLASH_FlushCaches  stm32f4xx_hal_flash_ex.o
    0x080007c8   0x080007c8   0x000000b4   Code   RO         2157    i.FLASH_MassErase   stm32f4xx_hal_flash_ex.o
    0x0800087c   0x0800087c   0x00000084   Code   RO         2037    i.FLASH_Program_Byte  stm32f4xx_hal_flash.o
    0x08000900   0x08000900   0x0000008c   Code   RO         2038    i.FLASH_Program_DoubleWord  stm32f4xx_hal_flash.o
    0x0800098c   0x0800098c   0x00000088   Code   RO         2039    i.FLASH_Program_HalfWord  stm32f4xx_hal_flash.o
    0x08000a14   0x08000a14   0x00000088   Code   RO         2040    i.FLASH_Program_Word  stm32f4xx_hal_flash.o
    0x08000a9c   0x08000a9c   0x0000007c   Code   RO         2041    i.FLASH_SetErrorCode  stm32f4xx_hal_flash.o
    0x08000b18   0x08000b18   0x00000050   Code   RO         2042    i.FLASH_WaitForLastOperation  stm32f4xx_hal_flash.o
    0x08000b68   0x08000b68   0x0000006c   Code   RO         4597    i.GPIO_CLK_Init     board.o
    0x08000bd4   0x08000bd4   0x0000008e   Code   RO         2357    i.HAL_DMA_Abort     stm32f4xx_hal_dma.o
    0x08000c62   0x08000c62   0x00000024   Code   RO         2358    i.HAL_DMA_Abort_IT  stm32f4xx_hal_dma.o
    0x08000c86   0x08000c86   0x00000002   PAD
    0x08000c88   0x08000c88   0x000001a0   Code   RO         2362    i.HAL_DMA_IRQHandler  stm32f4xx_hal_dma.o
    0x08000e28   0x08000e28   0x000002e0   Code   RO         2363    i.HAL_DMA_Init      stm32f4xx_hal_dma.o
    0x08001108   0x08001108   0x000000d4   Code   RO         2367    i.HAL_DMA_Start_IT  stm32f4xx_hal_dma.o
    0x080011dc   0x080011dc   0x00000108   Code   RO         2165    i.HAL_FLASHEx_Erase  stm32f4xx_hal_flash_ex.o
    0x080012e4   0x080012e4   0x00000014   Code   RO         2046    i.HAL_FLASH_Lock    stm32f4xx_hal_flash.o
    0x080012f8   0x080012f8   0x000000d0   Code   RO         2051    i.HAL_FLASH_Program  stm32f4xx_hal_flash.o
    0x080013c8   0x080013c8   0x0000002c   Code   RO         2053    i.HAL_FLASH_Unlock  stm32f4xx_hal_flash.o
    0x080013f4   0x080013f4   0x00000338   Code   RO         2291    i.HAL_GPIO_Init     stm32f4xx_hal_gpio.o
    0x0800172c   0x0800172c   0x0000006c   Code   RO         2295    i.HAL_GPIO_WritePin  stm32f4xx_hal_gpio.o
    0x08001798   0x08001798   0x0000000c   Code   RO         2802    i.HAL_GetTick       stm32f4xx_hal.o
    0x080017a4   0x080017a4   0x00000010   Code   RO         2806    i.HAL_IncTick       stm32f4xx_hal.o
    0x080017b4   0x080017b4   0x00000034   Code   RO         2807    i.HAL_Init          stm32f4xx_hal.o
    0x080017e8   0x080017e8   0x00000040   Code   RO         2808    i.HAL_InitTick      stm32f4xx_hal.o
    0x08001828   0x08001828   0x00000002   Code   RO         2810    i.HAL_MspInit       stm32f4xx_hal.o
    0x0800182a   0x0800182a   0x00000002   PAD
    0x0800182c   0x0800182c   0x00000064   Code   RO         2657    i.HAL_NVIC_EnableIRQ  stm32f4xx_hal_cortex.o
    0x08001890   0x08001890   0x000000a0   Code   RO         2663    i.HAL_NVIC_SetPriority  stm32f4xx_hal_cortex.o
    0x08001930   0x08001930   0x00000084   Code   RO         2664    i.HAL_NVIC_SetPriorityGrouping  stm32f4xx_hal_cortex.o
    0x080019b4   0x080019b4   0x00000264   Code   RO         1870    i.HAL_RCC_ClockConfig  stm32f4xx_hal_rcc.o
    0x08001c18   0x08001c18   0x00000020   Code   RO         1877    i.HAL_RCC_GetPCLK1Freq  stm32f4xx_hal_rcc.o
    0x08001c38   0x08001c38   0x00000020   Code   RO         1878    i.HAL_RCC_GetPCLK2Freq  stm32f4xx_hal_rcc.o
    0x08001c58   0x08001c58   0x00000064   Code   RO         1879    i.HAL_RCC_GetSysClockFreq  stm32f4xx_hal_rcc.o
    0x08001cbc   0x08001cbc   0x00000444   Code   RO         1882    i.HAL_RCC_OscConfig  stm32f4xx_hal_rcc.o
    0x08002100   0x08002100   0x00000028   Code   RO         2668    i.HAL_SYSTICK_Config  stm32f4xx_hal_cortex.o
    0x08002128   0x08002128   0x00000058   Code   RO         1562    i.HAL_UART_DMAStop  stm32f4xx_hal_uart.o
    0x08002180   0x08002180   0x00000002   Code   RO         1564    i.HAL_UART_ErrorCallback  stm32f4xx_hal_uart.o
    0x08002182   0x08002182   0x00000002   PAD
    0x08002184   0x08002184   0x00000110   Code   RO         1567    i.HAL_UART_IRQHandler  stm32f4xx_hal_uart.o
    0x08002294   0x08002294   0x0000015c   Code   RO         1568    i.HAL_UART_Init     stm32f4xx_hal_uart.o
    0x080023f0   0x080023f0   0x000002a4   Code   RO         5004    i.HAL_UART_MspInit  usart.o
    0x08002694   0x08002694   0x00000098   Code   RO         1572    i.HAL_UART_Receive_DMA  stm32f4xx_hal_uart.o
    0x0800272c   0x0800272c   0x00000002   Code   RO         1574    i.HAL_UART_RxCpltCallback  stm32f4xx_hal_uart.o
    0x0800272e   0x0800272e   0x00000002   Code   RO         1575    i.HAL_UART_RxHalfCpltCallback  stm32f4xx_hal_uart.o
    0x08002730   0x08002730   0x000000ba   Code   RO         1576    i.HAL_UART_Transmit  stm32f4xx_hal_uart.o
    0x080027ea   0x080027ea   0x00000002   Code   RO         1579    i.HAL_UART_TxCpltCallback  stm32f4xx_hal_uart.o
    0x080027ec   0x080027ec   0x00000048   Code   RO         5005    i.HAL_USART1_RxCpltCallback  usart.o
    0x08002834   0x08002834   0x00000048   Code   RO         5006    i.HAL_USART2_RxCpltCallback  usart.o
    0x0800287c   0x0800287c   0x00000068   Code   RO         5007    i.HAL_USART3_RxCpltCallback  usart.o
    0x080028e4   0x080028e4   0x00000048   Code   RO         5008    i.HAL_USART6_RxCpltCallback  usart.o
    0x0800292c   0x0800292c   0x000000a8   Code   RO         4571    i.LED_GPIO_Config   bsp_led.o
    0x080029d4   0x080029d4   0x0000010c   Code   RO         5172    i.MX_DMA_Init       dma.o
    0x08002ae0   0x08002ae0   0x00000028   Code   RO         5009    i.MX_USART1_UART_Init  usart.o
    0x08002b08   0x08002b08   0x00000028   Code   RO         5010    i.MX_USART2_UART_Init  usart.o
    0x08002b30   0x08002b30   0x00000028   Code   RO         5011    i.MX_USART3_UART_Init  usart.o
    0x08002b58   0x08002b58   0x00000028   Code   RO         5012    i.MX_USART6_UART_Init  usart.o
    0x08002b80   0x08002b80   0x00000002   Code   RO         4504    i.MemManage_Handler  stm32f4xx_it.o
    0x08002b82   0x08002b82   0x00000002   Code   RO         4505    i.NMI_Handler       stm32f4xx_it.o
    0x08002b84   0x08002b84   0x00000020   Code   RO         2670    i.NVIC_SetPriority  stm32f4xx_hal_cortex.o
    0x08002ba4   0x08002ba4   0x0000000c   Code   RO         5358    i.ReadByte          util.o
    0x08002bb0   0x08002bb0   0x00000022   Code   RO         5360    i.ReadDWord         util.o
    0x08002bd2   0x08002bd2   0x0000002a   Code   RO         4506    i.SysTick_Handler   stm32f4xx_it.o
    0x08002bfc   0x08002bfc   0x00000088   Code   RO         4598    i.SystemClock_Config  board.o
    0x08002c84   0x08002c84   0x00000054   Code   RO           14    i.SystemInit        system_stm32f4xx.o
    0x08002cd8   0x08002cd8   0x00000010   Code   RO         1581    i.UART_DMAAbortOnError  stm32f4xx_hal_uart.o
    0x08002ce8   0x08002ce8   0x0000004a   Code   RO         1582    i.UART_DMAError     stm32f4xx_hal_uart.o
    0x08002d32   0x08002d32   0x0000003c   Code   RO         1583    i.UART_DMAReceiveCplt  stm32f4xx_hal_uart.o
    0x08002d6e   0x08002d6e   0x0000000a   Code   RO         1585    i.UART_DMARxHalfCplt  stm32f4xx_hal_uart.o
    0x08002d78   0x08002d78   0x0000001c   Code   RO         1591    i.UART_EndRxTransfer  stm32f4xx_hal_uart.o
    0x08002d94   0x08002d94   0x00000012   Code   RO         1592    i.UART_EndTxTransfer  stm32f4xx_hal_uart.o
    0x08002da6   0x08002da6   0x0000008c   Code   RO         1593    i.UART_Receive_IT   stm32f4xx_hal_uart.o
    0x08002e32   0x08002e32   0x00000002   PAD
    0x08002e34   0x08002e34   0x00000344   Code   RO         1594    i.UART_SetConfig    stm32f4xx_hal_uart.o
    0x08003178   0x08003178   0x00000062   Code   RO         1595    i.UART_Transmit_IT  stm32f4xx_hal_uart.o
    0x080031da   0x080031da   0x00000062   Code   RO         1596    i.UART_WaitOnFlagUntilTimeout  stm32f4xx_hal_uart.o
    0x0800323c   0x0800323c   0x00000054   Code   RO         5013    i.USART1_IRQHandler  usart.o
    0x08003290   0x08003290   0x00000054   Code   RO         5014    i.USART2_IRQHandler  usart.o
    0x080032e4   0x080032e4   0x00000054   Code   RO         5015    i.USART3_IRQHandler  usart.o
    0x08003338   0x08003338   0x00000054   Code   RO         5016    i.USART6_IRQHandler  usart.o
    0x0800338c   0x0800338c   0x00000002   Code   RO         4507    i.UsageFault_Handler  stm32f4xx_it.o
    0x0800338e   0x0800338e   0x00000002   PAD
    0x08003390   0x08003390   0x00000020   Code   RO         6702    i.__0printf$8       mc_w.l(printf8.o)
    0x080033b0   0x080033b0   0x00000028   Code   RO         6704    i.__0sprintf$8      mc_w.l(printf8.o)
    0x080033d8   0x080033d8   0x0000000e   Code   RO         6798    i.__scatterload_copy  mc_w.l(handlers.o)
    0x080033e6   0x080033e6   0x00000002   Code   RO         6799    i.__scatterload_null  mc_w.l(handlers.o)
    0x080033e8   0x080033e8   0x0000000e   Code   RO         6800    i.__scatterload_zeroinit  mc_w.l(handlers.o)
    0x080033f6   0x080033f6   0x00000002   PAD
    0x080033f8   0x080033f8   0x00000404   Code   RO         6709    i._printf_core      mc_w.l(printf8.o)
    0x080037fc   0x080037fc   0x00000024   Code   RO         6710    i._printf_post_padding  mc_w.l(printf8.o)
    0x08003820   0x08003820   0x0000002e   Code   RO         6711    i._printf_pre_padding  mc_w.l(printf8.o)
    0x0800384e   0x0800384e   0x0000000a   Code   RO         6713    i._sputc            mc_w.l(printf8.o)
    0x08003858   0x08003858   0x00000040   Code   RO         4668    i.app_start_task_init  app.o
    0x08003898   0x08003898   0x00000034   Code   RO         4599    i.assert_failed     board.o
    0x080038cc   0x080038cc   0x00000078   Code   RO         6419    i.cm_backtrace_assert  cm_backtrace.o
    0x08003944   0x08003944   0x000000a0   Code   RO         6420    i.cm_backtrace_call_stack  cm_backtrace.o
    0x080039e4   0x080039e4   0x0000023c   Code   RO         6421    i.cm_backtrace_fault  cm_backtrace.o
    0x08003c20   0x08003c20   0x0000002c   Code   RO         6422    i.cm_backtrace_firmware_info  cm_backtrace.o
    0x08003c4c   0x08003c4c   0x0000005c   Code   RO         6423    i.cm_backtrace_init  cm_backtrace.o
    0x08003ca8   0x08003ca8   0x00000022   Code   RO         4715    i.device_app_roll_back  device_update.o
    0x08003cca   0x08003cca   0x00000002   PAD
    0x08003ccc   0x08003ccc   0x0000000c   Code   RO         4716    i.device_execurt_start  device_update.o
    0x08003cd8   0x08003cd8   0x00000080   Code   RO         4717    i.device_update_init  device_update.o
    0x08003d58   0x08003d58   0x000000f0   Code   RO         4718    i.device_update_thread  device_update.o
    0x08003e48   0x08003e48   0x000000bc   Code   RO         6424    i.dump_stack        cm_backtrace.o
    0x08003f04   0x08003f04   0x00000240   Code   RO         6425    i.fault_diagnosis   cm_backtrace.o
    0x08004144   0x08004144   0x00000018   Code   RO         5019    i.fputc             usart.o
    0x0800415c   0x0800415c   0x00000040   Code   RO         4789    i.hal_device_update  hal_flash.o
    0x0800419c   0x0800419c   0x000000a0   Code   RO         4791    i.hal_flash_erase   hal_flash.o
    0x0800423c   0x0800423c   0x00000004   Code   RO         4792    i.hal_flash_lock    hal_flash.o
    0x08004240   0x08004240   0x00000020   Code   RO         4798    i.hal_read_flash_bytes  hal_flash.o
    0x08004260   0x08004260   0x000000ac   Code   RO         4719    i.iap_execute_app   device_update.o
    0x0800430c   0x0800430c   0x0000000a   Code   RO         4421    i.main              main.o
    0x08004316   0x08004316   0x00000002   PAD
    0x08004318   0x08004318   0x0000008c   Code   RO         6426    i.print_call_stack  cm_backtrace.o
    0x080043a4   0x080043a4   0x00000070   Code   RO         5829    i.prvAddCurrentTaskToDelayedList  tasks.o
    0x08004414   0x08004414   0x000000d0   Code   RO         5830    i.prvAddNewTaskToReadyList  tasks.o
    0x080044e4   0x080044e4   0x00000050   Code   RO         6151    i.prvCheckForValidListAndQueue  timers.o
    0x08004534   0x08004534   0x00000054   Code   RO         5831    i.prvCheckTasksWaitingTermination  tasks.o
    0x08004588   0x08004588   0x00000026   Code   RO         5620    i.prvCopyDataFromQueue  queue.o
    0x080045ae   0x080045ae   0x0000006c   Code   RO         5621    i.prvCopyDataToQueue  queue.o
    0x0800461a   0x0800461a   0x00000014   Code   RO         5832    i.prvDeleteTCB      tasks.o
    0x0800462e   0x0800462e   0x00000002   PAD
    0x08004630   0x08004630   0x0000004c   Code   RO         6271    i.prvHeapInit       heap_4.o
    0x0800467c   0x0800467c   0x00000028   Code   RO         5833    i.prvIdleTask       tasks.o
    0x080046a4   0x080046a4   0x000000b8   Code   RO         5834    i.prvInitialiseNewTask  tasks.o
    0x0800475c   0x0800475c   0x0000004c   Code   RO         6272    i.prvInsertBlockIntoFreeList  heap_4.o
    0x080047a8   0x080047a8   0x00000038   Code   RO         6152    i.prvInsertTimerInActiveList  timers.o
    0x080047e0   0x080047e0   0x0000001a   Code   RO         5622    i.prvIsQueueEmpty   queue.o
    0x080047fa   0x080047fa   0x00000002   PAD
    0x080047fc   0x080047fc   0x00000094   Code   RO         5623    i.prvNotifyQueueSetContainer  queue.o
    0x08004890   0x08004890   0x00000060   Code   RO         6153    i.prvProcessExpiredTimer  timers.o
    0x080048f0   0x080048f0   0x000000e8   Code   RO         6154    i.prvProcessReceivedCommands  timers.o
    0x080049d8   0x080049d8   0x0000006c   Code   RO         6155    i.prvProcessTimerOrBlockTask  timers.o
    0x08004a44   0x08004a44   0x00000020   Code   RO         5835    i.prvResetNextTaskUnblockTime  tasks.o
    0x08004a64   0x08004a64   0x00000028   Code   RO         6156    i.prvSampleTimeNow  timers.o
    0x08004a8c   0x08004a8c   0x0000006c   Code   RO         6157    i.prvSwitchTimerLists  timers.o
    0x08004af8   0x08004af8   0x00000060   Code   RO         6333    i.prvTaskExitError  port.o
    0x08004b58   0x08004b58   0x00000028   Code   RO         6158    i.prvTimerTask      timers.o
    0x08004b80   0x08004b80   0x00000078   Code   RO         5624    i.prvUnlockQueue    queue.o
    0x08004bf8   0x08004bf8   0x00000110   Code   RO         6273    i.pvPortMalloc      heap_4.o
    0x08004d08   0x08004d08   0x00000018   Code   RO         5837    i.pvTaskIncrementMutexHeldCount  tasks.o
    0x08004d20   0x08004d20   0x0000002c   Code   RO         6334    i.pxPortInitialiseStack  port.o
    0x08004d4c   0x08004d4c   0x0000009c   Code   RO         4720    i.read_device_start_msg  device_update.o
    0x08004de8   0x08004de8   0x00000024   Code   RO         5571    i.uxListRemove      list.o
    0x08004e0c   0x08004e0c   0x00000016   Code   RO         5572    i.vListInitialise   list.o
    0x08004e22   0x08004e22   0x00000006   Code   RO         5573    i.vListInitialiseItem  list.o
    0x08004e28   0x08004e28   0x00000030   Code   RO         5574    i.vListInsert       list.o
    0x08004e58   0x08004e58   0x00000018   Code   RO         5575    i.vListInsertEnd    list.o
    0x08004e70   0x08004e70   0x00000074   Code   RO         6336    i.vPortEnterCritical  port.o
    0x08004ee4   0x08004ee4   0x00000060   Code   RO         6337    i.vPortExitCritical  port.o
    0x08004f44   0x08004f44   0x00000098   Code   RO         6274    i.vPortFree         heap_4.o
    0x08004fdc   0x08004fdc   0x00000020   Code   RO         6338    i.vPortSetupTimerInterrupt  port.o
    0x08004ffc   0x08004ffc   0x00000088   Code   RO         6339    i.vPortValidateInterruptPriority  port.o
    0x08005084   0x08005084   0x00000024   Code   RO         5628    i.vQueueAddToRegistry  queue.o
    0x080050a8   0x080050a8   0x00000044   Code   RO         5631    i.vQueueWaitForMessageRestricted  queue.o
    0x080050ec   0x080050ec   0x00000070   Code   RO         5843    i.vTaskDelay        tasks.o
    0x0800515c   0x0800515c   0x000000d0   Code   RO         5845    i.vTaskDelete       tasks.o
    0x0800522c   0x0800522c   0x0000000c   Code   RO         5847    i.vTaskMissedYield  tasks.o
    0x08005238   0x08005238   0x00000058   Code   RO         5849    i.vTaskPlaceOnEventList  tasks.o
    0x08005290   0x08005290   0x00000060   Code   RO         5850    i.vTaskPlaceOnEventListRestricted  tasks.o
    0x080052f0   0x080052f0   0x00000084   Code   RO         5852    i.vTaskPriorityInherit  tasks.o
    0x08005374   0x08005374   0x0000004c   Code   RO         5855    i.vTaskSetTimeOutState  tasks.o
    0x080053c0   0x080053c0   0x00000098   Code   RO         5856    i.vTaskStartScheduler  tasks.o
    0x08005458   0x08005458   0x00000010   Code   RO         5858    i.vTaskSuspendAll   tasks.o
    0x08005468   0x08005468   0x00000080   Code   RO         5859    i.vTaskSwitchContext  tasks.o
    0x080054e8   0x080054e8   0x00000110   Code   RO         6340    i.xPortStartScheduler  port.o
    0x080055f8   0x080055f8   0x0000002c   Code   RO         6341    i.xPortSysTickHandler  port.o
    0x08005624   0x08005624   0x00000080   Code   RO         5636    i.xQueueGenericCreate  queue.o
    0x080056a4   0x080056a4   0x00000188   Code   RO         5637    i.xQueueGenericReceive  queue.o
    0x0800582c   0x0800582c   0x000000ac   Code   RO         5638    i.xQueueGenericReset  queue.o
    0x080058d8   0x080058d8   0x0000018c   Code   RO         5639    i.xQueueGenericSend  queue.o
    0x08005a64   0x08005a64   0x000000e4   Code   RO         5640    i.xQueueGenericSendFromISR  queue.o
    0x08005b48   0x08005b48   0x0000008c   Code   RO         5860    i.xTaskCheckForTimeOut  tasks.o
    0x08005bd4   0x08005bd4   0x00000056   Code   RO         5861    i.xTaskCreate       tasks.o
    0x08005c2a   0x08005c2a   0x00000002   PAD
    0x08005c2c   0x08005c2c   0x0000001c   Code   RO         5865    i.xTaskGetSchedulerState  tasks.o
    0x08005c48   0x08005c48   0x0000000c   Code   RO         5866    i.xTaskGetTickCount  tasks.o
    0x08005c54   0x08005c54   0x000000ec   Code   RO         5868    i.xTaskIncrementTick  tasks.o
    0x08005d40   0x08005d40   0x000000b8   Code   RO         5871    i.xTaskPriorityDisinherit  tasks.o
    0x08005df8   0x08005df8   0x0000009c   Code   RO         5872    i.xTaskRemoveFromEventList  tasks.o
    0x08005e94   0x08005e94   0x000000e8   Code   RO         5874    i.xTaskResumeAll    tasks.o
    0x08005f7c   0x08005f7c   0x00000078   Code   RO         6161    i.xTimerCreate      timers.o
    0x08005ff4   0x08005ff4   0x00000078   Code   RO         6162    i.xTimerCreateTimerTask  timers.o
    0x0800606c   0x0800606c   0x00000090   Code   RO         6163    i.xTimerGenericCommand  timers.o
    0x080060fc   0x080060fc   0x00000010   Data   RO           15    .constdata          system_stm32f4xx.o
    0x0800610c   0x0800610c   0x00000008   Data   RO           16    .constdata          system_stm32f4xx.o
    0x08006114   0x08006114   0x00000008   Data   RO         2369    .constdata          stm32f4xx_hal_dma.o
    0x0800611c   0x0800611c   0x000000dc   Data   RO         6428    .constdata          cm_backtrace.o
    0x080061f8   0x080061f8   0x00000045   Data   RO         4802    .conststring        hal_flash.o
    0x0800623d   0x0800623d   0x00000003   PAD
    0x08006240   0x08006240   0x00000815   Data   RO         6429    .conststring        cm_backtrace.o
    0x08006a55   0x08006a55   0x00000003   PAD
    0x08006a58   0x08006a58   0x00000020   Data   RO         6796    Region$$Table       anon$$obj.o


    Execution Region RW_IRAM1 (Exec base: 0x20000000, Load base: 0x08006a78, Size: 0x0000b1b0, Max: 0x00030000, ABSOLUTE)

    Exec Addr    Load Addr    Size         Type   Attr      Idx    E Section Name        Object

    0x20000000   0x08006a78   0x00000004   Data   RW           17    .data               system_stm32f4xx.o
    0x20000004   0x08006a7c   0x0000000c   Data   RW         2814    .data               stm32f4xx_hal.o
    0x20000010   0x08006a88   0x00000004   Data   RW         4669    .data               app.o
    0x20000014   0x08006a8c   0x0000000c   Data   RW         4721    .data               device_update.o
    0x20000020   0x08006a98   0x00000030   Data   RW         4803    .data               hal_flash.o
    0x20000050   0x08006ac8   0x0000003c   Data   RW         5877    .data               tasks.o
    0x2000008c   0x08006b04   0x00000014   Data   RW         6169    .data               timers.o
    0x200000a0   0x08006b18   0x00000018   Data   RW         6279    .data               heap_4.o
    0x200000b8   0x08006b30   0x0000000c   Data   RW         6342    .data               port.o
    0x200000c4   0x08006b3c   0x00000018   Data   RW         6430    .data               cm_backtrace.o
    0x200000dc   0x08006b54   0x00000004   Data   RW         6772    .data               mc_w.l(stdout.o)
    0x200000e0        -       0x00000020   Zero   RW         2054    .bss                stm32f4xx_hal_flash.o
    0x20000100        -       0x00000014   Zero   RW         4801    .bss                hal_flash.o
    0x20000114        -       0x000017b8   Zero   RW         5020    .bss                usart.o
    0x200018cc        -       0x000000a0   Zero   RW         5651    .bss                queue.o
    0x2000196c        -       0x000002e4   Zero   RW         5876    .bss                tasks.o
    0x20001c50        -       0x00000028   Zero   RW         6168    .bss                timers.o
    0x20001c78        -       0x00009000   Zero   RW         6278    .bss                heap_4.o
    0x2000ac78        -       0x00000134   Zero   RW         6427    .bss                cm_backtrace.o
    0x2000adac   0x08006b58   0x00000004   PAD
    0x2000adb0        -       0x00000400   Zero   RW            1    STACK               startup_stm32f429xx.o


==============================================================================

Image component sizes


      Code (inc. data)   RO Data    RW Data    ZI Data      Debug   Object Name

        96         32          0          4          0       1362   app.o
       492        154          0          0          0       6907   board.o
       168         12          0          0          0       1090   bsp_led.o
      1892        412       2289         24        308       9620   cm_backtrace.o
        12          0          0          0          0        484   cmb_fault.o
       748        398          0         12          0      10188   device_update.o
       268          4          0          0          0       1014   dma.o
         0          0          0          0          0       2436   event_groups.o
       260         86         69         48         20       6214   hal_flash.o
       576        130          0         24      36864       4251   heap_4.o
       136          0          0          0          0       3414   list.o
        10          0          0          0          0      13079   main.o
      1018        362          0         12          0      11089   port.o
      1860        268          0          0        160      13805   queue.o
        36          8        428          0       1024       1000   startup_stm32f429xx.o
       146         24          0         12          0       4743   stm32f4xx_hal.o
       464        206          0          0          0      30799   stm32f4xx_hal_cortex.o
      1706        142          8          0          0       7946   stm32f4xx_hal_dma.o
      1020        384          0          0         32       6874   stm32f4xx_hal_flash.o
       804        216          0          0          0       4402   stm32f4xx_hal_flash_ex.o
       932        204          0          0          0       2848   stm32f4xx_hal_gpio.o
      1868        194          0          0          0       5744   stm32f4xx_hal_rcc.o
      2432        186          0          0          0      15223   stm32f4xx_hal_uart.o
        52          0          0          0          0      11227   stm32f4xx_it.o
        84         18         24          4          0     727739   system_stm32f4xx.o
      2798        724          0         60        740      30707   tasks.o
      1144        276          0         20         40      10326   timers.o
      1764        212          0          0       6072      16691   usart.o
        46          0          0          0          0       3199   util.o

    ----------------------------------------------------------------------
     22860       4652       2856        220      45264     964421   Object Totals
         0          0         32          0          0          0   (incl. Generated)
        28          0          6          0          4          0   (incl. Padding)

    ----------------------------------------------------------------------

      Code (inc. data)   RO Data    RW Data    ZI Data      Debug   Library Member Name

         0          0          0          0          0          0   entry.o
         0          0          0          0          0          0   entry10a.o
         0          0          0          0          0          0   entry11a.o
         4          0          0          0          0          0   entry12b.o
         8          4          0          0          0          0   entry2.o
         4          0          0          0          0          0   entry5.o
         0          0          0          0          0          0   entry7b.o
         0          0          0          0          0          0   entry8b.o
         8          4          0          0          0          0   entry9a.o
        30          0          0          0          0          0   handlers.o
        36          8          0          0          0         68   init.o
        30          0          0          0          0         68   llshl.o
        32          0          0          0          0         68   llushr.o
        36          0          0          0          0         68   memcpya.o
        36          0          0          0          0        108   memseta.o
      1192         60          0          0          0        504   printf8.o
         0          0          0          4          0          0   stdout.o
        24          0          0          0          0         76   strncpy.o
        98          0          0          0          0         92   uldiv.o

    ----------------------------------------------------------------------
      1540         76          0          4          0       1052   Library Totals
         2          0          0          0          0          0   (incl. Padding)

    ----------------------------------------------------------------------

      Code (inc. data)   RO Data    RW Data    ZI Data      Debug   Library Name

      1538         76          0          4          0       1052   mc_w.l

    ----------------------------------------------------------------------
      1540         76          0          4          0       1052   Library Totals

    ----------------------------------------------------------------------

==============================================================================


      Code (inc. data)   RO Data    RW Data    ZI Data      Debug   

     24400       4728       2856        224      45264     947357   Grand Totals
     24400       4728       2856        224      45264     947357   ELF Image Totals
     24400       4728       2856        224          0          0   ROM Totals

==============================================================================

    Total RO  Size (Code + RO Data)                27256 (  26.62kB)
    Total RW  Size (RW Data + ZI Data)             45488 (  44.42kB)
    Total ROM Size (Code + RO Data + RW Data)      27480 (  26.84kB)

==============================================================================

