Component: ARM Compiler 5.06 update 7 (build 960) Tool: armlink [4d3601]

==============================================================================

Section Cross References

    startup_stm32f429xx.o(RESET) refers to startup_stm32f429xx.o(STACK) for __initial_sp
    startup_stm32f429xx.o(RESET) refers to startup_stm32f429xx.o(.text) for Reset_Handler
    startup_stm32f429xx.o(RESET) refers to stm32f4xx_it.o(i.NMI_Handler) for NMI_Handler
    startup_stm32f429xx.o(RESET) refers to cmb_fault.o(.text) for HardFault_Handler
    startup_stm32f429xx.o(RESET) refers to stm32f4xx_it.o(i.MemManage_Handler) for MemManage_Handler
    startup_stm32f429xx.o(RESET) refers to stm32f4xx_it.o(i.BusFault_Handler) for BusFault_Handler
    startup_stm32f429xx.o(RESET) refers to stm32f4xx_it.o(i.UsageFault_Handler) for UsageFault_Handler
    startup_stm32f429xx.o(RESET) refers to port.o(.emb_text) for SVC_Handler
    startup_stm32f429xx.o(RESET) refers to stm32f4xx_it.o(i.DebugMon_Handler) for DebugMon_Handler
    startup_stm32f429xx.o(RESET) refers to stm32f4xx_it.o(i.SysTick_Handler) for SysTick_Handler
    startup_stm32f429xx.o(RESET) refers to usart.o(i.DMA1_Stream1_IRQHandler) for DMA1_Stream1_IRQHandler
    startup_stm32f429xx.o(RESET) refers to spi.o(i.DMA1_Stream2_IRQHandler) for DMA1_Stream2_IRQHandler
    startup_stm32f429xx.o(RESET) refers to spi.o(i.DMA1_Stream3_IRQHandler) for DMA1_Stream3_IRQHandler
    startup_stm32f429xx.o(RESET) refers to spi.o(i.DMA1_Stream4_IRQHandler) for DMA1_Stream4_IRQHandler
    startup_stm32f429xx.o(RESET) refers to usart.o(i.DMA1_Stream5_IRQHandler) for DMA1_Stream5_IRQHandler
    startup_stm32f429xx.o(RESET) refers to usart.o(i.DMA1_Stream6_IRQHandler) for DMA1_Stream6_IRQHandler
    startup_stm32f429xx.o(RESET) refers to spi.o(i.SPI1_IRQHandler) for SPI1_IRQHandler
    startup_stm32f429xx.o(RESET) refers to spi.o(i.SPI2_IRQHandler) for SPI2_IRQHandler
==============================================================================

Removing Unused input sections from the image.

    Removing startup_stm32f429xx.o(HEAP), (512 bytes).
    Removing system_stm32f4xx.o(.rev16_text), (4 bytes).
    Removing system_stm32f4xx.o(.revsh_text), (4 bytes).
    Removing system_stm32f4xx.o(.rrx_text), (6 bytes).
    Removing system_stm32f4xx.o(i.SystemCoreClockUpdate), (124 bytes).
    Removing stm32f4xx_hal_eth.o(.rev16_text), (4 bytes).
    Removing stm32f4xx_hal_eth.o(.revsh_text), (4 bytes).
    Removing stm32f4xx_hal_eth.o(.rrx_text), (6 bytes).
    Removing stm32f4xx_hal_eth.o(i.HAL_ETH_ConfigDMA), (764 bytes).
    Removing stm32f4xx_hal_eth.o(i.HAL_ETH_ConfigMAC), (996 bytes).
    Removing stm32f4xx_hal_eth.o(i.HAL_ETH_ErrorCallback), (2 bytes).
    Removing stm32f4xx_hal_eth.o(i.HAL_ETH_GetReceivedFrame_IT), (136 bytes).
    Removing stm32f4xx_hal_eth.o(i.HAL_ETH_GetState), (6 bytes).
    Removing stm32f4xx_hal_eth.o(i.HAL_ETH_MspInit), (2 bytes).
    Removing stm32f4xx_hal_eth.o(i.HAL_ETH_RxCpltCallback), (2 bytes).
    Removing stm32f4xx_hal_eth.o(i.HAL_ETH_Stop), (132 bytes).
    Removing stm32f4xx_hal_eth.o(i.HAL_ETH_TxCpltCallback), (2 bytes).
    Removing stm32f4xx_hal_tim.o(.rev16_text), (4 bytes).
==============================================================================

Image Symbol Table

    Local Symbols

    Symbol Name                              Value     Ov Type        Size  Object(Section)

    ../clib/../cmprslib/zerorunl2.c          0x00000000   Number         0  __dczerorl2.o ABSOLUTE
    ../clib/microlib/ctype/ctype.c           0x00000000   Number         0  isupper_o.o ABSOLUTE
    ../clib/microlib/ctype/ctype.c           0x00000000   Number         0  isalpha_o.o ABSOLUTE
    ../clib/microlib/ctype/ctype.c           0x00000000   Number         0  isalnum_o.o ABSOLUTE
    ../clib/microlib/ctype/ctype.c           0x00000000   Number         0  ctype_o.o ABSOLUTE
    ../clib/microlib/ctype/ctype.c           0x00000000   Number         0  iscntrl_o.o ABSOLUTE
    ../clib/microlib/ctype/ctype.c           0x00000000   Number         0  isblank_o.o ABSOLUTE
    ../clib/microlib/ctype/ctype.c           0x00000000   Number         0  isxdigit_o.o ABSOLUTE
    ../clib/microlib/ctype/ctype.c           0x00000000   Number         0  isdigit_o.o ABSOLUTE
    ../clib/microlib/ctype/ctype.c           0x00000000   Number         0  isgraph_o.o ABSOLUTE
    ../clib/microlib/ctype/ctype.c           0x00000000   Number         0  islower_o.o ABSOLUTE
    ../clib/microlib/ctype/ctype.c           0x00000000   Number         0  isprint_o.o ABSOLUTE
    ../clib/microlib/ctype/ctype.c           0x00000000   Number         0  ispunct_o.o ABSOLUTE
    ../clib/microlib/ctype/ctype.c           0x00000000   Number         0  isspace_o.o ABSOLUTE
    ../clib/microlib/division.c              0x00000000   Number         0  uldiv.o ABSOLUTE
    ../clib/microlib/division.c              0x00000000   Number         0  uidiv.o ABSOLUTE
    ../clib/microlib/errno.c                 0x00000000   Number         0  errno.o ABSOLUTE
    ../clib/microlib/init/entry.s            0x00000000   Number         0  entry12b.o ABSOLUTE
    ../clib/microlib/init/entry.s            0x00000000   Number         0  entry10b.o ABSOLUTE
    ../clib/microlib/init/entry.s            0x00000000   Number         0  entry12a.o ABSOLUTE
    ../clib/microlib/init/entry.s            0x00000000   Number         0  entry8b.o ABSOLUTE
    ../clib/microlib/init/entry.s            0x00000000   Number         0  entry11b.o ABSOLUTE
    ../clib/microlib/init/entry.s            0x00000000   Number         0  entry9b.o ABSOLUTE
    ../clib/microlib/init/entry.s            0x00000000   Number         0  entry10a.o ABSOLUTE
    ../clib/microlib/init/entry.s            0x00000000   Number         0  entry.o ABSOLUTE
    ../clib/microlib/init/entry.s            0x00000000   Number         0  entry7a.o ABSOLUTE
    ../clib/microlib/init/entry.s            0x00000000   Number         0  entry7b.o ABSOLUTE
    ../clib/microlib/init/entry.s            0x00000000   Number         0  entry8a.o ABSOLUTE
    ../clib/microlib/init/entry.s            0x00000000   Number         0  entry9a.o ABSOLUTE
    ../clib/microlib/init/entry.s            0x00000000   Number         0  entry2.o ABSOLUTE
    ../clib/microlib/init/entry.s            0x00000000   Number         0  entry5.o ABSOLUTE
    ../clib/microlib/init/entry.s            0x00000000   Number         0  entry11a.o ABSOLUTE
    ../clib/microlib/longlong.c              0x00000000   Number         0  llshl.o ABSOLUTE
    ../clib/microlib/longlong.c              0x00000000   Number         0  llsshr.o ABSOLUTE
    ../clib/microlib/longlong.c              0x00000000   Number         0  llushr.o ABSOLUTE
    ../clib/microlib/malloc/calloc.c         0x00000000   Number         0  calloc.o ABSOLUTE
    ../clib/microlib/malloc/malloc.c         0x00000000   Number         0  malloca.o ABSOLUTE
    ../clib/microlib/malloc/malloc.c         0x00000000   Number         0  malloc.o ABSOLUTE
    ../clib/microlib/malloc/malloc.c         0x00000000   Number         0  mallocr.o ABSOLUTE
    ../clib/microlib/malloc/malloc.c         0x00000000   Number         0  mallocra.o ABSOLUTE
    ../clib/microlib/malloc/mvars.c          0x00000000   Number         0  mvars.o ABSOLUTE
    ../clib/microlib/printf/printf.c         0x00000000   Number         0  printf4.o ABSOLUTE
    ../clib/microlib/printf/printf.c         0x00000000   Number         0  printf5.o ABSOLUTE
    ../clib/microlib/printf/printf.c         0x00000000   Number         0  printf7.o ABSOLUTE
    ../clib/microlib/printf/printf.c         0x00000000   Number         0  printf6.o ABSOLUTE
    ../clib/microlib/printf/printf.c         0x00000000   Number         0  printf8.o ABSOLUTE
    ../clib/microlib/printf/printf.c         0x00000000   Number         0  printfa.o ABSOLUTE
    ../clib/microlib/printf/printf.c         0x00000000   Number         0  printf1.o ABSOLUTE
    ../clib/microlib/printf/printf.c         0x00000000   Number         0  printf0.o ABSOLUTE
    ../clib/microlib/printf/printf.c         0x00000000   Number         0  printfb.o ABSOLUTE
    ../clib/microlib/printf/printf.c         0x00000000   Number         0  printf2.o ABSOLUTE
    ../clib/microlib/printf/printf.c         0x00000000   Number         0  printf3.o ABSOLUTE
    ../clib/microlib/printf/stubs.s          0x00000000   Number         0  stubs.o ABSOLUTE
    ../clib/microlib/stdio/streams.c         0x00000000   Number         0  stdout.o ABSOLUTE
    ../clib/microlib/string/memcmp.c         0x00000000   Number         0  memcmp.o ABSOLUTE
    ../clib/microlib/string/memcpy.c         0x00000000   Number         0  memmovea.o ABSOLUTE
    ../clib/microlib/string/memcpy.c         0x00000000   Number         0  memmoveb.o ABSOLUTE
    ../clib/microlib/string/memcpy.c         0x00000000   Number         0  memcpyb.o ABSOLUTE
    ../clib/microlib/string/memcpy.c         0x00000000   Number         0  memcpya.o ABSOLUTE
    ../clib/microlib/string/memset.c         0x00000000   Number         0  memseta.o ABSOLUTE
    ../clib/microlib/string/memset.c         0x00000000   Number         0  memset.o ABSOLUTE
    ../clib/microlib/string/strcmp.c         0x00000000   Number         0  strcmp.o ABSOLUTE
    ../clib/microlib/string/strlen.c         0x00000000   Number         0  strlen.o ABSOLUTE
    ../clib/microlib/string/strncmp.c        0x00000000   Number         0  strncmp.o ABSOLUTE
    ../clib/microlib/string/strncpy.c        0x00000000   Number         0  strncpy.o ABSOLUTE
    ../clib/microlib/stubs.s                 0x00000000   Number         0  iusefp.o ABSOLUTE
    ../clib/scanf.c                          0x00000000   Number         0  _chval.o ABSOLUTE
    ../clib/scanf.c                          0x00000000   Number         0  strtol.o ABSOLUTE
    ../clib/scanf.c                          0x00000000   Number         0  _strtoul.o ABSOLUTE
    ../clib/scanf.c                          0x00000000   Number         0  atoi.o ABSOLUTE
    ../fplib/microlib/fpadd.c                0x00000000   Number         0  dadd.o ABSOLUTE
    ../fplib/microlib/fpdiv.c                0x00000000   Number         0  ddiv.o ABSOLUTE
    ../fplib/microlib/fpepilogue.c           0x00000000   Number         0  depilogue.o ABSOLUTE
    ../fplib/microlib/fpfix.c                0x00000000   Number         0  dfixul.o ABSOLUTE
    ../fplib/microlib/fpmul.c                0x00000000   Number         0  dmul.o ABSOLUTE
    ..\FreeRTOS\port\MemMang\heap_4.c        0x00000000   Number         0  heap_4.o ABSOLUTE
    ..\FreeRTOS\port\RVDS\ARM_CM4F\port.c    0x00000000   Number         0  port.o ABSOLUTE
    ..\FreeRTOS\src\croutine.c               0x00000000   Number         0  croutine.o ABSOLUTE
    ..\FreeRTOS\src\event_groups.c           0x00000000   Number         0  event_groups.o ABSOLUTE
    ..\FreeRTOS\src\list.c                   0x00000000   Number         0  list.o ABSOLUTE
    ..\FreeRTOS\src\queue.c                  0x00000000   Number         0  queue.o ABSOLUTE
    ..\FreeRTOS\src\tasks.c                  0x00000000   Number         0  tasks.o ABSOLUTE
    ..\FreeRTOS\src\timers.c                 0x00000000   Number         0  timers.o ABSOLUTE
    ..\Libraries\CMSIS\Device\ST\STM32F4xx\Source\Templates\arm\startup_stm32f429xx.s 0x00000000   Number         0  startup_stm32f429xx.o ABSOLUTE
    ..\Libraries\CMSIS\Device\ST\STM32F4xx\Source\Templates\system_stm32f4xx.c 0x00000000   Number         0  system_stm32f4xx.o ABSOLUTE
    ..\Libraries\STM32F4xx_HAL_Driver\Src\stm32f4xx_hal.c 0x00000000   Number         0  stm32f4xx_hal.o ABSOLUTE
    ..\Libraries\STM32F4xx_HAL_Driver\Src\stm32f4xx_hal_cortex.c 0x00000000   Number         0  stm32f4xx_hal_cortex.o ABSOLUTE
    ..\Libraries\STM32F4xx_HAL_Driver\Src\stm32f4xx_hal_dma.c 0x00000000   Number         0  stm32f4xx_hal_dma.o ABSOLUTE
    ..\Libraries\STM32F4xx_HAL_Driver\Src\stm32f4xx_hal_eth.c 0x00000000   Number         0  stm32f4xx_hal_eth.o ABSOLUTE
    ..\Libraries\STM32F4xx_HAL_Driver\Src\stm32f4xx_hal_flash.c 0x00000000   Number         0  stm32f4xx_hal_flash.o ABSOLUTE
    ..\Libraries\STM32F4xx_HAL_Driver\Src\stm32f4xx_hal_flash_ex.c 0x00000000   Number         0  stm32f4xx_hal_flash_ex.o ABSOLUTE
    ..\Libraries\STM32F4xx_HAL_Driver\Src\stm32f4xx_hal_flash_ramfunc.c 0x00000000   Number         0  stm32f4xx_hal_flash_ramfunc.o ABSOLUTE
    ..\Libraries\STM32F4xx_HAL_Driver\Src\stm32f4xx_hal_gpio.c 0x00000000   Number         0  stm32f4xx_hal_gpio.o ABSOLUTE
    ..\Libraries\STM32F4xx_HAL_Driver\Src\stm32f4xx_hal_i2c.c 0x00000000   Number         0  stm32f4xx_hal_i2c.o ABSOLUTE
    ..\Libraries\STM32F4xx_HAL_Driver\Src\stm32f4xx_hal_pwr.c 0x00000000   Number         0  stm32f4xx_hal_pwr.o ABSOLUTE
    ..\Libraries\STM32F4xx_HAL_Driver\Src\stm32f4xx_hal_pwr_ex.c 0x00000000   Number         0  stm32f4xx_hal_pwr_ex.o ABSOLUTE
    ..\Libraries\STM32F4xx_HAL_Driver\Src\stm32f4xx_hal_rcc.c 0x00000000   Number         0  stm32f4xx_hal_rcc.o ABSOLUTE
    ..\Libraries\STM32F4xx_HAL_Driver\Src\stm32f4xx_hal_rcc_ex.c 0x00000000   Number         0  stm32f4xx_hal_rcc_ex.o ABSOLUTE
    ..\Libraries\STM32F4xx_HAL_Driver\Src\stm32f4xx_hal_rng.c 0x00000000   Number         0  stm32f4xx_hal_rng.o ABSOLUTE
    ..\Libraries\STM32F4xx_HAL_Driver\Src\stm32f4xx_hal_sdram.c 0x00000000   Number         0  stm32f4xx_hal_sdram.o ABSOLUTE
    ..\Libraries\STM32F4xx_HAL_Driver\Src\stm32f4xx_hal_spi.c 0x00000000   Number         0  stm32f4xx_hal_spi.o ABSOLUTE
    ..\Libraries\STM32F4xx_HAL_Driver\Src\stm32f4xx_hal_tim.c 0x00000000   Number         0  stm32f4xx_hal_tim.o ABSOLUTE
    ..\Libraries\STM32F4xx_HAL_Driver\Src\stm32f4xx_hal_tim_ex.c 0x00000000   Number         0  stm32f4xx_hal_tim_ex.o ABSOLUTE
    ..\Libraries\STM32F4xx_HAL_Driver\Src\stm32f4xx_hal_uart.c 0x00000000   Number         0  stm32f4xx_hal_uart.o ABSOLUTE
    ..\Libraries\STM32F4xx_HAL_Driver\Src\stm32f4xx_hal_usart.c 0x00000000   Number         0  stm32f4xx_hal_usart.o ABSOLUTE
    ..\Libraries\STM32F4xx_HAL_Driver\Src\stm32f4xx_ll_fmc.c 0x00000000   Number         0  stm32f4xx_ll_fmc.o ABSOLUTE
    ..\Libraries\STM32F4xx_HAL_Driver\Src\stm32f4xx_ll_fsmc.c 0x00000000   Number         0  stm32f4xx_ll_fsmc.o ABSOLUTE
    ..\Libraries\STM32F4xx_HAL_Driver\Src\stm32f4xx_ll_sdmmc.c 0x00000000   Number         0  stm32f4xx_ll_sdmmc.o ABSOLUTE
    ..\LwIP\api\api_lib.c                    0x00000000   Number         0  api_lib.o ABSOLUTE
    ..\LwIP\api\api_msg.c                    0x00000000   Number         0  api_msg.o ABSOLUTE
    ..\LwIP\api\err.c                        0x00000000   Number         0  err.o ABSOLUTE
    ..\LwIP\api\if_api.c                     0x00000000   Number         0  if_api.o ABSOLUTE
    ..\LwIP\api\netbuf.c                     0x00000000   Number         0  netbuf.o ABSOLUTE
    ..\LwIP\api\netdb.c                      0x00000000   Number         0  netdb.o ABSOLUTE
    ..\LwIP\api\netifapi.c                   0x00000000   Number         0  netifapi.o ABSOLUTE
    ..\LwIP\api\sockets.c                    0x00000000   Number         0  sockets.o ABSOLUTE
    ..\LwIP\api\tcpip.c                      0x00000000   Number         0  tcpip.o ABSOLUTE
    ..\LwIP\core\altcp.c                     0x00000000   Number         0  altcp.o ABSOLUTE
    ..\LwIP\core\altcp_alloc.c               0x00000000   Number         0  altcp_alloc.o ABSOLUTE
    ..\LwIP\core\altcp_tcp.c                 0x00000000   Number         0  altcp_tcp.o ABSOLUTE
    ..\LwIP\core\def.c                       0x00000000   Number         0  def.o ABSOLUTE
    ..\LwIP\core\dns.c                       0x00000000   Number         0  dns.o ABSOLUTE
    ..\LwIP\core\inet_chksum.c               0x00000000   Number         0  inet_chksum.o ABSOLUTE
    ..\LwIP\core\init.c                      0x00000000   Number         0  init.o ABSOLUTE
    ..\LwIP\core\ip.c                        0x00000000   Number         0  ip.o ABSOLUTE
    ..\LwIP\core\ipv4\autoip.c               0x00000000   Number         0  autoip.o ABSOLUTE
    ..\LwIP\core\ipv4\dhcp.c                 0x00000000   Number         0  dhcp.o ABSOLUTE
    ..\LwIP\core\ipv4\etharp.c               0x00000000   Number         0  etharp.o ABSOLUTE
    ..\LwIP\core\ipv4\icmp.c                 0x00000000   Number         0  icmp.o ABSOLUTE
    ..\LwIP\core\ipv4\igmp.c                 0x00000000   Number         0  igmp.o ABSOLUTE
    ..\LwIP\core\ipv4\ip4.c                  0x00000000   Number         0  ip4.o ABSOLUTE
    ..\LwIP\core\ipv4\ip4_addr.c             0x00000000   Number         0  ip4_addr.o ABSOLUTE
    ..\LwIP\core\ipv4\ip4_frag.c             0x00000000   Number         0  ip4_frag.o ABSOLUTE
    ..\LwIP\core\mem.c                       0x00000000   Number         0  mem.o ABSOLUTE
    ..\LwIP\core\memp.c                      0x00000000   Number         0  memp.o ABSOLUTE
    ..\LwIP\core\netif.c                     0x00000000   Number         0  netif.o ABSOLUTE
    ..\LwIP\core\pbuf.c                      0x00000000   Number         0  pbuf.o ABSOLUTE
    ..\LwIP\core\raw.c                       0x00000000   Number         0  raw.o ABSOLUTE
    ..\LwIP\core\stats.c                     0x00000000   Number         0  stats.o ABSOLUTE
    ..\LwIP\core\sys.c                       0x00000000   Number         0  sys.o ABSOLUTE
    ..\LwIP\core\tcp.c                       0x00000000   Number         0  tcp.o ABSOLUTE
    ..\LwIP\core\tcp_in.c                    0x00000000   Number         0  tcp_in.o ABSOLUTE
    ..\LwIP\core\tcp_out.c                   0x00000000   Number         0  tcp_out.o ABSOLUTE
    ..\LwIP\core\timeouts.c                  0x00000000   Number         0  timeouts.o ABSOLUTE
    ..\LwIP\core\udp.c                       0x00000000   Number         0  udp.o ABSOLUTE
    ..\LwIP\netif\bridgeif.c                 0x00000000   Number         0  bridgeif.o ABSOLUTE
    ..\LwIP\netif\ethernet.c                 0x00000000   Number         0  ethernet.o ABSOLUTE
    ..\LwIP\netif\lowpan6.c                  0x00000000   Number         0  lowpan6.o ABSOLUTE
    ..\LwIP\netif\lowpan6_ble.c              0x00000000   Number         0  lowpan6_ble.o ABSOLUTE
    ..\LwIP\netif\lowpan6_common.c           0x00000000   Number         0  lowpan6_common.o ABSOLUTE
    ..\LwIP\netif\zepif.c                    0x00000000   Number         0  zepif.o ABSOLUTE
    ..\Mbedtls\library\aes.c                 0x00000000   Number         0  aes.o ABSOLUTE
    ..\Mbedtls\library\aesni.c               0x00000000   Number         0  aesni.o ABSOLUTE
    ..\Mbedtls\library\arc4.c                0x00000000   Number         0  arc4.o ABSOLUTE
    ..\Mbedtls\library\aria.c                0x00000000   Number         0  aria.o ABSOLUTE
    ..\Mbedtls\library\asn1parse.c           0x00000000   Number         0  asn1parse.o ABSOLUTE
    ..\Mbedtls\library\asn1write.c           0x00000000   Number         0  asn1write.o ABSOLUTE
    ..\Mbedtls\library\base64.c              0x00000000   Number         0  base64.o ABSOLUTE
    ..\Mbedtls\library\bignum.c              0x00000000   Number         0  bignum.o ABSOLUTE
    ..\Mbedtls\library\blowfish.c            0x00000000   Number         0  blowfish.o ABSOLUTE
    ..\Mbedtls\library\camellia.c            0x00000000   Number         0  camellia.o ABSOLUTE
    ..\Mbedtls\library\ccm.c                 0x00000000   Number         0  ccm.o ABSOLUTE
    ..\Mbedtls\library\certs.c               0x00000000   Number         0  certs.o ABSOLUTE
    ..\Mbedtls\library\chacha20.c            0x00000000   Number         0  chacha20.o ABSOLUTE
    ..\Mbedtls\library\chachapoly.c          0x00000000   Number         0  chachapoly.o ABSOLUTE
    ..\Mbedtls\library\cipher.c              0x00000000   Number         0  cipher.o ABSOLUTE
    ..\Mbedtls\library\cipher_wrap.c         0x00000000   Number         0  cipher_wrap.o ABSOLUTE
    ..\Mbedtls\library\cmac.c                0x00000000   Number         0  cmac.o ABSOLUTE
    ..\Mbedtls\library\ctr_drbg.c            0x00000000   Number         0  ctr_drbg.o ABSOLUTE
    ..\Mbedtls\library\debug.c               0x00000000   Number         0  debug.o ABSOLUTE
    ..\Mbedtls\library\des.c                 0x00000000   Number         0  des.o ABSOLUTE
    ..\Mbedtls\library\dhm.c                 0x00000000   Number         0  dhm.o ABSOLUTE
    ..\Mbedtls\library\ecdh.c                0x00000000   Number         0  ecdh.o ABSOLUTE
    ..\Mbedtls\library\ecdsa.c               0x00000000   Number         0  ecdsa.o ABSOLUTE
    ..\Mbedtls\library\ecjpake.c             0x00000000   Number         0  ecjpake.o ABSOLUTE
    ..\Mbedtls\library\ecp.c                 0x00000000   Number         0  ecp.o ABSOLUTE
    ..\Mbedtls\library\ecp_curves.c          0x00000000   Number         0  ecp_curves.o ABSOLUTE
    ..\Mbedtls\library\entropy.c             0x00000000   Number         0  entropy.o ABSOLUTE
    ..\Mbedtls\library\entropy_poll.c        0x00000000   Number         0  entropy_poll.o ABSOLUTE
    ..\Mbedtls\library\error.c               0x00000000   Number         0  error.o ABSOLUTE
    ..\Mbedtls\library\gcm.c                 0x00000000   Number         0  gcm.o ABSOLUTE
    ..\Mbedtls\library\havege.c              0x00000000   Number         0  havege.o ABSOLUTE
    ..\Mbedtls\library\hkdf.c                0x00000000   Number         0  hkdf.o ABSOLUTE
    ..\Mbedtls\library\hmac_drbg.c           0x00000000   Number         0  hmac_drbg.o ABSOLUTE
    ..\Mbedtls\library\md.c                  0x00000000   Number         0  md.o ABSOLUTE
    ..\Mbedtls\library\md2.c                 0x00000000   Number         0  md2.o ABSOLUTE
    ..\Mbedtls\library\md4.c                 0x00000000   Number         0  md4.o ABSOLUTE
    ..\Mbedtls\library\md5.c                 0x00000000   Number         0  md5.o ABSOLUTE
    ..\Mbedtls\library\memory_buffer_alloc.c 0x00000000   Number         0  memory_buffer_alloc.o ABSOLUTE
    ..\Mbedtls\library\net_sockets.c         0x00000000   Number         0  net_sockets.o ABSOLUTE
    ..\Mbedtls\library\nist_kw.c             0x00000000   Number         0  nist_kw.o ABSOLUTE
    ..\Mbedtls\library\oid.c                 0x00000000   Number         0  oid.o ABSOLUTE
    ..\Mbedtls\library\padlock.c             0x00000000   Number         0  padlock.o ABSOLUTE
    ..\Mbedtls\library\pem.c                 0x00000000   Number         0  pem.o ABSOLUTE
    ..\Mbedtls\library\pk.c                  0x00000000   Number         0  pk.o ABSOLUTE
    ..\Mbedtls\library\pk_wrap.c             0x00000000   Number         0  pk_wrap.o ABSOLUTE
    ..\Mbedtls\library\pkcs11.c              0x00000000   Number         0  pkcs11.o ABSOLUTE
    ..\Mbedtls\library\pkcs12.c              0x00000000   Number         0  pkcs12.o ABSOLUTE
    ..\Mbedtls\library\pkcs5.c               0x00000000   Number         0  pkcs5.o ABSOLUTE
    ..\Mbedtls\library\pkparse.c             0x00000000   Number         0  pkparse.o ABSOLUTE
    ..\Mbedtls\library\pkwrite.c             0x00000000   Number         0  pkwrite.o ABSOLUTE
    ..\Mbedtls\library\platform.c            0x00000000   Number         0  platform.o ABSOLUTE
    ..\Mbedtls\library\platform_util.c       0x00000000   Number         0  platform_util.o ABSOLUTE
    ..\Mbedtls\library\poly1305.c            0x00000000   Number         0  poly1305.o ABSOLUTE
    ..\Mbedtls\library\psa_crypto.c          0x00000000   Number         0  psa_crypto.o ABSOLUTE
    ..\Mbedtls\library\psa_crypto_se.c       0x00000000   Number         0  psa_crypto_se.o ABSOLUTE
    ..\Mbedtls\library\psa_crypto_slot_management.c 0x00000000   Number         0  psa_crypto_slot_management.o ABSOLUTE
    ..\Mbedtls\library\psa_crypto_storage.c  0x00000000   Number         0  psa_crypto_storage.o ABSOLUTE
    ..\Mbedtls\library\psa_its_file.c        0x00000000   Number         0  psa_its_file.o ABSOLUTE
    ..\Mbedtls\library\ripemd160.c           0x00000000   Number         0  ripemd160.o ABSOLUTE
    ..\Mbedtls\library\rsa.c                 0x00000000   Number         0  rsa.o ABSOLUTE
    ..\Mbedtls\library\rsa_internal.c        0x00000000   Number         0  rsa_internal.o ABSOLUTE
    ..\Mbedtls\library\sha1.c                0x00000000   Number         0  sha1.o ABSOLUTE
    ..\Mbedtls\library\sha256.c              0x00000000   Number         0  sha256.o ABSOLUTE
    ..\Mbedtls\library\sha512.c              0x00000000   Number         0  sha512.o ABSOLUTE
    ..\Mbedtls\library\ssl_cache.c           0x00000000   Number         0  ssl_cache.o ABSOLUTE
    ..\Mbedtls\library\ssl_ciphersuites.c    0x00000000   Number         0  ssl_ciphersuites.o ABSOLUTE
    ..\Mbedtls\library\ssl_cli.c             0x00000000   Number         0  ssl_cli.o ABSOLUTE
    ..\Mbedtls\library\ssl_cookie.c          0x00000000   Number         0  ssl_cookie.o ABSOLUTE
    ..\Mbedtls\library\ssl_msg.c             0x00000000   Number         0  ssl_msg.o ABSOLUTE
    ..\Mbedtls\library\ssl_srv.c             0x00000000   Number         0  ssl_srv.o ABSOLUTE
    ..\Mbedtls\library\ssl_ticket.c          0x00000000   Number         0  ssl_ticket.o ABSOLUTE
    ..\Mbedtls\library\ssl_tls.c             0x00000000   Number         0  ssl_tls.o ABSOLUTE
    ..\Mbedtls\library\threading.c           0x00000000   Number         0  threading.o ABSOLUTE
    ..\Mbedtls\library\timing.c              0x00000000   Number         0  timing.o ABSOLUTE
    ..\Mbedtls\library\version.c             0x00000000   Number         0  version.o ABSOLUTE
    ..\Mbedtls\library\version_features.c    0x00000000   Number         0  version_features.o ABSOLUTE
    ..\Mbedtls\library\x509.c                0x00000000   Number         0  x509.o ABSOLUTE
    ..\Mbedtls\library\x509_create.c         0x00000000   Number         0  x509_create.o ABSOLUTE
    ..\Mbedtls\library\x509_crl.c            0x00000000   Number         0  x509_crl.o ABSOLUTE
    ..\Mbedtls\library\x509_crt.c            0x00000000   Number         0  x509_crt.o ABSOLUTE
    ..\Mbedtls\library\x509_csr.c            0x00000000   Number         0  x509_csr.o ABSOLUTE
    ..\Mbedtls\library\x509write_crt.c       0x00000000   Number         0  x509write_crt.o ABSOLUTE
    ..\Mbedtls\library\x509write_csr.c       0x00000000   Number         0  x509write_csr.o ABSOLUTE
    ..\Mbedtls\library\xtea.c                0x00000000   Number         0  xtea.o ABSOLUTE
    ..\User\APL\src\app.c                    0x00000000   Number         0  app.o ABSOLUTE
    ..\User\APL\src\ble_handler.c            0x00000000   Number         0  ble_handler.o ABSOLUTE
    ..\User\APL\src\device_update.c          0x00000000   Number         0  device_update.o ABSOLUTE
    ..\User\APL\src\heartebat.c              0x00000000   Number         0  heartebat.o ABSOLUTE
    ..\User\APL\src\ota.c                    0x00000000   Number         0  ota.o ABSOLUTE
    ..\User\APL\src\tcp_handller.c           0x00000000   Number         0  tcp_handller.o ABSOLUTE
    ..\User\APL\src\test.c                   0x00000000   Number         0  test.o ABSOLUTE
    ..\User\APL\src\usart1_handler.c         0x00000000   Number         0  usart1_handler.o ABSOLUTE
    ..\User\BSP\src\dma.c                    0x00000000   Number         0  dma.o ABSOLUTE
    ..\User\BSP\src\gpio.c                   0x00000000   Number         0  gpio.o ABSOLUTE
    ..\User\BSP\src\spi.c                    0x00000000   Number         0  spi.o ABSOLUTE
    ..\User\BSP\src\usart.c                  0x00000000   Number         0  usart.o ABSOLUTE
    ..\User\FML\src\device_message.c         0x00000000   Number         0  device_message.o ABSOLUTE
    ..\User\FML\src\encryption_aes.c         0x00000000   Number         0  encryption_aes.o ABSOLUTE
    ..\User\FML\src\iq_queue.c               0x00000000   Number         0  iq_queue.o ABSOLUTE
    ..\User\FML\src\package.c                0x00000000   Number         0  package.o ABSOLUTE
    ..\User\FML\src\strategy.c               0x00000000   Number         0  strategy.o ABSOLUTE
    ..\User\FML\src\tcp_client.c             0x00000000   Number         0  tcp_client.o ABSOLUTE
    ..\User\FML\src\tcp_queue.c              0x00000000   Number         0  tcp_queue.o ABSOLUTE
    ..\User\FML\src\udp_client.c             0x00000000   Number         0  udp_client.o ABSOLUTE
    ..\User\HAL\src\ble_usart.c              0x00000000   Number         0  ble_usart.o ABSOLUTE
    ..\User\HAL\src\device_id.c              0x00000000   Number         0  device_id.o ABSOLUTE
    ..\User\HAL\src\hal_flash.c              0x00000000   Number         0  hal_flash.o ABSOLUTE
    ..\User\HAL\src\random.c                 0x00000000   Number         0  random.o ABSOLUTE
    ..\User\HAL\src\reboot.c                 0x00000000   Number         0  reboot.o ABSOLUTE
    ..\User\UTIL\src\crc.c                   0x00000000   Number         0  crc.o ABSOLUTE
    ..\User\UTIL\src\util.c                  0x00000000   Number         0  util.o ABSOLUTE
    ..\User\arch\ethernetif.c                0x00000000   Number         0  ethernetif.o ABSOLUTE
    ..\User\arch\sys_arch.c                  0x00000000   Number         0  sys_arch.o ABSOLUTE
    ..\User\board.c                          0x00000000   Number         0  board.o ABSOLUTE
    ..\User\cm_backtrace\cm_backtrace.c      0x00000000   Number         0  cm_backtrace.o ABSOLUTE
    ..\User\cm_backtrace\fault_handler\keil\cmb_fault.S 0x00000000   Number         0  cmb_fault.o ABSOLUTE
    ..\User\eth\bsp_eth.c                    0x00000000   Number         0  bsp_eth.o ABSOLUTE
    ..\User\led\bsp_led.c                    0x00000000   Number         0  bsp_led.o ABSOLUTE
    ..\User\main.c                           0x00000000   Number         0  main.o ABSOLUTE
    ..\User\stm32f4xx_it.c                   0x00000000   Number         0  stm32f4xx_it.o ABSOLUTE
    ..\User\tcpecho.c                        0x00000000   Number         0  tcpecho.o ABSOLUTE
    ..\\FreeRTOS\\port\\MemMang\\heap_4.c    0x00000000   Number         0  heap_4.o ABSOLUTE
    ..\\FreeRTOS\\port\\RVDS\\ARM_CM4F\\port.c 0x00000000   Number         0  port.o ABSOLUTE
    ..\\FreeRTOS\\src\\croutine.c            0x00000000   Number         0  croutine.o ABSOLUTE
    ..\\FreeRTOS\\src\\event_groups.c        0x00000000   Number         0  event_groups.o ABSOLUTE
    ..\\FreeRTOS\\src\\list.c                0x00000000   Number         0  list.o ABSOLUTE
    ..\\FreeRTOS\\src\\queue.c               0x00000000   Number         0  queue.o ABSOLUTE
    ..\\FreeRTOS\\src\\tasks.c               0x00000000   Number         0  tasks.o ABSOLUTE
    ..\\FreeRTOS\\src\\timers.c              0x00000000   Number         0  timers.o ABSOLUTE
    ..\\Libraries\\CMSIS\\Device\\ST\\STM32F4xx\\Source\\Templates\\system_stm32f4xx.c 0x00000000   Number         0  system_stm32f4xx.o ABSOLUTE
    ..\\Libraries\\STM32F4xx_HAL_Driver\\Src\\stm32f4xx_hal.c 0x00000000   Number         0  stm32f4xx_hal.o ABSOLUTE
    ..\\Libraries\\STM32F4xx_HAL_Driver\\Src\\stm32f4xx_hal_cortex.c 0x00000000   Number         0  stm32f4xx_hal_cortex.o ABSOLUTE
    ..\\Libraries\\STM32F4xx_HAL_Driver\\Src\\stm32f4xx_hal_dma.c 0x00000000   Number         0  stm32f4xx_hal_dma.o ABSOLUTE
    ..\\Libraries\\STM32F4xx_HAL_Driver\\Src\\stm32f4xx_hal_eth.c 0x00000000   Number         0  stm32f4xx_hal_eth.o ABSOLUTE
    ..\\Libraries\\STM32F4xx_HAL_Driver\\Src\\stm32f4xx_hal_flash.c 0x00000000   Number         0  stm32f4xx_hal_flash.o ABSOLUTE
    ..\\Libraries\\STM32F4xx_HAL_Driver\\Src\\stm32f4xx_hal_flash_ex.c 0x00000000   Number         0  stm32f4xx_hal_flash_ex.o ABSOLUTE
    ..\\Libraries\\STM32F4xx_HAL_Driver\\Src\\stm32f4xx_hal_flash_ramfunc.c 0x00000000   Number         0  stm32f4xx_hal_flash_ramfunc.o ABSOLUTE
    ..\\Libraries\\STM32F4xx_HAL_Driver\\Src\\stm32f4xx_hal_gpio.c 0x00000000   Number         0  stm32f4xx_hal_gpio.o ABSOLUTE
    ..\\Libraries\\STM32F4xx_HAL_Driver\\Src\\stm32f4xx_hal_i2c.c 0x00000000   Number         0  stm32f4xx_hal_i2c.o ABSOLUTE
    ..\\Libraries\\STM32F4xx_HAL_Driver\\Src\\stm32f4xx_hal_pwr.c 0x00000000   Number         0  stm32f4xx_hal_pwr.o ABSOLUTE
    ..\\Libraries\\STM32F4xx_HAL_Driver\\Src\\stm32f4xx_hal_pwr_ex.c 0x00000000   Number         0  stm32f4xx_hal_pwr_ex.o ABSOLUTE
    ..\\Libraries\\STM32F4xx_HAL_Driver\\Src\\stm32f4xx_hal_rcc.c 0x00000000   Number         0  stm32f4xx_hal_rcc.o ABSOLUTE
    ..\\Libraries\\STM32F4xx_HAL_Driver\\Src\\stm32f4xx_hal_rcc_ex.c 0x00000000   Number         0  stm32f4xx_hal_rcc_ex.o ABSOLUTE
    ..\\Libraries\\STM32F4xx_HAL_Driver\\Src\\stm32f4xx_hal_rng.c 0x00000000   Number         0  stm32f4xx_hal_rng.o ABSOLUTE
    ..\\Libraries\\STM32F4xx_HAL_Driver\\Src\\stm32f4xx_hal_sdram.c 0x00000000   Number         0  stm32f4xx_hal_sdram.o ABSOLUTE
    ..\\Libraries\\STM32F4xx_HAL_Driver\\Src\\stm32f4xx_hal_spi.c 0x00000000   Number         0  stm32f4xx_hal_spi.o ABSOLUTE
    ..\\Libraries\\STM32F4xx_HAL_Driver\\Src\\stm32f4xx_hal_tim.c 0x00000000   Number         0  stm32f4xx_hal_tim.o ABSOLUTE
    ..\\Libraries\\STM32F4xx_HAL_Driver\\Src\\stm32f4xx_hal_tim_ex.c 0x00000000   Number         0  stm32f4xx_hal_tim_ex.o ABSOLUTE
    ..\\Libraries\\STM32F4xx_HAL_Driver\\Src\\stm32f4xx_hal_uart.c 0x00000000   Number         0  stm32f4xx_hal_uart.o ABSOLUTE
    ..\\Libraries\\STM32F4xx_HAL_Driver\\Src\\stm32f4xx_hal_usart.c 0x00000000   Number         0  stm32f4xx_hal_usart.o ABSOLUTE
    ..\\Libraries\\STM32F4xx_HAL_Driver\\Src\\stm32f4xx_ll_fmc.c 0x00000000   Number         0  stm32f4xx_ll_fmc.o ABSOLUTE
    ..\\Libraries\\STM32F4xx_HAL_Driver\\Src\\stm32f4xx_ll_fsmc.c 0x00000000   Number         0  stm32f4xx_ll_fsmc.o ABSOLUTE
    ..\\Libraries\\STM32F4xx_HAL_Driver\\Src\\stm32f4xx_ll_sdmmc.c 0x00000000   Number         0  stm32f4xx_ll_sdmmc.o ABSOLUTE
    ..\\LwIP\\api\\api_lib.c                 0x00000000   Number         0  api_lib.o ABSOLUTE
    ..\\LwIP\\api\\api_msg.c                 0x00000000   Number         0  api_msg.o ABSOLUTE
    ..\\LwIP\\api\\err.c                     0x00000000   Number         0  err.o ABSOLUTE
    ..\\LwIP\\api\\if_api.c                  0x00000000   Number         0  if_api.o ABSOLUTE
    ..\\LwIP\\api\\netbuf.c                  0x00000000   Number         0  netbuf.o ABSOLUTE
    ..\\LwIP\\api\\netdb.c                   0x00000000   Number         0  netdb.o ABSOLUTE
    ..\\LwIP\\api\\netifapi.c                0x00000000   Number         0  netifapi.o ABSOLUTE
    ..\\LwIP\\api\\sockets.c                 0x00000000   Number         0  sockets.o ABSOLUTE
    ..\\LwIP\\api\\tcpip.c                   0x00000000   Number         0  tcpip.o ABSOLUTE
    ..\\LwIP\\core\\altcp.c                  0x00000000   Number         0  altcp.o ABSOLUTE
    ..\\LwIP\\core\\altcp_alloc.c            0x00000000   Number         0  altcp_alloc.o ABSOLUTE
    ..\\LwIP\\core\\altcp_tcp.c              0x00000000   Number         0  altcp_tcp.o ABSOLUTE
    ..\\LwIP\\core\\def.c                    0x00000000   Number         0  def.o ABSOLUTE
    ..\\LwIP\\core\\dns.c                    0x00000000   Number         0  dns.o ABSOLUTE
    ..\\LwIP\\core\\inet_chksum.c            0x00000000   Number         0  inet_chksum.o ABSOLUTE
    ..\\LwIP\\core\\init.c                   0x00000000   Number         0  init.o ABSOLUTE
    ..\\LwIP\\core\\ip.c                     0x00000000   Number         0  ip.o ABSOLUTE
    ..\\LwIP\\core\\ipv4\\autoip.c           0x00000000   Number         0  autoip.o ABSOLUTE
    ..\\LwIP\\core\\ipv4\\dhcp.c             0x00000000   Number         0  dhcp.o ABSOLUTE
    ..\\LwIP\\core\\ipv4\\etharp.c           0x00000000   Number         0  etharp.o ABSOLUTE
    ..\\LwIP\\core\\ipv4\\icmp.c             0x00000000   Number         0  icmp.o ABSOLUTE
    ..\\LwIP\\core\\ipv4\\igmp.c             0x00000000   Number         0  igmp.o ABSOLUTE
    ..\\LwIP\\core\\ipv4\\ip4.c              0x00000000   Number         0  ip4.o ABSOLUTE
    ..\\LwIP\\core\\ipv4\\ip4_addr.c         0x00000000   Number         0  ip4_addr.o ABSOLUTE
    ..\\LwIP\\core\\ipv4\\ip4_frag.c         0x00000000   Number         0  ip4_frag.o ABSOLUTE
    ..\\LwIP\\core\\mem.c                    0x00000000   Number         0  mem.o ABSOLUTE
    ..\\LwIP\\core\\memp.c                   0x00000000   Number         0  memp.o ABSOLUTE
    ..\\LwIP\\core\\netif.c                  0x00000000   Number         0  netif.o ABSOLUTE
    ..\\LwIP\\core\\pbuf.c                   0x00000000   Number         0  pbuf.o ABSOLUTE
    ..\\LwIP\\core\\raw.c                    0x00000000   Number         0  raw.o ABSOLUTE
    ..\\LwIP\\core\\stats.c                  0x00000000   Number         0  stats.o ABSOLUTE
    ..\\LwIP\\core\\sys.c                    0x00000000   Number         0  sys.o ABSOLUTE
    ..\\LwIP\\core\\tcp.c                    0x00000000   Number         0  tcp.o ABSOLUTE
    ..\\LwIP\\core\\tcp_in.c                 0x00000000   Number         0  tcp_in.o ABSOLUTE
    ..\\LwIP\\core\\tcp_out.c                0x00000000   Number         0  tcp_out.o ABSOLUTE
    ..\\LwIP\\core\\timeouts.c               0x00000000   Number         0  timeouts.o ABSOLUTE
    ..\\LwIP\\core\\udp.c                    0x00000000   Number         0  udp.o ABSOLUTE
    ..\\LwIP\\netif\\bridgeif.c              0x00000000   Number         0  bridgeif.o ABSOLUTE
    ..\\LwIP\\netif\\ethernet.c              0x00000000   Number         0  ethernet.o ABSOLUTE
    ..\\LwIP\\netif\\lowpan6.c               0x00000000   Number         0  lowpan6.o ABSOLUTE
    ..\\LwIP\\netif\\lowpan6_ble.c           0x00000000   Number         0  lowpan6_ble.o ABSOLUTE
    ..\\LwIP\\netif\\lowpan6_common.c        0x00000000   Number         0  lowpan6_common.o ABSOLUTE
    ..\\LwIP\\netif\\zepif.c                 0x00000000   Number         0  zepif.o ABSOLUTE
    ..\\User\\APL\\src\\app.c                0x00000000   Number         0  app.o ABSOLUTE
    ..\\User\\APL\\src\\ble_handler.c        0x00000000   Number         0  ble_handler.o ABSOLUTE
    ..\\User\\APL\\src\\device_update.c      0x00000000   Number         0  device_update.o ABSOLUTE
    ..\\User\\APL\\src\\heartebat.c          0x00000000   Number         0  heartebat.o ABSOLUTE
    ..\\User\\APL\\src\\ota.c                0x00000000   Number         0  ota.o ABSOLUTE
    ..\\User\\APL\\src\\tcp_handller.c       0x00000000   Number         0  tcp_handller.o ABSOLUTE
    ..\\User\\APL\\src\\test.c               0x00000000   Number         0  test.o ABSOLUTE
    ..\\User\\BSP\\src\\dma.c                0x00000000   Number         0  dma.o ABSOLUTE
    ..\\User\\BSP\\src\\spi.c                0x00000000   Number         0  spi.o ABSOLUTE
    ..\\User\\BSP\\src\\usart.c              0x00000000   Number         0  usart.o ABSOLUTE
    ..\\User\\FML\\src\\device_message.c     0x00000000   Number         0  device_message.o ABSOLUTE
    ..\\User\\FML\\src\\iq_queue.c           0x00000000   Number         0  iq_queue.o ABSOLUTE
    ..\\User\\FML\\src\\package.c            0x00000000   Number         0  package.o ABSOLUTE
    ..\\User\\FML\\src\\strategy.c           0x00000000   Number         0  strategy.o ABSOLUTE
    ..\\User\\FML\\src\\tcp_client.c         0x00000000   Number         0  tcp_client.o ABSOLUTE
    ..\\User\\FML\\src\\tcp_queue.c          0x00000000   Number         0  tcp_queue.o ABSOLUTE
    ..\\User\\FML\\src\\udp_client.c         0x00000000   Number         0  udp_client.o ABSOLUTE
    ..\\User\\HAL\\src\\ble_usart.c          0x00000000   Number         0  ble_usart.o ABSOLUTE
    ..\\User\\HAL\\src\\device_id.c          0x00000000   Number         0  device_id.o ABSOLUTE
    ..\\User\\HAL\\src\\hal_flash.c          0x00000000   Number         0  hal_flash.o ABSOLUTE
    ..\\User\\HAL\\src\\random.c             0x00000000   Number         0  random.o ABSOLUTE
    ..\\User\\HAL\\src\\reboot.c             0x00000000   Number         0  reboot.o ABSOLUTE
    ..\\User\\arch\\ethernetif.c             0x00000000   Number         0  ethernetif.o ABSOLUTE
    ..\\User\\arch\\sys_arch.c               0x00000000   Number         0  sys_arch.o ABSOLUTE
    ..\\User\\board.c                        0x00000000   Number         0  board.o ABSOLUTE
    ..\\User\\cm_backtrace\\cm_backtrace.c   0x00000000   Number         0  cm_backtrace.o ABSOLUTE
    ..\\User\\eth\\bsp_eth.c                 0x00000000   Number         0  bsp_eth.o ABSOLUTE
    ..\\User\\led\\bsp_led.c                 0x00000000   Number         0  bsp_led.o ABSOLUTE
    ..\\User\\main.c                         0x00000000   Number         0  main.o ABSOLUTE
    ..\\User\\stm32f4xx_it.c                 0x00000000   Number         0  stm32f4xx_it.o ABSOLUTE
    ..\\User\\tcpecho.c                      0x00000000   Number         0  tcpecho.o ABSOLUTE
    cdrcmple.s                               0x00000000   Number         0  cdrcmple.o ABSOLUTE
    dc.s                                     0x00000000   Number         0  dc.o ABSOLUTE
    handlers.s                               0x00000000   Number         0  handlers.o ABSOLUTE
    init.s                                   0x00000000   Number         0  init.o ABSOLUTE
    RESET                                    0x08020000   Section      428  startup_stm32f429xx.o(RESET)
    .ARM.Collect$$$$00000000                 0x080201ac   Section        0  entry.o(.ARM.Collect$$$$00000000)
    .ARM.Collect$$$$00000001                 0x080201ac   Section        4  entry2.o(.ARM.Collect$$$$00000001)
    .ARM.Collect$$$$00000004                 0x080201b0   Section        4  entry5.o(.ARM.Collect$$$$00000004)
    .ARM.Collect$$$$00000008                 0x080201b4   Section        0  entry7b.o(.ARM.Collect$$$$00000008)
    .ARM.Collect$$$$0000000A                 0x080201b4   Section        0  entry8b.o(.ARM.Collect$$$$0000000A)
    .ARM.Collect$$$$0000000B                 0x080201b4   Section        8  entry9a.o(.ARM.Collect$$$$0000000B)
    .ARM.Collect$$$$0000000E                 0x080201bc   Section        4  entry12b.o(.ARM.Collect$$$$0000000E)
    .ARM.Collect$$$$0000000F                 0x080201c0   Section        0  entry10a.o(.ARM.Collect$$$$0000000F)
    .ARM.Collect$$$$00000011                 0x080201c0   Section        0  entry11a.o(.ARM.Collect$$$$00000011)
    .ARM.Collect$$$$00002712                 0x080201c0   Section        4  entry2.o(.ARM.Collect$$$$00002712)
    __lit__00000000                          0x080201c0   Data           4  entry2.o(.ARM.Collect$$$$00002712)
    .emb_text                                0x080201c4   Section       16  board.o(.emb_text)
    $v0                                      0x080201c4   Number         0  board.o(.emb_text)
    .emb_text                                0x080201d4   Section      182  port.o(.emb_text)
    $v0                                      0x080201d4   Number         0  port.o(.emb_text)
    .text                                    0x0802028c   Section       36  startup_stm32f429xx.o(.text)
    $v0                                      0x0802028c   Number         0  startup_stm32f429xx.o(.text)
    .text                                    0x080202b0   Section       12  cmb_fault.o(.text)
    $v0                                      0x080202b0   Number         0  cmb_fault.o(.text)
    .text                                    0x080202bc   Section        0  uldiv.o(.text)
    .text                                    0x0802031e   Section        0  memmovea.o(.text)
    .text                                    0x0802035e   Section        0  memseta.o(.text)
    .text                                    0x08020382   Section        0  strncpy.o(.text)
    .text                                    0x0802039a   Section        0  memcmp.o(.text)
    .text                                    0x080203b4   Section        0  llshl.o(.text)
    .text                                    0x080203d2   Section        0  llushr.o(.text)
    .text                                    0x080203f4   Section       36  init.o(.text)
    .text                                    0x08020418   Section        0  __dczerorl2.o(.text)
    i.AppTaskCreate                          0x08020470   Section        0  app.o(i.AppTaskCreate)
    AppTaskCreate                            0x08020471   Thumb Code    94  app.o(i.AppTaskCreate)
    i.BSP_Init                               0x08020500   Section        0  board.o(i.BSP_Init)
    i.Bsp_Eth_Init                           0x080205b0   Section        0  bsp_eth.o(i.Bsp_Eth_Init)
    i.BusFault_Handler                       0x080206ec   Section        0  stm32f4xx_it.o(i.BusFault_Handler)
    i.DMA1_Stream1_IRQHandler                0x080206f0   Section        0  usart.o(i.DMA1_Stream1_IRQHandler)
    i.DMA1_Stream2_IRQHandler                0x080206fc   Section        0  spi.o(i.DMA1_Stream2_IRQHandler)
    i.DMA1_Stream3_IRQHandler                0x08020708   Section        0  spi.o(i.DMA1_Stream3_IRQHandler)
    i.DMA1_Stream4_IRQHandler                0x08020714   Section        0  spi.o(i.DMA1_Stream4_IRQHandler)
    i.DMA1_Stream5_IRQHandler                0x08020720   Section        0  usart.o(i.DMA1_Stream5_IRQHandler)
    i.DMA1_Stream6_IRQHandler                0x0802072c   Section        0  usart.o(i.DMA1_Stream6_IRQHandler)
    i.DMA2_Stream0_IRQHandler                0x08020738   Section        0  spi.o(i.DMA2_Stream0_IRQHandler)
    i.DMA2_Stream1_IRQHandler                0x08020744   Section        0  usart.o(i.DMA2_Stream1_IRQHandler)
    i.DMA2_Stream2_IRQHandler                0x08020750   Section        0  usart.o(i.DMA2_Stream2_IRQHandler)
    i.DMA2_Stream3_IRQHandler                0x0802075c   Section        0  spi.o(i.DMA2_Stream3_IRQHandler)
    i.DMA2_Stream6_IRQHandler                0x08020768   Section        0  usart.o(i.DMA2_Stream6_IRQHandler)
    i.DMA2_Stream7_IRQHandler                0x08020774   Section        0  usart.o(i.DMA2_Stream7_IRQHandler)
    i.DMA_CalcBaseAndBitshift                0x08020780   Section        0  stm32f4xx_hal_dma.o(i.DMA_CalcBaseAndBitshift)
    DMA_CalcBaseAndBitshift                  0x08020781   Thumb Code    34  stm32f4xx_hal_dma.o(i.DMA_CalcBaseAndBitshift)
    i.DMA_CheckFifoParam                     0x080207a8   Section        0  stm32f4xx_hal_dma.o(i.DMA_CheckFifoParam)
    DMA_CheckFifoParam                       0x080207a9   Thumb Code    84  stm32f4xx_hal_dma.o(i.DMA_CheckFifoParam)
    i.DMA_SetConfig                          0x080207fc   Section        0  stm32f4xx_hal_dma.o(i.DMA_SetConfig)
    DMA_SetConfig                            0x080207fd   Thumb Code    40  stm32f4xx_hal_dma.o(i.DMA_SetConfig)
    i.DebugMon_Handler                       0x08020824   Section        0  stm32f4xx_it.o(i.DebugMon_Handler)
    i.ETH_Delay                              0x08020828   Section        0  stm32f4xx_hal_eth.o(i.ETH_Delay)
    ETH_Delay                                0x08020829   Thumb Code    28  stm32f4xx_hal_eth.o(i.ETH_Delay)
    i.ETH_FlushTransmitFIFO                  0x08020848   Section        0  stm32f4xx_hal_eth.o(i.ETH_FlushTransmitFIFO)
    ETH_FlushTransmitFIFO                    0x08020849   Thumb Code    46  stm32f4xx_hal_eth.o(i.ETH_FlushTransmitFIFO)
    i.ETH_IRQHandler                         0x08020878   Section        0  bsp_eth.o(i.ETH_IRQHandler)
    i.ETH_MACDMAConfig                       0x0802089c   Section        0  stm32f4xx_hal_eth.o(i.ETH_MACDMAConfig)
    ETH_MACDMAConfig                         0x0802089d   Thumb Code   276  stm32f4xx_hal_eth.o(i.ETH_MACDMAConfig)
    i.EnableUartIT                           0x080209c8   Section        0  usart.o(i.EnableUartIT)
    i.FLASH_Erase_Sector                     0x08020a6c   Section        0  stm32f4xx_hal_flash_ex.o(i.FLASH_Erase_Sector)
    i.FLASH_FlushCaches                      0x08020b80   Section        0  stm32f4xx_hal_flash_ex.o(i.FLASH_FlushCaches)
    i.FLASH_MassErase                        0x08020bd4   Section        0  stm32f4xx_hal_flash_ex.o(i.FLASH_MassErase)
    FLASH_MassErase                          0x08020bd5   Thumb Code   110  stm32f4xx_hal_flash_ex.o(i.FLASH_MassErase)
    i.FLASH_Program_Byte                     0x08020c88   Section        0  stm32f4xx_hal_flash.o(i.FLASH_Program_Byte)
    FLASH_Program_Byte                       0x08020c89   Thumb Code    62  stm32f4xx_hal_flash.o(i.FLASH_Program_Byte)
    i.FLASH_Program_DoubleWord               0x08020d0c   Section        0  stm32f4xx_hal_flash.o(i.FLASH_Program_DoubleWord)
    FLASH_Program_DoubleWord                 0x08020d0d   Thumb Code    70  stm32f4xx_hal_flash.o(i.FLASH_Program_DoubleWord)
    i.FLASH_Program_HalfWord                 0x08020d98   Section        0  stm32f4xx_hal_flash.o(i.FLASH_Program_HalfWord)
    FLASH_Program_HalfWord                   0x08020d99   Thumb Code    66  stm32f4xx_hal_flash.o(i.FLASH_Program_HalfWord)
    i.FLASH_Program_Word                     0x08020e20   Section        0  stm32f4xx_hal_flash.o(i.FLASH_Program_Word)
    FLASH_Program_Word                       0x08020e21   Thumb Code    66  stm32f4xx_hal_flash.o(i.FLASH_Program_Word)
    i.FLASH_SetErrorCode                     0x08020ea8   Section        0  stm32f4xx_hal_flash.o(i.FLASH_SetErrorCode)
    FLASH_SetErrorCode                       0x08020ea9   Thumb Code   116  stm32f4xx_hal_flash.o(i.FLASH_SetErrorCode)
    i.FLASH_WaitForLastOperation             0x08020f24   Section        0  stm32f4xx_hal_flash.o(i.FLASH_WaitForLastOperation)
    i.GPIO_CLK_Init                          0x08020f74   Section        0  board.o(i.GPIO_CLK_Init)
    GPIO_CLK_Init                            0x08020f75   Thumb Code   102  board.o(i.GPIO_CLK_Init)
    i.HAL_DMA_Abort                          0x08020fe0   Section        0  stm32f4xx_hal_dma.o(i.HAL_DMA_Abort)
    i.HAL_DMA_Abort_IT                       0x0802106e   Section        0  stm32f4xx_hal_dma.o(i.HAL_DMA_Abort_IT)
    i.HAL_DMA_IRQHandler                     0x08021094   Section        0  stm32f4xx_hal_dma.o(i.HAL_DMA_IRQHandler)
    i.HAL_DMA_Init                           0x08021234   Section        0  stm32f4xx_hal_dma.o(i.HAL_DMA_Init)
    i.HAL_DMA_Start_IT                       0x08021514   Section        0  stm32f4xx_hal_dma.o(i.HAL_DMA_Start_IT)
    i.HAL_Delay                              0x080215e8   Section        0  stm32f4xx_hal.o(i.HAL_Delay)
    i.HAL_ETH_DMARxDescListInit              0x0802160c   Section        0  stm32f4xx_hal_eth.o(i.HAL_ETH_DMARxDescListInit)
    i.HAL_ETH_DMATxDescListInit              0x0802167e   Section        0  stm32f4xx_hal_eth.o(i.HAL_ETH_DMATxDescListInit)
    i.HAL_ETH_DeInit                         0x080216f6   Section        0  stm32f4xx_hal_eth.o(i.HAL_ETH_DeInit)
    i.HAL_ETH_ErrorCallback                  0x08021710   Section        0  bsp_eth.o(i.HAL_ETH_ErrorCallback)
    i.HAL_ETH_GetReceivedFrame               0x0802173c   Section        0  stm32f4xx_hal_eth.o(i.HAL_ETH_GetReceivedFrame)
    i.HAL_ETH_IRQHandler                     0x080217b6   Section        0  stm32f4xx_hal_eth.o(i.HAL_ETH_IRQHandler)
    i.HAL_ETH_Init                           0x08021830   Section        0  stm32f4xx_hal_eth.o(i.HAL_ETH_Init)
    i.HAL_ETH_MspDeInit                      0x08021ac0   Section        0  bsp_eth.o(i.HAL_ETH_MspDeInit)
    i.HAL_ETH_MspInit                        0x08021b2c   Section        0  bsp_eth.o(i.HAL_ETH_MspInit)
    i.HAL_ETH_ReadPHYRegister                0x08021c6c   Section        0  stm32f4xx_hal_eth.o(i.HAL_ETH_ReadPHYRegister)
    i.HAL_ETH_RxCpltCallback                 0x08021d3c   Section        0  bsp_eth.o(i.HAL_ETH_RxCpltCallback)
    i.HAL_ETH_Start                          0x08021d6c   Section        0  stm32f4xx_hal_eth.o(i.HAL_ETH_Start)
    i.HAL_ETH_TransmitFrame                  0x08021df0   Section        0  stm32f4xx_hal_eth.o(i.HAL_ETH_TransmitFrame)
    i.HAL_ETH_TxCpltCallback                 0x08021ef8   Section        0  bsp_eth.o(i.HAL_ETH_TxCpltCallback)
    i.HAL_ETH_WritePHYRegister               0x08021efc   Section        0  stm32f4xx_hal_eth.o(i.HAL_ETH_WritePHYRegister)
    i.HAL_FLASHEx_Erase                      0x08021fc4   Section        0  stm32f4xx_hal_flash_ex.o(i.HAL_FLASHEx_Erase)
    i.HAL_FLASH_Lock                         0x080220cc   Section        0  stm32f4xx_hal_flash.o(i.HAL_FLASH_Lock)
    i.HAL_FLASH_Program                      0x080220e0   Section        0  stm32f4xx_hal_flash.o(i.HAL_FLASH_Program)
    i.HAL_FLASH_Unlock                       0x080221b0   Section        0  stm32f4xx_hal_flash.o(i.HAL_FLASH_Unlock)
    i.HAL_GPIO_DeInit                        0x080221dc   Section        0  stm32f4xx_hal_gpio.o(i.HAL_GPIO_DeInit)
    i.HAL_GPIO_Init                          0x080223a4   Section        0  stm32f4xx_hal_gpio.o(i.HAL_GPIO_Init)
    i.HAL_GPIO_WritePin                      0x080226dc   Section        0  stm32f4xx_hal_gpio.o(i.HAL_GPIO_WritePin)
    i.HAL_GetTick                            0x08022748   Section        0  stm32f4xx_hal.o(i.HAL_GetTick)
    i.HAL_IncTick                            0x08022754   Section        0  stm32f4xx_hal.o(i.HAL_IncTick)
    i.HAL_Init                               0x08022764   Section        0  stm32f4xx_hal.o(i.HAL_Init)
    i.HAL_InitTick                           0x08022798   Section        0  stm32f4xx_hal.o(i.HAL_InitTick)
    i.HAL_MspInit                            0x080227d8   Section        0  stm32f4xx_hal.o(i.HAL_MspInit)
    i.HAL_NVIC_DisableIRQ                    0x080227dc   Section        0  stm32f4xx_hal_cortex.o(i.HAL_NVIC_DisableIRQ)
    i.HAL_NVIC_EnableIRQ                     0x08022840   Section        0  stm32f4xx_hal_cortex.o(i.HAL_NVIC_EnableIRQ)
    i.HAL_NVIC_SetPriority                   0x080228a4   Section        0  stm32f4xx_hal_cortex.o(i.HAL_NVIC_SetPriority)
    i.HAL_NVIC_SetPriorityGrouping           0x08022944   Section        0  stm32f4xx_hal_cortex.o(i.HAL_NVIC_SetPriorityGrouping)
    i.HAL_RCC_ClockConfig                    0x080229c8   Section        0  stm32f4xx_hal_rcc.o(i.HAL_RCC_ClockConfig)
    i.HAL_RCC_GetHCLKFreq                    0x08022c2c   Section        0  stm32f4xx_hal_rcc.o(i.HAL_RCC_GetHCLKFreq)
    i.HAL_RCC_GetPCLK1Freq                   0x08022c38   Section        0  stm32f4xx_hal_rcc.o(i.HAL_RCC_GetPCLK1Freq)
    i.HAL_RCC_GetPCLK2Freq                   0x08022c58   Section        0  stm32f4xx_hal_rcc.o(i.HAL_RCC_GetPCLK2Freq)
    i.HAL_RCC_GetSysClockFreq                0x08022c78   Section        0  stm32f4xx_hal_rcc.o(i.HAL_RCC_GetSysClockFreq)
    i.HAL_RCC_MCOConfig                      0x08022cdc   Section        0  stm32f4xx_hal_rcc.o(i.HAL_RCC_MCOConfig)
    i.HAL_RCC_OscConfig                      0x08022e3c   Section        0  stm32f4xx_hal_rcc.o(i.HAL_RCC_OscConfig)
    i.HAL_RNG_GenerateRandomNumber           0x08023280   Section        0  stm32f4xx_hal_rng.o(i.HAL_RNG_GenerateRandomNumber)
    i.HAL_RNG_Init                           0x080232e6   Section        0  stm32f4xx_hal_rng.o(i.HAL_RNG_Init)
    i.HAL_RNG_MspInit                        0x08023316   Section        0  stm32f4xx_hal_rng.o(i.HAL_RNG_MspInit)
    i.HAL_SPI1_RxCpltCallback                0x08023318   Section        0  spi.o(i.HAL_SPI1_RxCpltCallback)
    i.HAL_SPI_DMAStop                        0x08023358   Section        0  stm32f4xx_hal_spi.o(i.HAL_SPI_DMAStop)
    i.HAL_SPI_ErrorCallback                  0x08023380   Section        0  stm32f4xx_hal_spi.o(i.HAL_SPI_ErrorCallback)
    i.HAL_SPI_IRQHandler                     0x08023384   Section        0  stm32f4xx_hal_spi.o(i.HAL_SPI_IRQHandler)
    i.HAL_SPI_Init                           0x08023458   Section        0  stm32f4xx_hal_spi.o(i.HAL_SPI_Init)
    i.HAL_SPI_MspInit                        0x0802366c   Section        0  spi.o(i.HAL_SPI_MspInit)
    i.HAL_SPI_Receive_DMA                    0x080238d8   Section        0  stm32f4xx_hal_spi.o(i.HAL_SPI_Receive_DMA)
    i.HAL_SPI_RxCpltCallback                 0x080239cc   Section        0  spi.o(i.HAL_SPI_RxCpltCallback)
    i.HAL_SPI_RxHalfCpltCallback             0x080239ce   Section        0  stm32f4xx_hal_spi.o(i.HAL_SPI_RxHalfCpltCallback)
    i.HAL_SPI_TransmitReceive_DMA            0x080239d0   Section        0  stm32f4xx_hal_spi.o(i.HAL_SPI_TransmitReceive_DMA)
    i.HAL_SPI_TxRxCpltCallback               0x08023b50   Section        0  stm32f4xx_hal_spi.o(i.HAL_SPI_TxRxCpltCallback)
    i.HAL_SPI_TxRxHalfCpltCallback           0x08023b52   Section        0  stm32f4xx_hal_spi.o(i.HAL_SPI_TxRxHalfCpltCallback)
    i.HAL_SYSTICK_Config                     0x08023b54   Section        0  stm32f4xx_hal_cortex.o(i.HAL_SYSTICK_Config)
    i.HAL_UART_DMAStop                       0x08023b7c   Section        0  stm32f4xx_hal_uart.o(i.HAL_UART_DMAStop)
    i.HAL_UART_ErrorCallback                 0x08023bd4   Section        0  stm32f4xx_hal_uart.o(i.HAL_UART_ErrorCallback)
    i.HAL_UART_IRQHandler                    0x08023bd8   Section        0  stm32f4xx_hal_uart.o(i.HAL_UART_IRQHandler)
    i.HAL_UART_Init                          0x08023ce8   Section        0  stm32f4xx_hal_uart.o(i.HAL_UART_Init)
    i.HAL_UART_MspInit                       0x08023e44   Section        0  usart.o(i.HAL_UART_MspInit)
    i.HAL_UART_Receive_DMA                   0x080240e8   Section        0  stm32f4xx_hal_uart.o(i.HAL_UART_Receive_DMA)
    i.HAL_UART_RxCpltCallback                0x08024180   Section        0  stm32f4xx_hal_uart.o(i.HAL_UART_RxCpltCallback)
    i.HAL_UART_RxHalfCpltCallback            0x08024182   Section        0  stm32f4xx_hal_uart.o(i.HAL_UART_RxHalfCpltCallback)
    i.HAL_UART_Transmit                      0x08024184   Section        0  stm32f4xx_hal_uart.o(i.HAL_UART_Transmit)
    i.HAL_UART_TxCpltCallback                0x0802423e   Section        0  stm32f4xx_hal_uart.o(i.HAL_UART_TxCpltCallback)
    i.HAL_USART1_RxCpltCallback              0x08024240   Section        0  usart.o(i.HAL_USART1_RxCpltCallback)
    i.HAL_USART2_RxCpltCallback              0x08024290   Section        0  usart.o(i.HAL_USART2_RxCpltCallback)
    i.HAL_USART3_RxCpltCallback              0x080242d8   Section        0  usart.o(i.HAL_USART3_RxCpltCallback)
    i.HAL_USART6_RxCpltCallback              0x08024340   Section        0  usart.o(i.HAL_USART6_RxCpltCallback)
    i.LED_GPIO_Config                        0x08024388   Section        0  bsp_led.o(i.LED_GPIO_Config)
    i.MX_DMA_Init                            0x08024430   Section        0  dma.o(i.MX_DMA_Init)
    i.MX_SPI1_Init                           0x0802453c   Section        0  spi.o(i.MX_SPI1_Init)
    i.MX_USART1_UART_Init                    0x08024568   Section        0  usart.o(i.MX_USART1_UART_Init)
    i.MX_USART2_UART_Init                    0x08024590   Section        0  usart.o(i.MX_USART2_UART_Init)
    i.MX_USART3_UART_Init                    0x080245b8   Section        0  usart.o(i.MX_USART3_UART_Init)
    i.MX_USART6_UART_Init                    0x080245e0   Section        0  usart.o(i.MX_USART6_UART_Init)
    i.MemManage_Handler                      0x08024608   Section        0  stm32f4xx_it.o(i.MemManage_Handler)
    i.NMI_Handler                            0x0802460a   Section        0  stm32f4xx_it.o(i.NMI_Handler)
    i.NVIC_SetPriority                       0x0802460c   Section        0  stm32f4xx_hal_cortex.o(i.NVIC_SetPriority)
    NVIC_SetPriority                         0x0802460d   Thumb Code    32  stm32f4xx_hal_cortex.o(i.NVIC_SetPriority)
    i.ReadByte                               0x0802462c   Section        0  util.o(i.ReadByte)
    i.ReadDWord                              0x08024638   Section        0  util.o(i.ReadDWord)
    i.SPI1_IRQHandler                        0x0802465c   Section        0  spi.o(i.SPI1_IRQHandler)
    i.SPI2_IRQHandler                        0x080246c8   Section        0  spi.o(i.SPI2_IRQHandler)
    i.SPI3_IRQHandler                        0x080246d4   Section        0  spi.o(i.SPI3_IRQHandler)
    i.SPI_CheckFlag_BSY                      0x080246e0   Section        0  stm32f4xx_hal_spi.o(i.SPI_CheckFlag_BSY)
    SPI_CheckFlag_BSY                        0x080246e1   Thumb Code    32  stm32f4xx_hal_spi.o(i.SPI_CheckFlag_BSY)
    i.SPI_DMAAbortOnError                    0x08024700   Section        0  stm32f4xx_hal_spi.o(i.SPI_DMAAbortOnError)
    SPI_DMAAbortOnError                      0x08024701   Thumb Code    16  stm32f4xx_hal_spi.o(i.SPI_DMAAbortOnError)
    i.SPI_DMAError                           0x08024710   Section        0  stm32f4xx_hal_spi.o(i.SPI_DMAError)
    SPI_DMAError                             0x08024711   Thumb Code    34  stm32f4xx_hal_spi.o(i.SPI_DMAError)
    i.SPI_DMAHalfReceiveCplt                 0x08024732   Section        0  stm32f4xx_hal_spi.o(i.SPI_DMAHalfReceiveCplt)
    SPI_DMAHalfReceiveCplt                   0x08024733   Thumb Code    10  stm32f4xx_hal_spi.o(i.SPI_DMAHalfReceiveCplt)
    i.SPI_DMAHalfTransmitReceiveCplt         0x0802473c   Section        0  stm32f4xx_hal_spi.o(i.SPI_DMAHalfTransmitReceiveCplt)
    SPI_DMAHalfTransmitReceiveCplt           0x0802473d   Thumb Code    10  stm32f4xx_hal_spi.o(i.SPI_DMAHalfTransmitReceiveCplt)
    i.SPI_DMAReceiveCplt                     0x08024746   Section        0  stm32f4xx_hal_spi.o(i.SPI_DMAReceiveCplt)
    SPI_DMAReceiveCplt                       0x08024747   Thumb Code   160  stm32f4xx_hal_spi.o(i.SPI_DMAReceiveCplt)
    i.SPI_DMATransmitReceiveCplt             0x080247e6   Section        0  stm32f4xx_hal_spi.o(i.SPI_DMATransmitReceiveCplt)
    SPI_DMATransmitReceiveCplt               0x080247e7   Thumb Code   152  stm32f4xx_hal_spi.o(i.SPI_DMATransmitReceiveCplt)
    i.SPI_WaitFlagStateUntilTimeout          0x0802487e   Section        0  stm32f4xx_hal_spi.o(i.SPI_WaitFlagStateUntilTimeout)
    SPI_WaitFlagStateUntilTimeout            0x0802487f   Thumb Code   150  stm32f4xx_hal_spi.o(i.SPI_WaitFlagStateUntilTimeout)
    i.Sem_give_ISR                           0x08024914   Section        0  ble_handler.o(i.Sem_give_ISR)
    i.SysTick_Handler                        0x08024984   Section        0  stm32f4xx_it.o(i.SysTick_Handler)
    i.SystemClock_Config                     0x080249b0   Section        0  board.o(i.SystemClock_Config)
    SystemClock_Config                       0x080249b1   Thumb Code   136  board.o(i.SystemClock_Config)
    i.SystemInit                             0x08024a40   Section        0  system_stm32f4xx.o(i.SystemInit)
    i.Test1_Task                             0x08024a94   Section        0  test.o(i.Test1_Task)
    Test1_Task                               0x08024a95   Thumb Code    24  test.o(i.Test1_Task)
    i.Test2_Task                             0x08024ac0   Section        0  test.o(i.Test2_Task)
    Test2_Task                               0x08024ac1   Thumb Code    12  test.o(i.Test2_Task)
    i.UART_DMAAbortOnError                   0x08024acc   Section        0  stm32f4xx_hal_uart.o(i.UART_DMAAbortOnError)
    UART_DMAAbortOnError                     0x08024acd   Thumb Code    16  stm32f4xx_hal_uart.o(i.UART_DMAAbortOnError)
    i.UART_DMAError                          0x08024adc   Section        0  stm32f4xx_hal_uart.o(i.UART_DMAError)
    UART_DMAError                            0x08024add   Thumb Code    74  stm32f4xx_hal_uart.o(i.UART_DMAError)
    i.UART_DMAReceiveCplt                    0x08024b26   Section        0  stm32f4xx_hal_uart.o(i.UART_DMAReceiveCplt)
    UART_DMAReceiveCplt                      0x08024b27   Thumb Code    60  stm32f4xx_hal_uart.o(i.UART_DMAReceiveCplt)
    i.UART_DMARxHalfCplt                     0x08024b62   Section        0  stm32f4xx_hal_uart.o(i.UART_DMARxHalfCplt)
    UART_DMARxHalfCplt                       0x08024b63   Thumb Code    10  stm32f4xx_hal_uart.o(i.UART_DMARxHalfCplt)
    i.UART_EndRxTransfer                     0x08024b6c   Section        0  stm32f4xx_hal_uart.o(i.UART_EndRxTransfer)
    UART_EndRxTransfer                       0x08024b6d   Thumb Code    28  stm32f4xx_hal_uart.o(i.UART_EndRxTransfer)
    i.UART_EndTxTransfer                     0x08024b88   Section        0  stm32f4xx_hal_uart.o(i.UART_EndTxTransfer)
    UART_EndTxTransfer                       0x08024b89   Thumb Code    18  stm32f4xx_hal_uart.o(i.UART_EndTxTransfer)
    i.UART_Receive_IT                        0x08024b9a   Section        0  stm32f4xx_hal_uart.o(i.UART_Receive_IT)
    UART_Receive_IT                          0x08024b9b   Thumb Code   140  stm32f4xx_hal_uart.o(i.UART_Receive_IT)
    i.UART_SetConfig                         0x08024c28   Section        0  stm32f4xx_hal_uart.o(i.UART_SetConfig)
    UART_SetConfig                           0x08024c29   Thumb Code   762  stm32f4xx_hal_uart.o(i.UART_SetConfig)
    i.UART_Transmit_IT                       0x08024f6c   Section        0  stm32f4xx_hal_uart.o(i.UART_Transmit_IT)
    UART_Transmit_IT                         0x08024f6d   Thumb Code    98  stm32f4xx_hal_uart.o(i.UART_Transmit_IT)
    i.UART_WaitOnFlagUntilTimeout            0x08024fce   Section        0  stm32f4xx_hal_uart.o(i.UART_WaitOnFlagUntilTimeout)
    UART_WaitOnFlagUntilTimeout              0x08024fcf   Thumb Code    98  stm32f4xx_hal_uart.o(i.UART_WaitOnFlagUntilTimeout)
    i.USART1_IRQHandler                      0x08025030   Section        0  usart.o(i.USART1_IRQHandler)
    i.USART2_IRQHandler                      0x08025084   Section        0  usart.o(i.USART2_IRQHandler)
    i.USART3_IRQHandler                      0x080250d8   Section        0  usart.o(i.USART3_IRQHandler)
    i.USART6_IRQHandler                      0x0802512c   Section        0  usart.o(i.USART6_IRQHandler)
    i.UsageFault_Handler                     0x08025180   Section        0  stm32f4xx_it.o(i.UsageFault_Handler)
    i.WriteByte                              0x08025182   Section        0  util.o(i.WriteByte)
    i.WriteDWord                             0x0802518e   Section        0  util.o(i.WriteDWord)
    i.__0printf$8                            0x080251ac   Section        0  printf8.o(i.__0printf$8)
    i.__0sprintf$8                           0x080251cc   Section        0  printf8.o(i.__0sprintf$8)
    i.__scatterload_copy                     0x080251f4   Section       14  handlers.o(i.__scatterload_copy)
    i.__scatterload_null                     0x08025202   Section        2  handlers.o(i.__scatterload_null)
    i.__scatterload_zeroinit                 0x08025204   Section       14  handlers.o(i.__scatterload_zeroinit)
    i._printf_core                           0x08025214   Section        0  printf8.o(i._printf_core)
    _printf_core                             0x08025215   Thumb Code   984  printf8.o(i._printf_core)
    i._printf_post_padding                   0x08025618   Section        0  printf8.o(i._printf_post_padding)
    _printf_post_padding                     0x08025619   Thumb Code    36  printf8.o(i._printf_post_padding)
    i._printf_pre_padding                    0x0802563c   Section        0  printf8.o(i._printf_pre_padding)
    _printf_pre_padding                      0x0802563d   Thumb Code    46  printf8.o(i._printf_pre_padding)
    i._sputc                                 0x0802566a   Section        0  printf8.o(i._sputc)
    _sputc                                   0x0802566b   Thumb Code    10  printf8.o(i._sputc)
    i.app_start_task_init                    0x08025674   Section        0  app.o(i.app_start_task_init)
    i.assert_failed                          0x080256b4   Section        0  board.o(i.assert_failed)
    i.ble_send_bytes                         0x080256e8   Section        0  ble_usart.o(i.ble_send_bytes)
    i.ble_task_init                          0x0802571c   Section        0  ble_handler.o(i.ble_task_init)
    i.ble_thread                             0x0802581c   Section        0  ble_handler.o(i.ble_thread)
    ble_thread                               0x0802581d   Thumb Code   104  ble_handler.o(i.ble_thread)
    i.business_strategy_flash_check          0x080258cc   Section        0  strategy.o(i.business_strategy_flash_check)
    business_strategy_flash_check            0x080258cd   Thumb Code    78  strategy.o(i.business_strategy_flash_check)
    i.business_strategy_init                 0x08025974   Section        0  strategy.o(i.business_strategy_init)
    i.cm_backtrace_assert                    0x080259a0   Section        0  cm_backtrace.o(i.cm_backtrace_assert)
    i.cm_backtrace_call_stack                0x08025a18   Section        0  cm_backtrace.o(i.cm_backtrace_call_stack)
    i.cm_backtrace_fault                     0x08025ab8   Section        0  cm_backtrace.o(i.cm_backtrace_fault)
    i.cm_backtrace_firmware_info             0x08025cf4   Section        0  cm_backtrace.o(i.cm_backtrace_firmware_info)
    i.cm_backtrace_init                      0x08025d20   Section        0  cm_backtrace.o(i.cm_backtrace_init)
    i.crc16bitbybit                          0x08025d7c   Section        0  crc.o(i.crc16bitbybit)
    i.create_tcp_connect                     0x08025db0   Section        0  tcp_client.o(i.create_tcp_connect)
    i.device_update_msg                      0x08025e1c   Section        0  ota.o(i.device_update_msg)
    device_update_msg                        0x08025e1d   Thumb Code   170  ota.o(i.device_update_msg)
    i.dhcp_arp_reply                         0x08025f40   Section        0  dhcp.o(i.dhcp_arp_reply)
    i.dhcp_bind                              0x08025f74   Section        0  dhcp.o(i.dhcp_bind)
    dhcp_bind                                0x08025f75   Thumb Code   232  dhcp.o(i.dhcp_bind)
    i.dhcp_check                             0x08026090   Section        0  dhcp.o(i.dhcp_check)
    dhcp_check                               0x08026091   Thumb Code    52  dhcp.o(i.dhcp_check)
    i.dhcp_coarse_tmr                        0x080260c4   Section        0  dhcp.o(i.dhcp_coarse_tmr)
    i.dhcp_create_msg                        0x08026170   Section        0  dhcp.o(i.dhcp_create_msg)
    dhcp_create_msg                          0x08026171   Thumb Code   226  dhcp.o(i.dhcp_create_msg)
    i.dhcp_dec_pcb_refcount                  0x080262dc   Section        0  dhcp.o(i.dhcp_dec_pcb_refcount)
    dhcp_dec_pcb_refcount                    0x080262dd   Thumb Code    38  dhcp.o(i.dhcp_dec_pcb_refcount)
    i.dhcp_decline                           0x0802632c   Section        0  dhcp.o(i.dhcp_decline)
    dhcp_decline                             0x0802632d   Thumb Code   144  dhcp.o(i.dhcp_decline)
    i.dhcp_discover                          0x080263c8   Section        0  dhcp.o(i.dhcp_discover)
    dhcp_discover                            0x080263c9   Thumb Code   220  dhcp.o(i.dhcp_discover)
    i.dhcp_fine_tmr                          0x080264b0   Section        0  dhcp.o(i.dhcp_fine_tmr)
    i.dhcp_handle_ack                        0x080264e4   Section        0  dhcp.o(i.dhcp_handle_ack)
    dhcp_handle_ack                          0x080264e5   Thumb Code    94  dhcp.o(i.dhcp_handle_ack)
    i.dhcp_inc_pcb_refcount                  0x0802654c   Section        0  dhcp.o(i.dhcp_inc_pcb_refcount)
    dhcp_inc_pcb_refcount                    0x0802654d   Thumb Code    78  dhcp.o(i.dhcp_inc_pcb_refcount)
    i.dhcp_option                            0x080265d0   Section        0  dhcp.o(i.dhcp_option)
    dhcp_option                              0x080265d1   Thumb Code    42  dhcp.o(i.dhcp_option)
    i.dhcp_option_byte                       0x08026600   Section        0  dhcp.o(i.dhcp_option_byte)
    dhcp_option_byte                         0x08026601   Thumb Code    26  dhcp.o(i.dhcp_option_byte)
    i.dhcp_option_long                       0x08026654   Section        0  dhcp.o(i.dhcp_option_long)
    dhcp_option_long                         0x08026655   Thumb Code    52  dhcp.o(i.dhcp_option_long)
    i.dhcp_option_short                      0x080266c4   Section        0  dhcp.o(i.dhcp_option_short)
    dhcp_option_short                        0x080266c5   Thumb Code    36  dhcp.o(i.dhcp_option_short)
    i.dhcp_option_trailer                    0x08026724   Section        0  dhcp.o(i.dhcp_option_trailer)
    dhcp_option_trailer                      0x08026725   Thumb Code    36  dhcp.o(i.dhcp_option_trailer)
    i.dhcp_parse_reply                       0x08026748   Section        0  dhcp.o(i.dhcp_parse_reply)
    dhcp_parse_reply                         0x08026749   Thumb Code   568  dhcp.o(i.dhcp_parse_reply)
    i.dhcp_rebind                            0x08026a20   Section        0  dhcp.o(i.dhcp_rebind)
    dhcp_rebind                              0x08026a21   Thumb Code   208  dhcp.o(i.dhcp_rebind)
    i.dhcp_reboot                            0x08026af8   Section        0  dhcp.o(i.dhcp_reboot)
    dhcp_reboot                              0x08026af9   Thumb Code   246  dhcp.o(i.dhcp_reboot)
    i.dhcp_recv                              0x08026bf8   Section        0  dhcp.o(i.dhcp_recv)
    dhcp_recv                                0x08026bf9   Thumb Code   272  dhcp.o(i.dhcp_recv)
    i.dhcp_release_and_stop                  0x08026d18   Section        0  dhcp.o(i.dhcp_release_and_stop)
    i.dhcp_renew                             0x08026dd4   Section        0  dhcp.o(i.dhcp_renew)
    i.dhcp_select                            0x08026eac   Section        0  dhcp.o(i.dhcp_select)
    dhcp_select                              0x08026ead   Thumb Code   328  dhcp.o(i.dhcp_select)
    i.dhcp_set_state                         0x08027038   Section        0  dhcp.o(i.dhcp_set_state)
    dhcp_set_state                           0x08027039   Thumb Code    16  dhcp.o(i.dhcp_set_state)
    i.dhcp_start                             0x08027048   Section        0  dhcp.o(i.dhcp_start)
    i.dhcp_supplied_address                  0x08027100   Section        0  dhcp.o(i.dhcp_supplied_address)
    i.dhcp_timeout                           0x0802711c   Section        0  dhcp.o(i.dhcp_timeout)
    dhcp_timeout                             0x0802711d   Thumb Code   108  dhcp.o(i.dhcp_timeout)
    i.do_memp_free_pool                      0x08027188   Section        0  memp.o(i.do_memp_free_pool)
    do_memp_free_pool                        0x08027189   Thumb Code    38  memp.o(i.do_memp_free_pool)
    i.do_memp_malloc_pool                    0x080271d0   Section        0  memp.o(i.do_memp_malloc_pool)
    do_memp_malloc_pool                      0x080271d1   Thumb Code    50  memp.o(i.do_memp_malloc_pool)
    i.dump_stack                             0x08027228   Section        0  cm_backtrace.o(i.dump_stack)
    dump_stack                               0x08027229   Thumb Code   106  cm_backtrace.o(i.dump_stack)
    i.enable_spi_it                          0x080272e4   Section        0  spi.o(i.enable_spi_it)
    i.err_tcp                                0x0802730c   Section        0  api_msg.o(i.err_tcp)
    err_tcp                                  0x0802730d   Thumb Code   230  api_msg.o(i.err_tcp)
    i.etharp_cleanup_netif                   0x08027458   Section        0  etharp.o(i.etharp_cleanup_netif)
    i.etharp_find_entry                      0x08027484   Section        0  etharp.o(i.etharp_find_entry)
    etharp_find_entry                        0x08027485   Thumb Code   310  etharp.o(i.etharp_find_entry)
    i.etharp_free_entry                      0x08027658   Section        0  etharp.o(i.etharp_free_entry)
    etharp_free_entry                        0x08027659   Thumb Code    32  etharp.o(i.etharp_free_entry)
    i.etharp_input                           0x0802767c   Section        0  etharp.o(i.etharp_input)
    i.etharp_output                          0x08027730   Section        0  etharp.o(i.etharp_output)
    i.etharp_output_to_arp_index             0x08027868   Section        0  etharp.o(i.etharp_output_to_arp_index)
    etharp_output_to_arp_index               0x08027869   Thumb Code   114  etharp.o(i.etharp_output_to_arp_index)
    i.etharp_query                           0x08027910   Section        0  etharp.o(i.etharp_query)
    i.etharp_raw                             0x08027a80   Section        0  etharp.o(i.etharp_raw)
    etharp_raw                               0x08027a81   Thumb Code   178  etharp.o(i.etharp_raw)
    i.etharp_request                         0x08027b7c   Section        0  etharp.o(i.etharp_request)
    i.etharp_request_dst                     0x08027b88   Section        0  etharp.o(i.etharp_request_dst)
    etharp_request_dst                       0x08027b89   Thumb Code    28  etharp.o(i.etharp_request_dst)
    i.etharp_tmr                             0x08027ba8   Section        0  etharp.o(i.etharp_tmr)
    i.etharp_update_arp_entry                0x08027c04   Section        0  etharp.o(i.etharp_update_arp_entry)
    etharp_update_arp_entry                  0x08027c05   Thumb Code   140  etharp.o(i.etharp_update_arp_entry)
    i.ethernet_input                         0x08027cb8   Section        0  ethernet.o(i.ethernet_input)
    i.ethernet_output                        0x08027d5c   Section        0  ethernet.o(i.ethernet_output)
    i.ethernetif_init                        0x08027dec   Section        0  ethernetif.o(i.ethernetif_init)
    i.ethernetif_input                       0x08027e80   Section        0  ethernetif.o(i.ethernetif_input)
    i.fault_diagnosis                        0x08027ec4   Section        0  cm_backtrace.o(i.fault_diagnosis)
    fault_diagnosis                          0x08027ec5   Thumb Code   562  cm_backtrace.o(i.fault_diagnosis)
    i.fputc                                  0x08028104   Section        0  usart.o(i.fputc)
    i.get_random_number                      0x0802811c   Section        0  random.o(i.get_random_number)
    i.get_sys_start_flag                     0x08028130   Section        0  reboot.o(i.get_sys_start_flag)
    i.hal_flash_crc                          0x0802813c   Section        0  hal_flash.o(i.hal_flash_crc)
    i.hal_flash_erase                        0x0802814c   Section        0  hal_flash.o(i.hal_flash_erase)
    i.hal_flash_lock                         0x080281ec   Section        0  hal_flash.o(i.hal_flash_lock)
    i.hal_flash_write                        0x080281f0   Section        0  hal_flash.o(i.hal_flash_write)
    i.hal_read_flash_bytes                   0x080282c8   Section        0  hal_flash.o(i.hal_read_flash_bytes)
    i.hal_read_flash_word                    0x080282e8   Section        0  hal_flash.o(i.hal_read_flash_word)
    i.icmp_dest_unreach                      0x080282fc   Section        0  icmp.o(i.icmp_dest_unreach)
    i.icmp_input                             0x08028304   Section        0  icmp.o(i.icmp_input)
    i.icmp_send_response                     0x08028484   Section        0  icmp.o(i.icmp_send_response)
    icmp_send_response                       0x08028485   Thumb Code   122  icmp.o(i.icmp_send_response)
    i.icmp_time_exceeded                     0x0802852c   Section        0  icmp.o(i.icmp_time_exceeded)
    i.inet_chksum_pbuf                       0x08028534   Section        0  inet_chksum.o(i.inet_chksum_pbuf)
    i.ip4_addr_isbroadcast_u32               0x0802857e   Section        0  ip4_addr.o(i.ip4_addr_isbroadcast_u32)
    i.ip4_frag                               0x080285ac   Section        0  ip4_frag.o(i.ip4_frag)
    i.ip4_input                              0x08028794   Section        0  ip4.o(i.ip4_input)
    i.ip4_input_accept                       0x08028930   Section        0  ip4.o(i.ip4_input_accept)
    ip4_input_accept                         0x08028931   Thumb Code    40  ip4.o(i.ip4_input_accept)
    i.ip4_output_if                          0x0802895c   Section        0  ip4.o(i.ip4_output_if)
    i.ip4_output_if_src                      0x0802897c   Section        0  ip4.o(i.ip4_output_if_src)
    i.ip4_reass                              0x08028a88   Section        0  ip4_frag.o(i.ip4_reass)
    i.ip4_route                              0x08028cb0   Section        0  ip4.o(i.ip4_route)
    i.ip_frag_free_pbuf_custom_ref           0x08028d10   Section        0  ip4_frag.o(i.ip_frag_free_pbuf_custom_ref)
    ip_frag_free_pbuf_custom_ref             0x08028d11   Thumb Code    24  ip4_frag.o(i.ip_frag_free_pbuf_custom_ref)
    i.ip_reass_chain_frag_into_datagram_and_validate 0x08028d34   Section        0  ip4_frag.o(i.ip_reass_chain_frag_into_datagram_and_validate)
    ip_reass_chain_frag_into_datagram_and_validate 0x08028d35   Thumb Code   294  ip4_frag.o(i.ip_reass_chain_frag_into_datagram_and_validate)
    i.ip_reass_dequeue_datagram              0x08028ee8   Section        0  ip4_frag.o(i.ip_reass_dequeue_datagram)
    ip_reass_dequeue_datagram                0x08028ee9   Thumb Code    44  ip4_frag.o(i.ip_reass_dequeue_datagram)
    i.ip_reass_free_complete_datagram        0x08028f34   Section        0  ip4_frag.o(i.ip_reass_free_complete_datagram)
    ip_reass_free_complete_datagram          0x08028f35   Thumb Code   170  ip4_frag.o(i.ip_reass_free_complete_datagram)
    i.ip_reass_remove_oldest_datagram        0x08029048   Section        0  ip4_frag.o(i.ip_reass_remove_oldest_datagram)
    ip_reass_remove_oldest_datagram          0x08029049   Thumb Code   128  ip4_frag.o(i.ip_reass_remove_oldest_datagram)
    i.ip_reass_tmr                           0x080290cc   Section        0  ip4_frag.o(i.ip_reass_tmr)
    i.ipfrag_free_pbuf_custom                0x080290f8   Section        0  ip4_frag.o(i.ipfrag_free_pbuf_custom)
    ipfrag_free_pbuf_custom                  0x080290f9   Thumb Code    30  ip4_frag.o(i.ipfrag_free_pbuf_custom)
    i.iq_data_queue_init                     0x08029124   Section        0  iq_queue.o(i.iq_data_queue_init)
    i.low_level_init                         0x080291b8   Section        0  ethernetif.o(i.low_level_init)
    low_level_init                           0x080291b9   Thumb Code   250  ethernetif.o(i.low_level_init)
    i.low_level_input                        0x08029300   Section        0  ethernetif.o(i.low_level_input)
    low_level_input                          0x08029301   Thumb Code   184  ethernetif.o(i.low_level_input)
    i.low_level_output                       0x080293bc   Section        0  ethernetif.o(i.low_level_output)
    low_level_output                         0x080293bd   Thumb Code   202  ethernetif.o(i.low_level_output)
    i.lwip_cyclic_timer                      0x08029490   Section        0  timeouts.o(i.lwip_cyclic_timer)
    lwip_cyclic_timer                        0x08029491   Thumb Code    50  timeouts.o(i.lwip_cyclic_timer)
    i.lwip_eth_init                          0x080294cc   Section        0  sys_arch.o(i.lwip_eth_init)
    i.lwip_htonl                             0x080295c0   Section        0  def.o(i.lwip_htonl)
    i.lwip_htons                             0x080295c4   Section        0  def.o(i.lwip_htons)
    i.lwip_init                              0x080295c8   Section        0  init.o(i.lwip_init)
    i.lwip_netconn_do_close                  0x080295ec   Section        0  api_msg.o(i.lwip_netconn_do_close)
    i.lwip_netconn_do_close_internal         0x080296b0   Section        0  api_msg.o(i.lwip_netconn_do_close_internal)
    lwip_netconn_do_close_internal           0x080296b1   Thumb Code   388  api_msg.o(i.lwip_netconn_do_close_internal)
    i.lwip_netconn_do_connect                0x080298e8   Section        0  api_msg.o(i.lwip_netconn_do_connect)
    i.lwip_netconn_do_connected              0x080299d4   Section        0  api_msg.o(i.lwip_netconn_do_connected)
    lwip_netconn_do_connected                0x080299d5   Thumb Code   138  api_msg.o(i.lwip_netconn_do_connected)
    i.lwip_netconn_do_delconn                0x08029ae0   Section        0  api_msg.o(i.lwip_netconn_do_delconn)
    i.lwip_netconn_do_newconn                0x08029bf8   Section        0  api_msg.o(i.lwip_netconn_do_newconn)
    i.lwip_netconn_do_recv                   0x08029c0a   Section        0  api_msg.o(i.lwip_netconn_do_recv)
    i.lwip_netconn_do_send                   0x08029c4e   Section        0  api_msg.o(i.lwip_netconn_do_send)
    i.lwip_netconn_do_write                  0x08029c90   Section        0  api_msg.o(i.lwip_netconn_do_write)
    i.lwip_netconn_do_writemore              0x08029d60   Section        0  api_msg.o(i.lwip_netconn_do_writemore)
    lwip_netconn_do_writemore                0x08029d61   Thumb Code   502  api_msg.o(i.lwip_netconn_do_writemore)
    i.lwip_netconn_err_to_msg                0x0802a050   Section        0  api_msg.o(i.lwip_netconn_err_to_msg)
    lwip_netconn_err_to_msg                  0x0802a051   Thumb Code    48  api_msg.o(i.lwip_netconn_err_to_msg)
    i.lwip_netconn_is_err_msg                0x0802a094   Section        0  api_msg.o(i.lwip_netconn_is_err_msg)
    i.lwip_standard_chksum                   0x0802a0dc   Section        0  inet_chksum.o(i.lwip_standard_chksum)
    i.main                                   0x0802a134   Section        0  main.o(i.main)
    i.mem_free                               0x0802a14c   Section        0  mem.o(i.mem_free)
    i.mem_init                               0x0802a2a4   Section        0  mem.o(i.mem_init)
    i.mem_malloc                             0x0802a30c   Section        0  mem.o(i.mem_malloc)
    i.mem_to_ptr                             0x0802a4dc   Section        0  mem.o(i.mem_to_ptr)
    mem_to_ptr                               0x0802a4dd   Thumb Code    10  mem.o(i.mem_to_ptr)
    i.mem_trim                               0x0802a4ec   Section        0  mem.o(i.mem_trim)
    i.memp_free                              0x0802a658   Section        0  memp.o(i.memp_free)
    i.memp_init                              0x0802a694   Section        0  memp.o(i.memp_init)
    i.memp_init_pool                         0x0802a6b0   Section        0  memp.o(i.memp_init_pool)
    i.memp_malloc                            0x0802a6dc   Section        0  memp.o(i.memp_malloc)
    i.netbuf_data                            0x0802a720   Section        0  netbuf.o(i.netbuf_data)
    i.netbuf_delete                          0x0802a7b0   Section        0  netbuf.o(i.netbuf_delete)
    i.netbuf_new                             0x0802a7d2   Section        0  netbuf.o(i.netbuf_new)
    i.netbuf_next                            0x0802a7ec   Section        0  netbuf.o(i.netbuf_next)
    i.netbuf_ref                             0x0802a830   Section        0  netbuf.o(i.netbuf_ref)
    i.netconn_alloc                          0x0802a890   Section        0  api_msg.o(i.netconn_alloc)
    i.netconn_apimsg                         0x0802a930   Section        0  api_lib.o(i.netconn_apimsg)
    netconn_apimsg                           0x0802a931   Thumb Code    22  api_lib.o(i.netconn_apimsg)
    i.netconn_close                          0x0802a946   Section        0  api_lib.o(i.netconn_close)
    i.netconn_close_shutdown                 0x0802a94c   Section        0  api_lib.o(i.netconn_close_shutdown)
    netconn_close_shutdown                   0x0802a94d   Thumb Code    42  api_lib.o(i.netconn_close_shutdown)
    i.netconn_connect                        0x0802a998   Section        0  api_lib.o(i.netconn_connect)
    i.netconn_delete                         0x0802a9ec   Section        0  api_lib.o(i.netconn_delete)
    i.netconn_drain                          0x0802aa0a   Section        0  api_msg.o(i.netconn_drain)
    netconn_drain                            0x0802aa0b   Thumb Code   156  api_msg.o(i.netconn_drain)
    i.netconn_err                            0x0802aaa6   Section        0  api_lib.o(i.netconn_err)
    i.netconn_free                           0x0802aac4   Section        0  api_msg.o(i.netconn_free)
    i.netconn_new_with_proto_and_callback    0x0802abb8   Section        0  api_lib.o(i.netconn_new_with_proto_and_callback)
    i.netconn_prepare_delete                 0x0802acb8   Section        0  api_lib.o(i.netconn_prepare_delete)
    i.netconn_recv                           0x0802acd8   Section        0  api_lib.o(i.netconn_recv)
    i.netconn_recv_data                      0x0802ada0   Section        0  api_lib.o(i.netconn_recv_data)
    netconn_recv_data                        0x0802ada1   Thumb Code   204  api_lib.o(i.netconn_recv_data)
    i.netconn_recv_data_tcp                  0x0802aeb4   Section        0  api_lib.o(i.netconn_recv_data_tcp)
    netconn_recv_data_tcp                    0x0802aeb5   Thumb Code   146  api_lib.o(i.netconn_recv_data_tcp)
    i.netconn_send                           0x0802af48   Section        0  api_lib.o(i.netconn_send)
    i.netconn_tcp_recvd_msg                  0x0802af8c   Section        0  api_lib.o(i.netconn_tcp_recvd_msg)
    netconn_tcp_recvd_msg                    0x0802af8d   Thumb Code    42  api_lib.o(i.netconn_tcp_recvd_msg)
    i.netconn_write_partly                   0x0802afe0   Section        0  api_lib.o(i.netconn_write_partly)
    i.netconn_write_vectors_partly           0x0802aff4   Section        0  api_lib.o(i.netconn_write_vectors_partly)
    i.netif_add                              0x0802b10c   Section        0  netif.o(i.netif_add)
    i.netif_do_ip_addr_changed               0x0802b264   Section        0  netif.o(i.netif_do_ip_addr_changed)
    netif_do_ip_addr_changed                 0x0802b265   Thumb Code    22  netif.o(i.netif_do_ip_addr_changed)
    i.netif_do_set_gw                        0x0802b27a   Section        0  netif.o(i.netif_do_set_gw)
    netif_do_set_gw                          0x0802b27b   Thumb Code    22  netif.o(i.netif_do_set_gw)
    i.netif_do_set_ipaddr                    0x0802b290   Section        0  netif.o(i.netif_do_set_ipaddr)
    netif_do_set_ipaddr                      0x0802b291   Thumb Code    72  netif.o(i.netif_do_set_ipaddr)
    i.netif_do_set_netmask                   0x0802b2e8   Section        0  netif.o(i.netif_do_set_netmask)
    netif_do_set_netmask                     0x0802b2e9   Thumb Code    22  netif.o(i.netif_do_set_netmask)
    i.netif_get_by_index                     0x0802b300   Section        0  netif.o(i.netif_get_by_index)
    i.netif_init                             0x0802b324   Section        0  netif.o(i.netif_init)
    i.netif_issue_reports                    0x0802b328   Section        0  netif.o(i.netif_issue_reports)
    netif_issue_reports                      0x0802b329   Thumb Code    54  netif.o(i.netif_issue_reports)
    i.netif_null_output_ip4                  0x0802b384   Section        0  netif.o(i.netif_null_output_ip4)
    netif_null_output_ip4                    0x0802b385   Thumb Code     6  netif.o(i.netif_null_output_ip4)
    i.netif_set_addr                         0x0802b38c   Section        0  netif.o(i.netif_set_addr)
    i.netif_set_default                      0x0802b3ec   Section        0  netif.o(i.netif_set_default)
    i.netif_set_down                         0x0802b3f8   Section        0  netif.o(i.netif_set_down)
    i.netif_set_up                           0x0802b43c   Section        0  netif.o(i.netif_set_up)
    i.ota_init                               0x0802b478   Section        0  ota.o(i.ota_init)
    i.ota_thread                             0x0802b4f0   Section        0  ota.o(i.ota_thread)
    ota_thread                               0x0802b4f1   Thumb Code   158  ota.o(i.ota_thread)
    i.pbuf_add_header                        0x0802b600   Section        0  pbuf.o(i.pbuf_add_header)
    i.pbuf_add_header_impl                   0x0802b608   Section        0  pbuf.o(i.pbuf_add_header_impl)
    pbuf_add_header_impl                     0x0802b609   Thumb Code    82  pbuf.o(i.pbuf_add_header_impl)
    i.pbuf_alloc                             0x0802b668   Section        0  pbuf.o(i.pbuf_alloc)
    i.pbuf_alloc_reference                   0x0802b820   Section        0  pbuf.o(i.pbuf_alloc_reference)
    i.pbuf_alloced_custom                    0x0802b870   Section        0  pbuf.o(i.pbuf_alloced_custom)
    i.pbuf_cat                               0x0802b8a8   Section        0  pbuf.o(i.pbuf_cat)
    i.pbuf_chain                             0x0802b968   Section        0  pbuf.o(i.pbuf_chain)
    i.pbuf_clen                              0x0802b97a   Section        0  pbuf.o(i.pbuf_clen)
    i.pbuf_clone                             0x0802b98c   Section        0  pbuf.o(i.pbuf_clone)
    i.pbuf_copy                              0x0802b9c8   Section        0  pbuf.o(i.pbuf_copy)
    i.pbuf_copy_partial                      0x0802bb20   Section        0  pbuf.o(i.pbuf_copy_partial)
    i.pbuf_free                              0x0802bbd4   Section        0  pbuf.o(i.pbuf_free)
    i.pbuf_header_force                      0x0802bcbc   Section        0  pbuf.o(i.pbuf_header_force)
    i.pbuf_header_impl                       0x0802bcc2   Section        0  pbuf.o(i.pbuf_header_impl)
    pbuf_header_impl                         0x0802bcc3   Thumb Code    14  pbuf.o(i.pbuf_header_impl)
    i.pbuf_init_alloced_pbuf                 0x0802bcd0   Section        0  pbuf.o(i.pbuf_init_alloced_pbuf)
    pbuf_init_alloced_pbuf                   0x0802bcd1   Thumb Code    28  pbuf.o(i.pbuf_init_alloced_pbuf)
    i.pbuf_realloc                           0x0802bcec   Section        0  pbuf.o(i.pbuf_realloc)
    i.pbuf_ref                               0x0802bda8   Section        0  pbuf.o(i.pbuf_ref)
    i.pbuf_remove_header                     0x0802bde4   Section        0  pbuf.o(i.pbuf_remove_header)
    i.pcb_new                                0x0802be4c   Section        0  api_msg.o(i.pcb_new)
    pcb_new                                  0x0802be4d   Thumb Code   108  api_msg.o(i.pcb_new)
    i.plug_holes                             0x0802bedc   Section        0  mem.o(i.plug_holes)
    plug_holes                               0x0802bedd   Thumb Code   166  mem.o(i.plug_holes)
    i.poll_tcp                               0x0802c004   Section        0  api_msg.o(i.poll_tcp)
    poll_tcp                                 0x0802c005   Thumb Code   106  api_msg.o(i.poll_tcp)
    i.print_call_stack                       0x0802c080   Section        0  cm_backtrace.o(i.print_call_stack)
    print_call_stack                         0x0802c081   Thumb Code   112  cm_backtrace.o(i.print_call_stack)
    i.prvAddCurrentTaskToDelayedList         0x0802c10c   Section        0  tasks.o(i.prvAddCurrentTaskToDelayedList)
    prvAddCurrentTaskToDelayedList           0x0802c10d   Thumb Code   102  tasks.o(i.prvAddCurrentTaskToDelayedList)
    i.prvAddNewTaskToReadyList               0x0802c17c   Section        0  tasks.o(i.prvAddNewTaskToReadyList)
    prvAddNewTaskToReadyList                 0x0802c17d   Thumb Code   190  tasks.o(i.prvAddNewTaskToReadyList)
    i.prvCheckForValidListAndQueue           0x0802c24c   Section        0  timers.o(i.prvCheckForValidListAndQueue)
    prvCheckForValidListAndQueue             0x0802c24d   Thumb Code    62  timers.o(i.prvCheckForValidListAndQueue)
    i.prvCheckTasksWaitingTermination        0x0802c29c   Section        0  tasks.o(i.prvCheckTasksWaitingTermination)
    prvCheckTasksWaitingTermination          0x0802c29d   Thumb Code    74  tasks.o(i.prvCheckTasksWaitingTermination)
    i.prvCopyDataFromQueue                   0x0802c2f0   Section        0  queue.o(i.prvCopyDataFromQueue)
    prvCopyDataFromQueue                     0x0802c2f1   Thumb Code    38  queue.o(i.prvCopyDataFromQueue)
    i.prvCopyDataToQueue                     0x0802c316   Section        0  queue.o(i.prvCopyDataToQueue)
    prvCopyDataToQueue                       0x0802c317   Thumb Code   108  queue.o(i.prvCopyDataToQueue)
    i.prvDeleteTCB                           0x0802c382   Section        0  tasks.o(i.prvDeleteTCB)
    prvDeleteTCB                             0x0802c383   Thumb Code    20  tasks.o(i.prvDeleteTCB)
    i.prvHeapInit                            0x0802c398   Section        0  heap_4.o(i.prvHeapInit)
    prvHeapInit                              0x0802c399   Thumb Code    66  heap_4.o(i.prvHeapInit)
    i.prvIdleTask                            0x0802c3e4   Section        0  tasks.o(i.prvIdleTask)
    prvIdleTask                              0x0802c3e5   Thumb Code    30  tasks.o(i.prvIdleTask)
    i.prvInitialiseNewTask                   0x0802c40c   Section        0  tasks.o(i.prvInitialiseNewTask)
    prvInitialiseNewTask                     0x0802c40d   Thumb Code   142  tasks.o(i.prvInitialiseNewTask)
    i.prvInsertBlockIntoFreeList             0x0802c4c4   Section        0  heap_4.o(i.prvInsertBlockIntoFreeList)
    prvInsertBlockIntoFreeList               0x0802c4c5   Thumb Code    72  heap_4.o(i.prvInsertBlockIntoFreeList)
    i.prvInsertTimerInActiveList             0x0802c510   Section        0  timers.o(i.prvInsertTimerInActiveList)
    prvInsertTimerInActiveList               0x0802c511   Thumb Code    52  timers.o(i.prvInsertTimerInActiveList)
    i.prvIsQueueEmpty                        0x0802c548   Section        0  queue.o(i.prvIsQueueEmpty)
    prvIsQueueEmpty                          0x0802c549   Thumb Code    26  queue.o(i.prvIsQueueEmpty)
    i.prvNotifyQueueSetContainer             0x0802c564   Section        0  queue.o(i.prvNotifyQueueSetContainer)
    prvNotifyQueueSetContainer               0x0802c565   Thumb Code   108  queue.o(i.prvNotifyQueueSetContainer)
    i.prvProcessExpiredTimer                 0x0802c5f8   Section        0  timers.o(i.prvProcessExpiredTimer)
    prvProcessExpiredTimer                   0x0802c5f9   Thumb Code    86  timers.o(i.prvProcessExpiredTimer)
    i.prvProcessReceivedCommands             0x0802c658   Section        0  timers.o(i.prvProcessReceivedCommands)
    prvProcessReceivedCommands               0x0802c659   Thumb Code   182  timers.o(i.prvProcessReceivedCommands)
    i.prvProcessTimerOrBlockTask             0x0802c740   Section        0  timers.o(i.prvProcessTimerOrBlockTask)
    prvProcessTimerOrBlockTask               0x0802c741   Thumb Code    98  timers.o(i.prvProcessTimerOrBlockTask)
    i.prvResetNextTaskUnblockTime            0x0802c7ac   Section        0  tasks.o(i.prvResetNextTaskUnblockTime)
    prvResetNextTaskUnblockTime              0x0802c7ad   Thumb Code    26  tasks.o(i.prvResetNextTaskUnblockTime)
    i.prvSampleTimeNow                       0x0802c7cc   Section        0  timers.o(i.prvSampleTimeNow)
    prvSampleTimeNow                         0x0802c7cd   Thumb Code    36  timers.o(i.prvSampleTimeNow)
    i.prvSwitchTimerLists                    0x0802c7f4   Section        0  timers.o(i.prvSwitchTimerLists)
    prvSwitchTimerLists                      0x0802c7f5   Thumb Code   100  timers.o(i.prvSwitchTimerLists)
    i.prvTaskExitError                       0x0802c860   Section        0  port.o(i.prvTaskExitError)
    prvTaskExitError                         0x0802c861   Thumb Code    36  port.o(i.prvTaskExitError)
    i.prvTaskIsTaskSuspended                 0x0802c8c0   Section        0  tasks.o(i.prvTaskIsTaskSuspended)
    prvTaskIsTaskSuspended                   0x0802c8c1   Thumb Code    44  tasks.o(i.prvTaskIsTaskSuspended)
    i.prvTimerTask                           0x0802c918   Section        0  timers.o(i.prvTimerTask)
    prvTimerTask                             0x0802c919   Thumb Code    34  timers.o(i.prvTimerTask)
    i.prvUnlockQueue                         0x0802c940   Section        0  queue.o(i.prvUnlockQueue)
    prvUnlockQueue                           0x0802c941   Thumb Code   120  queue.o(i.prvUnlockQueue)
    i.ptr_to_mem                             0x0802c9b8   Section        0  mem.o(i.ptr_to_mem)
    ptr_to_mem                               0x0802c9b9   Thumb Code     8  mem.o(i.ptr_to_mem)
    i.pvPortMalloc                           0x0802c9c4   Section        0  heap_4.o(i.pvPortMalloc)
    i.pvTaskIncrementMutexHeldCount          0x0802cad4   Section        0  tasks.o(i.pvTaskIncrementMutexHeldCount)
    i.pxPortInitialiseStack                  0x0802caec   Section        0  port.o(i.pxPortInitialiseStack)
    i.reboot                                 0x0802cb18   Section        0  reboot.o(i.reboot)
    i.recv_tcp                               0x0802cb64   Section        0  api_msg.o(i.recv_tcp)
    recv_tcp                                 0x0802cb65   Thumb Code   130  api_msg.o(i.recv_tcp)
    i.recv_udp                               0x0802cc68   Section        0  api_msg.o(i.recv_udp)
    recv_udp                                 0x0802cc69   Thumb Code   140  api_msg.o(i.recv_udp)
    i.rng_init                               0x0802cd58   Section        0  random.o(i.rng_init)
    i.rtt_output_hex                         0x0802cd88   Section        0  util.o(i.rtt_output_hex)
    i.save_business_strategy                 0x0802cdc4   Section        0  strategy.o(i.save_business_strategy)
    save_business_strategy                   0x0802cdc5   Thumb Code    90  strategy.o(i.save_business_strategy)
    i.sent_tcp                               0x0802ce68   Section        0  api_msg.o(i.sent_tcp)
    sent_tcp                                 0x0802ce69   Thumb Code    94  api_msg.o(i.sent_tcp)
    i.seq_init                               0x0802ced8   Section        0  package.o(i.seq_init)
    i.setup_tcp                              0x0802cee8   Section        0  api_msg.o(i.setup_tcp)
    setup_tcp                                0x0802cee9   Thumb Code    50  api_msg.o(i.setup_tcp)
    i.start_flag_init                        0x0802cf2c   Section        0  reboot.o(i.start_flag_init)
    i.stick_packet_processing                0x0802cf48   Section        0  tcp_handller.o(i.stick_packet_processing)
    stick_packet_processing                  0x0802cf49   Thumb Code    64  tcp_handller.o(i.stick_packet_processing)
    i.sys_arch_mbox_fetch                    0x0802cfd8   Section        0  sys_arch.o(i.sys_arch_mbox_fetch)
    i.sys_arch_mbox_tryfetch                 0x0802d01a   Section        0  sys_arch.o(i.sys_arch_mbox_tryfetch)
    i.sys_arch_protect                       0x0802d038   Section        0  sys_arch.o(i.sys_arch_protect)
    i.sys_arch_sem_wait                      0x0802d042   Section        0  sys_arch.o(i.sys_arch_sem_wait)
    i.sys_arch_unprotect                     0x0802d07c   Section        0  sys_arch.o(i.sys_arch_unprotect)
    i.sys_check_timeouts                     0x0802d080   Section        0  timeouts.o(i.sys_check_timeouts)
    i.sys_init                               0x0802d0c0   Section        0  sys_arch.o(i.sys_init)
    i.sys_mbox_free                          0x0802d0e4   Section        0  sys_arch.o(i.sys_mbox_free)
    i.sys_mbox_new                           0x0802d0f8   Section        0  sys_arch.o(i.sys_mbox_new)
    i.sys_mbox_set_invalid                   0x0802d116   Section        0  sys_arch.o(i.sys_mbox_set_invalid)
    i.sys_mbox_trypost                       0x0802d11c   Section        0  sys_arch.o(i.sys_mbox_trypost)
    i.sys_mbox_valid                         0x0802d138   Section        0  sys_arch.o(i.sys_mbox_valid)
    i.sys_mutex_lock                         0x0802d142   Section        0  sys_arch.o(i.sys_mutex_lock)
    i.sys_mutex_new                          0x0802d150   Section        0  sys_arch.o(i.sys_mutex_new)
    i.sys_mutex_unlock                       0x0802d18c   Section        0  sys_arch.o(i.sys_mutex_unlock)
    i.sys_now                                0x0802d198   Section        0  sys_arch.o(i.sys_now)
    i.sys_sem_free                           0x0802d1a8   Section        0  sys_arch.o(i.sys_sem_free)
    i.sys_sem_new                            0x0802d1b8   Section        0  sys_arch.o(i.sys_sem_new)
    i.sys_sem_set_invalid                    0x0802d210   Section        0  sys_arch.o(i.sys_sem_set_invalid)
    i.sys_sem_signal                         0x0802d218   Section        0  sys_arch.o(i.sys_sem_signal)
    i.sys_sem_valid                          0x0802d258   Section        0  sys_arch.o(i.sys_sem_valid)
    i.sys_thread_new                         0x0802d264   Section        0  sys_arch.o(i.sys_thread_new)
    i.sys_timeout                            0x0802d2c0   Section        0  timeouts.o(i.sys_timeout)
    i.sys_timeout_abs                        0x0802d320   Section        0  timeouts.o(i.sys_timeout_abs)
    sys_timeout_abs                          0x0802d321   Thumb Code    82  timeouts.o(i.sys_timeout_abs)
    i.sys_timeouts_init                      0x0802d3b8   Section        0  timeouts.o(i.sys_timeouts_init)
    i.sys_timeouts_sleeptime                 0x0802d3dc   Section        0  timeouts.o(i.sys_timeouts_sleeptime)
    i.tcp_abandon                            0x0802d404   Section        0  tcp.o(i.tcp_abandon)
    i.tcp_abort                              0x0802d540   Section        0  tcp.o(i.tcp_abort)
    i.tcp_accept                             0x0802d546   Section        0  tcp.o(i.tcp_accept)
    i.tcp_alloc                              0x0802d554   Section        0  tcp.o(i.tcp_alloc)
    i.tcp_arg                                0x0802d67c   Section        0  tcp.o(i.tcp_arg)
    i.tcp_client_disconnect                  0x0802d684   Section        0  tcp_client.o(i.tcp_client_disconnect)
    i.tcp_client_netconn_thread              0x0802d728   Section        0  tcp_client.o(i.tcp_client_netconn_thread)
    tcp_client_netconn_thread                0x0802d729   Thumb Code   152  tcp_client.o(i.tcp_client_netconn_thread)
    i.tcp_client_send_data                   0x0802d8c0   Section        0  tcp_client.o(i.tcp_client_send_data)
    i.tcp_client_task_init                   0x0802d968   Section        0  tcp_client.o(i.tcp_client_task_init)
    i.tcp_close                              0x0802da6c   Section        0  tcp.o(i.tcp_close)
    i.tcp_close_shutdown                     0x0802daac   Section        0  tcp.o(i.tcp_close_shutdown)
    tcp_close_shutdown                       0x0802daad   Thumb Code   264  tcp.o(i.tcp_close_shutdown)
    i.tcp_close_shutdown_fin                 0x0802dc14   Section        0  tcp.o(i.tcp_close_shutdown_fin)
    tcp_close_shutdown_fin                   0x0802dc15   Thumb Code    88  tcp.o(i.tcp_close_shutdown_fin)
    i.tcp_common_data_dequeue                0x0802dc78   Section        0  tcp_queue.o(i.tcp_common_data_dequeue)
    i.tcp_common_data_enqueue                0x0802dd10   Section        0  tcp_queue.o(i.tcp_common_data_enqueue)
    i.tcp_common_data_queue_full             0x0802ddc0   Section        0  tcp_queue.o(i.tcp_common_data_queue_full)
    i.tcp_common_data_queue_init             0x0802dde8   Section        0  tcp_queue.o(i.tcp_common_data_queue_init)
    i.tcp_connect                            0x0802de8c   Section        0  tcp.o(i.tcp_connect)
    i.tcp_create_segment                     0x0802e000   Section        0  tcp_out.o(i.tcp_create_segment)
    tcp_create_segment                       0x0802e001   Thumb Code   180  tcp_out.o(i.tcp_create_segment)
    i.tcp_data_handler                       0x0802e110   Section        0  tcp_queue.o(i.tcp_data_handler)
    i.tcp_eff_send_mss_netif                 0x0802e1e4   Section        0  tcp.o(i.tcp_eff_send_mss_netif)
    i.tcp_enqueue_flags                      0x0802e238   Section        0  tcp_out.o(i.tcp_enqueue_flags)
    i.tcp_err                                0x0802e3dc   Section        0  tcp.o(i.tcp_err)
    i.tcp_fasttmr                            0x0802e420   Section        0  tcp.o(i.tcp_fasttmr)
    i.tcp_free                               0x0802e48c   Section        0  tcp.o(i.tcp_free)
    i.tcp_free_acked_segments                0x0802e4bc   Section        0  tcp_in.o(i.tcp_free_acked_segments)
    tcp_free_acked_segments                  0x0802e4bd   Thumb Code   134  tcp_in.o(i.tcp_free_acked_segments)
    i.tcp_get_next_optbyte                   0x0802e590   Section        0  tcp_in.o(i.tcp_get_next_optbyte)
    tcp_get_next_optbyte                     0x0802e591   Thumb Code    34  tcp_in.o(i.tcp_get_next_optbyte)
    i.tcp_handler_task_init                  0x0802e5b8   Section        0  tcp_handller.o(i.tcp_handler_task_init)
    i.tcp_handler_thread                     0x0802e640   Section        0  tcp_handller.o(i.tcp_handler_thread)
    tcp_handler_thread                       0x0802e641   Thumb Code    96  tcp_handller.o(i.tcp_handler_thread)
    i.tcp_init                               0x0802e6a0   Section        0  tcp.o(i.tcp_init)
    i.tcp_input                              0x0802e6a4   Section        0  tcp_in.o(i.tcp_input)
    i.tcp_input_delayed_close                0x0802ec34   Section        0  tcp_in.o(i.tcp_input_delayed_close)
    tcp_input_delayed_close                  0x0802ec35   Thumb Code    62  tcp_in.o(i.tcp_input_delayed_close)
    i.tcp_keepalive                          0x0802eca4   Section        0  tcp_out.o(i.tcp_keepalive)
    i.tcp_kill_state                         0x0802ed0c   Section        0  tcp.o(i.tcp_kill_state)
    tcp_kill_state                           0x0802ed0d   Thumb Code    70  tcp.o(i.tcp_kill_state)
    i.tcp_listen_closed                      0x0802ed68   Section        0  tcp.o(i.tcp_listen_closed)
    tcp_listen_closed                        0x0802ed69   Thumb Code    74  tcp.o(i.tcp_listen_closed)
    i.tcp_listen_input                       0x0802ee04   Section        0  tcp_in.o(i.tcp_listen_input)
    tcp_listen_input                         0x0802ee05   Thumb Code   256  tcp_in.o(i.tcp_listen_input)
    i.tcp_netif_ip_addr_changed              0x0802ef34   Section        0  tcp.o(i.tcp_netif_ip_addr_changed)
    i.tcp_netif_ip_addr_changed_pcblist      0x0802ef80   Section        0  tcp.o(i.tcp_netif_ip_addr_changed_pcblist)
    tcp_netif_ip_addr_changed_pcblist        0x0802ef81   Thumb Code    44  tcp.o(i.tcp_netif_ip_addr_changed_pcblist)
    i.tcp_new_ip_type                        0x0802efe0   Section        0  tcp.o(i.tcp_new_ip_type)
    i.tcp_new_port                           0x0802efe8   Section        0  tcp.o(i.tcp_new_port)
    tcp_new_port                             0x0802efe9   Thumb Code    84  tcp.o(i.tcp_new_port)
    i.tcp_next_iss                           0x0802f044   Section        0  tcp.o(i.tcp_next_iss)
    i.tcp_ota_data_dequeue                   0x0802f07c   Section        0  tcp_queue.o(i.tcp_ota_data_dequeue)
    i.tcp_ota_data_enpueue                   0x0802f110   Section        0  tcp_queue.o(i.tcp_ota_data_enpueue)
    i.tcp_ota_data_queue_full                0x0802f1b8   Section        0  tcp_queue.o(i.tcp_ota_data_queue_full)
    i.tcp_ota_data_queue_init                0x0802f1f0   Section        0  tcp_queue.o(i.tcp_ota_data_queue_init)
    i.tcp_ota_package_handler                0x0802f290   Section        0  tcp_queue.o(i.tcp_ota_package_handler)
    tcp_ota_package_handler                  0x0802f291   Thumb Code   160  tcp_queue.o(i.tcp_ota_package_handler)
    i.tcp_output                             0x0802f37c   Section        0  tcp_out.o(i.tcp_output)
    i.tcp_output_alloc_header                0x0802f5ec   Section        0  tcp_out.o(i.tcp_output_alloc_header)
    tcp_output_alloc_header                  0x0802f5ed   Thumb Code    62  tcp_out.o(i.tcp_output_alloc_header)
    i.tcp_output_alloc_header_common         0x0802f654   Section        0  tcp_out.o(i.tcp_output_alloc_header_common)
    tcp_output_alloc_header_common           0x0802f655   Thumb Code   122  tcp_out.o(i.tcp_output_alloc_header_common)
    i.tcp_output_control_segment             0x0802f700   Section        0  tcp_out.o(i.tcp_output_control_segment)
    tcp_output_control_segment               0x0802f701   Thumb Code    78  tcp_out.o(i.tcp_output_control_segment)
    i.tcp_output_fill_options                0x0802f77c   Section        0  tcp_out.o(i.tcp_output_fill_options)
    tcp_output_fill_options                  0x0802f77d   Thumb Code    46  tcp_out.o(i.tcp_output_fill_options)
    i.tcp_output_segment                     0x0802f7e8   Section        0  tcp_out.o(i.tcp_output_segment)
    tcp_output_segment                       0x0802f7e9   Thumb Code   224  tcp_out.o(i.tcp_output_segment)
    i.tcp_output_segment_busy                0x0802f944   Section        0  tcp_out.o(i.tcp_output_segment_busy)
    tcp_output_segment_busy                  0x0802f945   Thumb Code    28  tcp_out.o(i.tcp_output_segment_busy)
    i.tcp_parseopt                           0x0802f988   Section        0  tcp_in.o(i.tcp_parseopt)
    tcp_parseopt                             0x0802f989   Thumb Code   118  tcp_in.o(i.tcp_parseopt)
    i.tcp_pbuf_prealloc                      0x0802fa20   Section        0  tcp_out.o(i.tcp_pbuf_prealloc)
    tcp_pbuf_prealloc                        0x0802fa21   Thumb Code   132  tcp_out.o(i.tcp_pbuf_prealloc)
    i.tcp_pcb_purge                          0x0802fafc   Section        0  tcp.o(i.tcp_pcb_purge)
    i.tcp_pcb_remove                         0x0802fb60   Section        0  tcp.o(i.tcp_pcb_remove)
    i.tcp_poll                               0x0802fc4c   Section        0  tcp.o(i.tcp_poll)
    i.tcp_process                            0x0802fcb0   Section        0  tcp_in.o(i.tcp_process)
    tcp_process                              0x0802fcb1   Thumb Code   940  tcp_in.o(i.tcp_process)
    i.tcp_process_refused_data               0x080300fc   Section        0  tcp.o(i.tcp_process_refused_data)
    i.tcp_receive                            0x080301a0   Section        0  tcp_in.o(i.tcp_receive)
    tcp_receive                              0x080301a1   Thumb Code  1248  tcp_in.o(i.tcp_receive)
    i.tcp_recv                               0x08030680   Section        0  tcp.o(i.tcp_recv)
    i.tcp_recv_null                          0x080306c4   Section        0  tcp.o(i.tcp_recv_null)
    i.tcp_recv_thread                        0x08030714   Section        0  tcp_client.o(i.tcp_recv_thread)
    tcp_recv_thread                          0x08030715   Thumb Code    90  tcp_client.o(i.tcp_recv_thread)
    i.tcp_recved                             0x08030790   Section        0  tcp.o(i.tcp_recved)
    i.tcp_rexmit                             0x0803082c   Section        0  tcp_out.o(i.tcp_rexmit)
    i.tcp_rexmit_fast                        0x080308b4   Section        0  tcp_out.o(i.tcp_rexmit_fast)
    i.tcp_rexmit_rto                         0x08030938   Section        0  tcp_out.o(i.tcp_rexmit_rto)
    i.tcp_rexmit_rto_commit                  0x08030978   Section        0  tcp_out.o(i.tcp_rexmit_rto_commit)
    i.tcp_rexmit_rto_prepare                 0x080309c0   Section        0  tcp_out.o(i.tcp_rexmit_rto_prepare)
    i.tcp_route                              0x08030a54   Section        0  tcp_out.o(i.tcp_route)
    tcp_route                                0x08030a55   Thumb Code    16  tcp_out.o(i.tcp_route)
    i.tcp_rst                                0x08030a64   Section        0  tcp_out.o(i.tcp_rst)
    i.tcp_seg_free                           0x08030b0c   Section        0  tcp.o(i.tcp_seg_free)
    i.tcp_segs_free                          0x08030b28   Section        0  tcp.o(i.tcp_segs_free)
    i.tcp_send_ble_data_package              0x08030b3a   Section        0  package.o(i.tcp_send_ble_data_package)
    i.tcp_send_data_package                  0x08030b62   Section        0  package.o(i.tcp_send_data_package)
    i.tcp_send_empty_ack                     0x08030bd4   Section        0  tcp_out.o(i.tcp_send_empty_ack)
    i.tcp_send_fin                           0x08030c5c   Section        0  tcp_out.o(i.tcp_send_fin)
    i.tcp_sent                               0x08030cc8   Section        0  tcp.o(i.tcp_sent)
    i.tcp_shutdown                           0x08030d08   Section        0  tcp.o(i.tcp_shutdown)
    i.tcp_slowtmr                            0x08030d80   Section        0  tcp.o(i.tcp_slowtmr)
    i.tcp_split_unsent_seg                   0x08031278   Section        0  tcp_out.o(i.tcp_split_unsent_seg)
    i.tcp_timer_needed                       0x08031428   Section        0  timeouts.o(i.tcp_timer_needed)
    i.tcp_timewait_input                     0x0803145c   Section        0  tcp_in.o(i.tcp_timewait_input)
    tcp_timewait_input                       0x0803145d   Thumb Code   108  tcp_in.o(i.tcp_timewait_input)
    i.tcp_tmr                                0x080314f4   Section        0  tcp.o(i.tcp_tmr)
    i.tcp_trigger_input_pcb_close            0x08031514   Section        0  tcp_in.o(i.tcp_trigger_input_pcb_close)
    i.tcp_update_rcv_ann_wnd                 0x08031524   Section        0  tcp.o(i.tcp_update_rcv_ann_wnd)
    i.tcp_write                              0x080315b0   Section        0  tcp_out.o(i.tcp_write)
    i.tcp_write_checks                       0x08031b80   Section        0  tcp_out.o(i.tcp_write_checks)
    tcp_write_checks                         0x08031b81   Thumb Code   106  tcp_out.o(i.tcp_write_checks)
    i.tcp_zero_window_probe                  0x08031c7c   Section        0  tcp_out.o(i.tcp_zero_window_probe)
    i.tcpip_init                             0x08031d60   Section        0  tcpip.o(i.tcpip_init)
    i.tcpip_inpkt                            0x08031dfc   Section        0  tcpip.o(i.tcpip_inpkt)
    i.tcpip_input                            0x08031e5c   Section        0  tcpip.o(i.tcpip_input)
    i.tcpip_send_msg_wait_sem                0x08031e78   Section        0  tcpip.o(i.tcpip_send_msg_wait_sem)
    i.tcpip_tcp_timer                        0x08031e98   Section        0  timeouts.o(i.tcpip_tcp_timer)
    tcpip_tcp_timer                          0x08031e99   Thumb Code    40  timeouts.o(i.tcpip_tcp_timer)
    i.tcpip_thread                           0x08031ed0   Section        0  tcpip.o(i.tcpip_thread)
    tcpip_thread                             0x08031ed1   Thumb Code   114  tcpip.o(i.tcpip_thread)
    i.tcpip_thread_handle_msg                0x08031f68   Section        0  tcpip.o(i.tcpip_thread_handle_msg)
    tcpip_thread_handle_msg                  0x08031f69   Thumb Code    74  tcpip.o(i.tcpip_thread_handle_msg)
    i.test_led_init                          0x08031fd4   Section        0  test.o(i.test_led_init)
    i.udp_bind                               0x08032080   Section        0  udp.o(i.udp_bind)
    i.udp_client__thread                     0x08032158   Section        0  udp_client.o(i.udp_client__thread)
    udp_client__thread                       0x08032159   Thumb Code   120  udp_client.o(i.udp_client__thread)
    i.udp_client_task_init                   0x08032290   Section        0  udp_client.o(i.udp_client_task_init)
    i.udp_connect                            0x0803238c   Section        0  udp.o(i.udp_connect)
    i.udp_init                               0x08032424   Section        0  udp.o(i.udp_init)
    i.udp_input                              0x08032428   Section        0  udp.o(i.udp_input)
    i.udp_input_local_match                  0x080325a0   Section        0  udp.o(i.udp_input_local_match)
    udp_input_local_match                    0x080325a1   Thumb Code    90  udp.o(i.udp_input_local_match)
    i.udp_netif_ip_addr_changed              0x0803264c   Section        0  udp.o(i.udp_netif_ip_addr_changed)
    i.udp_new                                0x08032680   Section        0  udp.o(i.udp_new)
    i.udp_new_ip_type                        0x0803269a   Section        0  udp.o(i.udp_new_ip_type)
    i.udp_recv                               0x080326a0   Section        0  udp.o(i.udp_recv)
    i.udp_remove                             0x080326c8   Section        0  udp.o(i.udp_remove)
    i.udp_send                               0x08032718   Section        0  udp.o(i.udp_send)
    i.udp_send__thread                       0x0803276c   Section        0  udp_client.o(i.udp_send__thread)
    udp_send__thread                         0x0803276d   Thumb Code   110  udp_client.o(i.udp_send__thread)
    i.udp_sendto                             0x08032808   Section        0  udp.o(i.udp_sendto)
    i.udp_sendto_if                          0x080328ac   Section        0  udp.o(i.udp_sendto_if)
    i.udp_sendto_if_src                      0x08032974   Section        0  udp.o(i.udp_sendto_if_src)
    i.uxListRemove                           0x08032b3c   Section        0  list.o(i.uxListRemove)
    i.uxQueueMessagesWaiting                 0x08032b60   Section        0  queue.o(i.uxQueueMessagesWaiting)
    i.uxQueueSpacesAvailable                 0x08032ba8   Section        0  queue.o(i.uxQueueSpacesAvailable)
    i.vListInitialise                        0x08032bf4   Section        0  list.o(i.vListInitialise)
    i.vListInitialiseItem                    0x08032c0a   Section        0  list.o(i.vListInitialiseItem)
    i.vListInsert                            0x08032c10   Section        0  list.o(i.vListInsert)
    i.vListInsertEnd                         0x08032c40   Section        0  list.o(i.vListInsertEnd)
    i.vPortEnterCritical                     0x08032c58   Section        0  port.o(i.vPortEnterCritical)
    i.vPortExitCritical                      0x08032ccc   Section        0  port.o(i.vPortExitCritical)
    i.vPortFree                              0x08032d2c   Section        0  heap_4.o(i.vPortFree)
    i.vPortSetupTimerInterrupt               0x08032dc4   Section        0  port.o(i.vPortSetupTimerInterrupt)
    i.vPortValidateInterruptPriority         0x08032de4   Section        0  port.o(i.vPortValidateInterruptPriority)
    i.vQueueAddToRegistry                    0x08032e6c   Section        0  queue.o(i.vQueueAddToRegistry)
    i.vQueueDelete                           0x08032e90   Section        0  queue.o(i.vQueueDelete)
    i.vQueueUnregisterQueue                  0x08032edc   Section        0  queue.o(i.vQueueUnregisterQueue)
    i.vQueueWaitForMessageRestricted         0x08032f04   Section        0  queue.o(i.vQueueWaitForMessageRestricted)
    i.vTaskDelay                             0x08032f48   Section        0  tasks.o(i.vTaskDelay)
    i.vTaskDelete                            0x08032fb8   Section        0  tasks.o(i.vTaskDelete)
    i.vTaskMissedYield                       0x08033088   Section        0  tasks.o(i.vTaskMissedYield)
    i.vTaskPlaceOnEventList                  0x08033094   Section        0  tasks.o(i.vTaskPlaceOnEventList)
    i.vTaskPlaceOnEventListRestricted        0x080330ec   Section        0  tasks.o(i.vTaskPlaceOnEventListRestricted)
    i.vTaskPriorityInherit                   0x0803314c   Section        0  tasks.o(i.vTaskPriorityInherit)
    i.vTaskResume                            0x080331d0   Section        0  tasks.o(i.vTaskResume)
    i.vTaskSetTimeOutState                   0x08033274   Section        0  tasks.o(i.vTaskSetTimeOutState)
    i.vTaskStartScheduler                    0x080332c0   Section        0  tasks.o(i.vTaskStartScheduler)
    i.vTaskSuspend                           0x08033358   Section        0  tasks.o(i.vTaskSuspend)
    i.vTaskSuspendAll                        0x0803342c   Section        0  tasks.o(i.vTaskSuspendAll)
    i.vTaskSwitchContext                     0x0803343c   Section        0  tasks.o(i.vTaskSwitchContext)
    i.xPortStartScheduler                    0x080334bc   Section        0  port.o(i.xPortStartScheduler)
    i.xPortSysTickHandler                    0x080335cc   Section        0  port.o(i.xPortSysTickHandler)
    i.xQueueCreateCountingSemaphore          0x080335f8   Section        0  queue.o(i.xQueueCreateCountingSemaphore)
    i.xQueueCreateMutex                      0x08033658   Section        0  queue.o(i.xQueueCreateMutex)
    i.xQueueGenericCreate                    0x0803367c   Section        0  queue.o(i.xQueueGenericCreate)
    i.xQueueGenericReceive                   0x080336fc   Section        0  queue.o(i.xQueueGenericReceive)
    i.xQueueGenericReset                     0x08033884   Section        0  queue.o(i.xQueueGenericReset)
    i.xQueueGenericSend                      0x08033930   Section        0  queue.o(i.xQueueGenericSend)
    i.xQueueGenericSendFromISR               0x08033abc   Section        0  queue.o(i.xQueueGenericSendFromISR)
    i.xQueueGiveFromISR                      0x08033ba0   Section        0  queue.o(i.xQueueGiveFromISR)
    i.xTaskCheckForTimeOut                   0x08033c6c   Section        0  tasks.o(i.xTaskCheckForTimeOut)
    i.xTaskCreate                            0x08033cf8   Section        0  tasks.o(i.xTaskCreate)
    i.xTaskGetSchedulerState                 0x08033d50   Section        0  tasks.o(i.xTaskGetSchedulerState)
    i.xTaskGetTickCount                      0x08033d6c   Section        0  tasks.o(i.xTaskGetTickCount)
    i.xTaskIncrementTick                     0x08033d78   Section        0  tasks.o(i.xTaskIncrementTick)
    i.xTaskPriorityDisinherit                0x08033e64   Section        0  tasks.o(i.xTaskPriorityDisinherit)
    i.xTaskRemoveFromEventList               0x08033f1c   Section        0  tasks.o(i.xTaskRemoveFromEventList)
    i.xTaskResumeAll                         0x08033fb8   Section        0  tasks.o(i.xTaskResumeAll)
    i.xTimerCreate                           0x080340a0   Section        0  timers.o(i.xTimerCreate)
    i.xTimerCreateTimerTask                  0x08034118   Section        0  timers.o(i.xTimerCreateTimerTask)
    i.xTimerGenericCommand                   0x08034190   Section        0  timers.o(i.xTimerGenericCommand)
    .constdata                               0x08034220   Section       16  system_stm32f4xx.o(.constdata)
    .constdata                               0x08034230   Section        8  system_stm32f4xx.o(.constdata)
    .constdata                               0x08034238   Section        8  stm32f4xx_hal_dma.o(.constdata)
    flagBitshiftOffset                       0x08034238   Data           8  stm32f4xx_hal_dma.o(.constdata)
    .constdata                               0x08034240   Section        8  udp_client.o(.constdata)
    .constdata                               0x08034248   Section        3  api_msg.o(.constdata)
    .constdata                               0x0803424c   Section       12  memp.o(.constdata)
    .constdata                               0x08034258   Section       12  memp.o(.constdata)
    .constdata                               0x08034264   Section       12  memp.o(.constdata)
    .constdata                               0x08034270   Section       12  memp.o(.constdata)
    .constdata                               0x0803427c   Section       12  memp.o(.constdata)
    .constdata                               0x08034288   Section       12  memp.o(.constdata)
    .constdata                               0x08034294   Section       12  memp.o(.constdata)
    .constdata                               0x080342a0   Section       12  memp.o(.constdata)
    .constdata                               0x080342ac   Section       12  memp.o(.constdata)
    .constdata                               0x080342b8   Section       12  memp.o(.constdata)
    .constdata                               0x080342c4   Section       12  memp.o(.constdata)
    .constdata                               0x080342d0   Section       12  memp.o(.constdata)
    .constdata                               0x080342dc   Section       12  memp.o(.constdata)
    .constdata                               0x080342e8   Section       52  memp.o(.constdata)
    .constdata                               0x0803431c   Section       84  tcp.o(.constdata)
    tcp_persist_backoff                      0x0803431c   Data           7  tcp.o(.constdata)
    tcp_state_str                            0x08034324   Data          44  tcp.o(.constdata)
    tcp_backoff                              0x08034350   Data          13  tcp.o(.constdata)
    .constdata                               0x08034370   Section       40  timeouts.o(.constdata)
    .constdata                               0x08034398   Section        4  ip4_addr.o(.constdata)
    .constdata                               0x0803439c   Section        4  ip4_addr.o(.constdata)
    .constdata                               0x080343a0   Section        6  ethernet.o(.constdata)
    .constdata                               0x080343a6   Section        6  ethernet.o(.constdata)
    .constdata                               0x080343ac   Section      220  cm_backtrace.o(.constdata)
    print_info                               0x080343ac   Data         148  cm_backtrace.o(.constdata)
    __FUNCTION__                             0x08034440   Data          20  cm_backtrace.o(.constdata)
    __FUNCTION__                             0x08034454   Data          19  cm_backtrace.o(.constdata)
    .conststring                             0x08034488   Section       69  hal_flash.o(.conststring)
    .conststring                             0x080344d0   Section      117  tcp.o(.conststring)
    .conststring                             0x08034548   Section       85  tcp_out.o(.conststring)
    .conststring                             0x080345a0   Section       66  dhcp.o(.conststring)
    .conststring                             0x080345e4   Section       65  etharp.o(.conststring)
    .conststring                             0x08034628   Section       78  sys_arch.o(.conststring)
    .conststring                             0x08034678   Section     2069  cm_backtrace.o(.conststring)
    .data                                    0x20000000   Section        4  system_stm32f4xx.o(.data)
    .data                                    0x20000004   Section       12  stm32f4xx_hal.o(.data)
    .data                                    0x20000010   Section       12  test.o(.data)
    test_Task_Handle                         0x20000010   Data           4  test.o(.data)
    Test1_Task_Handle                        0x20000014   Data           4  test.o(.data)
    Test2_Task_Handle                        0x20000018   Data           4  test.o(.data)
    .data                                    0x2000001c   Section        4  app.o(.data)
    AppTaskCreate_Handle                     0x2000001c   Data           4  app.o(.data)
    .data                                    0x20000020   Section       12  ota.o(.data)
    ota_task                                 0x20000020   Data           4  ota.o(.data)
    device_start_msg                         0x20000024   Data           8  ota.o(.data)
    .data                                    0x2000002c   Section        8  tcp_handller.o(.data)
    tcp_handler_task                         0x2000002c   Data           4  tcp_handller.o(.data)
    retransmission_timer                     0x20000030   Data           4  tcp_handller.o(.data)
    .data                                    0x20000034   Section       12  ble_handler.o(.data)
    ble_task_handle                          0x20000038   Data           4  ble_handler.o(.data)
    xHigherPriorityTaskWoken                 0x2000003c   Data           4  ble_handler.o(.data)
    .data                                    0x20000040   Section       48  hal_flash.o(.data)
    .data                                    0x20000070   Section        1  reboot.o(.data)
    start_flag                               0x20000070   Data           1  reboot.o(.data)
    .data                                    0x20000071   Section        5  strategy.o(.data)
    business_strategy_buff                   0x20000071   Data           5  strategy.o(.data)
    .data                                    0x20000078   Section        8  package.o(.data)
    package_seq                              0x20000078   Data           4  package.o(.data)
    recv_seq                                 0x2000007c   Data           4  package.o(.data)
    .data                                    0x20000080   Section        8  iq_queue.o(.data)
    iq_data_queue                            0x20000080   Data           4  iq_queue.o(.data)
    xHigherPriorityTaskWoken                 0x20000084   Data           4  iq_queue.o(.data)
    .data                                    0x20000088   Section       16  tcp_client.o(.data)
    tcp_connect_state                        0x20000088   Data           1  tcp_client.o(.data)
    tcp_connect_cause                        0x20000089   Data           1  tcp_client.o(.data)
    tcp_connect_task                         0x2000008c   Data           4  tcp_client.o(.data)
    tcp_recv_task                            0x20000090   Data           4  tcp_client.o(.data)
    tcp_client_handle                        0x20000094   Data           4  tcp_client.o(.data)
    .data                                    0x20000098   Section        8  tcp_queue.o(.data)
    tcp_ota_data_queue                       0x20000098   Data           4  tcp_queue.o(.data)
    tcp_common_data_queue                    0x2000009c   Data           4  tcp_queue.o(.data)
    .data                                    0x200000a0   Section       20  udp_client.o(.data)
    udp_client_task                          0x200000a4   Data           4  udp_client.o(.data)
    udp_send_task                            0x200000a8   Data           4  udp_client.o(.data)
    udp_client_handle                        0x200000ac   Data           4  udp_client.o(.data)
    udp_netbuf                               0x200000b0   Data           4  udp_client.o(.data)
    .data                                    0x200000b4   Section       60  tasks.o(.data)
    uxDeletedTasksWaitingCleanUp             0x200000b8   Data           4  tasks.o(.data)
    uxCurrentNumberOfTasks                   0x200000bc   Data           4  tasks.o(.data)
    xTickCount                               0x200000c0   Data           4  tasks.o(.data)
    uxTopReadyPriority                       0x200000c4   Data           4  tasks.o(.data)
    xSchedulerRunning                        0x200000c8   Data           4  tasks.o(.data)
    uxPendedTicks                            0x200000cc   Data           4  tasks.o(.data)
    xYieldPending                            0x200000d0   Data           4  tasks.o(.data)
    xNumOfOverflows                          0x200000d4   Data           4  tasks.o(.data)
    uxTaskNumber                             0x200000d8   Data           4  tasks.o(.data)
    xNextTaskUnblockTime                     0x200000dc   Data           4  tasks.o(.data)
    xIdleTaskHandle                          0x200000e0   Data           4  tasks.o(.data)
    uxSchedulerSuspended                     0x200000e4   Data           4  tasks.o(.data)
    pxDelayedTaskList                        0x200000e8   Data           4  tasks.o(.data)
    pxOverflowDelayedTaskList                0x200000ec   Data           4  tasks.o(.data)
    .data                                    0x200000f0   Section       20  timers.o(.data)
    xTimerQueue                              0x200000f0   Data           4  timers.o(.data)
    xTimerTaskHandle                         0x200000f4   Data           4  timers.o(.data)
    xLastTime                                0x200000f8   Data           4  timers.o(.data)
    pxCurrentTimerList                       0x200000fc   Data           4  timers.o(.data)
    pxOverflowTimerList                      0x20000100   Data           4  timers.o(.data)
    .data                                    0x20000104   Section       24  heap_4.o(.data)
    pxEnd                                    0x20000104   Data           4  heap_4.o(.data)
    xFreeBytesRemaining                      0x20000108   Data           4  heap_4.o(.data)
    xMinimumEverFreeBytesRemaining           0x2000010c   Data           4  heap_4.o(.data)
    xBlockAllocatedBit                       0x20000110   Data           4  heap_4.o(.data)
    xStart                                   0x20000114   Data           8  heap_4.o(.data)
    .data                                    0x2000011c   Section       12  port.o(.data)
    ucMaxSysCallPriority                     0x2000011c   Data           1  port.o(.data)
    uxCriticalNesting                        0x20000120   Data           4  port.o(.data)
    ulMaxPRIGROUPValue                       0x20000124   Data           4  port.o(.data)
    .data                                    0x20000128   Section       16  tcpip.o(.data)
    tcpip_init_done                          0x20000128   Data           4  tcpip.o(.data)
    tcpip_init_done_arg                      0x2000012c   Data           4  tcpip.o(.data)
    tcpip_mbox                               0x20000130   Data           4  tcpip.o(.data)
    .data                                    0x20000138   Section       16  mem.o(.data)
    ram                                      0x20000138   Data           4  mem.o(.data)
    ram_end                                  0x2000013c   Data           4  mem.o(.data)
    mem_mutex                                0x20000140   Data           4  mem.o(.data)
    lfree                                    0x20000144   Data           4  mem.o(.data)
    .data                                    0x20000148   Section        4  memp.o(.data)
    memp_tab_UDP_PCB                         0x20000148   Data           4  memp.o(.data)
    .data                                    0x2000014c   Section        4  memp.o(.data)
    memp_tab_TCP_PCB                         0x2000014c   Data           4  memp.o(.data)
    .data                                    0x20000150   Section        4  memp.o(.data)
    memp_tab_TCP_PCB_LISTEN                  0x20000150   Data           4  memp.o(.data)
    .data                                    0x20000154   Section        4  memp.o(.data)
    memp_tab_TCP_SEG                         0x20000154   Data           4  memp.o(.data)
    .data                                    0x20000158   Section        4  memp.o(.data)
    memp_tab_REASSDATA                       0x20000158   Data           4  memp.o(.data)
    .data                                    0x2000015c   Section        4  memp.o(.data)
    memp_tab_FRAG_PBUF                       0x2000015c   Data           4  memp.o(.data)
    .data                                    0x20000160   Section        4  memp.o(.data)
    memp_tab_NETBUF                          0x20000160   Data           4  memp.o(.data)
    .data                                    0x20000164   Section        4  memp.o(.data)
    memp_tab_NETCONN                         0x20000164   Data           4  memp.o(.data)
    .data                                    0x20000168   Section        4  memp.o(.data)
    memp_tab_TCPIP_MSG_API                   0x20000168   Data           4  memp.o(.data)
    .data                                    0x2000016c   Section        4  memp.o(.data)
    memp_tab_TCPIP_MSG_INPKT                 0x2000016c   Data           4  memp.o(.data)
    .data                                    0x20000170   Section        4  memp.o(.data)
    memp_tab_SYS_TIMEOUT                     0x20000170   Data           4  memp.o(.data)
    .data                                    0x20000174   Section        4  memp.o(.data)
    memp_tab_PBUF                            0x20000174   Data           4  memp.o(.data)
    .data                                    0x20000178   Section        4  memp.o(.data)
    memp_tab_PBUF_POOL                       0x20000178   Data           4  memp.o(.data)
    .data                                    0x2000017c   Section       12  netif.o(.data)
    netif_num                                0x2000017c   Data           1  netif.o(.data)
    .data                                    0x20000188   Section       32  tcp.o(.data)
    tcp_timer                                0x20000189   Data           1  tcp.o(.data)
    tcp_timer_ctr                            0x2000018a   Data           1  tcp.o(.data)
    tcp_port                                 0x2000018c   Data           2  tcp.o(.data)
    iss                                      0x20000190   Data           4  tcp.o(.data)
    .data                                    0x200001a8   Section       36  tcp_in.o(.data)
    flags                                    0x200001a8   Data           1  tcp_in.o(.data)
    recv_flags                               0x200001a9   Data           1  tcp_in.o(.data)
    tcphdr_optlen                            0x200001aa   Data           2  tcp_in.o(.data)
    tcphdr_opt1len                           0x200001ac   Data           2  tcp_in.o(.data)
    tcp_optidx                               0x200001ae   Data           2  tcp_in.o(.data)
    recv_acked                               0x200001b0   Data           2  tcp_in.o(.data)
    tcplen                                   0x200001b2   Data           2  tcp_in.o(.data)
    tcphdr                                   0x200001b4   Data           4  tcp_in.o(.data)
    tcphdr_opt2                              0x200001b8   Data           4  tcp_in.o(.data)
    seqno                                    0x200001bc   Data           4  tcp_in.o(.data)
    ackno                                    0x200001c0   Data           4  tcp_in.o(.data)
    recv_data                                0x200001c4   Data           4  tcp_in.o(.data)
    .data                                    0x200001cc   Section       12  timeouts.o(.data)
    next_timeout                             0x200001cc   Data           4  timeouts.o(.data)
    current_timeout_due_time                 0x200001d0   Data           4  timeouts.o(.data)
    tcpip_tcp_timer_active                   0x200001d4   Data           4  timeouts.o(.data)
    .data                                    0x200001d8   Section        8  udp.o(.data)
    udp_port                                 0x200001d8   Data           2  udp.o(.data)
    .data                                    0x200001e0   Section       20  dhcp.o(.data)
    dhcp_pcb_refcount                        0x200001e0   Data           1  dhcp.o(.data)
    dhcp_discover_request_options            0x200001e1   Data           3  dhcp.o(.data)
    xid                                      0x200001e4   Data           4  dhcp.o(.data)
    dhcp_pcb                                 0x200001e8   Data           4  dhcp.o(.data)
    .data                                    0x200001f4   Section        1  etharp.o(.data)
    etharp_cached_entry                      0x200001f4   Data           1  etharp.o(.data)
    .data                                    0x200001f6   Section        2  ip4.o(.data)
    ip_id                                    0x200001f6   Data           2  ip4.o(.data)
    .data                                    0x200001f8   Section        8  ip4_frag.o(.data)
    ip_reass_pbufcount                       0x200001f8   Data           2  ip4_frag.o(.data)
    reassdatagrams                           0x200001fc   Data           4  ip4_frag.o(.data)
    .data                                    0x20000200   Section       16  ethernetif.o(.data)
    ousem                                    0x2000020c   Data           4  ethernetif.o(.data)
    .data                                    0x20000210   Section       20  sys_arch.o(.data)
    s_nextthread                             0x20000210   Data           2  sys_arch.o(.data)
    .data                                    0x20000224   Section       24  cm_backtrace.o(.data)
    init_ok                                  0x20000224   Data           1  cm_backtrace.o(.data)
    on_fault                                 0x20000225   Data           1  cm_backtrace.o(.data)
    stack_is_overflow                        0x20000226   Data           1  cm_backtrace.o(.data)
    statck_has_fpu_regs                      0x20000227   Data           1  cm_backtrace.o(.data)
    on_thread_before_fault                   0x20000228   Data           1  cm_backtrace.o(.data)
    main_stack_start_addr                    0x2000022c   Data           4  cm_backtrace.o(.data)
    main_stack_size                          0x20000230   Data           4  cm_backtrace.o(.data)
    code_start_addr                          0x20000234   Data           4  cm_backtrace.o(.data)
    code_size                                0x20000238   Data           4  cm_backtrace.o(.data)
    .data                                    0x2000023c   Section        4  stdout.o(.data)
    .bss                                     0x20000240   Section       32  stm32f4xx_hal_flash.o(.bss)
    .bss                                     0x20000260   Section       20  hal_flash.o(.bss)
    EraseInitStruct                          0x20000260   Data          20  hal_flash.o(.bss)
    .bss                                     0x20000274   Section       12  random.o(.bss)
    .bss                                     0x20000280   Section    24968  bsp_eth.o(.bss)
    .bss                                     0x20006408   Section     6072  usart.o(.bss)
    .bss                                     0x20007bc0   Section      744  spi.o(.bss)
    .bss                                     0x20007ea8   Section     1452  iq_queue.o(.bss)
    .bss                                     0x20008454   Section       12  tcp_queue.o(.bss)
    .bss                                     0x20008460   Section      160  queue.o(.bss)
    .bss                                     0x20008500   Section      740  tasks.o(.bss)
    pxReadyTasksLists                        0x20008500   Data         640  tasks.o(.bss)
    xDelayedTaskList1                        0x20008780   Data          20  tasks.o(.bss)
    xDelayedTaskList2                        0x20008794   Data          20  tasks.o(.bss)
    xPendingReadyList                        0x200087a8   Data          20  tasks.o(.bss)
    xTasksWaitingTermination                 0x200087bc   Data          20  tasks.o(.bss)
    xSuspendedTaskList                       0x200087d0   Data          20  tasks.o(.bss)
    .bss                                     0x200087e4   Section       40  timers.o(.bss)
    xActiveTimerList1                        0x200087e4   Data          20  timers.o(.bss)
    xActiveTimerList2                        0x200087f8   Data          20  timers.o(.bss)
    .bss                                     0x2000880c   Section    81920  heap_4.o(.bss)
    ucHeap                                   0x2000880c   Data       81920  heap_4.o(.bss)
    .bss                                     0x2001c80c   Section       24  ip.o(.bss)
    .bss                                     0x2001c824   Section    15379  mem.o(.bss)
    .bss                                     0x20020437   Section      131  memp.o(.bss)
    .bss                                     0x200204ba   Section      915  memp.o(.bss)
    .bss                                     0x2002084d   Section      171  memp.o(.bss)
    .bss                                     0x200208f8   Section     2403  memp.o(.bss)
    .bss                                     0x2002125b   Section      163  memp.o(.bss)
    .bss                                     0x200212fe   Section      363  memp.o(.bss)
    .bss                                     0x20021469   Section       35  memp.o(.bss)
    .bss                                     0x2002148c   Section      163  memp.o(.bss)
    .bss                                     0x2002152f   Section      131  memp.o(.bss)
    .bss                                     0x200215b2   Section      131  memp.o(.bss)
    .bss                                     0x20021635   Section       99  memp.o(.bss)
    .bss                                     0x20021698   Section      403  memp.o(.bss)
    .bss                                     0x2002182b   Section    13791  memp.o(.bss)
    .bss                                     0x20024e0c   Section       16  tcp_in.o(.bss)
    inseg                                    0x20024e0c   Data          16  tcp_in.o(.bss)
    .bss                                     0x20024e1c   Section       32  dhcp.o(.bss)
    .bss                                     0x20024e3c   Section      240  etharp.o(.bss)
    arp_table                                0x20024e3c   Data         240  etharp.o(.bss)
    .bss                                     0x20024f2c   Section       84  sys_arch.o(.bss)
    s_timeoutlist                            0x20024f2c   Data          32  sys_arch.o(.bss)
    .bss                                     0x20024f80   Section      308  cm_backtrace.o(.bss)
    fw_name                                  0x20024f80   Data          32  cm_backtrace.o(.bss)
    hw_ver                                   0x20024fa0   Data          32  cm_backtrace.o(.bss)
    sw_ver                                   0x20024fc0   Data          32  cm_backtrace.o(.bss)
    call_stack_info                          0x20024fe0   Data         144  cm_backtrace.o(.bss)
    regs                                     0x20025070   Data          68  cm_backtrace.o(.bss)
    STACK                                    0x200250b8   Section     1024  startup_stm32f429xx.o(STACK)

    Global Symbols

    Symbol Name                              Value     Ov Type        Size  Object(Section)

    BuildAttributes$$THM_ISAv4$E$P$D$K$B$S$7EM$VFPi3$EXTD16$VFPS$VFMA$PE$A:L22UL41UL21$X:L11$S22US41US21$IEEE1$IW$USESV6$~STKCKD$USESV7$~SHL$OSPACE$ROPI$EBA8$MICROLIB$REQ8$PRES8$EABIv2 0x00000000   Number         0  anon$$obj.o ABSOLUTE
    __ARM_use_no_argv                        0x00000000   Number         0  main.o ABSOLUTE
    _printf_a                                0x00000000   Number         0  stubs.o ABSOLUTE
    _printf_c                                0x00000000   Number         0  stubs.o ABSOLUTE
    _printf_charcount                        0x00000000   Number         0  stubs.o ABSOLUTE
    _printf_d                                0x00000000   Number         0  stubs.o ABSOLUTE
    _printf_e                                0x00000000   Number         0  stubs.o ABSOLUTE
    _printf_f                                0x00000000   Number         0  stubs.o ABSOLUTE
    _printf_flags                            0x00000000   Number         0  stubs.o ABSOLUTE
    _printf_fp_dec                           0x00000000   Number         0  stubs.o ABSOLUTE
    _printf_fp_hex                           0x00000000   Number         0  stubs.o ABSOLUTE
    _printf_g                                0x00000000   Number         0  stubs.o ABSOLUTE
    _printf_i                                0x00000000   Number         0  stubs.o ABSOLUTE
    _printf_int_dec                          0x00000000   Number         0  stubs.o ABSOLUTE
    _printf_l                                0x00000000   Number         0  stubs.o ABSOLUTE
    _printf_lc                               0x00000000   Number         0  stubs.o ABSOLUTE
    _printf_ll                               0x00000000   Number         0  stubs.o ABSOLUTE
    _printf_lld                              0x00000000   Number         0  stubs.o ABSOLUTE
    _printf_lli                              0x00000000   Number         0  stubs.o ABSOLUTE
    _printf_llo                              0x00000000   Number         0  stubs.o ABSOLUTE
    _printf_llu                              0x00000000   Number         0  stubs.o ABSOLUTE
    _printf_llx                              0x00000000   Number         0  stubs.o ABSOLUTE
    _printf_longlong_dec                     0x00000000   Number         0  stubs.o ABSOLUTE
    _printf_longlong_hex                     0x00000000   Number         0  stubs.o ABSOLUTE
    _printf_longlong_oct                     0x00000000   Number         0  stubs.o ABSOLUTE
    _printf_ls                               0x00000000   Number         0  stubs.o ABSOLUTE
    _printf_mbtowc                           0x00000000   Number         0  stubs.o ABSOLUTE
    _printf_n                                0x00000000   Number         0  stubs.o ABSOLUTE
    _printf_o                                0x00000000   Number         0  stubs.o ABSOLUTE
    _printf_p                                0x00000000   Number         0  stubs.o ABSOLUTE
    _printf_percent                          0x00000000   Number         0  stubs.o ABSOLUTE
    _printf_pre_padding                      0x00000000   Number         0  stubs.o ABSOLUTE
    _printf_return_value                     0x00000000   Number         0  stubs.o ABSOLUTE
    _printf_s                                0x00000000   Number         0  stubs.o ABSOLUTE
    _printf_sizespec                         0x00000000   Number         0  stubs.o ABSOLUTE
    _printf_str                              0x00000000   Number         0  stubs.o ABSOLUTE
    _printf_truncate_signed                  0x00000000   Number         0  stubs.o ABSOLUTE
    _printf_truncate_unsigned                0x00000000   Number         0  stubs.o ABSOLUTE
    _printf_u                                0x00000000   Number         0  stubs.o ABSOLUTE
    _printf_wc                               0x00000000   Number         0  stubs.o ABSOLUTE
    _printf_wctomb                           0x00000000   Number         0  stubs.o ABSOLUTE
    _printf_widthprec                        0x00000000   Number         0  stubs.o ABSOLUTE
    _printf_x                                0x00000000   Number         0  stubs.o ABSOLUTE
    __arm_fini_                               - Undefined Weak Reference
    __cpp_initialize__aeabi_                  - Undefined Weak Reference
    __cxa_finalize                            - Undefined Weak Reference
    _clock_init                               - Undefined Weak Reference
    _microlib_exit                            - Undefined Weak Reference
    __Vectors_Size                           0x000001ac   Number         0  startup_stm32f429xx.o ABSOLUTE
    Image$$ER_IROM1$$Base                    0x08020000   Number         0  anon$$obj.o ABSOLUTE
    __Vectors                                0x08020000   Data           4  startup_stm32f429xx.o(RESET)
    __Vectors_End                            0x080201ac   Data           0  startup_stm32f429xx.o(RESET)
    __main                                   0x080201ad   Thumb Code     0  entry.o(.ARM.Collect$$$$00000000)
    _main_stk                                0x080201ad   Thumb Code     0  entry2.o(.ARM.Collect$$$$00000001)
    _main_scatterload                        0x080201b1   Thumb Code     0  entry5.o(.ARM.Collect$$$$00000004)
    __main_after_scatterload                 0x080201b5   Thumb Code     0  entry5.o(.ARM.Collect$$$$00000004)
    _main_clock                              0x080201b5   Thumb Code     0  entry7b.o(.ARM.Collect$$$$00000008)
    _main_cpp_init                           0x080201b5   Thumb Code     0  entry8b.o(.ARM.Collect$$$$0000000A)
    _main_init                               0x080201b5   Thumb Code     0  entry9a.o(.ARM.Collect$$$$0000000B)
    __rt_lib_shutdown_fini                   0x080201bd   Thumb Code     0  entry12b.o(.ARM.Collect$$$$0000000E)
    __rt_final_cpp                           0x080201c1   Thumb Code     0  entry10a.o(.ARM.Collect$$$$0000000F)
    __rt_final_exit                          0x080201c1   Thumb Code     0  entry11a.o(.ARM.Collect$$$$00000011)
    __asm___7_board_c_BSP_Init__cmb_get_msp  0x080201c5   Thumb Code     6  board.o(.emb_text)
    __asm___7_board_c_BSP_Init__cmb_get_psp  0x080201cb   Thumb Code     6  board.o(.emb_text)
    __asm___7_board_c_BSP_Init__cmb_get_sp   0x080201d1   Thumb Code     4  board.o(.emb_text)
    SVC_Handler                              0x080201d5   Thumb Code    28  port.o(.emb_text)
    __asm___6_port_c_39a90d8d__prvStartFirstTask 0x080201f5   Thumb Code    28  port.o(.emb_text)
    __asm___6_port_c_39a90d8d__prvEnableVFP  0x08020215   Thumb Code    16  port.o(.emb_text)
    PendSV_Handler                           0x08020229   Thumb Code    88  port.o(.emb_text)
    vPortGetIPSR                             0x08020285   Thumb Code     6  port.o(.emb_text)
    Reset_Handler                            0x0802028d   Thumb Code     8  startup_stm32f429xx.o(.text)
    ADC_IRQHandler                           0x080202a7   Thumb Code     0  startup_stm32f429xx.o(.text)
    CAN1_RX0_IRQHandler                      0x080202a7   Thumb Code     0  startup_stm32f429xx.o(.text)
    CAN1_RX1_IRQHandler                      0x080202a7   Thumb Code     0  startup_stm32f429xx.o(.text)
    CAN1_SCE_IRQHandler                      0x080202a7   Thumb Code     0  startup_stm32f429xx.o(.text)
    CAN1_TX_IRQHandler                       0x080202a7   Thumb Code     0  startup_stm32f429xx.o(.text)
    CAN2_RX0_IRQHandler                      0x080202a7   Thumb Code     0  startup_stm32f429xx.o(.text)
    CAN2_RX1_IRQHandler                      0x080202a7   Thumb Code     0  startup_stm32f429xx.o(.text)
    CAN2_SCE_IRQHandler                      0x080202a7   Thumb Code     0  startup_stm32f429xx.o(.text)
    CAN2_TX_IRQHandler                       0x080202a7   Thumb Code     0  startup_stm32f429xx.o(.text)
    DCMI_IRQHandler                          0x080202a7   Thumb Code     0  startup_stm32f429xx.o(.text)
    DMA1_Stream0_IRQHandler                  0x080202a7   Thumb Code     0  startup_stm32f429xx.o(.text)
    DMA1_Stream7_IRQHandler                  0x080202a7   Thumb Code     0  startup_stm32f429xx.o(.text)
    DMA2D_IRQHandler                         0x080202a7   Thumb Code     0  startup_stm32f429xx.o(.text)
    DMA2_Stream4_IRQHandler                  0x080202a7   Thumb Code     0  startup_stm32f429xx.o(.text)
    DMA2_Stream5_IRQHandler                  0x080202a7   Thumb Code     0  startup_stm32f429xx.o(.text)
    ETH_WKUP_IRQHandler                      0x080202a7   Thumb Code     0  startup_stm32f429xx.o(.text)
    EXTI0_IRQHandler                         0x080202a7   Thumb Code     0  startup_stm32f429xx.o(.text)
    EXTI15_10_IRQHandler                     0x080202a7   Thumb Code     0  startup_stm32f429xx.o(.text)
    EXTI1_IRQHandler                         0x080202a7   Thumb Code     0  startup_stm32f429xx.o(.text)
    EXTI2_IRQHandler                         0x080202a7   Thumb Code     0  startup_stm32f429xx.o(.text)
    EXTI3_IRQHandler                         0x080202a7   Thumb Code     0  startup_stm32f429xx.o(.text)
    EXTI4_IRQHandler                         0x080202a7   Thumb Code     0  startup_stm32f429xx.o(.text)
    EXTI9_5_IRQHandler                       0x080202a7   Thumb Code     0  startup_stm32f429xx.o(.text)
    FLASH_IRQHandler                         0x080202a7   Thumb Code     0  startup_stm32f429xx.o(.text)
    FMC_IRQHandler                           0x080202a7   Thumb Code     0  startup_stm32f429xx.o(.text)
    FPU_IRQHandler                           0x080202a7   Thumb Code     0  startup_stm32f429xx.o(.text)
    HASH_RNG_IRQHandler                      0x080202a7   Thumb Code     0  startup_stm32f429xx.o(.text)
    I2C1_ER_IRQHandler                       0x080202a7   Thumb Code     0  startup_stm32f429xx.o(.text)
    I2C1_EV_IRQHandler                       0x080202a7   Thumb Code     0  startup_stm32f429xx.o(.text)
    I2C2_ER_IRQHandler                       0x080202a7   Thumb Code     0  startup_stm32f429xx.o(.text)
    I2C2_EV_IRQHandler                       0x080202a7   Thumb Code     0  startup_stm32f429xx.o(.text)
    I2C3_ER_IRQHandler                       0x080202a7   Thumb Code     0  startup_stm32f429xx.o(.text)
    I2C3_EV_IRQHandler                       0x080202a7   Thumb Code     0  startup_stm32f429xx.o(.text)
    LTDC_ER_IRQHandler                       0x080202a7   Thumb Code     0  startup_stm32f429xx.o(.text)
    LTDC_IRQHandler                          0x080202a7   Thumb Code     0  startup_stm32f429xx.o(.text)
    OTG_FS_IRQHandler                        0x080202a7   Thumb Code     0  startup_stm32f429xx.o(.text)
    OTG_FS_WKUP_IRQHandler                   0x080202a7   Thumb Code     0  startup_stm32f429xx.o(.text)
    OTG_HS_EP1_IN_IRQHandler                 0x080202a7   Thumb Code     0  startup_stm32f429xx.o(.text)
    OTG_HS_EP1_OUT_IRQHandler                0x080202a7   Thumb Code     0  startup_stm32f429xx.o(.text)
    OTG_HS_IRQHandler                        0x080202a7   Thumb Code     0  startup_stm32f429xx.o(.text)
    OTG_HS_WKUP_IRQHandler                   0x080202a7   Thumb Code     0  startup_stm32f429xx.o(.text)
    PVD_IRQHandler                           0x080202a7   Thumb Code     0  startup_stm32f429xx.o(.text)
    RCC_IRQHandler                           0x080202a7   Thumb Code     0  startup_stm32f429xx.o(.text)
    RTC_Alarm_IRQHandler                     0x080202a7   Thumb Code     0  startup_stm32f429xx.o(.text)
    RTC_WKUP_IRQHandler                      0x080202a7   Thumb Code     0  startup_stm32f429xx.o(.text)
    SAI1_IRQHandler                          0x080202a7   Thumb Code     0  startup_stm32f429xx.o(.text)
    SDIO_IRQHandler                          0x080202a7   Thumb Code     0  startup_stm32f429xx.o(.text)
    SPI4_IRQHandler                          0x080202a7   Thumb Code     0  startup_stm32f429xx.o(.text)
    SPI5_IRQHandler                          0x080202a7   Thumb Code     0  startup_stm32f429xx.o(.text)
    SPI6_IRQHandler                          0x080202a7   Thumb Code     0  startup_stm32f429xx.o(.text)
    TAMP_STAMP_IRQHandler                    0x080202a7   Thumb Code     0  startup_stm32f429xx.o(.text)
    TIM1_BRK_TIM9_IRQHandler                 0x080202a7   Thumb Code     0  startup_stm32f429xx.o(.text)
    TIM1_CC_IRQHandler                       0x080202a7   Thumb Code     0  startup_stm32f429xx.o(.text)
    TIM1_TRG_COM_TIM11_IRQHandler            0x080202a7   Thumb Code     0  startup_stm32f429xx.o(.text)
    TIM1_UP_TIM10_IRQHandler                 0x080202a7   Thumb Code     0  startup_stm32f429xx.o(.text)
    TIM2_IRQHandler                          0x080202a7   Thumb Code     0  startup_stm32f429xx.o(.text)
    TIM3_IRQHandler                          0x080202a7   Thumb Code     0  startup_stm32f429xx.o(.text)
    TIM4_IRQHandler                          0x080202a7   Thumb Code     0  startup_stm32f429xx.o(.text)
    TIM5_IRQHandler                          0x080202a7   Thumb Code     0  startup_stm32f429xx.o(.text)
    TIM6_DAC_IRQHandler                      0x080202a7   Thumb Code     0  startup_stm32f429xx.o(.text)
    TIM7_IRQHandler                          0x080202a7   Thumb Code     0  startup_stm32f429xx.o(.text)
    TIM8_BRK_TIM12_IRQHandler                0x080202a7   Thumb Code     0  startup_stm32f429xx.o(.text)
    TIM8_CC_IRQHandler                       0x080202a7   Thumb Code     0  startup_stm32f429xx.o(.text)
    TIM8_TRG_COM_TIM14_IRQHandler            0x080202a7   Thumb Code     0  startup_stm32f429xx.o(.text)
    TIM8_UP_TIM13_IRQHandler                 0x080202a7   Thumb Code     0  startup_stm32f429xx.o(.text)
    UART4_IRQHandler                         0x080202a7   Thumb Code     0  startup_stm32f429xx.o(.text)
    UART5_IRQHandler                         0x080202a7   Thumb Code     0  startup_stm32f429xx.o(.text)
    UART7_IRQHandler                         0x080202a7   Thumb Code     0  startup_stm32f429xx.o(.text)
    UART8_IRQHandler                         0x080202a7   Thumb Code     0  startup_stm32f429xx.o(.text)
    WWDG_IRQHandler                          0x080202a7   Thumb Code     0  startup_stm32f429xx.o(.text)
    HardFault_Handler                        0x080202b1   Thumb Code    12  cmb_fault.o(.text)
    __aeabi_uldivmod                         0x080202bd   Thumb Code    98  uldiv.o(.text)
    ___aeabi_memcpy8$move                    0x0802031f   Thumb Code     0  memmovea.o(.text)
    __aeabi_memcpy                           0x0802031f   Thumb Code    64  memmovea.o(.text)
    __aeabi_memcpy4                          0x0802031f   Thumb Code     0  memmovea.o(.text)
    __aeabi_memmove                          0x0802031f   Thumb Code     0  memmovea.o(.text)
    __aeabi_memmove4                         0x0802031f   Thumb Code     0  memmovea.o(.text)
    __aeabi_memmove8                         0x0802031f   Thumb Code     0  memmovea.o(.text)
    __aeabi_memset                           0x0802035f   Thumb Code    14  memseta.o(.text)
    __aeabi_memset4                          0x0802035f   Thumb Code     0  memseta.o(.text)
    __aeabi_memset8                          0x0802035f   Thumb Code     0  memseta.o(.text)
    __aeabi_memclr                           0x0802036d   Thumb Code     4  memseta.o(.text)
    __aeabi_memclr4                          0x0802036d   Thumb Code     0  memseta.o(.text)
    __aeabi_memclr8                          0x0802036d   Thumb Code     0  memseta.o(.text)
    memset                                   0x08020371   Thumb Code    18  memseta.o(.text)
    strncpy                                  0x08020383   Thumb Code    24  strncpy.o(.text)
    memcmp                                   0x0802039b   Thumb Code    26  memcmp.o(.text)
    __aeabi_llsl                             0x080203b5   Thumb Code    30  llshl.o(.text)
    _ll_shift_l                              0x080203b5   Thumb Code     0  llshl.o(.text)
    __aeabi_llsr                             0x080203d3   Thumb Code    32  llushr.o(.text)
    _ll_ushift_r                             0x080203d3   Thumb Code     0  llushr.o(.text)
    __scatterload                            0x080203f5   Thumb Code    28  init.o(.text)
    __scatterload_rt2                        0x080203f5   Thumb Code     0  init.o(.text)
    __decompress                             0x08020419   Thumb Code     0  __dczerorl2.o(.text)
    __decompress1                            0x08020419   Thumb Code    86  __dczerorl2.o(.text)
    BSP_Init                                 0x08020501   Thumb Code    82  board.o(i.BSP_Init)
    Bsp_Eth_Init                             0x080205b1   Thumb Code   208  bsp_eth.o(i.Bsp_Eth_Init)
    BusFault_Handler                         0x080206ed   Thumb Code     2  stm32f4xx_it.o(i.BusFault_Handler)
    DMA1_Stream1_IRQHandler                  0x080206f1   Thumb Code     6  usart.o(i.DMA1_Stream1_IRQHandler)
    DMA1_Stream2_IRQHandler                  0x080206fd   Thumb Code     6  spi.o(i.DMA1_Stream2_IRQHandler)
    DMA1_Stream3_IRQHandler                  0x08020709   Thumb Code     6  spi.o(i.DMA1_Stream3_IRQHandler)
    DMA1_Stream4_IRQHandler                  0x08020715   Thumb Code     6  spi.o(i.DMA1_Stream4_IRQHandler)
    DMA1_Stream5_IRQHandler                  0x08020721   Thumb Code     6  usart.o(i.DMA1_Stream5_IRQHandler)
    DMA1_Stream6_IRQHandler                  0x0802072d   Thumb Code     6  usart.o(i.DMA1_Stream6_IRQHandler)
    DMA2_Stream0_IRQHandler                  0x08020739   Thumb Code     6  spi.o(i.DMA2_Stream0_IRQHandler)
    DMA2_Stream1_IRQHandler                  0x08020745   Thumb Code     6  usart.o(i.DMA2_Stream1_IRQHandler)
    DMA2_Stream2_IRQHandler                  0x08020751   Thumb Code     6  usart.o(i.DMA2_Stream2_IRQHandler)
    DMA2_Stream3_IRQHandler                  0x0802075d   Thumb Code     6  spi.o(i.DMA2_Stream3_IRQHandler)
    DMA2_Stream6_IRQHandler                  0x08020769   Thumb Code     6  usart.o(i.DMA2_Stream6_IRQHandler)
    DMA2_Stream7_IRQHandler                  0x08020775   Thumb Code     6  usart.o(i.DMA2_Stream7_IRQHandler)
    DebugMon_Handler                         0x08020825   Thumb Code     2  stm32f4xx_it.o(i.DebugMon_Handler)
    ETH_IRQHandler                           0x08020879   Thumb Code    32  bsp_eth.o(i.ETH_IRQHandler)
    EnableUartIT                             0x080209c9   Thumb Code   142  usart.o(i.EnableUartIT)
    FLASH_Erase_Sector                       0x08020a6d   Thumb Code   206  stm32f4xx_hal_flash_ex.o(i.FLASH_Erase_Sector)
    FLASH_FlushCaches                        0x08020b81   Thumb Code    80  stm32f4xx_hal_flash_ex.o(i.FLASH_FlushCaches)
    FLASH_WaitForLastOperation               0x08020f25   Thumb Code    72  stm32f4xx_hal_flash.o(i.FLASH_WaitForLastOperation)
    HAL_DMA_Abort                            0x08020fe1   Thumb Code   142  stm32f4xx_hal_dma.o(i.HAL_DMA_Abort)
    HAL_DMA_Abort_IT                         0x0802106f   Thumb Code    36  stm32f4xx_hal_dma.o(i.HAL_DMA_Abort_IT)
    HAL_DMA_IRQHandler                       0x08021095   Thumb Code   412  stm32f4xx_hal_dma.o(i.HAL_DMA_IRQHandler)
    HAL_DMA_Init                             0x08021235   Thumb Code   664  stm32f4xx_hal_dma.o(i.HAL_DMA_Init)
    HAL_DMA_Start_IT                         0x08021515   Thumb Code   152  stm32f4xx_hal_dma.o(i.HAL_DMA_Start_IT)
    HAL_Delay                                0x080215e9   Thumb Code    32  stm32f4xx_hal.o(i.HAL_Delay)
    HAL_ETH_DMARxDescListInit                0x0802160d   Thumb Code   114  stm32f4xx_hal_eth.o(i.HAL_ETH_DMARxDescListInit)
    HAL_ETH_DMATxDescListInit                0x0802167f   Thumb Code   120  stm32f4xx_hal_eth.o(i.HAL_ETH_DMATxDescListInit)
    HAL_ETH_DeInit                           0x080216f7   Thumb Code    26  stm32f4xx_hal_eth.o(i.HAL_ETH_DeInit)
    HAL_ETH_ErrorCallback                    0x08021711   Thumb Code    18  bsp_eth.o(i.HAL_ETH_ErrorCallback)
    HAL_ETH_GetReceivedFrame                 0x0802173d   Thumb Code   122  stm32f4xx_hal_eth.o(i.HAL_ETH_GetReceivedFrame)
    HAL_ETH_IRQHandler                       0x080217b7   Thumb Code   122  stm32f4xx_hal_eth.o(i.HAL_ETH_IRQHandler)
    HAL_ETH_Init                             0x08021831   Thumb Code   554  stm32f4xx_hal_eth.o(i.HAL_ETH_Init)
    HAL_ETH_MspDeInit                        0x08021ac1   Thumb Code    82  bsp_eth.o(i.HAL_ETH_MspDeInit)
    HAL_ETH_MspInit                          0x08021b2d   Thumb Code   296  bsp_eth.o(i.HAL_ETH_MspInit)
    HAL_ETH_ReadPHYRegister                  0x08021c6d   Thumb Code   148  stm32f4xx_hal_eth.o(i.HAL_ETH_ReadPHYRegister)
    HAL_ETH_RxCpltCallback                   0x08021d3d   Thumb Code    40  bsp_eth.o(i.HAL_ETH_RxCpltCallback)
    HAL_ETH_Start                            0x08021d6d   Thumb Code   132  stm32f4xx_hal_eth.o(i.HAL_ETH_Start)
    HAL_ETH_TransmitFrame                    0x08021df1   Thumb Code   264  stm32f4xx_hal_eth.o(i.HAL_ETH_TransmitFrame)
    HAL_ETH_TxCpltCallback                   0x08021ef9   Thumb Code     2  bsp_eth.o(i.HAL_ETH_TxCpltCallback)
    HAL_ETH_WritePHYRegister                 0x08021efd   Thumb Code   138  stm32f4xx_hal_eth.o(i.HAL_ETH_WritePHYRegister)
    HAL_FLASHEx_Erase                        0x08021fc5   Thumb Code   192  stm32f4xx_hal_flash_ex.o(i.HAL_FLASHEx_Erase)
    HAL_FLASH_Lock                           0x080220cd   Thumb Code    14  stm32f4xx_hal_flash.o(i.HAL_FLASH_Lock)
    HAL_FLASH_Program                        0x080220e1   Thumb Code   138  stm32f4xx_hal_flash.o(i.HAL_FLASH_Program)
    HAL_FLASH_Unlock                         0x080221b1   Thumb Code    32  stm32f4xx_hal_flash.o(i.HAL_FLASH_Unlock)
    HAL_GPIO_DeInit                          0x080221dd   Thumb Code   344  stm32f4xx_hal_gpio.o(i.HAL_GPIO_DeInit)
    HAL_GPIO_Init                            0x080223a5   Thumb Code   682  stm32f4xx_hal_gpio.o(i.HAL_GPIO_Init)
    HAL_GPIO_WritePin                        0x080226dd   Thumb Code    46  stm32f4xx_hal_gpio.o(i.HAL_GPIO_WritePin)
    HAL_GetTick                              0x08022749   Thumb Code     6  stm32f4xx_hal.o(i.HAL_GetTick)
    HAL_IncTick                              0x08022755   Thumb Code    12  stm32f4xx_hal.o(i.HAL_IncTick)
    HAL_Init                                 0x08022765   Thumb Code    48  stm32f4xx_hal.o(i.HAL_Init)
    HAL_InitTick                             0x08022799   Thumb Code    54  stm32f4xx_hal.o(i.HAL_InitTick)
    HAL_MspInit                              0x080227d9   Thumb Code     2  stm32f4xx_hal.o(i.HAL_MspInit)
    HAL_NVIC_DisableIRQ                      0x080227dd   Thumb Code    36  stm32f4xx_hal_cortex.o(i.HAL_NVIC_DisableIRQ)
    HAL_NVIC_EnableIRQ                       0x08022841   Thumb Code    36  stm32f4xx_hal_cortex.o(i.HAL_NVIC_EnableIRQ)
    HAL_NVIC_SetPriority                     0x080228a5   Thumb Code    92  stm32f4xx_hal_cortex.o(i.HAL_NVIC_SetPriority)
    HAL_NVIC_SetPriorityGrouping             0x08022945   Thumb Code    58  stm32f4xx_hal_cortex.o(i.HAL_NVIC_SetPriorityGrouping)
    HAL_RCC_ClockConfig                      0x080229c9   Thumb Code   534  stm32f4xx_hal_rcc.o(i.HAL_RCC_ClockConfig)
    HAL_RCC_GetHCLKFreq                      0x08022c2d   Thumb Code     6  stm32f4xx_hal_rcc.o(i.HAL_RCC_GetHCLKFreq)
    HAL_RCC_GetPCLK1Freq                     0x08022c39   Thumb Code    20  stm32f4xx_hal_rcc.o(i.HAL_RCC_GetPCLK1Freq)
    HAL_RCC_GetPCLK2Freq                     0x08022c59   Thumb Code    20  stm32f4xx_hal_rcc.o(i.HAL_RCC_GetPCLK2Freq)
    HAL_RCC_GetSysClockFreq                  0x08022c79   Thumb Code    88  stm32f4xx_hal_rcc.o(i.HAL_RCC_GetSysClockFreq)
    HAL_RCC_MCOConfig                        0x08022cdd   Thumb Code   278  stm32f4xx_hal_rcc.o(i.HAL_RCC_MCOConfig)
    HAL_RCC_OscConfig                        0x08022e3d   Thumb Code  1092  stm32f4xx_hal_rcc.o(i.HAL_RCC_OscConfig)
    HAL_RNG_GenerateRandomNumber             0x08023281   Thumb Code   102  stm32f4xx_hal_rng.o(i.HAL_RNG_GenerateRandomNumber)
    HAL_RNG_Init                             0x080232e7   Thumb Code    48  stm32f4xx_hal_rng.o(i.HAL_RNG_Init)
    HAL_RNG_MspInit                          0x08023317   Thumb Code     2  stm32f4xx_hal_rng.o(i.HAL_RNG_MspInit)
    HAL_SPI1_RxCpltCallback                  0x08023319   Thumb Code    36  spi.o(i.HAL_SPI1_RxCpltCallback)
    HAL_SPI_DMAStop                          0x08023359   Thumb Code    40  stm32f4xx_hal_spi.o(i.HAL_SPI_DMAStop)
    HAL_SPI_ErrorCallback                    0x08023381   Thumb Code     2  stm32f4xx_hal_spi.o(i.HAL_SPI_ErrorCallback)
    HAL_SPI_IRQHandler                       0x08023385   Thumb Code   208  stm32f4xx_hal_spi.o(i.HAL_SPI_IRQHandler)
    HAL_SPI_Init                             0x08023459   Thumb Code   448  stm32f4xx_hal_spi.o(i.HAL_SPI_Init)
    HAL_SPI_MspInit                          0x0802366d   Thumb Code   572  spi.o(i.HAL_SPI_MspInit)
    HAL_SPI_Receive_DMA                      0x080238d9   Thumb Code   230  stm32f4xx_hal_spi.o(i.HAL_SPI_Receive_DMA)
    HAL_SPI_RxCpltCallback                   0x080239cd   Thumb Code     2  spi.o(i.HAL_SPI_RxCpltCallback)
    HAL_SPI_RxHalfCpltCallback               0x080239cf   Thumb Code     2  stm32f4xx_hal_spi.o(i.HAL_SPI_RxHalfCpltCallback)
    HAL_SPI_TransmitReceive_DMA              0x080239d1   Thumb Code   304  stm32f4xx_hal_spi.o(i.HAL_SPI_TransmitReceive_DMA)
    HAL_SPI_TxRxCpltCallback                 0x08023b51   Thumb Code     2  stm32f4xx_hal_spi.o(i.HAL_SPI_TxRxCpltCallback)
    HAL_SPI_TxRxHalfCpltCallback             0x08023b53   Thumb Code     2  stm32f4xx_hal_spi.o(i.HAL_SPI_TxRxHalfCpltCallback)
    HAL_SYSTICK_Config                       0x08023b55   Thumb Code    40  stm32f4xx_hal_cortex.o(i.HAL_SYSTICK_Config)
    HAL_UART_DMAStop                         0x08023b7d   Thumb Code    88  stm32f4xx_hal_uart.o(i.HAL_UART_DMAStop)
    HAL_UART_ErrorCallback                   0x08023bd5   Thumb Code     2  stm32f4xx_hal_uart.o(i.HAL_UART_ErrorCallback)
    HAL_UART_IRQHandler                      0x08023bd9   Thumb Code   266  stm32f4xx_hal_uart.o(i.HAL_UART_IRQHandler)
    HAL_UART_Init                            0x08023ce9   Thumb Code   256  stm32f4xx_hal_uart.o(i.HAL_UART_Init)
    HAL_UART_MspInit                         0x08023e45   Thumb Code   628  usart.o(i.HAL_UART_MspInit)
    HAL_UART_Receive_DMA                     0x080240e9   Thumb Code   138  stm32f4xx_hal_uart.o(i.HAL_UART_Receive_DMA)
    HAL_UART_RxCpltCallback                  0x08024181   Thumb Code     2  stm32f4xx_hal_uart.o(i.HAL_UART_RxCpltCallback)
    HAL_UART_RxHalfCpltCallback              0x08024183   Thumb Code     2  stm32f4xx_hal_uart.o(i.HAL_UART_RxHalfCpltCallback)
    HAL_UART_Transmit                        0x08024185   Thumb Code   186  stm32f4xx_hal_uart.o(i.HAL_UART_Transmit)
    HAL_UART_TxCpltCallback                  0x0802423f   Thumb Code     2  stm32f4xx_hal_uart.o(i.HAL_UART_TxCpltCallback)
    HAL_USART1_RxCpltCallback                0x08024241   Thumb Code    72  usart.o(i.HAL_USART1_RxCpltCallback)
    HAL_USART2_RxCpltCallback                0x08024291   Thumb Code    64  usart.o(i.HAL_USART2_RxCpltCallback)
    HAL_USART3_RxCpltCallback                0x080242d9   Thumb Code    90  usart.o(i.HAL_USART3_RxCpltCallback)
    HAL_USART6_RxCpltCallback                0x08024341   Thumb Code    64  usart.o(i.HAL_USART6_RxCpltCallback)
    LED_GPIO_Config                          0x08024389   Thumb Code   156  bsp_led.o(i.LED_GPIO_Config)
    MX_DMA_Init                              0x08024431   Thumb Code   264  dma.o(i.MX_DMA_Init)
    MX_SPI1_Init                             0x0802453d   Thumb Code    34  spi.o(i.MX_SPI1_Init)
    MX_USART1_UART_Init                      0x08024569   Thumb Code    32  usart.o(i.MX_USART1_UART_Init)
    MX_USART2_UART_Init                      0x08024591   Thumb Code    32  usart.o(i.MX_USART2_UART_Init)
    MX_USART3_UART_Init                      0x080245b9   Thumb Code    32  usart.o(i.MX_USART3_UART_Init)
    MX_USART6_UART_Init                      0x080245e1   Thumb Code    32  usart.o(i.MX_USART6_UART_Init)
    MemManage_Handler                        0x08024609   Thumb Code     2  stm32f4xx_it.o(i.MemManage_Handler)
    NMI_Handler                              0x0802460b   Thumb Code     2  stm32f4xx_it.o(i.NMI_Handler)
    ReadByte                                 0x0802462d   Thumb Code    12  util.o(i.ReadByte)
    ReadDWord                                0x08024639   Thumb Code    34  util.o(i.ReadDWord)
    SPI1_IRQHandler                          0x0802465d   Thumb Code    88  spi.o(i.SPI1_IRQHandler)
    SPI2_IRQHandler                          0x080246c9   Thumb Code     6  spi.o(i.SPI2_IRQHandler)
    SPI3_IRQHandler                          0x080246d5   Thumb Code     6  spi.o(i.SPI3_IRQHandler)
    Sem_give_ISR                             0x08024915   Thumb Code    62  ble_handler.o(i.Sem_give_ISR)
    SysTick_Handler                          0x08024985   Thumb Code    42  stm32f4xx_it.o(i.SysTick_Handler)
    SystemInit                               0x08024a41   Thumb Code    66  system_stm32f4xx.o(i.SystemInit)
    USART1_IRQHandler                        0x08025031   Thumb Code    78  usart.o(i.USART1_IRQHandler)
    USART2_IRQHandler                        0x08025085   Thumb Code    76  usart.o(i.USART2_IRQHandler)
    USART3_IRQHandler                        0x080250d9   Thumb Code    78  usart.o(i.USART3_IRQHandler)
    USART6_IRQHandler                        0x0802512d   Thumb Code    78  usart.o(i.USART6_IRQHandler)
    UsageFault_Handler                       0x08025181   Thumb Code     2  stm32f4xx_it.o(i.UsageFault_Handler)
    WriteByte                                0x08025183   Thumb Code    12  util.o(i.WriteByte)
    WriteDWord                               0x0802518f   Thumb Code    30  util.o(i.WriteDWord)
    __0printf$8                              0x080251ad   Thumb Code    22  printf8.o(i.__0printf$8)
    __1printf$8                              0x080251ad   Thumb Code     0  printf8.o(i.__0printf$8)
    __2printf                                0x080251ad   Thumb Code     0  printf8.o(i.__0printf$8)
    __0sprintf$8                             0x080251cd   Thumb Code    34  printf8.o(i.__0sprintf$8)
    __1sprintf$8                             0x080251cd   Thumb Code     0  printf8.o(i.__0sprintf$8)
    __2sprintf                               0x080251cd   Thumb Code     0  printf8.o(i.__0sprintf$8)
    __scatterload_copy                       0x080251f5   Thumb Code    14  handlers.o(i.__scatterload_copy)
    __scatterload_null                       0x08025203   Thumb Code     2  handlers.o(i.__scatterload_null)
    __scatterload_zeroinit                   0x08025205   Thumb Code    14  handlers.o(i.__scatterload_zeroinit)
    app_start_task_init                      0x08025675   Thumb Code    38  app.o(i.app_start_task_init)
    assert_failed                            0x080256b5   Thumb Code    24  board.o(i.assert_failed)
    ble_send_bytes                           0x080256e9   Thumb Code    48  ble_usart.o(i.ble_send_bytes)
    ble_task_init                            0x0802571d   Thumb Code    92  ble_handler.o(i.ble_task_init)
    business_strategy_init                   0x08025975   Thumb Code    40  strategy.o(i.business_strategy_init)
    cm_backtrace_assert                      0x080259a1   Thumb Code    64  cm_backtrace.o(i.cm_backtrace_assert)
    cm_backtrace_call_stack                  0x08025a19   Thumb Code   150  cm_backtrace.o(i.cm_backtrace_call_stack)
    cm_backtrace_fault                       0x08025ab9   Thumb Code   388  cm_backtrace.o(i.cm_backtrace_fault)
    cm_backtrace_firmware_info               0x08025cf5   Thumb Code    30  cm_backtrace.o(i.cm_backtrace_firmware_info)
    cm_backtrace_init                        0x08025d21   Thumb Code    68  cm_backtrace.o(i.cm_backtrace_init)
    crc16bitbybit                            0x08025d7d   Thumb Code    52  crc.o(i.crc16bitbybit)
    create_tcp_connect                       0x08025db1   Thumb Code    58  tcp_client.o(i.create_tcp_connect)
    dhcp_arp_reply                           0x08025f41   Thumb Code    34  dhcp.o(i.dhcp_arp_reply)
    dhcp_coarse_tmr                          0x080260c5   Thumb Code   168  dhcp.o(i.dhcp_coarse_tmr)
    dhcp_fine_tmr                            0x080264b1   Thumb Code    46  dhcp.o(i.dhcp_fine_tmr)
    dhcp_release_and_stop                    0x08026d19   Thumb Code   180  dhcp.o(i.dhcp_release_and_stop)
    dhcp_renew                               0x08026dd5   Thumb Code   210  dhcp.o(i.dhcp_renew)
    dhcp_start                               0x08027049   Thumb Code   130  dhcp.o(i.dhcp_start)
    dhcp_supplied_address                    0x08027101   Thumb Code    28  dhcp.o(i.dhcp_supplied_address)
    enable_spi_it                            0x080272e5   Thumb Code    32  spi.o(i.enable_spi_it)
    etharp_cleanup_netif                     0x08027459   Thumb Code    40  etharp.o(i.etharp_cleanup_netif)
    etharp_input                             0x0802767d   Thumb Code   162  etharp.o(i.etharp_input)
    etharp_output                            0x08027731   Thumb Code   256  etharp.o(i.etharp_output)
    etharp_query                             0x08027911   Thumb Code   276  etharp.o(i.etharp_query)
    etharp_request                           0x08027b7d   Thumb Code     6  etharp.o(i.etharp_request)
    etharp_tmr                               0x08027ba9   Thumb Code    88  etharp.o(i.etharp_tmr)
    ethernet_input                           0x08027cb9   Thumb Code   160  ethernet.o(i.ethernet_input)
    ethernet_output                          0x08027d5d   Thumb Code    90  ethernet.o(i.ethernet_output)
    ethernetif_init                          0x08027ded   Thumb Code    78  ethernetif.o(i.ethernetif_init)
    ethernetif_input                         0x08027e81   Thumb Code    64  ethernetif.o(i.ethernetif_input)
    fputc                                    0x08028105   Thumb Code    20  usart.o(i.fputc)
    get_random_number                        0x0802811d   Thumb Code    14  random.o(i.get_random_number)
    get_sys_start_flag                       0x08028131   Thumb Code     6  reboot.o(i.get_sys_start_flag)
    hal_flash_crc                            0x0802813d   Thumb Code    12  hal_flash.o(i.hal_flash_crc)
    hal_flash_erase                          0x0802814d   Thumb Code    84  hal_flash.o(i.hal_flash_erase)
    hal_flash_lock                           0x080281ed   Thumb Code     4  hal_flash.o(i.hal_flash_lock)
    hal_flash_write                          0x080281f1   Thumb Code    92  hal_flash.o(i.hal_flash_write)
    hal_read_flash_bytes                     0x080282c9   Thumb Code    28  hal_flash.o(i.hal_read_flash_bytes)
    hal_read_flash_word                      0x080282e9   Thumb Code    14  hal_flash.o(i.hal_read_flash_word)
    icmp_dest_unreach                        0x080282fd   Thumb Code     8  icmp.o(i.icmp_dest_unreach)
    icmp_input                               0x08028305   Thumb Code   272  icmp.o(i.icmp_input)
    icmp_time_exceeded                       0x0802852d   Thumb Code     8  icmp.o(i.icmp_time_exceeded)
    inet_chksum_pbuf                         0x08028535   Thumb Code    74  inet_chksum.o(i.inet_chksum_pbuf)
    ip4_addr_isbroadcast_u32                 0x0802857f   Thumb Code    46  ip4_addr.o(i.ip4_addr_isbroadcast_u32)
    ip4_frag                                 0x080285ad   Thumb Code   406  ip4_frag.o(i.ip4_frag)
    ip4_input                                0x08028795   Thumb Code   402  ip4.o(i.ip4_input)
    ip4_output_if                            0x0802895d   Thumb Code    30  ip4.o(i.ip4_output_if)
    ip4_output_if_src                        0x0802897d   Thumb Code   198  ip4.o(i.ip4_output_if_src)
    ip4_reass                                0x08028a89   Thumb Code   486  ip4_frag.o(i.ip4_reass)
    ip4_route                                0x08028cb1   Thumb Code    86  ip4.o(i.ip4_route)
    ip_reass_tmr                             0x080290cd   Thumb Code    40  ip4_frag.o(i.ip_reass_tmr)
    iq_data_queue_init                       0x08029125   Thumb Code    50  iq_queue.o(i.iq_data_queue_init)
    lwip_eth_init                            0x080294cd   Thumb Code   138  sys_arch.o(i.lwip_eth_init)
    lwip_htonl                               0x080295c1   Thumb Code     4  def.o(i.lwip_htonl)
    lwip_htons                               0x080295c5   Thumb Code     4  def.o(i.lwip_htons)
    lwip_init                                0x080295c9   Thumb Code    34  init.o(i.lwip_init)
    lwip_netconn_do_close                    0x080295ed   Thumb Code   154  api_msg.o(i.lwip_netconn_do_close)
    lwip_netconn_do_connect                  0x080298e9   Thumb Code   194  api_msg.o(i.lwip_netconn_do_connect)
    lwip_netconn_do_delconn                  0x08029ae1   Thumb Code   220  api_msg.o(i.lwip_netconn_do_delconn)
    lwip_netconn_do_newconn                  0x08029bf9   Thumb Code    18  api_msg.o(i.lwip_netconn_do_newconn)
    lwip_netconn_do_recv                     0x08029c0b   Thumb Code    68  api_msg.o(i.lwip_netconn_do_recv)
    lwip_netconn_do_send                     0x08029c4f   Thumb Code    66  api_msg.o(i.lwip_netconn_do_send)
    lwip_netconn_do_write                    0x08029c91   Thumb Code   148  api_msg.o(i.lwip_netconn_do_write)
    lwip_netconn_is_err_msg                  0x0802a095   Thumb Code    56  api_msg.o(i.lwip_netconn_is_err_msg)
    lwip_standard_chksum                     0x0802a0dd   Thumb Code    86  inet_chksum.o(i.lwip_standard_chksum)
    main                                     0x0802a135   Thumb Code    16  main.o(i.main)
    mem_free                                 0x0802a14d   Thumb Code   182  mem.o(i.mem_free)
    mem_init                                 0x0802a2a5   Thumb Code    68  mem.o(i.mem_init)
    mem_malloc                               0x0802a30d   Thumb Code   280  mem.o(i.mem_malloc)
    mem_trim                                 0x0802a4ed   Thumb Code   284  mem.o(i.mem_trim)
    memp_free                                0x0802a659   Thumb Code    26  memp.o(i.memp_free)
    memp_init                                0x0802a695   Thumb Code    24  memp.o(i.memp_init)
    memp_init_pool                           0x0802a6b1   Thumb Code    42  memp.o(i.memp_init_pool)
    memp_malloc                              0x0802a6dd   Thumb Code    30  memp.o(i.memp_malloc)
    netbuf_data                              0x0802a721   Thumb Code    54  netbuf.o(i.netbuf_data)
    netbuf_delete                            0x0802a7b1   Thumb Code    34  netbuf.o(i.netbuf_delete)
    netbuf_new                               0x0802a7d3   Thumb Code    24  netbuf.o(i.netbuf_new)
    netbuf_next                              0x0802a7ed   Thumb Code    38  netbuf.o(i.netbuf_next)
    netbuf_ref                               0x0802a831   Thumb Code    70  netbuf.o(i.netbuf_ref)
    netconn_alloc                            0x0802a891   Thumb Code   118  api_msg.o(i.netconn_alloc)
    netconn_close                            0x0802a947   Thumb Code     6  api_lib.o(i.netconn_close)
    netconn_connect                          0x0802a999   Thumb Code    44  api_lib.o(i.netconn_connect)
    netconn_delete                           0x0802a9ed   Thumb Code    30  api_lib.o(i.netconn_delete)
    netconn_err                              0x0802aaa7   Thumb Code    30  api_lib.o(i.netconn_err)
    netconn_free                             0x0802aac5   Thumb Code    74  api_msg.o(i.netconn_free)
    netconn_new_with_proto_and_callback      0x0802abb9   Thumb Code   126  api_lib.o(i.netconn_new_with_proto_and_callback)
    netconn_prepare_delete                   0x0802acb9   Thumb Code    28  api_lib.o(i.netconn_prepare_delete)
    netconn_recv                             0x0802acd9   Thumb Code   128  api_lib.o(i.netconn_recv)
    netconn_send                             0x0802af49   Thumb Code    34  api_lib.o(i.netconn_send)
    netconn_write_partly                     0x0802afe1   Thumb Code    20  api_lib.o(i.netconn_write_partly)
    netconn_write_vectors_partly             0x0802aff5   Thumb Code   174  api_lib.o(i.netconn_write_vectors_partly)
    netif_add                                0x0802b10d   Thumb Code   200  netif.o(i.netif_add)
    netif_get_by_index                       0x0802b301   Thumb Code    32  netif.o(i.netif_get_by_index)
    netif_init                               0x0802b325   Thumb Code     2  netif.o(i.netif_init)
    netif_set_addr                           0x0802b38d   Thumb Code    92  netif.o(i.netif_set_addr)
    netif_set_default                        0x0802b3ed   Thumb Code     6  netif.o(i.netif_set_default)
    netif_set_down                           0x0802b3f9   Thumb Code    34  netif.o(i.netif_set_down)
    netif_set_up                             0x0802b43d   Thumb Code    32  netif.o(i.netif_set_up)
    ota_init                                 0x0802b479   Thumb Code    52  ota.o(i.ota_init)
    pbuf_add_header                          0x0802b601   Thumb Code     6  pbuf.o(i.pbuf_add_header)
    pbuf_alloc                               0x0802b669   Thumb Code   266  pbuf.o(i.pbuf_alloc)
    pbuf_alloc_reference                     0x0802b821   Thumb Code    60  pbuf.o(i.pbuf_alloc_reference)
    pbuf_alloced_custom                      0x0802b871   Thumb Code    56  pbuf.o(i.pbuf_alloced_custom)
    pbuf_cat                                 0x0802b8a9   Thumb Code    70  pbuf.o(i.pbuf_cat)
    pbuf_chain                               0x0802b969   Thumb Code    18  pbuf.o(i.pbuf_chain)
    pbuf_clen                                0x0802b97b   Thumb Code    18  pbuf.o(i.pbuf_clen)
    pbuf_clone                               0x0802b98d   Thumb Code    38  pbuf.o(i.pbuf_clone)
    pbuf_copy                                0x0802b9c9   Thumb Code   182  pbuf.o(i.pbuf_copy)
    pbuf_copy_partial                        0x0802bb21   Thumb Code   110  pbuf.o(i.pbuf_copy_partial)
    pbuf_free                                0x0802bbd5   Thumb Code   140  pbuf.o(i.pbuf_free)
    pbuf_header_force                        0x0802bcbd   Thumb Code     6  pbuf.o(i.pbuf_header_force)
    pbuf_realloc                             0x0802bced   Thumb Code   112  pbuf.o(i.pbuf_realloc)
    pbuf_ref                                 0x0802bda9   Thumb Code    38  pbuf.o(i.pbuf_ref)
    pbuf_remove_header                       0x0802bde5   Thumb Code    58  pbuf.o(i.pbuf_remove_header)
    pvPortMalloc                             0x0802c9c5   Thumb Code   214  heap_4.o(i.pvPortMalloc)
    pvTaskIncrementMutexHeldCount            0x0802cad5   Thumb Code    18  tasks.o(i.pvTaskIncrementMutexHeldCount)
    pxPortInitialiseStack                    0x0802caed   Thumb Code    40  port.o(i.pxPortInitialiseStack)
    reboot                                   0x0802cb19   Thumb Code    36  reboot.o(i.reboot)
    rng_init                                 0x0802cd59   Thumb Code    34  random.o(i.rng_init)
    rtt_output_hex                           0x0802cd89   Thumb Code    44  util.o(i.rtt_output_hex)
    seq_init                                 0x0802ced9   Thumb Code    12  package.o(i.seq_init)
    start_flag_init                          0x0802cf2d   Thumb Code    20  reboot.o(i.start_flag_init)
    sys_arch_mbox_fetch                      0x0802cfd9   Thumb Code    66  sys_arch.o(i.sys_arch_mbox_fetch)
    sys_arch_mbox_tryfetch                   0x0802d01b   Thumb Code    30  sys_arch.o(i.sys_arch_mbox_tryfetch)
    sys_arch_protect                         0x0802d039   Thumb Code    10  sys_arch.o(i.sys_arch_protect)
    sys_arch_sem_wait                        0x0802d043   Thumb Code    58  sys_arch.o(i.sys_arch_sem_wait)
    sys_arch_unprotect                       0x0802d07d   Thumb Code     4  sys_arch.o(i.sys_arch_unprotect)
    sys_check_timeouts                       0x0802d081   Thumb Code    60  timeouts.o(i.sys_check_timeouts)
    sys_init                                 0x0802d0c1   Thumb Code    28  sys_arch.o(i.sys_init)
    sys_mbox_free                            0x0802d0e5   Thumb Code    20  sys_arch.o(i.sys_mbox_free)
    sys_mbox_new                             0x0802d0f9   Thumb Code    30  sys_arch.o(i.sys_mbox_new)
    sys_mbox_set_invalid                     0x0802d117   Thumb Code     6  sys_arch.o(i.sys_mbox_set_invalid)
    sys_mbox_trypost                         0x0802d11d   Thumb Code    28  sys_arch.o(i.sys_mbox_trypost)
    sys_mbox_valid                           0x0802d139   Thumb Code    10  sys_arch.o(i.sys_mbox_valid)
    sys_mutex_lock                           0x0802d143   Thumb Code    12  sys_arch.o(i.sys_mutex_lock)
    sys_mutex_new                            0x0802d151   Thumb Code    30  sys_arch.o(i.sys_mutex_new)
    sys_mutex_unlock                         0x0802d18d   Thumb Code    12  sys_arch.o(i.sys_mutex_unlock)
    sys_now                                  0x0802d199   Thumb Code    12  sys_arch.o(i.sys_now)
    sys_sem_free                             0x0802d1a9   Thumb Code    16  sys_arch.o(i.sys_sem_free)
    sys_sem_new                              0x0802d1b9   Thumb Code    60  sys_arch.o(i.sys_sem_new)
    sys_sem_set_invalid                      0x0802d211   Thumb Code     6  sys_arch.o(i.sys_sem_set_invalid)
    sys_sem_signal                           0x0802d219   Thumb Code    30  sys_arch.o(i.sys_sem_signal)
    sys_sem_valid                            0x0802d259   Thumb Code    10  sys_arch.o(i.sys_sem_valid)
    sys_thread_new                           0x0802d265   Thumb Code    52  sys_arch.o(i.sys_thread_new)
    sys_timeout                              0x0802d2c1   Thumb Code    38  timeouts.o(i.sys_timeout)
    sys_timeouts_init                        0x0802d3b9   Thumb Code    28  timeouts.o(i.sys_timeouts_init)
    sys_timeouts_sleeptime                   0x0802d3dd   Thumb Code    34  timeouts.o(i.sys_timeouts_sleeptime)
    tcp_abandon                              0x0802d405   Thumb Code   230  tcp.o(i.tcp_abandon)
    tcp_abort                                0x0802d541   Thumb Code     6  tcp.o(i.tcp_abort)
    tcp_accept                               0x0802d547   Thumb Code    14  tcp.o(i.tcp_accept)
    tcp_alloc                                0x0802d555   Thumb Code   282  tcp.o(i.tcp_alloc)
    tcp_arg                                  0x0802d67d   Thumb Code     8  tcp.o(i.tcp_arg)
    tcp_client_disconnect                    0x0802d685   Thumb Code    80  tcp_client.o(i.tcp_client_disconnect)
    tcp_client_send_data                     0x0802d8c1   Thumb Code    76  tcp_client.o(i.tcp_client_send_data)
    tcp_client_task_init                     0x0802d969   Thumb Code    92  tcp_client.o(i.tcp_client_task_init)
    tcp_close                                0x0802da6d   Thumb Code    40  tcp.o(i.tcp_close)
    tcp_common_data_dequeue                  0x0802dc79   Thumb Code    52  tcp_queue.o(i.tcp_common_data_dequeue)
    tcp_common_data_enqueue                  0x0802dd11   Thumb Code    52  tcp_queue.o(i.tcp_common_data_enqueue)
    tcp_common_data_queue_full               0x0802ddc1   Thumb Code    30  tcp_queue.o(i.tcp_common_data_queue_full)
    tcp_common_data_queue_init               0x0802dde9   Thumb Code    50  tcp_queue.o(i.tcp_common_data_queue_init)
    tcp_connect                              0x0802de8d   Thumb Code   262  tcp.o(i.tcp_connect)
    tcp_data_handler                         0x0802e111   Thumb Code   118  tcp_queue.o(i.tcp_data_handler)
    tcp_eff_send_mss_netif                   0x0802e1e5   Thumb Code    44  tcp.o(i.tcp_eff_send_mss_netif)
    tcp_enqueue_flags                        0x0802e239   Thumb Code   216  tcp_out.o(i.tcp_enqueue_flags)
    tcp_err                                  0x0802e3dd   Thumb Code    26  tcp.o(i.tcp_err)
    tcp_fasttmr                              0x0802e421   Thumb Code   102  tcp.o(i.tcp_fasttmr)
    tcp_free                                 0x0802e48d   Thumb Code    28  tcp.o(i.tcp_free)
    tcp_handler_task_init                    0x0802e5b9   Thumb Code    38  tcp_handller.o(i.tcp_handler_task_init)
    tcp_init                                 0x0802e6a1   Thumb Code     2  tcp.o(i.tcp_init)
    tcp_input                                0x0802e6a5   Thumb Code  1424  tcp_in.o(i.tcp_input)
    tcp_keepalive                            0x0802eca5   Thumb Code    74  tcp_out.o(i.tcp_keepalive)
    tcp_netif_ip_addr_changed                0x0802ef35   Thumb Code    70  tcp.o(i.tcp_netif_ip_addr_changed)
    tcp_new_ip_type                          0x0802efe1   Thumb Code     6  tcp.o(i.tcp_new_ip_type)
    tcp_next_iss                             0x0802f045   Thumb Code    22  tcp.o(i.tcp_next_iss)
    tcp_ota_data_dequeue                     0x0802f07d   Thumb Code    52  tcp_queue.o(i.tcp_ota_data_dequeue)
    tcp_ota_data_enpueue                     0x0802f111   Thumb Code    52  tcp_queue.o(i.tcp_ota_data_enpueue)
    tcp_ota_data_queue_full                  0x0802f1b9   Thumb Code    30  tcp_queue.o(i.tcp_ota_data_queue_full)
    tcp_ota_data_queue_init                  0x0802f1f1   Thumb Code    50  tcp_queue.o(i.tcp_ota_data_queue_init)
    tcp_output                               0x0802f37d   Thumb Code   530  tcp_out.o(i.tcp_output)
    tcp_pcb_purge                            0x0802fafd   Thumb Code    70  tcp.o(i.tcp_pcb_purge)
    tcp_pcb_remove                           0x0802fb61   Thumb Code   122  tcp.o(i.tcp_pcb_remove)
    tcp_poll                                 0x0802fc4d   Thumb Code    42  tcp.o(i.tcp_poll)
    tcp_process_refused_data                 0x080300fd   Thumb Code   124  tcp.o(i.tcp_process_refused_data)
    tcp_recv                                 0x08030681   Thumb Code    26  tcp.o(i.tcp_recv)
    tcp_recv_null                            0x080306c5   Thumb Code    50  tcp.o(i.tcp_recv_null)
    tcp_recved                               0x08030791   Thumb Code    90  tcp.o(i.tcp_recved)
    tcp_rexmit                               0x0803082d   Thumb Code   110  tcp_out.o(i.tcp_rexmit)
    tcp_rexmit_fast                          0x080308b5   Thumb Code   100  tcp_out.o(i.tcp_rexmit_fast)
    tcp_rexmit_rto                           0x08030939   Thumb Code    34  tcp_out.o(i.tcp_rexmit_rto)
    tcp_rexmit_rto_commit                    0x08030979   Thumb Code    36  tcp_out.o(i.tcp_rexmit_rto_commit)
    tcp_rexmit_rto_prepare                   0x080309c1   Thumb Code   110  tcp_out.o(i.tcp_rexmit_rto_prepare)
