Component: ARM Compiler 5.06 update 7 (build 960) Tool: armlink [4d3601]

==============================================================================

Section Cross References

    startup_stm32f429xx.o(RESET) refers to startup_stm32f429xx.o(STACK) for __initial_sp
    startup_stm32f429xx.o(RESET) refers to startup_stm32f429xx.o(.text) for Reset_Handler
    startup_stm32f429xx.o(RESET) refers to stm32f4xx_it.o(i.NMI_Handler) for NMI_Handler
    startup_stm32f429xx.o(RESET) refers to cmb_fault.o(.text) for HardFault_Handler
    startup_stm32f429xx.o(RESET) refers to stm32f4xx_it.o(i.MemManage_Handler) for MemManage_Handler
    startup_stm32f429xx.o(RESET) refers to stm32f4xx_it.o(i.BusFault_Handler) for BusFault_Handler
    startup_stm32f429xx.o(RESET) refers to stm32f4xx_it.o(i.UsageFault_Handler) for UsageFault_Handler
    startup_stm32f429xx.o(RESET) refers to port.o(.emb_text) for SVC_Handler
    startup_stm32f429xx.o(RESET) refers to stm32f4xx_it.o(i.DebugMon_Handler) for DebugMon_Handler
    startup_stm32f429xx.o(RESET) refers to stm32f4xx_it.o(i.SysTick_Handler) for SysTick_Handler
    startup_stm32f429xx.o(RESET) refers to bsp_debug_usart.o(i.USART1_IRQHandler) for USART1_IRQHandler
    startup_stm32f429xx.o(RESET) refers to bsp_eth.o(i.ETH_IRQHandler) for ETH_IRQHandler
    startup_stm32f429xx.o(.text) refers to system_stm32f4xx.o(i.SystemInit) for SystemInit
    startup_stm32f429xx.o(.text) refers to entry.o(.ARM.Collect$$$$00000000) for __main
    system_stm32f4xx.o(i.SystemCoreClockUpdate) refers to system_stm32f4xx.o(.data) for .data
    system_stm32f4xx.o(i.SystemCoreClockUpdate) refers to system_stm32f4xx.o(.constdata) for .constdata
    stm32f4xx_hal_eth.o(i.ETH_Delay) refers to system_stm32f4xx.o(.data) for SystemCoreClock
    stm32f4xx_hal_eth.o(i.ETH_FlushTransmitFIFO) refers to stm32f4xx_hal_eth.o(i.ETH_Delay) for ETH_Delay
==============================================================================

Removing Unused input sections from the image.

    Removing startup_stm32f429xx.o(HEAP), (512 bytes).
    Removing system_stm32f4xx.o(.rev16_text), (4 bytes).
    Removing system_stm32f4xx.o(.revsh_text), (4 bytes).
    Removing system_stm32f4xx.o(.rrx_text), (6 bytes).
    Removing system_stm32f4xx.o(i.SystemCoreClockUpdate), (124 bytes).
    Removing stm32f4xx_hal_eth.o(.rev16_text), (4 bytes).
    Removing stm32f4xx_hal_eth.o(.revsh_text), (4 bytes).
    Removing stm32f4xx_hal_eth.o(.rrx_text), (6 bytes).
    Removing stm32f4xx_hal_eth.o(i.HAL_ETH_ConfigDMA), (764 bytes).
    Removing stm32f4xx_hal_eth.o(i.HAL_ETH_ConfigMAC), (996 bytes).
    Removing stm32f4xx_hal_eth.o(i.HAL_ETH_ErrorCallback), (2 bytes).
    Removing stm32f4xx_hal_eth.o(i.HAL_ETH_GetReceivedFrame_IT), (136 bytes).
    Removing stm32f4xx_hal_eth.o(i.HAL_ETH_GetState), (6 bytes).
    Removing stm32f4xx_hal_eth.o(i.HAL_ETH_MspInit), (2 bytes).
    Removing stm32f4xx_hal_eth.o(i.HAL_ETH_RxCpltCallback), (2 bytes).
    Removing stm32f4xx_hal_eth.o(i.HAL_ETH_Stop), (132 bytes).
    Removing stm32f4xx_hal_eth.o(i.HAL_ETH_TxCpltCallback), (2 bytes).
    Removing stm32f4xx_hal_tim.o(.rev16_text), (4 bytes).
==============================================================================

Image Symbol Table

    Local Symbols

    Symbol Name                              Value     Ov Type        Size  Object(Section)

    ../clib/../cmprslib/zerorunl.c           0x00000000   Number         0  __dczerorl.o ABSOLUTE
    ../clib/microlib/ctype/ctype.c           0x00000000   Number         0  isblank_o.o ABSOLUTE
    ../clib/microlib/ctype/ctype.c           0x00000000   Number         0  islower_o.o ABSOLUTE
    ../clib/microlib/ctype/ctype.c           0x00000000   Number         0  isgraph_o.o ABSOLUTE
    ../clib/microlib/ctype/ctype.c           0x00000000   Number         0  isdigit_o.o ABSOLUTE
    ../clib/microlib/ctype/ctype.c           0x00000000   Number         0  iscntrl_o.o ABSOLUTE
    ../clib/microlib/ctype/ctype.c           0x00000000   Number         0  ctype_o.o ABSOLUTE
    ../clib/microlib/ctype/ctype.c           0x00000000   Number         0  isalnum_o.o ABSOLUTE
    ../clib/microlib/ctype/ctype.c           0x00000000   Number         0  isalpha_o.o ABSOLUTE
    ../clib/microlib/ctype/ctype.c           0x00000000   Number         0  isprint_o.o ABSOLUTE
    ../clib/microlib/ctype/ctype.c           0x00000000   Number         0  ispunct_o.o ABSOLUTE
    ../clib/microlib/ctype/ctype.c           0x00000000   Number         0  isspace_o.o ABSOLUTE
    ../clib/microlib/ctype/ctype.c           0x00000000   Number         0  isupper_o.o ABSOLUTE
    ../clib/microlib/ctype/ctype.c           0x00000000   Number         0  isxdigit_o.o ABSOLUTE
    ../clib/microlib/division.c              0x00000000   Number         0  uldiv.o ABSOLUTE
    ../clib/microlib/division.c              0x00000000   Number         0  uidiv.o ABSOLUTE
    ../clib/microlib/errno.c                 0x00000000   Number         0  errno.o ABSOLUTE
    ../clib/microlib/init/entry.s            0x00000000   Number         0  entry7b.o ABSOLUTE
    ../clib/microlib/init/entry.s            0x00000000   Number         0  entry11a.o ABSOLUTE
    ../clib/microlib/init/entry.s            0x00000000   Number         0  entry10a.o ABSOLUTE
    ../clib/microlib/init/entry.s            0x00000000   Number         0  entry10b.o ABSOLUTE
    ../clib/microlib/init/entry.s            0x00000000   Number         0  entry11b.o ABSOLUTE
    ../clib/microlib/init/entry.s            0x00000000   Number         0  entry.o ABSOLUTE
    ../clib/microlib/init/entry.s            0x00000000   Number         0  entry5.o ABSOLUTE
    ../clib/microlib/init/entry.s            0x00000000   Number         0  entry7a.o ABSOLUTE
    ../clib/microlib/init/entry.s            0x00000000   Number         0  entry12b.o ABSOLUTE
    ../clib/microlib/init/entry.s            0x00000000   Number         0  entry12a.o ABSOLUTE
    ../clib/microlib/init/entry.s            0x00000000   Number         0  entry9b.o ABSOLUTE
    ../clib/microlib/init/entry.s            0x00000000   Number         0  entry9a.o ABSOLUTE
    ../clib/microlib/init/entry.s            0x00000000   Number         0  entry8b.o ABSOLUTE
    ../clib/microlib/init/entry.s            0x00000000   Number         0  entry8a.o ABSOLUTE
    ../clib/microlib/init/entry.s            0x00000000   Number         0  entry2.o ABSOLUTE
    ../clib/microlib/longlong.c              0x00000000   Number         0  llsshr.o ABSOLUTE
    ../clib/microlib/longlong.c              0x00000000   Number         0  llushr.o ABSOLUTE
    ../clib/microlib/longlong.c              0x00000000   Number         0  llshl.o ABSOLUTE
    ../clib/microlib/printf/printf.c         0x00000000   Number         0  printf2.o ABSOLUTE
    ../clib/microlib/printf/printf.c         0x00000000   Number         0  printf3.o ABSOLUTE
    ../clib/microlib/printf/printf.c         0x00000000   Number         0  printf1.o ABSOLUTE
    ../clib/microlib/printf/printf.c         0x00000000   Number         0  printfb.o ABSOLUTE
    ../clib/microlib/printf/printf.c         0x00000000   Number         0  printfa.o ABSOLUTE
    ../clib/microlib/printf/printf.c         0x00000000   Number         0  printf8.o ABSOLUTE
    ../clib/microlib/printf/printf.c         0x00000000   Number         0  printf0.o ABSOLUTE
    ../clib/microlib/printf/printf.c         0x00000000   Number         0  printf4.o ABSOLUTE
    ../clib/microlib/printf/printf.c         0x00000000   Number         0  printf5.o ABSOLUTE
    ../clib/microlib/printf/printf.c         0x00000000   Number         0  printf6.o ABSOLUTE
    ../clib/microlib/printf/printf.c         0x00000000   Number         0  printf7.o ABSOLUTE
    ../clib/microlib/printf/stubs.s          0x00000000   Number         0  stubs.o ABSOLUTE
    ../clib/microlib/stdio/streams.c         0x00000000   Number         0  stdout.o ABSOLUTE
    ../clib/microlib/string/memcmp.c         0x00000000   Number         0  memcmp.o ABSOLUTE
    ../clib/microlib/string/memcpy.c         0x00000000   Number         0  memmoveb.o ABSOLUTE
    ../clib/microlib/string/memcpy.c         0x00000000   Number         0  memcpya.o ABSOLUTE
    ../clib/microlib/string/memcpy.c         0x00000000   Number         0  memcpyb.o ABSOLUTE
    ../clib/microlib/string/memcpy.c         0x00000000   Number         0  memmovea.o ABSOLUTE
    ../clib/microlib/string/memset.c         0x00000000   Number         0  memseta.o ABSOLUTE
    ../clib/microlib/string/strlen.c         0x00000000   Number         0  strlen.o ABSOLUTE
    ../clib/microlib/string/strncmp.c        0x00000000   Number         0  strncmp.o ABSOLUTE
    ../clib/microlib/string/strncpy.c        0x00000000   Number         0  strncpy.o ABSOLUTE
    ../clib/microlib/stubs.s                 0x00000000   Number         0  iusefp.o ABSOLUTE
    ../clib/scanf.c                          0x00000000   Number         0  strtol.o ABSOLUTE
    ../clib/scanf.c                          0x00000000   Number         0  atoi.o ABSOLUTE
    ../clib/scanf.c                          0x00000000   Number         0  _chval.o ABSOLUTE
    ../clib/scanf.c                          0x00000000   Number         0  _strtoul.o ABSOLUTE
    ../fplib/microlib/fpadd.c                0x00000000   Number         0  dadd.o ABSOLUTE
    ../fplib/microlib/fpdiv.c                0x00000000   Number         0  ddiv.o ABSOLUTE
    ../fplib/microlib/fpepilogue.c           0x00000000   Number         0  depilogue.o ABSOLUTE
    ../fplib/microlib/fpfix.c                0x00000000   Number         0  dfixul.o ABSOLUTE
    ../fplib/microlib/fpmul.c                0x00000000   Number         0  dmul.o ABSOLUTE
    ..\FreeRTOS\port\MemMang\heap_4.c        0x00000000   Number         0  heap_4.o ABSOLUTE
    ..\FreeRTOS\port\RVDS\ARM_CM4F\port.c    0x00000000   Number         0  port.o ABSOLUTE
    ..\FreeRTOS\src\croutine.c               0x00000000   Number         0  croutine.o ABSOLUTE
    ..\FreeRTOS\src\event_groups.c           0x00000000   Number         0  event_groups.o ABSOLUTE
    ..\FreeRTOS\src\list.c                   0x00000000   Number         0  list.o ABSOLUTE
    ..\FreeRTOS\src\queue.c                  0x00000000   Number         0  queue.o ABSOLUTE
    ..\FreeRTOS\src\tasks.c                  0x00000000   Number         0  tasks.o ABSOLUTE
    ..\FreeRTOS\src\timers.c                 0x00000000   Number         0  timers.o ABSOLUTE
    ..\Libraries\CMSIS\Device\ST\STM32F4xx\Source\Templates\arm\startup_stm32f429xx.s 0x00000000   Number         0  startup_stm32f429xx.o ABSOLUTE
    ..\Libraries\CMSIS\Device\ST\STM32F4xx\Source\Templates\system_stm32f4xx.c 0x00000000   Number         0  system_stm32f4xx.o ABSOLUTE
    ..\Libraries\STM32F4xx_HAL_Driver\Src\stm32f4xx_hal.c 0x00000000   Number         0  stm32f4xx_hal.o ABSOLUTE
    ..\Libraries\STM32F4xx_HAL_Driver\Src\stm32f4xx_hal_cortex.c 0x00000000   Number         0  stm32f4xx_hal_cortex.o ABSOLUTE
    ..\Libraries\STM32F4xx_HAL_Driver\Src\stm32f4xx_hal_dma.c 0x00000000   Number         0  stm32f4xx_hal_dma.o ABSOLUTE
    ..\Libraries\STM32F4xx_HAL_Driver\Src\stm32f4xx_hal_eth.c 0x00000000   Number         0  stm32f4xx_hal_eth.o ABSOLUTE
    ..\Libraries\STM32F4xx_HAL_Driver\Src\stm32f4xx_hal_flash.c 0x00000000   Number         0  stm32f4xx_hal_flash.o ABSOLUTE
    ..\Libraries\STM32F4xx_HAL_Driver\Src\stm32f4xx_hal_flash_ex.c 0x00000000   Number         0  stm32f4xx_hal_flash_ex.o ABSOLUTE
    ..\Libraries\STM32F4xx_HAL_Driver\Src\stm32f4xx_hal_flash_ramfunc.c 0x00000000   Number         0  stm32f4xx_hal_flash_ramfunc.o ABSOLUTE
    ..\Libraries\STM32F4xx_HAL_Driver\Src\stm32f4xx_hal_gpio.c 0x00000000   Number         0  stm32f4xx_hal_gpio.o ABSOLUTE
    ..\Libraries\STM32F4xx_HAL_Driver\Src\stm32f4xx_hal_pwr.c 0x00000000   Number         0  stm32f4xx_hal_pwr.o ABSOLUTE
    ..\Libraries\STM32F4xx_HAL_Driver\Src\stm32f4xx_hal_pwr_ex.c 0x00000000   Number         0  stm32f4xx_hal_pwr_ex.o ABSOLUTE
    ..\Libraries\STM32F4xx_HAL_Driver\Src\stm32f4xx_hal_rcc.c 0x00000000   Number         0  stm32f4xx_hal_rcc.o ABSOLUTE
    ..\Libraries\STM32F4xx_HAL_Driver\Src\stm32f4xx_hal_rcc_ex.c 0x00000000   Number         0  stm32f4xx_hal_rcc_ex.o ABSOLUTE
    ..\Libraries\STM32F4xx_HAL_Driver\Src\stm32f4xx_hal_sdram.c 0x00000000   Number         0  stm32f4xx_hal_sdram.o ABSOLUTE
    ..\Libraries\STM32F4xx_HAL_Driver\Src\stm32f4xx_hal_tim.c 0x00000000   Number         0  stm32f4xx_hal_tim.o ABSOLUTE
    ..\Libraries\STM32F4xx_HAL_Driver\Src\stm32f4xx_hal_tim_ex.c 0x00000000   Number         0  stm32f4xx_hal_tim_ex.o ABSOLUTE
    ..\Libraries\STM32F4xx_HAL_Driver\Src\stm32f4xx_hal_uart.c 0x00000000   Number         0  stm32f4xx_hal_uart.o ABSOLUTE
    ..\Libraries\STM32F4xx_HAL_Driver\Src\stm32f4xx_hal_usart.c 0x00000000   Number         0  stm32f4xx_hal_usart.o ABSOLUTE
    ..\Libraries\STM32F4xx_HAL_Driver\Src\stm32f4xx_ll_fmc.c 0x00000000   Number         0  stm32f4xx_ll_fmc.o ABSOLUTE
    ..\Libraries\STM32F4xx_HAL_Driver\Src\stm32f4xx_ll_fsmc.c 0x00000000   Number         0  stm32f4xx_ll_fsmc.o ABSOLUTE
    ..\Libraries\STM32F4xx_HAL_Driver\Src\stm32f4xx_ll_sdmmc.c 0x00000000   Number         0  stm32f4xx_ll_sdmmc.o ABSOLUTE
    ..\LwIP\api\api_lib.c                    0x00000000   Number         0  api_lib.o ABSOLUTE
    ..\LwIP\api\api_msg.c                    0x00000000   Number         0  api_msg.o ABSOLUTE
    ..\LwIP\api\err.c                        0x00000000   Number         0  err.o ABSOLUTE
    ..\LwIP\api\if_api.c                     0x00000000   Number         0  if_api.o ABSOLUTE
    ..\LwIP\api\netbuf.c                     0x00000000   Number         0  netbuf.o ABSOLUTE
    ..\LwIP\api\netdb.c                      0x00000000   Number         0  netdb.o ABSOLUTE
    ..\LwIP\api\netifapi.c                   0x00000000   Number         0  netifapi.o ABSOLUTE
    ..\LwIP\api\sockets.c                    0x00000000   Number         0  sockets.o ABSOLUTE
    ..\LwIP\api\tcpip.c                      0x00000000   Number         0  tcpip.o ABSOLUTE
    ..\LwIP\core\altcp.c                     0x00000000   Number         0  altcp.o ABSOLUTE
    ..\LwIP\core\altcp_alloc.c               0x00000000   Number         0  altcp_alloc.o ABSOLUTE
    ..\LwIP\core\altcp_tcp.c                 0x00000000   Number         0  altcp_tcp.o ABSOLUTE
    ..\LwIP\core\def.c                       0x00000000   Number         0  def.o ABSOLUTE
    ..\LwIP\core\dns.c                       0x00000000   Number         0  dns.o ABSOLUTE
    ..\LwIP\core\inet_chksum.c               0x00000000   Number         0  inet_chksum.o ABSOLUTE
    ..\LwIP\core\init.c                      0x00000000   Number         0  init.o ABSOLUTE
    ..\LwIP\core\ip.c                        0x00000000   Number         0  ip.o ABSOLUTE
    ..\LwIP\core\ipv4\autoip.c               0x00000000   Number         0  autoip.o ABSOLUTE
    ..\LwIP\core\ipv4\dhcp.c                 0x00000000   Number         0  dhcp.o ABSOLUTE
    ..\LwIP\core\ipv4\etharp.c               0x00000000   Number         0  etharp.o ABSOLUTE
    ..\LwIP\core\ipv4\icmp.c                 0x00000000   Number         0  icmp.o ABSOLUTE
    ..\LwIP\core\ipv4\igmp.c                 0x00000000   Number         0  igmp.o ABSOLUTE
    ..\LwIP\core\ipv4\ip4.c                  0x00000000   Number         0  ip4.o ABSOLUTE
    ..\LwIP\core\ipv4\ip4_addr.c             0x00000000   Number         0  ip4_addr.o ABSOLUTE
    ..\LwIP\core\ipv4\ip4_frag.c             0x00000000   Number         0  ip4_frag.o ABSOLUTE
    ..\LwIP\core\mem.c                       0x00000000   Number         0  mem.o ABSOLUTE
    ..\LwIP\core\memp.c                      0x00000000   Number         0  memp.o ABSOLUTE
    ..\LwIP\core\netif.c                     0x00000000   Number         0  netif.o ABSOLUTE
    ..\LwIP\core\pbuf.c                      0x00000000   Number         0  pbuf.o ABSOLUTE
    ..\LwIP\core\raw.c                       0x00000000   Number         0  raw.o ABSOLUTE
    ..\LwIP\core\stats.c                     0x00000000   Number         0  stats.o ABSOLUTE
    ..\LwIP\core\sys.c                       0x00000000   Number         0  sys.o ABSOLUTE
    ..\LwIP\core\tcp.c                       0x00000000   Number         0  tcp.o ABSOLUTE
    ..\LwIP\core\tcp_in.c                    0x00000000   Number         0  tcp_in.o ABSOLUTE
    ..\LwIP\core\tcp_out.c                   0x00000000   Number         0  tcp_out.o ABSOLUTE
    ..\LwIP\core\timeouts.c                  0x00000000   Number         0  timeouts.o ABSOLUTE
    ..\LwIP\core\udp.c                       0x00000000   Number         0  udp.o ABSOLUTE
    ..\LwIP\netif\bridgeif.c                 0x00000000   Number         0  bridgeif.o ABSOLUTE
    ..\LwIP\netif\ethernet.c                 0x00000000   Number         0  ethernet.o ABSOLUTE
    ..\LwIP\netif\lowpan6.c                  0x00000000   Number         0  lowpan6.o ABSOLUTE
    ..\LwIP\netif\lowpan6_ble.c              0x00000000   Number         0  lowpan6_ble.o ABSOLUTE
    ..\LwIP\netif\lowpan6_common.c           0x00000000   Number         0  lowpan6_common.o ABSOLUTE
    ..\LwIP\netif\zepif.c                    0x00000000   Number         0  zepif.o ABSOLUTE
    ..\User\APL\src\test.c                   0x00000000   Number         0  test.o ABSOLUTE
    ..\User\APL\src\usart1_handler.c         0x00000000   Number         0  usart1_handler.o ABSOLUTE
    ..\User\FML\src\tcp_client.c             0x00000000   Number         0  tcp_client.o ABSOLUTE
    ..\User\FML\src\udp_client.c             0x00000000   Number         0  udp_client.o ABSOLUTE
    ..\User\arch\ethernetif.c                0x00000000   Number         0  ethernetif.o ABSOLUTE
    ..\User\arch\sys_arch.c                  0x00000000   Number         0  sys_arch.o ABSOLUTE
    ..\User\board.c                          0x00000000   Number         0  board.o ABSOLUTE
    ..\User\cm_backtrace\cm_backtrace.c      0x00000000   Number         0  cm_backtrace.o ABSOLUTE
    ..\User\cm_backtrace\fault_handler\keil\cmb_fault.S 0x00000000   Number         0  cmb_fault.o ABSOLUTE
    ..\User\eth\bsp_eth.c                    0x00000000   Number         0  bsp_eth.o ABSOLUTE
    ..\User\led\bsp_led.c                    0x00000000   Number         0  bsp_led.o ABSOLUTE
    ..\User\main.c                           0x00000000   Number         0  main.o ABSOLUTE
    ..\User\stm32f4xx_it.c                   0x00000000   Number         0  stm32f4xx_it.o ABSOLUTE
    ..\User\tcpecho.c                        0x00000000   Number         0  tcpecho.o ABSOLUTE
    ..\User\usart\bsp_debug_usart.c          0x00000000   Number         0  bsp_debug_usart.o ABSOLUTE
    ..\\FreeRTOS\\port\\MemMang\\heap_4.c    0x00000000   Number         0  heap_4.o ABSOLUTE
    ..\\FreeRTOS\\port\\RVDS\\ARM_CM4F\\port.c 0x00000000   Number         0  port.o ABSOLUTE
    ..\\FreeRTOS\\src\\croutine.c            0x00000000   Number         0  croutine.o ABSOLUTE
    ..\\FreeRTOS\\src\\event_groups.c        0x00000000   Number         0  event_groups.o ABSOLUTE
    ..\\FreeRTOS\\src\\list.c                0x00000000   Number         0  list.o ABSOLUTE
    ..\\FreeRTOS\\src\\queue.c               0x00000000   Number         0  queue.o ABSOLUTE
    ..\\FreeRTOS\\src\\tasks.c               0x00000000   Number         0  tasks.o ABSOLUTE
    ..\\FreeRTOS\\src\\timers.c              0x00000000   Number         0  timers.o ABSOLUTE
    ..\\Libraries\\CMSIS\\Device\\ST\\STM32F4xx\\Source\\Templates\\system_stm32f4xx.c 0x00000000   Number         0  system_stm32f4xx.o ABSOLUTE
    ..\\Libraries\\STM32F4xx_HAL_Driver\\Src\\stm32f4xx_hal.c 0x00000000   Number         0  stm32f4xx_hal.o ABSOLUTE
    ..\\Libraries\\STM32F4xx_HAL_Driver\\Src\\stm32f4xx_hal_cortex.c 0x00000000   Number         0  stm32f4xx_hal_cortex.o ABSOLUTE
    ..\\Libraries\\STM32F4xx_HAL_Driver\\Src\\stm32f4xx_hal_dma.c 0x00000000   Number         0  stm32f4xx_hal_dma.o ABSOLUTE
    ..\\Libraries\\STM32F4xx_HAL_Driver\\Src\\stm32f4xx_hal_eth.c 0x00000000   Number         0  stm32f4xx_hal_eth.o ABSOLUTE
    ..\\Libraries\\STM32F4xx_HAL_Driver\\Src\\stm32f4xx_hal_flash.c 0x00000000   Number         0  stm32f4xx_hal_flash.o ABSOLUTE
    ..\\Libraries\\STM32F4xx_HAL_Driver\\Src\\stm32f4xx_hal_flash_ex.c 0x00000000   Number         0  stm32f4xx_hal_flash_ex.o ABSOLUTE
    ..\\Libraries\\STM32F4xx_HAL_Driver\\Src\\stm32f4xx_hal_flash_ramfunc.c 0x00000000   Number         0  stm32f4xx_hal_flash_ramfunc.o ABSOLUTE
    ..\\Libraries\\STM32F4xx_HAL_Driver\\Src\\stm32f4xx_hal_gpio.c 0x00000000   Number         0  stm32f4xx_hal_gpio.o ABSOLUTE
    ..\\Libraries\\STM32F4xx_HAL_Driver\\Src\\stm32f4xx_hal_pwr.c 0x00000000   Number         0  stm32f4xx_hal_pwr.o ABSOLUTE
    ..\\Libraries\\STM32F4xx_HAL_Driver\\Src\\stm32f4xx_hal_pwr_ex.c 0x00000000   Number         0  stm32f4xx_hal_pwr_ex.o ABSOLUTE
    ..\\Libraries\\STM32F4xx_HAL_Driver\\Src\\stm32f4xx_hal_rcc.c 0x00000000   Number         0  stm32f4xx_hal_rcc.o ABSOLUTE
    ..\\Libraries\\STM32F4xx_HAL_Driver\\Src\\stm32f4xx_hal_rcc_ex.c 0x00000000   Number         0  stm32f4xx_hal_rcc_ex.o ABSOLUTE
    ..\\Libraries\\STM32F4xx_HAL_Driver\\Src\\stm32f4xx_hal_sdram.c 0x00000000   Number         0  stm32f4xx_hal_sdram.o ABSOLUTE
    ..\\Libraries\\STM32F4xx_HAL_Driver\\Src\\stm32f4xx_hal_tim.c 0x00000000   Number         0  stm32f4xx_hal_tim.o ABSOLUTE
    ..\\Libraries\\STM32F4xx_HAL_Driver\\Src\\stm32f4xx_hal_tim_ex.c 0x00000000   Number         0  stm32f4xx_hal_tim_ex.o ABSOLUTE
    ..\\Libraries\\STM32F4xx_HAL_Driver\\Src\\stm32f4xx_hal_uart.c 0x00000000   Number         0  stm32f4xx_hal_uart.o ABSOLUTE
    ..\\Libraries\\STM32F4xx_HAL_Driver\\Src\\stm32f4xx_hal_usart.c 0x00000000   Number         0  stm32f4xx_hal_usart.o ABSOLUTE
    ..\\Libraries\\STM32F4xx_HAL_Driver\\Src\\stm32f4xx_ll_fmc.c 0x00000000   Number         0  stm32f4xx_ll_fmc.o ABSOLUTE
    ..\\Libraries\\STM32F4xx_HAL_Driver\\Src\\stm32f4xx_ll_fsmc.c 0x00000000   Number         0  stm32f4xx_ll_fsmc.o ABSOLUTE
    ..\\Libraries\\STM32F4xx_HAL_Driver\\Src\\stm32f4xx_ll_sdmmc.c 0x00000000   Number         0  stm32f4xx_ll_sdmmc.o ABSOLUTE
    ..\\LwIP\\api\\api_lib.c                 0x00000000   Number         0  api_lib.o ABSOLUTE
    ..\\LwIP\\api\\api_msg.c                 0x00000000   Number         0  api_msg.o ABSOLUTE
    ..\\LwIP\\api\\err.c                     0x00000000   Number         0  err.o ABSOLUTE
    ..\\LwIP\\api\\if_api.c                  0x00000000   Number         0  if_api.o ABSOLUTE
    ..\\LwIP\\api\\netbuf.c                  0x00000000   Number         0  netbuf.o ABSOLUTE
    ..\\LwIP\\api\\netdb.c                   0x00000000   Number         0  netdb.o ABSOLUTE
    ..\\LwIP\\api\\netifapi.c                0x00000000   Number         0  netifapi.o ABSOLUTE
    ..\\LwIP\\api\\sockets.c                 0x00000000   Number         0  sockets.o ABSOLUTE
    ..\\LwIP\\api\\tcpip.c                   0x00000000   Number         0  tcpip.o ABSOLUTE
    ..\\LwIP\\core\\altcp.c                  0x00000000   Number         0  altcp.o ABSOLUTE
    ..\\LwIP\\core\\altcp_alloc.c            0x00000000   Number         0  altcp_alloc.o ABSOLUTE
    ..\\LwIP\\core\\altcp_tcp.c              0x00000000   Number         0  altcp_tcp.o ABSOLUTE
    ..\\LwIP\\core\\def.c                    0x00000000   Number         0  def.o ABSOLUTE
    ..\\LwIP\\core\\dns.c                    0x00000000   Number         0  dns.o ABSOLUTE
    ..\\LwIP\\core\\inet_chksum.c            0x00000000   Number         0  inet_chksum.o ABSOLUTE
    ..\\LwIP\\core\\init.c                   0x00000000   Number         0  init.o ABSOLUTE
    ..\\LwIP\\core\\ip.c                     0x00000000   Number         0  ip.o ABSOLUTE
    ..\\LwIP\\core\\ipv4\\autoip.c           0x00000000   Number         0  autoip.o ABSOLUTE
    ..\\LwIP\\core\\ipv4\\dhcp.c             0x00000000   Number         0  dhcp.o ABSOLUTE
    ..\\LwIP\\core\\ipv4\\etharp.c           0x00000000   Number         0  etharp.o ABSOLUTE
    ..\\LwIP\\core\\ipv4\\icmp.c             0x00000000   Number         0  icmp.o ABSOLUTE
    ..\\LwIP\\core\\ipv4\\igmp.c             0x00000000   Number         0  igmp.o ABSOLUTE
    ..\\LwIP\\core\\ipv4\\ip4.c              0x00000000   Number         0  ip4.o ABSOLUTE
    ..\\LwIP\\core\\ipv4\\ip4_addr.c         0x00000000   Number         0  ip4_addr.o ABSOLUTE
    ..\\LwIP\\core\\ipv4\\ip4_frag.c         0x00000000   Number         0  ip4_frag.o ABSOLUTE
    ..\\LwIP\\core\\mem.c                    0x00000000   Number         0  mem.o ABSOLUTE
    ..\\LwIP\\core\\memp.c                   0x00000000   Number         0  memp.o ABSOLUTE
    ..\\LwIP\\core\\netif.c                  0x00000000   Number         0  netif.o ABSOLUTE
    ..\\LwIP\\core\\pbuf.c                   0x00000000   Number         0  pbuf.o ABSOLUTE
    ..\\LwIP\\core\\raw.c                    0x00000000   Number         0  raw.o ABSOLUTE
    ..\\LwIP\\core\\stats.c                  0x00000000   Number         0  stats.o ABSOLUTE
    ..\\LwIP\\core\\sys.c                    0x00000000   Number         0  sys.o ABSOLUTE
    ..\\LwIP\\core\\tcp.c                    0x00000000   Number         0  tcp.o ABSOLUTE
    ..\\LwIP\\core\\tcp_in.c                 0x00000000   Number         0  tcp_in.o ABSOLUTE
    ..\\LwIP\\core\\tcp_out.c                0x00000000   Number         0  tcp_out.o ABSOLUTE
    ..\\LwIP\\core\\timeouts.c               0x00000000   Number         0  timeouts.o ABSOLUTE
    ..\\LwIP\\core\\udp.c                    0x00000000   Number         0  udp.o ABSOLUTE
    ..\\LwIP\\netif\\bridgeif.c              0x00000000   Number         0  bridgeif.o ABSOLUTE
    ..\\LwIP\\netif\\ethernet.c              0x00000000   Number         0  ethernet.o ABSOLUTE
    ..\\LwIP\\netif\\lowpan6.c               0x00000000   Number         0  lowpan6.o ABSOLUTE
    ..\\LwIP\\netif\\lowpan6_ble.c           0x00000000   Number         0  lowpan6_ble.o ABSOLUTE
    ..\\LwIP\\netif\\lowpan6_common.c        0x00000000   Number         0  lowpan6_common.o ABSOLUTE
    ..\\LwIP\\netif\\zepif.c                 0x00000000   Number         0  zepif.o ABSOLUTE
    ..\\User\\APL\\src\\test.c               0x00000000   Number         0  test.o ABSOLUTE
    ..\\User\\FML\\src\\tcp_client.c         0x00000000   Number         0  tcp_client.o ABSOLUTE
    ..\\User\\FML\\src\\udp_client.c         0x00000000   Number         0  udp_client.o ABSOLUTE
    ..\\User\\arch\\ethernetif.c             0x00000000   Number         0  ethernetif.o ABSOLUTE
    ..\\User\\arch\\sys_arch.c               0x00000000   Number         0  sys_arch.o ABSOLUTE
    ..\\User\\board.c                        0x00000000   Number         0  board.o ABSOLUTE
    ..\\User\\cm_backtrace\\cm_backtrace.c   0x00000000   Number         0  cm_backtrace.o ABSOLUTE
    ..\\User\\eth\\bsp_eth.c                 0x00000000   Number         0  bsp_eth.o ABSOLUTE
    ..\\User\\led\\bsp_led.c                 0x00000000   Number         0  bsp_led.o ABSOLUTE
    ..\\User\\main.c                         0x00000000   Number         0  main.o ABSOLUTE
    ..\\User\\stm32f4xx_it.c                 0x00000000   Number         0  stm32f4xx_it.o ABSOLUTE
    ..\\User\\tcpecho.c                      0x00000000   Number         0  tcpecho.o ABSOLUTE
    ..\\User\\usart\\bsp_debug_usart.c       0x00000000   Number         0  bsp_debug_usart.o ABSOLUTE
    cdrcmple.s                               0x00000000   Number         0  cdrcmple.o ABSOLUTE
    dc.s                                     0x00000000   Number         0  dc.o ABSOLUTE
    handlers.s                               0x00000000   Number         0  handlers.o ABSOLUTE
    init.s                                   0x00000000   Number         0  init.o ABSOLUTE
    RESET                                    0x08000000   Section      428  startup_stm32f429xx.o(RESET)
    .ARM.Collect$$$$00000000                 0x080001ac   Section        0  entry.o(.ARM.Collect$$$$00000000)
    .ARM.Collect$$$$00000001                 0x080001ac   Section        4  entry2.o(.ARM.Collect$$$$00000001)
    .ARM.Collect$$$$00000004                 0x080001b0   Section        4  entry5.o(.ARM.Collect$$$$00000004)
    .ARM.Collect$$$$00000008                 0x080001b4   Section        0  entry7b.o(.ARM.Collect$$$$00000008)
    .ARM.Collect$$$$0000000A                 0x080001b4   Section        0  entry8b.o(.ARM.Collect$$$$0000000A)
    .ARM.Collect$$$$0000000B                 0x080001b4   Section        8  entry9a.o(.ARM.Collect$$$$0000000B)
    .ARM.Collect$$$$0000000E                 0x080001bc   Section        4  entry12b.o(.ARM.Collect$$$$0000000E)
    .ARM.Collect$$$$0000000F                 0x080001c0   Section        0  entry10a.o(.ARM.Collect$$$$0000000F)
    .ARM.Collect$$$$00000011                 0x080001c0   Section        0  entry11a.o(.ARM.Collect$$$$00000011)
    .ARM.Collect$$$$00002712                 0x080001c0   Section        4  entry2.o(.ARM.Collect$$$$00002712)
    __lit__00000000                          0x080001c0   Data           4  entry2.o(.ARM.Collect$$$$00002712)
    .emb_text                                0x080001c4   Section       16  board.o(.emb_text)
    $v0                                      0x080001c4   Number         0  board.o(.emb_text)
    .emb_text                                0x080001d4   Section      182  port.o(.emb_text)
    $v0                                      0x080001d4   Number         0  port.o(.emb_text)
    .text                                    0x0800028c   Section       36  startup_stm32f429xx.o(.text)
    $v0                                      0x0800028c   Number         0  startup_stm32f429xx.o(.text)
    .text                                    0x080002b0   Section       12  cmb_fault.o(.text)
    $v0                                      0x080002b0   Number         0  cmb_fault.o(.text)
    .text                                    0x080002bc   Section        0  uldiv.o(.text)
    .text                                    0x0800031e   Section        0  memmovea.o(.text)
    .text                                    0x0800035e   Section        0  memseta.o(.text)
    .text                                    0x08000382   Section        0  strncpy.o(.text)
    .text                                    0x0800039a   Section        0  memcmp.o(.text)
    .text                                    0x080003b4   Section        0  llshl.o(.text)
    .text                                    0x080003d2   Section        0  llushr.o(.text)
    .text                                    0x080003f4   Section       36  init.o(.text)
    .text                                    0x08000418   Section        0  __dczerorl.o(.text)
    i.AppTaskCreate                          0x08000454   Section        0  main.o(i.AppTaskCreate)
    AppTaskCreate                            0x08000455   Thumb Code    96  main.o(i.AppTaskCreate)
    i.BSP_Init                               0x08000518   Section        0  board.o(i.BSP_Init)
    i.Bsp_Eth_Init                           0x08000584   Section        0  bsp_eth.o(i.Bsp_Eth_Init)
    i.BusFault_Handler                       0x080006c0   Section        0  stm32f4xx_it.o(i.BusFault_Handler)
    i.DEBUG_USART_Config                     0x080006c4   Section        0  bsp_debug_usart.o(i.DEBUG_USART_Config)
    i.DebugMon_Handler                       0x080006ec   Section        0  stm32f4xx_it.o(i.DebugMon_Handler)
    i.ETH_Delay                              0x080006f0   Section        0  stm32f4xx_hal_eth.o(i.ETH_Delay)
    ETH_Delay                                0x080006f1   Thumb Code    28  stm32f4xx_hal_eth.o(i.ETH_Delay)
    i.ETH_FlushTransmitFIFO                  0x08000710   Section        0  stm32f4xx_hal_eth.o(i.ETH_FlushTransmitFIFO)
    ETH_FlushTransmitFIFO                    0x08000711   Thumb Code    46  stm32f4xx_hal_eth.o(i.ETH_FlushTransmitFIFO)
    i.ETH_IRQHandler                         0x08000740   Section        0  bsp_eth.o(i.ETH_IRQHandler)
    i.ETH_MACDMAConfig                       0x08000764   Section        0  stm32f4xx_hal_eth.o(i.ETH_MACDMAConfig)
    ETH_MACDMAConfig                         0x08000765   Thumb Code   276  stm32f4xx_hal_eth.o(i.ETH_MACDMAConfig)
    i.EnableUartIT                           0x08000890   Section        0  bsp_debug_usart.o(i.EnableUartIT)
    i.GPIO_CLK_Init                          0x08000894   Section        0  board.o(i.GPIO_CLK_Init)
    GPIO_CLK_Init                            0x08000895   Thumb Code   102  board.o(i.GPIO_CLK_Init)
    i.HAL_DMA_Abort_IT                       0x08000900   Section        0  stm32f4xx_hal_dma.o(i.HAL_DMA_Abort_IT)
    i.HAL_Delay                              0x08000924   Section        0  stm32f4xx_hal.o(i.HAL_Delay)
    i.HAL_ETH_DMARxDescListInit              0x08000948   Section        0  stm32f4xx_hal_eth.o(i.HAL_ETH_DMARxDescListInit)
    i.HAL_ETH_DMATxDescListInit              0x080009ba   Section        0  stm32f4xx_hal_eth.o(i.HAL_ETH_DMATxDescListInit)
    i.HAL_ETH_DeInit                         0x08000a32   Section        0  stm32f4xx_hal_eth.o(i.HAL_ETH_DeInit)
    i.HAL_ETH_ErrorCallback                  0x08000a4c   Section        0  bsp_eth.o(i.HAL_ETH_ErrorCallback)
    i.HAL_ETH_GetReceivedFrame               0x08000a78   Section        0  stm32f4xx_hal_eth.o(i.HAL_ETH_GetReceivedFrame)
    i.HAL_ETH_IRQHandler                     0x08000af2   Section        0  stm32f4xx_hal_eth.o(i.HAL_ETH_IRQHandler)
    i.HAL_ETH_Init                           0x08000b6c   Section        0  stm32f4xx_hal_eth.o(i.HAL_ETH_Init)
    i.HAL_ETH_MspDeInit                      0x08000dfc   Section        0  bsp_eth.o(i.HAL_ETH_MspDeInit)
    i.HAL_ETH_MspInit                        0x08000e64   Section        0  bsp_eth.o(i.HAL_ETH_MspInit)
    i.HAL_ETH_ReadPHYRegister                0x08000f10   Section        0  stm32f4xx_hal_eth.o(i.HAL_ETH_ReadPHYRegister)
    i.HAL_ETH_RxCpltCallback                 0x08000fe0   Section        0  bsp_eth.o(i.HAL_ETH_RxCpltCallback)
    i.HAL_ETH_Start                          0x08001010   Section        0  stm32f4xx_hal_eth.o(i.HAL_ETH_Start)
    i.HAL_ETH_TransmitFrame                  0x08001094   Section        0  stm32f4xx_hal_eth.o(i.HAL_ETH_TransmitFrame)
    i.HAL_ETH_TxCpltCallback                 0x0800119c   Section        0  bsp_eth.o(i.HAL_ETH_TxCpltCallback)
    i.HAL_ETH_WritePHYRegister               0x080011a0   Section        0  stm32f4xx_hal_eth.o(i.HAL_ETH_WritePHYRegister)
    i.HAL_GPIO_DeInit                        0x08001268   Section        0  stm32f4xx_hal_gpio.o(i.HAL_GPIO_DeInit)
    i.HAL_GPIO_Init                          0x08001430   Section        0  stm32f4xx_hal_gpio.o(i.HAL_GPIO_Init)
    i.HAL_GPIO_WritePin                      0x08001768   Section        0  stm32f4xx_hal_gpio.o(i.HAL_GPIO_WritePin)
    i.HAL_GetTick                            0x080017d4   Section        0  stm32f4xx_hal.o(i.HAL_GetTick)
    i.HAL_IncTick                            0x080017e0   Section        0  stm32f4xx_hal.o(i.HAL_IncTick)
    i.HAL_Init                               0x080017f0   Section        0  stm32f4xx_hal.o(i.HAL_Init)
    i.HAL_InitTick                           0x08001824   Section        0  stm32f4xx_hal.o(i.HAL_InitTick)
    i.HAL_MspInit                            0x08001864   Section        0  stm32f4xx_hal.o(i.HAL_MspInit)
    i.HAL_NVIC_EnableIRQ                     0x08001868   Section        0  stm32f4xx_hal_cortex.o(i.HAL_NVIC_EnableIRQ)
    i.HAL_NVIC_SetPriority                   0x080018cc   Section        0  stm32f4xx_hal_cortex.o(i.HAL_NVIC_SetPriority)
    i.HAL_NVIC_SetPriorityGrouping           0x0800196c   Section        0  stm32f4xx_hal_cortex.o(i.HAL_NVIC_SetPriorityGrouping)
    i.HAL_PWREx_EnableOverDrive              0x080019f0   Section        0  stm32f4xx_hal_pwr_ex.o(i.HAL_PWREx_EnableOverDrive)
    i.HAL_RCC_ClockConfig                    0x08001a60   Section        0  stm32f4xx_hal_rcc.o(i.HAL_RCC_ClockConfig)
    i.HAL_RCC_GetHCLKFreq                    0x08001cc4   Section        0  stm32f4xx_hal_rcc.o(i.HAL_RCC_GetHCLKFreq)
    i.HAL_RCC_GetPCLK1Freq                   0x08001cd0   Section        0  stm32f4xx_hal_rcc.o(i.HAL_RCC_GetPCLK1Freq)
    i.HAL_RCC_GetPCLK2Freq                   0x08001cf0   Section        0  stm32f4xx_hal_rcc.o(i.HAL_RCC_GetPCLK2Freq)
    i.HAL_RCC_GetSysClockFreq                0x08001d10   Section        0  stm32f4xx_hal_rcc.o(i.HAL_RCC_GetSysClockFreq)
    i.HAL_RCC_OscConfig                      0x08001d74   Section        0  stm32f4xx_hal_rcc.o(i.HAL_RCC_OscConfig)
    i.HAL_SYSTICK_CLKSourceConfig            0x080021b8   Section        0  stm32f4xx_hal_cortex.o(i.HAL_SYSTICK_CLKSourceConfig)
    i.HAL_SYSTICK_Config                     0x08002220   Section        0  stm32f4xx_hal_cortex.o(i.HAL_SYSTICK_Config)
    i.HAL_UART_ErrorCallback                 0x08002248   Section        0  stm32f4xx_hal_uart.o(i.HAL_UART_ErrorCallback)
    i.HAL_UART_IRQHandler                    0x0800224c   Section        0  stm32f4xx_hal_uart.o(i.HAL_UART_IRQHandler)
    i.HAL_UART_Init                          0x0800235c   Section        0  stm32f4xx_hal_uart.o(i.HAL_UART_Init)
    i.HAL_UART_MspInit                       0x080024b8   Section        0  bsp_debug_usart.o(i.HAL_UART_MspInit)
    i.HAL_UART_RxCpltCallback                0x0800253c   Section        0  stm32f4xx_hal_uart.o(i.HAL_UART_RxCpltCallback)
    i.HAL_UART_Transmit                      0x0800253e   Section        0  stm32f4xx_hal_uart.o(i.HAL_UART_Transmit)
    i.HAL_UART_TxCpltCallback                0x080025f8   Section        0  stm32f4xx_hal_uart.o(i.HAL_UART_TxCpltCallback)
    i.LED_GPIO_Config                        0x080025fc   Section        0  bsp_led.o(i.LED_GPIO_Config)
    i.LWIP_Init                              0x080026a4   Section        0  sys_arch.o(i.LWIP_Init)
    i.MemManage_Handler                      0x08002794   Section        0  stm32f4xx_it.o(i.MemManage_Handler)
    i.NMI_Handler                            0x08002796   Section        0  stm32f4xx_it.o(i.NMI_Handler)
    i.NVIC_SetPriority                       0x08002798   Section        0  stm32f4xx_hal_cortex.o(i.NVIC_SetPriority)
    NVIC_SetPriority                         0x08002799   Thumb Code    32  stm32f4xx_hal_cortex.o(i.NVIC_SetPriority)
    i.SysTick_Handler                        0x080027b8   Section        0  stm32f4xx_it.o(i.SysTick_Handler)
    i.SystemClock_Config                     0x080027e4   Section        0  board.o(i.SystemClock_Config)
    SystemClock_Config                       0x080027e5   Thumb Code   156  board.o(i.SystemClock_Config)
    i.SystemInit                             0x08002888   Section        0  system_stm32f4xx.o(i.SystemInit)
    i.Test1_Task                             0x080028dc   Section        0  main.o(i.Test1_Task)
    Test1_Task                               0x080028dd   Thumb Code    22  main.o(i.Test1_Task)
    i.Test2_Task                             0x080028f8   Section        0  main.o(i.Test2_Task)
    Test2_Task                               0x080028f9   Thumb Code    22  main.o(i.Test2_Task)
    i.UART_DMAAbortOnError                   0x08002914   Section        0  stm32f4xx_hal_uart.o(i.UART_DMAAbortOnError)
    UART_DMAAbortOnError                     0x08002915   Thumb Code    16  stm32f4xx_hal_uart.o(i.UART_DMAAbortOnError)
    i.UART_EndRxTransfer                     0x08002924   Section        0  stm32f4xx_hal_uart.o(i.UART_EndRxTransfer)
    UART_EndRxTransfer                       0x08002925   Thumb Code    28  stm32f4xx_hal_uart.o(i.UART_EndRxTransfer)
    i.UART_Receive_IT                        0x08002940   Section        0  stm32f4xx_hal_uart.o(i.UART_Receive_IT)
    UART_Receive_IT                          0x08002941   Thumb Code   140  stm32f4xx_hal_uart.o(i.UART_Receive_IT)
    i.UART_SetConfig                         0x080029cc   Section        0  stm32f4xx_hal_uart.o(i.UART_SetConfig)
    UART_SetConfig                           0x080029cd   Thumb Code   762  stm32f4xx_hal_uart.o(i.UART_SetConfig)
    i.UART_Transmit_IT                       0x08002d10   Section        0  stm32f4xx_hal_uart.o(i.UART_Transmit_IT)
    UART_Transmit_IT                         0x08002d11   Thumb Code    98  stm32f4xx_hal_uart.o(i.UART_Transmit_IT)
    i.UART_WaitOnFlagUntilTimeout            0x08002d72   Section        0  stm32f4xx_hal_uart.o(i.UART_WaitOnFlagUntilTimeout)
    UART_WaitOnFlagUntilTimeout              0x08002d73   Thumb Code    98  stm32f4xx_hal_uart.o(i.UART_WaitOnFlagUntilTimeout)
    i.USART1_IRQHandler                      0x08002dd4   Section        0  bsp_debug_usart.o(i.USART1_IRQHandler)
    i.UsageFault_Handler                     0x08002de0   Section        0  stm32f4xx_it.o(i.UsageFault_Handler)
    i.__0printf$8                            0x08002de4   Section        0  printf8.o(i.__0printf$8)
    i.__0sprintf$8                           0x08002e04   Section        0  printf8.o(i.__0sprintf$8)
    i.__scatterload_copy                     0x08002e2c   Section       14  handlers.o(i.__scatterload_copy)
    i.__scatterload_null                     0x08002e3a   Section        2  handlers.o(i.__scatterload_null)
    i.__scatterload_zeroinit                 0x08002e3c   Section       14  handlers.o(i.__scatterload_zeroinit)
    i._printf_core                           0x08002e4c   Section        0  printf8.o(i._printf_core)
    _printf_core                             0x08002e4d   Thumb Code   984  printf8.o(i._printf_core)
    i._printf_post_padding                   0x08003250   Section        0  printf8.o(i._printf_post_padding)
    _printf_post_padding                     0x08003251   Thumb Code    36  printf8.o(i._printf_post_padding)
    i._printf_pre_padding                    0x08003274   Section        0  printf8.o(i._printf_pre_padding)
    _printf_pre_padding                      0x08003275   Thumb Code    46  printf8.o(i._printf_pre_padding)
    i._sputc                                 0x080032a2   Section        0  printf8.o(i._sputc)
    _sputc                                   0x080032a3   Thumb Code    10  printf8.o(i._sputc)
    i.assert_failed                          0x080032ac   Section        0  board.o(i.assert_failed)
    i.cm_backtrace_assert                    0x080032e0   Section        0  cm_backtrace.o(i.cm_backtrace_assert)
    i.cm_backtrace_call_stack                0x08003358   Section        0  cm_backtrace.o(i.cm_backtrace_call_stack)
    i.cm_backtrace_fault                     0x080033f8   Section        0  cm_backtrace.o(i.cm_backtrace_fault)
    i.cm_backtrace_firmware_info             0x08003634   Section        0  cm_backtrace.o(i.cm_backtrace_firmware_info)
    i.cm_backtrace_init                      0x08003660   Section        0  cm_backtrace.o(i.cm_backtrace_init)
    i.dhcp_arp_reply                         0x080036bc   Section        0  dhcp.o(i.dhcp_arp_reply)
    i.dhcp_bind                              0x080036f0   Section        0  dhcp.o(i.dhcp_bind)
    dhcp_bind                                0x080036f1   Thumb Code   232  dhcp.o(i.dhcp_bind)
    i.dhcp_check                             0x0800380c   Section        0  dhcp.o(i.dhcp_check)
    dhcp_check                               0x0800380d   Thumb Code    52  dhcp.o(i.dhcp_check)
    i.dhcp_coarse_tmr                        0x08003840   Section        0  dhcp.o(i.dhcp_coarse_tmr)
    i.dhcp_create_msg                        0x080038ec   Section        0  dhcp.o(i.dhcp_create_msg)
    dhcp_create_msg                          0x080038ed   Thumb Code   226  dhcp.o(i.dhcp_create_msg)
    i.dhcp_dec_pcb_refcount                  0x08003a58   Section        0  dhcp.o(i.dhcp_dec_pcb_refcount)
    dhcp_dec_pcb_refcount                    0x08003a59   Thumb Code    38  dhcp.o(i.dhcp_dec_pcb_refcount)
    i.dhcp_decline                           0x08003aa8   Section        0  dhcp.o(i.dhcp_decline)
    dhcp_decline                             0x08003aa9   Thumb Code   144  dhcp.o(i.dhcp_decline)
    i.dhcp_discover                          0x08003b44   Section        0  dhcp.o(i.dhcp_discover)
    dhcp_discover                            0x08003b45   Thumb Code   220  dhcp.o(i.dhcp_discover)
    i.dhcp_fine_tmr                          0x08003c2c   Section        0  dhcp.o(i.dhcp_fine_tmr)
    i.dhcp_handle_ack                        0x08003c60   Section        0  dhcp.o(i.dhcp_handle_ack)
    dhcp_handle_ack                          0x08003c61   Thumb Code    94  dhcp.o(i.dhcp_handle_ack)
    i.dhcp_inc_pcb_refcount                  0x08003cc8   Section        0  dhcp.o(i.dhcp_inc_pcb_refcount)
    dhcp_inc_pcb_refcount                    0x08003cc9   Thumb Code    78  dhcp.o(i.dhcp_inc_pcb_refcount)
    i.dhcp_option                            0x08003d4c   Section        0  dhcp.o(i.dhcp_option)
    dhcp_option                              0x08003d4d   Thumb Code    42  dhcp.o(i.dhcp_option)
    i.dhcp_option_byte                       0x08003d7c   Section        0  dhcp.o(i.dhcp_option_byte)
    dhcp_option_byte                         0x08003d7d   Thumb Code    26  dhcp.o(i.dhcp_option_byte)
    i.dhcp_option_long                       0x08003dd0   Section        0  dhcp.o(i.dhcp_option_long)
    dhcp_option_long                         0x08003dd1   Thumb Code    52  dhcp.o(i.dhcp_option_long)
    i.dhcp_option_short                      0x08003e40   Section        0  dhcp.o(i.dhcp_option_short)
    dhcp_option_short                        0x08003e41   Thumb Code    36  dhcp.o(i.dhcp_option_short)
    i.dhcp_option_trailer                    0x08003ea0   Section        0  dhcp.o(i.dhcp_option_trailer)
    dhcp_option_trailer                      0x08003ea1   Thumb Code    36  dhcp.o(i.dhcp_option_trailer)
    i.dhcp_parse_reply                       0x08003ec4   Section        0  dhcp.o(i.dhcp_parse_reply)
    dhcp_parse_reply                         0x08003ec5   Thumb Code   568  dhcp.o(i.dhcp_parse_reply)
    i.dhcp_rebind                            0x0800419c   Section        0  dhcp.o(i.dhcp_rebind)
    dhcp_rebind                              0x0800419d   Thumb Code   208  dhcp.o(i.dhcp_rebind)
    i.dhcp_reboot                            0x08004274   Section        0  dhcp.o(i.dhcp_reboot)
    dhcp_reboot                              0x08004275   Thumb Code   246  dhcp.o(i.dhcp_reboot)
    i.dhcp_recv                              0x08004374   Section        0  dhcp.o(i.dhcp_recv)
    dhcp_recv                                0x08004375   Thumb Code   272  dhcp.o(i.dhcp_recv)
    i.dhcp_release_and_stop                  0x08004494   Section        0  dhcp.o(i.dhcp_release_and_stop)
    i.dhcp_renew                             0x08004550   Section        0  dhcp.o(i.dhcp_renew)
    i.dhcp_select                            0x08004628   Section        0  dhcp.o(i.dhcp_select)
    dhcp_select                              0x08004629   Thumb Code   328  dhcp.o(i.dhcp_select)
    i.dhcp_set_state                         0x080047b4   Section        0  dhcp.o(i.dhcp_set_state)
    dhcp_set_state                           0x080047b5   Thumb Code    16  dhcp.o(i.dhcp_set_state)
    i.dhcp_start                             0x080047c4   Section        0  dhcp.o(i.dhcp_start)
    i.dhcp_supplied_address                  0x0800487c   Section        0  dhcp.o(i.dhcp_supplied_address)
    i.dhcp_timeout                           0x08004898   Section        0  dhcp.o(i.dhcp_timeout)
    dhcp_timeout                             0x08004899   Thumb Code   108  dhcp.o(i.dhcp_timeout)
    i.do_memp_free_pool                      0x08004904   Section        0  memp.o(i.do_memp_free_pool)
    do_memp_free_pool                        0x08004905   Thumb Code    38  memp.o(i.do_memp_free_pool)
    i.do_memp_malloc_pool                    0x0800494c   Section        0  memp.o(i.do_memp_malloc_pool)
    do_memp_malloc_pool                      0x0800494d   Thumb Code    50  memp.o(i.do_memp_malloc_pool)
    i.dump_stack                             0x080049a4   Section        0  cm_backtrace.o(i.dump_stack)
    dump_stack                               0x080049a5   Thumb Code   106  cm_backtrace.o(i.dump_stack)
    i.err_tcp                                0x08004a60   Section        0  api_msg.o(i.err_tcp)
    err_tcp                                  0x08004a61   Thumb Code   230  api_msg.o(i.err_tcp)
    i.etharp_cleanup_netif                   0x08004bac   Section        0  etharp.o(i.etharp_cleanup_netif)
    i.etharp_find_entry                      0x08004bd8   Section        0  etharp.o(i.etharp_find_entry)
    etharp_find_entry                        0x08004bd9   Thumb Code   310  etharp.o(i.etharp_find_entry)
    i.etharp_free_entry                      0x08004dac   Section        0  etharp.o(i.etharp_free_entry)
    etharp_free_entry                        0x08004dad   Thumb Code    32  etharp.o(i.etharp_free_entry)
    i.etharp_input                           0x08004dd0   Section        0  etharp.o(i.etharp_input)
    i.etharp_output                          0x08004e84   Section        0  etharp.o(i.etharp_output)
    i.etharp_output_to_arp_index             0x08004fbc   Section        0  etharp.o(i.etharp_output_to_arp_index)
    etharp_output_to_arp_index               0x08004fbd   Thumb Code   114  etharp.o(i.etharp_output_to_arp_index)
    i.etharp_query                           0x08005064   Section        0  etharp.o(i.etharp_query)
    i.etharp_raw                             0x080051d4   Section        0  etharp.o(i.etharp_raw)
    etharp_raw                               0x080051d5   Thumb Code   178  etharp.o(i.etharp_raw)
    i.etharp_request                         0x080052d0   Section        0  etharp.o(i.etharp_request)
    i.etharp_request_dst                     0x080052dc   Section        0  etharp.o(i.etharp_request_dst)
    etharp_request_dst                       0x080052dd   Thumb Code    28  etharp.o(i.etharp_request_dst)
    i.etharp_tmr                             0x080052fc   Section        0  etharp.o(i.etharp_tmr)
    i.etharp_update_arp_entry                0x08005358   Section        0  etharp.o(i.etharp_update_arp_entry)
    etharp_update_arp_entry                  0x08005359   Thumb Code   140  etharp.o(i.etharp_update_arp_entry)
    i.ethernet_input                         0x0800540c   Section        0  ethernet.o(i.ethernet_input)
    i.ethernet_output                        0x080054b0   Section        0  ethernet.o(i.ethernet_output)
    i.ethernetif_init                        0x08005540   Section        0  ethernetif.o(i.ethernetif_init)
    i.ethernetif_input                       0x080055d4   Section        0  ethernetif.o(i.ethernetif_input)
    i.fault_diagnosis                        0x08005618   Section        0  cm_backtrace.o(i.fault_diagnosis)
    fault_diagnosis                          0x08005619   Thumb Code   562  cm_backtrace.o(i.fault_diagnosis)
    i.fputc                                  0x08005858   Section        0  bsp_debug_usart.o(i.fputc)
    i.icmp_dest_unreach                      0x08005870   Section        0  icmp.o(i.icmp_dest_unreach)
    i.icmp_input                             0x08005878   Section        0  icmp.o(i.icmp_input)
    i.icmp_send_response                     0x080059f8   Section        0  icmp.o(i.icmp_send_response)
    icmp_send_response                       0x080059f9   Thumb Code   122  icmp.o(i.icmp_send_response)
    i.icmp_time_exceeded                     0x08005aa0   Section        0  icmp.o(i.icmp_time_exceeded)
    i.inet_chksum_pbuf                       0x08005aa8   Section        0  inet_chksum.o(i.inet_chksum_pbuf)
    i.ip4_addr_isbroadcast_u32               0x08005af2   Section        0  ip4_addr.o(i.ip4_addr_isbroadcast_u32)
    i.ip4_frag                               0x08005b20   Section        0  ip4_frag.o(i.ip4_frag)
    i.ip4_input                              0x08005d08   Section        0  ip4.o(i.ip4_input)
    i.ip4_input_accept                       0x08005ea4   Section        0  ip4.o(i.ip4_input_accept)
    ip4_input_accept                         0x08005ea5   Thumb Code    40  ip4.o(i.ip4_input_accept)
    i.ip4_output_if                          0x08005ed0   Section        0  ip4.o(i.ip4_output_if)
    i.ip4_output_if_src                      0x08005ef0   Section        0  ip4.o(i.ip4_output_if_src)
    i.ip4_reass                              0x08005ffc   Section        0  ip4_frag.o(i.ip4_reass)
    i.ip4_route                              0x08006224   Section        0  ip4.o(i.ip4_route)
    i.ip_frag_free_pbuf_custom_ref           0x08006284   Section        0  ip4_frag.o(i.ip_frag_free_pbuf_custom_ref)
    ip_frag_free_pbuf_custom_ref             0x08006285   Thumb Code    24  ip4_frag.o(i.ip_frag_free_pbuf_custom_ref)
    i.ip_reass_chain_frag_into_datagram_and_validate 0x080062a8   Section        0  ip4_frag.o(i.ip_reass_chain_frag_into_datagram_and_validate)
    ip_reass_chain_frag_into_datagram_and_validate 0x080062a9   Thumb Code   294  ip4_frag.o(i.ip_reass_chain_frag_into_datagram_and_validate)
    i.ip_reass_dequeue_datagram              0x0800645c   Section        0  ip4_frag.o(i.ip_reass_dequeue_datagram)
    ip_reass_dequeue_datagram                0x0800645d   Thumb Code    44  ip4_frag.o(i.ip_reass_dequeue_datagram)
    i.ip_reass_free_complete_datagram        0x080064a8   Section        0  ip4_frag.o(i.ip_reass_free_complete_datagram)
    ip_reass_free_complete_datagram          0x080064a9   Thumb Code   170  ip4_frag.o(i.ip_reass_free_complete_datagram)
    i.ip_reass_remove_oldest_datagram        0x080065bc   Section        0  ip4_frag.o(i.ip_reass_remove_oldest_datagram)
    ip_reass_remove_oldest_datagram          0x080065bd   Thumb Code   128  ip4_frag.o(i.ip_reass_remove_oldest_datagram)
    i.ip_reass_tmr                           0x08006640   Section        0  ip4_frag.o(i.ip_reass_tmr)
    i.ipfrag_free_pbuf_custom                0x0800666c   Section        0  ip4_frag.o(i.ipfrag_free_pbuf_custom)
    ipfrag_free_pbuf_custom                  0x0800666d   Thumb Code    30  ip4_frag.o(i.ipfrag_free_pbuf_custom)
    i.low_level_init                         0x08006698   Section        0  ethernetif.o(i.low_level_init)
    low_level_init                           0x08006699   Thumb Code   250  ethernetif.o(i.low_level_init)
    i.low_level_input                        0x080067e0   Section        0  ethernetif.o(i.low_level_input)
    low_level_input                          0x080067e1   Thumb Code   184  ethernetif.o(i.low_level_input)
    i.low_level_output                       0x0800689c   Section        0  ethernetif.o(i.low_level_output)
    low_level_output                         0x0800689d   Thumb Code   202  ethernetif.o(i.low_level_output)
    i.lwip_cyclic_timer                      0x08006970   Section        0  timeouts.o(i.lwip_cyclic_timer)
    lwip_cyclic_timer                        0x08006971   Thumb Code    50  timeouts.o(i.lwip_cyclic_timer)
    i.lwip_htonl                             0x080069ac   Section        0  def.o(i.lwip_htonl)
    i.lwip_htons                             0x080069b0   Section        0  def.o(i.lwip_htons)
    i.lwip_init                              0x080069b4   Section        0  init.o(i.lwip_init)
    i.lwip_netconn_do_close_internal         0x080069d8   Section        0  api_msg.o(i.lwip_netconn_do_close_internal)
    lwip_netconn_do_close_internal           0x080069d9   Thumb Code   388  api_msg.o(i.lwip_netconn_do_close_internal)
    i.lwip_netconn_do_connect                0x08006c10   Section        0  api_msg.o(i.lwip_netconn_do_connect)
    i.lwip_netconn_do_connected              0x08006cfc   Section        0  api_msg.o(i.lwip_netconn_do_connected)
    lwip_netconn_do_connected                0x08006cfd   Thumb Code   138  api_msg.o(i.lwip_netconn_do_connected)
    i.lwip_netconn_do_delconn                0x08006e08   Section        0  api_msg.o(i.lwip_netconn_do_delconn)
    i.lwip_netconn_do_newconn                0x08006f20   Section        0  api_msg.o(i.lwip_netconn_do_newconn)
    i.lwip_netconn_do_send                   0x08006f32   Section        0  api_msg.o(i.lwip_netconn_do_send)
    i.lwip_netconn_do_writemore              0x08006f74   Section        0  api_msg.o(i.lwip_netconn_do_writemore)
    lwip_netconn_do_writemore                0x08006f75   Thumb Code   502  api_msg.o(i.lwip_netconn_do_writemore)
    i.lwip_netconn_err_to_msg                0x08007264   Section        0  api_msg.o(i.lwip_netconn_err_to_msg)
    lwip_netconn_err_to_msg                  0x08007265   Thumb Code    48  api_msg.o(i.lwip_netconn_err_to_msg)
    i.lwip_netconn_is_err_msg                0x080072a8   Section        0  api_msg.o(i.lwip_netconn_is_err_msg)
    i.lwip_standard_chksum                   0x080072f0   Section        0  inet_chksum.o(i.lwip_standard_chksum)
    i.main                                   0x08007348   Section        0  main.o(i.main)
    i.mem_free                               0x0800738c   Section        0  mem.o(i.mem_free)
    i.mem_init                               0x080074e4   Section        0  mem.o(i.mem_init)
    i.mem_malloc                             0x0800754c   Section        0  mem.o(i.mem_malloc)
    i.mem_to_ptr                             0x0800771c   Section        0  mem.o(i.mem_to_ptr)
    mem_to_ptr                               0x0800771d   Thumb Code    10  mem.o(i.mem_to_ptr)
    i.mem_trim                               0x0800772c   Section        0  mem.o(i.mem_trim)
    i.memp_free                              0x08007898   Section        0  memp.o(i.memp_free)
    i.memp_init                              0x080078d4   Section        0  memp.o(i.memp_init)
    i.memp_init_pool                         0x080078f0   Section        0  memp.o(i.memp_init_pool)
    i.memp_malloc                            0x0800791c   Section        0  memp.o(i.memp_malloc)
    i.netbuf_delete                          0x08007960   Section        0  netbuf.o(i.netbuf_delete)
    i.netbuf_new                             0x08007982   Section        0  netbuf.o(i.netbuf_new)
    i.netbuf_ref                             0x0800799c   Section        0  netbuf.o(i.netbuf_ref)
    i.netconn_alloc                          0x080079fc   Section        0  api_msg.o(i.netconn_alloc)
    i.netconn_apimsg                         0x08007a9c   Section        0  api_lib.o(i.netconn_apimsg)
    netconn_apimsg                           0x08007a9d   Thumb Code    22  api_lib.o(i.netconn_apimsg)
    i.netconn_connect                        0x08007ab4   Section        0  api_lib.o(i.netconn_connect)
    i.netconn_delete                         0x08007b08   Section        0  api_lib.o(i.netconn_delete)
    i.netconn_drain                          0x08007b26   Section        0  api_msg.o(i.netconn_drain)
    netconn_drain                            0x08007b27   Thumb Code   156  api_msg.o(i.netconn_drain)
    i.netconn_err                            0x08007bc2   Section        0  api_lib.o(i.netconn_err)
    i.netconn_free                           0x08007be0   Section        0  api_msg.o(i.netconn_free)
    i.netconn_new_with_proto_and_callback    0x08007cd4   Section        0  api_lib.o(i.netconn_new_with_proto_and_callback)
    i.netconn_prepare_delete                 0x08007dd4   Section        0  api_lib.o(i.netconn_prepare_delete)
    i.netconn_send                           0x08007df4   Section        0  api_lib.o(i.netconn_send)
    i.netif_add                              0x08007e38   Section        0  netif.o(i.netif_add)
    i.netif_do_ip_addr_changed               0x08007f90   Section        0  netif.o(i.netif_do_ip_addr_changed)
    netif_do_ip_addr_changed                 0x08007f91   Thumb Code    22  netif.o(i.netif_do_ip_addr_changed)
    i.netif_do_set_gw                        0x08007fa6   Section        0  netif.o(i.netif_do_set_gw)
    netif_do_set_gw                          0x08007fa7   Thumb Code    22  netif.o(i.netif_do_set_gw)
    i.netif_do_set_ipaddr                    0x08007fbc   Section        0  netif.o(i.netif_do_set_ipaddr)
    netif_do_set_ipaddr                      0x08007fbd   Thumb Code    72  netif.o(i.netif_do_set_ipaddr)
    i.netif_do_set_netmask                   0x08008014   Section        0  netif.o(i.netif_do_set_netmask)
    netif_do_set_netmask                     0x08008015   Thumb Code    22  netif.o(i.netif_do_set_netmask)
    i.netif_get_by_index                     0x0800802c   Section        0  netif.o(i.netif_get_by_index)
    i.netif_init                             0x08008050   Section        0  netif.o(i.netif_init)
    i.netif_issue_reports                    0x08008054   Section        0  netif.o(i.netif_issue_reports)
    netif_issue_reports                      0x08008055   Thumb Code    54  netif.o(i.netif_issue_reports)
    i.netif_null_output_ip4                  0x080080b0   Section        0  netif.o(i.netif_null_output_ip4)
    netif_null_output_ip4                    0x080080b1   Thumb Code     6  netif.o(i.netif_null_output_ip4)
    i.netif_set_addr                         0x080080b8   Section        0  netif.o(i.netif_set_addr)
    i.netif_set_default                      0x08008118   Section        0  netif.o(i.netif_set_default)
    i.netif_set_down                         0x08008124   Section        0  netif.o(i.netif_set_down)
    i.netif_set_up                           0x08008168   Section        0  netif.o(i.netif_set_up)
    i.pbuf_add_header                        0x080081a4   Section        0  pbuf.o(i.pbuf_add_header)
    i.pbuf_add_header_impl                   0x080081ac   Section        0  pbuf.o(i.pbuf_add_header_impl)
    pbuf_add_header_impl                     0x080081ad   Thumb Code    82  pbuf.o(i.pbuf_add_header_impl)
    i.pbuf_alloc                             0x0800820c   Section        0  pbuf.o(i.pbuf_alloc)
    i.pbuf_alloc_reference                   0x080083c4   Section        0  pbuf.o(i.pbuf_alloc_reference)
    i.pbuf_alloced_custom                    0x08008414   Section        0  pbuf.o(i.pbuf_alloced_custom)
    i.pbuf_cat                               0x0800844c   Section        0  pbuf.o(i.pbuf_cat)
    i.pbuf_chain                             0x0800850c   Section        0  pbuf.o(i.pbuf_chain)
    i.pbuf_clen                              0x0800851e   Section        0  pbuf.o(i.pbuf_clen)
    i.pbuf_clone                             0x08008530   Section        0  pbuf.o(i.pbuf_clone)
    i.pbuf_copy                              0x0800856c   Section        0  pbuf.o(i.pbuf_copy)
    i.pbuf_copy_partial                      0x080086c4   Section        0  pbuf.o(i.pbuf_copy_partial)
    i.pbuf_free                              0x08008778   Section        0  pbuf.o(i.pbuf_free)
    i.pbuf_header_force                      0x08008860   Section        0  pbuf.o(i.pbuf_header_force)
    i.pbuf_header_impl                       0x08008866   Section        0  pbuf.o(i.pbuf_header_impl)
    pbuf_header_impl                         0x08008867   Thumb Code    14  pbuf.o(i.pbuf_header_impl)
    i.pbuf_init_alloced_pbuf                 0x08008874   Section        0  pbuf.o(i.pbuf_init_alloced_pbuf)
    pbuf_init_alloced_pbuf                   0x08008875   Thumb Code    28  pbuf.o(i.pbuf_init_alloced_pbuf)
    i.pbuf_realloc                           0x08008890   Section        0  pbuf.o(i.pbuf_realloc)
    i.pbuf_ref                               0x0800894c   Section        0  pbuf.o(i.pbuf_ref)
    i.pbuf_remove_header                     0x08008988   Section        0  pbuf.o(i.pbuf_remove_header)
    i.pcb_new                                0x080089f0   Section        0  api_msg.o(i.pcb_new)
    pcb_new                                  0x080089f1   Thumb Code   108  api_msg.o(i.pcb_new)
    i.plug_holes                             0x08008a80   Section        0  mem.o(i.plug_holes)
    plug_holes                               0x08008a81   Thumb Code   166  mem.o(i.plug_holes)
    i.poll_tcp                               0x08008ba8   Section        0  api_msg.o(i.poll_tcp)
    poll_tcp                                 0x08008ba9   Thumb Code   106  api_msg.o(i.poll_tcp)
    i.print_call_stack                       0x08008c24   Section        0  cm_backtrace.o(i.print_call_stack)
    print_call_stack                         0x08008c25   Thumb Code   112  cm_backtrace.o(i.print_call_stack)
    i.prvAddCurrentTaskToDelayedList         0x08008cb0   Section        0  tasks.o(i.prvAddCurrentTaskToDelayedList)
    prvAddCurrentTaskToDelayedList           0x08008cb1   Thumb Code   102  tasks.o(i.prvAddCurrentTaskToDelayedList)
    i.prvAddNewTaskToReadyList               0x08008d20   Section        0  tasks.o(i.prvAddNewTaskToReadyList)
    prvAddNewTaskToReadyList                 0x08008d21   Thumb Code   190  tasks.o(i.prvAddNewTaskToReadyList)
    i.prvCheckForValidListAndQueue           0x08008df0   Section        0  timers.o(i.prvCheckForValidListAndQueue)
    prvCheckForValidListAndQueue             0x08008df1   Thumb Code    62  timers.o(i.prvCheckForValidListAndQueue)
    i.prvCheckTasksWaitingTermination        0x08008e40   Section        0  tasks.o(i.prvCheckTasksWaitingTermination)
    prvCheckTasksWaitingTermination          0x08008e41   Thumb Code    74  tasks.o(i.prvCheckTasksWaitingTermination)
    i.prvCopyDataFromQueue                   0x08008e94   Section        0  queue.o(i.prvCopyDataFromQueue)
    prvCopyDataFromQueue                     0x08008e95   Thumb Code    38  queue.o(i.prvCopyDataFromQueue)
    i.prvCopyDataToQueue                     0x08008eba   Section        0  queue.o(i.prvCopyDataToQueue)
    prvCopyDataToQueue                       0x08008ebb   Thumb Code   108  queue.o(i.prvCopyDataToQueue)
    i.prvDeleteTCB                           0x08008f26   Section        0  tasks.o(i.prvDeleteTCB)
    prvDeleteTCB                             0x08008f27   Thumb Code    20  tasks.o(i.prvDeleteTCB)
    i.prvHeapInit                            0x08008f3c   Section        0  heap_4.o(i.prvHeapInit)
    prvHeapInit                              0x08008f3d   Thumb Code    66  heap_4.o(i.prvHeapInit)
    i.prvIdleTask                            0x08008f88   Section        0  tasks.o(i.prvIdleTask)
    prvIdleTask                              0x08008f89   Thumb Code    30  tasks.o(i.prvIdleTask)
    i.prvInitialiseNewTask                   0x08008fb0   Section        0  tasks.o(i.prvInitialiseNewTask)
    prvInitialiseNewTask                     0x08008fb1   Thumb Code   142  tasks.o(i.prvInitialiseNewTask)
    i.prvInsertBlockIntoFreeList             0x08009068   Section        0  heap_4.o(i.prvInsertBlockIntoFreeList)
    prvInsertBlockIntoFreeList               0x08009069   Thumb Code    72  heap_4.o(i.prvInsertBlockIntoFreeList)
    i.prvInsertTimerInActiveList             0x080090b4   Section        0  timers.o(i.prvInsertTimerInActiveList)
    prvInsertTimerInActiveList               0x080090b5   Thumb Code    52  timers.o(i.prvInsertTimerInActiveList)
    i.prvIsQueueEmpty                        0x080090ec   Section        0  queue.o(i.prvIsQueueEmpty)
    prvIsQueueEmpty                          0x080090ed   Thumb Code    26  queue.o(i.prvIsQueueEmpty)
    i.prvNotifyQueueSetContainer             0x08009108   Section        0  queue.o(i.prvNotifyQueueSetContainer)
    prvNotifyQueueSetContainer               0x08009109   Thumb Code   108  queue.o(i.prvNotifyQueueSetContainer)
    i.prvProcessExpiredTimer                 0x0800919c   Section        0  timers.o(i.prvProcessExpiredTimer)
    prvProcessExpiredTimer                   0x0800919d   Thumb Code    86  timers.o(i.prvProcessExpiredTimer)
    i.prvProcessReceivedCommands             0x080091fc   Section        0  timers.o(i.prvProcessReceivedCommands)
    prvProcessReceivedCommands               0x080091fd   Thumb Code   182  timers.o(i.prvProcessReceivedCommands)
    i.prvProcessTimerOrBlockTask             0x080092e4   Section        0  timers.o(i.prvProcessTimerOrBlockTask)
    prvProcessTimerOrBlockTask               0x080092e5   Thumb Code    98  timers.o(i.prvProcessTimerOrBlockTask)
    i.prvResetNextTaskUnblockTime            0x08009350   Section        0  tasks.o(i.prvResetNextTaskUnblockTime)
    prvResetNextTaskUnblockTime              0x08009351   Thumb Code    26  tasks.o(i.prvResetNextTaskUnblockTime)
    i.prvSampleTimeNow                       0x08009370   Section        0  timers.o(i.prvSampleTimeNow)
    prvSampleTimeNow                         0x08009371   Thumb Code    36  timers.o(i.prvSampleTimeNow)
    i.prvSwitchTimerLists                    0x08009398   Section        0  timers.o(i.prvSwitchTimerLists)
    prvSwitchTimerLists                      0x08009399   Thumb Code   100  timers.o(i.prvSwitchTimerLists)
    i.prvTaskExitError                       0x08009404   Section        0  port.o(i.prvTaskExitError)
    prvTaskExitError                         0x08009405   Thumb Code    36  port.o(i.prvTaskExitError)
    i.prvTaskIsTaskSuspended                 0x08009464   Section        0  tasks.o(i.prvTaskIsTaskSuspended)
    prvTaskIsTaskSuspended                   0x08009465   Thumb Code    44  tasks.o(i.prvTaskIsTaskSuspended)
    i.prvTimerTask                           0x080094bc   Section        0  timers.o(i.prvTimerTask)
    prvTimerTask                             0x080094bd   Thumb Code    34  timers.o(i.prvTimerTask)
    i.prvUnlockQueue                         0x080094e4   Section        0  queue.o(i.prvUnlockQueue)
    prvUnlockQueue                           0x080094e5   Thumb Code   120  queue.o(i.prvUnlockQueue)
    i.ptr_to_mem                             0x0800955c   Section        0  mem.o(i.ptr_to_mem)
    ptr_to_mem                               0x0800955d   Thumb Code     8  mem.o(i.ptr_to_mem)
    i.pvPortMalloc                           0x08009568   Section        0  heap_4.o(i.pvPortMalloc)
    i.pvTaskIncrementMutexHeldCount          0x08009678   Section        0  tasks.o(i.pvTaskIncrementMutexHeldCount)
    i.pxPortInitialiseStack                  0x08009690   Section        0  port.o(i.pxPortInitialiseStack)
    i.recv_tcp                               0x080096bc   Section        0  api_msg.o(i.recv_tcp)
    recv_tcp                                 0x080096bd   Thumb Code   130  api_msg.o(i.recv_tcp)
    i.recv_udp                               0x080097c0   Section        0  api_msg.o(i.recv_udp)
    recv_udp                                 0x080097c1   Thumb Code   140  api_msg.o(i.recv_udp)
    i.sent_tcp                               0x080098b0   Section        0  api_msg.o(i.sent_tcp)
    sent_tcp                                 0x080098b1   Thumb Code    94  api_msg.o(i.sent_tcp)
    i.setup_tcp                              0x08009920   Section        0  api_msg.o(i.setup_tcp)
    setup_tcp                                0x08009921   Thumb Code    50  api_msg.o(i.setup_tcp)
    i.sys_arch_mbox_fetch                    0x08009964   Section        0  sys_arch.o(i.sys_arch_mbox_fetch)
    i.sys_arch_mbox_tryfetch                 0x080099a6   Section        0  sys_arch.o(i.sys_arch_mbox_tryfetch)
    i.sys_arch_protect                       0x080099c4   Section        0  sys_arch.o(i.sys_arch_protect)
    i.sys_arch_sem_wait                      0x080099ce   Section        0  sys_arch.o(i.sys_arch_sem_wait)
    i.sys_arch_unprotect                     0x08009a08   Section        0  sys_arch.o(i.sys_arch_unprotect)
    i.sys_check_timeouts                     0x08009a0c   Section        0  timeouts.o(i.sys_check_timeouts)
    i.sys_init                               0x08009a4c   Section        0  sys_arch.o(i.sys_init)
    i.sys_mbox_free                          0x08009a70   Section        0  sys_arch.o(i.sys_mbox_free)
    i.sys_mbox_new                           0x08009a84   Section        0  sys_arch.o(i.sys_mbox_new)
    i.sys_mbox_set_invalid                   0x08009aa2   Section        0  sys_arch.o(i.sys_mbox_set_invalid)
    i.sys_mbox_trypost                       0x08009aa8   Section        0  sys_arch.o(i.sys_mbox_trypost)
    i.sys_mbox_valid                         0x08009ac4   Section        0  sys_arch.o(i.sys_mbox_valid)
    i.sys_mutex_lock                         0x08009ace   Section        0  sys_arch.o(i.sys_mutex_lock)
    i.sys_mutex_new                          0x08009adc   Section        0  sys_arch.o(i.sys_mutex_new)
    i.sys_mutex_unlock                       0x08009b18   Section        0  sys_arch.o(i.sys_mutex_unlock)
    i.sys_now                                0x08009b24   Section        0  sys_arch.o(i.sys_now)
    i.sys_sem_free                           0x08009b34   Section        0  sys_arch.o(i.sys_sem_free)
    i.sys_sem_new                            0x08009b44   Section        0  sys_arch.o(i.sys_sem_new)
    i.sys_sem_set_invalid                    0x08009b9c   Section        0  sys_arch.o(i.sys_sem_set_invalid)
    i.sys_sem_signal                         0x08009ba4   Section        0  sys_arch.o(i.sys_sem_signal)
    i.sys_sem_valid                          0x08009be4   Section        0  sys_arch.o(i.sys_sem_valid)
    i.sys_thread_new                         0x08009bf0   Section        0  sys_arch.o(i.sys_thread_new)
    i.sys_timeout                            0x08009c4c   Section        0  timeouts.o(i.sys_timeout)
    i.sys_timeout_abs                        0x08009cac   Section        0  timeouts.o(i.sys_timeout_abs)
    sys_timeout_abs                          0x08009cad   Thumb Code    82  timeouts.o(i.sys_timeout_abs)
    i.sys_timeouts_init                      0x08009d44   Section        0  timeouts.o(i.sys_timeouts_init)
    i.sys_timeouts_sleeptime                 0x08009d68   Section        0  timeouts.o(i.sys_timeouts_sleeptime)
    i.tcp_abandon                            0x08009d90   Section        0  tcp.o(i.tcp_abandon)
    i.tcp_abort                              0x08009ecc   Section        0  tcp.o(i.tcp_abort)
    i.tcp_accept                             0x08009ed2   Section        0  tcp.o(i.tcp_accept)
    i.tcp_alloc                              0x08009ee0   Section        0  tcp.o(i.tcp_alloc)
    i.tcp_arg                                0x0800a008   Section        0  tcp.o(i.tcp_arg)
    i.tcp_close                              0x0800a010   Section        0  tcp.o(i.tcp_close)
    i.tcp_close_shutdown                     0x0800a050   Section        0  tcp.o(i.tcp_close_shutdown)
    tcp_close_shutdown                       0x0800a051   Thumb Code   264  tcp.o(i.tcp_close_shutdown)
    i.tcp_close_shutdown_fin                 0x0800a1b8   Section        0  tcp.o(i.tcp_close_shutdown_fin)
    tcp_close_shutdown_fin                   0x0800a1b9   Thumb Code    88  tcp.o(i.tcp_close_shutdown_fin)
    i.tcp_connect                            0x0800a21c   Section        0  tcp.o(i.tcp_connect)
    i.tcp_create_segment                     0x0800a390   Section        0  tcp_out.o(i.tcp_create_segment)
    tcp_create_segment                       0x0800a391   Thumb Code   180  tcp_out.o(i.tcp_create_segment)
    i.tcp_eff_send_mss_netif                 0x0800a4a0   Section        0  tcp.o(i.tcp_eff_send_mss_netif)
    i.tcp_enqueue_flags                      0x0800a4f4   Section        0  tcp_out.o(i.tcp_enqueue_flags)
    i.tcp_err                                0x0800a698   Section        0  tcp.o(i.tcp_err)
    i.tcp_fasttmr                            0x0800a6dc   Section        0  tcp.o(i.tcp_fasttmr)
    i.tcp_free                               0x0800a748   Section        0  tcp.o(i.tcp_free)
    i.tcp_free_acked_segments                0x0800a778   Section        0  tcp_in.o(i.tcp_free_acked_segments)
    tcp_free_acked_segments                  0x0800a779   Thumb Code   134  tcp_in.o(i.tcp_free_acked_segments)
    i.tcp_get_next_optbyte                   0x0800a84c   Section        0  tcp_in.o(i.tcp_get_next_optbyte)
    tcp_get_next_optbyte                     0x0800a84d   Thumb Code    34  tcp_in.o(i.tcp_get_next_optbyte)
    i.tcp_init                               0x0800a874   Section        0  tcp.o(i.tcp_init)
    i.tcp_input                              0x0800a878   Section        0  tcp_in.o(i.tcp_input)
    i.tcp_input_delayed_close                0x0800ae08   Section        0  tcp_in.o(i.tcp_input_delayed_close)
    tcp_input_delayed_close                  0x0800ae09   Thumb Code    62  tcp_in.o(i.tcp_input_delayed_close)
    i.tcp_keepalive                          0x0800ae78   Section        0  tcp_out.o(i.tcp_keepalive)
    i.tcp_kill_state                         0x0800aee0   Section        0  tcp.o(i.tcp_kill_state)
    tcp_kill_state                           0x0800aee1   Thumb Code    70  tcp.o(i.tcp_kill_state)
    i.tcp_listen_closed                      0x0800af3c   Section        0  tcp.o(i.tcp_listen_closed)
    tcp_listen_closed                        0x0800af3d   Thumb Code    74  tcp.o(i.tcp_listen_closed)
    i.tcp_listen_input                       0x0800afd8   Section        0  tcp_in.o(i.tcp_listen_input)
    tcp_listen_input                         0x0800afd9   Thumb Code   256  tcp_in.o(i.tcp_listen_input)
    i.tcp_netif_ip_addr_changed              0x0800b108   Section        0  tcp.o(i.tcp_netif_ip_addr_changed)
    i.tcp_netif_ip_addr_changed_pcblist      0x0800b154   Section        0  tcp.o(i.tcp_netif_ip_addr_changed_pcblist)
    tcp_netif_ip_addr_changed_pcblist        0x0800b155   Thumb Code    44  tcp.o(i.tcp_netif_ip_addr_changed_pcblist)
    i.tcp_new_ip_type                        0x0800b1b4   Section        0  tcp.o(i.tcp_new_ip_type)
    i.tcp_new_port                           0x0800b1bc   Section        0  tcp.o(i.tcp_new_port)
    tcp_new_port                             0x0800b1bd   Thumb Code    84  tcp.o(i.tcp_new_port)
    i.tcp_next_iss                           0x0800b218   Section        0  tcp.o(i.tcp_next_iss)
    i.tcp_output                             0x0800b250   Section        0  tcp_out.o(i.tcp_output)
    i.tcp_output_alloc_header                0x0800b4c0   Section        0  tcp_out.o(i.tcp_output_alloc_header)
    tcp_output_alloc_header                  0x0800b4c1   Thumb Code    62  tcp_out.o(i.tcp_output_alloc_header)
    i.tcp_output_alloc_header_common         0x0800b528   Section        0  tcp_out.o(i.tcp_output_alloc_header_common)
    tcp_output_alloc_header_common           0x0800b529   Thumb Code   122  tcp_out.o(i.tcp_output_alloc_header_common)
    i.tcp_output_control_segment             0x0800b5d4   Section        0  tcp_out.o(i.tcp_output_control_segment)
    tcp_output_control_segment               0x0800b5d5   Thumb Code    78  tcp_out.o(i.tcp_output_control_segment)
    i.tcp_output_fill_options                0x0800b650   Section        0  tcp_out.o(i.tcp_output_fill_options)
    tcp_output_fill_options                  0x0800b651   Thumb Code    46  tcp_out.o(i.tcp_output_fill_options)
    i.tcp_output_segment                     0x0800b6bc   Section        0  tcp_out.o(i.tcp_output_segment)
    tcp_output_segment                       0x0800b6bd   Thumb Code   224  tcp_out.o(i.tcp_output_segment)
    i.tcp_output_segment_busy                0x0800b818   Section        0  tcp_out.o(i.tcp_output_segment_busy)
    tcp_output_segment_busy                  0x0800b819   Thumb Code    28  tcp_out.o(i.tcp_output_segment_busy)
    i.tcp_parseopt                           0x0800b85c   Section        0  tcp_in.o(i.tcp_parseopt)
    tcp_parseopt                             0x0800b85d   Thumb Code   118  tcp_in.o(i.tcp_parseopt)
    i.tcp_pbuf_prealloc                      0x0800b8f4   Section        0  tcp_out.o(i.tcp_pbuf_prealloc)
    tcp_pbuf_prealloc                        0x0800b8f5   Thumb Code   132  tcp_out.o(i.tcp_pbuf_prealloc)
    i.tcp_pcb_purge                          0x0800b9d0   Section        0  tcp.o(i.tcp_pcb_purge)
    i.tcp_pcb_remove                         0x0800ba34   Section        0  tcp.o(i.tcp_pcb_remove)
    i.tcp_poll                               0x0800bb20   Section        0  tcp.o(i.tcp_poll)
    i.tcp_process                            0x0800bb84   Section        0  tcp_in.o(i.tcp_process)
    tcp_process                              0x0800bb85   Thumb Code   940  tcp_in.o(i.tcp_process)
    i.tcp_process_refused_data               0x0800bfd0   Section        0  tcp.o(i.tcp_process_refused_data)
    i.tcp_receive                            0x0800c074   Section        0  tcp_in.o(i.tcp_receive)
    tcp_receive                              0x0800c075   Thumb Code  1248  tcp_in.o(i.tcp_receive)
    i.tcp_recv                               0x0800c554   Section        0  tcp.o(i.tcp_recv)
    i.tcp_recv_null                          0x0800c598   Section        0  tcp.o(i.tcp_recv_null)
    i.tcp_recved                             0x0800c5e8   Section        0  tcp.o(i.tcp_recved)
    i.tcp_rexmit                             0x0800c684   Section        0  tcp_out.o(i.tcp_rexmit)
    i.tcp_rexmit_fast                        0x0800c70c   Section        0  tcp_out.o(i.tcp_rexmit_fast)
    i.tcp_rexmit_rto                         0x0800c790   Section        0  tcp_out.o(i.tcp_rexmit_rto)
    i.tcp_rexmit_rto_commit                  0x0800c7d0   Section        0  tcp_out.o(i.tcp_rexmit_rto_commit)
    i.tcp_rexmit_rto_prepare                 0x0800c818   Section        0  tcp_out.o(i.tcp_rexmit_rto_prepare)
    i.tcp_route                              0x0800c8ac   Section        0  tcp_out.o(i.tcp_route)
    tcp_route                                0x0800c8ad   Thumb Code    16  tcp_out.o(i.tcp_route)
    i.tcp_rst                                0x0800c8bc   Section        0  tcp_out.o(i.tcp_rst)
    i.tcp_seg_free                           0x0800c964   Section        0  tcp.o(i.tcp_seg_free)
    i.tcp_segs_free                          0x0800c980   Section        0  tcp.o(i.tcp_segs_free)
    i.tcp_send_empty_ack                     0x0800c994   Section        0  tcp_out.o(i.tcp_send_empty_ack)
    i.tcp_send_fin                           0x0800ca1c   Section        0  tcp_out.o(i.tcp_send_fin)
    i.tcp_sent                               0x0800ca88   Section        0  tcp.o(i.tcp_sent)
    i.tcp_shutdown                           0x0800cac8   Section        0  tcp.o(i.tcp_shutdown)
    i.tcp_slowtmr                            0x0800cb40   Section        0  tcp.o(i.tcp_slowtmr)
    i.tcp_split_unsent_seg                   0x0800d038   Section        0  tcp_out.o(i.tcp_split_unsent_seg)
    i.tcp_timer_needed                       0x0800d1e8   Section        0  timeouts.o(i.tcp_timer_needed)
    i.tcp_timewait_input                     0x0800d21c   Section        0  tcp_in.o(i.tcp_timewait_input)
    tcp_timewait_input                       0x0800d21d   Thumb Code   108  tcp_in.o(i.tcp_timewait_input)
    i.tcp_tmr                                0x0800d2b4   Section        0  tcp.o(i.tcp_tmr)
    i.tcp_trigger_input_pcb_close            0x0800d2d4   Section        0  tcp_in.o(i.tcp_trigger_input_pcb_close)
    i.tcp_update_rcv_ann_wnd                 0x0800d2e4   Section        0  tcp.o(i.tcp_update_rcv_ann_wnd)
    i.tcp_write                              0x0800d370   Section        0  tcp_out.o(i.tcp_write)
    i.tcp_write_checks                       0x0800d940   Section        0  tcp_out.o(i.tcp_write_checks)
    tcp_write_checks                         0x0800d941   Thumb Code   106  tcp_out.o(i.tcp_write_checks)
    i.tcp_zero_window_probe                  0x0800da3c   Section        0  tcp_out.o(i.tcp_zero_window_probe)
    i.tcpip_init                             0x0800db20   Section        0  tcpip.o(i.tcpip_init)
    i.tcpip_inpkt                            0x0800dbbc   Section        0  tcpip.o(i.tcpip_inpkt)
    i.tcpip_input                            0x0800dc1c   Section        0  tcpip.o(i.tcpip_input)
    i.tcpip_send_msg_wait_sem                0x0800dc38   Section        0  tcpip.o(i.tcpip_send_msg_wait_sem)
    i.tcpip_tcp_timer                        0x0800dc58   Section        0  timeouts.o(i.tcpip_tcp_timer)
    tcpip_tcp_timer                          0x0800dc59   Thumb Code    40  timeouts.o(i.tcpip_tcp_timer)
    i.tcpip_thread                           0x0800dc90   Section        0  tcpip.o(i.tcpip_thread)
    tcpip_thread                             0x0800dc91   Thumb Code   114  tcpip.o(i.tcpip_thread)
    i.tcpip_thread_handle_msg                0x0800dd28   Section        0  tcpip.o(i.tcpip_thread_handle_msg)
    tcpip_thread_handle_msg                  0x0800dd29   Thumb Code    74  tcpip.o(i.tcpip_thread_handle_msg)
    i.udp_bind                               0x0800dd94   Section        0  udp.o(i.udp_bind)
    i.udp_client__thread                     0x0800de6c   Section        0  udp_client.o(i.udp_client__thread)
    udp_client__thread                       0x0800de6d   Thumb Code   120  udp_client.o(i.udp_client__thread)
    i.udp_client_task_init                   0x0800dfa4   Section        0  udp_client.o(i.udp_client_task_init)
    i.udp_connect                            0x0800e0a0   Section        0  udp.o(i.udp_connect)
    i.udp_init                               0x0800e138   Section        0  udp.o(i.udp_init)
    i.udp_input                              0x0800e13c   Section        0  udp.o(i.udp_input)
    i.udp_input_local_match                  0x0800e2b4   Section        0  udp.o(i.udp_input_local_match)
    udp_input_local_match                    0x0800e2b5   Thumb Code    90  udp.o(i.udp_input_local_match)
    i.udp_netif_ip_addr_changed              0x0800e360   Section        0  udp.o(i.udp_netif_ip_addr_changed)
    i.udp_new                                0x0800e394   Section        0  udp.o(i.udp_new)
    i.udp_new_ip_type                        0x0800e3ae   Section        0  udp.o(i.udp_new_ip_type)
    i.udp_recv                               0x0800e3b4   Section        0  udp.o(i.udp_recv)
    i.udp_remove                             0x0800e3dc   Section        0  udp.o(i.udp_remove)
    i.udp_send                               0x0800e42c   Section        0  udp.o(i.udp_send)
    i.udp_send__thread                       0x0800e480   Section        0  udp_client.o(i.udp_send__thread)
    udp_send__thread                         0x0800e481   Thumb Code   110  udp_client.o(i.udp_send__thread)
    i.udp_sendto                             0x0800e51c   Section        0  udp.o(i.udp_sendto)
    i.udp_sendto_if                          0x0800e5c0   Section        0  udp.o(i.udp_sendto_if)
    i.udp_sendto_if_src                      0x0800e688   Section        0  udp.o(i.udp_sendto_if_src)
    i.uxListRemove                           0x0800e850   Section        0  list.o(i.uxListRemove)
    i.uxQueueMessagesWaiting                 0x0800e874   Section        0  queue.o(i.uxQueueMessagesWaiting)
    i.vListInitialise                        0x0800e8bc   Section        0  list.o(i.vListInitialise)
    i.vListInitialiseItem                    0x0800e8d2   Section        0  list.o(i.vListInitialiseItem)
    i.vListInsert                            0x0800e8d8   Section        0  list.o(i.vListInsert)
    i.vListInsertEnd                         0x0800e908   Section        0  list.o(i.vListInsertEnd)
    i.vPortEnterCritical                     0x0800e920   Section        0  port.o(i.vPortEnterCritical)
    i.vPortExitCritical                      0x0800e994   Section        0  port.o(i.vPortExitCritical)
    i.vPortFree                              0x0800e9f4   Section        0  heap_4.o(i.vPortFree)
    i.vPortSetupTimerInterrupt               0x0800ea8c   Section        0  port.o(i.vPortSetupTimerInterrupt)
    i.vPortValidateInterruptPriority         0x0800eaac   Section        0  port.o(i.vPortValidateInterruptPriority)
    i.vQueueAddToRegistry                    0x0800eb34   Section        0  queue.o(i.vQueueAddToRegistry)
    i.vQueueDelete                           0x0800eb58   Section        0  queue.o(i.vQueueDelete)
    i.vQueueUnregisterQueue                  0x0800eba4   Section        0  queue.o(i.vQueueUnregisterQueue)
    i.vQueueWaitForMessageRestricted         0x0800ebcc   Section        0  queue.o(i.vQueueWaitForMessageRestricted)
    i.vTaskDelay                             0x0800ec10   Section        0  tasks.o(i.vTaskDelay)
    i.vTaskDelete                            0x0800ec80   Section        0  tasks.o(i.vTaskDelete)
    i.vTaskMissedYield                       0x0800ed50   Section        0  tasks.o(i.vTaskMissedYield)
    i.vTaskPlaceOnEventList                  0x0800ed5c   Section        0  tasks.o(i.vTaskPlaceOnEventList)
    i.vTaskPlaceOnEventListRestricted        0x0800edb4   Section        0  tasks.o(i.vTaskPlaceOnEventListRestricted)
    i.vTaskPriorityInherit                   0x0800ee14   Section        0  tasks.o(i.vTaskPriorityInherit)
    i.vTaskResume                            0x0800ee98   Section        0  tasks.o(i.vTaskResume)
    i.vTaskSetTimeOutState                   0x0800ef3c   Section        0  tasks.o(i.vTaskSetTimeOutState)
    i.vTaskStartScheduler                    0x0800ef88   Section        0  tasks.o(i.vTaskStartScheduler)
    i.vTaskSuspend                           0x0800f020   Section        0  tasks.o(i.vTaskSuspend)
    i.vTaskSuspendAll                        0x0800f0f4   Section        0  tasks.o(i.vTaskSuspendAll)
    i.vTaskSwitchContext                     0x0800f104   Section        0  tasks.o(i.vTaskSwitchContext)
    i.xPortStartScheduler                    0x0800f184   Section        0  port.o(i.xPortStartScheduler)
    i.xPortSysTickHandler                    0x0800f294   Section        0  port.o(i.xPortSysTickHandler)
    i.xQueueCreateCountingSemaphore          0x0800f2c0   Section        0  queue.o(i.xQueueCreateCountingSemaphore)
    i.xQueueCreateMutex                      0x0800f320   Section        0  queue.o(i.xQueueCreateMutex)
    i.xQueueGenericCreate                    0x0800f344   Section        0  queue.o(i.xQueueGenericCreate)
    i.xQueueGenericReceive                   0x0800f3c4   Section        0  queue.o(i.xQueueGenericReceive)
    i.xQueueGenericReset                     0x0800f54c   Section        0  queue.o(i.xQueueGenericReset)
    i.xQueueGenericSend                      0x0800f5f8   Section        0  queue.o(i.xQueueGenericSend)
    i.xQueueGenericSendFromISR               0x0800f784   Section        0  queue.o(i.xQueueGenericSendFromISR)
    i.xQueueGiveFromISR                      0x0800f868   Section        0  queue.o(i.xQueueGiveFromISR)
    i.xTaskCheckForTimeOut                   0x0800f934   Section        0  tasks.o(i.xTaskCheckForTimeOut)
    i.xTaskCreate                            0x0800f9c0   Section        0  tasks.o(i.xTaskCreate)
    i.xTaskGetSchedulerState                 0x0800fa18   Section        0  tasks.o(i.xTaskGetSchedulerState)
    i.xTaskGetTickCount                      0x0800fa34   Section        0  tasks.o(i.xTaskGetTickCount)
    i.xTaskIncrementTick                     0x0800fa40   Section        0  tasks.o(i.xTaskIncrementTick)
    i.xTaskPriorityDisinherit                0x0800fb2c   Section        0  tasks.o(i.xTaskPriorityDisinherit)
    i.xTaskRemoveFromEventList               0x0800fbe4   Section        0  tasks.o(i.xTaskRemoveFromEventList)
    i.xTaskResumeAll                         0x0800fc80   Section        0  tasks.o(i.xTaskResumeAll)
    i.xTimerCreate                           0x0800fd68   Section        0  timers.o(i.xTimerCreate)
    i.xTimerCreateTimerTask                  0x0800fde0   Section        0  timers.o(i.xTimerCreateTimerTask)
    i.xTimerGenericCommand                   0x0800fe58   Section        0  timers.o(i.xTimerGenericCommand)
    .constdata                               0x0800fee8   Section       16  system_stm32f4xx.o(.constdata)
    .constdata                               0x0800fef8   Section        8  system_stm32f4xx.o(.constdata)
    .constdata                               0x0800ff00   Section        8  udp_client.o(.constdata)
    .constdata                               0x0800ff08   Section        3  api_msg.o(.constdata)
    .constdata                               0x0800ff0c   Section       12  memp.o(.constdata)
    .constdata                               0x0800ff18   Section       12  memp.o(.constdata)
    .constdata                               0x0800ff24   Section       12  memp.o(.constdata)
    .constdata                               0x0800ff30   Section       12  memp.o(.constdata)
    .constdata                               0x0800ff3c   Section       12  memp.o(.constdata)
    .constdata                               0x0800ff48   Section       12  memp.o(.constdata)
    .constdata                               0x0800ff54   Section       12  memp.o(.constdata)
    .constdata                               0x0800ff60   Section       12  memp.o(.constdata)
    .constdata                               0x0800ff6c   Section       12  memp.o(.constdata)
    .constdata                               0x0800ff78   Section       12  memp.o(.constdata)
    .constdata                               0x0800ff84   Section       12  memp.o(.constdata)
    .constdata                               0x0800ff90   Section       12  memp.o(.constdata)
    .constdata                               0x0800ff9c   Section       12  memp.o(.constdata)
    .constdata                               0x0800ffa8   Section       52  memp.o(.constdata)
    .constdata                               0x0800ffdc   Section       84  tcp.o(.constdata)
    tcp_persist_backoff                      0x0800ffdc   Data           7  tcp.o(.constdata)
    tcp_state_str                            0x0800ffe4   Data          44  tcp.o(.constdata)
    tcp_backoff                              0x08010010   Data          13  tcp.o(.constdata)
    .constdata                               0x08010030   Section       40  timeouts.o(.constdata)
    .constdata                               0x08010058   Section        4  ip4_addr.o(.constdata)
    .constdata                               0x0801005c   Section        4  ip4_addr.o(.constdata)
    .constdata                               0x08010060   Section        6  ethernet.o(.constdata)
    .constdata                               0x08010066   Section        6  ethernet.o(.constdata)
    .constdata                               0x0801006c   Section      220  cm_backtrace.o(.constdata)
    print_info                               0x0801006c   Data         148  cm_backtrace.o(.constdata)
    __FUNCTION__                             0x08010100   Data          20  cm_backtrace.o(.constdata)
    __FUNCTION__                             0x08010114   Data          19  cm_backtrace.o(.constdata)
    .conststring                             0x08010148   Section      117  tcp.o(.conststring)
    .conststring                             0x080101c0   Section       85  tcp_out.o(.conststring)
    .conststring                             0x08010218   Section       66  dhcp.o(.conststring)
    .conststring                             0x0801025c   Section       65  etharp.o(.conststring)
    .conststring                             0x080102a0   Section     2069  cm_backtrace.o(.conststring)
    .data                                    0x20000000   Section        4  system_stm32f4xx.o(.data)
    .data                                    0x20000004   Section       12  stm32f4xx_hal.o(.data)
    .data                                    0x20000010   Section       12  main.o(.data)
    AppTaskCreate_Handle                     0x20000010   Data           4  main.o(.data)
    Test1_Task_Handle                        0x20000014   Data           4  main.o(.data)
    Test2_Task_Handle                        0x20000018   Data           4  main.o(.data)
    .data                                    0x2000001c   Section       20  udp_client.o(.data)
    udp_client_task                          0x20000020   Data           4  udp_client.o(.data)
    udp_send_task                            0x20000024   Data           4  udp_client.o(.data)
    udp_client_handle                        0x20000028   Data           4  udp_client.o(.data)
    udp_netbuf                               0x2000002c   Data           4  udp_client.o(.data)
    .data                                    0x20000030   Section       60  tasks.o(.data)
    uxDeletedTasksWaitingCleanUp             0x20000034   Data           4  tasks.o(.data)
    uxCurrentNumberOfTasks                   0x20000038   Data           4  tasks.o(.data)
    xTickCount                               0x2000003c   Data           4  tasks.o(.data)
    uxTopReadyPriority                       0x20000040   Data           4  tasks.o(.data)
    xSchedulerRunning                        0x20000044   Data           4  tasks.o(.data)
    uxPendedTicks                            0x20000048   Data           4  tasks.o(.data)
    xYieldPending                            0x2000004c   Data           4  tasks.o(.data)
    xNumOfOverflows                          0x20000050   Data           4  tasks.o(.data)
    uxTaskNumber                             0x20000054   Data           4  tasks.o(.data)
    xNextTaskUnblockTime                     0x20000058   Data           4  tasks.o(.data)
    xIdleTaskHandle                          0x2000005c   Data           4  tasks.o(.data)
    uxSchedulerSuspended                     0x20000060   Data           4  tasks.o(.data)
    pxDelayedTaskList                        0x20000064   Data           4  tasks.o(.data)
    pxOverflowDelayedTaskList                0x20000068   Data           4  tasks.o(.data)
    .data                                    0x2000006c   Section       20  timers.o(.data)
    xTimerQueue                              0x2000006c   Data           4  timers.o(.data)
    xTimerTaskHandle                         0x20000070   Data           4  timers.o(.data)
    xLastTime                                0x20000074   Data           4  timers.o(.data)
    pxCurrentTimerList                       0x20000078   Data           4  timers.o(.data)
    pxOverflowTimerList                      0x2000007c   Data           4  timers.o(.data)
    .data                                    0x20000080   Section       24  heap_4.o(.data)
    pxEnd                                    0x20000080   Data           4  heap_4.o(.data)
    xFreeBytesRemaining                      0x20000084   Data           4  heap_4.o(.data)
    xMinimumEverFreeBytesRemaining           0x20000088   Data           4  heap_4.o(.data)
    xBlockAllocatedBit                       0x2000008c   Data           4  heap_4.o(.data)
    xStart                                   0x20000090   Data           8  heap_4.o(.data)
    .data                                    0x20000098   Section       12  port.o(.data)
    ucMaxSysCallPriority                     0x20000098   Data           1  port.o(.data)
    uxCriticalNesting                        0x2000009c   Data           4  port.o(.data)
    ulMaxPRIGROUPValue                       0x200000a0   Data           4  port.o(.data)
    .data                                    0x200000a4   Section       16  tcpip.o(.data)
    tcpip_init_done                          0x200000a4   Data           4  tcpip.o(.data)
    tcpip_init_done_arg                      0x200000a8   Data           4  tcpip.o(.data)
    tcpip_mbox                               0x200000ac   Data           4  tcpip.o(.data)
    .data                                    0x200000b4   Section       16  mem.o(.data)
    ram                                      0x200000b4   Data           4  mem.o(.data)
    ram_end                                  0x200000b8   Data           4  mem.o(.data)
    mem_mutex                                0x200000bc   Data           4  mem.o(.data)
    lfree                                    0x200000c0   Data           4  mem.o(.data)
    .data                                    0x200000c4   Section        4  memp.o(.data)
    memp_tab_UDP_PCB                         0x200000c4   Data           4  memp.o(.data)
    .data                                    0x200000c8   Section        4  memp.o(.data)
    memp_tab_TCP_PCB                         0x200000c8   Data           4  memp.o(.data)
    .data                                    0x200000cc   Section        4  memp.o(.data)
    memp_tab_TCP_PCB_LISTEN                  0x200000cc   Data           4  memp.o(.data)
    .data                                    0x200000d0   Section        4  memp.o(.data)
    memp_tab_TCP_SEG                         0x200000d0   Data           4  memp.o(.data)
    .data                                    0x200000d4   Section        4  memp.o(.data)
    memp_tab_REASSDATA                       0x200000d4   Data           4  memp.o(.data)
    .data                                    0x200000d8   Section        4  memp.o(.data)
    memp_tab_FRAG_PBUF                       0x200000d8   Data           4  memp.o(.data)
    .data                                    0x200000dc   Section        4  memp.o(.data)
    memp_tab_NETBUF                          0x200000dc   Data           4  memp.o(.data)
    .data                                    0x200000e0   Section        4  memp.o(.data)
    memp_tab_NETCONN                         0x200000e0   Data           4  memp.o(.data)
    .data                                    0x200000e4   Section        4  memp.o(.data)
    memp_tab_TCPIP_MSG_API                   0x200000e4   Data           4  memp.o(.data)
    .data                                    0x200000e8   Section        4  memp.o(.data)
    memp_tab_TCPIP_MSG_INPKT                 0x200000e8   Data           4  memp.o(.data)
    .data                                    0x200000ec   Section        4  memp.o(.data)
    memp_tab_SYS_TIMEOUT                     0x200000ec   Data           4  memp.o(.data)
    .data                                    0x200000f0   Section        4  memp.o(.data)
    memp_tab_PBUF                            0x200000f0   Data           4  memp.o(.data)
    .data                                    0x200000f4   Section        4  memp.o(.data)
    memp_tab_PBUF_POOL                       0x200000f4   Data           4  memp.o(.data)
    .data                                    0x200000f8   Section       12  netif.o(.data)
    netif_num                                0x200000f8   Data           1  netif.o(.data)
    .data                                    0x20000104   Section       32  tcp.o(.data)
    tcp_timer                                0x20000105   Data           1  tcp.o(.data)
    tcp_timer_ctr                            0x20000106   Data           1  tcp.o(.data)
    tcp_port                                 0x20000108   Data           2  tcp.o(.data)
    iss                                      0x2000010c   Data           4  tcp.o(.data)
    .data                                    0x20000124   Section       36  tcp_in.o(.data)
    flags                                    0x20000124   Data           1  tcp_in.o(.data)
    recv_flags                               0x20000125   Data           1  tcp_in.o(.data)
    tcphdr_optlen                            0x20000126   Data           2  tcp_in.o(.data)
    tcphdr_opt1len                           0x20000128   Data           2  tcp_in.o(.data)
    tcp_optidx                               0x2000012a   Data           2  tcp_in.o(.data)
    recv_acked                               0x2000012c   Data           2  tcp_in.o(.data)
    tcplen                                   0x2000012e   Data           2  tcp_in.o(.data)
    tcphdr                                   0x20000130   Data           4  tcp_in.o(.data)
    tcphdr_opt2                              0x20000134   Data           4  tcp_in.o(.data)
    seqno                                    0x20000138   Data           4  tcp_in.o(.data)
    ackno                                    0x2000013c   Data           4  tcp_in.o(.data)
    recv_data                                0x20000140   Data           4  tcp_in.o(.data)
    .data                                    0x20000148   Section       12  timeouts.o(.data)
    next_timeout                             0x20000148   Data           4  timeouts.o(.data)
    current_timeout_due_time                 0x2000014c   Data           4  timeouts.o(.data)
    tcpip_tcp_timer_active                   0x20000150   Data           4  timeouts.o(.data)
    .data                                    0x20000154   Section        8  udp.o(.data)
    udp_port                                 0x20000154   Data           2  udp.o(.data)
    .data                                    0x2000015c   Section       20  dhcp.o(.data)
    dhcp_pcb_refcount                        0x2000015c   Data           1  dhcp.o(.data)
    dhcp_discover_request_options            0x2000015d   Data           3  dhcp.o(.data)
    xid                                      0x20000160   Data           4  dhcp.o(.data)
    dhcp_pcb                                 0x20000164   Data           4  dhcp.o(.data)
    .data                                    0x20000170   Section        1  etharp.o(.data)
    etharp_cached_entry                      0x20000170   Data           1  etharp.o(.data)
    .data                                    0x20000172   Section        2  ip4.o(.data)
    ip_id                                    0x20000172   Data           2  ip4.o(.data)
    .data                                    0x20000174   Section        8  ip4_frag.o(.data)
    ip_reass_pbufcount                       0x20000174   Data           2  ip4_frag.o(.data)
    reassdatagrams                           0x20000178   Data           4  ip4_frag.o(.data)
    .data                                    0x2000017c   Section       16  ethernetif.o(.data)
    ousem                                    0x20000188   Data           4  ethernetif.o(.data)
    .data                                    0x2000018c   Section       20  sys_arch.o(.data)
    s_nextthread                             0x2000018c   Data           2  sys_arch.o(.data)
    .data                                    0x200001a0   Section       24  cm_backtrace.o(.data)
    init_ok                                  0x200001a0   Data           1  cm_backtrace.o(.data)
    on_fault                                 0x200001a1   Data           1  cm_backtrace.o(.data)
    stack_is_overflow                        0x200001a2   Data           1  cm_backtrace.o(.data)
    statck_has_fpu_regs                      0x200001a3   Data           1  cm_backtrace.o(.data)
    on_thread_before_fault                   0x200001a4   Data           1  cm_backtrace.o(.data)
    main_stack_start_addr                    0x200001a8   Data           4  cm_backtrace.o(.data)
    main_stack_size                          0x200001ac   Data           4  cm_backtrace.o(.data)
    code_start_addr                          0x200001b0   Data           4  cm_backtrace.o(.data)
    code_size                                0x200001b4   Data           4  cm_backtrace.o(.data)
    .data                                    0x200001b8   Section        4  stdout.o(.data)
    .bss                                     0x200001bc   Section       64  bsp_debug_usart.o(.bss)
    .bss                                     0x200001fc   Section    24968  bsp_eth.o(.bss)
    .bss                                     0x20006384   Section       80  queue.o(.bss)
    .bss                                     0x200063d4   Section      740  tasks.o(.bss)
    pxReadyTasksLists                        0x200063d4   Data         640  tasks.o(.bss)
    xDelayedTaskList1                        0x20006654   Data          20  tasks.o(.bss)
    xDelayedTaskList2                        0x20006668   Data          20  tasks.o(.bss)
    xPendingReadyList                        0x2000667c   Data          20  tasks.o(.bss)
    xTasksWaitingTermination                 0x20006690   Data          20  tasks.o(.bss)
    xSuspendedTaskList                       0x200066a4   Data          20  tasks.o(.bss)
    .bss                                     0x200066b8   Section       40  timers.o(.bss)
    xActiveTimerList1                        0x200066b8   Data          20  timers.o(.bss)
    xActiveTimerList2                        0x200066cc   Data          20  timers.o(.bss)
    .bss                                     0x200066e0   Section    36864  heap_4.o(.bss)
    ucHeap                                   0x200066e0   Data       36864  heap_4.o(.bss)
    .bss                                     0x2000f6e0   Section       24  ip.o(.bss)
    .bss                                     0x2000f6f8   Section    15379  mem.o(.bss)
    .bss                                     0x2001330b   Section      131  memp.o(.bss)
    .bss                                     0x2001338e   Section      915  memp.o(.bss)
    .bss                                     0x20013721   Section      171  memp.o(.bss)
    .bss                                     0x200137cc   Section     2403  memp.o(.bss)
    .bss                                     0x2001412f   Section      163  memp.o(.bss)
    .bss                                     0x200141d2   Section      363  memp.o(.bss)
    .bss                                     0x2001433d   Section       35  memp.o(.bss)
    .bss                                     0x20014360   Section      163  memp.o(.bss)
    .bss                                     0x20014403   Section      131  memp.o(.bss)
    .bss                                     0x20014486   Section      131  memp.o(.bss)
    .bss                                     0x20014509   Section       99  memp.o(.bss)
    .bss                                     0x2001456c   Section      403  memp.o(.bss)
    .bss                                     0x200146ff   Section    68943  memp.o(.bss)
    .bss                                     0x20025450   Section       16  tcp_in.o(.bss)
    inseg                                    0x20025450   Data          16  tcp_in.o(.bss)
    .bss                                     0x20025460   Section       32  dhcp.o(.bss)
    .bss                                     0x20025480   Section      240  etharp.o(.bss)
    arp_table                                0x20025480   Data         240  etharp.o(.bss)
    .bss                                     0x20025570   Section       84  sys_arch.o(.bss)
    s_timeoutlist                            0x20025570   Data          32  sys_arch.o(.bss)
    .bss                                     0x200255c4   Section      308  cm_backtrace.o(.bss)
    fw_name                                  0x200255c4   Data          32  cm_backtrace.o(.bss)
    hw_ver                                   0x200255e4   Data          32  cm_backtrace.o(.bss)
    sw_ver                                   0x20025604   Data          32  cm_backtrace.o(.bss)
    call_stack_info                          0x20025624   Data         144  cm_backtrace.o(.bss)
    regs                                     0x200256b4   Data          68  cm_backtrace.o(.bss)
    STACK                                    0x200256f8   Section     1024  startup_stm32f429xx.o(STACK)

    Global Symbols

    Symbol Name                              Value     Ov Type        Size  Object(Section)

    BuildAttributes$$THM_ISAv4$E$P$D$K$B$S$7EM$VFPi3$EXTD16$VFPS$VFMA$PE$A:L22UL41UL21$X:L11$S22US41US21$IEEE1$IW$USESV6$~STKCKD$USESV7$~SHL$OSPACE$ROPI$EBA8$MICROLIB$REQ8$PRES8$EABIv2 0x00000000   Number         0  anon$$obj.o ABSOLUTE
    __ARM_use_no_argv                        0x00000000   Number         0  main.o ABSOLUTE
    _printf_a                                0x00000000   Number         0  stubs.o ABSOLUTE
    _printf_c                                0x00000000   Number         0  stubs.o ABSOLUTE
    _printf_charcount                        0x00000000   Number         0  stubs.o ABSOLUTE
    _printf_d                                0x00000000   Number         0  stubs.o ABSOLUTE
    _printf_e                                0x00000000   Number         0  stubs.o ABSOLUTE
    _printf_f                                0x00000000   Number         0  stubs.o ABSOLUTE
    _printf_flags                            0x00000000   Number         0  stubs.o ABSOLUTE
    _printf_fp_dec                           0x00000000   Number         0  stubs.o ABSOLUTE
    _printf_fp_hex                           0x00000000   Number         0  stubs.o ABSOLUTE
    _printf_g                                0x00000000   Number         0  stubs.o ABSOLUTE
    _printf_i                                0x00000000   Number         0  stubs.o ABSOLUTE
    _printf_int_dec                          0x00000000   Number         0  stubs.o ABSOLUTE
    _printf_l                                0x00000000   Number         0  stubs.o ABSOLUTE
    _printf_lc                               0x00000000   Number         0  stubs.o ABSOLUTE
    _printf_ll                               0x00000000   Number         0  stubs.o ABSOLUTE
    _printf_lld                              0x00000000   Number         0  stubs.o ABSOLUTE
    _printf_lli                              0x00000000   Number         0  stubs.o ABSOLUTE
    _printf_llo                              0x00000000   Number         0  stubs.o ABSOLUTE
    _printf_llu                              0x00000000   Number         0  stubs.o ABSOLUTE
    _printf_llx                              0x00000000   Number         0  stubs.o ABSOLUTE
    _printf_longlong_dec                     0x00000000   Number         0  stubs.o ABSOLUTE
    _printf_longlong_hex                     0x00000000   Number         0  stubs.o ABSOLUTE
    _printf_longlong_oct                     0x00000000   Number         0  stubs.o ABSOLUTE
    _printf_ls                               0x00000000   Number         0  stubs.o ABSOLUTE
    _printf_mbtowc                           0x00000000   Number         0  stubs.o ABSOLUTE
    _printf_n                                0x00000000   Number         0  stubs.o ABSOLUTE
    _printf_o                                0x00000000   Number         0  stubs.o ABSOLUTE
    _printf_p                                0x00000000   Number         0  stubs.o ABSOLUTE
    _printf_percent                          0x00000000   Number         0  stubs.o ABSOLUTE
    _printf_pre_padding                      0x00000000   Number         0  stubs.o ABSOLUTE
    _printf_return_value                     0x00000000   Number         0  stubs.o ABSOLUTE
    _printf_s                                0x00000000   Number         0  stubs.o ABSOLUTE
    _printf_sizespec                         0x00000000   Number         0  stubs.o ABSOLUTE
    _printf_str                              0x00000000   Number         0  stubs.o ABSOLUTE
    _printf_truncate_signed                  0x00000000   Number         0  stubs.o ABSOLUTE
    _printf_truncate_unsigned                0x00000000   Number         0  stubs.o ABSOLUTE
    _printf_u                                0x00000000   Number         0  stubs.o ABSOLUTE
    _printf_wc                               0x00000000   Number         0  stubs.o ABSOLUTE
    _printf_wctomb                           0x00000000   Number         0  stubs.o ABSOLUTE
    _printf_widthprec                        0x00000000   Number         0  stubs.o ABSOLUTE
    _printf_x                                0x00000000   Number         0  stubs.o ABSOLUTE
    __arm_fini_                               - Undefined Weak Reference
    __cpp_initialize__aeabi_                  - Undefined Weak Reference
    __cxa_finalize                            - Undefined Weak Reference
    _clock_init                               - Undefined Weak Reference
    _microlib_exit                            - Undefined Weak Reference
    __Vectors_Size                           0x000001ac   Number         0  startup_stm32f429xx.o ABSOLUTE
    Image$$ER_IROM1$$Base                    0x08000000   Number         0  anon$$obj.o ABSOLUTE
    __Vectors                                0x08000000   Data           4  startup_stm32f429xx.o(RESET)
    __Vectors_End                            0x080001ac   Data           0  startup_stm32f429xx.o(RESET)
    __main                                   0x080001ad   Thumb Code     0  entry.o(.ARM.Collect$$$$00000000)
    _main_stk                                0x080001ad   Thumb Code     0  entry2.o(.ARM.Collect$$$$00000001)
    _main_scatterload                        0x080001b1   Thumb Code     0  entry5.o(.ARM.Collect$$$$00000004)
    __main_after_scatterload                 0x080001b5   Thumb Code     0  entry5.o(.ARM.Collect$$$$00000004)
    _main_clock                              0x080001b5   Thumb Code     0  entry7b.o(.ARM.Collect$$$$00000008)
    _main_cpp_init                           0x080001b5   Thumb Code     0  entry8b.o(.ARM.Collect$$$$0000000A)
    _main_init                               0x080001b5   Thumb Code     0  entry9a.o(.ARM.Collect$$$$0000000B)
    __rt_lib_shutdown_fini                   0x080001bd   Thumb Code     0  entry12b.o(.ARM.Collect$$$$0000000E)
    __rt_final_cpp                           0x080001c1   Thumb Code     0  entry10a.o(.ARM.Collect$$$$0000000F)
    __rt_final_exit                          0x080001c1   Thumb Code     0  entry11a.o(.ARM.Collect$$$$00000011)
    __asm___7_board_c_BSP_Init__cmb_get_msp  0x080001c5   Thumb Code     6  board.o(.emb_text)
    __asm___7_board_c_BSP_Init__cmb_get_psp  0x080001cb   Thumb Code     6  board.o(.emb_text)
    __asm___7_board_c_BSP_Init__cmb_get_sp   0x080001d1   Thumb Code     4  board.o(.emb_text)
    SVC_Handler                              0x080001d5   Thumb Code    28  port.o(.emb_text)
    __asm___6_port_c_39a90d8d__prvStartFirstTask 0x080001f5   Thumb Code    28  port.o(.emb_text)
    __asm___6_port_c_39a90d8d__prvEnableVFP  0x08000215   Thumb Code    16  port.o(.emb_text)
    PendSV_Handler                           0x08000229   Thumb Code    88  port.o(.emb_text)
    vPortGetIPSR                             0x08000285   Thumb Code     6  port.o(.emb_text)
    Reset_Handler                            0x0800028d   Thumb Code     8  startup_stm32f429xx.o(.text)
    ADC_IRQHandler                           0x080002a7   Thumb Code     0  startup_stm32f429xx.o(.text)
    CAN1_RX0_IRQHandler                      0x080002a7   Thumb Code     0  startup_stm32f429xx.o(.text)
    CAN1_RX1_IRQHandler                      0x080002a7   Thumb Code     0  startup_stm32f429xx.o(.text)
    CAN1_SCE_IRQHandler                      0x080002a7   Thumb Code     0  startup_stm32f429xx.o(.text)
    CAN1_TX_IRQHandler                       0x080002a7   Thumb Code     0  startup_stm32f429xx.o(.text)
    CAN2_RX0_IRQHandler                      0x080002a7   Thumb Code     0  startup_stm32f429xx.o(.text)
    CAN2_RX1_IRQHandler                      0x080002a7   Thumb Code     0  startup_stm32f429xx.o(.text)
    CAN2_SCE_IRQHandler                      0x080002a7   Thumb Code     0  startup_stm32f429xx.o(.text)
    CAN2_TX_IRQHandler                       0x080002a7   Thumb Code     0  startup_stm32f429xx.o(.text)
    DCMI_IRQHandler                          0x080002a7   Thumb Code     0  startup_stm32f429xx.o(.text)
    DMA1_Stream0_IRQHandler                  0x080002a7   Thumb Code     0  startup_stm32f429xx.o(.text)
    DMA1_Stream1_IRQHandler                  0x080002a7   Thumb Code     0  startup_stm32f429xx.o(.text)
    DMA1_Stream2_IRQHandler                  0x080002a7   Thumb Code     0  startup_stm32f429xx.o(.text)
    DMA1_Stream3_IRQHandler                  0x080002a7   Thumb Code     0  startup_stm32f429xx.o(.text)
    DMA1_Stream4_IRQHandler                  0x080002a7   Thumb Code     0  startup_stm32f429xx.o(.text)
    DMA1_Stream5_IRQHandler                  0x080002a7   Thumb Code     0  startup_stm32f429xx.o(.text)
    DMA1_Stream6_IRQHandler                  0x080002a7   Thumb Code     0  startup_stm32f429xx.o(.text)
    DMA1_Stream7_IRQHandler                  0x080002a7   Thumb Code     0  startup_stm32f429xx.o(.text)
    DMA2D_IRQHandler                         0x080002a7   Thumb Code     0  startup_stm32f429xx.o(.text)
    DMA2_Stream0_IRQHandler                  0x080002a7   Thumb Code     0  startup_stm32f429xx.o(.text)
    DMA2_Stream1_IRQHandler                  0x080002a7   Thumb Code     0  startup_stm32f429xx.o(.text)
    DMA2_Stream2_IRQHandler                  0x080002a7   Thumb Code     0  startup_stm32f429xx.o(.text)
    DMA2_Stream3_IRQHandler                  0x080002a7   Thumb Code     0  startup_stm32f429xx.o(.text)
    DMA2_Stream4_IRQHandler                  0x080002a7   Thumb Code     0  startup_stm32f429xx.o(.text)
    DMA2_Stream5_IRQHandler                  0x080002a7   Thumb Code     0  startup_stm32f429xx.o(.text)
    DMA2_Stream6_IRQHandler                  0x080002a7   Thumb Code     0  startup_stm32f429xx.o(.text)
    DMA2_Stream7_IRQHandler                  0x080002a7   Thumb Code     0  startup_stm32f429xx.o(.text)
    ETH_WKUP_IRQHandler                      0x080002a7   Thumb Code     0  startup_stm32f429xx.o(.text)
    EXTI0_IRQHandler                         0x080002a7   Thumb Code     0  startup_stm32f429xx.o(.text)
    EXTI15_10_IRQHandler                     0x080002a7   Thumb Code     0  startup_stm32f429xx.o(.text)
    EXTI1_IRQHandler                         0x080002a7   Thumb Code     0  startup_stm32f429xx.o(.text)
    EXTI2_IRQHandler                         0x080002a7   Thumb Code     0  startup_stm32f429xx.o(.text)
    EXTI3_IRQHandler                         0x080002a7   Thumb Code     0  startup_stm32f429xx.o(.text)
    EXTI4_IRQHandler                         0x080002a7   Thumb Code     0  startup_stm32f429xx.o(.text)
    EXTI9_5_IRQHandler                       0x080002a7   Thumb Code     0  startup_stm32f429xx.o(.text)
    FLASH_IRQHandler                         0x080002a7   Thumb Code     0  startup_stm32f429xx.o(.text)
    FMC_IRQHandler                           0x080002a7   Thumb Code     0  startup_stm32f429xx.o(.text)
    FPU_IRQHandler                           0x080002a7   Thumb Code     0  startup_stm32f429xx.o(.text)
    HASH_RNG_IRQHandler                      0x080002a7   Thumb Code     0  startup_stm32f429xx.o(.text)
    I2C1_ER_IRQHandler                       0x080002a7   Thumb Code     0  startup_stm32f429xx.o(.text)
    I2C1_EV_IRQHandler                       0x080002a7   Thumb Code     0  startup_stm32f429xx.o(.text)
    I2C2_ER_IRQHandler                       0x080002a7   Thumb Code     0  startup_stm32f429xx.o(.text)
    I2C2_EV_IRQHandler                       0x080002a7   Thumb Code     0  startup_stm32f429xx.o(.text)
    I2C3_ER_IRQHandler                       0x080002a7   Thumb Code     0  startup_stm32f429xx.o(.text)
    I2C3_EV_IRQHandler                       0x080002a7   Thumb Code     0  startup_stm32f429xx.o(.text)
    LTDC_ER_IRQHandler                       0x080002a7   Thumb Code     0  startup_stm32f429xx.o(.text)
    LTDC_IRQHandler                          0x080002a7   Thumb Code     0  startup_stm32f429xx.o(.text)
    OTG_FS_IRQHandler                        0x080002a7   Thumb Code     0  startup_stm32f429xx.o(.text)
    OTG_FS_WKUP_IRQHandler                   0x080002a7   Thumb Code     0  startup_stm32f429xx.o(.text)
    OTG_HS_EP1_IN_IRQHandler                 0x080002a7   Thumb Code     0  startup_stm32f429xx.o(.text)
    OTG_HS_EP1_OUT_IRQHandler                0x080002a7   Thumb Code     0  startup_stm32f429xx.o(.text)
    OTG_HS_IRQHandler                        0x080002a7   Thumb Code     0  startup_stm32f429xx.o(.text)
    OTG_HS_WKUP_IRQHandler                   0x080002a7   Thumb Code     0  startup_stm32f429xx.o(.text)
    PVD_IRQHandler                           0x080002a7   Thumb Code     0  startup_stm32f429xx.o(.text)
    RCC_IRQHandler                           0x080002a7   Thumb Code     0  startup_stm32f429xx.o(.text)
    RTC_Alarm_IRQHandler                     0x080002a7   Thumb Code     0  startup_stm32f429xx.o(.text)
    RTC_WKUP_IRQHandler                      0x080002a7   Thumb Code     0  startup_stm32f429xx.o(.text)
    SAI1_IRQHandler                          0x080002a7   Thumb Code     0  startup_stm32f429xx.o(.text)
    SDIO_IRQHandler                          0x080002a7   Thumb Code     0  startup_stm32f429xx.o(.text)
    SPI1_IRQHandler                          0x080002a7   Thumb Code     0  startup_stm32f429xx.o(.text)
    SPI2_IRQHandler                          0x080002a7   Thumb Code     0  startup_stm32f429xx.o(.text)
    SPI3_IRQHandler                          0x080002a7   Thumb Code     0  startup_stm32f429xx.o(.text)
    SPI4_IRQHandler                          0x080002a7   Thumb Code     0  startup_stm32f429xx.o(.text)
    SPI5_IRQHandler                          0x080002a7   Thumb Code     0  startup_stm32f429xx.o(.text)
    SPI6_IRQHandler                          0x080002a7   Thumb Code     0  startup_stm32f429xx.o(.text)
    TAMP_STAMP_IRQHandler                    0x080002a7   Thumb Code     0  startup_stm32f429xx.o(.text)
    TIM1_BRK_TIM9_IRQHandler                 0x080002a7   Thumb Code     0  startup_stm32f429xx.o(.text)
    TIM1_CC_IRQHandler                       0x080002a7   Thumb Code     0  startup_stm32f429xx.o(.text)
    TIM1_TRG_COM_TIM11_IRQHandler            0x080002a7   Thumb Code     0  startup_stm32f429xx.o(.text)
    TIM1_UP_TIM10_IRQHandler                 0x080002a7   Thumb Code     0  startup_stm32f429xx.o(.text)
    TIM2_IRQHandler                          0x080002a7   Thumb Code     0  startup_stm32f429xx.o(.text)
    TIM3_IRQHandler                          0x080002a7   Thumb Code     0  startup_stm32f429xx.o(.text)
    TIM4_IRQHandler                          0x080002a7   Thumb Code     0  startup_stm32f429xx.o(.text)
    TIM5_IRQHandler                          0x080002a7   Thumb Code     0  startup_stm32f429xx.o(.text)
    TIM6_DAC_IRQHandler                      0x080002a7   Thumb Code     0  startup_stm32f429xx.o(.text)
    TIM7_IRQHandler                          0x080002a7   Thumb Code     0  startup_stm32f429xx.o(.text)
    TIM8_BRK_TIM12_IRQHandler                0x080002a7   Thumb Code     0  startup_stm32f429xx.o(.text)
    TIM8_CC_IRQHandler                       0x080002a7   Thumb Code     0  startup_stm32f429xx.o(.text)
    TIM8_TRG_COM_TIM14_IRQHandler            0x080002a7   Thumb Code     0  startup_stm32f429xx.o(.text)
    TIM8_UP_TIM13_IRQHandler                 0x080002a7   Thumb Code     0  startup_stm32f429xx.o(.text)
    UART4_IRQHandler                         0x080002a7   Thumb Code     0  startup_stm32f429xx.o(.text)
    UART5_IRQHandler                         0x080002a7   Thumb Code     0  startup_stm32f429xx.o(.text)
    UART7_IRQHandler                         0x080002a7   Thumb Code     0  startup_stm32f429xx.o(.text)
    UART8_IRQHandler                         0x080002a7   Thumb Code     0  startup_stm32f429xx.o(.text)
    USART2_IRQHandler                        0x080002a7   Thumb Code     0  startup_stm32f429xx.o(.text)
    USART3_IRQHandler                        0x080002a7   Thumb Code     0  startup_stm32f429xx.o(.text)
    USART6_IRQHandler                        0x080002a7   Thumb Code     0  startup_stm32f429xx.o(.text)
    WWDG_IRQHandler                          0x080002a7   Thumb Code     0  startup_stm32f429xx.o(.text)
    HardFault_Handler                        0x080002b1   Thumb Code    12  cmb_fault.o(.text)
    __aeabi_uldivmod                         0x080002bd   Thumb Code    98  uldiv.o(.text)
    ___aeabi_memcpy8$move                    0x0800031f   Thumb Code     0  memmovea.o(.text)
    __aeabi_memcpy                           0x0800031f   Thumb Code    64  memmovea.o(.text)
    __aeabi_memcpy4                          0x0800031f   Thumb Code     0  memmovea.o(.text)
    __aeabi_memmove                          0x0800031f   Thumb Code     0  memmovea.o(.text)
    __aeabi_memmove4                         0x0800031f   Thumb Code     0  memmovea.o(.text)
    __aeabi_memmove8                         0x0800031f   Thumb Code     0  memmovea.o(.text)
    __aeabi_memset                           0x0800035f   Thumb Code    14  memseta.o(.text)
    __aeabi_memset4                          0x0800035f   Thumb Code     0  memseta.o(.text)
    __aeabi_memset8                          0x0800035f   Thumb Code     0  memseta.o(.text)
    __aeabi_memclr                           0x0800036d   Thumb Code     4  memseta.o(.text)
    __aeabi_memclr4                          0x0800036d   Thumb Code     0  memseta.o(.text)
    __aeabi_memclr8                          0x0800036d   Thumb Code     0  memseta.o(.text)
    _memset$wrapper                          0x08000371   Thumb Code    18  memseta.o(.text)
    strncpy                                  0x08000383   Thumb Code    24  strncpy.o(.text)
    memcmp                                   0x0800039b   Thumb Code    26  memcmp.o(.text)
    __aeabi_llsl                             0x080003b5   Thumb Code    30  llshl.o(.text)
    _ll_shift_l                              0x080003b5   Thumb Code     0  llshl.o(.text)
    __aeabi_llsr                             0x080003d3   Thumb Code    32  llushr.o(.text)
    _ll_ushift_r                             0x080003d3   Thumb Code     0  llushr.o(.text)
    __scatterload                            0x080003f5   Thumb Code    28  init.o(.text)
    __scatterload_rt2                        0x080003f5   Thumb Code     0  init.o(.text)
    __decompress                             0x08000419   Thumb Code     0  __dczerorl.o(.text)
    __decompress0                            0x08000419   Thumb Code    58  __dczerorl.o(.text)
    BSP_Init                                 0x08000519   Thumb Code    46  board.o(i.BSP_Init)
    Bsp_Eth_Init                             0x08000585   Thumb Code   208  bsp_eth.o(i.Bsp_Eth_Init)
    BusFault_Handler                         0x080006c1   Thumb Code     2  stm32f4xx_it.o(i.BusFault_Handler)
    DEBUG_USART_Config                       0x080006c5   Thumb Code    30  bsp_debug_usart.o(i.DEBUG_USART_Config)
    DebugMon_Handler                         0x080006ed   Thumb Code     2  stm32f4xx_it.o(i.DebugMon_Handler)
    ETH_IRQHandler                           0x08000741   Thumb Code    32  bsp_eth.o(i.ETH_IRQHandler)
    EnableUartIT                             0x08000891   Thumb Code     2  bsp_debug_usart.o(i.EnableUartIT)
    HAL_DMA_Abort_IT                         0x08000901   Thumb Code    36  stm32f4xx_hal_dma.o(i.HAL_DMA_Abort_IT)
    HAL_Delay                                0x08000925   Thumb Code    32  stm32f4xx_hal.o(i.HAL_Delay)
    HAL_ETH_DMARxDescListInit                0x08000949   Thumb Code   114  stm32f4xx_hal_eth.o(i.HAL_ETH_DMARxDescListInit)
    HAL_ETH_DMATxDescListInit                0x080009bb   Thumb Code   120  stm32f4xx_hal_eth.o(i.HAL_ETH_DMATxDescListInit)
    HAL_ETH_DeInit                           0x08000a33   Thumb Code    26  stm32f4xx_hal_eth.o(i.HAL_ETH_DeInit)
    HAL_ETH_ErrorCallback                    0x08000a4d   Thumb Code    18  bsp_eth.o(i.HAL_ETH_ErrorCallback)
    HAL_ETH_GetReceivedFrame                 0x08000a79   Thumb Code   122  stm32f4xx_hal_eth.o(i.HAL_ETH_GetReceivedFrame)
    HAL_ETH_IRQHandler                       0x08000af3   Thumb Code   122  stm32f4xx_hal_eth.o(i.HAL_ETH_IRQHandler)
    HAL_ETH_Init                             0x08000b6d   Thumb Code   554  stm32f4xx_hal_eth.o(i.HAL_ETH_Init)
    HAL_ETH_MspDeInit                        0x08000dfd   Thumb Code    78  bsp_eth.o(i.HAL_ETH_MspDeInit)
    HAL_ETH_MspInit                          0x08000e65   Thumb Code   146  bsp_eth.o(i.HAL_ETH_MspInit)
    HAL_ETH_ReadPHYRegister                  0x08000f11   Thumb Code   148  stm32f4xx_hal_eth.o(i.HAL_ETH_ReadPHYRegister)
    HAL_ETH_RxCpltCallback                   0x08000fe1   Thumb Code    40  bsp_eth.o(i.HAL_ETH_RxCpltCallback)
    HAL_ETH_Start                            0x08001011   Thumb Code   132  stm32f4xx_hal_eth.o(i.HAL_ETH_Start)
    HAL_ETH_TransmitFrame                    0x08001095   Thumb Code   264  stm32f4xx_hal_eth.o(i.HAL_ETH_TransmitFrame)
    HAL_ETH_TxCpltCallback                   0x0800119d   Thumb Code     2  bsp_eth.o(i.HAL_ETH_TxCpltCallback)
    HAL_ETH_WritePHYRegister                 0x080011a1   Thumb Code   138  stm32f4xx_hal_eth.o(i.HAL_ETH_WritePHYRegister)
    HAL_GPIO_DeInit                          0x08001269   Thumb Code   344  stm32f4xx_hal_gpio.o(i.HAL_GPIO_DeInit)
    HAL_GPIO_Init                            0x08001431   Thumb Code   682  stm32f4xx_hal_gpio.o(i.HAL_GPIO_Init)
    HAL_GPIO_WritePin                        0x08001769   Thumb Code    46  stm32f4xx_hal_gpio.o(i.HAL_GPIO_WritePin)
    HAL_GetTick                              0x080017d5   Thumb Code     6  stm32f4xx_hal.o(i.HAL_GetTick)
    HAL_IncTick                              0x080017e1   Thumb Code    12  stm32f4xx_hal.o(i.HAL_IncTick)
    HAL_Init                                 0x080017f1   Thumb Code    48  stm32f4xx_hal.o(i.HAL_Init)
    HAL_InitTick                             0x08001825   Thumb Code    54  stm32f4xx_hal.o(i.HAL_InitTick)
    HAL_MspInit                              0x08001865   Thumb Code     2  stm32f4xx_hal.o(i.HAL_MspInit)
    HAL_NVIC_EnableIRQ                       0x08001869   Thumb Code    36  stm32f4xx_hal_cortex.o(i.HAL_NVIC_EnableIRQ)
    HAL_NVIC_SetPriority                     0x080018cd   Thumb Code    92  stm32f4xx_hal_cortex.o(i.HAL_NVIC_SetPriority)
    HAL_NVIC_SetPriorityGrouping             0x0800196d   Thumb Code    58  stm32f4xx_hal_cortex.o(i.HAL_NVIC_SetPriorityGrouping)
    HAL_PWREx_EnableOverDrive                0x080019f1   Thumb Code   100  stm32f4xx_hal_pwr_ex.o(i.HAL_PWREx_EnableOverDrive)
    HAL_RCC_ClockConfig                      0x08001a61   Thumb Code   534  stm32f4xx_hal_rcc.o(i.HAL_RCC_ClockConfig)
    HAL_RCC_GetHCLKFreq                      0x08001cc5   Thumb Code     6  stm32f4xx_hal_rcc.o(i.HAL_RCC_GetHCLKFreq)
    HAL_RCC_GetPCLK1Freq                     0x08001cd1   Thumb Code    20  stm32f4xx_hal_rcc.o(i.HAL_RCC_GetPCLK1Freq)
    HAL_RCC_GetPCLK2Freq                     0x08001cf1   Thumb Code    20  stm32f4xx_hal_rcc.o(i.HAL_RCC_GetPCLK2Freq)
    HAL_RCC_GetSysClockFreq                  0x08001d11   Thumb Code    88  stm32f4xx_hal_rcc.o(i.HAL_RCC_GetSysClockFreq)
    HAL_RCC_OscConfig                        0x08001d75   Thumb Code  1092  stm32f4xx_hal_rcc.o(i.HAL_RCC_OscConfig)
    HAL_SYSTICK_CLKSourceConfig              0x080021b9   Thumb Code    40  stm32f4xx_hal_cortex.o(i.HAL_SYSTICK_CLKSourceConfig)
    HAL_SYSTICK_Config                       0x08002221   Thumb Code    40  stm32f4xx_hal_cortex.o(i.HAL_SYSTICK_Config)
    HAL_UART_ErrorCallback                   0x08002249   Thumb Code     2  stm32f4xx_hal_uart.o(i.HAL_UART_ErrorCallback)
    HAL_UART_IRQHandler                      0x0800224d   Thumb Code   266  stm32f4xx_hal_uart.o(i.HAL_UART_IRQHandler)
    HAL_UART_Init                            0x0800235d   Thumb Code   256  stm32f4xx_hal_uart.o(i.HAL_UART_Init)
    HAL_UART_MspInit                         0x080024b9   Thumb Code   124  bsp_debug_usart.o(i.HAL_UART_MspInit)
    HAL_UART_RxCpltCallback                  0x0800253d   Thumb Code     2  stm32f4xx_hal_uart.o(i.HAL_UART_RxCpltCallback)
    HAL_UART_Transmit                        0x0800253f   Thumb Code   186  stm32f4xx_hal_uart.o(i.HAL_UART_Transmit)
    HAL_UART_TxCpltCallback                  0x080025f9   Thumb Code     2  stm32f4xx_hal_uart.o(i.HAL_UART_TxCpltCallback)
    LED_GPIO_Config                          0x080025fd   Thumb Code   156  bsp_led.o(i.LED_GPIO_Config)
    LWIP_Init                                0x080026a5   Thumb Code   132  sys_arch.o(i.LWIP_Init)
    MemManage_Handler                        0x08002795   Thumb Code     2  stm32f4xx_it.o(i.MemManage_Handler)
    NMI_Handler                              0x08002797   Thumb Code     2  stm32f4xx_it.o(i.NMI_Handler)
    SysTick_Handler                          0x080027b9   Thumb Code    42  stm32f4xx_it.o(i.SysTick_Handler)
    SystemInit                               0x08002889   Thumb Code    66  system_stm32f4xx.o(i.SystemInit)
    USART1_IRQHandler                        0x08002dd5   Thumb Code     6  bsp_debug_usart.o(i.USART1_IRQHandler)
    UsageFault_Handler                       0x08002de1   Thumb Code     2  stm32f4xx_it.o(i.UsageFault_Handler)
    __0printf$8                              0x08002de5   Thumb Code    22  printf8.o(i.__0printf$8)
    __1printf$8                              0x08002de5   Thumb Code     0  printf8.o(i.__0printf$8)
    __2printf                                0x08002de5   Thumb Code     0  printf8.o(i.__0printf$8)
    __0sprintf$8                             0x08002e05   Thumb Code    34  printf8.o(i.__0sprintf$8)
    __1sprintf$8                             0x08002e05   Thumb Code     0  printf8.o(i.__0sprintf$8)
    __2sprintf                               0x08002e05   Thumb Code     0  printf8.o(i.__0sprintf$8)
    __scatterload_copy                       0x08002e2d   Thumb Code    14  handlers.o(i.__scatterload_copy)
    __scatterload_null                       0x08002e3b   Thumb Code     2  handlers.o(i.__scatterload_null)
    __scatterload_zeroinit                   0x08002e3d   Thumb Code    14  handlers.o(i.__scatterload_zeroinit)
    assert_failed                            0x080032ad   Thumb Code    24  board.o(i.assert_failed)
    cm_backtrace_assert                      0x080032e1   Thumb Code    64  cm_backtrace.o(i.cm_backtrace_assert)
    cm_backtrace_call_stack                  0x08003359   Thumb Code   150  cm_backtrace.o(i.cm_backtrace_call_stack)
    cm_backtrace_fault                       0x080033f9   Thumb Code   388  cm_backtrace.o(i.cm_backtrace_fault)
    cm_backtrace_firmware_info               0x08003635   Thumb Code    30  cm_backtrace.o(i.cm_backtrace_firmware_info)
    cm_backtrace_init                        0x08003661   Thumb Code    68  cm_backtrace.o(i.cm_backtrace_init)
    dhcp_arp_reply                           0x080036bd   Thumb Code    34  dhcp.o(i.dhcp_arp_reply)
    dhcp_coarse_tmr                          0x08003841   Thumb Code   168  dhcp.o(i.dhcp_coarse_tmr)
    dhcp_fine_tmr                            0x08003c2d   Thumb Code    46  dhcp.o(i.dhcp_fine_tmr)
    dhcp_release_and_stop                    0x08004495   Thumb Code   180  dhcp.o(i.dhcp_release_and_stop)
    dhcp_renew                               0x08004551   Thumb Code   210  dhcp.o(i.dhcp_renew)
    dhcp_start                               0x080047c5   Thumb Code   130  dhcp.o(i.dhcp_start)
    dhcp_supplied_address                    0x0800487d   Thumb Code    28  dhcp.o(i.dhcp_supplied_address)
    etharp_cleanup_netif                     0x08004bad   Thumb Code    40  etharp.o(i.etharp_cleanup_netif)
    etharp_input                             0x08004dd1   Thumb Code   162  etharp.o(i.etharp_input)
    etharp_output                            0x08004e85   Thumb Code   256  etharp.o(i.etharp_output)
    etharp_query                             0x08005065   Thumb Code   276  etharp.o(i.etharp_query)
    etharp_request                           0x080052d1   Thumb Code     6  etharp.o(i.etharp_request)
    etharp_tmr                               0x080052fd   Thumb Code    88  etharp.o(i.etharp_tmr)
    ethernet_input                           0x0800540d   Thumb Code   160  ethernet.o(i.ethernet_input)
    ethernet_output                          0x080054b1   Thumb Code    90  ethernet.o(i.ethernet_output)
    ethernetif_init                          0x08005541   Thumb Code    78  ethernetif.o(i.ethernetif_init)
    ethernetif_input                         0x080055d5   Thumb Code    64  ethernetif.o(i.ethernetif_input)
    fputc                                    0x08005859   Thumb Code    20  bsp_debug_usart.o(i.fputc)
    icmp_dest_unreach                        0x08005871   Thumb Code     8  icmp.o(i.icmp_dest_unreach)
    icmp_input                               0x08005879   Thumb Code   272  icmp.o(i.icmp_input)
    icmp_time_exceeded                       0x08005aa1   Thumb Code     8  icmp.o(i.icmp_time_exceeded)
    inet_chksum_pbuf                         0x08005aa9   Thumb Code    74  inet_chksum.o(i.inet_chksum_pbuf)
    ip4_addr_isbroadcast_u32                 0x08005af3   Thumb Code    46  ip4_addr.o(i.ip4_addr_isbroadcast_u32)
    ip4_frag                                 0x08005b21   Thumb Code   406  ip4_frag.o(i.ip4_frag)
    ip4_input                                0x08005d09   Thumb Code   402  ip4.o(i.ip4_input)
    ip4_output_if                            0x08005ed1   Thumb Code    30  ip4.o(i.ip4_output_if)
    ip4_output_if_src                        0x08005ef1   Thumb Code   198  ip4.o(i.ip4_output_if_src)
    ip4_reass                                0x08005ffd   Thumb Code   486  ip4_frag.o(i.ip4_reass)
    ip4_route                                0x08006225   Thumb Code    86  ip4.o(i.ip4_route)
    ip_reass_tmr                             0x08006641   Thumb Code    40  ip4_frag.o(i.ip_reass_tmr)
    lwip_htonl                               0x080069ad   Thumb Code     4  def.o(i.lwip_htonl)
    lwip_htons                               0x080069b1   Thumb Code     4  def.o(i.lwip_htons)
    lwip_init                                0x080069b5   Thumb Code    34  init.o(i.lwip_init)
    lwip_netconn_do_connect                  0x08006c11   Thumb Code   194  api_msg.o(i.lwip_netconn_do_connect)
    lwip_netconn_do_delconn                  0x08006e09   Thumb Code   220  api_msg.o(i.lwip_netconn_do_delconn)
    lwip_netconn_do_newconn                  0x08006f21   Thumb Code    18  api_msg.o(i.lwip_netconn_do_newconn)
    lwip_netconn_do_send                     0x08006f33   Thumb Code    66  api_msg.o(i.lwip_netconn_do_send)
    lwip_netconn_is_err_msg                  0x080072a9   Thumb Code    56  api_msg.o(i.lwip_netconn_is_err_msg)
    lwip_standard_chksum                     0x080072f1   Thumb Code    86  inet_chksum.o(i.lwip_standard_chksum)
    main                                     0x08007349   Thumb Code    42  main.o(i.main)
    mem_free                                 0x0800738d   Thumb Code   182  mem.o(i.mem_free)
    mem_init                                 0x080074e5   Thumb Code    68  mem.o(i.mem_init)
    mem_malloc                               0x0800754d   Thumb Code   280  mem.o(i.mem_malloc)
    mem_trim                                 0x0800772d   Thumb Code   284  mem.o(i.mem_trim)
    memp_free                                0x08007899   Thumb Code    26  memp.o(i.memp_free)
    memp_init                                0x080078d5   Thumb Code    24  memp.o(i.memp_init)
    memp_init_pool                           0x080078f1   Thumb Code    42  memp.o(i.memp_init_pool)
    memp_malloc                              0x0800791d   Thumb Code    30  memp.o(i.memp_malloc)
    netbuf_delete                            0x08007961   Thumb Code    34  netbuf.o(i.netbuf_delete)
    netbuf_new                               0x08007983   Thumb Code    24  netbuf.o(i.netbuf_new)
    netbuf_ref                               0x0800799d   Thumb Code    70  netbuf.o(i.netbuf_ref)
    netconn_alloc                            0x080079fd   Thumb Code   118  api_msg.o(i.netconn_alloc)
    netconn_connect                          0x08007ab5   Thumb Code    44  api_lib.o(i.netconn_connect)
    netconn_delete                           0x08007b09   Thumb Code    30  api_lib.o(i.netconn_delete)
    netconn_err                              0x08007bc3   Thumb Code    30  api_lib.o(i.netconn_err)
    netconn_free                             0x08007be1   Thumb Code    74  api_msg.o(i.netconn_free)
    netconn_new_with_proto_and_callback      0x08007cd5   Thumb Code   126  api_lib.o(i.netconn_new_with_proto_and_callback)
    netconn_prepare_delete                   0x08007dd5   Thumb Code    28  api_lib.o(i.netconn_prepare_delete)
    netconn_send                             0x08007df5   Thumb Code    34  api_lib.o(i.netconn_send)
    netif_add                                0x08007e39   Thumb Code   200  netif.o(i.netif_add)
    netif_get_by_index                       0x0800802d   Thumb Code    32  netif.o(i.netif_get_by_index)
    netif_init                               0x08008051   Thumb Code     2  netif.o(i.netif_init)
    netif_set_addr                           0x080080b9   Thumb Code    92  netif.o(i.netif_set_addr)
    netif_set_default                        0x08008119   Thumb Code     6  netif.o(i.netif_set_default)
    netif_set_down                           0x08008125   Thumb Code    34  netif.o(i.netif_set_down)
    netif_set_up                             0x08008169   Thumb Code    32  netif.o(i.netif_set_up)
    pbuf_add_header                          0x080081a5   Thumb Code     6  pbuf.o(i.pbuf_add_header)
    pbuf_alloc                               0x0800820d   Thumb Code   266  pbuf.o(i.pbuf_alloc)
    pbuf_alloc_reference                     0x080083c5   Thumb Code    60  pbuf.o(i.pbuf_alloc_reference)
    pbuf_alloced_custom                      0x08008415   Thumb Code    56  pbuf.o(i.pbuf_alloced_custom)
    pbuf_cat                                 0x0800844d   Thumb Code    70  pbuf.o(i.pbuf_cat)
    pbuf_chain                               0x0800850d   Thumb Code    18  pbuf.o(i.pbuf_chain)
    pbuf_clen                                0x0800851f   Thumb Code    18  pbuf.o(i.pbuf_clen)
    pbuf_clone                               0x08008531   Thumb Code    38  pbuf.o(i.pbuf_clone)
    pbuf_copy                                0x0800856d   Thumb Code   182  pbuf.o(i.pbuf_copy)
    pbuf_copy_partial                        0x080086c5   Thumb Code   110  pbuf.o(i.pbuf_copy_partial)
    pbuf_free                                0x08008779   Thumb Code   140  pbuf.o(i.pbuf_free)
    pbuf_header_force                        0x08008861   Thumb Code     6  pbuf.o(i.pbuf_header_force)
    pbuf_realloc                             0x08008891   Thumb Code   112  pbuf.o(i.pbuf_realloc)
    pbuf_ref                                 0x0800894d   Thumb Code    38  pbuf.o(i.pbuf_ref)
    pbuf_remove_header                       0x08008989   Thumb Code    58  pbuf.o(i.pbuf_remove_header)
    pvPortMalloc                             0x08009569   Thumb Code   214  heap_4.o(i.pvPortMalloc)
    pvTaskIncrementMutexHeldCount            0x08009679   Thumb Code    18  tasks.o(i.pvTaskIncrementMutexHeldCount)
    pxPortInitialiseStack                    0x08009691   Thumb Code    40  port.o(i.pxPortInitialiseStack)
    sys_arch_mbox_fetch                      0x08009965   Thumb Code    66  sys_arch.o(i.sys_arch_mbox_fetch)
    sys_arch_mbox_tryfetch                   0x080099a7   Thumb Code    30  sys_arch.o(i.sys_arch_mbox_tryfetch)
    sys_arch_protect                         0x080099c5   Thumb Code    10  sys_arch.o(i.sys_arch_protect)
    sys_arch_sem_wait                        0x080099cf   Thumb Code    58  sys_arch.o(i.sys_arch_sem_wait)
    sys_arch_unprotect                       0x08009a09   Thumb Code     4  sys_arch.o(i.sys_arch_unprotect)
    sys_check_timeouts                       0x08009a0d   Thumb Code    60  timeouts.o(i.sys_check_timeouts)
    sys_init                                 0x08009a4d   Thumb Code    28  sys_arch.o(i.sys_init)
    sys_mbox_free                            0x08009a71   Thumb Code    20  sys_arch.o(i.sys_mbox_free)
    sys_mbox_new                             0x08009a85   Thumb Code    30  sys_arch.o(i.sys_mbox_new)
    sys_mbox_set_invalid                     0x08009aa3   Thumb Code     6  sys_arch.o(i.sys_mbox_set_invalid)
    sys_mbox_trypost                         0x08009aa9   Thumb Code    28  sys_arch.o(i.sys_mbox_trypost)
    sys_mbox_valid                           0x08009ac5   Thumb Code    10  sys_arch.o(i.sys_mbox_valid)
    sys_mutex_lock                           0x08009acf   Thumb Code    12  sys_arch.o(i.sys_mutex_lock)
    sys_mutex_new                            0x08009add   Thumb Code    30  sys_arch.o(i.sys_mutex_new)
    sys_mutex_unlock                         0x08009b19   Thumb Code    12  sys_arch.o(i.sys_mutex_unlock)
    sys_now                                  0x08009b25   Thumb Code    12  sys_arch.o(i.sys_now)
    sys_sem_free                             0x08009b35   Thumb Code    16  sys_arch.o(i.sys_sem_free)
    sys_sem_new                              0x08009b45   Thumb Code    60  sys_arch.o(i.sys_sem_new)
    sys_sem_set_invalid                      0x08009b9d   Thumb Code     6  sys_arch.o(i.sys_sem_set_invalid)
    sys_sem_signal                           0x08009ba5   Thumb Code    30  sys_arch.o(i.sys_sem_signal)
    sys_sem_valid                            0x08009be5   Thumb Code    10  sys_arch.o(i.sys_sem_valid)
    sys_thread_new                           0x08009bf1   Thumb Code    52  sys_arch.o(i.sys_thread_new)
    sys_timeout                              0x08009c4d   Thumb Code    38  timeouts.o(i.sys_timeout)
    sys_timeouts_init                        0x08009d45   Thumb Code    28  timeouts.o(i.sys_timeouts_init)
    sys_timeouts_sleeptime                   0x08009d69   Thumb Code    34  timeouts.o(i.sys_timeouts_sleeptime)
    tcp_abandon                              0x08009d91   Thumb Code   230  tcp.o(i.tcp_abandon)
    tcp_abort                                0x08009ecd   Thumb Code     6  tcp.o(i.tcp_abort)
    tcp_accept                               0x08009ed3   Thumb Code    14  tcp.o(i.tcp_accept)
    tcp_alloc                                0x08009ee1   Thumb Code   282  tcp.o(i.tcp_alloc)
    tcp_arg                                  0x0800a009   Thumb Code     8  tcp.o(i.tcp_arg)
    tcp_close                                0x0800a011   Thumb Code    40  tcp.o(i.tcp_close)
    tcp_connect                              0x0800a21d   Thumb Code   262  tcp.o(i.tcp_connect)
    tcp_eff_send_mss_netif                   0x0800a4a1   Thumb Code    44  tcp.o(i.tcp_eff_send_mss_netif)
    tcp_enqueue_flags                        0x0800a4f5   Thumb Code   216  tcp_out.o(i.tcp_enqueue_flags)
    tcp_err                                  0x0800a699   Thumb Code    26  tcp.o(i.tcp_err)
    tcp_fasttmr                              0x0800a6dd   Thumb Code   102  tcp.o(i.tcp_fasttmr)
    tcp_free                                 0x0800a749   Thumb Code    28  tcp.o(i.tcp_free)
    tcp_init                                 0x0800a875   Thumb Code     2  tcp.o(i.tcp_init)
    tcp_input                                0x0800a879   Thumb Code  1424  tcp_in.o(i.tcp_input)
    tcp_keepalive                            0x0800ae79   Thumb Code    74  tcp_out.o(i.tcp_keepalive)
    tcp_netif_ip_addr_changed                0x0800b109   Thumb Code    70  tcp.o(i.tcp_netif_ip_addr_changed)
    tcp_new_ip_type                          0x0800b1b5   Thumb Code     6  tcp.o(i.tcp_new_ip_type)
    tcp_next_iss                             0x0800b219   Thumb Code    22  tcp.o(i.tcp_next_iss)
    tcp_output                               0x0800b251   Thumb Code   530  tcp_out.o(i.tcp_output)
    tcp_pcb_purge                            0x0800b9d1   Thumb Code    70  tcp.o(i.tcp_pcb_purge)
    tcp_pcb_remove                           0x0800ba35   Thumb Code   122  tcp.o(i.tcp_pcb_remove)
    tcp_poll                                 0x0800bb21   Thumb Code    42  tcp.o(i.tcp_poll)
    tcp_process_refused_data                 0x0800bfd1   Thumb Code   124  tcp.o(i.tcp_process_refused_data)
    tcp_recv                                 0x0800c555   Thumb Code    26  tcp.o(i.tcp_recv)
    tcp_recv_null                            0x0800c599   Thumb Code    50  tcp.o(i.tcp_recv_null)
    tcp_recved                               0x0800c5e9   Thumb Code    90  tcp.o(i.tcp_recved)
    tcp_rexmit                               0x0800c685   Thumb Code   110  tcp_out.o(i.tcp_rexmit)
    tcp_rexmit_fast                          0x0800c70d   Thumb Code   100  tcp_out.o(i.tcp_rexmit_fast)
    tcp_rexmit_rto                           0x0800c791   Thumb Code    34  tcp_out.o(i.tcp_rexmit_rto)
    tcp_rexmit_rto_commit                    0x0800c7d1   Thumb Code    36  tcp_out.o(i.tcp_rexmit_rto_commit)
    tcp_rexmit_rto_prepare                   0x0800c819   Thumb Code   110  tcp_out.o(i.tcp_rexmit_rto_prepare)
    tcp_rst                                  0x0800c8bd   Thumb Code   110  tcp_out.o(i.tcp_rst)
    tcp_seg_free                             0x0800c965   Thumb Code    28  tcp.o(i.tcp_seg_free)
    tcp_segs_free                            0x0800c981   Thumb Code    18  tcp.o(i.tcp_segs_free)
    tcp_send_empty_ack                       0x0800c995   Thumb Code   102  tcp_out.o(i.tcp_send_empty_ack)
    tcp_send_fin                             0x0800ca1d   Thumb Code    78  tcp_out.o(i.tcp_send_fin)
    tcp_sent                                 0x0800ca89   Thumb Code    24  tcp.o(i.tcp_sent)
    tcp_shutdown                             0x0800cac9   Thumb Code    92  tcp.o(i.tcp_shutdown)
    tcp_slowtmr                              0x0800cb41   Thumb Code   794  tcp.o(i.tcp_slowtmr)
    tcp_split_unsent_seg                     0x0800d039   Thumb Code   326  tcp_out.o(i.tcp_split_unsent_seg)
    tcp_timer_needed                         0x0800d1e9   Thumb Code    36  timeouts.o(i.tcp_timer_needed)
    tcp_tmr                                  0x0800d2b5   Thumb Code    28  tcp.o(i.tcp_tmr)
    tcp_trigger_input_pcb_close              0x0800d2d5   Thumb Code    12  tcp_in.o(i.tcp_trigger_input_pcb_close)
    tcp_update_rcv_ann_wnd                   0x0800d2e5   Thumb Code    76  tcp.o(i.tcp_update_rcv_ann_wnd)
    tcp_write                                0x0800d371   Thumb Code   988  tcp_out.o(i.tcp_write)
    tcp_zero_window_probe                    0x0800da3d   Thumb Code   190  tcp_out.o(i.tcp_zero_window_probe)
    tcpip_init                               0x0800db21   Thumb Code    68  tcpip.o(i.tcpip_init)
    tcpip_inpkt                              0x0800dbbd   Thumb Code    76  tcpip.o(i.tcpip_inpkt)
    tcpip_input                              0x0800dc1d   Thumb Code    20  tcpip.o(i.tcpip_input)
    tcpip_send_msg_wait_sem                  0x0800dc39   Thumb Code    26  tcpip.o(i.tcpip_send_msg_wait_sem)
    udp_bind                                 0x0800dd95   Thumb Code   182  udp.o(i.udp_bind)
    udp_client_task_init                     0x0800dfa5   Thumb Code    90  udp_client.o(i.udp_client_task_init)
    udp_connect                              0x0800e0a1   Thumb Code    92  udp.o(i.udp_connect)
    udp_init                                 0x0800e139   Thumb Code     2  udp.o(i.udp_init)
    udp_input                                0x0800e13d   Thumb Code   288  udp.o(i.udp_input)
    udp_netif_ip_addr_changed                0x0800e361   Thumb Code    48  udp.o(i.udp_netif_ip_addr_changed)
    udp_new                                  0x0800e395   Thumb Code    26  udp.o(i.udp_new)
    udp_new_ip_type                          0x0800e3af   Thumb Code     4  udp.o(i.udp_new_ip_type)
    udp_recv                                 0x0800e3b5   Thumb Code    14  udp.o(i.udp_recv)
    udp_remove                               0x0800e3dd   Thumb Code    50  udp.o(i.udp_remove)
    udp_send                                 0x0800e42d   Thumb Code    36  udp.o(i.udp_send)
    udp_sendto                               0x0800e51d   Thumb Code    82  udp.o(i.udp_sendto)
    udp_sendto_if                            0x0800e5c1   Thumb Code    80  udp.o(i.udp_sendto_if)
    udp_sendto_if_src                        0x0800e689   Thumb Code   234  udp.o(i.udp_sendto_if_src)
    uxListRemove                             0x0800e851   Thumb Code    36  list.o(i.uxListRemove)
    uxQueueMessagesWaiting                   0x0800e875   Thumb Code    32  queue.o(i.uxQueueMessagesWaiting)
    vListInitialise                          0x0800e8bd   Thumb Code    22  list.o(i.vListInitialise)
    vListInitialiseItem                      0x0800e8d3   Thumb Code     6  list.o(i.vListInitialiseItem)
    vListInsert                              0x0800e8d9   Thumb Code    48  list.o(i.vListInsert)
    vListInsertEnd                           0x0800e909   Thumb Code    24  list.o(i.vListInsertEnd)
    vPortEnterCritical                       0x0800e921   Thumb Code    50  port.o(i.vPortEnterCritical)
    vPortExitCritical                        0x0800e995   Thumb Code    34  port.o(i.vPortExitCritical)
    vPortFree                                0x0800e9f5   Thumb Code    94  heap_4.o(i.vPortFree)
    vPortSetupTimerInterrupt                 0x0800ea8d   Thumb Code    26  port.o(i.vPortSetupTimerInterrupt)
    vPortValidateInterruptPriority           0x0800eaad   Thumb Code    70  port.o(i.vPortValidateInterruptPriority)
    vQueueAddToRegistry                      0x0800eb35   Thumb Code    32  queue.o(i.vQueueAddToRegistry)
    vQueueDelete                             0x0800eb59   Thumb Code    34  queue.o(i.vQueueDelete)
    vQueueUnregisterQueue                    0x0800eba5   Thumb Code    36  queue.o(i.vQueueUnregisterQueue)
    vQueueWaitForMessageRestricted           0x0800ebcd   Thumb Code    68  queue.o(i.vQueueWaitForMessageRestricted)
    vTaskDelay                               0x0800ec11   Thumb Code    62  tasks.o(i.vTaskDelay)
    vTaskDelete                              0x0800ec81   Thumb Code   152  tasks.o(i.vTaskDelete)
    vTaskMissedYield                         0x0800ed51   Thumb Code     8  tasks.o(i.vTaskMissedYield)
    vTaskPlaceOnEventList                    0x0800ed5d   Thumb Code    44  tasks.o(i.vTaskPlaceOnEventList)
    vTaskPlaceOnEventListRestricted          0x0800edb5   Thumb Code    52  tasks.o(i.vTaskPlaceOnEventListRestricted)
    vTaskPriorityInherit                     0x0800ee15   Thumb Code   124  tasks.o(i.vTaskPriorityInherit)
    vTaskResume                              0x0800ee99   Thumb Code   112  tasks.o(i.vTaskResume)
    vTaskSetTimeOutState                     0x0800ef3d   Thumb Code    30  tasks.o(i.vTaskSetTimeOutState)
    vTaskStartScheduler                      0x0800ef89   Thumb Code    96  tasks.o(i.vTaskStartScheduler)
    vTaskSuspend                             0x0800f021   Thumb Code   154  tasks.o(i.vTaskSuspend)
    vTaskSuspendAll                          0x0800f0f5   Thumb Code    10  tasks.o(i.vTaskSuspendAll)
    vTaskSwitchContext                       0x0800f105   Thumb Code    80  tasks.o(i.vTaskSwitchContext)
    xPortStartScheduler                      0x0800f185   Thumb Code   196  port.o(i.xPortStartScheduler)
    xPortSysTickHandler                      0x0800f295   Thumb Code    38  port.o(i.xPortSysTickHandler)
    xQueueCreateCountingSemaphore            0x0800f2c1   Thumb Code    54  queue.o(i.xQueueCreateCountingSemaphore)
    xQueueCreateMutex                        0x0800f321   Thumb Code    36  queue.o(i.xQueueCreateMutex)
    xQueueGenericCreate                      0x0800f345   Thumb Code    78  queue.o(i.xQueueGenericCreate)
    xQueueGenericReceive                     0x0800f3c5   Thumb Code   348  queue.o(i.xQueueGenericReceive)
    xQueueGenericReset                       0x0800f54d   Thumb Code   128  queue.o(i.xQueueGenericReset)
    xQueueGenericSend                        0x0800f5f9   Thumb Code   350  queue.o(i.xQueueGenericSend)
    xQueueGenericSendFromISR                 0x0800f785   Thumb Code   188  queue.o(i.xQueueGenericSendFromISR)
    xQueueGiveFromISR                        0x0800f869   Thumb Code   162  queue.o(i.xQueueGiveFromISR)
    xTaskCheckForTimeOut                     0x0800f935   Thumb Code    94  tasks.o(i.xTaskCheckForTimeOut)
    xTaskCreate                              0x0800f9c1   Thumb Code    86  tasks.o(i.xTaskCreate)
    xTaskGetSchedulerState                   0x0800fa19   Thumb Code    22  tasks.o(i.xTaskGetSchedulerState)
    xTaskGetTickCount                        0x0800fa35   Thumb Code     6  tasks.o(i.xTaskGetTickCount)
    xTaskIncrementTick                       0x0800fa41   Thumb Code   188  tasks.o(i.xTaskIncrementTick)
    xTaskPriorityDisinherit                  0x0800fb2d   Thumb Code   136  tasks.o(i.xTaskPriorityDisinherit)
    xTaskRemoveFromEventList                 0x0800fbe5   Thumb Code   102  tasks.o(i.xTaskRemoveFromEventList)
    xTaskResumeAll                           0x0800fc81   Thumb Code   180  tasks.o(i.xTaskResumeAll)
    xTimerCreate                             0x0800fd69   Thumb Code    74  timers.o(i.xTimerCreate)
    xTimerCreateTimerTask                    0x0800fde1   Thumb Code    58  timers.o(i.xTimerCreateTimerTask)
    xTimerGenericCommand                     0x0800fe59   Thumb Code    96  timers.o(i.xTimerGenericCommand)
    AHBPrescTable                            0x0800fee8   Data          16  system_stm32f4xx.o(.constdata)
    APBPrescTable                            0x0800fef8   Data           8  system_stm32f4xx.o(.constdata)
    netconn_aborted                          0x0800ff08   Data           1  api_msg.o(.constdata)
    netconn_reset                            0x0800ff09   Data           1  api_msg.o(.constdata)
    netconn_closed                           0x0800ff0a   Data           1  api_msg.o(.constdata)
    memp_UDP_PCB                             0x0800ff0c   Data          12  memp.o(.constdata)
    memp_TCP_PCB                             0x0800ff18   Data          12  memp.o(.constdata)
    memp_TCP_PCB_LISTEN                      0x0800ff24   Data          12  memp.o(.constdata)
    memp_TCP_SEG                             0x0800ff30   Data          12  memp.o(.constdata)
    memp_REASSDATA                           0x0800ff3c   Data          12  memp.o(.constdata)
    memp_FRAG_PBUF                           0x0800ff48   Data          12  memp.o(.constdata)
    memp_NETBUF                              0x0800ff54   Data          12  memp.o(.constdata)
    memp_NETCONN                             0x0800ff60   Data          12  memp.o(.constdata)
    memp_TCPIP_MSG_API                       0x0800ff6c   Data          12  memp.o(.constdata)
    memp_TCPIP_MSG_INPKT                     0x0800ff78   Data          12  memp.o(.constdata)
    memp_SYS_TIMEOUT                         0x0800ff84   Data          12  memp.o(.constdata)
    memp_PBUF                                0x0800ff90   Data          12  memp.o(.constdata)
    memp_PBUF_POOL                           0x0800ff9c   Data          12  memp.o(.constdata)
    memp_pools                               0x0800ffa8   Data          52  memp.o(.constdata)
    tcp_pcb_lists                            0x08010020   Data          16  tcp.o(.constdata)
    lwip_cyclic_timers                       0x08010030   Data          40  timeouts.o(.constdata)
    ip_addr_any                              0x08010058   Data           4  ip4_addr.o(.constdata)
    ip_addr_broadcast                        0x0801005c   Data           4  ip4_addr.o(.constdata)
    ethbroadcast                             0x08010060   Data           6  ethernet.o(.constdata)
    ethzero                                  0x08010066   Data           6  ethernet.o(.constdata)
    Region$$Table$$Base                      0x08010ab8   Number         0  anon$$obj.o(Region$$Table)
    Image$$ER_IROM1$$Limit                   0x08010ad8   Number         0  anon$$obj.o ABSOLUTE
    Region$$Table$$Limit                     0x08010ad8   Number         0  anon$$obj.o(Region$$Table)
    SystemCoreClock                          0x20000000   Data           4  system_stm32f4xx.o(.data)
    uwTickFreq                               0x20000004   Data           1  stm32f4xx_hal.o(.data)
    uwTickPrio                               0x20000008   Data           4  stm32f4xx_hal.o(.data)
    uwTick                                   0x2000000c   Data           4  stm32f4xx_hal.o(.data)
    udp_client_state                         0x2000001c   Data           1  udp_client.o(.data)
    pxCurrentTCB                             0x20000030   Data           4  tasks.o(.data)
    lock_tcpip_core                          0x200000b0   Data           4  tcpip.o(.data)
    netif_list                               0x200000fc   Data           4  netif.o(.data)
    netif_default                            0x20000100   Data           4  netif.o(.data)
    tcp_active_pcbs_changed                  0x20000104   Data           1  tcp.o(.data)
    tcp_ticks                                0x20000110   Data           4  tcp.o(.data)
    tcp_bound_pcbs                           0x20000114   Data           4  tcp.o(.data)
    tcp_listen_pcbs                          0x20000118   Data           4  tcp.o(.data)
    tcp_active_pcbs                          0x2000011c   Data           4  tcp.o(.data)
    tcp_tw_pcbs                              0x20000120   Data           4  tcp.o(.data)
    tcp_input_pcb                            0x20000144   Data           4  tcp_in.o(.data)
    udp_pcbs                                 0x20000158   Data           4  udp.o(.data)
    dhcp_rx_options_given                    0x20000168   Data           8  dhcp.o(.data)
    s_xSemaphore                             0x2000017c   Data           4  ethernetif.o(.data)
    tx_sem                                   0x20000180   Data           4  ethernetif.o(.data)
    eth_tx_mb                                0x20000184   Data           4  ethernetif.o(.data)
    lwip_sys_now                             0x20000190   Data           4  sys_arch.o(.data)
    ipaddr                                   0x20000194   Data           4  sys_arch.o(.data)
    netmask                                  0x20000198   Data           4  sys_arch.o(.data)
    gw                                       0x2000019c   Data           4  sys_arch.o(.data)
    __stdout                                 0x200001b8   Data           4  stdout.o(.data)
    UartHandle                               0x200001bc   Data          64  bsp_debug_usart.o(.bss)
    heth                                     0x200001fc   Data          72  bsp_eth.o(.bss)
    DMARxDscrTab                             0x20000244   Data         256  bsp_eth.o(.bss)
    DMATxDscrTab                             0x20000344   Data         256  bsp_eth.o(.bss)
    Rx_Buff                                  0x20000444   Data       12192  bsp_eth.o(.bss)
    Tx_Buff                                  0x200033e4   Data       12192  bsp_eth.o(.bss)
    xQueueRegistry                           0x20006384   Data          80  queue.o(.bss)
    ip_data                                  0x2000f6e0   Data          24  ip.o(.bss)
    ram_heap                                 0x2000f6f8   Data       15379  mem.o(.bss)
    memp_memory_UDP_PCB_base                 0x2001330b   Data         131  memp.o(.bss)
    memp_memory_TCP_PCB_base                 0x2001338e   Data         915  memp.o(.bss)
    memp_memory_TCP_PCB_LISTEN_base          0x20013721   Data         171  memp.o(.bss)
    memp_memory_TCP_SEG_base                 0x200137cc   Data        2403  memp.o(.bss)
    memp_memory_REASSDATA_base               0x2001412f   Data         163  memp.o(.bss)
    memp_memory_FRAG_PBUF_base               0x200141d2   Data         363  memp.o(.bss)
    memp_memory_NETBUF_base                  0x2001433d   Data          35  memp.o(.bss)
    memp_memory_NETCONN_base                 0x20014360   Data         163  memp.o(.bss)
    memp_memory_TCPIP_MSG_API_base           0x20014403   Data         131  memp.o(.bss)
    memp_memory_TCPIP_MSG_INPKT_base         0x20014486   Data         131  memp.o(.bss)
    memp_memory_SYS_TIMEOUT_base             0x20014509   Data          99  memp.o(.bss)
    memp_memory_PBUF_base                    0x2001456c   Data         403  memp.o(.bss)
    memp_memory_PBUF_POOL_base               0x200146ff   Data       68943  memp.o(.bss)
    dhcp_rx_options_val                      0x20025460   Data          32  dhcp.o(.bss)
    gnetif                                   0x20025590   Data          52  sys_arch.o(.bss)
    STACK$$Base                              0x200256f8   Number         0  startup_stm32f429xx.o(STACK)
    STACK$$Limit                             0x20025af8   Number         0  startup_stm32f429xx.o(STACK)
    __initial_sp                             0x20025af8   Data           0  startup_stm32f429xx.o(STACK)



==============================================================================

Memory Map of the image

  Image Entry point : 0x080001ad

  Load Region LR_IROM1 (Base: 0x08000000, Size: 0x00010c94, Max: 0x00100000, ABSOLUTE, COMPRESSED[0x00010af8])

    Execution Region ER_IROM1 (Exec base: 0x08000000, Load base: 0x08000000, Size: 0x00010ad8, Max: 0x00100000, ABSOLUTE)

    Exec Addr    Load Addr    Size         Type   Attr      Idx    E Section Name        Object

    0x08000000   0x08000000   0x000001ac   Data   RO            3    RESET               startup_stm32f429xx.o
    0x080001ac   0x080001ac   0x00000000   Code   RO         9619  * .ARM.Collect$$$$00000000  mc_w.l(entry.o)
    0x080001ac   0x080001ac   0x00000004   Code   RO         9933    .ARM.Collect$$$$00000001  mc_w.l(entry2.o)
    0x080001b0   0x080001b0   0x00000004   Code   RO         9936    .ARM.Collect$$$$00000004  mc_w.l(entry5.o)
    0x080001b4   0x080001b4   0x00000000   Code   RO         9938    .ARM.Collect$$$$00000008  mc_w.l(entry7b.o)
    0x080001b4   0x080001b4   0x00000000   Code   RO         9940    .ARM.Collect$$$$0000000A  mc_w.l(entry8b.o)
    0x080001b4   0x080001b4   0x00000008   Code   RO         9941    .ARM.Collect$$$$0000000B  mc_w.l(entry9a.o)
    0x080001bc   0x080001bc   0x00000004   Code   RO         9948    .ARM.Collect$$$$0000000E  mc_w.l(entry12b.o)
    0x080001c0   0x080001c0   0x00000000   Code   RO         9943    .ARM.Collect$$$$0000000F  mc_w.l(entry10a.o)
    0x080001c0   0x080001c0   0x00000000   Code   RO         9945    .ARM.Collect$$$$00000011  mc_w.l(entry11a.o)
    0x080001c0   0x080001c0   0x00000004   Code   RO         9934    .ARM.Collect$$$$00002712  mc_w.l(entry2.o)
    0x080001c4   0x080001c4   0x00000010   Code   RO         4107    .emb_text           board.o
    0x080001d4   0x080001d4   0x000000b6   Code   RO         5471    .emb_text           port.o
    0x0800028a   0x0800028a   0x00000002   PAD
    0x0800028c   0x0800028c   0x00000024   Code   RO            4    .text               startup_stm32f429xx.o
    0x080002b0   0x080002b0   0x0000000c   Code   RO         9615    .text               cmb_fault.o
    0x080002bc   0x080002bc   0x00000062   Code   RO         9622    .text               mc_w.l(uldiv.o)
    0x0800031e   0x0800031e   0x00000040   Code   RO         9654    .text               mc_w.l(memmovea.o)
    0x0800035e   0x0800035e   0x00000024   Code   RO         9656    .text               mc_w.l(memseta.o)
    0x08000382   0x08000382   0x00000018   Code   RO         9658    .text               mc_w.l(strncpy.o)
    0x0800039a   0x0800039a   0x0000001a   Code   RO         9662    .text               mc_w.l(memcmp.o)
    0x080003b4   0x080003b4   0x0000001e   Code   RO         9952    .text               mc_w.l(llshl.o)
    0x080003d2   0x080003d2   0x00000020   Code   RO         9954    .text               mc_w.l(llushr.o)
    0x080003f2   0x080003f2   0x00000002   PAD
    0x080003f4   0x080003f4   0x00000024   Code   RO         9976    .text               mc_w.l(init.o)
    0x08000418   0x08000418   0x0000003a   Code   RO         9994    .text               mc_w.l(__dczerorl.o)
    0x08000452   0x08000452   0x00000002   PAD
    0x08000454   0x08000454   0x000000c4   Code   RO         3590    i.AppTaskCreate     main.o
    0x08000518   0x08000518   0x0000006c   Code   RO         4108    i.BSP_Init          board.o
    0x08000584   0x08000584   0x0000013c   Code   RO         4175    i.Bsp_Eth_Init      bsp_eth.o
    0x080006c0   0x080006c0   0x00000002   Code   RO         3904    i.BusFault_Handler  stm32f4xx_it.o
    0x080006c2   0x080006c2   0x00000002   PAD
    0x080006c4   0x080006c4   0x00000028   Code   RO         4010    i.DEBUG_USART_Config  bsp_debug_usart.o
    0x080006ec   0x080006ec   0x00000002   Code   RO         3905    i.DebugMon_Handler  stm32f4xx_it.o
    0x080006ee   0x080006ee   0x00000002   PAD
    0x080006f0   0x080006f0   0x00000020   Code   RO          261    i.ETH_Delay         stm32f4xx_hal_eth.o
    0x08000710   0x08000710   0x0000002e   Code   RO          262    i.ETH_FlushTransmitFIFO  stm32f4xx_hal_eth.o
    0x0800073e   0x0800073e   0x00000002   PAD
    0x08000740   0x08000740   0x00000024   Code   RO         4176    i.ETH_IRQHandler    bsp_eth.o
    0x08000764   0x08000764   0x0000012c   Code   RO          263    i.ETH_MACDMAConfig  stm32f4xx_hal_eth.o
    0x08000890   0x08000890   0x00000002   Code   RO         4011    i.EnableUartIT      bsp_debug_usart.o
    0x08000892   0x08000892   0x00000002   PAD
    0x08000894   0x08000894   0x0000006c   Code   RO         4109    i.GPIO_CLK_Init     board.o
    0x08000900   0x08000900   0x00000024   Code   RO         2358    i.HAL_DMA_Abort_IT  stm32f4xx_hal_dma.o
    0x08000924   0x08000924   0x00000024   Code   RO         2794    i.HAL_Delay         stm32f4xx_hal.o
    0x08000948   0x08000948   0x00000072   Code   RO          266    i.HAL_ETH_DMARxDescListInit  stm32f4xx_hal_eth.o
    0x080009ba   0x080009ba   0x00000078   Code   RO          267    i.HAL_ETH_DMATxDescListInit  stm32f4xx_hal_eth.o
    0x08000a32   0x08000a32   0x0000001a   Code   RO          268    i.HAL_ETH_DeInit    stm32f4xx_hal_eth.o
    0x08000a4c   0x08000a4c   0x0000002c   Code   RO         4177    i.HAL_ETH_ErrorCallback  bsp_eth.o
    0x08000a78   0x08000a78   0x0000007a   Code   RO          270    i.HAL_ETH_GetReceivedFrame  stm32f4xx_hal_eth.o
    0x08000af2   0x08000af2   0x0000007a   Code   RO          273    i.HAL_ETH_IRQHandler  stm32f4xx_hal_eth.o
    0x08000b6c   0x08000b6c   0x00000290   Code   RO          274    i.HAL_ETH_Init      stm32f4xx_hal_eth.o
    0x08000dfc   0x08000dfc   0x00000068   Code   RO         4178    i.HAL_ETH_MspDeInit  bsp_eth.o
    0x08000e64   0x08000e64   0x000000ac   Code   RO         4179    i.HAL_ETH_MspInit   bsp_eth.o
    0x08000f10   0x08000f10   0x000000d0   Code   RO          276    i.HAL_ETH_ReadPHYRegister  stm32f4xx_hal_eth.o
    0x08000fe0   0x08000fe0   0x00000030   Code   RO         4180    i.HAL_ETH_RxCpltCallback  bsp_eth.o
    0x08001010   0x08001010   0x00000084   Code   RO          278    i.HAL_ETH_Start     stm32f4xx_hal_eth.o
    0x08001094   0x08001094   0x00000108   Code   RO          280    i.HAL_ETH_TransmitFrame  stm32f4xx_hal_eth.o
    0x0800119c   0x0800119c   0x00000002   Code   RO         4181    i.HAL_ETH_TxCpltCallback  bsp_eth.o
    0x0800119e   0x0800119e   0x00000002   PAD
    0x080011a0   0x080011a0   0x000000c8   Code   RO          282    i.HAL_ETH_WritePHYRegister  stm32f4xx_hal_eth.o
    0x08001268   0x08001268   0x000001c8   Code   RO         2288    i.HAL_GPIO_DeInit   stm32f4xx_hal_gpio.o
    0x08001430   0x08001430   0x00000338   Code   RO         2291    i.HAL_GPIO_Init     stm32f4xx_hal_gpio.o
    0x08001768   0x08001768   0x0000006c   Code   RO         2295    i.HAL_GPIO_WritePin  stm32f4xx_hal_gpio.o
    0x080017d4   0x080017d4   0x0000000c   Code   RO         2802    i.HAL_GetTick       stm32f4xx_hal.o
    0x080017e0   0x080017e0   0x00000010   Code   RO         2806    i.HAL_IncTick       stm32f4xx_hal.o
    0x080017f0   0x080017f0   0x00000034   Code   RO         2807    i.HAL_Init          stm32f4xx_hal.o
    0x08001824   0x08001824   0x00000040   Code   RO         2808    i.HAL_InitTick      stm32f4xx_hal.o
    0x08001864   0x08001864   0x00000002   Code   RO         2810    i.HAL_MspInit       stm32f4xx_hal.o
    0x08001866   0x08001866   0x00000002   PAD
    0x08001868   0x08001868   0x00000064   Code   RO         2657    i.HAL_NVIC_EnableIRQ  stm32f4xx_hal_cortex.o
    0x080018cc   0x080018cc   0x000000a0   Code   RO         2663    i.HAL_NVIC_SetPriority  stm32f4xx_hal_cortex.o
    0x0800196c   0x0800196c   0x00000084   Code   RO         2664    i.HAL_NVIC_SetPriorityGrouping  stm32f4xx_hal_cortex.o
    0x080019f0   0x080019f0   0x00000070   Code   RO         2586    i.HAL_PWREx_EnableOverDrive  stm32f4xx_hal_pwr_ex.o
    0x08001a60   0x08001a60   0x00000264   Code   RO         1870    i.HAL_RCC_ClockConfig  stm32f4xx_hal_rcc.o
    0x08001cc4   0x08001cc4   0x0000000c   Code   RO         1875    i.HAL_RCC_GetHCLKFreq  stm32f4xx_hal_rcc.o
    0x08001cd0   0x08001cd0   0x00000020   Code   RO         1877    i.HAL_RCC_GetPCLK1Freq  stm32f4xx_hal_rcc.o
    0x08001cf0   0x08001cf0   0x00000020   Code   RO         1878    i.HAL_RCC_GetPCLK2Freq  stm32f4xx_hal_rcc.o
    0x08001d10   0x08001d10   0x00000064   Code   RO         1879    i.HAL_RCC_GetSysClockFreq  stm32f4xx_hal_rcc.o
    0x08001d74   0x08001d74   0x00000444   Code   RO         1882    i.HAL_RCC_OscConfig  stm32f4xx_hal_rcc.o
    0x080021b8   0x080021b8   0x00000068   Code   RO         2666    i.HAL_SYSTICK_CLKSourceConfig  stm32f4xx_hal_cortex.o
    0x08002220   0x08002220   0x00000028   Code   RO         2668    i.HAL_SYSTICK_Config  stm32f4xx_hal_cortex.o
    0x08002248   0x08002248   0x00000002   Code   RO         1564    i.HAL_UART_ErrorCallback  stm32f4xx_hal_uart.o
    0x0800224a   0x0800224a   0x00000002   PAD
    0x0800224c   0x0800224c   0x00000110   Code   RO         1567    i.HAL_UART_IRQHandler  stm32f4xx_hal_uart.o
    0x0800235c   0x0800235c   0x0000015c   Code   RO         1568    i.HAL_UART_Init     stm32f4xx_hal_uart.o
    0x080024b8   0x080024b8   0x00000084   Code   RO         4012    i.HAL_UART_MspInit  bsp_debug_usart.o
    0x0800253c   0x0800253c   0x00000002   Code   RO         1574    i.HAL_UART_RxCpltCallback  stm32f4xx_hal_uart.o
    0x0800253e   0x0800253e   0x000000ba   Code   RO         1576    i.HAL_UART_Transmit  stm32f4xx_hal_uart.o
    0x080025f8   0x080025f8   0x00000002   Code   RO         1579    i.HAL_UART_TxCpltCallback  stm32f4xx_hal_uart.o
    0x080025fa   0x080025fa   0x00000002   PAD
    0x080025fc   0x080025fc   0x000000a8   Code   RO         4083    i.LED_GPIO_Config   bsp_led.o
    0x080026a4   0x080026a4   0x000000f0   Code   RO         9359    i.LWIP_Init         sys_arch.o
    0x08002794   0x08002794   0x00000002   Code   RO         3906    i.MemManage_Handler  stm32f4xx_it.o
    0x08002796   0x08002796   0x00000002   Code   RO         3907    i.NMI_Handler       stm32f4xx_it.o
    0x08002798   0x08002798   0x00000020   Code   RO         2670    i.NVIC_SetPriority  stm32f4xx_hal_cortex.o
    0x080027b8   0x080027b8   0x0000002a   Code   RO         3908    i.SysTick_Handler   stm32f4xx_it.o
    0x080027e2   0x080027e2   0x00000002   PAD
    0x080027e4   0x080027e4   0x000000a4   Code   RO         4110    i.SystemClock_Config  board.o
    0x08002888   0x08002888   0x00000054   Code   RO           14    i.SystemInit        system_stm32f4xx.o
    0x080028dc   0x080028dc   0x0000001c   Code   RO         3591    i.Test1_Task        main.o
    0x080028f8   0x080028f8   0x0000001c   Code   RO         3592    i.Test2_Task        main.o
    0x08002914   0x08002914   0x00000010   Code   RO         1581    i.UART_DMAAbortOnError  stm32f4xx_hal_uart.o
    0x08002924   0x08002924   0x0000001c   Code   RO         1591    i.UART_EndRxTransfer  stm32f4xx_hal_uart.o
    0x08002940   0x08002940   0x0000008c   Code   RO         1593    i.UART_Receive_IT   stm32f4xx_hal_uart.o
    0x080029cc   0x080029cc   0x00000344   Code   RO         1594    i.UART_SetConfig    stm32f4xx_hal_uart.o
    0x08002d10   0x08002d10   0x00000062   Code   RO         1595    i.UART_Transmit_IT  stm32f4xx_hal_uart.o
    0x08002d72   0x08002d72   0x00000062   Code   RO         1596    i.UART_WaitOnFlagUntilTimeout  stm32f4xx_hal_uart.o
    0x08002dd4   0x08002dd4   0x0000000c   Code   RO         4014    i.USART1_IRQHandler  bsp_debug_usart.o
    0x08002de0   0x08002de0   0x00000002   Code   RO         3909    i.UsageFault_Handler  stm32f4xx_it.o
    0x08002de2   0x08002de2   0x00000002   PAD
    0x08002de4   0x08002de4   0x00000020   Code   RO         9877    i.__0printf$8       mc_w.l(printf8.o)
    0x08002e04   0x08002e04   0x00000028   Code   RO         9879    i.__0sprintf$8      mc_w.l(printf8.o)
    0x08002e2c   0x08002e2c   0x0000000e   Code   RO         9988    i.__scatterload_copy  mc_w.l(handlers.o)
    0x08002e3a   0x08002e3a   0x00000002   Code   RO         9989    i.__scatterload_null  mc_w.l(handlers.o)
    0x08002e3c   0x08002e3c   0x0000000e   Code   RO         9990    i.__scatterload_zeroinit  mc_w.l(handlers.o)
    0x08002e4a   0x08002e4a   0x00000002   PAD
    0x08002e4c   0x08002e4c   0x00000404   Code   RO         9884    i._printf_core      mc_w.l(printf8.o)
    0x08003250   0x08003250   0x00000024   Code   RO         9885    i._printf_post_padding  mc_w.l(printf8.o)
    0x08003274   0x08003274   0x0000002e   Code   RO         9886    i._printf_pre_padding  mc_w.l(printf8.o)
    0x080032a2   0x080032a2   0x0000000a   Code   RO         9888    i._sputc            mc_w.l(printf8.o)
    0x080032ac   0x080032ac   0x00000034   Code   RO         4111    i.assert_failed     board.o
    0x080032e0   0x080032e0   0x00000078   Code   RO         9556    i.cm_backtrace_assert  cm_backtrace.o
    0x08003358   0x08003358   0x000000a0   Code   RO         9557    i.cm_backtrace_call_stack  cm_backtrace.o
    0x080033f8   0x080033f8   0x0000023c   Code   RO         9558    i.cm_backtrace_fault  cm_backtrace.o
    0x08003634   0x08003634   0x0000002c   Code   RO         9559    i.cm_backtrace_firmware_info  cm_backtrace.o
    0x08003660   0x08003660   0x0000005c   Code   RO         9560    i.cm_backtrace_init  cm_backtrace.o
    0x080036bc   0x080036bc   0x00000034   Code   RO         8515    i.dhcp_arp_reply    dhcp.o
    0x080036f0   0x080036f0   0x0000011c   Code   RO         8516    i.dhcp_bind         dhcp.o
    0x0800380c   0x0800380c   0x00000034   Code   RO         8517    i.dhcp_check        dhcp.o
    0x08003840   0x08003840   0x000000ac   Code   RO         8519    i.dhcp_coarse_tmr   dhcp.o
    0x080038ec   0x080038ec   0x0000016c   Code   RO         8520    i.dhcp_create_msg   dhcp.o
    0x08003a58   0x08003a58   0x00000050   Code   RO         8521    i.dhcp_dec_pcb_refcount  dhcp.o
    0x08003aa8   0x08003aa8   0x0000009c   Code   RO         8522    i.dhcp_decline      dhcp.o
    0x08003b44   0x08003b44   0x000000e8   Code   RO         8523    i.dhcp_discover     dhcp.o
    0x08003c2c   0x08003c2c   0x00000034   Code   RO         8524    i.dhcp_fine_tmr     dhcp.o
    0x08003c60   0x08003c60   0x00000068   Code   RO         8525    i.dhcp_handle_ack   dhcp.o
    0x08003cc8   0x08003cc8   0x00000084   Code   RO         8526    i.dhcp_inc_pcb_refcount  dhcp.o
    0x08003d4c   0x08003d4c   0x00000030   Code   RO         8529    i.dhcp_option       dhcp.o
    0x08003d7c   0x08003d7c   0x00000054   Code   RO         8530    i.dhcp_option_byte  dhcp.o
    0x08003dd0   0x08003dd0   0x00000070   Code   RO         8531    i.dhcp_option_long  dhcp.o
    0x08003e40   0x08003e40   0x00000060   Code   RO         8532    i.dhcp_option_short  dhcp.o
    0x08003ea0   0x08003ea0   0x00000024   Code   RO         8533    i.dhcp_option_trailer  dhcp.o
    0x08003ec4   0x08003ec4   0x000002d8   Code   RO         8534    i.dhcp_parse_reply  dhcp.o
    0x0800419c   0x0800419c   0x000000d8   Code   RO         8535    i.dhcp_rebind       dhcp.o
    0x08004274   0x08004274   0x00000100   Code   RO         8536    i.dhcp_reboot       dhcp.o
    0x08004374   0x08004374   0x00000120   Code   RO         8537    i.dhcp_recv         dhcp.o
    0x08004494   0x08004494   0x000000bc   Code   RO         8539    i.dhcp_release_and_stop  dhcp.o
    0x08004550   0x08004550   0x000000d8   Code   RO         8540    i.dhcp_renew        dhcp.o
    0x08004628   0x08004628   0x0000018c   Code   RO         8541    i.dhcp_select       dhcp.o
    0x080047b4   0x080047b4   0x00000010   Code   RO         8542    i.dhcp_set_state    dhcp.o
    0x080047c4   0x080047c4   0x000000b8   Code   RO         8544    i.dhcp_start        dhcp.o
    0x0800487c   0x0800487c   0x0000001c   Code   RO         8546    i.dhcp_supplied_address  dhcp.o
    0x08004898   0x08004898   0x0000006c   Code   RO         8547    i.dhcp_timeout      dhcp.o
    0x08004904   0x08004904   0x00000048   Code   RO         7090    i.do_memp_free_pool  memp.o
    0x0800494c   0x0800494c   0x00000058   Code   RO         7091    i.do_memp_malloc_pool  memp.o
    0x080049a4   0x080049a4   0x000000bc   Code   RO         9561    i.dump_stack        cm_backtrace.o
    0x08004a60   0x08004a60   0x0000014c   Code   RO         5797    i.err_tcp           api_msg.o
    0x08004bac   0x08004bac   0x0000002c   Code   RO         8744    i.etharp_cleanup_netif  etharp.o
    0x08004bd8   0x08004bd8   0x000001d4   Code   RO         8746    i.etharp_find_entry  etharp.o
    0x08004dac   0x08004dac   0x00000024   Code   RO         8747    i.etharp_free_entry  etharp.o
    0x08004dd0   0x08004dd0   0x000000b4   Code   RO         8749    i.etharp_input      etharp.o
    0x08004e84   0x08004e84   0x00000138   Code   RO         8750    i.etharp_output     etharp.o
    0x08004fbc   0x08004fbc   0x000000a8   Code   RO         8751    i.etharp_output_to_arp_index  etharp.o
    0x08005064   0x08005064   0x00000170   Code   RO         8752    i.etharp_query      etharp.o
    0x080051d4   0x080051d4   0x000000fc   Code   RO         8753    i.etharp_raw        etharp.o
    0x080052d0   0x080052d0   0x0000000c   Code   RO         8754    i.etharp_request    etharp.o
    0x080052dc   0x080052dc   0x00000020   Code   RO         8755    i.etharp_request_dst  etharp.o
    0x080052fc   0x080052fc   0x0000005c   Code   RO         8756    i.etharp_tmr        etharp.o
    0x08005358   0x08005358   0x000000b4   Code   RO         8757    i.etharp_update_arp_entry  etharp.o
    0x0800540c   0x0800540c   0x000000a4   Code   RO         9135    i.ethernet_input    ethernet.o
    0x080054b0   0x080054b0   0x00000090   Code   RO         9136    i.ethernet_output   ethernet.o
    0x08005540   0x08005540   0x00000094   Code   RO         9304    i.ethernetif_init   ethernetif.o
    0x080055d4   0x080055d4   0x00000044   Code   RO         9305    i.ethernetif_input  ethernetif.o
    0x08005618   0x08005618   0x00000240   Code   RO         9562    i.fault_diagnosis   cm_backtrace.o
    0x08005858   0x08005858   0x00000018   Code   RO         4017    i.fputc             bsp_debug_usart.o
    0x08005870   0x08005870   0x00000008   Code   RO         8855    i.icmp_dest_unreach  icmp.o
    0x08005878   0x08005878   0x00000180   Code   RO         8856    i.icmp_input        icmp.o
    0x080059f8   0x080059f8   0x000000a8   Code   RO         8857    i.icmp_send_response  icmp.o
    0x08005aa0   0x08005aa0   0x00000008   Code   RO         8858    i.icmp_time_exceeded  icmp.o
    0x08005aa8   0x08005aa8   0x0000004a   Code   RO         6829    i.inet_chksum_pbuf  inet_chksum.o
    0x08005af2   0x08005af2   0x0000002e   Code   RO         8995    i.ip4_addr_isbroadcast_u32  ip4_addr.o
    0x08005b20   0x08005b20   0x000001e8   Code   RO         9064    i.ip4_frag          ip4_frag.o
    0x08005d08   0x08005d08   0x0000019c   Code   RO         8921    i.ip4_input         ip4.o
    0x08005ea4   0x08005ea4   0x0000002c   Code   RO         8922    i.ip4_input_accept  ip4.o
    0x08005ed0   0x08005ed0   0x0000001e   Code   RO         8924    i.ip4_output_if     ip4.o
    0x08005eee   0x08005eee   0x00000002   PAD
    0x08005ef0   0x08005ef0   0x0000010c   Code   RO         8925    i.ip4_output_if_src  ip4.o
    0x08005ffc   0x08005ffc   0x00000228   Code   RO         9065    i.ip4_reass         ip4_frag.o
    0x08006224   0x08006224   0x00000060   Code   RO         8926    i.ip4_route         ip4.o
    0x08006284   0x08006284   0x00000024   Code   RO         9066    i.ip_frag_free_pbuf_custom_ref  ip4_frag.o
    0x080062a8   0x080062a8   0x000001b4   Code   RO         9067    i.ip_reass_chain_frag_into_datagram_and_validate  ip4_frag.o
    0x0800645c   0x0800645c   0x0000004c   Code   RO         9068    i.ip_reass_dequeue_datagram  ip4_frag.o
    0x080064a8   0x080064a8   0x00000114   Code   RO         9069    i.ip_reass_free_complete_datagram  ip4_frag.o
    0x080065bc   0x080065bc   0x00000084   Code   RO         9070    i.ip_reass_remove_oldest_datagram  ip4_frag.o
    0x08006640   0x08006640   0x0000002c   Code   RO         9071    i.ip_reass_tmr      ip4_frag.o
    0x0800666c   0x0800666c   0x0000002c   Code   RO         9072    i.ipfrag_free_pbuf_custom  ip4_frag.o
    0x08006698   0x08006698   0x00000148   Code   RO         9306    i.low_level_init    ethernetif.o
    0x080067e0   0x080067e0   0x000000bc   Code   RO         9307    i.low_level_input   ethernetif.o
    0x0800689c   0x0800689c   0x000000d4   Code   RO         9308    i.low_level_output  ethernetif.o
    0x08006970   0x08006970   0x0000003c   Code   RO         8266    i.lwip_cyclic_timer  timeouts.o
    0x080069ac   0x080069ac   0x00000004   Code   RO         6756    i.lwip_htonl        def.o
    0x080069b0   0x080069b0   0x00000004   Code   RO         6757    i.lwip_htons        def.o
    0x080069b4   0x080069b4   0x00000022   Code   RO         6901    i.lwip_init         init.o
    0x080069d6   0x080069d6   0x00000002   PAD
    0x080069d8   0x080069d8   0x00000238   Code   RO         5801    i.lwip_netconn_do_close_internal  api_msg.o
    0x08006c10   0x08006c10   0x000000ec   Code   RO         5802    i.lwip_netconn_do_connect  api_msg.o
    0x08006cfc   0x08006cfc   0x0000010c   Code   RO         5803    i.lwip_netconn_do_connected  api_msg.o
    0x08006e08   0x08006e08   0x00000118   Code   RO         5804    i.lwip_netconn_do_delconn  api_msg.o
    0x08006f20   0x08006f20   0x00000012   Code   RO         5808    i.lwip_netconn_do_newconn  api_msg.o
    0x08006f32   0x08006f32   0x00000042   Code   RO         5810    i.lwip_netconn_do_send  api_msg.o
    0x08006f74   0x08006f74   0x000002f0   Code   RO         5812    i.lwip_netconn_do_writemore  api_msg.o
    0x08007264   0x08007264   0x00000044   Code   RO         5813    i.lwip_netconn_err_to_msg  api_msg.o
    0x080072a8   0x080072a8   0x00000048   Code   RO         5814    i.lwip_netconn_is_err_msg  api_msg.o
    0x080072f0   0x080072f0   0x00000056   Code   RO         6836    i.lwip_standard_chksum  inet_chksum.o
    0x08007346   0x08007346   0x00000002   PAD
    0x08007348   0x08007348   0x00000044   Code   RO         3593    i.main              main.o
    0x0800738c   0x0800738c   0x00000158   Code   RO         7024    i.mem_free          mem.o
    0x080074e4   0x080074e4   0x00000068   Code   RO         7025    i.mem_init          mem.o
    0x0800754c   0x0800754c   0x000001d0   Code   RO         7026    i.mem_malloc        mem.o
    0x0800771c   0x0800771c   0x00000010   Code   RO         7027    i.mem_to_ptr        mem.o
    0x0800772c   0x0800772c   0x0000016c   Code   RO         7028    i.mem_trim          mem.o
    0x08007898   0x08007898   0x0000003c   Code   RO         7092    i.memp_free         memp.o
    0x080078d4   0x080078d4   0x0000001c   Code   RO         7094    i.memp_init         memp.o
    0x080078f0   0x080078f0   0x0000002a   Code   RO         7095    i.memp_init_pool    memp.o
    0x0800791a   0x0800791a   0x00000002   PAD
    0x0800791c   0x0800791c   0x00000044   Code   RO         7096    i.memp_malloc       memp.o
    0x08007960   0x08007960   0x00000022   Code   RO         6077    i.netbuf_delete     netbuf.o
    0x08007982   0x08007982   0x00000018   Code   RO         6080    i.netbuf_new        netbuf.o
    0x0800799a   0x0800799a   0x00000002   PAD
    0x0800799c   0x0800799c   0x00000060   Code   RO         6082    i.netbuf_ref        netbuf.o
    0x080079fc   0x080079fc   0x000000a0   Code   RO         5815    i.netconn_alloc     api_msg.o
    0x08007a9c   0x08007a9c   0x00000016   Code   RO         5561    i.netconn_apimsg    api_lib.o
    0x08007ab2   0x08007ab2   0x00000002   PAD
    0x08007ab4   0x08007ab4   0x00000054   Code   RO         5566    i.netconn_connect   api_lib.o
    0x08007b08   0x08007b08   0x0000001e   Code   RO         5567    i.netconn_delete    api_lib.o
    0x08007b26   0x08007b26   0x0000009c   Code   RO         5816    i.netconn_drain     api_msg.o
    0x08007bc2   0x08007bc2   0x0000001e   Code   RO         5569    i.netconn_err       api_lib.o
    0x08007be0   0x08007be0   0x000000f4   Code   RO         5817    i.netconn_free      api_msg.o
    0x08007cd4   0x08007cd4   0x00000100   Code   RO         5572    i.netconn_new_with_proto_and_callback  api_lib.o
    0x08007dd4   0x08007dd4   0x00000020   Code   RO         5573    i.netconn_prepare_delete  api_lib.o
    0x08007df4   0x08007df4   0x00000044   Code   RO         5581    i.netconn_send      api_lib.o
    0x08007e38   0x08007e38   0x00000158   Code   RO         7229    i.netif_add         netif.o
    0x08007f90   0x08007f90   0x00000016   Code   RO         7231    i.netif_do_ip_addr_changed  netif.o
    0x08007fa6   0x08007fa6   0x00000016   Code   RO         7232    i.netif_do_set_gw   netif.o
    0x08007fbc   0x08007fbc   0x00000058   Code   RO         7233    i.netif_do_set_ipaddr  netif.o
    0x08008014   0x08008014   0x00000016   Code   RO         7234    i.netif_do_set_netmask  netif.o
    0x0800802a   0x0800802a   0x00000002   PAD
    0x0800802c   0x0800802c   0x00000024   Code   RO         7236    i.netif_get_by_index  netif.o
    0x08008050   0x08008050   0x00000002   Code   RO         7238    i.netif_init        netif.o
    0x08008052   0x08008052   0x00000002   PAD
    0x08008054   0x08008054   0x0000005c   Code   RO         7240    i.netif_issue_reports  netif.o
    0x080080b0   0x080080b0   0x00000006   Code   RO         7242    i.netif_null_output_ip4  netif.o
    0x080080b6   0x080080b6   0x00000002   PAD
    0x080080b8   0x080080b8   0x00000060   Code   RO         7244    i.netif_set_addr    netif.o
    0x08008118   0x08008118   0x0000000c   Code   RO         7245    i.netif_set_default  netif.o
    0x08008124   0x08008124   0x00000044   Code   RO         7246    i.netif_set_down    netif.o
    0x08008168   0x08008168   0x0000003c   Code   RO         7252    i.netif_set_up      netif.o
    0x080081a4   0x080081a4   0x00000006   Code   RO         7410    i.pbuf_add_header   pbuf.o
    0x080081aa   0x080081aa   0x00000002   PAD
    0x080081ac   0x080081ac   0x00000060   Code   RO         7412    i.pbuf_add_header_impl  pbuf.o
    0x0800820c   0x0800820c   0x000001b8   Code   RO         7413    i.pbuf_alloc        pbuf.o
    0x080083c4   0x080083c4   0x00000050   Code   RO         7414    i.pbuf_alloc_reference  pbuf.o
    0x08008414   0x08008414   0x00000038   Code   RO         7415    i.pbuf_alloced_custom  pbuf.o
    0x0800844c   0x0800844c   0x000000c0   Code   RO         7416    i.pbuf_cat          pbuf.o
    0x0800850c   0x0800850c   0x00000012   Code   RO         7417    i.pbuf_chain        pbuf.o
    0x0800851e   0x0800851e   0x00000012   Code   RO         7418    i.pbuf_clen         pbuf.o
    0x08008530   0x08008530   0x0000003c   Code   RO         7419    i.pbuf_clone        pbuf.o
    0x0800856c   0x0800856c   0x00000158   Code   RO         7421    i.pbuf_copy         pbuf.o
    0x080086c4   0x080086c4   0x000000b4   Code   RO         7422    i.pbuf_copy_partial  pbuf.o
    0x08008778   0x08008778   0x000000e8   Code   RO         7424    i.pbuf_free         pbuf.o
    0x08008860   0x08008860   0x00000006   Code   RO         7429    i.pbuf_header_force  pbuf.o
    0x08008866   0x08008866   0x0000000e   Code   RO         7430    i.pbuf_header_impl  pbuf.o
    0x08008874   0x08008874   0x0000001c   Code   RO         7431    i.pbuf_init_alloced_pbuf  pbuf.o
    0x08008890   0x08008890   0x000000bc   Code   RO         7435    i.pbuf_realloc      pbuf.o
    0x0800894c   0x0800894c   0x0000003c   Code   RO         7436    i.pbuf_ref          pbuf.o
    0x08008988   0x08008988   0x00000068   Code   RO         7437    i.pbuf_remove_header  pbuf.o
    0x080089f0   0x080089f0   0x00000090   Code   RO         5818    i.pcb_new           api_msg.o
    0x08008a80   0x08008a80   0x00000128   Code   RO         7029    i.plug_holes        mem.o
    0x08008ba8   0x08008ba8   0x0000007c   Code   RO         5819    i.poll_tcp          api_msg.o
    0x08008c24   0x08008c24   0x0000008c   Code   RO         9563    i.print_call_stack  cm_backtrace.o
    0x08008cb0   0x08008cb0   0x00000070   Code   RO         4968    i.prvAddCurrentTaskToDelayedList  tasks.o
    0x08008d20   0x08008d20   0x000000d0   Code   RO         4969    i.prvAddNewTaskToReadyList  tasks.o
    0x08008df0   0x08008df0   0x00000050   Code   RO         5290    i.prvCheckForValidListAndQueue  timers.o
    0x08008e40   0x08008e40   0x00000054   Code   RO         4970    i.prvCheckTasksWaitingTermination  tasks.o
    0x08008e94   0x08008e94   0x00000026   Code   RO         4756    i.prvCopyDataFromQueue  queue.o
    0x08008eba   0x08008eba   0x0000006c   Code   RO         4757    i.prvCopyDataToQueue  queue.o
    0x08008f26   0x08008f26   0x00000014   Code   RO         4971    i.prvDeleteTCB      tasks.o
    0x08008f3a   0x08008f3a   0x00000002   PAD
    0x08008f3c   0x08008f3c   0x0000004c   Code   RO         5410    i.prvHeapInit       heap_4.o
    0x08008f88   0x08008f88   0x00000028   Code   RO         4972    i.prvIdleTask       tasks.o
    0x08008fb0   0x08008fb0   0x000000b8   Code   RO         4973    i.prvInitialiseNewTask  tasks.o
    0x08009068   0x08009068   0x0000004c   Code   RO         5411    i.prvInsertBlockIntoFreeList  heap_4.o
    0x080090b4   0x080090b4   0x00000038   Code   RO         5291    i.prvInsertTimerInActiveList  timers.o
    0x080090ec   0x080090ec   0x0000001a   Code   RO         4758    i.prvIsQueueEmpty   queue.o
    0x08009106   0x08009106   0x00000002   PAD
    0x08009108   0x08009108   0x00000094   Code   RO         4759    i.prvNotifyQueueSetContainer  queue.o
    0x0800919c   0x0800919c   0x00000060   Code   RO         5292    i.prvProcessExpiredTimer  timers.o
    0x080091fc   0x080091fc   0x000000e8   Code   RO         5293    i.prvProcessReceivedCommands  timers.o
    0x080092e4   0x080092e4   0x0000006c   Code   RO         5294    i.prvProcessTimerOrBlockTask  timers.o
    0x08009350   0x08009350   0x00000020   Code   RO         4974    i.prvResetNextTaskUnblockTime  tasks.o
    0x08009370   0x08009370   0x00000028   Code   RO         5295    i.prvSampleTimeNow  timers.o
    0x08009398   0x08009398   0x0000006c   Code   RO         5296    i.prvSwitchTimerLists  timers.o
    0x08009404   0x08009404   0x00000060   Code   RO         5472    i.prvTaskExitError  port.o
    0x08009464   0x08009464   0x00000058   Code   RO         4975    i.prvTaskIsTaskSuspended  tasks.o
    0x080094bc   0x080094bc   0x00000028   Code   RO         5297    i.prvTimerTask      timers.o
    0x080094e4   0x080094e4   0x00000078   Code   RO         4760    i.prvUnlockQueue    queue.o
    0x0800955c   0x0800955c   0x0000000c   Code   RO         7030    i.ptr_to_mem        mem.o
    0x08009568   0x08009568   0x00000110   Code   RO         5412    i.pvPortMalloc      heap_4.o
